:100000000C94A9020C94D1020C94D1020C94D1024C
:100010000C94D1020C94D1020C94D1020C94D10214
:100020000C94D1020C94D1020C94D1020C94D10204
:100030000C94D1020C94D1020C94D1020C94D102F4
:100040000C949F230C94D1020C94BB160C9495161F
:100050000C94D1020C94D1020C94D1020C94D102D4
:100060000C94D1020C94D102060909090C090F095C
:100070001209150918091B094641494C45442074C9
:100080006F2073656E642043414E00526573657442
:10009000206B6F6D706C6574742E2042697474658A
:1000A000204E6575737461727400526573657420B7
:1000B000496E646D656C6465722000666572746972
:1000C00067005661726961626C65200054657374E3
:1000D00065204C4544200050726F63657373696EF0
:1000E000673A200020494E56455254454400496E17
:1000F000644D656C646572200020494E564552542B
:10010000454400496E644D656C6465722000204969
:100110004E56455254454400496E644D656C6465C5
:1001200072200020494E56455254454400496E64A1
:100130004D656C6465722000206265656E6465744F
:100140000045696E6D657373656E2000203530253E
:100150003A0029203235253A0045696E6D65737382
:10016000656E20004578744D656C646572200045AD
:1001700058544D656C64657220004B616C69620077
:100180006665727469670020676573706569636886
:1001900065727420005661726961626C652000208E
:1001A00053636877656C6C65200049522D53656E0A
:1001B000736F7220006665727469673A2000283296
:1001C0002E4772656E7A6529204E6F2E004B616C4A
:1001D000696220496E642D6D656C64657220002033
:1001E000005641525320002000200020000A4556AE
:1001F000454E54533A0020000A4445562D4E554D65
:10020000424552533A0020000A494E5445524E414D
:100210004C205641525320280020000A4E4F44459E
:1002200020564152533A000A4E554D204556454EF0
:10023000545320564152533A000A4E554D204556CC
:10024000454E54533A000A466C6167733A000A4EB1
:100250004E3A000A43414E5F49443A004944454EF4
:10026000543A004D454D4F52592044554D5000537E
:10027000746172740053746162696C697369657248
:10028000756E672064657220496E642D4D656C64DF
:1002900065720052657365743A2043616E4944206B
:1002A00061756620323534004269742036202D3E57
:1002B0002073686F77204D656D6F727900426974A5
:1002C0002035202D3E20496E642D57656368736587
:1002D0006C0042697420302D343A20444542554721
:1002E0002D4368616E6E656C20776972642064616D
:1002F0007A7520616464696572743A202D3E2031FC
:100300003239206265646575746574206465627550
:100310006767696E6720766F6E204B616E616C2037
:100320003100426974203720766F6E205661726901
:1003300061626C65203239206D75737320312073D2
:1003400065696E20667565722044454255470041D7
:1003500072647543414E20524D204D656C64657248
:100360002056657273696F6E20002920494F3A004C
:1003700029204F66663A0020204F6E3A00455854B7
:100380004D656C6465722000292053636877656C45
:100390006C653A0029204F66663A0020204F6E3A7D
:1003A0000049522D4D656C646572200020446563E0
:1003B0006F6465723A0029205769646572737461CD
:1003C0006E647361636873653A002920426C616EE4
:1003D0006B3A0029204F66663A00204F6E3A00299A
:1003E0002020416B7469763A00496E642D4D656C2E
:1003F00064657220004B616C6962494E442100497A
:100400004E564552544544200049522D53656E7353
:100410006F7220004B616C6962494E44200045694F
:100420006E6D657373656E20676573746172746554
:10043000743A200045696E6D657373656E20626560
:10044000656E646574002043414E206E6963687474
:1004500020676573656E64657421004665686C6528
:10046000720053686F72743A204576656E7400208E
:1004700020204576656E7420004C6F6E673A204EE2
:100480006F64654E6F2000206E6963687420616B35
:100490007469763A205661726961626C6520312018
:1004A0002842697437290041757367616E672000BF
:1004B0006E6963687420616B746976006578744155
:1004C000757367616E672000204576656E745661AE
:1004D000723A20004576656E744D61746368200041
:1004E00077726974652076617220746F206565701B
:1004F000726F6D0000000000240027002A00000039
:100500000000250028002B0000000000230026002A
:100510002900040404040404040402020202020286
:1005200003030303030301020408102040800102B7
:100530000408102001020408102000000008000236
:100540000100000304070000000000000000F33376
:10055000EF3311241FBECFEFD8E0DEBFCDBF12E0D6
:10056000A0E0B1E0E6E2F6E702C005900D92A03906
:10057000B107D9F727E0A0E9B2E001C01D92AC3283
:10058000B207E1F712E0C8EAD2E004C02197FE0109
:100590000E94E936C73AD107C9F70E942D240C946E
:1005A000063B0C9400002F923F924F925F926F9205
:1005B0007F928F929F92AF92BF92CF92DF92EF92F3
:1005C000FF920F931F93CF93DF9300D000D01F9221
:1005D000CDB7DEB780910F078F3F29F480910E07CA
:1005E0008F3F09F44FC00E9493230091120710918E
:1005F00013072091140730911507DC01CB01801BF4
:10060000910BA20BB30B84369105A105B105D0F176
:1006100080918206909183060597A9F48091110735
:10062000813041F460E080910F070E94E421109234
:1006300011071EC061E080910F070E94E42181E054
:100640008093110715C08091F005813039F460E086
:1006500080910E070E94E42161E006C061E0809174
:100660000E070E94E42160E080910F070E94E421C0
:100670000E949323609312077093130780931407CB
:1006800090931507809116078F3F09F4AEC00E9422
:10069000BB2120911707892B81F4213009F0A5C0D7
:1006A0000E94932360938406709385068093860648
:1006B000909387061092170798C0211196C081E089
:1006C000809317070E94932300918406109185065A
:1006D0002091860630918706DC01CB01801B910BAF
:1006E000A20BB30B8C019D01095E13402109310956
:1006F0000738134121053105A8F42091F0058091B8
:10070000820690918306213049F4059761F583E0D4
:1007100090E0909383068093820667C0059709F066
:1007200064C0F5CF81379741A105B10508F45DC0DC
:100730008091F005811135C08091820690918306E9
:10074000059729F360E080910E070E94E42180E084
:100750000E94E9238091820690918306049719F400
:100760000E94D302F7CF85E090E0909383068093B8
:100770008206809120069091210620E52093F105C4
:100780009093F2058093F3051092F4051092F5050D
:100790001092F6051092F7051092F8050E949D1E22
:1007A00024C01092F00540912C064B7F40932C06FC
:1007B0004093D20565E170E08EEB95E00E94C3178F
:1007C00080912C0681FF09C08091360690913706F2
:1007D000909321068093200606C010922106109265
:1007E000200680E090E00E94BA20809182069091DD
:1007F0008306049709F079C00E9493230091840630
:10080000109185062091860630918706DC01CB0188
:10081000801B910BA20BB30B893E9340A105B10540
:1008200008F463C083E090E090938306809382068F
:1008300040910807A9E8B6E081E0841740F02091D4
:10084000080730E0E8E8F6E080E090E019C02D917C
:100850009FEF980F092F10E0F801E857F94F30810A
:10086000F801E757F94F231718F430839150F2CF6E
:1008700020838F5FE2CF41915981541738F0019660
:1008800041E0480F498382179307ACF349814093B5
:10089000C20562E170E08EEB95E00E94C3175981BA
:1008A00050931F06809133068823F9F0809120062B
:1008B0009091210622E52093F1059093F205809313
:1008C000F3051092F4051092F5051092F6051092BA
:1008D000F7051092F805E9816E2F70E080E090E056
:1008E00021EF35E043E00E94AC1D24E1422E26E0DA
:1008F000522E30EFA32E36E0B32E43E0C42ED12C7F
:100900007724739453ED252E69E5662E70E6872EC5
:10091000912C1092340680917C0690917D06892B53
:1009200009F03DC621E030E030937D0620937C063F
:100930008091800690918106181619062CF010926D
:100940007D0610927C062BC680917E0690917F06D4
:10095000CC9724F010927F0610927E06E2EEF6E02D
:10096000A0917E06B0917F06A45CB94F12968C913F
:10097000819380917E0690917F06019690937F06E9
:1009800080937E06809180069091810601979093D6
:1009900081068093800636E0E13FF30709F7109265
:1009A0007D0610927C06ECE0F6E011924E165F0692
:1009B000E1F71092180610921A061092190610927A
:1009C0001B068091E2068093FE058091E4068093E9
:1009D00014068091E506809315068091E6068093C3
:1009E00016068091E70680931706E8EEF6E08191FF
:1009F000DF01AD5DB1098C93AE16BF06C1F78091E2
:100A00000C068093FC05843008F4B4C0873009F4E8
:100A1000B1C0282F2F7B2F3309F4ACC092EA980F76
:100A2000923008F4A7C0982F9F7D9F3909F4A2C087
:100A3000863B09F49FC08F3D09F49CC03CEF380F02
:100A4000333008F49AC038EF380F333008F495C0CB
:100A50003FED380F333008F490C0803409F48DC076
:100A60003CEB380F373008F488C08C3409F485C06B
:100A7000382F3F7740EA430F423008F47EC03336C8
:100A800009F47BC0903809F478C03EE7380F343061
:100A900008F473C0823A09F470C030E4380F323081
:100AA00008F46BC036EA380F323008F469C030E71A
:100AB000380F353008F464C038E6380F333008F4A6
:100AC0005FC09D59923008F45BC0982F977F905B70
:100AD000923008F455C09DE4920F923008F450C053
:100AE00091E3980F933008F44BC09CE2980F92303A
:100AF00008F446C098E2980F923008F441C093E29F
:100B0000980F9230E8F190E1980F9230C8F19AE096
:100B1000980F9630A8F193E0980F933088F194EFF6
:100B2000980F923080F190EF980F923060F18234FC
:100B300051F190EB980F9A3030F194EA980F92307F
:100B400010F191E9980F9730F0F09BE6980F9330F1
:100B5000D0F095E6980F9230B0F0223BA1F0253B03
:100B600091F09EE2980F923070F0823E61F08F3EDD
:100B700069F409C084E090E00BC081E090E008C017
:100B800083E090E005C082E090E002C080E090E069
:100B9000909300068093FF058091E3068111709287
:100BA0001B0660E08EEB95E00E94671881FB112721
:100BB00010F989EF95E00E94F416082F882319F0A8
:100BC000112309F4C0C489EF95E00E940917882316
:100BD000C9F089EF95E00E941E179A8389830097D8
:100BE000B1F0AC0160E070E08EEB95E00E94BA18C5
:100BF0002091C80530E0482F50E0241735070CF449
:100C0000C1C436C00023E1F01130D1F404C0002388
:100C100089F1113079F589EF95E00E944917009725
:100C200079F0AC0160E070E08EEB95E00E94BA18BC
:100C30002091C80530E0482F50E024173507C4F450
:100C400089EF95E00E941E179A838983892B91F082
:100C500049815A8160E070E08EEB95E00E94BA18FD
:100C60002091C80530E0482F50E02417350714F0D4
:100C70008F5F01C080E08093340680911B0688233B
:100C800089F08091200690912106892B59F060917E
:100C90001F0670E080E090E021EF35E040E00E9428
:100CA000AC1D37CEE0908206F090830644E0E41657
:100CB000F10401F58091FE0581112BCE20910807EA
:100CC000233608F026CE8091140650E1859FC0019E
:100CD000112490911506929596959770892B809383
:100CE000FB05E22FF0E0E857F94F80832F5F209358
:100CF00008070FCE8091FF05909100068230910584
:100D000061F140F4019709F011C4E0910B07F091F3
:100D10000C071AC0E0910907F0910A07833091058A
:100D200019F0049731F002C480912C0680FDFEC3B7
:100D30000BC080912C0680FDF9C38091FC058730A3
:100D400009F01CC40C940000309709F4EFC36CEB5D
:100D500075E089EF95E00995E9C31091FC0589EFED
:100D600095E00E9464179A838983609120067091B0
:100D700021067C836B838617970771F0C701029762
:100D8000039750F41D3009F479C0103109F4B5C04F
:100D9000113109F0BECDF5C01D3509F4C3C1A0F570
:100DA000133509F442C178F4103109F4A6C020F4D7
:100DB0001D3009F0AECD62C0113109F4E2C0123429
:100DC00009F409C1A6CD163509F458C138F4143513
:100DD00009F432C1153509F444C19BCD173509F426
:100DE00068C1183509F095CD109218078091C50596
:100DF00094E79093F1059C819093F205EB81E09349
:100E0000F3058093F40587C3153909F426C220F54C
:100E1000123709F4ADC120F4113709F48FC179CD2F
:100E2000133709F4D5C1153709F073CD109218079F
:100E300080E680931F068093C20540E662E170E081
:100E40008EEB95E00E94C3178091200690912106B9
:100E500022E52093F10559C3123B09F4B4C238F4DA
:100E6000163909F42CC21C3909F47FC252CD123D47
:100E700009F4DBC2153F09F4D0C24BCD8B819C81B4
:100E8000892B09F446CD1092180780911F0690E037
:100E9000EB81FC81E817F90731F0909321068093EC
:100EA00020060E94BA2080912C0690912B0620915A
:100EB0002A063091200640912106F6EBF093F105C9
:100EC0004093F2053093F3052093F4059093F505D4
:100ED0008093F6057092F70583E08093F8056B81A7
:100EE0007C81660F771F2B813C81260F371FB9014C
:100EF00080E090E00E9459233EC010921807809134
:100F00001F0690E04B815C814817590731F09093A0
:100F10002106809320060E94BA208091820690913B
:100F20008306059709F0F5CCE1EFF5E089EF95E050
:100F300011928E179F07E1F780912E06909131064E
:100F40002091300630912F0640912B0650912D06AE
:100F500060912A067FEE7093F1056093F20550933D
:100F6000F3054093F4053093F5052093F60590932F
:100F7000F7058093F8050E949D1E882309F4C9CCCB
:100F8000D5C21092180780911F0690E0EB81FC817A
:100F9000E817F90731F090932106809320060E940C
:100FA000BA208091820690918306059791F48091F2
:100FB000280690912706209126063091250640911B
:100FC00024065091230660912206F2EEF093F1057B
:100FD000C4CF83E085C01092180725E0E216F10423
:100FE000C1F789EF95E00E946417909321068093E2
:100FF00020060E94BA20809120069091210622E5C9
:101000002093F1059093F2058093F3051092F40577
:101010001092F5051092F6051092F7051092F8055A
:10102000D0928306C0928206A6CF10921807109223
:101030008306109282066DCC1092180780911F06CD
:1010400090E04B815C814817590731F0909321065D
:10105000809320060E94BA20D0928306C092820616
:1010600081C1EF2809F055CC40E067E170E08EEBDC
:1010700095E00E94C3171092C5054BCC109218073B
:1010800080912F069091C505891B90E79093F105FB
:101090005C815093F2056B816093F3058093F405B6
:1010A0001092F5051092F6051092F7051092F805CA
:1010B00062CF109218070091C505002309F429CCCE
:1010C000EC8010E082EFF82E011709F422CC812F7A
:1010D0000E94D020FC018091D805882321F08AE06D
:1010E0000E94492016CC8381928121813081F09227
:1010F000F105E092F2057B817093F3053093F405DE
:101100002093F5059093F6058093F7051093F80565
:101110000E949D1E882321F088E790E00E941920FC
:101120001F5FD2CF29813A814B815C81241735071B
:1011300009F0EFCB81E00E94E923EBCB1092180776
:1011400010910F066FEF610F8EEB95E00E9467180C
:101150009091D8059111C3CF97E99093F1055C81E7
:101160005093F2056B816093F3051093F40572C000
:1011700010921807E1EFF5E089EF95E011928E17D4
:101180009F07E1F70E948C20182F8FEF810F0E949C
:10119000D020FC018091D805882311F086E0A0CFF3
:1011A000838192812181308142EF4093F1057C81DE
:1011B0007093F205EB81E093F3053093F4052093EF
:1011C000F5059093F6058093F7051093F805ABC1EC
:1011D0001092180790910F0691110DC08BE9809322
:1011E000F105FC81F093F2052B812093F305109219
:1011F000F40588E02FC0492F50E0FA013197E8301C
:10120000F105E0F4EC5CFF4F0C94E93680912A067E
:1012100016C080912D0613C080912B0610C08091BE
:101220002F060DC0809130060AC08091310607C09C
:1012300080912E0604C080912C0601C080E02BE92D
:101240002093F1053C813093F2054B814093F305E7
:101250009093F4058093F50560C11092180789EF0B
:1012600095E00E9449179A83898389EF95E00E944F
:10127000641749815A81BC018EEB95E00E94BA182F
:101280008983109288061092890610928A0610921D
:101290008B06482F68E876E08EEB95E00E94B81A3E
:1012A000598158137BCF652F70E020E040E08EEB32
:1012B00095E00E941B18882309F42BCB10CF809156
:1012C0001807811126CB60910F06615069837091D8
:1012D00010067B836B31F1F47E3F81F48EEB95E059
:1012E0000E94391B70921807909221068092200666
:1012F00080E690E00E94BA2080E68B839B819093E9
:101300001F069093C205492F62E170E08EEB95E0D5
:101310000E94C31780913106E9818E17E8F04B8156
:101320006E2F8EEB95E00E947718809120069091A9
:1013300021066092F1059093F2058093F3051092D7
:10134000F4051092F5051092F6051092F70510922B
:10135000F8050E949D1E06C0F981FF3F19F089E043
:101360000E94492070923506D4CA109218070E9434
:101370008C208B830E94A320898380913006298151
:10138000821708F4ACCE422F41506B8161508EEB36
:1013900095E00E9449189091D8059111A0CE9091A6
:1013A00020062091210635EB3093F1052093F205BC
:1013B0009093F3053B813093F40549814093F50503
:1013C0008093F605ACC010921807EF2861F50E94D3
:1013D000A320182F0E94D0209A83898340E0612F98
:1013E0008EEB95E00E9449189091D8059111D6CEC8
:1013F000E981FA8193812281318140812092F10536
:101400004093F2053093F3052093F4059093F5058E
:101410001093F6058093F70584C080911807811119
:1014200078CAEF2889F182E05BCE8091180781119C
:1014300070CA89EF95E00E944917F82EE92E0E94A4
:10144000A3208B83F0911206FD832A8120938806C6
:10145000398130938906E0928A06F0928B06482FF4
:1014600068E876E08EEB95E00E94B81A4B8148134D
:1014700095CE642F70E02D8140E08EEB95E00E94C8
:101480001B1881112CCE3BC089EF95E00E944917B3
:10149000F82EE92E0E94A3208B83309013060E9421
:1014A0008C208D835A8150938806698160938906C8
:1014B000E0928A06F0928B06482F415068E876E069
:1014C0008EEB95E00E94B81A682F70E0ED818E2FA8
:1014D00090E001976817790709F060CE4B81415081
:1014E000232D8EEB95E00E941B1890E03B81232F6B
:1014F00030E0215031098217930709F0F0CD809137
:101500002006909121066092F1059093F205809358
:10151000F3051092F4051092F5051092F60510925D
:10152000F7051092F8050E949D1EF3C9E091090786
:10153000F0910A07309709F4ECC96CEB75E089EF7C
:1015400095E00995E6C989EF95E00E9449179A83CD
:10155000898389EF95E00E94641749815A81BC0113
:101560008EEB95E00E94BA182091C80530E0482F14
:1015700050E0241735070CF426CB7ACB8E3509F4CE
:10158000E1CBE2CB002309F463CB113009F443CB68
:1015900089EF95E00E941E179A83898359CB80E0DA
:1015A0000F900F900F900F900F90DF91CF911F91A0
:1015B0000F91FF90EF90DF90CF90BF90AF909F90F2
:1015C0008F907F906F905F904F903F902F900895F5
:1015D0002F923F924F925F926F927F928F929F9243
:1015E000AF92BF92CF92DF92EF92FF920F931F9331
:1015F000CF93DF9300D01F92CDB7DEB710923506A0
:1016000060E08EEB95E00E946718982F991F99274C
:10161000991F90934E038695817080939002B1E953
:10162000CB2EB2E0DB2E8601198289810E94D02068
:10163000FC0182819381982789279827F80181935B
:1016400091938F01F981FF5FF983FD3171F720914B
:101650000B0330910C033B832A836AE18EEB95E008
:101660000E94AD1890E0EA81FB81E817F90709F4C0
:101670008AC002E413E01B821A8277247394812CBF
:10168000912C540183946A80E0900B03F0900C033A
:10169000062C02C0F594E7940A94E2F76AE18EEB17
:1016A00095E00E94AD1890E00A8002C0959587955C
:1016B0000A94E2F7E826F926E0FE40C08091CB02CA
:1016C000282F30E00A8002C0359527950A94E2F76A
:1016D000B501A401062C04C0440F551F661F771FD7
:1016E0000A94D2F720FD04C0482B4093CB0204C0DB
:1016F000409584238093CB02F8018081882311F0E8
:10170000108202C0F80170828091CB0290E002C08A
:10171000959587956A94E2F790919002F601608121
:10172000718180FF06C081E0911180E00E94D61F88
:1017300005C081E0911180E00E949F1F2A813B81BA
:101740002F5F3F4F3B832A8332E0C30ED11C0F5FD4
:101750001F4F8A819B810C9709F095CF6AE18EEB30
:1017600095E00E94AD1890E090930C0380930B03DA
:101770008091C705893138F08091CB0290E0909339
:101780009F0580939E0555EDE52E52E0F52EFB82D8
:10179000EA8263E0362E00E010E073E0C72ED12C21
:1017A000ECE36E2E712C812C912C540183940983CF
:1017B000202E6EEF630D8EEB95E00E94AD1890E049
:1017C000EA81FB81833091051CF09383828302C000
:1017D000D382C2826FEF630D8EEB95E00E94AD184D
:1017E00090E0EA81FB81833091051CF0958384832E
:1017F00002C0D582C482F981F43008F471C0442457
:101800004394512C022C02C0440C551C0A94E2F75C
:1018100080913F0390E084219521632D481659065D
:1018200049F58091000190910101892B19F58EEB0A
:1018300095E00E94AD188F3F09F052C070920101EF
:1018400060920001D501C40104C0880F991FAA1F2E
:10185000BB1F2A94D2F7809590913F0389238093F0
:101860003F03809125038823D9F184E394E00E940B
:10187000192036C08EEB95E00E94AD18282F30E07D
:10188000EA81FB813783268381508E3F48F1109295
:1018900001011092000180913F03482A40923F03CA
:1018A00080913E032F3F310511F48F7701C080688E
:1018B00080933E0380912503882349F08EE194E0D4
:1018C0000E946E1F6AE070E089810E940D20E6E2AE
:1018D000F3E0119211922EE333E02E173F07C9F780
:1018E0000F5F1F4F33E0330E8A819B8106969B83E7
:1018F0008A839BE139125BCF99E1C92E93E0D92EFF
:1019000006E213E023E0522E1B821A82812C912CD6
:10191000540183946A816E5D8EEB95E00E94AD1850
:1019200090E0F601819391936F016A807B80FFEFD5
:101930006F1A7F0A652D8EEB95E00E94AD18282F57
:1019400030E0F7013783268381508E3FA0F5E3E036
:101950005E0EF6E0EF0EF11C0E5F1F4F7B826A8277
:10196000930124303105B1F666E28EEB95E00E94DA
:10197000AD1890E0909322038093210361E28EEBF7
:1019800095E00E94AD1890E09093180380931703A0
:1019900067E28EEB95E00E94AD1890E090932403EF
:1019A000809323038FE0E82E83E0F82E0DE011E012
:1019B0001B821A822CC0D501C4010A8004C0880F82
:1019C000991FAA1FBB1F0A94D2F720913F03822BB5
:1019D00080933F03F8011182108284E194E00E9419
:1019E0006E1F6AE070E0C3010E94621FB0CF61E029
:1019F000F80180810E94DB222A813B812F5F3F4FCB
:101A00003B832A830F5F1F4F24303105C9F06A8161
:101A1000635E8EEB95E00E94AD1890E0F701819334
:101A200091937F0180912303909124030A8002C047
:101A3000959587950A94E2F780FFD9CF62E0D8CFD9
:101A40006CE18EEB95E00E946718881F8827881F3D
:101A5000809325038823B1F06CE18EEB95E00E9422
:101A600067188F708093CC026CE18EEB95E00E943A
:101A7000671885FB882780F990912503890F80934B
:101A8000250302C01092CC020F900F900F90DF91AF
:101A9000CF911F910F91FF90EF90DF90CF90BF906B
:101AA000AF909F908F907F906F905F904F903F90FE
:101AB0002F900895DF92EF92FF920F931F93CF9391
:101AC000DF93C82F7B01D42E89E094E00E946E1F23
:101AD000D0E06AE070E0CE0101960E941F1F8AEEFE
:101AE00091E00E94891F8E010C5F1F4FF801EE0FDD
:101AF000FF1FEF56FD4F808191810E948B1FDD20DB
:101B000019F080E292E002C087E292E00E94891F11
:101B100080910B0390910C0302C0959587950A95CF
:101B2000E2F780FF04C08FEF93E00E946E1F809168
:101B30002503882309F44DC08FEC91E00E94891F92
:101B40008E010B5F1F4FC801880F991F080F191FC7
:101B5000000F111F0B521D4FF801808191819C01D4
:101B6000220F331F820F931F6AE070E044960E9499
:101B70001F1F8AEE91E00E94891F6AE070E0F80161
:101B8000808191810E941F1F85E092E00E94891F41
:101B9000CC0FDD1FC353DD4F6AE070E0888199816F
:101BA0000E941F1F8FEC91E00E94891F6AE070E085
:101BB000C7010E941F1F8FEC91E00E94891F88813E
:101BC00099816AE070E09701281B390BC9010E94D6
:101BD0001F1F8EE892E0DF91CF911F910F91FF9030
:101BE000EF90DF900C94D21E5F926F927F928F9253
:101BF0009F92AF92BF92CF92DF92EF92FF920F939C
:101C00001F93CF93DF938FE09FEF909341038093D7
:101C100040030E948A1D62E370E080E090E00E9431
:101C2000592305ED12E086E2C82E83E0D82E94E019
:101C3000592EC0E0D0E066246A94712C812C912C3E
:101C4000540183947E012FEFE21AF20AF8017782A1
:101C500066826FEF852D0E945B20D501C40104C010
:101C6000880F991FAA1FBB1FCA95D2F720913F0367
:101C7000822B80933F03F601119211926F0185EF41
:101C800093E00E946E1F6AE070E0C7010E94621F2D
:101C90000A5F1F4FF3E05F0EE701C430D10591F6F4
:101CA0001092410310924003DF91CF911F910F9149
:101CB000FF90EF90DF90CF90BF90AF909F908F906C
:101CC0007F906F905F9008957F928F929F92AF92D6
:101CD000BF92CF92DF92EF92FF920F931F93CF9319
:101CE000DF938EE892E00E94D21EC1E9CC2EC2E0C2
:101CF000DC2E05ED12E0D9E1AD2ED3E0BD2EE801DA
:101D0000E12CF12C84E1782E89EE93E00E946E1F85
:101D100047012FEF821A920A6AE070E0C4010E9424
:101D20001F1F8FEC91E00E94891FF6018191919114
:101D30006F010E948B1F8AEE91E00E94891FF601BD
:101D4000808991890E948B1F8FED93E00E946E1F06
:101D500080911703909118030E2C02C095958795DA
:101D60000A94E2F76AE070E0817099270E941F1FD1
:101D700088EC91E00E94891FF4E0EF0EF11C809145
:101D800017039091180302C095958795EA94E2F79E
:101D90006AE070E0817099270E941F1F8AED93E02E
:101DA0000E946E1F8A819B8101966AE070E09C010F
:101DB000729EC001739E900D11240E941F1F8BEE16
:101DC00091E00E94891F6AE070E08A819B810E94F5
:101DD0001F1F83ED93E00E946E1F8C819D810196F1
:101DE0006AE070E0FC017E9EC0017F9E900D112490
:101DF0000E941F1F8BEE91E00E94891F6AE070E035
:101E00008C819D810E941F1F8AEC93E00E946E1FAF
:101E10008E819F816AE070E081509F4F0E941F1F5A
:101E20008BEE91E00E94891F6AE070E08E819F81B5
:101E30000E941F1F86EB93E00E946E1F8E819F8180
:101E40002091210330912203821B930B6AE070E002
:101E500081509F4F0E941F1F8CEA93E00E946E1FCB
:101E60006AE070E0F501819191915F010E94621F2B
:101E700026967401F4E08F16910409F045CF8EE8A0
:101E800092E00E94D21EB9E9EB2EB2E0FB2EC0E038
:101E9000D0E081EA93E00E946E1F21966AE070E034
:101EA000CE010E941F1F8FEC91E00E94891FF70155
:101EB000819191917F010E948B1F8BE993E00E9499
:101EC0006E1FF801828D938D01966AE070E0880F95
:101ED000991F880F991F0E941F1F8BEE91E00E948F
:101EE000891F6AE070E0F801828D938D0E941F1FA8
:101EF00084E993E00E946E1FF801848D958D019610
:101F00006AE070E0880F991F880F991F0E941F1FB9
:101F10008BEE91E00E94891F6AE070E0F801848DE9
:101F2000958D0E941F1F88E893E00E946E1FF801A4
:101F3000868D978D9C01220F331F820F931F6AE0BD
:101F400070E044960E941F1F8BEE91E00E94891F53
:101F50006AE070E0F801868D978D0E941F1F85E171
:101F600092E00E94D21E0A5F1F4FC430D10509F0D3
:101F700090CF8EE892E00E94D21E3BEAE32E32E040
:101F8000F32E0FE013E0C0E0D0E044E1A42E50E5D2
:101F9000B52E8DE793E00E946E1F9C2E21966AE07D
:101FA00070E0CE010E941F1F8FEC91E00E94891FFC
:101FB000F701819191917F010E948B1F87E793E048
:101FC0000E946E1F6801F80120813181207F332734
:101FD00084E0359527958A95E1F7A29EC001A39EDE
:101FE000900D11246AE070E00A960E941F1F8BEE8C
:101FF00091E00E94891FF80180819181807F99275B
:102000006AE070E024E0969587952A95E1F70E94B2
:102010001F1F80E793E00E946E1FF801219131910C
:102020008F012F703327B29EC001B39E900D1124F3
:102030006AE070E044960E941F1F8BEE91E00E94C0
:10204000891FF601808191816AE070E08F70992785
:102050000E941F1F8AE693E00E946E1F8091230357
:102060009091240302C0959587959A94E2F76AE0CF
:1020700070E0817099270E94621FC430D10509F079
:1020800088CF8EE892E0DF91CF911F910F91FF9062
:10209000EF90DF90CF90BF90AF909F908F907F9008
:1020A0000C94D21E2F923F924F925F926F927F922A
:1020B0008F929F92AF92BF92CF92DF92EF92FF9258
:1020C0000F931F93CF93DF93CDB7DEB728970FB64B
:1020D000F894DEBF0FBECDBF61E088E00E94DB2236
:1020E00061E087E00E94DB2261E089E00E94DB2260
:1020F0000E948A1D83E08093020159E0452E51E041
:10210000552E61E1C62E61E0D62E2DE031E03A83F6
:1021100029838601520160E0D5018D915D010E9405
:10212000DB2260E0F80181918F010E94DB2262E0F6
:10213000A981BA818D91BA83A9830E94DB22BDE077
:10214000AB16B1E0BB0639F7E091F703F091F80365
:1021500082E08083E091F303F091F4031082E09138
:10216000F503F091F60380E180831092FF03E09184
:10217000FB03F091FC0386E08083E091F903F0918A
:10218000FA03808180618083E091F903F091FA0382
:10219000808188608083E091F903F091FA03808167
:1021A00080688083E091F903F091FA0380818F7D4C
:1021B00080838FE493E00E946E1F6AE070E081E00C
:1021C00090E00E941F1F8EE292E00E94891F6AE049
:1021D00070E083E090E00E94621F8EE892E00E942F
:1021E000D21E82E293E00E94192082ED92E00E94CA
:1021F00019208DEB92E00E94192088EA92E00E945B
:1022000019208EE892E00E94D21E83E992E00E949B
:1022100019208EE892E00E94D21E62E08AE00E94BD
:10222000DB2262E08BE00E94DB2262E08CE00E9415
:10223000DB228AE00E94BB21892B09F052C38BE08C
:102240000E94BB21892B09F04CC38CE00E94BB216A
:10225000892B09F046C30E94F40DA2E2B6E0FD010D
:10226000119226E0EA32F207D9F7E0E3F2E0819139
:102270008D9332E0E733F307D1F78DE580932B069A
:102280008DE080932A0683E380932D0681E080937E
:102290002E0680912C06836080932C0684EC90E0BF
:1022A000A0E0B0E08093360690933706A0933806FE
:1022B000B093390680E099E190930A07809309076B
:1022C0008AE08093E90561E00E94DB2261E0809171
:1022D000E9050E94E42184E190E09A8389834CE13E
:1022E000A42E45E0B42E50E3E52E55E0F52EDFB6E2
:1022F000F8948091E603811126C0F5018491F701DD
:102300002491E82FF0E0EE0FFF1FEC50FB4FA5915A
:10231000B4919C91822F892321F461E08AE00E948C
:10232000E42161E08AE00E94DB228CB580618CBDF3
:102330008CB580648CBD61E08DE00E94DB2261E0A1
:102340008BE00E94DB228091E6038F5F8093E6039F
:10235000DFBE60E08091E9050E94E42180EC0E94EC
:10236000ED1661E08091E9050E94E4216AE070E0E9
:1023700080E090E00E94592380E80E947A20882320
:10238000B1F06AE070E080E090E00E9459236EE1D5
:1023900070E080E090E00E94592329813A81215029
:1023A00031093A832983232B09F0A1CF4BC06AE07E
:1023B00070E080E090E00E94592361E08AE20E9490
:1023C000752161EB89E20E94752165E088E20E9437
:1023D00075216AE070E080E090E00E94592310E3EC
:1023E00060E0812F0E94752160E080E1810F0E94F2
:1023F000752160E080E2810F0E9475211F5F1E330E
:1024000079F760E080E60E94752160E080E70E9435
:10241000752163E08BE20E94752144E064E680E66A
:102420000E94272140E060E680E70E94272180E0AB
:102430000E947A208111A5CF6AE070E080E090E0F0
:102440000E9459238FEF809316076CE18EEB95E085
:102450000E94671886FFBDC18EEB95E00E943F1C6D
:1024600083E692E00E9419208CE592E00E946E1FA4
:1024700080E090E00E94C1176AE070E00E94911F26
:1024800083E592E00E946E1F6AE070E08091C205D1
:102490000E94911F8EE492E00E946E1F8091C305FE
:1024A0009091C4059827892798279093D405809305
:1024B000D3050E948B1F86E492E00E946E1F6AE0A3
:1024C00070E08091D2050E94911F89E392E00E9402
:1024D0006E1F6AE070E08091C5050E94911F87E23F
:1024E00092E00E946E1F6AE070E08091C9050E9430
:1024F000911F8BE192E00E946E1F6AE070E0809174
:10250000C7050E94911F88E392E00E94891F6AE03C
:1025100070E089E190E00E941F1F88EC91E00E942A
:10252000891F8091C70590E06AE070E048960E949C
:102530001F1F8FE392E00E94891F19828091C705B7
:102540003981381788F4832F90E049960E94C1178B
:1025500060E170E00E94911F89E192E00E946E1F8D
:1025600049814F5F4983EACF88E092E00E946E1F65
:102570006AE070E080E190E00E941F1F83E492E037
:102580000E94891F6AE070E082E090E00E941F1FB5
:1025900088EC91E00E94891F6AE070E081E190E0A0
:1025A0000E941F1F8FE392E00E94891F82E090E04B
:1025B0009A83898389819A810E94C11760E170E0C2
:1025C0000E94911F86E092E00E946E1FA981BA814D
:1025D0001196BA83A983529769F788EF91E00E9418
:1025E0006E1F6AE070E08091CA050E94911F89E425
:1025F00092E00E94891F6AE070E08091CD050E9400
:10260000911F88EC91E00E94891F8091CA0590E09B
:102610000197880F991F2091CD05820F911D6AE0C7
:1026200070E001960E941F1F8FE492E00E94891FB4
:102630006AE070E082E090E00E941F1F8FE392E06A
:102640000E94891F10E08091CA05181728F5E12F14
:10265000F0E0EE0FFF1FFA83E9838091CD05E80FCC
:10266000F11DCF010E94C11760E170E00E94911F2F
:102670008091CD0529813A81280F311DC90101962C
:102680000E94C11760E170E00E94911F86EF91E007
:102690000E946E1F1F5FD7CF8091CB059091CC0514
:1026A0009A8389838DEE91E00E946E1F6AE070E04C
:1026B0008091C8050E94911F89E492E00E94891FC1
:1026C0006AE070E089819A810E941F1F88EC91E086
:1026D0000E94891F8091C805A981BA81E4E08E9F7C
:1026E000A00DB11D1124CD016AE070E001970E9498
:1026F0001F1F8FE492E00E94891F6AE070E084E06F
:1027000090E00E941F1F8FE392E00E94D21E10E013
:102710008091C805181708F05CC0E980FA80F4E0E1
:10272000EF0EF11C89819A810E94C11760E170E06F
:102730000E94911F29813A812F5F3F4F3A8329835D
:102740008BEE91E00E946E1F89819A818E159F0504
:1027500049F789EE91E00E946E1FC12ED12CCC0C5E
:10276000DD1CE12CF12CF601EE0DFF1DEC57FB4FAB
:1027700060E170E0808191810E941F1F87EE91E0EF
:102780000E946E1F9AE3E90EF11CA8EEEA16F1040E
:1027900051F781EE91E00E946E1F00E08091C90523
:1027A000081798F489819A810E94C11760E170E04E
:1027B0000E94911FE981FA813196FA83E9838FEDB6
:1027C00091E00E946E1F0F5FE9CF0E94CE1E1F5F37
:1027D0009FCF80912503811110C010920E0781E0D8
:1027E00080930F0761E080E00E94DB2280910F0759
:1027F0008F3F19F061E00E94DB220E94E80A0E94EC
:10280000640E85E792E00E94192001E010E0D201F9
:10281000BD902D018B2D0E9417236C019A83898313
:10282000B2E0CB16D1049CF18B2D0E9417237C01C2
:1028300089819A818E199F0997FF03C0919581958F
:1028400091096C016AE070E080E090E00E945923F9
:1028500080912503811103C0FA82E982E1CF6AE009
:1028600070E0C8010E941F1F85E592E00E94891F49
:102870006AE070E0C7010E941F1F8FEC91E00E9488
:10288000891F6AE070E0C6010E94621FE5CF0F5FFA
:102890001F4F0530110509F0BACF8EE892E00E9473
:1028A000D21E8FE692E00E9419208EE892E02896D0
:1028B0000FB6F894DEBF0FBECDBFDF91CF911F9151
:1028C0000F91FF90EF90DF90CF90BF90AF909F90CF
:1028D0008F907F906F905F904F903F902F900C94CF
:1028E000D21E8AE00E94BB21892B09F0B6CC8DEC68
:1028F00091E00E946E1F8BE00E94BB21892B39F46E
:102900008EEB91E00E946E1F7724739401C0712CAE
:102910001E821D82F60181916F010E9417230D8195
:102920001E810F5F1F4F803293400CF042C06D80BC
:102930006AE070E0C8010E94621F81E090E0A0E0C0
:10294000B0E02D813E812B5E3E4F6901F90100848C
:1029500004C0880F991FAA1FBB1F0A94D2F72091A9
:10296000400330914103822B932B9093410380933A
:1029700040030E948A1DC801880F991F800F911F74
:102980002D813E81275F3E4F3A832983880F991F0F
:10299000DC01AB52BD4FBC83AB83812C912C540125
:1029A00083941601B8E02B0E311CCC24C394D12C97
:1029B00049C01E830D830430110509F0ABCF0E947E
:1029C000821D98C0AF81B8852D913D91B887AF83A6
:1029D00037FF06C0AB81BC814D915C91240F351F40
:1029E000B501A401078004C0440F551F661F771F5F
:1029F0000A94D2F72E153F050CF050C0842B952B6E
:102A000031972DE031E02E173F07E1F69093410317
:102A100080934003772071F09601D1010C9002C0A1
:102A2000220F331F0A94E2F78227932790934103E2
:102A3000809340030E948A1D6AEF70E080E090E07E
:102A40000E9459238AE00E94BB21892B61F5E9810C
:102A5000FA8180810E9417237C016AE070E00E9465
:102A60001F1F8FEC91E00E94891F6AE070E0C70190
:102A70000E941F1F8FEC91E00E94891F62E070E0AE
:102A8000C7010E94621F809140039091410325E29B
:102A900031E038872F83E5E1F1E094CF4095509500
:102AA00084239523ADCF85EB91E00E946E1FF80142
:102AB000EE0FFF1FE00FF11FEE0FFF1FEB52FD4F58
:102AC000B2E0EB0EF11CF182E082ED81FE81EE0FAF
:102AD000FF1FE75EFC4FFA83E983608183E2860D86
:102AE0000E945B206AE070E0A981BA818D919C917F
:102AF0000E94621F10924103109240030E948A1D9F
:102B0000ACCBCF92DF92EF92FF920F931F93CF93B4
:102B1000DF936C017A018B01C0E0D0E0CE15DF05B8
:102B200081F0D8016D918D01D601ED91FC9101905C
:102B3000F081E02DC6010995892B11F02196EECF89
:102B40007E01C701DF91CF911F910F91FF90EF9010
:102B5000DF90CF900895089580E090E00895FC0103
:102B6000538D448D252F30E0842F90E0821B930BF2
:102B7000541710F0CF96089501970895FC01918D98
:102B8000828D981761F0828DDF01A80FB11D5D96CF
:102B90008C91928D9F5F9F73928F90E008958FEF3D
:102BA0009FEF0895FC01918D828D981731F0828DF1
:102BB000E80FF11D858D90E008958FEF9FEF089548
:102BC000FC01918D228D892F90E0805C9F4F821BAC
:102BD00091098F739927089587EE93E00E94E0157D
:102BE00021E0892B09F420E0822F0895FC01848DD7
:102BF000DF01A80FB11DA35ABF4F2C91848D90E027
:102C000001968F739927848FA689B7892C93A08901
:102C1000B1898C91837080648C93938D848D98138B
:102C200006C00288F389E02D80818F7D808308951E
:102C3000EF92FF920F931F93CF93DF93EC0181E00C
:102C4000888F9B8D8C8D981305C0E889F9898081C8
:102C500085FD26C0F62E0B8D10E00F5F1F4F0F7302
:102C60001127E02E8C8DE8120CC00FB607FCFACFAE
:102C7000E889F989808185FFF5CFCE010E94F6159C
:102C8000F1CF8B8DFE01E80FF11DE35AFF4FF0826B
:102C90009FB7F8940B8FEA89FB89808180620AC014
:102CA0009FB7F894EE89FF896083E889F98980816C
:102CB0008370806480839FBF81E090E0DF91CF913B
:102CC0001F910F91FF90EF900895CF93DF93EC0148
:102CD000888D8823C9F0EA89FB89808185FD05C03C
:102CE000A889B9898C9186FD0FC00FB607FCF5CF76
:102CF000808185FFF2CFA889B9898C9185FFEDCFBE
:102D0000CE010E94F615E7CFDF91CF91089580E0C4
:102D100090E0892B29F00E94EC1581110C940000A1
:102D200008950E9410380C9487371F920F920FB6A7
:102D30000F9211242F933F934F935F936F937F9341
:102D40008F939F93AF93BF93EF93FF9387EE93E09F
:102D50000E94F615FF91EF91BF91AF919F918F91D6
:102D60007F916F915F914F913F912F910F900FBE87
:102D70000F901F9018951F920F920FB60F9211246B
:102D80002F938F939F93EF93FF93E091F703F0912D
:102D9000F8038081E091FD03F091FE0382FD12C0F3
:102DA0009081809100048F5F8F73209101048217BE
:102DB00051F0E0910004F0E0E951FC4F958F8093D1
:102DC000000401C08081FF91EF919F918F912F911D
:102DD0000F900FBE0F901F9018958EBD00000DB480
:102DE00007FEFDCF8EB50895FC019381892F8F7D5D
:102DF0008059823058F080E3890F823038F081E0CA
:102E0000903F31F0913F21F080E0089581E00895F6
:102E10000895FC019381892F8F7D8859823058F065
:102E200088E2890F823038F081E0983F31F0993F95
:102E300021F080E0089581E008950895FC019381D8
:102E40009B35C1F088E6890F8330A0F0892F8F79F8
:102E50008D59823078F088E4890F823058F088E20A
:102E6000890F823038F088E0890F843018F080E0D4
:102E700090E0089586E0890F823010F09B3519F4B8
:102E80008489958902C086899789982789279827F8
:102E90000895FC019381292F2F7B2059263070F053
:102EA00080E5890F853050F080E1890F823030F065
:102EB000935F933018F080E090E0089586899789B9
:102EC0009827892798270895FC0193899234A9F1BE
:102ED00080EB890F8B3088F184EA890F823068F1AA
:102EE00081E9890F873048F180E7890F8F3028F119
:102EF00080E5890F873008F188E4890F8230E8F097
:102F0000292F2F7B2D5B2230C0F080E3890F863084
:102F1000A0F088E2890F823080F083E2890F82304E
:102F200060F0933E51F080E1890F823030F0935F82
:102F3000973018F080E090E008958489958998276B
:102F400089279827089508950C9487370C9487371C
:102F50000C94A536FC018EE491E091838083DF011F
:102F60005396CF014B961D92A817B907E1F7138E20
:102F7000148E158E168E178E11A210A212A208950D
:102F800008950C949D36CF92DF92EF92FF921F939B
:102F9000CF93DF937C016B01142FCB010E94C117EB
:102FA000811721F0612FC6010E94A817F7018385C0
:102FB00090E004962285289FE001299FD00D1124DE
:102FC00085859685C80FD91FC535F1E0DF075CF50B
:102FD000CC0DDD1DCE010E94C117181721F0612F05
:102FE000CE010E94A817F701838590E004964285E0
:102FF000489F9001499F300D112485859685820F49
:10300000931FC80FD91FCE010E94C117181759F07E
:10301000612FCE01DF91CF911F91FF90EF90DF9054
:10302000CF900C94A817DF91CF911F91FF90EF9054
:10303000DF90CF900895CF93DC01942F17964C9199
:10304000179750E06417750718F081E0890F1FC0CB
:103050001B96EC911B979E17C0F7422FC92FCD01ED
:10306000F0E03496E69FD001E79FB00DF69FB00DDB
:103070001124FC0125853685BD01620F731FEC2FDD
:10308000F0E034966E0F7F1F0E94C3178C2FCF91F4
:103090000895FC01128E87816817B0F423854217CA
:1030A00098F430E02C5F3F4F629FD001639FB00DDA
:1030B0001124858596858A0F9B1F50E04C5F5F4FDA
:1030C000840F951F0C94C1178FEF828F0895FC0118
:1030D000128E8185681718F08FEF828F0895E62F82
:1030E000F0E0EE0FFF1FE459FA4F80810895FF9240
:1030F0000F931F93CF93DF93FC012185261738F19F
:10310000F42E8C01C62FD0E0FE01EE0FFF1FE45914
:10311000FA4F842F90E0918380836996CE010E94BC
:10312000C117F816A1F06CE1C8010E94671886FF6C
:1031300004C080EE94E00E9419204F2DBE01C8010A
:10314000DF91CF911F910F91FF900C94C317DF91E6
:10315000CF911F910F91FF900895FC01128E8185F0
:10316000681728F4862F90E049960C94C1178FEFCA
:10317000828F0895CF92DF92EF92FF920F931F9369
:10318000CF93DF93EC01252F3327862F072F1127AD
:10319000F02EEF80A4E8B4E0E8EFF4E090E07727C9
:1031A0005527E916F9F0F11002C0882369F0CD9097
:1031B000DC9011970C151D0589F4DA96CD90DC9002
:1031C000DB976C157D0551F4C080D1802C153D0531
:1031D00029F4C2ACD3AC4C155D0541F09F5F12964B
:1031E0003296DFCF9A8581E0890F01C0892FDF9168
:1031F000CF911F910F91FF90EF90DF90CF900895A6
:10320000AF92BF92CF92DF92EF92FF920F931F93F4
:10321000CF93DF93EC017B01FB01E858FF4F108156
:10322000112309F41AC180912503882309F443C0AE
:1032300084ED94E00E946E1F6AE070E0812F0E948E
:10324000911F88EC94E00E946E1FCE010E94091726
:1032500097012E5F3F4F6901882339F0CE010E940C
:103260001E17AC0160E070E009C0CE010E94491752
:103270005C01CE010E946417A501BC01C6010E9439
:10328000BA18F701ED58FF4F9081891730F440E0EC
:10329000682FC6010E94491801C080E06AE070E012
:1032A0000E94911F81E592E00E94891F60E170E019
:1032B0008B810E940D208FEF810F8830A9F40E942E
:1032C0003423609353037093540380935503909376
:1032D00056030E94342360934F03709350038093EE
:1032E00051039093520339C18D3108F036C19B814F
:1032F000292F277F203919F001E0913009F400E0EF
:1033000092EF910F943008F056C090912503C82F8A
:10331000D0E09923B9F08CEB94E00E946E1F6AE034
:1033200070E0CE010C970E941F1F80E492E00E9483
:10333000891F6AE070E0802F0E94911F8FEC91E05E
:103340000E94891F2D9780912303909124030C2EB6
:1033500002C0959587950A94E2F780FD19C0C35F76
:10336000DE4F602F88810E94E4218091250388230D
:1033700009F4F3C087E592E0DF91CF911F910F919F
:10338000FF90EF90DF90CF90BF90AF900C94D21E43
:1033900080912503882309F4E0C080EB94E0DF915D
:1033A000CF911F910F91FF90EF90DF90CF90BF9042
:1033B000AF900C941920813108F4CFC01251809144
:1033C0002503882309F187EA94E00E946E1F812F6C
:1033D00090E06AE070E001960E941F1F80E492E096
:1033E0000E94891F6AE070E0802F0E94911F8091E7
:1033F0004E03811105C08EE892E00E94D21E04C0E7
:1034000087E894E00E94192080914E038111A5C0A5
:10341000812F90E02091400330914103FC01EB5E4D
:10342000FE4F41E050E060E070E0DB01CA01008047
:1034300004C0880F991FAA1FBB1F0A94D2F700234C
:1034400019F0822B932B04C08095909582239323AF
:10345000909341038093400380C06CE18EEB95E034
:103460000E94671886FF79C0CE010E94F416882357
:1034700089F089E794E00E946E1FCE010E946417D4
:103480000E948B1F8FE694E00E946E1FCE010E9467
:1034900049170CC0CE010E940917882399F082E6D3
:1034A00094E00E946E1FCE010E941E17DF91CF9103
:1034B0001F910F91FF90EF90DF90CF90BF90AF9052
:1034C0000C946E208DE592E00E94891F60E170E00F
:1034D0008B810E94911F83E692E00E94891FCE019A
:1034E0000E9464170E948B1F8BE692E00E94891F46
:1034F0002B8D80E1289F900111248C8D82958695DB
:103500008770822B8A836AE070E00E94911F84E7B3
:1035100092E00E94891F8B8990E025E09595879520
:103520002A95E1F78C836AE070E00E94911F83E89E
:1035300092E00E94891F6AE070E08091820690917B
:103540008306DF91CF911F910F91FF90EF90DF9055
:10355000CF90BF90AF900C94621FDF91CF911F91DD
:103560000F91FF90EF90DF90CF90BF90AF900895B4
:10357000AF92BF92CF92DF92EF92FF921F93CF93C1
:10358000DF93DC011A969C911A97491718F081E095
:10359000890F4EC0142FFB017D01242F30E0D9018B
:1035A000AA0FBB1FAC57BB4F808190E08D939C93BB
:1035B000D901AA0FBB1FA254BB4F818190E08D930C
:1035C0009C93D901AA0FBB1FA850BB4F828190E0EA
:1035D0008D939C93D901AA0FBB1FAE5CBA4F838118
:1035E00090E08D939C93D7011B968C911B9790E054
:1035F0000496829F6001839FD00C929FD00C11246F
:103600001D968D919C911E97C80ED91E5B01B4E04A
:10361000AB0EB11CEB01C61AD70AB6016C0F7D1FA9
:103620004991C7010E94C317CA15DB05B1F7812F65
:10363000DF91CF911F91FF90EF90DF90CF90BF90DF
:10364000AF900895FC0180E090E0238530E0821780
:1036500093073CF4A281B381A80FB91F1C92019675
:10366000F4CF80E68483158284EC86831782148AE3
:103670000895EF92FF920F931F93CF93DF9300D0A3
:1036800000D0CDB7DEB78C010E94221BF8018285E5
:10369000878319821A8282E58B8388E08C83E12CF0
:1036A000F12CF801828590E0E816F90604F5F8E0BF
:1036B000EF16F10419F499E0E92EF12C4E2DBE011C
:1036C0006F5F7F4FC8010E94B81A8C818F5F8C8317
:1036D000811103C08B818F5F8B8320E040E0B701B5
:1036E000C8010E941B188FEFE81AF80ADACF198276
:1036F0001A8282E18B8387E68C8348E0BE016F5F8C
:103700007F4FC8010E94B81A20E040E068E070E0F6
:10371000C8010E941B1842E860E0C8010E947718A7
:1037200040E069E1C8010E94771840EF6AE1C801F2
:103730000E947718FF24F39444E06F2DC8010E9483
:10374000771861E06F0D41E3C8010E94771862E0CD
:103750006F0D4FEFC8010E947718E3E0FE0EFDE009
:10376000FF12EACF44E06F2DC8010E94771861E094
:103770006F0D43E6C8010E94771862E06F0D4BE4BD
:10378000C8010E94771883E0F80EE9E1FE12EACF43
:1037900040E66BE1C8010E94771840E06CE1C80187
:1037A0000E94771882E2F82E42E36F2DC8010E9432
:1037B00077186BEF6F0D46E3C8010E947718F394FA
:1037C000F6E2FF12F1CF4FE061E2C8010E947718E4
:1037D00046E066E2C8010E9477184FE067E2C80140
:1037E0000E9477184DE560E070E0C8010E94C317A1
:1037F000F801448162E170E0C8010E94C317F8013A
:10380000458163E170E0C8010E94C317F801468159
:1038100064E170E0C8010E94C317F801448965E1C2
:1038200070E0C8010E94C317F801478167E170E0AA
:10383000C8010E94C317F801438568E170E0C80120
:103840000E94C31760E08DEF93E00E94A81760E02C
:103850008EEF93E00E94A81760E08FEF93E00E9444
:10386000A817C8010E943F1C0F900F900F900F9057
:10387000DF91CF911F910F91FF90EF9008955F928C
:103880006F927F928F929F92AF92BF92CF92DF9270
:10389000EF92FF920F931F93CF93DF93EC010E945F
:1038A000221B8B8590E004962A85289F7001299F12
:1038B000F00C11248D859E85E80EF91E85E5E8162D
:1038C00081E0F8060CF06AC08FEF93E00E94C11708
:1038D000782E8EEF93E00E94C117182F8DEF93E0A2
:1038E0000E94C117711681F0781681F0181306C076
:1038F000612F8EEF93E00E94A817712E5701AA0C3A
:10390000BB1C00E010E024C07816C1F3672D8FEFD8
:1039100093E00E94A817F2CFC8010E94C117682E39
:1039200048018E0C9F1CC4010E94C117582E6501CE
:10393000C00ED11EC6010E94C117651491F0681215
:103940000BC0662DC4010E94A81773940F5F1F4F10
:103950000E151F050CF30DC05812F8CF652DC801C8
:10396000F2CF681699F37394662DC6010E94A817CA
:10397000EDCF8FEF93E00E94C117781679F0672D95
:103980008DEF93E00E94A817672D8EEF93E00E94C1
:10399000A817672D8FEF93E00E94A81780E090E0B2
:1039A0000E94C1178D3519F0CE010E94391B82E1AA
:1039B00090E00E94C1178C8383E190E00E94C117C0
:1039C0008D8384E190E00E94C1178E8385E190E0B1
:1039D0000E94C1178C8B87E190E00E94C1178F83F2
:1039E000DF91CF911F910F91FF90EF90DF90CF90DB
:1039F000BF90AF909F908F907F906F905F90089551
:103A000026E631E0FC013183208382819381009797
:103A100011F00C9487370895CF93DF93EC010E9447
:103A2000001DCE01DF91CF910C9487372EE631E057
:103A3000FC0121933193CF010C94001DCF93DF93B0
:103A4000EC010E94161DCE01DF91CF910C948737B7
:103A50000895FF920F931F93CF93DF93F82EC62FF5
:103A60008FEC91E00E94891FD0E0FE01EE0FFF1F56
:103A7000E75EFC4F6AE070E0808191810E941F1F29
:103A80008FEC91E00E94891F01E213E06AE070E090
:103A9000F801808191810E941F1F8FEC91E00E94AC
:103AA000891F2196CE01880F991FC80FD91FCC0FEF
:103AB000DD1FCB52DD4F888199816AE070E0815033
:103AC0009F4F0E941F1F8FEC91E00E94891F8881E9
:103AD0009981F80120813181821B930B6AE070E0AB
:103AE00081509F4F0E941F1F8FEC91E00E94891F01
:103AF0006AE070E08F2DDF91CF911F910F91FF90C1
:103B00000C94911F8BE594E00C94192086E494E0CA
:103B10000C946E1F60E088E00E94E42180914103D4
:103B20000E942520809140030E94252061E088E0CA
:103B30000C94E421009769F0FC0101900020E9F762
:103B40003197AF01481B590BBC0187EE93E00C94F1
:103B5000811580E090E008954F925F926F928F926E
:103B60009F92AF92BF92CF92DF92FF920F931F93DB
:103B7000CF93DF9300D000D0CDB7DEB71092D90538
:103B80006093DA057093DB058093DC059093DD0587
:103B9000493008F048E04093DE051092E705AFEDAC
:103BA000B5E0F90150E0CF01821B930B8417950714
:103BB0001CF481918D93F7CFA12CB12C409035014D
:103BC00050903601609037014E0124E0820E911C26
:103BD00049825A826B82CE0101966C01F82E0D2D1E
:103BE000F60111916F01812F0E940A21982F987080
:103BF00083FD02C01F5F05C08C149D0489F710E08F
:103C000092E0FFEFAF1ABF0A923029F422E3A21626
:103C1000B104F1F67CC082E3A816B10409F477C0C0
:103C20004091DE056FED75E085E0810F0E944A212D
:103C30008091E705813029F48091DE0580648093CE
:103C4000DE056091DE0584E0810F0E9475214091C0
:103C5000DA055091DB056091DC057091DD058091FE
:103C6000D9058130B1F44C835B83AB01662777279C
:103C7000942F9C71842F8370E8E09E9F800D112407
:103C800088608A8365E0569547956A95E1F7498390
:103C90000DC0CA0123E0969587952A95E1F789839F
:103CA0004295440F407E4A831C821B8244E06F2D64
:103CB000702F812F0E944A21115048E068E0812F27
:103CC0000E942721C12CD12CFFEFCF1ADF0A812FB0
:103CD0000E940A2183FF05C022E3C216D104A1F786
:103CE00018C082E3C816D104A1F01092DA05109230
:103CF000DB051092DC051092DD051092DE051092B6
:103D0000D9051092E7051092E80580E003C086E02F
:103D100001C087E00F900F900F900F90DF91CF912F
:103D20001F910F91FF90DF90CF90BF90AF909F9029
:103D30008F906F905F904F900895CF93DF93C091D5
:103D4000F105C63B21F0C295C695C77001C0C7E01A
:103D5000CF5F81E08093EE058093EF0560911F06B1
:103D600070E080E090E021EF35E04C2F0E94AC1D28
:103D7000811102C080E00FC0D3E060911F0670E0A7
:103D800080E090E021EF35E04C2F0E94AC1D8823AD
:103D900089F3D15091F7DF91CF9108958CE892E0AB
:103DA0000C949A1DCF93DF930E949A1DEC010E9400
:103DB000CE1E8C0F9D1FDF91CF9108958F929F9201
:103DC000AF92BF920F931F93CF93DF93CDB7DEB720
:103DD000A1970FB6F894DEBF0FBECDBF19A2423037
:103DE00008F44AE08E010F5D1F4F842E912CA12C08
:103DF000B12CA50194010E94B336E62FB901CA0186
:103E000001501109EA3014F4E05D01C0E95CD80109
:103E1000EC93232B242B252B61F7C8010E949A1DBC
:103E2000A1960FB6F894DEBF0FBECDBFDF91CF9144
:103E30001F910F91BF90AF909F908F900895CF9258
:103E4000DF92EF92FF92CF93DF936115710559F4E2
:103E5000682F87EE93E0DF91CF91FF90EF90DF9096
:103E6000CF900C9418166C01990FEE08FF086A3079
:103E70007105E9F4F7FE19C06DE287EE93E00E9448
:103E80001816EC0166277727CB016C197D098E097E
:103E90009F094AE00E94DE1E8C0F9D1FDF91CF918B
:103EA000FF90EF90DF90CF9008954AE001C0462F39
:103EB000C701B601DF91CF91FF90EF90DF90CF90D7
:103EC0000C94DE1ECF93DF930E941F1FEC010E9413
:103ED000CE1E8C0F9D1FDF91CF9108950F931F93DE
:103EE000CF93DF938C01C0E0D0E0F801EC0FFD1F11
:103EF0006491662341F087EE93E00E941816892BA7
:103F000011F02196F2CFCE01DF91CF911F910F9149
:103F100008950C949A1DBC0180E090E04AE00C9456
:103F2000DE1EAB01682F4115510521F487EE93E0A9
:103F30000C94181670E080E090E00C94DE1E1F9345
:103F4000CF93DF938823C1F0EB016BE18EEB95E01B
:103F50000E946718182F6BE18EEB95E00E9467189E
:103F600081E98093F1051092F2051093F305D09347
:103F7000F405C093F5050FC08091200690912106AD
:103F800029E92093F1059093F2058093F30570934E
:103F9000F4056093F5051092F6051092F70510925E
:103FA000F805DF91CF911F910C949D1E1F93CF9325
:103FB000DF938823C1F0EB016BE18EEB95E00E946B
:103FC0006718182F6BE18EEB95E00E94671880E967
:103FD0008093F1051092F2051093F305D093F40548
:103FE000C093F5050FC0809120069091210628E925
:103FF0002093F1059093F2058093F3057093F405F7
:104000006093F5051092F6051092F7051092F805E9
:10401000DF91CF911F910C949D1ECF93DF930E944F
:10402000911FEC010E94CE1E8C0F9D1FDF91CF913E
:104030000895CF93DF930E946E1FEC010E94CE1E65
:104040008C0F9D1FDF91CF9108950F931F93CF93F6
:10405000DF93C0E0D0E0082F10E0B8010C2E02C0C2
:10406000759567950A94E2F7617089E00E94E421F2
:1040700061E087E00E94E42160E087E00E94E421A3
:104080002196C830D10549F7DF91CF911F910F914B
:104090000895ECEBF5E0A0E2B6E09C9111962C912E
:1040A0003FE635AB26AB97AB80AF11AE12AE13AE89
:1040B00014AE0C949D1E9FEF980F809131068917C6
:1040C00040F0462F692F8EEB95E00E94771881E033
:1040D000089581E09F3F09F080E00895CF93DF933A
:1040E0000E948B1FEC010E94CE1E8C0F9D1FDF9142
:1040F000CF910895CF93C82F482F60EE8FE00E9494
:1041000027218FE00E940A21982F907E81E09C1346
:1041100001C080E0CF9108958091FC05823721F0A5
:104120008C3911F0853B19F480910F060895853F75
:1041300019F4809111060895823F19F480911306B5
:10414000089580E008958091FC058C3911F0853B3D
:1041500019F4809110060895823B11F0823D19F404
:10416000809111060895853F19F4809112060895F3
:1041700080E00895CF93DF93CCEBD5E09F838887D1
:10418000492F63E170E08EEB95E00E94C3174885EC
:1041900064E170E08EEB95E0DF91CF910C94C31752
:1041A0001092CE051092CF051092D0051092D10535
:1041B0001092D8059091C805981720F09091C505E8
:1041C000981720F481E08093D80521C090E0FC018D
:1041D000EE0FFF1FEC57FB4F20812093CE05FC0113
:1041E000EE0FFF1FE254FB4F20812093CF05FC010F
:1041F000EE0FFF1FE850FB4F20812093D005880F62
:10420000991FFC01EE5CFA4F80818093D1058EEC02
:1042100095E008951F93CF93DF93182FCCEBD5E053
:1042200060E08DA50E94E42183E00E94ED16812FBD
:104230000E94ED1680E00E94ED16182F61E08DA51A
:104240000E94E421812FDF91CF911F910895FF9269
:104250000F931F93CF93DF93F82E062F142FCCEBE1
:10426000D5E060E08DA50E94E42185E00E94ED1676
:104270008F2D0E94ED16802F0E94ED16812F0E9437
:10428000ED1661E08DA5DF91CF911F910F91FF9009
:104290000C94E421FF920F931F93CF93DF93C82FC9
:1042A000F62E072F142F60E08091E9050E94E4218B
:1042B00082E00E94ED168C2F0E94ED16CF2DD02F9C
:1042C000CE01810F911D8C01C017D10721F089917A
:1042D0000E94ED16F9CF61E08091E905DF91CF9161
:1042E0001F910F91FF900C94E4210F931F93CF9394
:1042F000DF93082F162FCCEBD5E060E08DA50E9450
:10430000E42182E00E94ED16802F0E94ED16812F9D
:104310000E94ED1661E08DA5DF91CF911F910F9165
:104320000C94E421833081F028F4813099F08230BC
:10433000A1F008958730A9F08830B9F08430D1F425
:10434000809180008F7D03C0809180008F77809363
:104350008000089584B58F7702C084B58F7D84BDB9
:1043600008958091B0008F7703C08091B0008F7D59
:104370008093B0000895CF93DF93282F30E0F901A8
:10438000E65CFA4F8491F901EA5DFA4FD491F901A4
:10439000EE5EFA4FC491CC2391F081110E949221DC
:1043A000EC2FF0E0EE0FFF1FE85FFA4FA591B491FC
:1043B000EC91ED2381E090E021F480E002C080E008
:1043C00090E0DF91CF9108951F93CF93DF93282F33
:1043D00030E0F901E65CFA4F8491F901EA5DFA4FA9
:1043E000D491F901EE5EFA4FC491CC23C1F0162F9F
:1043F00081110E949221EC2FF0E0EE0FFF1FE2509E
:10440000FB4FA591B4919FB7F894111104C08C9102
:10441000D095D82302C0EC91DE2BDC939FBFDF91B7
:10442000CF911F910895FF920F931F93CF93DF9326
:10443000182FF62EC72FD42F60E08091E9050E9437
:10444000E42183E00E94ED16812F0E94ED160F2DCE
:104450001C2FC0E0CD1751F0C83041F080E00E9421
:10446000ED16F80181938F01CF5FF4CF61E0809169
:10447000E905DF91CF911F910F91FF900C94E421FA
:104480000F931F93CF93DF9300D000D0CDB7DEB74B
:10449000182F1092D9051092DA051092DB051092B0
:1044A000DC051092DD0544E0BE016F5F7F4F0E9486
:1044B00013222A813981822F90E065E095958795B6
:1044C0006A95E1F748E0349F800D911D1124092E73
:1044D000000CAA0BBB0B8093DA059093DB05A0932D
:1044E000DC05B093DD0523FF29C032E0880F991F5A
:1044F000AA1FBB1F3A95D1F72370820F911DA11DF2
:10450000B11DBA2FA92F982F88272B81820F911DBB
:10451000A11DB11DBA2FA92F982F88272C81820F9A
:10452000911DA11DB11D8093DA059093DB05A09329
:10453000DC05B093DD0581E08093D9058FEF810F15
:104540000E940A21082F84E0810F0E940A2103FFA4
:1045500004C091E09093E70502C01092E705482F50
:104560004F704093DE056FED75E085E0810F0E948E
:1045700013220F900F900F900F90DF91CF911F910A
:104580000F9108951F93CF93DF93CCEBD5E060E0BC
:104590008DA50E94E42180EA0E94ED1680E00E9431
:1045A000ED16182F61E08DA50E94E421812FDF9187
:1045B000CF911F910895CF93DF9390E0FC01EA5DC6
:1045C000FA4F2491FC01EE5EFA4F8491882361F149
:1045D00090E0880F991FFC01EC50FB4FC591D491DE
:1045E000FC01E250FB4FA591B491611109C09FB746
:1045F000F8948881209582238883EC912E230BC028
:10460000623061F49FB7F8948881322F309583230C
:104610008883EC912E2B2C939FBF06C08FB7F89404
:10462000E8812E2B28838FBFDF91CF9108958E30A4
:1046300008F08E502091020190E4299F90011124EE
:104640008770822B80937C0080917A0080648093B5
:104650007A0080917A0086FDFCCF809178002091CD
:10466000790090E0922B08953FB7F8948091240749
:1046700090912507A0912607B091270726B5A89B02
:1046800005C02F3F19F00196A11DB11D3FBFBA2FE4
:10469000A92F982F8827820F911DA11DB11DBC0144
:1046A000CD0142E0660F771F881F991F4A95D1F709
:1046B00008958F929F92AF92BF92CF92DF92EF9226
:1046C000FF926B017C010E9434234B015C01C114F9
:1046D000D104E104F104F1F00E943423DC01CB01A8
:1046E00088199909AA09BB09883E9340A105B1051B
:1046F00070F321E0C21AD108E108F10888EE880EB3
:1047000083E0981EA11CB11CC114D104E104F10482
:1047100019F7DDCFFF90EF90DF90CF90BF90AF9073
:104720009F908F9008952FB7F89460912007709113
:10473000210780912207909123072FBF08951F9290
:104740000F920FB60F9211242F933F938F939F9345
:10475000AF93BF938091200790912107A0912207EA
:10476000B091230730911F0723E0230F2D3720F44A
:104770000196A11DB11D05C026E8230F0296A11DBB
:10478000B11D20931F078093200790932107A093CA
:104790002207B09323078091240790912507A091C9
:1047A0002607B09127070196A11DB11D809324070C
:1047B00090932507A0932607B0932707BF91AF9149
:1047C0009F918F913F912F910F900FBE0F901F904F
:1047D0001895CF93DF93CDB7DEB728970FB6F8942F
:1047E000DEBF0FBECDBF109208078093330684E072
:1047F00090E0909383068093820682E08093EE059A
:1048000083E08093EF0560911F0670E080E090E008
:10481000FE013196AE01475F5F4F9F011192E41791
:10482000F507E1F741E04093E70540E00E94AC1D49
:104830001092E7050E949323609384067093850687
:10484000809386069093870628960FB6F894DEBF6D
:104850000FBECDBFDF91CF910895CF93DF9300D0EE
:1048600000D0CDB7DEB7789484B5826084BD84B5BE
:10487000816084BD85B5826085BD85B5816085BD5B
:1048800080916E00816080936E0010928100809113
:10489000810082608093810080918100816080939B
:1048A0008100809180008160809380008091B100C0
:1048B00084608093B1008091B00081608093B000EB
:1048C00080917A00846080937A0080917A0082607F
:1048D00080937A0080917A00816080937A00809141
:1048E0007A00806880937A001092C1000E94521072
:1048F00022242394312C812C912C540183940E94E6
:10490000342360935303709354038093550390931F
:1049100056030091E2031091E3032091E4033091E8
:10492000E5036B017C01C01AD10AE20AF30A49EEE1
:10493000C41643E0D406E104F10448F40E94D30213
:10494000809135068823C9F10E94E80A36C0609339
:10495000E2037093E3038093E4039093E5031A82E8
:104960000E94C222837019F10C94C6318091EA052D
:104970008093F8068091EB058093F9068091EC0511
:104980008093FA068091ED058093FB064093F6062E
:104990008091E70581110C94F7311092F706809110
:1049A0007C0690917D06892B11F40C94FC310A81D0
:1049B0000F5F0A830230A1F6C1CF80914F0390911F
:1049C0005003A0915103B09152030097A105B10586
:1049D00009F4ABC0C0905303D0905403E09055034A
:1049E000F0905603C81AD90AEA0AFB0A4091200639
:1049F0005091210620E137E2429FC001439F900D74
:104A0000529F900D1124A0E0B0E08C159D05AE05DD
:104A1000BF0508F08AC001E912E01C821B82809168
:104A2000CB0290E00B8002C0959587950A94E2F73F
:104A3000209190026C0131E0C322DD2480FF09C087
:104A4000D8016D917C9181E0211180E00E94D61FF8
:104A500008C0F8016081718181E0211180E00E942D
:104A60009F1F809125032B813C812F5F3F4F790150
:104A7000882309F43FC080910B0390910C030B80B5
:104A800002C0959587950A94E2F780FF03C0CD2870
:104A900019F405C0CD2819F48FE791E002C083E82E
:104AA00091E00E94891F87E891E00E94891F6AE0D7
:104AB00070E0C7010E941F1F8FEC91E00E94891FC8
:104AC000D8018D919C910E948B1F80919002882328
:104AD00019F082E791E002C089E791E00E94891F06
:104AE00081E991E00E94D21E6AE070E080E090E0EF
:104AF0000E945923FC82EB820E5F1F4FF7013C9707
:104B000009F08DCF8091C705893138F08091CB02B3
:104B100090E090939F0580939E0510924F03109212
:104B2000500310925103109252030DEBE02E01E05E
:104B3000F02E7724739487EE93E00E94E015181608
:104B400019060CF03AC187EE93E00E94BE158C3333
:104B500049F46EE872E088E593E00E9415381092FF
:104B60005703E9CF8E3309F002C187ED90E00E9430
:104B70006E1F08E513E01C821B828091570390E0B2
:104B8000CB80DC80C816D906ACF46801D8016D91E1
:104B90008D0187EE93E00E941816F60180818A331A
:104BA00011F4CB80C9822B813C812F5F3F4F3C8326
:104BB0002B83E3CF8EE892E00E94D21E909158039F
:104BC000892F8F7D843509F06DC08CEC90E00E94B8
:104BD0006E1F89E593E00E9477369C838B83009754
:104BE00009F45DC06AE070E00E94621F8B819C81C5
:104BF00001974097B8F40B811C810C5E1E4FC101D8
:104C0000D8010C9002C0880F991F0A94E2F72091F6
:104C1000400330914103822793279093410380936F
:104C2000400304C010924103109240030E948A1D69
:104C300097C0963511F40C948633963709F04CC022
:104C4000C980CC2009F44CC089E593E00E947736F6
:104C50008C01D9808D2D90E0875A9C4F0E94773629
:104C60009C838B8382EC90E00E946E1F6AE070E070
:104C7000C8010E941F1F8BE991E00E94891F6AE012
:104C800070E08B819C810E941F1F8FEC91E00E943D
:104C9000891F2B813C812F3F310549F044F00E9450
:104CA000821D5EC0813429F60E94640E59C0C8017D
:104CB00001978832910598F7880F991FFC01EB52F4
:104CC000FD4F318320836B81802F0E945B208BEB13
:104CD00090E00E94192044C0873421F40C948D3355
:104CE0008734F1F1843449F58BEA91E00E94891F01
:104CF00089E593E00E9477369C01215031092031EB
:104D0000310518F08336910579F47092250380936C
:104D1000CC0282EB91E00E94891F6AE070E08091F2
:104D200025030E940D201CC0109225031092CC0276
:104D300089EB91E00E94D21E13C0993439F48AEABB
:104D400090E00E9419200E94F40D0AC0823541F4BF
:104D50008BE890E00E9419208EEB95E00E94391BB1
:104D60006EE872E088E593E00E941538E4CEE8E54D
:104D7000F3E001900020E9F73197E855F3403F97C1
:104D800008F0D9CE282F082E000C330B3F938F93B9
:104D900048E553E05F934F93FF92EF925F934F93F9
:104DA0000E941C38809157038F5F809357030FB682
:104DB000F894DEBF0FBECDBFBECE8091530390915D
:104DC0005403A0915503B09156034091DE035091D6
:104DD000DF036091E0037091E1036C017D01C41A6F
:104DE000D50AE60AF70A09E8C01603E1D006E1048D
:104DF000F10408F45FC58093DE039093DF03A09372
:104E0000E003B093E1038091B0038F5F843018F426
:104E10008093B00302C01092B003F090B0030F2D46
:104E200010E0F801E75FFE4F80810E9417239C830A
:104E30008B8380913F03A1010F2C02C0440F551FAB
:104E40000A94E2F7282F30E0242335234217530732
:104E500009F0B0C18F7090E002C095958795FA94E3
:104E6000E2F7019709F0A6C1809125038823F1F0AC
:104E700089E591E00E946E1F6AE070E0C80101962A
:104E80000E941F1F8FEC91E00E94891F6AE070E072
:104E90008091AF030E94911F8FEC91E00E94891FC7
:104EA0006AE070E08B819C810E94621F8091AF0359
:104EB00081112CC08091B00390E0880F991FFC01F4
:104EC000EA5DFC4F20813181CB80DC802C193D09CB
:104ED00037FF03C03195219531092230310574F433
:104EE0000B811C810F3F110549F044F0802F8F5F2B
:104EF00080937D0381E08093AF0349C4FC01EA5DA8
:104F0000FC4FCB80DC80D182C08241C4E82FF0E02E
:104F1000E358FC4F9B819F5F90838F5F8093AF032B
:104F2000823309F034C48091B003C82ED12C85019E
:104F3000740104C0EE0CFF1C001F111F8A95D2F7EC
:104F4000D801C701809590913F03892380933F0347
:104F50001092AF036DE7E62E63E0F62E4FEA53E0C2
:104F6000F70160E070E0CB012191620F711D811D9E
:104F7000911D4E175F07C1F722E330E040E050E09B
:104F80000E94B33629013A018091210390912203B6
:104F9000092E000CAA0BBB0B89019A01081B190BE7
:104FA0002A0B3B0B80E090E0D7014D917D0150E052
:104FB00060E070E0401751076207730728F49F5FB5
:104FC000891718F4892F01C090E0BFEAEB16B3E00F
:104FD000FB0651F742E350E041505109A1F090E047
:104FE000292F30E024173507BCF7F901E358FC4FAF
:104FF0006081D901A258BC4F2C91261710F4208350
:105000006C939F5FEDCF86010F5F1F4FF801EE0F8E
:10501000FF1FE00FF11FEE0FFF1FEB52FD4F20911E
:10502000840330E03183208390912503992309F490
:1050300082C06AE070E00E94911F82EC91E00E94C1
:10504000891FEFEF4E0E511C611C711C4AE0C30119
:10505000B2010E94DE1E0E94CE1E4AE0C301B201D0
:105060000E94DE1E8BEE91E00E94891F80917D03DD
:1050700090E06AE070E081509F4F0E941F1F88EC13
:1050800091E00E94891F8091AE0390E06AE070E099
:1050900081509F4F0E941F1F82E591E00E946E1F6A
:1050A0008091890390E06AE070E081509F4F0E94F8
:1050B0001F1F8CE491E00E946E1F8091960390E088
:1050C0006AE070E081509F4F0E941F1F8BE991E0C2
:1050D0000E94891F8091B00390E001969C01220FED
:1050E000331FF901E80FF91FEE0FFF1FEB52FD4FC1
:1050F000808191816AE070E081509F4F0E941F1F64
:105100008BEE91E00E94891F8091B00390E00196A0
:10511000FC01EE0FFF1FE80FF91FEE0FFF1FEB5210
:10512000FD4F6AE070E0808191810E941F1F85E140
:1051300092E00E94D21E81E491E00E946E1F809155
:10514000B00390E06AE070E001960E941F1F88E3C0
:1051500091E00E9419208091B00390E00196FC013B
:10516000EE0FFF1FE80FF91FEE0FFF1FEB52FD4F71
:105170000081182F110F810F11E0180F8091200668
:105180009091210627E92093F1059093F2058093F1
:10519000F3051093F4050093F5051092F6051092AF
:1051A000F7051092F8050E949D1E602F812F0E9426
:1051B0005B20EDC2F801EE0FFF1FE75EFC4F808120
:1051C00091810F5F1F4F2091CC02CB80DC80C816ED
:1051D000D9060CF0B0C0822F90E08017910721F41F
:1051E0008AEC91E00E94891F4091B003042F10E0E7
:1051F000F801E758FC4F808180FF8DC081FF89C096
:10520000780124E0E20EF11C9701220F331FF9010F
:10521000EF54FC4F80819181019697FD03C09183EB
:10522000808302C03182208253E0459FF001112427
:10523000EE0FFF1FE952FD4F808191810196F90128
:10524000EF54FC4F20813181821793070CF026C167
:105250009183808380910B0390910C0302C09595FC
:1052600087954A95E2F72091780380FF1EC0822F30
:1052700090E00E2C02C0959587950A94E2F780FF86
:105280000DC1D501C4010E2C04C0880F991FAA1F9F
:10529000BB1F0A94D2F78095822380937803F8018C
:1052A000EE5BFC4F80818D7F1CC0822F90E00E2C26
:1052B00002C0959587950A94E2F780FDEFC0D5016D
:1052C000C4010E2C04C0880F991FAA1FBB1F0A948B
:1052D000D2F7822B80937803F801EE5BFC4F80813C
:1052E000826080836CE18EEB95E00E94671886FFF8
:1052F00002C00C944932809117039091180302C0A8
:1053000095958795EA94E2F780FF02C00C944932A4
:10531000C5C0826001C08160808380912503823096
:1053200008F4BCC06AE070E0C80101960E941F1F2B
:105330008EEC91E0B1C0822F90E08017910721F4AC
:1053400081ED91E00E94891F4091B003042F10E08D
:10535000F801E758FC4F8081982F937009F08AC0BC
:10536000780164E0E60EF11CF701EE0FFF1FDF018C
:10537000AF54BC4F8D919C91119701971816190647
:1053800014F48FEF9FEF8D939C9373E0479FD001B0
:105390001124AA0FBB1FA752BD4F8D919C918095E0
:1053A0009095EF54FC4F20813181281739070CF07C
:1053B00075C09183808380910B0390910C0302C090
:1053C000959587954A95E2F72091780380FF1DC057
:1053D000822F90E00E2C02C0959587950A94E2F7F3
:1053E00080FD5CC0D501C4010E2C04C0880F991F3C
:1053F000AA1FBB1F0A94D2F7822B80937803F8016F
:10540000EE5BFC4F808182601DC0822F90E00E2CED
:1054100002C0959587950A94E2F780FF3FC0D501B9
:10542000C4010E2C04C0880F991FAA1FBB1F0A9429
:10543000D2F78095822380937803F801EE5BFC4FCE
:1054400080818D7F80836CE18EEB95E00E946718F0
:1054500086FF02C00C947932809117039091180353
:1054600002C095958795EA94E2F780FF02C00C94FC
:10547000793214C081FF02C08D7F01C08E7F80838E
:1054800080912503823050F06AE070E0C8010196F7
:105490000E941F1F85ED91E00E94891F8091B0033B
:1054A00090E00196FC01EE0FFF1FE80FF91FEE0FD1
:1054B000FF1FEB52FD4F2081318121503F4F409122
:1054C000210350912203241B350B4091CC02CB8049
:1054D000DC80C216D3060CF0ACC0242F30E082175B
:1054E000930721F488ED91E00E94891FF090B003AA
:1054F0000F2D10E0F801E758FC4F8081982F9C7029
:105500009C3009F082C0F801EE0FFF1FDF01AF549D
:10551000BC4F8D919C911197019697FD03C08D937F
:105520009C9302C02D923C9223E0F29ED001112464
:10553000AA0FBB1FA952BD4F8D919C910196EF54AC
:10554000FC4F20813181821793070CF020C1918399
:10555000808380910B0390910C030F2C02C09595D2
:1055600087950A94E2F72091780380FF1EC0822F6E
:1055700090E00F2C02C0959587950A94E2F780FF82
:1055800006C1D501C4010F2C04C0880F991FAA1FA2
:10559000BB1F0A94D2F78095822380937803F80189
:1055A000EE5BFC4F80818E7F1CC0822F90E00F2C21
:1055B00002C0959587950A94E2F780FDE8C0D50171
:1055C000C4010F2C04C0880F991FAA1FBB1F0A9487
:1055D000D2F7822B80937803F801EE5BFC4F808139
:1055E000816080836CE18EEB95E00E94671886FDF8
:1055F000F1C7809117039091180302C09595879584
:10560000FA94E2F780FDE6C7C2C082FF02C088605C
:1056100001C08460808380912503823008F4B7C084
:105620006AE070E0C80101960E941F1F8CED91E0B6
:10563000ACC0242F30E08217930721F48FED91E066
:105640000E94891FF090B0030F2D10E0F801E75879
:10565000FC4F808183FD89C082FD89C09801220FA3
:10566000331FF901EF54FC4F808191810197181687
:10567000190614F48FEF9FEF9183808343E0F49E2B
:10568000F0011124EE0FFF1FE752FD4F8081918141
:1056900097FD01969595879580959095F901EF5422
:1056A000FC4F20813181281739070CF070C091839D
:1056B000808380910B0390910C030F2C02C0959571
:1056C00087950A94E2F72091780380FF1DC0822F0E
:1056D00090E00F2C02C0959587950A94E2F780FD23
:1056E00056C0D501C4010F2C04C0880F991FAA1FF2
:1056F000BB1F0A94D2F7822B80937803F801EE5BEC
:10570000FC4F808181601DC0822F90E00F2C02C071
:10571000959587950A94E2F780FF39C0D501C401B9
:105720000F2C04C0880F991FAA1FBB1F0A94D2F721
:105730008095822380937803F801EE5BFC4F808193
:105740008E7F80836CE18EEB95E00E94671886FD6A
:1057500071C7809117039091180302C095958795A2
:10576000FA94E2F780FD66C712C0877F01C08B7F85
:10577000808380912503823050F06AE070E0C80198
:1057800001960E941F1F83EE91E00E94891F809165
:105790002503882309F48EC08091B00390E0209106
:1057A000CC0230E0AC014F5F5F4F2417350709F0A2
:1057B00073C086EE91E00E94891F8091B00390E053
:1057C0006AE070E001960E941F1F8FEC91E00E943A
:1057D000891FE091B003F0E0EE0FFF1FE754FC4F8C
:1057E0006AE070E0808191810E941F1F8FEC91E040
:1057F0000E94891FE091B003F0E0EE0FFF1FEF540D
:10580000FC4F6AE070E0808191810E941F1F8FEC45
:1058100091E00E94891F8091B00390E0880F991F4A
:10582000FC01E059FC4F20813181CB80DC80C21625
:10583000D30614F4D182C082FC01E859FC4F2081C8
:105840003181EB80FC802E153F0514F4F182E0825B
:10585000FC01E059FC4F6AE070E0808191810E9478
:105860001F1F8FEC91E00E94891FE091B003F0E0D0
:10587000EE0FFF1FE859FC4F6AE070E080819181D4
:105880000E941F1F6091B0038B810E94291D8EE82A
:1058900092E00E94D21E0EC0880F991FFC01E859A9
:1058A000FC4F11821082FC01E059FC4F27EE33E0DF
:1058B000318320838091530390915403A091550329
:1058C000B09156034091DA035091DB036091DC0301
:1058D0007091DD038C019D01041B150B260B370B0A
:1058E000B901A8014131574261057105F8F4809171
:1058F000530390915403A0915503B09156034091E6
:10590000D6035091D7036091D8037091D9036C01ED
:105910007D01C41AD50AE60AF70A09EEC01603E0AB
:10592000D006E104F10408F4D1C320C18093DA0366
:105930009093DB03A093DC03B093DD0301EB13E052
:105940001C830B83E2E4EE2EE3E0FE2EF1E9CF2E82
:10595000F2E0DF2EA5ED6A2EA2E07A2EBDE04B2EFE
:10596000B1E05B2E01E010E08091230390912403CD
:1059700098012150310902C0959587952A95E2F743
:1059800080FFDCC0D2018C910E94BB218A838111EF
:1059900053C0EB81FC8180899189019697FD03C0FA
:1059A000918B808B06C0AB81BC8151963C922E922C
:1059B0005097F30182AD93AD807F992773E0969560
:1059C00087957A95E1F70296AB81BC8150962D912F
:1059D0003C915197821793070CF087C051969C9386
:1059E0008E935097F7018085813009F47EC021E0C5
:1059F00020878FE691E00E946E1F6AE070E0C80188
:105A00000E941F1F8AEE91E00E94891FD6015A96BC
:105A10008D919C915B970E948B1F8DEE91E00E946F
:105A2000D21EF601628D738D81E0909190029111EA
:105A300080E00E94D61F59C0AB81BC8150968D91E9
:105A40009C9151970197181619062CF051969C932A
:105A50008E93509706C02FEF3FEFEB81FC81318B87
:105A6000208BD301DA968D919C91DB978F709927CB
:105A700063E0880F991F6A95E1F7EDEFFFEFE81BF0
:105A8000F90BAB81BC8150962D913C9151972E170B
:105A90003F075CF55196FC93EE935097F701808594
:105AA000882319F1108684E691E00E946E1F6AE057
:105AB00070E0C8010E941F1F8AEE91E00E94891FBA
:105AC000D6015A968D919C915B970E948B1F87EF10
:105AD00091E00E94D21EF601628D738D81E090915B
