:100000000C9462000C948A000C948A000C948A0070
:100010000C948A000C948A000C948A000C948A0038
:100020000C948A000C948A000C948A000C948A0028
:100030000C948A000C948A000C948A000C948A0018
:100040000C9445030C948A000C9413030C94ED0259
:100050000C948A000C948A000C948A000C948A00F8
:100060000C948A000C948A000000000025002800EF
:100070002B0000000000240027002A0000000000E0
:1000800023002600290004040404040404040202DA
:100090000202020203030303030301020408102007
:1000A0004080010204081020010204081020000012
:1000B0000008000201000003040700000000000027
:1000C0000000CC0611241FBECFEFD8E0DEBFCDBFAD
:1000D00011E0A0E0B1E0EAE3F4E102C005900D9286
:1000E000AC33B107D9F722E0ACE3B1E001C01D9217
:1000F000AE3FB207E1F710E0C2E6D0E004C02197BE
:10010000FE010E943107C136D107C9F70E948F0353
:100110000C941B0A0C940000CF92DF92EF92FF9296
:100120000F931F93CF93DF936C017A018B01C0E093
:10013000D0E0CE15DF0589F0D8016D918D01D60193
:10014000ED91FC910190F081E02DC6010995892B7C
:1001500011F47E0102C02196ECCFC701DF91CF914F
:100160001F910F91FF90EF90DF90CF900895089529
:1001700080E090E00895FC01538D448D252F30E000
:10018000842F90E0821B930B541710F0CF960895A4
:1001900001970895FC01918D828D981761F0828DF1
:1001A000DF01A80FB11D5D968C91928D9F5F9F73AB
:1001B000928F90E008958FEF9FEF0895FC01918D4D
:1001C000828D981731F0828DE80FF11D858D90E0BA
:1001D00008958FEF9FEF0895FC01918D228D892F57
:1001E00090E0805C9F4F821B91098F73992708953F
:1001F00081E692E00E94EC0021E0892B09F420E0E6
:10020000822F0895FC01848DDF01A80FB11DA35A30
:10021000BF4F2C91848D90E001968F739927848F26
:10022000A689B7892C93A089B1898C9180648C931D
:10023000938D848D981306C00288F389E02D808108
:100240008F7D80830895EF92FF920F931F93CF933A
:10025000DF93EC0181E0888F9B8D8C8D981305C016
:10026000E889F989808185FD24C0F62E0B8D10E088
:100270000F5F1F4F0F731127E02E8C8DE8120CC0FB
:100280000FB607FCFACFE889F989808185FFF5CFA1
:10029000CE010E940201F1CF8B8DFE01E80FF11D0E
:1002A000E35AFF4FF0820B8FEA89FB8980818062DD
:1002B00007C0EE89FF896083E889F98980818064BD
:1002C000808381E090E0DF91CF911F910F91FF90AB
:1002D000EF900895CF93DF93EC01888D8823C9F0C8
:1002E000EA89FB89808185FD05C0A889B9898C913F
:1002F00086FD0FC00FB607FCF5CF808185FFF2CFDA
:10030000A889B9898C9185FFEDCFCE010E940201A9
:10031000E7CFDF91CF91089580E090E0892B29F01D
:100320000E94F80081110C94000008953FB7F894E2
:1003300080913D0190913E01A0913F01B09140011B
:1003400026B5A89B05C02F3F19F00196A11DB11D30
:100350003FBFBA2FA92F982F8827820F911DA11D6B
:10036000B11DBC01CD0142E0660F771F881F991FA8
:100370004A95D1F70895009769F0FC01019000209B
:10038000E9F73197AF01481B590BBC0181E692E0B8
:100390000C948C0080E090E008958F929F92AF9231
:1003A000BF920F931F93CF93DF93CDB7DEB7A19783
:1003B0000FB6F894DEBF0FBECDBF19A2423008F4CD
:1003C0004AE08E010F5D1F4F842E912CA12CB12C81
:1003D000A50194010E940F07E62FB901CA0101503F
:1003E0001109EA3014F4E05D01C0E95CD801EC9336
:1003F000232B242B252B61F7C8010E94BB01A1965A
:100400000FB6F894DEBF0FBECDBFDF91CF911F9125
:100410000F91BF90AF909F908F900895CF93DF93EF
:10042000AB01672B61F4E0916102F09162020190EF
:10043000F081E02D682F81E692E0099506C0682FD3
:1004400070E080E090E00E94CD01EC018AE291E052
:100450000E94BB018C0F9D1FDF91CF9108950E94D8
:1004600037070C94F9064F925F926F927F92AF928A
:10047000BF92CF92DF92EF92FF920F931F93CF9391
:10048000DF9300D000D0CDB7DEB780913E02882345
:1004900091F06AE070E080916F010E940E026AE0C4
:1004A00070E0809170010E940E026AE070E080911D
:1004B00071010E940E0290916F0144E0949F90019F
:1004C00011242C8380917001907C92959F70E0E1C3
:1004D0008E9F90011124922B9B8390917101807FBC
:1004E00086958695F0E49F9F90011124822B8A8344
:1004F0009C7F998380913E029E012B5F3F4F590163
:10050000882309F43FC08E010F5F1F4FF801F1905F
:100510008F016F2D70E080E090E040E10E94CD01FE
:100520008DE291E00E94BB0162E070E08F2D0E949D
:100530000E020A151B0551F70E9496012B013C0182
:1005400082E3C82ED12CE12CF12C0E949601DC0113
:10055000CB0184199509A609B709883E9340A105E6
:10056000B10558F0F1E0CF1AD108E108F10828EE02
:10057000420E23E0521E611C711CC114D104E1041F
:10058000F10419F78FE291E00E94BB018E010F5F29
:100590001F4FF80161918F0181E692E00E942301D3
:1005A0000A151B05B1F78CE291E00E94BB0181E3C3
:1005B00091E00F900F900F900F90DF91CF911F91CE
:1005C0000F91FF90EF90DF90CF90BF90AF907F9012
:1005D0006F905F904F900C94BB011F920F920FB6DB
:1005E0000F9211242F933F934F935F936F937F93B9
:1005F0008F939F93AF93BF93EF93FF9381E692E026
:100600000E940201FF91EF91BF91AF919F918F9155
:100610007F916F915F914F913F912F910F900FBEFE
:100620000F901F9018951F920F920FB60F921124E2
:100630002F938F939F93EF93FF93E0917102F0912B
:1006400072028081E0917702F091780282FD12C0FF
:10065000908180917A028F5F8F7320917B02821745
:1006600051F0E0917A02F0E0EF59FD4F958F8093C1
:100670007A0201C08081FF91EF919F918F912F911C
:100680000F900FBE0F901F9018951F920F920FB6EC
:100690000F9211242F933F938F939F93AF93BF9308
:1006A0008091410190914201A0914301B091440198
:1006B00030913C0123E0230F2D3720F40196A11D3A
:1006C000B11D05C026E8230F0296A11DB11D209380
:1006D0003C018093410190934201A0934301B09368
:1006E000440180913D0190913E01A0913F01B09164
:1006F00040010196A11DB11D80933D0190933E01E3
:10070000A0933F01B0934001BF91AF919F918F9112
:100710003F912F910F900FBE0F901F901895CF9380
:10072000DF9300D000D01F92CDB7DEB7789484B5A8
:10073000826084BD84B5816084BD85B5826085BDDD
:1007400085B5816085BD80916E00816080936E006B
:10075000109281008091810082608093810080915D
:10076000810081608093810080918000816080930E
:1007700080008091B10084608093B1008091B000CE
:1007800081608093B00080917A00846080937A00C9
:1007900080917A00826080937A0080917A008160F3
:1007A00080937A0080917A00806880937A0010921A
:1007B000C100E0917102F091720282E08083E091C9
:1007C0006D02F0916E021082E0916F02F091700262
:1007D00080E1808310927902E0917502F0917602B7
:1007E00086E08083E0917302F091740280818061E1
:1007F0008083E0917302F09174028081886080832D
:10080000E0917302F0917402808180688083E091AE
:100810007302F091740280818F7D8083A2E1B1E048
:100820008D9190E0FC01E656FF4F2491FC01EA57C0
:10083000FF4F84918823C9F090E0880F991FFC0135
:10084000EE58FF4F45915491FC01E859FF4F6591D7
:1008500074919FB7F894FA01808120958223808358
:10086000FB018081822380839FBFF1E0A632BF0716
:10087000B9F682E090E090934601809345010E9492
:1008800031028053843050F4E82FF0E0EA5DFE4FEF
:100890008081282F30E085508A3F10F022E330E03D
:1008A00030933D0220933C0283E090E00E943102AD
:1008B00080933B028150893018F083E080933B02A3
:1008C00010923E022FB7F89480914101909142011D
:1008D000A0914301B09144012FBF809354029093A3
:1008E0005502A0935602B093570283E391E00E9411
:1008F000BB018AE291E00E94BB0155245394C12CB4
:10090000D12C7601C394E7E36E2EE1E07E2E2FB763
:10091000F8948091410190914201A0914301B091DE
:1009200044012FBF80935D0290935E02A0935F020B
:10093000B09360024091590250915A0260915B025B
:1009400070915C028C019D01041B150B260B370B6B
:10095000B901A801413157426105710520F4209188
:100960005802222369F1409154025091550260913E
:10097000560270915702841B950BA60BB70B8B3553
:100980009A40A105B105E0F0109254021092550270
:1009900010925602109257020E943302109258028F
:1009A00080915D0290915E02A0915F02B091600221
:1009B0008093590290935A02A0935B02B0935C0219
:1009C0000E949601609350027093510280935202EC
:1009D0009093530200914C0210914D0220914E02CF
:1009E00030914F02DC01CB01801B910BA20BB30BAA
:1009F000893E9340A105B10508F40BC1A7E4B1E01D
:100A000042E151E080E090E064E1862EFA0121911C
:100A1000AF013CEE320F3230C8F42E5020642093E8
:100A20007C0020917A00206420937A0020917A0043
:100A300026FDFCCF209178006091790030E0362BC4
:100A400061E02D3231400CF046C044C030E0F90185
:100A5000E255FF4F6491F901E656FF4F1491F901F9
:100A6000EA57FF4FE491EE23A9F1662339F1633091
:100A700091F038F46130A9F0623001F524B52F7D92
:100A800012C0673091F06830A1F06430B9F4209161
:100A900080002F7D03C0209180002F77209380005D
:100AA0000DC024B52F7724BD09C02091B0002F7749
:100AB00003C02091B0002F7D2093B000F0E0EE0F36
:100AC000FF1FE458FF4F65917491FB0120811223B1
:100AD00061E009F460E090903A02FC01899CE00D2D
:100AE000F11D1124EE58FE4F6083F9E09F1272C091
:100AF00020E030E060E0F901E80FF91FEE58FE4F0A
:100B00007081670F2C5E3F4F283C3105A1F7BB2455
:100B1000B39420913B02261708F0B12CFC0123E08E
:100B2000F595E7952A95E1F7E159FE4FA0801C0164
:100B300007E0202233246B2D70E02A2D30E0022CB8
:100B400002C0359527950A94E2F721703327621782
:100B50007307E9F12D913C9111972F5F3F4F11964B
:100B60003C932E93B11019C06091450170914601DC
:100B70002617370779F59701860104C0000F111F6A
:100B8000221F331F2A94D2F70A831B832C833D83B1
:100B90000A810095A022A08217C060913C0270914A
:100BA0003D0226173707B1F49701860104C0000FF4
:100BB000111F221F331F2A94D2F70A831B832C8311
:100BC0003D830A810A2900835092580203C011967E
:100BD0001C921E92019612968431910509F016CF4F
:100BE00081E0890D8A3019F080933A0202C0109298
:100BF0003A028091500290915102A0915202B0911C
:100C0000530280934C0290934D02A0934E02B093F6
:100C10004F0213E081E692E00E94EC0018161906DC
:100C20000CF0B7C081E692E00E94CA008C3359F400
:100C30006CE271E081E492E00E943C071092400275
:100C400010923F02E7CF8E3309F079C000913F0246
:100C500080913E02882341F081E492E00E94BB0132
:100C60008AE291E00E94BB01033008F061C08091EC
:100C700041028035C9F560914202E0EDE60FE430B3
:100C800050F4F0E0EA5DFE4F80819BEF980F9A3FB1
:100C900010F490E002C082E390E090933D028093D4
:100CA0003C0282E090E069830E94310290E0698119
:100CB000262F062E000C330B2817390721F082E06F
:100CC00090E00E94010780915D0290915E02A091E8
:100CD0005F02B09160028093540290935502A093FA
:100CE0005602B093570224C0843419F410923E0285
:100CF0001FC0833519F40E9433021AC08735C1F42E
:100D0000809142029FEC980F993020F48053809399
:100D10003B0202C010933B0283E090E00E9431024C
:100D200060913B02861721F083E090E00E9401076A
:100D30006CE271E081E492E00E943C076BCFE1E459
:100D4000F2E001900020E9F73197E154F2403A9740
:100D500008F060CF282F082E000C330B3F938F93A1
:100D6000A1E4B2E0BF93AF937F926F92BF93AF9332
:100D70000E94430780913F02909140020196909318
:100D8000400280933F020FB6F894DEBF0FBECDBF86
:100D900041CF0E948C01BBCDE1E6F2E013821282CA
:100DA00088EE93E0A0E0B0E084839583A683B783C8
:100DB00084E091E09183808385EC90E0958784873F
:100DC00084EC90E09787868780EC90E0918B808B15
:100DD00081EC90E0938B828B82EC90E0958B848BFE
:100DE00086EC90E0978B868B118E128E138E148E6C
:100DF0000895F999FECF92BD81BDF89A992780B5E3
:100E00000895262FF999FECF1FBA92BD81BD20BD4E
:100E10000FB6F894FA9AF99A0FBE01960895A1E2D6
:100E20001A2EAA1BBB1BFD010DC0AA1FBB1FEE1F64
:100E3000FF1FA217B307E407F50720F0A21BB30BAF
:100E4000E40BF50B661F771F881F991F1A9469F72B
:100E500060957095809590959B01AC01BD01CF0187
:100E60000895EE0FFF1F0590F491E02D099481E0A5
:100E700090E0F8940C941B0AFB01DC0101900D92A8
:100E80000020E1F70895AEE0B0E0E9E4F7E00C946B
:100E9000F2090D891E8986E08C831A8309838FEFFE
:100EA0009FE79E838D83AE01475E5F4F6F89788D8C
:100EB000CE0101960E9466072F813885F801E20F66
:100EC000F31F10822E96E4E00C940E0AACE0B0E022
:100ED000ECE6F7E00C94E4097C016B018A01FC016B
:100EE00017821682838181FFBDC1CE0101964C011C
:100EF000F7019381F60193FD859193FF81916F0135
:100F0000882309F4ABC1853239F493FD859193FFB1
:100F100081916F01853229F4B70190E00E944E095A
:100F2000E7CF512C312C20E02032A0F48B3269F035
:100F300030F4803259F0833269F420612CC08D3254
:100F400039F0803339F4216026C02260246023C048
:100F5000286021C027FD27C030ED380F3A3078F4E3
:100F600026FF06C0FAE05F9E300D1124532E13C0F9
:100F70008AE0389E300D1124332E20620CC08E3250
:100F800021F426FD6BC1206406C08C3611F4206864
:100F900002C0883641F4F60193FD859193FF81915B
:100FA0006F018111C1CF982F9F7D9554933028F404
:100FB0000C5F1F4FFFE3F9830DC0833631F0833799
:100FC00071F0833509F05BC022C0F801808189830C
:100FD0000E5F1F4F44244394512C540115C0380117
:100FE000F2E06F0E711CF801A080B18026FF03C0F3
:100FF000652D70E002C06FEF7FEFC5012C870E9466
:1010000043092C0183012C852F77222E17C038012C
:10101000F2E06F0E711CF801A080B18026FF03C0C2
:10102000652D70E002C06FEF7FEFC5012C870E9435
:1010300038092C012C852068222E830123FC1BC03B
:10104000832D90E048165906B0F4B70180E290E095
:101050000E944E093A94F4CFF50127FC859127FEB2
:1010600081915F01B70190E00E944E0931103A94DE
:10107000F1E04F1A51084114510471F7E5C084366C
:1010800011F0893639F5F80127FF07C060817181B9
:10109000828193810C5F1F4F08C060817181072E90
:1010A000000C880B990B0E5F1F4F2F76722E97FF47
:1010B00009C090958095709561957F4F8F4F9F4F98
:1010C0002068722E2AE030E0A4010E948609A82E32
:1010D000A81844C0853729F42F7EB22E2AE030E0CC
:1010E00025C0F22FF97FBF2E8F36C1F018F4883556
:1010F00079F0B4C0803719F0883721F0AFC02F2FB6
:101100002061B22EB4FE0DC08B2D8460B82E09C0B4
:1011100024FF0AC09F2F9660B92E06C028E030E059
:1011200005C020E130E002C020E132E0F801B7FE66
:1011300007C060817181828193810C5F1F4F06C05F
:101140006081718180E090E00E5F1F4FA4010E94DA
:101150008609A82EA818FB2DFF777F2E76FE0BC0E0
:10116000372D3E7FA51450F474FE0AC072FC08C0EF
:10117000372D3E7E05C0BA2C372D03C0BA2C01C0D6
:10118000B52C34FF0DC0FE01EA0DF11D80818033C6
:1011900011F4397E09C032FF06C0B394B39404C081
:1011A000832F867809F0B39433FD13C030FF06C057
:1011B0005A2CB31418F4530C5B18B32CB31468F402
:1011C000B70180E290E03C870E944E09B3943C85D1
:1011D000F5CFB31410F43B1801C0312C34FF12C00A
:1011E000B70180E390E03C870E944E093C8532FFC6
:1011F00017C031FD03C088E790E002C088E590E0A9
:10120000B7010CC0832F867859F031FF02C08BE202
:1012100001C080E237FD8DE2B70190E00E944E09E7
:10122000A51438F4B70180E390E00E944E095A9467
:10123000F7CFAA94F401EA0DF11D8081B70190E087
:101240000E944E09A110F5CF332009F451CEB70109
:1012500080E290E00E944E093A94F6CFF701868131
:10126000978102C08FEF9FEF2C96E2E10C94000A69
:10127000FC010590615070400110D8F78095909561
:101280008E0F9F1F0895FC01615070400190011066
:10129000D8F7809590958E0F9F1F08950F931F93F9
:1012A000CF93DF93FB01238121FD03C08FEF9FEFDD
:1012B00028C022FF16C046815781248135814217FC
:1012C000530744F4A081B1819D012F5F3F4F3183CB
:1012D00020838C93268137812F5F3F4F378326836E
:1012E00010C0EB01092F182F0084F185E02D09951E
:1012F000892BE1F68E819F8101969F838E83812FBA
:10130000902FDF91CF911F910F910895FA01AA2795
:10131000283051F1203181F1E8946F936E7F6E5F38
:101320007F4F8F4F9F4FAF4FB1E03ED0B4E03CD0E6
:10133000670F781F891F9A1FA11D680F791F8A1FC9
:10134000911DA11D6A0F711D811D911DA11D20D030
:1013500009F468943F912AE0269F11243019305DEA
:101360003193DEF6CF010895462F4770405D4193DB
:10137000B3E00FD0C9F7F6CF462F4F70405D4A3328
:1013800018F0495D31FD4052419302D0A9F7EACFF0
:10139000B4E0A6959795879577956795BA95C9F71F
:1013A00000976105710508959B01AC010A2E069412
:1013B0005795479537952795BA95C9F7620F731FCB
:1013C000841F951FA01D08952F923F924F925F9208
:1013D0006F927F928F929F92AF92BF92CF92DF9245
:1013E000EF92FF920F931F93CF93DF93CDB7DEB7AA
:1013F000CA1BDB0B0FB6F894DEBF0FBECDBF09943E
:101400002A88398848885F846E847D848C849B8494
:10141000AA84B984C884DF80EE80FD800C811B81A2
:10142000AA81B981CE0FD11D0FB6F894DEBF0FBED1
:0A143000CDBFED010895F894FFCF41
:10143A000000000023018C00BB006A01EC00CA0016
:10144A00DE0002030B0C0A0908070605041513142B
:10145A0012110D0E0F10193264C80D0A0020003F38
:0C146A0000430047534B0025732563002E
:00000001FF
