:100000000C94E4000C940C010C940C010C940C0165
:100010000C940C010C940C010C940C010C940C012C
:100020000C940C010C940C010C940C010C940C011C
:100030000C940C010C940C010C940C010C940C010C
:100040000C942B170C940C010C94210A0C94FB09B2
:100050000C940C010C940C010C940C010C940C01EC
:100060000C940C010C940C018D06900693069606D8
:1000700099069C069F06A2064641494C45442074B9
:100080006F2073656E642043414E00000000002322
:1000900000260029000404040404040404020202EB
:1000A00002020203030303030301020408102040B9
:1000B0008001020408102001020408102000000042
:1000C0000800020100000304070000000000000017
:1000D0000020005641525320002000200020000A3A
:1000E0004556454E54533A0020000A4445562D4E7D
:1000F000554D424552533A0020000A494E5445524C
:100100004E414C205641525320280020000A4E4FA9
:10011000444520564152533A000A4E554D2045560B
:10012000454E545320564152533A000A4E554D20E5
:100130004556454E54533A000A466C6167733A007F
:100140000A4E4E3A000A43414E5F49443A00494440
:10015000454E543A004D454D4F52592044554D504F
:1001600000537461727400456D7066616E67736CE4
:1001700061656E67653B0053686F72743A2045761F
:10018000656E74002020204576656E7420004C6FEB
:100190006E673A204E6F64654E6F20007772697407
:1001A000652076617220746F20656570726F6D00D6
:1001B00000000000240027002A00000000002500A5
:1001C00028002B005820542011241FBECFEFD8E068
:1001D000DEBFCDBF12E0A0E0B1E0EAE9FEE402C07C
:1001E00005900D92A233B107D9F725E0A2E3B2E062
:1001F00001C01D92A53FB207E1F710E0C3EED0E0C9
:1002000004C02197FE010E942323C23ED107C9F7F3
:100210000E9475170C9440270C9400002F923F9277
:100220004F925F926F927F928F929F92AF92BF9206
:10023000CF92DF92EF92FF920F931F93CF93DF93B2
:100240008091D8058F3F29F48091D7058F3F09F41D
:100250004FC00E941F170091DB051091DC05209113
:10026000DD053091DE05DC01CB01801B910BA20B7B
:10027000B30B84369105A105B105D0F180914B05F2
:1002800090914C050597A9F48091DA05813041F4ED
:1002900060E08091D8050E948D151092DA051EC08D
:1002A00061E08091D8050E948D1581E08093DA0588
:1002B00015C08091B904813039F460E08091D70590
:1002C0000E948D1561E006C061E08091D7050E9413
:1002D0008D1560E08091D8050E948D150E941F1732
:1002E0006093DB057093DC058093DD059093DE055C
:1002F0002091DF052F3F71F130E0F901E354FF4F0A
:100300008491F901E755FF4FD491F901EB56FF4F66
:10031000C491CC2379F081110E946415EC2FF0E098
:10032000EE0FFF1FE557FF4FA591B491EC91ED2320
:1003300009F077C68091E005813061F40E941F17B3
:1003400060934D0570934E0580934F059093500533
:100350001092E00580914B0590914C05049709F0AF
:1003600074C00E941F1700914D0510914E052091F9
:100370004F0530915005DC01CB01801B910BA20B86
:10038000B30B893E9340A105B10508F45EC083E03C
:1003900090E090934C0580934B054091D105A2E5E8
:1003A000B5E081E0841740F02091D10530E0E1E52F
:1003B000F5E080E090E017C02D919FEF980FE92FB6
:1003C000F0E0EF01CF5ADA4F3881EE5AFA4F231797
:1003D00018F430839150F3CF20838F5FE3CF4191A6
:1003E000C41730F00196C1E0C80F82179307BCF321
:1003F000C0938B044C2F62E170E087E894E00E9488
:10040000DE0BC093E8048091FC048823F1F0809116
:10041000E9049091EA0422E52093BA049093BB0486
:100420008093BC041092BD041092BE041092BF04CD
:100430001092C0041092C1046C2F70E080E090E034
:100440002AEB34E043E00E94BD1222242394312C95
:1004500053E0852E912CD1E0AA24AA946FEE762E3B
:100460001092FD048091450590914605892B09F075
:100470009AC6309246052092450580914905909193
:100480004A05181619062CF01092460510924505DB
:100490008AC68091470590914805CC9724F0109228
:1004A000480510924705EBEAF5E0A0914705B091A9
:1004B0004805AB5FBA4F12968C91819380914705A6
:1004C0009091480501969093480580934705809147
:1004D000490590914A05019790934A0580934905F3
:1004E00085E0EA3BF80709F71092460510924505AA
:1004F000E5EDF4E011924DED54E04E175F07D1F7B2
:100500001092E1041092E3041092E2041092E404C9
:100510004090AB054092C7046090AD056092DD0449
:100520005090AE055092DE048091AF058093DF04B9
:100530008091B0058093E004E1EBF5E08191DF016B
:10054000AD5DB1098C9389EB95E08E179F07B1F7EC
:10055000C091D504C093C504C43008F4B7C0C730F7
:1005600009F4B4C09C2F9F7B9F3309F4AFC082EA8B
:100570008C0F823008F4AAC08C2F8F7D8F3909F43C
:10058000A5C0C63B09F4A2C0CF3D09F49FC02CEF23
:100590002C0F233008F49DC028EF2C0F233008F4D3
:1005A00098C02FED2C0F233008F493C0C03409F409
:1005B00090C02CEB2C0F273008F48BC0CC3409F4FE
:1005C00088C02C2F2F7730EA320F323008F481C0E8
:1005D000233609F47EC0803809F47BC02EE72C0F47
:1005E000243008F476C0C23A09F473C020E42C0F1A
:1005F000223008F46EC026EA2C0F223008F46CC0BA
:1006000020E72C0F253008F467C028E62C0F233094
:1006100008F462C08D59823008F45EC08C2F877F49
:10062000805B823008F458C08DE4890F823008F472
:1006300053C081E38C0F833008F44EC08CE28C0FE2
:10064000823008F449C088E28C0F823008F444C03C
:1006500083E28C0F823008F43FC080E18C0F82303F
:10066000D8F18AE08C0F8630B8F183E08C0F8330AC
:1006700098F184EF8C0F823090F180EF8C0F8230F4
:1006800070F1C23461F180EB8C0F8A3040F184EA62
:100690008C0F823020F181E98C0F873000F18BE6DE
:1006A0008C0F8330E0F085E68C0F8230C0F0923BF7
:1006B000B1F0953BA1F08EE28C0F823080F0C23E0B
:1006C00071F0CF3E61F000E010E00BC004E010E0FC
:1006D00008C001E010E005C003E010E002C002E045
:1006E00010E01093C9040093C8048091AC058111F7
:1006F000D093E4041092A104B0909004B11004C00F
:10070000A092A1048FEF02C08091470481FBDD24F9
:10071000D0F882EC94E00E945A0AC82E882319F07F
:10072000DD2009F419C582EC94E00E946F0A882349
:10073000B1F082EC94E00E94840A7C010097A9F059
:10074000BC0180E090E00E94DC142091910430E034
:10075000482F50E0241735070CF418C532C0CC20C0
:10076000E1F091E0D91219C005C0CC2061F1F1E0AF
:10077000DF1229C082EC94E00E94AF0A009769F072
:10078000BC0180E090E00E94DC142091910430E0F4
:10079000482F50E024173507A4F482EC94E00E941F
:1007A000840A7C01892B79F0B70180E090E00E94F7
:1007B000DC142091910430E0482F50E024173507D5
:1007C00014F08F5F01C080E08093FD048091E40409
:1007D000882389F08091E9049091EA04892B59F0EB
:1007E0006091E80470E080E090E02AEB34E040E0C3
:1007F0000E94BD1235CEC0904B05D0904C05E4E070
:10080000CE16D104E1F441102BCE8091D105833670
:1008100008F026CEF0E16F9E90011124652C6294C1
:10082000669437E06322622A6092C404E82FF0E005
:10083000EF5AFA4F60828F5F8093D10511CE02305C
:10084000110561F148F40130110509F0DDC3E091B3
:10085000D405F091D50519C0E091D205F091D305EA
:100860000330110521F00430110531F0CDC3809122
:10087000F50480FDC9C309C08091F50480FDC4C39F
:10088000C73009F07FC40C940000309709F4BCC352
:1008900065E874E082EC94E00995B6C382EC94E0DC
:1008A0000E94CA0A7C010091E9041091EA048017B1
:1008B000910771F0C6010297039750F4CD3009F407
:1008C00075C0C03109F4AAC0C13109F0C9CDE7C073
:1008D000CD3509F4AEC190F5C33509F432C178F4D1
:1008E000C03109F49BC020F4CD3009F0B9CD5EC011
:1008F000C13109F4D4C0C23409F4F9C0B1CDC63550
:1009000009F446C138F4C43509F422C1C53509F4E7
:1009100032C1A6CDC73509F454C1C83509F0A0CD00
:100920001092E10580918E0494E79093BA0410939D
:10093000BB040093BC048093BD045BC3C53909F4B8
:1009400011C210F5C23709F49EC120F4C13709F471
:1009500078C186CDC33709F4C4C1C53709F080CD4D
:100960001092E10585E68093E80480938B0445E6C8
:1009700062E170E087E894E00E94DE0B8091E90478
:100980009091EA0422E52DC3C23B09F493C238F4E6
:10099000C63909F413C2CC3909F463C261CDC23D32
:1009A00009F4B7C2C53F09F4ACC25ACD011511050F
:1009B00009F456CD1092E1058091E80490E0081703
:1009C000190731F09093EA048093E9040E94C61459
:1009D0008091F5049091F4042091F3043091E9049E
:1009E0004091EA0456EB5093BA044093BB04309311
:1009F000BC042093BD049093BE048093BF04D093A5
:100A0000C00472E07093C104B801660F771F600FD5
:100A1000711F80E090E00E94E5163BC01092E10556
:100A20008091E80490E00817190731F09093EA04E8
:100A30008093E9040E94C61480914B0590914C0567
:100A4000059709F00DCDEAEBF4E082EC94E0119209
:100A50008E179F07E1F78091F7049091FA04209197
:100A6000F9043091F8044091F4045091F604609137
:100A7000F3047092BA046093BB045093BC04409397
:100A8000BD043093BE042093BF049093C0048093B0
:100A9000C1040E94AE13882309F4E2CCB5C21092BF
:100AA000E1058091E80490E00817190731F0909370
:100AB000EA048093E9040E94C61480914B0590914A
:100AC0004C05059791F48091F1049091F0042091E8
:100AD000EF043091EE044091ED045091EC046091EC
:100AE000EB04E2EEE093BA04C6CF83E081C010923B
:100AF000E105F5E0CF16D104C1F782EC94E00E9445
:100B0000CA0A9093EA048093E9040E94C614809173
:100B1000E9049091EA0422E52093BA049093BB047F
:100B20008093BC041092BD041092BE041092BF04C6
:100B30001092C0041092C10490924C0580924B0513
:100B4000A8CF1092E10510924C0510924B0588CC6D
:100B50001092E1058091E80490E00817190731F040
:100B60009093EA048093E9040E94C61490924C0585
:100B700080924B0573C1CD2809F072CC40E067E14B
:100B800070E087E894E00E94DE0B10928E0468CC3F
:100B90001092E1058091F80490918E04891B90E7F2
:100BA0009093BA041093BB040093BC048093BD04DB
:100BB0001092BE041092BF041092C0041092C1049F
:100BC00068CF1092E105F0908E04FF2009F448CC24
:100BD000E12EC0E092EFD92EFC1609F441CC8C2F07
:100BE0000E94FB11FC018091A104882321F08AE07E
:100BF0000E94DF1335CC8381928121813081D09294
:100C0000BA04E092BB040093BC043093BD0420936B
:100C1000BE049093BF048093C004C093C1040E949B
:100C2000AE13882321F088E790E00E94F113CF5F94
:100C3000D3CFE016F10609F013CC81E00E94201515
:100C40000FCC1092E1059091D804EFEFE90F1092CC
:100C5000A104EB1520F0A092A1048FEF06C0F0E0F4
:100C6000EE0FFF1FE95BFB4F80812091A104211152
:100C7000BECF27E92093BA041093BB040093BC04B1
:100C80009093BD046CC01092E105EAEBF4E082ECB5
:100C900094E011928E179F07E1F70E947514C82FF8
:100CA0008FEF8C0F0E94FB11FC018091A10488231F
:100CB00011F086E09DCF838192812181308142EFC6
:100CC0004093BA041093BB040093BC043093BD045A
:100CD0002093BE049093BF048093C004C093C104CA
:100CE00090C11092E1052091D80421110BC08BE92D
:100CF0008093BA041093BB040093BC041092BD040B
:100D000088E02DC0822F90E0FC013197E830F1059A
:100D1000E0F4EC5CFF4F0C9423238091F30416C0A5
:100D20008091F60413C08091F40410C08091F804FF
:100D30000DC08091F9040AC08091FA0407C0809127
:100D4000F70404C08091F50401C080E09BE9909312
:100D5000BA041093BB040093BC042093BD04809399
:100D6000BE0449C11092E10582EC94E00E94AF0AF2
:100D70008C0182EC94E00E94CA0AB8010E94DC1443
:100D8000C82F1092510510925205109253051092DF
:100D90005405482F61E575E087E894E00E94A10CB6
:100DA000C81387CF6C2F70E020E040E087E894E024
:100DB0000E94360C882309F453CB19CF8091E105AA
:100DC00081114ECBC091D804C1501091D904CB31C0
:100DD000F1F41E3F89F487E894E00E94220DD0933D
:100DE000E10545E650E05093EA044093E90485E6C6
:100DF00090E00E94C61415E61093E80410938B044B
:100E0000412F62E170E087E894E00E94DE0B809160
:100E1000FA048C17F0F0412F6C2F87E894E00E94C1
:100E2000640C8091E9049091EA0429E52093BA04C6
:100E30009093BB048093BC041092BD041092BE0436
:100E40001092BF041092C0041092C1040E94AE130D
:100E500005C0CF3F19F089E00E94DF13D093FE0454
:100E6000FFCA1092E1050E947514182F0E948C147D
:100E7000C82F8091F9048C1708F4B9CE6FEF6C0F6E
:100E80008FEF810F0E94A3149091A1049111AFCE16
:100E90009091E9042091EA0435EB3093BA04209351
:100EA000BB049093BC041093BD04C093BE04809314
:100EB000BF04A3C01092E105CD2849F50E948C140F
:100EC000C82F0E94FB118C0160E08C2F0E94A3149C
:100ED0009091A1049111EDCEF8019381228131818D
:100EE000408153ED5093BA044093BB043093BC044B
:100EF0002093BD049093BE04C093BF048093C004AC
:100F00007EC08091E1058111ABCACD2869F182E0F4
:100F10006FCE8091E1058111A3CA82EC94E00E941A
:100F2000AF0A082FD92E0E948C14C82F1091DB0411
:100F3000F0925105E0925205D0925305009354056A
:100F4000482F61E575E087E894E00E94A10CC81382
:100F5000B0CE6C2F70E0212F40E087E894E00E9433
:100F6000360C811144CE38C082EC94E00E94AF0A66
:100F7000D82EC92E0E948C14C82F0091DC040E9428
:100F80007514182FF0925105E0925205C092530546
:100F9000D09254054FEF480F61E575E087E894E083
:100FA0000E94A10C682F70E0212F30E02150310900
:100FB0006217730709F07DCE4FEF4C0F202F87E8A3
:100FC00094E00E94360C90E02C2F30E02150310943
:100FD0008217930709F00BCE8091E9049091EA04FF
:100FE00029E52093BA049093BB048093BC0410922B
:100FF000BD041092BE041092BF041092C00410925F
:10100000C1040E94AE132CCAE091D205F091D30521
:10101000309709F425CA65E874E082EC94E00995FC
:101020001FCA8091E005811195C981E08093E00598
:101030000E941F1700914D0510914E0520914F05FC
:1010400030915005DC01CB01801B910BA20BB30B3F
:101050008C019D01095E13402109310907381341B4
:1010600021053105A8F42091B90480914B05909198
:101070004C05213049F4059761F583E090E09093A9
:101080004C0580934B0566C9059709F063C9F5CFF8
:1010900081379741A105B10508F45CC98091B90475
:1010A000811135C080914B0590914C05059729F32E
:1010B00060E08091D7050E948D1580E00E94201588
:1010C00080914B0590914C05049719F40E940E01F4
:1010D000F7CF85E090E090934C0580934B0580918D
:1010E000E9049091EA0420E52093BA049093BB04AC
:1010F0008093BC041092BD041092BE041092BF04F1
:101100001092C0041092C1040E94AE1323C9109221
:10111000B9044091F5044B7F4093F50440939B0440
:1011200065E170E087E894E00E94DE0B8091F504B1
:1011300081FD07C01092EA041092E90480E090E07B
:1011400008C08091FF04909100059093EA04809379
:10115000E9040E94C614FEC882EC94E00E94AF0A23
:101160007C0182EC94E00E94CA0AB7010E94DC1460
:101170002091910430E0482F50E0241735070CF4FB
:10118000D2CA1FCBCE3509F47ECB7FCBCC2009F45D
:101190000BCB21E0D21609F4EDCA82EC94E00E9458
:1011A000840A7C0101CB80E0DF91CF911F910F91E8
:1011B000FF90EF90DF90CF90BF90AF909F908F9077
:1011C0007F906F905F904F903F902F900895CF92B7
:1011D000DF92EF92FF920F931F93CF93DF936C01F7
:1011E0007A018B01C0E0D0E0CE15DF0581F0D80197
:1011F0006D918D01D601ED91FC910190F081E02D72
:10120000C6010995892B11F02196EECF7E01C70109
:10121000DF91CF911F910F91FF90EF90DF90CF90D2
:101220000895089580E090E00895FC01538D448D69
:10123000252F30E0842F90E0821B930B541710F081
:10124000CF96089501970895FC01918D828D98178E
:1012500061F0828DDF01A80FB11D5D968C91928D9A
:101260009F5F9F73928F90E008958FEF9FEF089597
:10127000FC01918D828D981731F0828DE80FF11D60
:10128000858D90E008958FEF9FEF0895FC01918D7B
:10129000228D892F90E0805C9F4F821B91098F7374
:1012A0009927089582EE92E00E94460921E0892B59
:1012B00009F420E0822F0895FC01848DDF01A80F3E
:1012C000B11DA35ABF4F2C91848D90E001968F736E
:1012D0009927848FA689B7892C93A089B1898C918D
:1012E000837080648C93938D848D981306C00288DC
:1012F000F389E02D80818F7D80830895EF92FF92A6
:101300000F931F93CF93DF93EC0181E0888F9B8D28
:101310008C8D981305C0E889F989808185FD26C0E8
:10132000F62E0B8D10E00F5F1F4F0F731127E02E6D
:101330008C8DE8120CC00FB607FCFACFE889F9894A
:10134000808185FFF5CFCE010E945C09F1CF8B8DA6
:10135000FE01E80FF11DE35AFF4FF0829FB7F894AA
:101360000B8FEA89FB89808180620AC09FB7F8945D
:10137000EE89FF896083E889F989808183708064C0
:1013800080839FBF81E090E0DF91CF911F910F910B
:10139000FF90EF900895CF93DF93EC01888D882321
:1013A000C9F0EA89FB89808185FD05C0A889B989D2
:1013B0008C9186FD0FC00FB607FCF5CF808185FFAD
:1013C000F2CFA889B9898C9185FFEDCFCE010E941B
:1013D0005C09E7CFDF91CF91089580E090E0892B01
:1013E00029F00E94520981110C94000008950E9476
:1013F0004A240C94C1231F920F920FB60F9211240E
:101400002F933F934F935F936F937F938F939F930C
:10141000AF93BF93EF93FF9382EE92E00E945C093B
:10142000FF91EF91BF91AF919F918F917F916F91BC
:101430005F914F913F912F910F900FBE0F901F9092
:1014400018951F920F920FB60F9211242F938F931E
:101450009F93EF93FF93E091F202F091F30280816A
:10146000E091F802F091F90282FD12C09081809122
:10147000FB028F5F8F732091FC02821751F0E09185
:10148000FB02F0E0EE51FD4F958F8093FB0201C00F
:101490008081FF91EF919F918F912F910F900FBEBF
:1014A0000F901F9018958EBD00000DB407FEFDCF64
:1014B0008EB50895FC019381892F8F7D80598230EC
:1014C00058F080E3890F823038F081E0903F31F0AE
:1014D000913F21F080E0089581E008950895FC0196
:1014E0009381892F8F7D8859823058F088E2890F47
:1014F000823038F081E0983F31F0993F21F080E070
:10150000089581E008950895FC0193819B35C1F011
:1015100088E6890F8330A0F0892F8F798D5982302A
:1015200078F088E4890F823058F088E2890F8230A1
:1015300038F088E0890F843018F080E090E008955A
:1015400086E0890F823010F09B3519F484899589E3
:1015500002C0868997899827892798270895FC01D2
:101560009381292F2F7B2059263070F080E5890F39
:10157000853050F080E1890F823030F0935F9330F6
:1015800018F080E090E00895868997899827892748
:1015900098270895FC0193899234A9F180EB890F73
:1015A0008B3088F184EA890F823068F181E9890FF4
:1015B000873048F180E7890F8F3028F180E5890F67
:1015C000873008F188E4890F8230E8F0292F2F7BDB
:1015D0002D5B2230C0F080E3890F8630A0F088E2D6
:1015E000890F823080F083E2890F823060F0933E71
:1015F00051F080E1890F823030F0935F973018F01E
:1016000080E090E008958489958998278927982714
:10161000089508950C94C1230C94C1230C94E422E2
:101620001F93CF93DF93EC01FB01E858FF4F10812C
:101630008091A502882309F4A2C088EF91E00E945E
:10164000A8116AE070E0812F0E94FF13112329F195
:10165000193009F096C00E94C0166093AA027093D8
:10166000AB028093AC029093AD028091A602909160
:10167000A702A091A802B091A902892B8A2B8B2BDB
:1016800009F07FC00E94C0166093A6027093A70263
:101690008093A8029093A90274C08091A502882328
:1016A00009F46FC0CE010E945A0A882389F08EE89F
:1016B00091E00E948711CE010E94CA0A0E94A211E5
:1016C00084E891E00E948711CE010E94AF0A0CC00D
:1016D000CE010E946F0A882351F087E791E00E94B3
:1016E0008711CE010E94840A0E94A21141C088E0A5
:1016F00092E00E94A81160E170E08B810E94AA1123
:101700008DE092E00E94A811CE010E94CA0A0E94B8
:10171000A21184E192E00E94A8112B8D80E1289F04
:10172000900111248C8D829586958770822B8A83F7
:101730006AE070E00E94AA118CE192E00E94A81178
:101740008B8990E025E0959587952A95E1F78C8324
:101750006AE070E00E94AA118AE292E00E94A81159
:101760006AE070E080914B0590914C050E94B811A1
:101770008CE691E0DF91CF911F910C94261111110D
:1017800067CFDF91CF911F910895FC018DE191E02A
:1017900091838083DF015396CF014B961D92A8174A
:1017A000B907E1F7138E148E158E168E178E11A2BF
:1017B00010A212A2089508950C94DC22CF92DF9219
:1017C000EF92FF921F93CF93DF937C016B01142F55
:1017D000CB010E94DC0B811721F0612FC6010E9412
:1017E0000E0BF701838590E004962285289FE00187
:1017F000299FD00D112485859685C80FD91FC53521
:10180000F1E0DF075CF5CC0DDD1DCE010E94DC0BA5
:10181000181721F0612FCE010E940E0BF70183856E
:1018200090E004964285489F9001499F300D112415
:1018300085859685820F931FC80FD91FCE010E9400
:10184000DC0B181759F0612FCE01DF91CF911F915A
:10185000FF90EF90DF90CF900C940E0BDF91CF9123
:101860001F91FF90EF90DF90CF900895CF93DC0110
:10187000942F17964C91179750E06417750718F03E
:1018800081E0890F1FC01B96EC911B979E17C0F734
:10189000422FC92FCD01F0E03496E69FD001E79F9B
:1018A000B00DF69FB00D1124FC0125853685BD01D4
:1018B000620F731FEC2FF0E034966E0F7F1F0E94B3
:1018C000DE0B8C2FCF910895EF92FF921F93CF9351
:1018D000DF93FC012185261708F1142F7C01C62F08
:1018E000D0E0FE01EE0FFF1FE95BFB4F842F90E07D
:1018F000918380836996CE010E94DC0B181771F0EA
:101900008CE991E00E94F113412FBE01C701DF91E4
:10191000CF911F91FF90EF900C94DE0BDF91CF9150
:101920001F91FF90EF900895FC01128E818568173A
:1019300028F4862F90E049960C94DC0B8FEF828F71
:101940000895AF92BF92CF92DF92EF92FF921F93D2
:10195000CF93DF93DC011A969C911A97491718F0E0
:1019600081E0890F4EC0142FFB017D01242F30E050
:10197000D901AA0FBB1FA158BC4F808190E08D9365
:101980009C93D901AA0FBB1FAF54BC4F818190E03B
:101990008D939C93D901AA0FBB1FAD51BC4F82817F
:1019A00090E08D939C93D901AA0FBB1FAB5EBB4FF8
:1019B000838190E08D939C93D7011B968C911B970C
:1019C00090E00496829F6001839FD00C929FD00C80
:1019D00011241D968D919C911E97C80ED91E5B01F6
:1019E000B4E0AB0EB11CEB01C61AD70AB6016C0FFE
:1019F0007D1F4991C7010E94DE0BCA15DB05B1F7B7
:101A0000812FDF91CF911F91FF90EF90DF90CF90CA
:101A1000BF90AF900895FC0180E090E0238530E016
:101A2000821793073CF4A281B381A80FB91F1C92BF
:101A30000196F4CF85E68483158289EC868317822C
:101A4000148A0895EF92FF920F931F93CF93DF9321
:101A500000D000D0CDB7DEB78C010E940B0DF8018D
:101A60008285878319821A828AE48B838CE98C832E
:101A7000E12CF12CF801828590E0E816F90604F5D6
:101A8000F8E0EF16F10419F489E0E82EF12C4E2D60
:101A9000BE016F5F7F4FC8010E94A10C8C818F5FD8
:101AA0008C83811103C08B818F5F8B8320E040E0AA
:101AB000B701C8010E94360C8FEFE81AF80ADACF96
:101AC00019821A8282E18B8387E68C8348E0BE010B
:101AD0006F5F7F4FC8010E94A10C20E040E068E0EA
:101AE00070E0C8010E94360C42E06DE1C8010E941E
:101AF000640C47E36EE1C8010E94640C42E060E0C0
:101B0000C8010E94640C40E069E1C8010E94640CB5
:101B100040E06AE1C8010E94640CFF24F39444E0B1
:101B20006F2DC8010E94640C61E06F0D44E6C8018E
:101B30000E94640C62E06F0D4BE0C8010E94640CCF
:101B4000E3E0FE0EF9E1FF12EACF45E66BE1C801E2
:101B50000E94640C40E06CE1C8010E94640C4BE5FB
:101B600060E070E0C8010E94DE0BF801448162E190
:101B700070E0C8010E94DE0BF801458163E170E06E
:101B8000C8010E94DE0BF801468164E170E0C801E3
:101B90000E94DE0BF801448965E170E0C8010E94F3
:101BA000DE0BF801478167E170E0C8010E94DE0B9F
:101BB000F801438568E170E0C8010E94DE0B60E037
:101BC0008DEF93E00E940E0B60E08EEF93E00E9499
:101BD0000E0B60E08FEF93E00E940E0BC8010E9495
:101BE000FC0D0F900F900F900F90DF91CF911F91F0
:101BF0000F91FF90EF9008955F926F927F928F9276
:101C00009F92AF92BF92CF92DF92EF92FF920F938B
:101C10001F93CF93DF93EC010E940B0D8B8590E017
:101C200004962A85289F7001299FF00C11248D8528
:101C30009E85E80EF91E85E5E81681E0F8060CF0B1
:101C40006AC08FEF93E00E94DC0B782E8EEF93E05A
:101C50000E94DC0B182F8DEF93E00E94DC0B7116B5
:101C600081F0781681F0181306C0612F8EEF93E093
:101C70000E940E0B712E5701AA0CBB1C00E010E055
:101C800024C07816C1F3672D8FEF93E00E940E0BEE
:101C9000F2CFC8010E94DC0B682E48018E0C9F1CFD
:101CA000C4010E94DC0B582E6501C00ED11EC60176
:101CB0000E94DC0B651491F068120BC0662DC40104
:101CC0000E940E0B73940F5F1F4F0E151F050CF330
:101CD0000DC05812F8CF652DC801F2CF681699F3E0
:101CE0007394662DC6010E940E0BEDCF8FEF93E02B
:101CF0000E94DC0B781679F0672D8DEF93E00E943F
:101D00000E0B672D8EEF93E00E940E0B672D8FEF69
:101D100093E00E940E0B80E090E00E94DC0B8B357C
:101D200019F0CE010E94220D82E190E00E94DC0BAE
:101D30008C8383E190E00E94DC0B8D8384E190E052
:101D40000E94DC0B8E8385E190E00E94DC0B8C8B83
:101D500087E190E00E94DC0B8F83DF91CF911F9190
:101D60000F91FF90EF90DF90CF90BF90AF909F903A
:101D70008F907F906F905F90089525E331E0FC0194
:101D80003183208382819381009711F00C94C123C9
:101D90000895CF93DF93EC010E94BD0ECE01DF9139
:101DA000CF910C94C1232DE331E0FC0121933193B9
:101DB000CF010C94BD0ECF93DF93EC010E94D30EA4
:101DC000CE01DF91CF910C94C1230895CF92DF9281
:101DD000EF92FF920F931F93883008F04DC06091EF
:101DE000990270919A02082E02C0759567950A941F
:101DF000E2F740919702509198022091A20260FD73
:101E00001BC030E0082E02C0359527950A94E2F7F2
:101E100020FF1BC001E010E020E030E06801790104
:101E200004C0CC0CDD1CEE1CFF1C8A95D2F7D70138
:101E3000C601842B952B1CC030E0082E02C03595BE
:101E400027950A94E2F720FFE5CF01E010E020E0BB
:101E500030E06801790104C0CC0CDD1CEE1CFF1CD5
:101E60008A95D2F7D701C601809590958423952352
:101E700090939802809397021F910F91FF90EF909B
:101E8000DF90CF9008958F929F92AF92BF92CF92A2
:101E9000DF92EF92FF921F93CF93DF931092FE0495
:101EA0001092A10480919004811104C08FEF80935F
:101EB000A10402C08091470481FB992790F9909377
:101EC0003202881F8827881F8093A10223E3E22E15
:101ED00022E0F22E6701C0E0D0E010E0812F0E94E6
:101EE000FB11FC0182819381982789279827F601AD
:101EF000819391936F0181E0810F2196C931D105C2
:101F000039F0C830D10511F482E0810F182FE6CFE7
:101F1000C0919902D0919A026AE187E894E00E9408
:101F2000940C90E0C817D90709F483C0C0E0D0E052
:101F3000812C912C540183946AE187E894E00E94FB
:101F4000940C90E00C2E02C0959587950A94E2F7C8
:101F5000182F11708091990290919A029C010C2E79
:101F600002C0359527950A94E2F721703327412F57
:101F700050E02417350709F44AC0B501A401112324
:101F800079F00C2E04C0440F551F661F771F0A946A
:101F9000D2F7482B592B50939A024093990210C0C4
:101FA0000C2E04C0440F551F661F771F0A94D2F7EA
:101FB000409550958423952390939A02809399029B
:101FC0008C2F0E94E60E8091A20290E00C2E02C09F
:101FD000959587950A94E2F78170909132021123CA
:101FE00019F081110CC002C0882349F0F70160810B
:101FF000718181E0911180E00E94381408C0F701DE
:102000006081718181E0911180E00E940D14219620
:10201000F2E0EF0EF11CC830D10509F08DCF6AE176
:1020200087E894E00E94940C90E090939A02809349
:102030009902C3E6D2E011E0E12CF12C83E0A82E56
:10204000B12CCA80DB80612F87E894E00E94940C59
:1020500090E0833091051CF09B838A8302C0BB8291
:10206000AA828A819B81C816D906E9F088EB91E0A3
:102070000E94A8116AE070E0C7010E94B81186ECC6
:1020800091E00E94A8116AE070E08A819B810E9421
:10209000B8118BEB91E00E94791165E070E080E06F
:1020A00090E00E94E516CC80DD8047012FEF821A78
:1020B000920A61E0610F87E894E00E94940C90E03E
:1020C000833091051CF09D838C8302C0BD82AC825D
:1020D0008C819D81C816D906E9F08DEB91E00E94B4
:1020E000A8116AE070E0C7010E94B81186EC91E087
:1020F0000E94A8116AE070E08C819D810E94B81155
:102100008BEB91E00E94791165E070E080E090E057
:102110000E94E516CE80DF8062E0610F87E894E0E0
:102120000E94940C282F30E03F832E8381508E3FF5
:1021300048F4C216D30631F426961D5F193101F119
:1021400074017FCF80EC91E00E94A8116AE070E0FA
:10215000C7010E94B81186EC91E00E94A8116AE0C4
:1021600070E08E819F810E94B8118BEB91E00E94FC
:10217000791165E070E080E090E00E94E516DCCF28
:10218000C0919D02D0919E026DE187E894E00E948B
:10219000940C90E090939E0280939D02C817D907FB
:1021A000B1F083EC91E00E94A8116AE070E08091A8
:1021B0009D0290919E020E94B8118BEB91E00E94CB
:1021C000791165E070E080E090E00E94E516C09132
:1021D0009F02D091A0026EE187E894E00E94940CE7
:1021E00090E09093A00280939F02C817D907B1F0A6
:1021F00088EC91E00E94A8116AE070E080919F0253
:102200009091A0020E94B8118BEB91E00E9479118D
:1022100065E070E080E090E00E94E5161092A10475
:10222000809190048D3118F48FEF8093A10481E0A8
:102230008093A502DF91CF911F91FF90EF90DF90E7
:10224000CF90BF90AF909F908F900895009769F0C6
:10225000FC0101900020E9F73197AF01481B590BB1
:10226000BC0182EE92E00C94E70880E090E00895D3
:102270008F929F92AF92BF920F931F93CF93DF9352
:10228000CDB7DEB7A1970FB6F894DEBF0FBECDBFB6
:1022900019A2423008F44AE08E010F5D1F4F842ED0
:1022A000912CA12CB12CA50194010E94F222E62FC1
:1022B000B901CA0101501109EA3014F4E05D01C00E
:1022C000E95CD801EC93232B242B252B61F7C80163
:1022D0000E942611A1960FB6F894DEBF0FBECDBFA7
:1022E000DF91CF911F910F91BF90AF909F908F90F2
:1022F0000895CF93DF930E942611EC018CE691E0C4
:102300000E9426118C0F9D1FDF91CF9108950F938E
:102310001F93CF93DF938C01C0E0D0E0F801EC0F66
:10232000FD1F6491662341F082EE92E00E947E09D7
:10233000892B11F02196F2CFCE01DF91CF911F9121
:102340000F910895BC0180E090E04AE00C943811B0
:102350000C942611AB01682F4115510521F482EE32
:1023600092E00C947E0970E080E090E00C943811CB
:10237000CF92DF92EF92FF92CF93DF9361157105B9
:1023800059F4682F82EE92E0DF91CF91FF90EF90A9
:10239000DF90CF900C947E096C01990FEE08FF0836
:1023A0006A307105E9F4F7FE19C06DE282EE92E041
:1023B0000E947E09EC0166277727CB016C197D0905
:1023C0008E099F094AE00E9438118C0F9D1FDF91F2
:1023D000CF91FF90EF90DF90CF9008954AE001C039
:1023E000462FC701B601DF91CF91FF90EF90DF90AC
:1023F000CF900C9438111092970410929804109278
:10240000990410929A041092A10490919104981743
:1024100020F090918E04981720F481E08093A1041D
:1024200021C090E0FC01EE0FFF1FE158FC4F20811E
:1024300020939704FC01EE0FFF1FEF54FC4F208107
:1024400020939804FC01EE0FFF1FED51FC4F2081FB
:1024500020939904880F991FFC01EB5EFB4F80814C
:1024600080939A0487E994E008951F93CF93DF93B4
:10247000182FC5E8D4E060E08DA50E948D1583E09B
:102480000E94530A812F0E94530A80E00E94530A3F
:10249000182F61E08DA50E948D15812FDF91CF91BE
:1024A0001F910895FF920F931F93CF93DF93F82E00
:1024B000062F142FC5E8D4E060E08DA50E948D158D
:1024C00085E00E94530A8F2D0E94530A802F0E949C
:1024D000530A812F0E94530A61E08DA5DF91CF91AD
:1024E0001F910F91FF900C948D15FF920F931F93E6
:1024F000CF93DF93C82FF62E072F142F60E0809123
:10250000B2040E948D1582E00E94530A8C2F0E9413
:10251000530ACF2DD02FCE01810F911D8C01C017F2
:10252000D10721F089910E94530AF9CF61E080918F
:10253000B204DF91CF911F910F91FF900C948D15F4
:102540000F931F93CF93DF93082F162FC5E8D4E086
:1025500060E08DA50E948D1582E00E94530A802FB5
:102560000E94530A812F0E94530A61E08DA5DF91DA
:10257000CF911F910F910C948D154F925F926F9296
:102580008F929F92AF92BF92CF92DF92FF920F9362
:102590001F93CF93DF9300D000D0CDB7DEB710925A
:1025A000A2046093A3047093A4048093A504909361
:1025B000A604493008F048E04093A7041092B00404
:1025C000A8EAB4E0F90150E0CF01821B930B841715
:1025D00095071CF481918D93F7CFA12CB12C4090DD
:1025E000410150904201609043014E0124E0820E6F
:1025F000911C49825A826B82CE0101966C01F82EA1
:102600000D2DF60111916F01812F0E943512982F27
:10261000987083FD02C01F5F05C08C149D0489F76C
:1026200010E092E0FFEFAF1ABF0A923029F422E3E4
:10263000A216B104F1F67CC082E3A816B10409F435
:1026400077C04091A70468EA74E085E0810F0E949A
:1026500075128091B004813029F48091A7048064C0
:102660008093A7046091A70484E0810F0E94A012C8
:102670004091A3045091A4046091A5047091A60414
:102680008091A2048130B1F44C835B83AB01662757
:102690007727942F9C71842F8370E8E09E9F800D94
:1026A000112488608A8365E0569547956A95E1F71D
:1026B00049830DC0CA0123E0969587952A95E1F7D5
:1026C00089834295440F407E4A831C821B8244E0EA
:1026D0006F2D702F812F0E947512115048E068E015
:1026E000812F0E945212C12CD12CFFEFCF1ADF0A8A
:1026F000812F0E94351283FF05C022E3C216D10448
:10270000A1F718C082E3C816D104A1F01092A30467
:102710001092A4041092A5041092A6041092A7048B
:102720001092A2041092B0041092B10480E003C091
:1027300086E001C087E00F900F900F900F90DF911F
:10274000CF911F910F91FF90DF90CF90BF90AF90EE
:102750009F908F906F905F904F900895CF93DF93ED
:10276000C091BA04C63B21F0C295C695C77001C09E
:10277000C7E0CF5F81E08093B7048093B804609195
:10278000E80470E080E090E02AEB34E04C2F0E94F7
:10279000BD12811102C080E00FC0D3E06091E80457
:1027A00070E080E090E02AEB34E04C2F0E94BD12F4
:1027B000882389F3D15091F7DF91CF910895E5E80F
:1027C000F4E0A9EEB4E09C9111962C913FE635AB74
:1027D00026AB97AB80AF11AE12AE13AE14AE0C9415
:1027E000AE13CF93DF930E948711EC018CE691E04A
:1027F0000E9426118C0F9D1FDF91CF910895CF93DA
:10280000DF930E94AA11EC018CE691E00E94261150
:102810008C0F9D1FDF91CF910895882371F0109246
:10282000A104809190048C31F8F080917D0491E9AD
:102830009093BA041092BB0409C08091E90490916E
:10284000EA0429E92093BA049093BB048093BC0462
:102850007093BD046093BE041092BF041092C00434
:102860001092C1040C94AE138FEF8093A104DFCFBC
:10287000882371F01092A104809190048C31F8F0BB
:1028800080917D0490E99093BA041092BB0409C032
:102890008091E9049091EA0428E92093BA04909386
:1028A000BB048093BC047093BD046093BE0410927B
:1028B000BF041092C0041092C1040C94AE138FEFA9
:1028C0008093A104DFCFCF93C82F482F60EE8FE015
:1028D0000E9452128FE00E943512982F907E81E064
:1028E0009C1301C080E0CF9108958091C504823788
:1028F00021F08C3911F0853B19F48091D8040895AA
:10290000853F19F48091DA040895823F19F480918B
:10291000DC04089580E008958091C5048C3911F09D
:10292000853B19F48091D9040895823B11F0823DD2
:1029300019F48091DA040895853F19F48091DB043D
:10294000089580E008951092A10490918E04891753
:10295000C8F4209192046217A8F430E02C5F3F4F36
:10296000829FA001839F500D112480919404909127
:102970009504840F951F70E06C5F7F4F860F971F43
:102980000C94DC0B8FEF8093A1040895CF93DF9319
:10299000C5E8D4E09F838887492F63E170E087E82A
:1029A00094E00E94DE0B488564E170E087E894E0E3
:1029B000DF91CF910C94DE0BEF92FF920F931F9358
:1029C000CF93DF939C01472F5527822FC32FDD27FD
:1029D0001C2F00918E04AFE7B3E0E3EEF3E090E04C
:1029E000332777270917F9F0111102C0882369F0FE
:1029F000ED90FC901197CE15DF0589F4D296ED90FD
:102A0000FC90D3972E153F0551F4E080F1804E15D0
:102A10005F0529F4E2A8F3A86E157F0549F09F5FD2
:102A200012963296DFCF9091910481E0890F01C018
:102A3000892FDF91CF911F910F91FF90EF90089513
:102A4000CF93DF93CDB7DEB728970FB6F894DEBFEC
:102A50000FBECDBF1092D1058093FC0484E090E0BE
:102A600090934C0580934B0582E08093B70483E0FC
:102A70008093B8046091E80470E080E090E0FE018B
:102A80003196AE01475F5F4F9F011192E417F50742
:102A9000E1F741E04093B00440E00E94BD12109283
:102AA000B0040E941F1760934D0570934E058093EC
:102AB0004F059093500528960FB6F894DEBF0FBED1
:102AC000CDBFDF91CF910895833081F028F481301C
:102AD00099F08230A1F008958730A9F08830B9F0DC
:102AE0008430D1F4809180008F7D03C0809180007C
:102AF0008F7780938000089584B58F7702C084B566
:102B00008F7D84BD08958091B0008F7703C0809140
:102B1000B0008F7D8093B00008951F93CF93DF9313
:102B2000282F30E0F901E354FF4F8491F901E75574
:102B3000FF4FD491F901EB56FF4FC491CC23C1F064
:102B4000162F81110E946415EC2FF0E0EE0FFF1F8D
:102B5000E654FE4FA591B4919FB7F894111104C0AB
:102B60008C91D095D82302C0EC91DE2BDC939FBFD3
:102B7000DF91CF911F910895FF920F931F93CF93F1
:102B8000DF93182FF62EC72FD42F60E08091B20468
:102B90000E948D1583E00E94530A812F0E94530AE0
:102BA0000F2D1C2FC0E0CD1751F0C83041F080E050
:102BB0000E94530AF80181938F01CF5FF4CF61E047
:102BC0008091B204DF91CF911F910F91FF900C94EF
:102BD0008D150F931F93CF93DF9300D000D0CDB707
:102BE000DEB7182F1092A2041092A3041092A4042E
:102BF0001092A5041092A60444E0BE016F5F7F4FBF
:102C00000E94BC152A813981822F90E065E095955C
:102C100087956A95E1F748E0349F800D911D112456
:102C2000092E000CAA0BBB0B8093A3049093A40461
:102C3000A093A504B093A60423FF29C032E0880F17
:102C4000991FAA1FBB1F3A95D1F72370820F911DC0
:102C5000A11DB11DBA2FA92F982F88272B81820F74
:102C6000911DA11DB11DBA2FA92F982F88272C8146
:102C7000820F911DA11DB11D8093A3049093A40404
:102C8000A093A504B093A60481E08093A2048FEFE3
:102C9000810F0E943512082F84E0810F0E943512A7
:102CA00003FF04C091E09093B00402C01092B004FE
:102CB000482F4F704093A70468EA74E085E0810FC5
:102CC0000E94BC150F900F900F900F90DF91CF9145
:102CD0001F910F9108951F93CF93DF93C5E8D4E020
:102CE00060E08DA50E948D1580EA0E94530A80E065
:102CF0000E94530A182F61E08DA50E948D15812F27
:102D0000DF91CF911F910895CF93DF9390E0FC0165
:102D1000E755FF4F2491FC01EB56FF4F8491882328
:102D200061F190E0880F991FFC01E055FE4FC591BD
:102D3000D491FC01E654FE4FA591B491611109C0F4
:102D40009FB7F8948881209582238883EC912E2365
:102D50000BC0623061F49FB7F8948881322F3095B0
:102D600083238883EC912E2B2C939FBF06C08FB7B3
:102D7000F894E8812E2B28838FBFDF91CF9108959F
:102D80003FB7F8948091ED059091EE05A091EF0585
:102D9000B091F00526B5A89B05C02F3F19F001960C
:102DA000A11DB11D3FBFBA2FA92F982F8827820FD1
:102DB000911DA11DB11DBC01CD0142E0660F771F21
:102DC000881F991F4A95D1F708958F929F92AF92CD
:102DD000BF92CF92DF92EF92FF926B017C010E9433
:102DE000C0164B015C01C114D104E104F104F1F0FF
:102DF0000E94C016DC01CB0188199909AA09BB09F8
:102E0000883E9340A105B10570F321E0C21AD108B4
:102E1000E108F10888EE880E83E0981EA11CB11C21
:102E2000C114D104E104F10419F7DDCFFF90EF9054
:102E3000DF90CF90BF90AF909F908F9008952FB765
:102E4000F8946091E9057091EA058091EB05909105
:102E5000EC052FBF08951F920F920FB60F92112409
:102E60002F933F938F939F93AF93BF938091E905E7
:102E70009091EA05A091EB05B091EC053091E80541
:102E800023E0230F2D3720F40196A11DB11D05C0AD
:102E900026E8230F0296A11DB11D2093E80580931B
:102EA000E9059093EA05A093EB05B093EC058091BA
:102EB000ED059091EE05A091EF05B091F00501961A
:102EC000A11DB11D8093ED059093EE05A093EF0534
:102ED000B093F005BF91AF919F918F913F912F914A
:102EE0000F900FBE0F901F901895789484B5826054
:102EF00084BD84B5816084BD85B5826085BD85B59E
:102F0000816085BD80916E00816080936E0010921B
:102F10008100809181008260809381008091810096
:102F20008160809381008091800081608093800027
:102F30008091B10084608093B1008091B000816085
:102F40008093B00080917A00846080937A008091B1
:102F50007A00826080937A0080917A008160809309
:102F60007A0080917A00806880937A001092C10084
:102F700062E08FEF0E948416ABEEB4E0FD01119287
:102F800024E0E33FF207D9F7E4E4F1E081918D9387
:102F900031E0EC34F307D1F78BE58093F4048DE056
:102FA0008093F30482E38093F60481E08093F70436
:102FB0008091F5048E7F82608093F50489EC90E027
:102FC000A0E0B0E08093FF0490930005A09301057A
:102FD000B093020580E19BE09093D3058093D205E6
:102FE0008AE08093B20461E00E94841661E08091DF
:102FF000B2040E948D15C4E1D0E0BFE9AB2EB0E071
:10300000BB2E13EBE12E10E0F12EDFB6F894809189
:10301000AE02811126C0F5018491F7012491E82FB9
:10302000F0E0EE0FFF1FE055FE4FA591B4919C918B
:10303000822F892321F461E08AE00E948D1561E0EE
:103040008AE00E9484168CB580618CBD8CB580644A
:103050008CBD61E08DE00E94841661E08BE00E94EF
:1030600084168091AE028F5F8093AE02DFBE60E077
:103070008091B2040E948D1580EC0E94530A61E099
:103080008091B2040E948D156AE070E080E090E0CB
:103090000E94E51680E80E946314882381F06AE0AC
:1030A00070E080E090E00E94E5166EE170E080E064
:1030B00090E00E94E516219709F0A7CF4BC06AE087
:1030C00070E080E090E00E94E51661E08AE20E94F4
:1030D000A01261EB89E20E94A01265E088E20E94E2
:1030E000A0126AE070E080E090E00E94E51610E334
:1030F00060E0812F0E94A01260E080E1810F0E94B9
:10310000A01260E080E2810F0E94A0121F5F1E33B8
:1031100079F760E080E60E94A01260E080E70E94FC
:10312000A01263E08BE20E94A01244E064E680E615
:103130000E94521240E060E680E70E94521280E056
:103140000E9463148111ABCF6AE070E080E090E0F0
:103150000E94E5168FEF8093DF051092A1049091F5
:1031600090049D3110F48093A10481E08093A50226
:10317000E091F202F091F30282E08083E091EE02AE
:10318000F091EF021082E091F002F091F10280E103
:1031900080831092FA02E091F602F091F70286E045
:1031A0008083E091F402F091F50280818061808358
:1031B000E091F402F091F502808188608083E091D3
:1031C000F402F091F502808180688083E091F4023E
:1031D000F091F50280818F7D80838091A502882304
:1031E00009F4CCC1C5E0D0E068EE73E080E090E087
:1031F0000E94E5168DE491E00E94A8112197A1F7A5
:103200008EE691E00E9479118FE491E00E94A8116E
:103210006AE070E081E090E00E94B8118AE691E0F7
:103220000E94A8116AE070E082E090E00E94B8116C
:103230008CE691E00E94261187E894E00E94FC0D44
:1032400085E591E00E94F1138EE491E00E948711E0
:1032500080E090E00E94DC0B6AE070E00E94AA111E
:1032600085E491E00E9487116AE070E080918B0410
:103270000E94AA1180E491E00E94871180918C0441
:1032800090918D0498278927982790939D04809387
:103290009C040E94A21188E391E00E9487116AE0D9
:1032A00070E080919B040E94AA118BE291E00E9441
:1032B00087116AE070E080918E040E94AA1189E172
:1032C00091E00E9487116AE070E0809192040E9470
:1032D000AA118DE091E00E9487116AE070E0809170
:1032E00090040E94AA118FE691E00E94A8116AE062
:1032F00070E089E190E00E94B81186E791E00E94B9
:10330000A8118091900490E06AE070E048960E94D5
:10331000B81188E791E00E94A811C0E08091900464
:10332000C81778F48C2F90E049960E94DC0B60E17E
:1033300070E00E94AA118BE091E00E948711CF5F9C
:10334000EDCF8AEF90E00E9487116AE070E080E1A3
:1033500090E00E94B8118CE791E00E94A8116AE009
:1033600070E082E090E00E94B81186E791E00E9450
:10337000A8116AE070E081E190E00E94B81188E74E
:1033800091E00E94A811C2E0D0E0CE010E94DC0BC7
:1033900060E170E00E94AA1188EF90E00E9487111E
:1033A0002196C231D10589F78AEE90E00E948711FB
:1033B0006AE070E0809193040E94AA1182E891E093
:1033C0000E94A8116AE070E0809196040E94AA1100
:1033D00086E791E00E94A8118091930490E0019704
:1033E000880F991F20919604820F911D6AE070E06A
:1033F00001960E94B81188E891E00E94A8116AE045
:1034000070E082E090E00E94B81188E791E00E94AD
:10341000A81110E080919304181718F5C12FD0E07F
:10342000CC0FDD1F809196046E01C80ED11CC60121
:103430000E94DC0B60E170E00E94AA11809196046A
:103440007E01E80EF11CC70101960E94DC0B60E1D1
:1034500070E00E94AA1188EE90E00E9487111F5F21
:10346000D9CFC0919404D09195048FED90E00E9443
:1034700087116AE070E0809191040E94AA1182E8AD
:1034800091E00E94A8116AE070E0CE010E94B8119C
:1034900086E791E00E94A811809191049E0144E08A
:1034A000849F200D311D1124C9016AE070E001974D
:1034B0000E94B81188E891E00E94A8116AE070E0CB
:1034C00084E090E00E94B81188E791E00E947911B1
:1034D00010E080919104181708F050C07E0184E03C
:1034E000E80EF11CCE010E94DC0B60E170E00E944E
:1034F000AA1121968DED90E00E948711CE15DF056F
:1035000089F78BED90E00E948711C12ED12CCC0C55
:10351000DD1CE12CF12CF601EE0DFF1DE158FC4FF6
:1035200060E170E0808191810E94B81189ED90E0A6
:103530000E94871192E3E90EF11CE8ECEE16F1040B
:1035400051F783ED90E00E94871100E08091920492
:10355000081770F4CE010E94DC0B60E170E00E945D
:10356000AA11219681ED90E00E9487110F5FEECFA6
:103570008CE691E00E9426111F5FABCF6AE187E8DD
:1035800094E00E94940C90E090939A0280939902A8
:103590000E94430F8091A502882321F081E691E0EB
:1035A0000E94F1130E94C0166093DA027093DB024E
:1035B0008093DC029093DD02412C512C3201439424
:1035C00063E0262E312C0E94C0166093AA027093ED
:1035D000AB028093AC029093AD020091DE02109199
:1035E000DF022091E0023091E1026B017C01C01A00
:1035F000D10AE20AF30A9701860105361105210571
:10360000310548F40E940E018091FE048823B9F12F
:103610000E94430F34C06093DE027093DF028093F8
:10362000E0029093E10210E0CCE3D0E001E00E94E0
:103630006B16837001F164C48091B3048093C1055B
:103640008091B4048093C2058091B5048093C30532
:103650008091B6048093C4054093BF058091B00467
:10366000811179C41092C00580914505909146055D
:10367000892B09F473C41F5F123021F2D8CFC09098
:10368000A602D090A702E090A802F090A902C1146F
:10369000D104E104F104D1F12091E9043091EA046C
:1036A0008090AA029090AB02A090AC02B090AD02C4
:1036B0008C189D08AE08BF08A0E1B7E20E94142351
:1036C000681579058A059B0508F52091AF0294E8F5
:1036D000C90E93E0D91EE11CF11CC092A602D09243
:1036E000A702E092A802F092A90281E0820F8093E3
:1036F000AF02893008F47EC41092AF021092A60285
:103700001092A7021092A8021092A9028091DA02E8
:103710009091DB02A091DC02B091DD020097A1053F
:10372000B10539F12091E9043091EA04C090AA0270
:10373000D090AB02E090AC02F090AD02C81AD90A6A
:10374000EA0AFB0AA0E1B7E20E941423C616D706D4
:10375000E806F90618F41092D9020BC081E08093B4
:10376000D9021092DA021092DB021092DC0210925F
:10377000DD029090D902911008C0DD24D394CAE0F4
:10378000CC2ED7E38D2E912C12C18091AA0290915C
:10379000AB02A091AC02B091AD024091D502509124
:1037A000D6026091D7027091D802841B950BA60BAC
:1037B000B70B85389340A105B105F8F2C0E0D0E021
:1037C000882483948091A502882309F18FE891E0F1
:1037D0000E94A8116AE070E0CE010E94B81181EA4F
:1037E00091E00E94A81162E070E0FE01EE55FD4FED
:1037F00080810E94AA118AE791E00E94A81162E0EC
:1038000070E0FE01EE52FD4F80810E94FF13809117
:10381000A10281110BC0209749F08091A3028093EF
:10382000D3028091A4028093D402A0C0CE018E5214
:103830009D4F7C01FC012081CE018E559D4F6C0176
:10384000FC018081281709F48CC000E010E090E0B2
:1038500030E05C01002E02C0B594A7940A94E2F710
:10386000A901002E02C0559547950A94E2F74A2512
:103870005B2540FF70C0202FF8E0CF9F200D112462
:10388000C22F822F0E94E60E4A2D4170A42E8091F5
:10389000990290919A02002E02C0959587950A94FC
:1038A000E2F780FDA8248091A502D0E08823B1F042
:1038B00084EA91E00E94A811FE01EE0FFF1FED5C6B
:1038C000FD4F808191810E94A2118AE791E00E94C0
:1038D000A8116AE070E08A2D0E94FF1390913202D5
:1038E000CC0FDD1FCD5CDD4F6881798181E0AA209E
:1038F00029F0911180E00E94381404C0911180E0F9
:103900000E940D14F601808190E0002E02C0959572
:1039100087950A94E2F780FF0DC0D301C20104C06D
:10392000880F991FAA1FBB1F0A95D2F7F7012081A4
:10393000822B0DC0D301C20104C0880F991FAA1F9A
:10394000BB1F0A95D2F78095F70190818923808368
:10395000C3E0D0E006C00F5F1F4F0830110509F02B
:1039600078CF2196C330D1050CF42CCF0E94C0161D
:103970006093D5027093D6028093D7029093D802B9
:10398000E2EDF2E0A2EAB2E085ED92E020E04191C2
:103990003D914313292D8E179F07C9F72093D90214
:1039A000ECCE1092C102CF3379F5D092B00282EE04
:1039B00092E00E944609181619060CF09EC282EE8B
:1039C00092E00E942409C82FD091A502DD2329F09E
:1039D000682F82EE92E00E947E09CF3311F0C73447
:1039E000B1F46EE671E082EC92E00E944F24809187
:1039F000C10290E0E1EBF2E09F01215B3240281729
:103A000039077CF61192F8CF1092B002D0CFCB34A8
:103A100009F0AAC1DD2321F082EB91E00E94791127
:103A2000F090C1028091A502882379F18BEA91E0A0
:103A30000E94A8116AE070E08F2D0E94FF1302EC33
:103A400012E08091C10290E09801225C3240281778
:103A50003907DCF4E8016AE070E088810E94AA116D
:103A60008AE791E00E94A81160E170E0F80181917D
:103A70008F010E94AA118AE791E00E94A81162E0DA
:103A800070E088810E94FF13DCCFC091C202C33571
:103A900009F0E8C080910001882309F4E0C0C3E682
:103AA000D2E0BB24B39400E010E06B2D87E894E0F3
:103AB0000E94940C90E0833091051CF09B838A83D4
:103AC00002C03B822A8288EB91E00E94A8116AE042
:103AD00070E0C8010E94B81186EC91E00E94A81124
:103AE0006AE070E08A819B810E94B8118BEB91E0C3
:103AF0000E94791165E070E080E090E00E94E51698
:103B00007801FFEFEF1AFF0A61E06B0D87E894E0A0
:103B10000E94940C90E0833091051CF09D838C836F
:103B200002C03D822C828DEB91E00E94A8116AE0D8
:103B300070E0C8010E94B81186EC91E00E94A811C3
:103B40006AE070E08C819D810E94B8118BEB91E05E
:103B50000E94791165E070E080E090E00E94E51637
:103B600062E06B0D87E894E00E94940C9FEF980F41
:103B70009E3F20F490E09F838E8304C02FEF30E0BF
:103B80003F832E8380EC91E00E94A8116AE070E0F0
:103B9000C8010E94B81186EC91E00E94A8116AE069
:103BA00070E08E819F810E94B8118BEB91E00E94A2
:103BB000791165E070E080E090E00E94E51633E066
:103BC000B30E269649E1B41611F087016ECF8091AD
:103BD0009D0290919E02009719F08F3F910531F45C
:103BE00082E090E090939E0280939D0280919F02DC
:103BF0009091A002009719F08F3F910521F49092C7
:103C0000A00280929F0283EC91E00E94A8116AE0DA
:103C100070E080919D0290919E020E94B8118BEB02
:103C200091E00E94791165E070E080E090E00E94F0
:103C3000E51688EC91E00E94A8116AE070E080919E
:103C40009F029091A0020E94B8118BEB91E00E941C
:103C5000791165E070E080E090E00E94E516109236
:103C60000001A5CEC053C83008F0A1CEE3ECF2E0CD
:103C700040E050E02F2D30E0CF01825C924082176F
:103C800093078CF4619180ED860F8A30A8F7C49E6B
:103C9000C001C59E900D1124462F50E0405351099C
:103CA000480F591FE9CFD0E0BE016F5F7F4F7B0106
:103CB000EE0CFF1CE60EF71E8701000F111FF80126
:103CC000ED59FD4F808191814817590709F46FCE56
:103CD00051834083862F880F680FBB24B394B60EA0
:103CE0008091FA04861720F087E894E00E94640C23
:103CF0008091A5028823E1F08DEC91E00E94A8114B
:103D00006AE070E0CE018E0D9F1D0E94B8118AE717
:103D100091E00E94A8116AE070E0F801ED59FD4FB2
:103D2000808191810E94B81187ED91E00E94A811D5
:103D3000F801ED59FD4F80819091E9042091EA044A
:103D400037E93093BA042093BB049093BC04B0923B
:103D5000BD048093BE041092BF041092C004109260
:103D6000C1040E94AE1323CEE091C102C33409F016
:103D700096C0E43009F090C0DD2321F085EE91E09B
:103D80000E9479118091A502811108C0E091C102C1
:103D9000F0E0EF54FD4F20E030E046C087E691E0D0
:103DA0000E9487116AE070E08091C1020E94FF13B7
:103DB00001EB12E0E80160E170E0F80181918F0110
:103DC0000E94AA118AE791E00E94A81162E070E0C7
:103DD00088810E94FF13F2E0053B1F0759F7D6CFF9
:103DE000672F70E075956795762FDC0153E0B595E8
:103DF000A7955A95E1F7AC0147705527AE55BD4FD1
:103E00008301720104C0EE0CFF1C001F111F4A95B4
:103E1000D2F760FF16C04C91E42AEC920196C15093
:103E2000F9F62A5F3F4F708342E0E13BF40769F007
:103E3000829190E095958795782F8083C901C6E09F
:103E4000CFCFE0944C91E422E8CFC2EAD2E002ED79
:103E500012E0F12CF80181918F0198819813D09292
:103E6000D9028091A502882391F08AEE91E00E9408
:103E7000A8116AE070E08F2D0E94AA118AE791E0F4
:103E80000E94A81162E070E088810E94FF13F39401
:103E90002196F3E0FF12DECF1092C10288CDEF3001
:103EA00008F085CD8091B002882329F0F0E0EF542E
:103EB000FD4FC0831CC08C2F0C2E000C990B9F93C0
:103EC000CF9382EC92E09F938F9323EFE22E21E039
:103ED000F22EFF92EF929F938F930E9456248DB7FC
:103EE0009EB708960FB6F8949EBF0FBE8DBF809107
:103EF000C1028F5F8093C1025ACD0E94ED0963CB4E
:103F00000E946B16111108C080FFB5CB81E60E949C
:103F1000E91540E061E007C081FFADCB81E70E9479
:103F2000E91540E062E08CE20E9452124091A70441
:103F3000E5E8F4E09F012558344031968091A704CC
:103F400090E0281739070CF077CB82A1DF01A15C44
:103F5000BE4F8C93EFCF0093C00586CBEE24E39445
:103F6000F12CF0924605E092450580914305909131
:103F70004405CC9724F01092440510924305EFEBD2
:103F8000F5E080914305909144052191DC01AB5F00
:103F9000BA4F12962C930196909344058093430553
:103FA0008091490590914A05019690934A05809326
:103FB00049052EEC35E02E173F0719F7CD97ACF0E9
:103FC00080914705909148050F968C3391052CF40C
:103FD000909348058093470504C0109248051092BD
:103FE0004705D0934A05C0934905109246051092A3
:103FF000450541CB022F10E0F80133E0F595E79538
:104000003A95E1F7EE55FD4F808190E0322F377001
:1040100002C0959587953A95E2F7382F3170F32EC7
:104020008091990290919A0202C0959587952A9560
:10403000E2F780FF02C081E0F8268091A502E80146
:10404000CC0FDD1F8823E9F08AE891E00E94A811D7
:104050006AE070E0C8010E94B81186E891E00E9411
:10406000A811FE01ED5CFD4F808191810E94A2119B
:1040700088E791E00E94A8116AE070E08F2D0E940D
:10408000FF1390913202CD5CDD4F6881798181E030
:10409000FF2029F0911180E00E94381437CB911154
:1040A00080E00E940D1432CB85E894E00C94D30E8E
:1040B0006F927F928F929F92AF92BF92CF92DF9238
:1040C000EF92FF920F931F93CF93DF93CDB7DEB79D
:1040D000C654D1090FB6F894DEBF0FBECDBF109203
:1040E000E5021092E40288EE93E0A0E0B0E0809355
:1040F000E6029093E702A093E802B093E9028BE016
:1041000091E09093E3028093E20285EC90E090933B
:10411000EF028093EE0284EC90E09093F1028093A2
:10412000F00280EC90E09093F3028093F20281EC35
:1041300090E09093F5028093F40282EC90E09093EB
:10414000F7028093F60286EC90E09093F902809358
:10415000F8021092FB021092FC021092FD021092E3
:10416000FE028DE391E0909386048093850485E3BD
:1041700091E0909388048093870482EC94E00E94FD
:10418000C50B8DE291E09093E7048093E604EBEE9B
:10419000F4E083EF94E020E321938E179F07E1F78B
:1041A00085E291E090930605809305051092E10564
:1041B0001092FB041092D10527E1FE013196A2EA8C
:1041C000B4E001900D922A95E1F79A8389832196B4
:1041D0001FAE1EAE219723961FAE1EAE23972596C7
:1041E0001FAE1EAE259727961FAE1EAE2797DE0187
:1041F0001396E7E0F5E08D91819345E0E334F40711
:10420000D1F7109244051092430510924605109282
:104210004505109248051092470510924A051092E4
:10422000490585E391E09A8389838FE18A8789E153
:104230008B8781E08C878D8788E3888B8AE390E089
:104240009F878E8781E090E00E9429239C838B8347
:10425000CE0101960E940B0DCE0101960E94FC0D2D
:1042600027E4E22E24E0F22E10E0612FCE01019629
:104270000E94940C90E0F701819391937F011F5F5E
:104280001F3199F7EB847884CC84D12CF4E0CF0EE5
:10429000D11C8FE7882E83E0982E93EEA92E93E011
:1042A000B92E0E851F85F12C66246394198A1A8A0B
:1042B0001B8A1C8A1B8EEF1410F07F1410F46B8E77
:1042C00013C0C8010E94DC0B898BC80101960E94B3
:1042D000DC0B8A8BC80102960E94DC0B8B8BC80119
:1042E00003960E94DC0B8C8B3989832F90E0F401BC
:1042F000819391934F012A89822F90E091AB80ABFB
:104300009B89492F50E0F501419351935F018C89BE
:10431000482F50E051AB40ABF3940C0D1D1DF9E15B
:10432000FF12C4CF4B815C8150938A04409389046F
:104330004D8140938B044E8140938C044F81409378
:104340008D04488540938E04498540938F044A85A7
:1043500040939004E09291044C85409392044D85E3
:10436000409393044E855F85509395044093940445
:10437000488940939604309397042093980490932F
:10438000990480939A048D8980939B048E899F89D8
:1043900090939D0480939C04888D80939E04898DC6
:1043A00080939F048A8D8093A0048B8D8093A104B9
:1043B000CE0101960E94BD0E8DE291E09A83898321
:1043C000DE011696CE010E96FD0120E32193E8173B
:1043D000F907E1F78B818093E8048C819D819093AC
:1043E000EA048093E904EBEEF4E08D91819344E0DC
:1043F000E33FF407D1F78E858093F3048F85809394
:10440000F40488898093F50489898093F6048A8965
:104410008093F70489E18093F8048FE18093FA0494
:1044200081E08093F904CE0101960E94C50B8B8137
:104430008093C4048C818093C5048D818093C604CD
:104440008E818093C7048F8198859093C90480934F
:10445000C80489859A859093CB048093CA048B8580
:104460009C859093CD048093CC048D859E859093FC
:10447000CF048093CE048F8598899093D104809344
:10448000D00489899A899093D3048093D2048B892C
:104490008093D404DE015496E5EDF4E08D91819390
:1044A00084E0ED3DF807D1F78C8D8093DD048D8D90
:1044B0008093DE048E8D8093DF048F8D8093E004E3
:1044C00088A18093E10489A19AA19093E304809349
:1044D000E2048BA18093E4048CA18093E504809195
:1044E000FB0481608093FB041092FC040FEF0093A7
:1044F000D7050093D80511E01093D9051092DA057D
:104500000E941F176093DB057093DC058093DD0527
:104510009093DE051092D3051092D2051092E30518
:104520001092E2051092FD041093FE040093DF0543
:104530001093E00589EC90E0A0E0B0E08093FF04E8
:1045400090930005A0930105B093020587E894E0DD
:104550000E94FC0D80918C0490918D0498278927EE
:10456000982790939D0480939C049093EA048093F1
:10457000E90480918B048093E80482E08093F50441
:1045800083E090E090934C0580934B05CA5BDF4F2E
:104590000FB6F894DEBF0FBECDBFDF91CF911F9154
:1045A0000F91FF90EF90DF90CF90BF90AF909F90D2
:1045B0008F907F906F900895F999FECF92BD81BD45
:1045C000F89A992780B50895262FF999FECF1FBA3A
:1045D00092BD81BD20BD0FB6F894FA9AF99A0FBE2C
:1045E00001960895A1E21A2EAA1BBB1BFD010DC066
:1045F000AA1FBB1FEE1FFF1FA217B307E407F50793
:1046000020F0A21BB30BE40BF50B661F771F881F6E
:10461000991F1A9469F760957095809590959B0104
:10462000AC01BD01CF010895A29FB001B39FC001AD
:10463000A39F700D811D1124911DB29F700D811DCE
:104640001124911D0895EE0FFF1F0590F491E02DA8
:1046500009940F931F93CF93DF938230910510F449
:1046600082E090E0E091F305F091F40520E030E085
:10467000A0E0B0E0309719F14081518102811381AF
:1046800048175907C8F08417950769F4109731F057
:1046900012960C93129713961C9327C00093F30560
:1046A0001093F40522C02115310519F04217530764
:1046B00018F49A01BD01EF01DF01F801DBCF2115EC
:1046C0003105F9F0281B390B2430310580F48A813B
:1046D0009B816115710521F0FB019383828304C0E6
:1046E0009093F4058093F305FE01329644C0FE01D9
:1046F000E20FF31F8193919322503109398328836C
:104700003AC02091F1053091F205232B41F420911C
:104710000301309104013093F2052093F1052091BB
:104720000101309102012115310541F42DB73EB749
:104730004091050150910601241B350BE091F105D4
:10474000F091F205E217F307A0F42E1B3F0B281798
:10475000390778F0AC014E5F5F4F2417350748F0FA
:104760004E0F5F1F5093F2054093F1058193919393
:1047700002C0E0E0F0E0CF01DF91CF911F910F91F7
:104780000895CF93DF93009709F481C0FC0132971D
:1047900013821282A091F305B091F405109781F471
:1047A00020813181820F931F2091F1053091F20514
:1047B0002817390751F5F093F205E093F10567C02A
:1047C000ED0120E030E0CE17DF0740F44A815B8145
:1047D0009E0141155105F1F0EA01F5CFD383C28363
:1047E00040815181840F951FC817D90759F48881DA
:1047F0009981840F951F0296918380838A819B8182
:10480000938382832115310529F4F093F405E09315
:10481000F3053DC0E901FB83EA8349915991C40F37
:10482000D51FEC17FD0761F480819181840F951FDE
:104830000296E90199838883828193819B838A838D
:10484000E0E0F0E012968D919C911397009719F09B
:10485000FD01DC01F7CF8D919C9111979D012E5F99
:104860003F4F820F931F2091F1053091F2052817D9
:10487000390769F4309729F41092F4051092F30582
:1048800002C013821282B093F205A093F105DF916A
:10489000CF91089581E090E0F8940C944027FB01BB
:1048A000DC0101900D920020E1F70895AEE0B0E048
:1048B000ECE5F4E20C9417270D891E8986E08C83C1
:1048C0001A8309838FEF9FE79E838D83AE01475E36
:1048D0005F4F6F89788DCE0101960E947824EF8119
:1048E000F885E00FF11F10822E96E4E00C94332738
:1048F000ABE0B0E0EEE7F4E20C9409276C017B0139
:104900008A01FC0117821682838181FFCCC1CE010E
:1049100001963C01F6019381F70193FD859193FF88
:1049200081917F01882309F4BAC1853239F493FD5E
:10493000859193FF81917F01853229F4B60190E042
:104940000E946F26E7CF912C212C312CFFE1F3152B
:10495000D8F08B3279F038F4803279F08332A1F4D8
:10496000232D20611DC08D3261F0803369F4232D29
:10497000216016C0832D8260382EE32DE4603E2E28
:104980002AC0F32DF8601DC037FC2DC020ED280F84
:104990002A3040F08E32B9F436FC81C1232D2064D8
:1049A000322E19C036FE06C08AE0989E200D1124D2
:1049B000922E11C0EAE02E9E200D1124222EF32DFE
:1049C000F0623F2E08C08C3621F4832D8068382E8B
:1049D00002C0883641F4F70193FD859193FF8191E0
:1049E0007F018111B3CF982F9F7D9554933028F488
:1049F0000C5F1F4F9FE399830DC0833631F08337DF
:104A000071F0833509F059C021C0F8018081898394
:104A10000E5F1F4F88248394912C530113C02801EB
:104A2000F2E04F0E511CF801A080B18036FE03C0A9
:104A3000692D70E002C06FEF7FEFC5010E94642610
:104A40004C018201F32DFF773F2E16C0280122E092
:104A5000420E511CF801A080B18036FE03C0692DC2
:104A600070E002C06FEF7FEFC5010E9459264C0134
:104A7000F32DF0683F2E820133FC1BC0822D90E0A5
:104A800088169906B0F4B60180E290E00E946F2685
:104A90002A94F4CFF50137FC859137FE81915F01AF
:104AA000B60190E00E946F2621102A9421E0821A1C
:104AB00091088114910471F7E8C0843611F08936A9
:104AC00041F5F80137FE07C06081718182819381D1
:104AD0000C5F1F4F08C060817181072E000C880B8E
:104AE000990B0E5F1F4FF32DFF763F2E97FF09C0E6
:104AF00090958095709561957F4F8F4F9F4FF0688F
:104B00003F2E2AE030E0A3010E94AB26882E8618B3
:104B100045C0853731F4232D2F7EB22E2AE030E0B8
:104B200025C0932D997FB92E8F36C1F018F48835A2
:104B300079F0B5C0803719F0883721F0B0C0E92F7F
:104B4000E061BE2EB4FE0DC0FB2DF460BF2E09C087
:104B500034FE0AC0292F2660B22E06C028E030E0BD
:104B600005C020E130E002C020E132E0F801B7FEEC
:104B700007C060817181828193810C5F1F4F06C0E5
:104B80006081718180E090E00E5F1F4FA3010E9461
:104B9000AB26882E8618FB2DFF773F2E36FE0DC0E4
:104BA000232D2E7FA22E891458F434FE0BC032FC24
:104BB00009C0832D8E7EA82E05C0B82CA32C03C05F
:104BC000B82C01C0B92CA4FE0FC0FE01E80DF11DE8
:104BD0008081803321F49A2D997EA92E09C0A2FEEE
:104BE00006C0B394B39404C08A2D867809F0B394B8
:104BF000A3FC11C0A0FE06C0B21488F4280C922CAD
:104C00009B180EC0B21460F4B60180E290E00E94DE
:104C10006F26B394F7CFB21418F42B1802C0982C57
:104C2000212CA4FE10C0B60180E390E00E946F2604
:104C3000A2FE17C0A1FC03C088E790E002C088E58F
:104C400090E0B6010CC08A2D867859F0A1FE02C012
:104C50008BE201C080E2A7FC8DE2B60190E00E94E9
:104C60006F26891438F4B60180E390E00E946F2625
:104C70009A94F7CF8A94F301E80DF11D8081B60173
:104C800090E00E946F268110F5CF222009F442CED9
:104C9000B60180E290E00E946F262A94F6CFF601DA
:104CA0008681978102C08FEF9FEF2B96E2E10C94F3
:104CB0002527FC010590615070400110D8F78095C0
:104CC00090958E0F9F1F0895FC01615070400190D8
:104CD0000110D8F7809590958E0F9F1F08950F9320
:104CE0001F93CF93DF93FB01238121FD03C08FEF3F
:104CF0009FEF2CC022FF16C0468157812481358149
:104D00004217530744F4A081B1819D012F5F3F4FAB
:104D1000318320838C93268137812F5F3F4F3783E8
:104D2000268314C08B01EC01FB010084F185E02D8A
:104D30000995892BE1F6D80116968D919C911797CC
:104D4000019617969C938E931697CE01DF91CF9183
:104D50001F910F910895FA01AA27283051F12031AF
:104D600081F1E8946F936E7F6E5F7F4F8F4F9F4FFF
:104D7000AF4FB1E03ED0B4E03CD0670F781F891F41
:104D80009A1FA11D680F791F8A1F911DA11D6A0F0F
:104D9000711D811D911DA11D20D009F468943F91C2
:104DA0002AE0269F11243019305D3193DEF6CF01C1
:104DB0000895462F4770405D4193B3E00FD0C9F787
:104DC000F6CF462F4F70405D4A3318F0495D31FDF4
:104DD0004052419302D0A9F7EACFB4E0A695979547
:104DE000879577956795BA95C9F70097610571051D
:104DF00008959B01AC010A2E069457954795379567
:104E00002795BA95C9F7620F731F841F951FA01DC0
:104E100008952F923F924F925F926F927F928F925E
:104E20009F92AF92BF92CF92DF92EF92FF920F9339
:104E30001F93CF93DF93CDB7DEB7CA1BDB0B0FB643
:104E4000F894DEBF0FBECDBF09942A883988488800
:104E50005F846E847D848C849B84AA84B984C88496
:104E6000DF80EE80FD800C811B81AA81B981CE0F8D
:104E7000D11D0FB6F894DEBF0FBECDBFED01089572
:104E800010E0C3EED0E004C0FE010E94232321966F
:0A4E9000C43ED107C9F7F894FFCF24
:104E9A00010000F5058000000000007E09E7081502
:104EAA0009CB0946092409380900000000090BF951
:104EBA000900000000E50E0C0B00000000DB0B0AE5
:104ECA000B00000000BD0EC90E00000000D30EDB6F
:104EDA000E304050415244555F47424D002A00412E
:104EEA0072647543414E2047424D205374726F6D70
:104EFA002056657273696F6E20002E000D0A00201D
:104F0A0028506F733A002D00293A200020506F7301
:104F1A003A0020506F7328002F00506F727400758A
:104F2A007064617465642070696E73746174655B22
:104F3A00005D3A004576656E743A00456D706661AB
:104F4A006E675072656673003C42003E003C410049
:104F5A003C43003C45303A003C4D303A00566172C1
:104F6A006961626C652000206765737065696368B2
:104F7A00657274200050726F630070696E537461B9
:104F8A007465002573256300557365725F46756EF7
:104F9A006374696F6E3A20004F50433A00204E6F97
:104FAA0064653A002043616E49443A00204D6573B6
:104FBA007361676553697A653A0020537461746551
:024FCA003A00AB
:00000001FF
