:100000000C9473020C949B020C949B020C949B0224
:100010000C949B020C949B020C949B020C949B02EC
:100020000C949B020C949B020C949B020C946B13FB
:100030000C949B020C949B020C949B020C949B02CC
:100040000C94E71B0C949B020C9466150C944015C1
:100050000C949B020C949B020C949B020C949B02AC
:100060000C949B020C949B02CC08CF08D208D508B4
:10007000D808DB08DE08E1084641494C45442074B5
:100080006F2073656E642043414E0020005641523C
:100090005320002000200020000A4556454E5453AE
:1000A0003A0020000A4445562D4E554D42455253C4
:1000B0003A0020000A494E5445524E414C205641C8
:1000C000525320280020000A4E4F444520564152EA
:1000D000533A000A4E554D204556454E545320562E
:1000E0004152533A000A4E554D204556454E545301
:1000F0003A000A466C6167733A000A4E4E3A000AAB
:1001000043414E5F49443A004944454E543A004DFC
:10011000454D4F52592044554D500042656973700A
:1001200069656C3A203C313A523E206F646572201A
:100130003C323A313530303E0020202020202065EE
:10014000696E65205A61686C207A776973636865A7
:100150006E20353020756E64203235352066756529
:10016000722073747566656E6C6F73652056657268
:100170007374656C6C756E6720756562657220724C
:100180006F637261696C20436F64696572756E6735
:1001900020284D697474656C7374656C6C756E673A
:1001A000206C6965677420626569203135302900EB
:1001B00020202020202065696E65205A61686C200F
:1001C0007A7769736368656E2037353020756E64A1
:1001D000203235303020667565722073747566651F
:1001E0006E6C6F7365205665727374656C6C756E9A
:1001F0006720284D697474656C7374656C6C756EDA
:1002000067206C696567742062656920313530301C
:100210006D6373290020202020202027522720668C
:100220007565722072656368746520536572766FB8
:100230007374656C6C756E67002020202020202769
:100240004C272066756572206C696E6B652053655E
:1002500072766F7374656C6C756E67002020782001
:1002600069737420656E7477656465720020206E12
:10027000206973742064696520536572766F6E75AA
:100280006D6D65722028312D3329003C6E3A783E21
:100290000053657269656C6C65205374656C6C6B9A
:1002A0006F6D6D616E646F73206D697420273C27DC
:1002B00020626567696E6E656E20756E6420273EEC
:1002C00027206265656E64656E00416E6C656974B9
:1002D000756E67004C65747A746520536572766F2D
:1002E000706F736974696F6E2077696564657220D9
:1002F0006865727374656C6C656E005374617274BA
:1003000000536572766F0047657370656963686551
:1003100072746520506F736974696F6E20006D632D
:1003200073006D6373202D2000202D3E20746865BE
:100330006F72657469736368206D6178696D616C53
:10034000206D6F65676C6963683A2000536572764B
:100350006F737072656974756E673A2000417264DC
:100360007543414E2D536572766F204D6F64756CE9
:100370002056657273696F6E20006D6373003A20BA
:1003800000536572766F2000756E6775656C7469D1
:10039000676520536572766F6E756D6D6572004589
:1003A0004550524F4D2067656C6F657363687400EC
:1003B00020496E7320454550524F4D20676573703C
:1003C00065696368657274005361766520506F7368
:1003D0006974696F6E20466C61673A00757064617C
:1003E0007465536572766F002020534C20746F6FD4
:1003F000206269673A00496E7320454550524F4D5F
:10040000206765737065696368657274005361760F
:1004100065205374617475733A2000536572766F6A
:10042000200053657474696E6773766172696162E6
:100430006C652000454550524F4D2D446174656EEA
:100440003A005570646174655F7061726100536851
:100450006F72743A204576656E74002020204576D0
:10046000656E7420004C6F6E673A204E6F64654E67
:100470006F200077726974652076617220746F2036
:10048000656570726F6D0000000000240027002A6F
:100490000000000000250028002B000000000023C1
:1004A00000260029000404040404040404020202D7
:1004B00002020203030303030301020408102040A5
:1004C000800102040810200102040810200000002E
:1004D0000800020100000304070000000000000003
:1004E0000000042A002A11241FBECFEFD8E0DEBF8F
:1004F000CDBF12E0A0E0B1E0EAE7F2E602C005906D
:100500000D92AA3DB107D9F726E0AAEDB2E001C0ED
:100510001D92A830B207E1F712E0C2E7D2E004C0B2
:100520002197FE010E94FF2CC137D107C9F70E9415
:10053000311C0C9430310C9400002F923F924F925A
:100540005F926F927F928F929F92AF92BF92CF9263
:10055000DF92EF92FF920F931F93CF93DF9300D020
:1005600000D01F92CDB7DEB78091EB058F3F29F405
:100570008091EA058F3F09F44FC00E94DB1B009178
:10058000EE051091EF052091F0053091F105DC01A9
:10059000CB01801B910BA20BB30B84369105A105F7
:1005A000B105D0F180915E0590915F050597A9F4A2
:1005B0008091ED05813041F460E08091EB050E946F
:1005C000491A1092ED051EC061E08091EB050E9472
:1005D000491A81E08093ED0515C08091CC048130EB
:1005E00039F460E08091EA050E94491A61E006C092
:1005F00061E08091EA050E94491A60E08091EB0574
:100600000E94491A0E94DB1B6093EE057093EF0570
:100610008093F0059093F1058091F2058F3F09F4E6
:10062000AEC00E94201A2091F305892B81F421305D
:1006300009F0A5C00E94DB1B609360057093610503
:1006400080936205909363051092F30598C0211181
:1006500096C081E08093F3050E94DB1B009160054A
:10066000109161052091620530916305DC01CB0199
:10067000801B910BA20BB30B8C019D01095E1340F3
:10068000210931090738134121053105A8F42091CA
:10069000CC0480915E0590915F05213049F4059767
:1006A00061F583E090E090935F0580935E0567C0FD
:1006B000059709F064C0F5CF81379741A105B105D1
:1006C00008F45DC08091CC04811135C080915E0535
:1006D00090915F05059729F360E08091EA050E94FB
:1006E000491A80E00E94B31980915E0590915F05E0
:1006F000049719F40E949D02F7CF85E090E0909353
:100700005F0580935E058091FC049091FD0420E5D7
:100710002093CD049093CE048093CF041092D00404
:100720001092D1041092D2041092D3041092D404E7
:100730000E947E1824C01092CC04409108054B7F83
:10074000409308054093AE0465E170E08AE994E0C7
:100750000E94200B8091080581FF09C0809112053D
:10076000909113059093FD048093FC0406C01092B1
:10077000FD041092FC0480E090E00E949D1980919D
:100780005E0590915F05049709F07AC00E94DB1B1B
:10079000009160051091610520916205309163051B
:1007A000DC01CB01801B910BA20BB30B893E934064
:1007B000A105B10508F464C083E090E090935F0563
:1007C00080935E054091E405A5E6B5E081E08417DD
:1007D00040F02091E40530E0E4E6F5E080E090E0D0
:1007E00019C02D919FEF980F092F10E0F801EC59D7
:1007F000FA4F3081F801EB59FA4F231718F4308380
:100800009150F2CF20838F5FE2CF419159815417ED
:1008100038F0019641E0480F498382179307ACF303
:10082000898180939E04482F62E170E08AE994E018
:100830000E94200B99819093FB0480910F058823DF
:10084000F9F08091FC049091FD0422E52093CD0401
:100850009093CE048093CF041092D0041092D104D0
:100860001092D2041092D3041092D404E9816E2F16
:1008700070E080E090E02DEC34E043E00E948D17C2
:100880002DEC222E25E0322E30EF632E34E0732E35
:100890004CECA42E45E0B42E53E0C52ED12C5524AB
:1008A000539463E6862E912C109210058091580582
:1008B00090915905892B09F08BC621E030E03093E7
:1008C00059052093580580915C0590915D05181697
:1008D00019062CF0109259051092580579C680918E
:1008E0005A0590915B05CC9724F010925B0510920D
:1008F0005A05EEEBF5E0A0915A05B0915B05A85EB4
:10090000BA4F12968C91819380915A0590915B0514
:10091000019690935B0580935A0580915C059091B8
:100920005D05019790935D0580935C052E163F064B
:1009300011F71092590510925805E8EEF4E0119263
:100940006E167F06E1F71092F4041092F6041092EE
:10095000F5041092F7048091BE058093DA0480912B
:10096000C0058093F0048091C1058093F1048091CB
:10097000C2058093F2048091C3058093F304E4ECF4
:10098000F5E08191DF01AD5DB1098C93AE16BF0634
:10099000C1F78091E8048093D804843008F4B4C08F
:1009A000873009F4B1C0282F2F7B2F3309F4ACC056
:1009B00092EA980F923008F4A7C0982F9F7D9F3934
:1009C00009F4A2C0863B09F49FC08F3D09F49CC086
:1009D0003CEF380F333008F49AC038EF380F33301B
:1009E00008F495C03FED380F333008F490C08034E0
:1009F00009F48DC03CEB380F373008F488C08C34D4
:100A000009F485C0382F3F7740EA430F423008F49D
:100A10007EC0333609F47BC0903809F478C03EE7D5
:100A2000380F343008F473C0823A09F470C030E4EF
:100A3000380F323008F46BC036EA380F323008F421
:100A400069C030E7380F353008F464C038E6380F35
:100A5000333008F45FC09D59923008F45BC0982F82
:100A6000977F905B923008F455C09DE4920F9230CE
:100A700008F450C091E3980F933008F44BC09CE207
:100A8000980F923008F446C098E2980F923008F41C
:100A900041C093E2980F9230E8F190E1980F9230C4
:100AA000C8F19AE0980F9630A8F193E0980F933030
:100AB00088F194EF980F923080F190EF980F923078
:100AC00060F1823451F190EB980F9A3030F194EA52
:100AD000980F923010F191E9980F9730F0F09BE663
:100AE000980F9330D0F095E6980F9230B0F0223BFB
:100AF000A1F0253B91F09EE2980F923070F0823E7B
:100B000061F08F3E69F409C084E090E00BC081E0A1
:100B100090E008C083E090E005C082E090E002C071
:100B200080E090E09093DC048093DB048091BF052B
:100B300081115092F70480E00E94C11881FB1127B7
:100B400010F985ED94E00E949F15082F882319F075
:100B5000112309F411C585ED94E00E94B415882392
:100B6000C9F085ED94E00E94C9159A8389830097A6
:100B7000B1F0AC0160E070E08AE994E00E94F40B0F
:100B80002091A40430E0482F50E0241735070CF4DE
:100B900012C536C00023E1F01130D1F404C00023A7
:100BA00089F1113079F585ED94E00E94F4150097F4
:100BB00079F0AC0160E070E08AE994E00E94F40B07
:100BC0002091A40430E0482F50E024173507C4F4E6
:100BD00085ED94E00E94C9159A838983892B91F051
:100BE00049815A8160E070E08AE994E00E94F40B48
:100BF0002091A40430E0482F50E02417350714F06A
:100C00008F5F01C080E0809310058091F7048823F6
:100C100089F08091FC049091FD04892B59F060913A
:100C2000FB0470E080E090E02DEC34E040E00E94B6
:100C30008D173ACEE0905E05F0905F0534E0E31644
:100C4000F10401F58091DA0481112ECE2091E405A2
:100C5000233608F029CE8091F00440E1849FC00142
:100C600011249091F104929596959770892B809319
:100C7000D704E22FF0E0EC59FA4F80832F5F2093E6
:100C8000E40512CE8091DB049091DC048230910562
:100C900061F140F4019709F062C4E091E705F09139
:100CA000E8051AC0E091E505F091E605833091056D
:100CB00019F0049731F053C48091080580FD4FC4AA
:100CC0000BC08091080580FD4AC48091D80487300C
:100CD00009F06DC40C940000309709F440C468E931
:100CE00074E085ED94E009953AC41091D80485ED3F
:100CF00094E00E940F169A8389836091FC0470919E
:100D0000FD047C836B838617970771F0C7010297F8
:100D1000039750F41D3009F477C0103109F4B3C0C3
:100D2000113109F0C1CDE0C01D3509F4C1C1A0F5F4
:100D3000133509F440C178F4103109F4A4C020F44B
:100D40001D3009F0B1CD60C0113109F4CDC01234AD
:100D500009F402C1A9CD163509F456C138F4143589
:100D600009F430C1153509F442C19ECD173509F497
:100D700066C1183509F098CD1092F4058091A10450
:100D800094E79093CD049C819093CE04EB81E09303
:100D9000CF048093D004D8C3153909F424C210F5C8
:100DA000123709F4A9C120F4113709F48DC17CCDA3
:100DB000133709F4D1C1153709F076CD1092F40537
:100DC00083E68093FB0480939E0443E662E170E037
:100DD0008AE994E00E94200B8091FC049091FD042C
:100DE00022E5AAC3123B09F4E2C238F4163909F429
:100DF0002BC21C3909F4ADC257CD123D09F40BC307
:100E0000153F09F4FFC250CD8B819C81892B09F4D9
:100E10004BCD1092F4058091FB0490E0EB81FC81B6
:100E2000E817F90731F09093FD048093FC040E94C9
:100E30009D19809108059091070520910605309134
:100E4000FC044091FD04F6EBF093CD044093CE04F6
:100E50003093CF042093D0049093D1048093D20494
:100E60005092D30428E02093D4046B817C81660FD8
:100E7000771F4B815C81460F571FBA0180E090E0DD
:100E80000E94A11B92C01092F4058091FB0490E097
:100E90006B817C816817790731F09093FD04809312
:100EA000FC040E949D1980915E0590915F05059755
:100EB00009F0FACCEDECF4E085ED94E011928E1798
:100EC0009F07E1F780910A0590910D0520910C058F
:100ED00030910B0540910705509109056091060579
:100EE0007FEE7093CD0427C01092F4058091FB042F
:100EF00090E0EB81FC81E817F90731F09093FD0455
:100F00008093FC040E949D1980915E0590915F057D
:100F1000059701F580910405909103052091020544
:100F200030910105409100055091FF046091FE044D
:100F3000F2EEF093CD046093CE045093CF0440932F
:100F4000D0043093D1042093D2049093D30480939F
:100F5000D4042BC083E08AC01092F40525E0E21689
:100F6000F104C1F785ED94E00E940F169093FD0403
:100F70008093FC040E949D198091FC049091FD04D3
:100F800022E52093CD049093CE048093CF04109259
:100F9000D0041092D1041092D2041092D304109273
:100FA000D404D0925F05C0925E050E947E1888230B
:100FB00009F47ACCD4C21092F40510925F05109215
:100FC0005E0572CC1092F4058091FB0490E04B8199
:100FD0005C814817590731F09093FD048093FC041D
:100FE0000E949D19D0925F05C0925E05AFC1EF28A7
:100FF00009F05ACC40E067E170E08AE994E00E9491
:10100000200B1092A10450CC1092F40580910B0596
:101010009091A104891B90E79093CD045C8150933B
:10102000CE046B816093CF048093D0041092D104DE
:101030001092D2041092D3041092D404B6CF10921E
:10104000F4050091A104002309F42ECCEC8010E0FB
:1010500082EFF82E011709F427CC812F0E944F163A
:10106000FC018091B404882321F08AE00E94AF182B
:101070001BCC8381928121813081F092CD04E0925A
:10108000CE047B817093CF043093D0042093D1049D
:101090009093D2048093D3041093D4040E947E18BA
:1010A000882321F088E790E00E94B6161F5FD2CF18
:1010B00029813A814B815C812417350709F0F4CBF3
:1010C00081E00E94B319F0CB1092F4051091EB046B
:1010D0008FEF810F0E94C1189091B4049111C5CF78
:1010E00097E99093CD045C815093CE046B8160931B
:1010F000CF041093D00474C01092F405EDECF4E02A
:1011000085ED94E011928E179F07E1F70E946F1909
:10111000182F8FEF810F0E944F16FC018091B404AD
:10112000882311F086E0A2CF8381928121813081D2
:1011300042EF4093CD047C817093CE04EB81E09329
:10114000CF043093D0042093D1049093D2048093A1
:10115000D3041093D40400C21092F4059091EB04D0
:1011600091110FC08BE98093CD04FC81F093CE04E4
:101170002B812093CF041092D00438E03093D10417
:10118000E5C1492F50E0FA013197E830F105E0F46C
:10119000EC5CFF4F0C94FF2C8091060516C08091EB
:1011A000090513C08091070510C080910B050DC083
:1011B00080910C050AC080910D0507C080910A0539
:1011C00004C08091080501C080E02BE92093CD0484
:1011D0004C814093CE045B815093CF049093D00414
:1011E0008093D104B3C11092F40585ED94E00E9480
:1011F000F4159A83898385ED94E00E940F16498146
:101200005A81BC018AE994E00E94F40B8983109210
:101210006405109265051092660510926705482FC7
:1012200064E675E08AE994E00E94330C69816813F2
:1012300079CF70E020E040E08AE994E00E94780BEA
:10124000882309F431CB11CF8091F40581112CCB87
:101250001091EB047FEF710F7B838091EC04898305
:101260007130F9F48E3F81F48AE994E00E94B40C65
:101270005092F4059092FD048092FC0483E690E085
:101280000E949D1993E69983E981E093FB04E09322
:101290009E044E2F62E170E08AE994E00E94200BE8
:1012A00021C0FB81FC3021F429812E7F29831AC0C3
:1012B0003B81313139F0323169F0333171F0343101
:1012C00079F002C019820EC04B81453159F481E09A
:1012D000898308C052E3598305C062E3698302C071
:1012E00071E0798380910D059B818917F0F0498128
:1012F000692F8AE994E00E94A60B8091FC049091EA
:10130000FD0429E52093CD049093CE048093CF046F
:101310001092D0041092D1041092D2041092D304EF
:101320001092D4040E947E1806C0EB81EF3F19F0A2
:1013300089E00E94AF188B8165E00E94DF2C9350FA
:10134000923020F4125010931105AECA509211053C
:10135000ABCA1092F4050E946F198B830E94861904
:10136000898380910C05F9818F1708F47ECE4F2F69
:1013700041506B8161508AE994E00E94D60B9091B4
:10138000B404911172CE9091FC042091FD0435EBD0
:101390003093CD042093CE049093CF042B812093DF
:1013A000D00439813093D1048093D204D1C01092FB
:1013B000F405EF2871F50E948619182F0E944F1628
:1013C0009A83898340E0612F8AE994E00E94D60BDA
:1013D0009091B4049111A6CEE981FA819381228182
:1013E0003181408153ED5093CD044093CE0430932E
:1013F000CF042093D0049093D1041093D20480930F
:10140000D304A8C08091F40581114ECAEF2809F4D5
:1014100053C082E02BCE8091F405811145CA85ED41
:1014200094E00E94F4158D83F92E0E9486198B8317
:10143000E090EE04FA81F09364052981209365051C
:10144000F09266053D813093670587E10E94C118DF
:101450008B818450843020F09B819D50943048F4DF
:101460000E944F16FC0120812093640581818093A6
:1014700065058B818B7F833051F497E290936405EF
:101480008FE08093650590936605809367054B8197
:1014900064E675E08AE994E00E94330CFB81F8135E
:1014A00041CE6F2F70E02E2D40E08AE994E00E943B
:1014B000780B8111DACD3BC085ED94E00E94F415E4
:1014C000F82EE92E0E9486198B834090EF040E942B
:1014D0006F198D832A8120936405398130936505C6
:1014E000E0926605F0926705482F415064E675E08A
:1014F0008AE994E00E94330C682F70E04D81842FBC
:1015000090E001976817790709F00CCE4B814150A4
:10151000242D8AE994E00E94780B90E07B81672F6C
:1015200070E0615071098617970709F09ECD809190
:10153000FC049091FD0429E52093CD049093CE0402
:101540008093CF041092D0041092D1041092D20450
:101550001092D3041092D4040E947E18A5C9E09181
:10156000E505F091E605309709F49EC968E974E055
:1015700085ED94E0099598C985ED94E00E94F415F5
:101580009A83898385ED94E00E940F1649815A81E0
:10159000BC018AE994E00E94F40B2091A40430E09D
:1015A000482F50E0241735070CF4D5CA29CB8E35C7
:1015B00009F490CB91CB002309F412CB113009F43C
:1015C000F2CA85ED94E00E94C9159A83898308CBFD
:1015D00080E00F900F900F900F900F90DF91CF91C0
:1015E0001F910F91FF90EF90DF90CF90BF90AF9041
:1015F0009F908F907F906F905F904F903F902F9033
:1016000008950C94B12D0C94B12DFC0184E591E06A
:1016100091838083DF015396CF014B961D92A817CB
:10162000B907E1F7138E148E158E168E178E11A240
:1016300010A212A2089508950C94A02C0C94982C3A
:10164000CF92DF92EF92FF921F93CF93DF937C01B3
:101650006B01142FCB010E941E0B811721F0612F0B
:10166000C6010E941C0BF701838590E00496228539
:10167000289FE001299FD00D112485859685C80FEC
:10168000D91FC535F1E0DF075CF5CC0DDD1DCE01BE
:101690000E941E0B181721F0612FCE010E941C0B17
:1016A000F701838590E004964285489F9001499F09
:1016B000300D112485859685820F931FC80FD91F81
:1016C000CE010E941E0B181759F0612FCE01DF9139
:1016D000CF911F91FF90EF90DF90CF900C941C0B57
:1016E000DF91CF911F91FF90EF90DF90CF90089501
:1016F000CF93DC01942F17964C91179750E0641705
:10170000750718F081E0890F1FC01B96EC911B979D
:101710009E17C0F7422FC92FCD01F0E03496E69F07
:10172000D001E79FB00DF69FB00D1124FC01258577
:101730003685BD01620F731FEC2FF0E034966E0FFB
:101740007F1F0E94200B8C2FCF910895EF92FF9264
:101750001F93CF93DF93FC012185261708F1142FE7
:101760007C01C62FD0E0FE01EE0FFF1FE859FB4FB2
:10177000842F90E0918380836996CE010E941E0B96
:10178000181771F083E794E00E94B616412FBE014E
:10179000C701DF91CF911F91FF90EF900C94200B28
:1017A000DF91CF911F91FF90EF900895FC01128E71
:1017B00087816817B0F42385421798F430E02C5FD6
:1017C0003F4F629FD001639FB00D112485859685A0
:1017D0008A0F9B1F50E04C5F5F4F840F951F0C9446
:1017E0001E0B8FEF828F0895EF92FF920F931F933E
:1017F000CF93DF93DC01252F3327862FC72FDD27DB
:101800001C2F17960C911797E0E2F4E090E07727F1
:1018100055270917D9F0111102C0882351F0E08033
:10182000F180CE15DF0579F4E288F3886E157F0527
:1018300051F4E4A0F5A02E153F0529F4E6A8F7A879
:101840004E155F0541F09F5F3296E3CF1A969C914B
:1018500081E0890F01C0892FDF91CF911F910F91F6
:10186000FF90EF900895AF92BF92CF92DF92EF92E8
:10187000FF921F93CF93DF93DC011A969C911A97E6
:10188000491718F081E0890F4EC0142FFB017D012C
:10189000242F30E0D901AA0FBB1FA05EBB4F80816F
:1018A00090E08D939C93D901AA0FBB1FAE5CBB4FF8
:1018B000818190E08D939C93D901AA0FBB1FAC5BF3
:1018C000BB4F828190E08D939C93D901AA0FBB1FDF
:1018D000AA5ABB4F838190E08D939C93D7011B96AE
:1018E0008C911B9790E00496829F6001839FD00C9F
:1018F000929FD00C11241D968D919C911E97C80E1D
:10190000D91E5B01B4E0AB0EB11CEB01C61AD70ABD
:10191000B6016C0F7D1F4991C7010E94200BCA15AB
:10192000DB05B1F7812FDF91CF911F91FF90EF90F1
:10193000DF90CF90BF90AF900895FC0180E090E0E1
:10194000238530E0821793073CF4A281B381A80F6E
:10195000B91F1C920196F4CF83E68483158287EC2D
:1019600086831782148A0895CF92DF92EF92FF92B6
:101970000F931F93CF93DF9300D000D0CDB7DEB786
:101980008C010E949D0CF8018285878319821A823E
:1019900082E48B838CEC8C8394E0C92ED12CE12CD7
:1019A000F12C4E2DBE016F5F7F4FC8010E94330C9A
:1019B00020E040E0B701C8010E94780B8C818F5F66
:1019C0008C83811103C08B818F5F8B834C2DBE0173
:1019D0006F5F7F4FC8010E94330C20E040E0B601EA
:1019E000C8010E94780B8C818F5F8C83811103C0AA
:1019F0008B818F5F8B83FFEFEF1AFF0A8FEFC81A7F
:101A0000D80AE3E0EE16F10461F697E299838FE0DD
:101A10008A839B838C8343E0BE016F5F7F4FC80145
:101A20000E94330C20E040E063E070E0C8010E94B7
:101A3000780B48E0BE016F5F7F4FC8010E94330CF6
:101A400020E040E068E070E0C8010E94780B198255
:101A50001A8282E18B8387E68C8348E0BE016F5F48
:101A60007F4FC8010E94330C20E040E068E070E046
:101A7000C8010E94780B42E060E0C8010E94A60BFA
:101A800043E661E0C8010E94A60B83E0F82EC12C5A
:101A9000D12CF2E0CF16D10419F440E06CE003C081
:101AA00041E06FEF6F0DC8010E94A60B4BE46F2D54
:101AB000C8010E94A60B8FEFC81AD80A61E06F0D0B
:101AC00041EEC8010E94A60B62E06F0D4DE0C80117
:101AD0000E94A60B63E06F0D4DE0C8010E94A60BAB
:101AE000E5E0FE0EF2E1FF12D4CF40E061E1C80173
:101AF0000E94A60B42E362E1C8010E94A60B42E3EA
:101B000063E1C8010E94A60B41E064E1C8010E94A4
:101B1000A60B41E065E1C8010E94A60B40E067E129
:101B2000C8010E94A60B40E066E1C8010E94A60B16
:101B30004CE560E070E0C8010E94200BF801448190
:101B400062E170E0C8010E94200BF801458163E169
:101B500070E0C8010E94200BF801468164E170E04A
:101B6000C8010E94200BF801448965E170E0C801BA
:101B70000E94200BF801478167E170E0C8010E94D4
:101B8000200BF801438568E170E0C8010E94200B3A
:101B900060E08DEF93E00E941C0B60E08EEF93E01D
:101BA0000E941C0B60E08FEF93E00E941C0BC801A9
:101BB0000E94E70D0F900F900F900F90DF91CF9143
:101BC0001F910F91FF90EF90DF90CF9008955F925B
:101BD0006F927F928F929F92AF92BF92CF92DF923D
:101BE000EF92FF920F931F93CF93DF93EC010E942C
:101BF0009D0C8B8590E004962A85289F7001299F73
:101C0000F00C11248D859E85E80EF91E85E5E816F9
:101C100081E0F8060CF06AC08FEF93E00E941E0B83
:101C2000782E8EEF93E00E941E0B182F8DEF93E01D
:101C30000E941E0B711681F0781681F0181306C0F1
:101C4000612F8EEF93E00E941C0B712E5701AA0C9E
:101C5000BB1C00E010E024C07816C1F3672D8FEFA5
:101C600093E00E941C0BF2CFC8010E941E0B682E4D
:101C700048018E0C9F1CC4010E941E0B582E65014A
:101C8000C00ED11EC6010E941E0B651491F0681291
:101C90000BC0662DC4010E941C0B73940F5F1F4F75
:101CA0000E151F050CF30DC05812F8CF652DC80195
:101CB000F2CF681699F37394662DC6010E941C0B2F
:101CC000EDCF8FEF93E00E941E0B781679F0672D11
:101CD0008DEF93E00E941C0B672D8EEF93E00E9426
:101CE0001C0B672D8FEF93E00E941C0B80E090E0AF
:101CF0000E941E0B8C3519F0CE010E94B40C82E1BB
:101D000090E00E941E0B8C8383E190E00E941E0BEA
:101D10008D8384E190E00E941E0B8E8385E190E02C
:101D20000E941E0B8C8B87E190E00E941E0B8F831C
:101D3000DF91CF911F910F91FF90EF90DF90CF90A7
:101D4000BF90AF909F908F907F906F905F9008951D
:101D50002CE631E0FC01318320838281938100975E
:101D600011F00C94B12D0895CF93DF93EC010E94F4
:101D7000A80ECE01DF91CF910C94B12D24E731E074
:101D8000FC0121933193CF010C94A80ECF93DF93E4
:101D9000EC010E94BE0ECE01DF91CF910C94B12DCB
:101DA00008952F923F924F925F926F927F928F92FF
:101DB0009F92AF92BF92CF92DF92EF92FF920F93DA
:101DC0001F93CF93DF9300D000D01F92CDB7DEB723
:101DD00080E00E94C118482E869581708093DA02B7
:101DE00081E0809339036BEDC62E62E0D62E76013A
:101DF0001B821A8200E010E0802F0E944F16FC0127
:101E000082819381982789279827F701819391935D
:101E10007F01C80101962A813B812F5F3F4F3B83A1
:101E20002A832930310549F02A813B812830310548
:101E300011F4C80102968C01DFCF87E10E94C1181E
:101E400081E08093280308EF12E01D830C83662451
:101E50006394712C43E0542EE12CF12C812C912CB5
:101E600054018394852D0E94D31890E0EC81FD816C
:101E70009783868320843184F1E0F50DF9838F2FD9
:101E80000E94D31890E02816390601F189810E943A
:101E9000D31890E0EC81FD8191878087C701880F7E
:101EA000991FA501940104C0220F331F441F551F21
:101EB0008A95D2F7DA01C9012091ED023091EE0244
:101EC000822B932B9093EE028093ED0217013FEF4C
:101ED000231A330AEC81FD810284F385E02DFB8314
:101EE000EA83F2E0F50DF9838F2F0E94D31890E07A
:101EF0002A813B8128173907E1F089810E94D31894
:101F000090E0EC81FD81938782872091ED023091F2
:101F1000EE02D501C401062C04C0880F991FAA1F28
:101F2000BB1F0A94D2F7822B932B9093EE028093DF
:101F3000ED0283E0850D0E94D31890E0EC81FD81D5
:101F40009587848784E0850D0E94D31890E0EC810A
:101F5000FD8197878687852D0E94D3182091F702EF
:101F600082FF0CC0D501C4010E2C04C0880F991F3C
:101F7000AA1FBB1F0A94D2F7822B0CC0D501C40143
:101F80000E2C04C0880F991FAA1FBB1F0A94D2F7FA
:101F9000809582238093F702852D0E94D31820918B
:101FA000F30280FF0BC0D501C40104C0880F991F44
:101FB000AA1FBB1FEA94D2F7822B0BC0D501C40124
:101FC00004C0880F991FAA1FBB1FEA94D2F78095FF
:101FD00082238093F30255E0550E8C819D810A96F1
:101FE0009D838C8392E0690E711CE2E15E1611F014
:101FF000710138CF8091ED029091EE02892B09F0AA
:1020000061C020911105223008F46CC02231D1F05A
:1020100040F4283099F0213199F02730C1F428E0BC
:1020200016C02C3189F020F42B3189F42CE10FC03B
:10203000253261F0263259F425E209C027E007C0B5
:1020400022E105C021E103C02BE101C026E230E01E
:1020500022503109C90165E070E00E94EB2C660F47
:10206000771F21703327260F371F81E090E0A0E013
:10207000B0E004C0880F991FAA1FBB1F2A95D2F792
:102080009093EE028093ED02809128038823A1F0C3
:1020900082E494E00E949B166AE070E08091ED0279
:1020A0009091EE020E94D6188EE792E00E942919C4
:1020B000809111050E943F198091ED029091EE02EE
:1020C000892B81F080913F0390914003A0914103BF
:1020D000B09142038093EF029093F002A093F1023B
:1020E000B093F2021092110580912803882309F41D
:1020F00083C083EA91E00E944F1984E394E00E9438
:10210000B61682E294E00E949B16842D0E943F192D
:102110001B821A828BE194E00E949B16EA80FB806E
:10212000FFEFEF1AFF0A6AE070E0C7010E94D618BD
:102130008DE792E00E942919F601819191916F013A
:102140000E942B198EE792E00E942919F6018681E0
:1021500097810E942B198EE792E00E9429196AE06C
:1021600070E0F801868197810E94D6188EE792E090
:102170000E9429196AE070E0F801808591850E942B
:10218000D6188EE792E00E9429196AE070E0F80103
:10219000828593850E94D6188EE792E00E942919C5
:1021A0006AE070E0F801848595850E94D6188EE774
:1021B00092E00E9429196AE070E0F801868597850F
:1021C0000E94D6188EE792E00E9429198091F702AA
:1021D00090E00A8002C0959587950A94E2F7817095
:1021E00099270E941919065F1F4FFB82EA82970107
:1021F0002330310509F08ECF0F900F900F900F9084
:102200000F90DF91CF911F910F91FF90EF90DF9092
:10221000CF90BF90AF909F908F907F906F905F9086
:102220004F903F902F90089580912803882351F07C
:102230008DE094E00E949B168091260390912703E5
:102240000E94191986E10E94C118409126035091FD
:10225000270390E08417950789F080910D0586315A
:1022600028F066E18AE994E00E94A60B8091280399
:10227000882321F086EF93E00E94B61681E08093D8
:102280003A030895AF92BF92CF92DF92EF92FF92FE
:102290000F931F93CF93DF93EC017B01FB01E85871
:1022A000FF4F108180912803882309F482C180E8C0
:1022B00092E00E942919812F0E943F19112309F4ED
:1022C0007AC180912803882309F443C080E992E011
:1022D0000E942919812F0E943F198CE992E00E94E7
:1022E0002919CE010E94B41597012E5F3F4F690155
:1022F000882339F0CE010E94C915AC0160E070E07E
:1023000009C0CE010E94F4155C01CE010E940F1697
:10231000A501BC01C6010E94F40BF701ED58FF4F67
:102320009081891730F440E0682FC6010E94D60BD7
:1023300001C080E00E943F1987EA92E00E942919BB
:102340006AE070E08B810E94311983EA91E00E947B
:102350004F198B81982F977F903919F091E0813038
:1023600009F490E08FEF810F893008F0A9C1409106
:102370003F035091400360914103709142034093A9
:102380003B0350933C0360933D0370933E031092D4
:102390003A0320912803883009F064C0222321F0F9
:1023A0008DEA92E00E944F19E2E3EE2EE3E0FE2E6A
:1023B00004EF12E0C0E0D0E0F4E0AF2EB12CA8E1D1
:1023C000CA2EA5E1DA2EE0912603F09127030C2E08
:1023D00002C0F595E7950A94E2F7E170FF27EA0D50
:1023E000FB1DEE0FFF1FE850FD4F8081918174E0CF
:1023F000880F991F7A95E1F7A601481B590BF70141
:1024000051834083F801108221968091280388230C
:10241000E1F086E292E00E9429196AE070E0CE01C4
:102420000E94D6188EE792E00E9429196AE070E0B7
:10243000F701808191810E94D6188EE792E00E9478
:102440002919F80180810E943F19F5E0AF0EB11CF7
:1024500022E0E20EF11C0F5F1F4FC330D10509F0DF
:10246000B2CF2EC1913031F483E0810F893010F06A
:1024700082E0810FE0912603F0912703982F977057
:102480009430A8F0845041E050E060E070E0082E05
:1024900004C0440F551F661F771F0A94D2F7E42B20
:1024A000F52BF0932703E0932603E1E018C0883072
:1024B00008F0845041E050E060E070E0082E04C075
:1024C000440F551F661F771F0A94D2F74095509509
:1024D0004E235F235093270340932603E0E0082F09
:1024E00010E0E801CC0FDD1FDE01AE5CBC4FF0E078
:1024F00035E0839FE00DF11D1124EE0FFF1FE0502A
:10250000FD4F6081718154E0660F771F5A95E1F7A6
:1025100048E155E1461B570B4D935C934091F70200
:1025200050E0BA0102C0759567958A95E2F7F80107
:10253000EC50FD4F7F0160FF03C085E0808301C048
:102540001082222309F4BCC086E292E00E9429197D
:102550006AE070E0C80101960E94D6188EE792E00A
:102560000E942919FE01EE5CFC4F6AE070E0808158
:1025700091810E94D6188EE792E00E942919C45DCD
:10258000DC4F6AE070E0888199810E94D6188EE75E
:1025900092E00E942919F7018081DF91CF911F916C
:1025A0000F91FF90EF90DF90CF90BF90AF900C9481
:1025B0003F191111CECE8B81883011F40E94141175
:1025C00080912803882309F47BC0CE010E949F15C7
:1025D000882389F085E694E00E949B16CE010E9434
:1025E0000F160E942B198BE594E00E949B16CE01DA
:1025F0000E94F4150CC0CE010E94B4158823B9F0D6
:102600008EE494E00E949B16CE010E94C9150E94A0
:102610002B1981EA91E0DF91CF911F910F91FF90EB
:10262000EF90DF90CF90BF90AF900C94891687EA1F
:1026300092E00E94291960E170E08B810E943119BB
:1026400081EB92E00E942919CE010E940F160E9490
:102650002B1989EB92E00E9429192B8DF0E12F9F15
:10266000900111248C8D829586958770822B8A83A8
:102670006AE070E00E94311982EC92E00E94291910
:102680008B8990E025E0959587952A95E1F78C83D5
:102690006AE070E00E94311981ED92E00E942919F0
:1026A00080915E0590915F05DF91CF911F910F9111
:1026B000FF90EF90DF90CF90BF90AF900C941919DE
:1026C000DF91CF911F910F91FF90EF90DF90CF900E
:1026D000BF90AF9008951F920F920FB60F921124E2
:1026E0002F933F934F935F938F939F93AF93BF939A
:1026F00080918103909182030097F9F420912C033B
:1027000030912D0380917F0390918003820F931F5E
:102710009093800380937F0380912903882321F085
:10272000283833410CF485C020918800309189000D
:1027300080912C0390912D033AC081309105C9F40A
:10274000299880912E0390912F0320917F0330913F
:102750008003280F391F3093800320937F0320913B
:102760002A03222301F1883823E192070CF463C085
:102770001AC0029761F52A98809130039091310335
:1027800020917F0330918003280F391F30938003FD
:1027900020937F0320912B03222329F0883823E103
:1027A00092070CF44AC02091880030918900820F72
:1027B000931F90938900809388008091810390916A
:1027C00082030196909382038093810338C05B98C3
:1027D00040917F0350918003403583EC580788F483
:1027E000209188003091890080E593ECA0E0B0E072
:1027F000841B950BA109B109880F991F820F931FA4
:1028000006C080918800909189008A569F4F9093CE
:102810008900809388001092800310927F031092A9
:10282000820310928103809138038F5F8093380375
:1028300006C0299A79CF2A9AB6CF5B9AB4CFBF91B6
:10284000AF919F918F915F914F913F912F910F90F9
:102850000FBE0F901F901895CF92DF92EF92FF92CC
:102860000F931F93CF93DF936C017A018B01C0E02C
:10287000D0E0CE15DF0581F0D8016D918D01D60134
:10288000ED91FC910190F081E02DC6010995892B15
:1028900011F02196EECF7E01C701DF91CF911F91FC
:1028A0000F91FF90EF90DF90CF900895089580E012
:1028B00090E00895FC01538D448D252F30E0842F46
:1028C00090E0821B930B541710F0CF960895019758
:1028D0000895FC01918D828D981761F0828DDF0142
:1028E000A80FB11D5D968C91928D9F5F9F73928F03
:1028F00090E008958FEF9FEF0895FC01918D828DF8
:10290000981731F0828DE80FF11D858D90E00895C4
:102910008FEF9FEF0895FC01918D228D892F90E01C
:10292000805C9F4F821B91098F739927089583E8DC
:1029300093E00E948B1421E0892B09F420E0822F80
:102940000895FC01848DDF01A80FB11DA35ABF4F6C
:102950002C91848D90E001968F739927848FA6899E
:10296000B7892C93A089B1898C91837080648C93F2
:10297000938D848D981306C00288F389E02D8081A1
:102980008F7D80830895EF92FF920F931F93CF93D3
:10299000DF93EC0181E0888F9B8D8C8D981305C0AF
:1029A000E889F989808185FD26C0F62E0B8D10E01F
:1029B0000F5F1F4F0F731127E02E8C8DE8120CC094
:1029C0000FB607FCFACFE889F989808185FFF5CF3A
:1029D000CE010E94A114F1CF8B8DFE01E80FF11DF5
:1029E000E35AFF4FF0829FB7F8940B8FEA89FB8977
:1029F000808180620AC09FB7F894EE89FF89608366
:102A0000E889F98980818370806480839FBF81E039
:102A100090E0DF91CF911F910F91FF90EF9008957B
:102A2000CF93DF93EC01888D8823C9F0EA89FB8975
:102A3000808185FD05C0A889B9898C9186FD0FC06C
:102A40000FB607FCF5CF808185FFF2CFA889B98941
:102A50008C9185FFEDCFCE010E94A114E7CFDF91CD
:102A6000CF91089580E090E0892B29F00E9497147F
:102A700081110C94000008950E943A2E0C94B12DFF
:102A80001F920F920FB60F9211242F933F934F93E3
:102A90005F936F937F938F939F93AF93BF93EF93C6
:102AA000FF9383E893E00E94A114FF91EF91BF91FF
:102AB000AF919F918F917F916F915F914F913F91D6
:102AC0002F910F900FBE0F901F9018951F920F928D
:102AD0000FB60F9211242F938F939F93EF93FF9331
:102AE000E0919303F09194038081E0919903F09138
:102AF0009A0382FD12C0908180919C038F5F8F7337
:102B000020919D03821751F0E0919C03F0E0ED5776
:102B1000FC4F958F80939C0301C08081FF91EF91C2
:102B20009F918F912F910F900FBE0F901F9018952E
:102B30008EBD00000DB407FEFDCF8EB50895FC01DB
:102B40009381892F8F7D8059823058F080E3890FDF
:102B5000823038F081E0903F31F0913F21F080E009
:102B6000089581E008950895FC019381892F8F7D58
:102B70008859823058F088E2890F823038F081E03D
:102B8000983F31F0993F21F080E0089581E0089569
:102B90000895FC0193819B35C1F088E6890F83304D
:102BA000A0F0892F8F798D59823078F088E4890FD1
:102BB000823058F088E2890F823038F088E0890F3F
:102BC000843018F080E090E0089586E0890F82302C
:102BD00010F09B3519F48489958902C086899789FC
:102BE0009827892798270895FC019381292F2F7B07
:102BF0002059263070F080E5890F853050F080E153
:102C0000890F823030F0935F933018F080E090E0CD
:102C10000895868997899827892798270895FC0120
:102C200093899234A9F180EB890F8B3088F184EA83
:102C3000890F823068F181E9890F873048F180E798
:102C4000890F8F3028F180E5890F873008F188E4FB
:102C5000890F8230E8F0292F2F7B2D5B2230C0F0C6
:102C600080E3890F8630A0F088E2890F823080F0FF
:102C700083E2890F823060F0933E51F080E1890F4A
:102C8000823030F0935F973018F080E090E0089544
:102C900084899589982789279827089508951092FF
:102CA000AA041092AB041092AC041092AD041092DE
:102CB000B4049091A404981720F09091A10498175F
:102CC00020F481E08093B40421C090E0FC01EE0F79
:102CD000FF1FE05EFB4F20812093AA04FC01EE0F52
:102CE000FF1FEE5CFB4F20812093AB04FC01EE0F35
:102CF000FF1FEC5BFB4F20812093AC04880F991FD2
:102D0000FC01EA5AFB4F80818093AD048AEA94E08B
:102D10000895009769F0FC0101900020E9F73197D0
:102D2000AF01481B590BBC0183E893E00C942C14B1
:102D300080E090E008950F931F93CF93DF938C0171
:102D4000C0E0D0E0F801EC0FFD1F6491662341F074
:102D500083E893E00E94C314892B11F02196F2CFEF
:102D6000CE01DF91CF911F910F910895CF93DF9303
:102D70000E949B16EC0181EA91E00E9489168C0F5B
:102D80009D1FDF91CF9108951F93CF93DF93182F4D
:102D9000C8E9D4E060E08DA50E94491A83E00E9452
:102DA0009815812F0E94981580E00E949815182F81
:102DB00061E08DA50E94491A812FDF91CF911F916B
:102DC0000895FF920F931F93CF93DF93F82E062F52
:102DD000142FC8E9D4E060E08DA50E94491A85E06F
:102DE0000E9498158F2D0E949815802F0E9498158B
:102DF000812F0E94981561E08DA5DF91CF911F91E1
:102E00000F91FF900C94491AFF920F931F93CF9349
:102E1000DF93C82FF62E072F142F60E08091C50492
:102E20000E94491A82E00E9498158C2F0E949815E2
:102E3000CF2DD02FCE01810F911D8C01C017D1074E
:102E400021F089910E949815F9CF61E08091C50425
:102E5000DF91CF911F910F91FF900C94491A0F931E
:102E60001F93CF93DF93082F162FC8E9D4E060E0BB
:102E70008DA50E94491A82E00E949815802F0E9419
:102E80009815812F0E94981561E08DA5DF91CF9153
:102E90001F910F910C94491A8F929F92AF92BF92FB
:102EA0000F931F93CF93DF93CDB7DEB7A1970FB6E4
:102EB000F894DEBF0FBECDBF19A2423008F44AE03D
:102EC0008E010F5D1F4F842E912CA12CB12CA501DA
:102ED00094010E94AE2CE62FB901CA0101501109DC
:102EE000EA3014F4E05D01C0E95CD801EC93232BD7
:102EF000242B252B61F7C8010E948916A1960FB6D5
:102F0000F894DEBF0FBECDBFDF91CF911F910F911F
:102F1000BF90AF909F908F9008954F925F926F9265
:102F20008F929F92AF92BF92CF92DF92FF920F93B8
:102F30001F93CF93DF9300D000D0CDB7DEB71092B0
:102F4000B5046093B6047093B7048093B80490936B
:102F5000B904493008F048E04093BA041092C30421
:102F6000ABEBB4E0F90150E0CF01821B930B841767
:102F700095071CF481918D93F7CFA12CB12C409033
:102F800078015090790160907A014E0124E0820E20
:102F9000911C49825A826B82CE0101966C01F82EF7
:102FA0000D2DF60111916F01812F0E94C416982FEB
:102FB000987083FD02C01F5F05C08C149D0489F7C3
:102FC00010E092E0FFEFAF1ABF0A923029F422E33B
:102FD000A216B104F1F67CC082E3A816B10409F48C
:102FE00077C04091BA046BEB74E085E0810F0E94DA
:102FF00004178091C304813029F48091BA0480645D
:103000008093BA046091BA0484E0810F0E942F1764
:103010004091B6045091B7046091B8047091B9041E
:103020008091B5048130B1F44C835B83AB0166279A
:103030007727942F9C71842F8370E8E09E9F800DEA
:10304000112488608A8365E0569547956A95E1F773
:1030500049830DC0CA0123E0969587952A95E1F72B
:1030600089834295440F407E4A831C821B8244E040
:103070006F2D702F812F0E940417115048E068E0D7
:10308000812F0E94E116C12CD12CFFEFCF1ADF0A4D
:10309000812F0E94C41683FF05C022E3C216D1040B
:1030A000A1F718C082E3C816D104A1F01092B604AB
:1030B0001092B7041092B8041092B9041092BA0496
:1030C0001092B5041092C3041092C40480E003C0AF
:1030D00086E001C087E00F900F900F900F90DF9176
:1030E000CF911F910F91FF90DF90CF90BF90AF9045
:1030F0009F908F906F905F904F900895CF93DF9344
:10310000C091CD04C63B21F0C295C695C77001C0E1
:10311000C7E0CF5F81E08093CA048093CB046091C5
:10312000FB0470E080E090E02DEC34E04C2F0E9436
:103130008D17811102C080E00FC0D3E06091FB04C5
:1031400070E080E090E02DEC34E04C2F0E948D1771
:10315000882389F3D15091F7DF91CF910895E8E961
:10316000F4E0ACEFB4E09C9111962C913FE635ABC6
:1031700026AB97AB80AF11AE12AE13AE14AE0C946B
:103180007E181092B4049091A304891720F08FEF59
:103190008093B4040895E82FF0E0EE0FFF1FE85984
:1031A000FB4F8081089581500C94C118CF92DF921B
:1031B000EF92FF92CF93DF936115710559F4682F59
:1031C00083E893E0DF91CF91FF90EF90DF90CF9075
:1031D0000C94C3146C01990FEE08FF086A30710556
:1031E000E9F4F7FE19C06DE283E893E00E94C3148E
:1031F000EC0166277727CB016C197D098E099F09A1
:103200004AE00E944C178C0F9D1FDF91CF91FF90D9
:10321000EF90DF90CF9008954AE001C0462FC7019C
:10322000B601DF91CF91FF90EF90DF90CF900C949B
:103230004C17CF93DF936AE070E00E94D618EC0140
:1032400081EA91E00E9489168C0F9D1FDF91CF913A
:1032500008950C948916BC0180E090E04AE00C943B
:103260004C17AB01682F4115510521F483E893E019
:103270000C94C31470E080E090E00C944C17CF9352
:10328000DF936AE070E00E943119EC0181EA91E07D
:103290000E9489168C0F9D1FDF91CF910895CF93C7
:1032A000DF930E948916EC0181EA91E00E94891661
:1032B0008C0F9D1FDF91CF910895CF93C82F482F7A
:1032C00060EE8FE00E94E1168FE00E94C416982FF6
:1032D000907E81E09C1301C080E0CF9108958091A1
:1032E000D804823721F08C3911F0853B19F4809194
:1032F000EB040895853F19F48091ED040895823F11
:1033000019F48091EF04089580E008958091D80425
:103310008C3911F0853B19F48091EC040895823BBF
:1033200011F0823D19F48091ED040895853F19F460
:103330008091EE04089580E00895CF93DF93C8E96B
:10334000D4E09F838887492F63E170E08AE994E0A5
:103350000E94200B488564E170E08AE994E0DF91E7
:10336000CF910C94200BCF93DF93CDB7DEB7289786
:103370000FB6F894DEBF0FBECDBF1092E405809368
:103380000F0584E090E090935F0580935E0582E0F6
:103390008093CA0483E08093CB046091FB0470E0C7
:1033A00080E090E0FE013196AE01475F5F4F9F01E4
:1033B0001192E417F507E1F741E04093C30440E0C0
:1033C0000E948D171092C3040E94DB1B609360055E
:1033D00070936105809362059093630528960FB6FC
:1033E000F894DEBF0FBECDBFDF91CF91089583303B
:1033F00081F028F4813099F08230A1F0089587306F
:10340000A9F08830B9F08430D1F4809180008F7DAC
:1034100003C0809180008F7780938000089584B5E9
:103420008F7702C084B58F7D84BD08958091B000F0
:103430008F7703C08091B0008F7D8093B000089596
:10344000CF93DF93282F30E0F901E353FB4F8491B2
:10345000F901E754FB4FD491F901EB55FB4FC491AF
:10346000CC2391F081110E94F719EC2FF0E0EE0FC0
:10347000FF1FE556FB4FA591B491EC91ED2381E040
:1034800090E021F480E002C080E090E0DF91CF91F5
:1034900008951F93CF93DF93282F30E0F901E35372
:1034A000FB4F8491F901E754FB4FD491F901EB559F
:1034B000FB4FC491CC23C1F0162F81110E94F71944
:1034C000EC2FF0E0EE0FFF1FEF56FB4FA591B491EC
:1034D0009FB7F894111104C08C91D095D82302C0E5
:1034E000EC91DE2BDC939FBFDF91CF911F9108956C
:1034F000FF920F931F93CF93DF93182FF62EC72FB2
:10350000D42F60E08091C5040E94491A83E00E9494
:103510009815812F0E9498150F2D1C2FC0E0CD17F4
:1035200051F0C83041F080E00E949815F801819375
:103530008F01CF5FF4CF61E08091C504DF91CF911F
:103540001F910F91FF900C94491A0F931F93CF93E3
:10355000DF9300D000D0CDB7DEB7182F1092B5049E
:103560001092B6041092B7041092B8041092B904E5
:1035700044E0BE016F5F7F4F0E94781A2A81398133
:10358000822F90E065E0959587956A95E1F748E090
:10359000349F800D911D1124092E000CAA0BBB0B2A
:1035A0008093B6049093B704A093B804B093B90481
:1035B00023FF29C032E0880F991FAA1FBB1F3A952D
:1035C000D1F72370820F911DA11DB11DBA2FA92F14
:1035D000982F88272B81820F911DA11DB11DBA2F15
:1035E000A92F982F88272C81820F911DA11DB11D15
:1035F0008093B6049093B704A093B804B093B90431
:1036000081E08093B5048FEF810F0E94C416082FCC
:1036100084E0810F0E94C41603FF04C091E09093E0
:10362000C30402C01092C304482F4F704093BA04E1
:103630006BEB74E085E0810F0E94781A0F900F9079
:103640000F900F90DF91CF911F910F9108951F93CD
:10365000CF93DF93C8E9D4E060E08DA50E94491ABA
:1036600080EA0E94981580E00E949815182F61E06A
:103670008DA50E94491A812FDF91CF911F91089546
:10368000CF93DF9390E0FC01E754FB4F2491FC01C2
:10369000EB55FB4F8491882361F190E0880F991FCF
:1036A000FC01E957FB4FC591D491FC01EF56FB4F4C
:1036B000A591B491611109C09FB7F89488812095B4
:1036C00082238883EC912E230BC0623061F49FB774
:1036D000F8948881322F309583238883EC912E2BA8
:1036E0002C939FBF06C08FB7F894E8812E2B2883B8
:1036F0008FBFDF91CF9108953FB7F8948091000676
:1037000090910106A0910206B091030626B5A89BF0
:1037100005C02F3F19F00196A11DB11D3FBFBA2F63
:10372000A92F982F8827820F911DA11DB11DBC01C3
:10373000CD0142E0660F771F881F991F4A95D1F788
:1037400008958F929F92AF92BF92CF92DF92EF92A5
:10375000FF926B017C010E947C1B4B015C01C11438
:10376000D104E104F104F1F00E947C1BDC01CB01E7
:1037700088199909AA09BB09883E9340A105B1059A
:1037800070F321E0C21AD108E108F10888EE880E32
:1037900083E0981EA11CB11CC114D104E104F10402
:1037A00019F7DDCFFF90EF90DF90CF90BF90AF90F3
:1037B0009F908F9008952FB7F8946091FC057091B9
:1037C000FD058091FE059091FF052FBF08951F9282
:1037D0000F920FB60F9211242F933F938F939F93C5
:1037E000AF93BF938091FC059091FD05A091FE05DC
:1037F000B091FF053091FB0523E0230F2D3720F416
:103800000196A11DB11D05C026E8230F0296A11D3A
:10381000B11D2093FB058093FC059093FD05A093BB
:10382000FE05B093FF058091000690910106A091DE
:103830000206B09103060196A11DB11D80930006FA
:1038400090930106A0930206B0930306BF91AF9137
:103850009F918F913F912F910F900FBE0F901F90CE
:103860001895CF93DF93CDB7DEB762970FB6F89474
:10387000DEBF0FBECDBF789484B5826084BD84B5B1
:10388000816084BD85B5826085BD85B5816085BD5B
:1038900080916E00816080936E0010928100809113
:1038A000810082608093810080918100816080939B
:1038B0008100809180008160809380008091B100C0
:1038C00084608093B1008091B00081608093B000EB
:1038D00080917A00846080937A0080917A0082607F
:1038E00080937A0080917A00816080937A00809141
:1038F0007A00806880937A001092C1009EE3E92EDE
:1039000091E0F92E0AE311E01A830983A981BA81B3
:103910001D91BA83A98361E0812F0E94401B60E062
:10392000812F0E94491AC980DA80EC14FD0471F7D6
:103930008AE3E82E81E0F82E07E311E01A83098379
:10394000A981BA811D91BA83A98361E0812F0E9468
:10395000401B61E0812F0E94491AC980DA80EC1473
:10396000FD0471F706E011E01A83098309E0E02EF7
:1039700001E0F02EA981BA811D91BA83A98361E08B
:10398000812F0E94401B60E0812F0E94491AC9804C
:10399000DA80EC14FD0471F760E080E10E94401BC6
:1039A00061E087E00E94401B60E085E10E94401BCF
:1039B00061E084E00E94401B60E084E10E94401BC3
:1039C00061E082E00E94401BAEEFB4E086E095E04B
:1039D000FD0111928E179F07E1F7EBE7F1E081916E
:1039E0008D9301E0E338F007D1F78CE5809307056C
:1039F0008DE08093060588E38093090581E080933C
:103A00000A058091080583608093080580EC90E0AA
:103A1000A0E0B0E08093120590931305A0931405E5
:103A2000B093150582E491E19093E6058093E50556
:103A30008EE08093C50461E00E94401B61E08091AC
:103A4000C5040E94491A04E110E01A830983BFEA01
:103A5000AB2EB4E0BB2E13ECE12E14E0F12EDFB65A
:103A6000F89480914303811126C0F5018491F701F8
:103A70002491E82FF0E0EE0FFF1FE957FB4FA591CF
:103A8000B4919C91822F892321F461E08AE00E9405
:103A9000491A61E08AE00E94401B8CB580618CBDB0
:103AA0008CB580648CBD61E08DE00E94401B61E0BC
:103AB0008BE00E94401B809143038F5F8093430300
:103AC000DFBE60E08091C5040E94491A80EC0E942C
:103AD000981561E08091C5040E94491A6AE070E07F
:103AE00080E090E00E94A11B80E80E945D1988237D
:103AF000B1F06AE070E080E090E00E94A11B6EE10E
:103B000070E080E090E00E94A11B09811A810150C1
:103B100011091A830983012B09F0A1CF4BC06AE078
:103B200070E080E090E00E94A11B61E08AE20E94C8
:103B30002F1761EB89E20E942F1765E088E20E944F
:103B40002F176AE070E080E090E00E94A11B10E374
:103B500060E0812F0E942F1760E080E1810F0E94BA
:103B60002F1760E080E2810F0E942F171F5F1E3326
:103B700079F760E080E60E942F1760E080E70E94FE
:103B80002F1763E08BE20E942F1744E064E680E683
:103B90000E94E11640E060E680E70E94E11680E0C6
:103BA0000E945D198111A5CF6AE070E080E090E08D
:103BB0000E94A11B87E10E94C11881E08093280325
:103BC000E0919303F091940382E08083E0918F036E
:103BD000F09190031082E0919103F091920380E1C3
:103BE000808310929B03E0919703F091980386E005
:103BF0008083E0919503F0919603808180618083BA
:103C0000E0919503F0919603808188608083E09134
:103C10009503F0919603808180688083E0919503FD
:103C2000F091960380818F7D808383EA91E00E94EA
:103C30004F198DE593E00E949B166AE070E081E0E9
:103C400090E00E94D61884E891E00E94291988E04B
:103C500090E00E9419198AE994E00E94E70D8FE034
:103C600091E00E94B61688E091E00E949B1680E0E9
:103C700090E00E941E0B6AE070E00E9431198FEF05
:103C800090E00E949B166AE070E080919E040E9482
:103C900031198AEF90E00E949B1680919F049091C9
:103CA000A0049827892798279093B0048093AF04A5
:103CB0000E942B1982EF90E00E949B166AE070E050
:103CC0008091AE040E94311985EE90E00E949B160F
:103CD0006AE070E08091A1040E94311983ED90E0C8
:103CE0000E949B166AE070E08091A5040E94311941
:103CF00087EC90E00E949B166AE070E08091A3043C
:103D00000E94311986E891E00E9429196AE070E06A
:103D100089E190E00E94D6188DE891E00E9429196F
:103D20008091A30490E06AE070E048960E94D61863
:103D30008FE891E00E94291919828091A3041981CA
:103D4000181780F4812F90E049960E941E0B60E1C5
:103D500070E00E94311985EC90E00E949B161F5F75
:103D60001983EBCF84EB90E00E949B166AE070E031
:103D700080E190E00E94D61883E991E00E94291921
:103D80006AE070E082E090E00E94D6188DE891E051
:103D90000E9429196AE070E081E190E00E94D61843
:103DA0008FE891E00E94291902E010E01A8309834C
:103DB00089819A810E941E0B60E170E00E94311996
:103DC00082EB90E00E949B1609811A810F5F1F4FC2
:103DD0001A8309830231110559F784EA90E00E94A1
:103DE0009B166AE070E08091A6040E94311989E96F
:103DF00091E00E9429196AE070E08091A9040E9474
:103E000031198DE891E00E9429198091A60490E073
:103E10000197880F991F2091A904820F911D6AE0D4
:103E200070E001960E94D6188FE991E00E9429194E
:103E30006AE070E082E090E00E94D6188FE891E09E
:103E40000E94291910E08091A604181728F5212F47
:103E500030E0220F331F3A8329838091A904280F71
:103E6000311DC9010E941E0B60E170E00E943119F2
:103E70008091A904C980DA80C80ED11CC6010196C0
:103E80000E941E0B60E170E00E94311982EA90E00E
:103E90000E949B161F5FD7CFE090A704F090A80464
:103EA000FA82E98289E990E00E949B166AE070E05C
:103EB0008091A4040E94311989E991E00E94291996
:103EC0006AE070E089819A810E94D6188DE891E0BD
:103ED0000E9429198091A40404E0809FE00CF11C49
:103EE0001124C7016AE070E001970E94D6188FE99B
:103EF00091E00E9429196AE070E084E090E00E945D
:103F0000D6188FE891E00E944F1910E08091A40428
:103F1000181708F05FC0E980FA8024E0E20EF11C77
:103F200089819A810E941E0B60E170E00E94311924
:103F300049815A814F5F5F4F5A83498387E990E0F7
:103F40000E949B16C980DA80CE14DF0449F785E908
:103F500090E00E949B16C12ED12CCC0CDD1CE12CD4
:103F6000F12CF701EC0DFD1DE05EFB4F60E170E010
:103F7000808191810E94D61883E990E00E949B166F
:103F800002E1E00EF11C28E4E216F10451F78DE89D
:103F900090E00E949B1600E08091A5040817A0F411
:103FA00089819A810E941E0B60E170E00E943119A4
:103FB00049815A814F5F5F4F5A8349838BE890E074
:103FC0000E949B160F5FE8CF81EA91E00E9489165C
:103FD0001F5F9CCF80912803811110C01092EA05C9
:103FE00081E08093EB0561E080E00E94401B8091BE
:103FF000EB058F3F19F061E00E94401B0E94D10E3B
:104000001092EF021092F0021092F1021092F2025E
:104010001092EE021092ED0280912803882311F194
:104020008CE493E00E949B166AE070E080E190E0EF
:104030000E94D61889E293E00E949B166AE070E025
:104040008CE291E00E94D61882E293E00E949B16D7
:104050006AE070E08CE89AE00E94D6188EE193E066
:104060000E94B61686E10E94C11890E09093270343
:104070008093260332E3C32E33E0D32E0CE213E009
:1040800044E0E42EF12C1A82198258E1A52E55E164
:10409000B52EE0912603F0912703098002C0F59523
:1040A000E7950A94E2F7E170FF27EE0DFF1DEE0F92
:1040B000FF1FE850FD4F8081918124E0880F991FF8
:1040C0002A95E1F74501881A990AD8018D929C92A8
:1040D00070902803772021F087E093E00E949B16E0
:1040E000F601819291926F0129813A812F5F3F4FB2
:1040F0003A8329837720C1F038E8831633E19306A9
:1041000099F081E093E00E949B166AE070E089815B
:104110009A810E94D6188EE792E00E942919D80150
:104120008D919C910E941919B5E0EB0EF11C0E5F68
:104130001F4FE981FA81339709F0ABCF0E947C1BB6
:104140004B015C0160933B0370933C0380933D0300
:1041500090933E0310923A030E947C1B2091FC0432
:104160003091FD046B017C01C818D908EA08FB08EE
:10417000A0E1B7E20E94D02CC616D706E806F906E1
:1041800058F380912803882341F083EA91E00E944C
:104190004F198BEF92E00E94B61684E690E0909360
:1041A000890080938800F89410928000109281001A
:1041B0008091810082608093810080916F00826095
:1041C00080936F0078940E947C1B60933F037093F0
:1041D0004003809341039093420300E613E01A8268
:1041E0001982FF24F39480912803882321F084ED21
:1041F00092E00E94B616E981FA81E75DFC4FF082F9
:1042000080913F0390914003A0914103B0914203FC
:10421000F80181939193A193B1938F0129813A8100
:104220002F5F3F4F3A83298323303105E1F684E045
:10423000811155C060E085E00E94491A60E086E087
:104240000E94491A60E088E00E94491A83EA91E0DE
:104250000E944F198AEC92E00E94B61681E992E022
:104260000E94B6168BE892E00E94B6168DE692E0A8
:104270000E94B6168CE592E00E94B61689E392E0A1
:104280000E94B61685E192E00E94B61680EB91E09E
:104290000E94B61689E391E00E94B6168BE191E088
:1042A0000E94B61683EA91E00E944F1908E713E0D6
:1042B000FCE0EF2EF1E0FF2E4AE351E05A83498300
:1042C000ACE28A2EA3E09A2EB8EFCB2EB2E0DB2E22
:1042D000412C512C88E1682E85E1782E09C09091FF
:1042E0003803992309F4A4CF815010923803A0CF4A
:1042F00052019FEFA91AB90AD6011A962D913C9145
:104300001B9718968D919C911997820F931F63E0CC
:10431000880F991F6A95E1F7F401219131914F01BE
:10432000A301481B590BD7013C9061E0421753078A
:104330000CF04DC0832D0E94401B60E0832D0E9435
:10434000491AF8018081816080838091F30290E0B6
:10435000042C02C0959587950A94E2F780FD1DC054
:104360005AE0C50ED11C69817A816E5F7F4F7A83D6
:1043700069837FEFE71AF70A0F5F1F4F250183E07C
:10438000A816B10409F0B4CF78E1872E75E1972E15
:10439000412C512C32014394B8C1F2E04F16510424
:1043A000F9F260E0A981BA8111968C910E94491AB4
:1043B000E981FA81508061E0852D0E94491A6AE006
:1043C00070E0C5010E94D61884EA91E030C0832DC8
:1043D0000E94401B61E0832D0E94491AF8018081F0
:1043E0008E7F80838091F30290E0042C02C095952B
:1043F00087950A94E2F780FFB3CFF2E04F1651049D
:1044000009F4AECFA981BA8111965C9061E0852D47
:104410000E94491A60E0E981FA8180810E94491A6C
:104420006AE070E0C5010E94D61884EC91E00E9419
:10443000291964E670E080E090E00E94A11B60E032
:10444000852D0E94491A8BEB91E00E944F1988CF6D
:1044500083E893E00E9469148C3309F05DC163EA3C
:1044600071E085E493E00E943F2E1092440383E8BC
:1044700093E00E948B141816190654F30E947C1BBB
:1044800060933F03709340038093410390934203F2
:1044900000917B0310917C0320917D0330917E037A
:1044A0006B017C01C01AD10AE20AF30A49EEC41674
:1044B00043E0D406E104F10408F0B2C20E949D0278
:1044C0008091110581110E94D10E0CE613E01E8728
:1044D0000D8768010AE311E098E7E92E93E0F92ED1
:1044E0001A821982D7012C9127FDD4C229813A81E1
:1044F0002F5F3F4F3A8329833FEFE31AF30A0E5FA2
:104500001F4F44E0C40ED11C69817A81633071056C
:1045100049F780913F0390914003A0914103B091EE
:10452000420340913B0350913C0360913D037091E5
:104530003E03841B950BA60BB70B81349B44AC4404
:10454000B10508F0DDC280913803882309F4A8C0C2
:1045500004EF12E01E830D8300E613E01A8709873B
:10456000A8EFEA2EA2E0FA2E0CE011E01C870B87E0
:1045700008E713E01A8309830AE311E01C830B8325
:1045800007E311E018870F830CE213E0B2E3AB2ED0
:10459000B3E0BB2E24E030E0388B2F872224239415
:1045A000312CC12CD12CD5010D90BC91A02DBA8BF2
:1045B000A98BF80180819181A817B90709F42AC451
:1045C000F601E75DFC4F80818111A6C224E02083C3
:1045D0008081813009F0B2C280913F039091400305
:1045E000A0914103B0914203E985FA8580839183CC
:1045F000A283B38380912803811197C260E0EF8189
:10460000F88580810E94491A41E0D8018D919C91E2
:104610008838934109F494C24111A9C2FFEFCF1A1F
:10462000DF0A2FEF221A320A32E0A30EB11C0E5F0E
:104630001F4F4F8158854F5F5F4F58874F836D8164
:104640007E816F5F7F4F7E836D838B819C8102961D
:104650009C838B83A981BA811196BA83A983ED8546
:10466000FE853496FE87ED872B853C852F5F3F4F77
:104670003C872B873AE0E30EF11C49855A854C5F55
:104680005F4F5A8749876F8578896B5F7F4F788B3B
:104690006F8773E0C716D10409F085CF10923803F5
:1046A0008091EF029091F002A091F102B091F2029C
:1046B0000097A105B10509F065C480913F03909171
:1046C0004003A0914103B091420340915C0350919B
:1046D0005D0360915E0370915F036C017D01C41AFC
:1046E000D50AE60AF70A01EDC01607E0D006E10494
:1046F000F10408F0B5C480915B038F5F63E00E9412
:10470000DF2C90935B030E94321545E0F42EEE24DB
:10471000E3945AE0D52EABCE8E3309F059C18BED20
:1047200091E00E94291985E493E00E9429198DEDFA
:1047300091E00E94291900914503802F8F7D8335D8
:1047400031F580E00E94C11881FB992790F9909380
:10475000DA0280FF04C0109239038E7F03C0E0921A
:10476000390381608983498160E08AE994E00E948D
:10477000A60B88EC93E00E949B166AE070E08981AA
:10478000817090E00E94D61880EB93E018C18235CA
:1047900099F41A82198260E089819A810E941C0B27
:1047A00009811A810F5F1F4F1A8309830115144075
:1047B00091F78FE993E003C1813469F461E082E10C
:1047C0000E94491A64E670E080E090E00E94A11B1C
:1047D00060E082E10EC0823479F461E083E10E94FE
:1047E000491A64E670E080E090E00E94A11B60E05E
:1047F00083E10E94491AE5C0809146038A3309F09B
:10480000E0C0002E000C110BA801415351095A833E
:1048100049834830510518F088E893E0D0C0809172
:104820004703982F9F7D9C3461F0823579F0823761
:1048300041F04091440350E0E7E4F3E080E090E091
:1048400062C021E0823719F020E001C021E0A98197
:10485000BA81AA0FBB1FAE5CBC4F69817A81F69EFC
:10486000F001F79EF00D1124E20FF11DEE0FFF1F76
:10487000E050FD4F8081918134E0880F991F3A9577
:10488000E1F7F401E81BF90BED93FC93809126030B
:1048900090912703B301A201098004C0440F551F62
:1048A000661F771F0A94D2F7222319F0842B952BC9
:1048B00005C09A0120953095822393239093270376
:1048C00080932603809139038823D9F110923A030B
:1048D0000E947C1B60933B0370933C0380933D03D9
:1048E00090933E032EC0619120ED260F2A3058F49C
:1048F000D89E9001D99E300D1124C901C097860F12
:10490000911D67FD9A959F01255433402417350763
:1049100054F3E981FA81EE0FFF1FEE5CFC4F8F3FED
:10492000910509F050F4A4E0880F991FAA95E1F7CA
:104930009401281B390BC90102C0880F991F91836C
:10494000808349815A81440F551F5A834983FA0154
:10495000EE5CFC4F808191818838934124F067E8B8
:1049600073E171836083E981FA81EE5CFC4F8081A1
:1049700091818D3D954024F48DED95E09183808368
:1049800081E893E00E949B166AE070E0C801C0973E
:104990000E94D6188EE793E00E949B1609811A8127
:1049A0000E5C1C4FD8018D919C9197FD01966AE099
:1049B00070E0959587950E94D6188AE793E00E944B
:1049C000B61663EA71E085E493E00E943F2E4FCD76
:1049D000E5E4F3E001900020E9F73197E554F34076
:1049E0003F9708F044CD282F082E000C330B3F933F
:1049F0008F93E5E4F3E0FF93EF9300EE11E01F9354
:104A00000F93FF93EF930E94462E809144038F5F94
:104A1000809344030FB6F894DEBF0FBECDBF27CD01
:104A200060937B0370937C0380937D0390937E035C
:104A3000D12C01EE15E02CE3E22EF12CCC24C39412
:104A40000E94271B837001F150C48091C60480939B
:104A5000D4058091C7048093D5058091C8048093C4
:104A6000D6058091C9048093D7054093D2058091E3
:104A7000C304811165C41092D305809158059091AB
:104A80005905892B09F45FC4D39472E0D71609F451
:104A900015CDD6CF80913F0390914003A091410363
:104AA000B0914203F6014081518162817381841B80
:104AB000950BA60BB70B88389A48A140B10508F4AE
:104AC00015CD2F77D7012C93E981FA81329709F41C
:104AD00020CD60E0D80111968C910E94491A60E0C7
:104AE000F80180810E94491A6AE070E089819A8108
:104AF00001960E94D61885EE91E00E944F19F6CCDF
:104B000080913A0381111FCD80913903882309F4E4
:104B10001ACD0E94141117CD80818150808380812D
:104B2000811156CD81E0808353CDAF81B8858C91C2
:104B30000E94201A019709F061CD4EC440E065CD76
:104B4000F7012085318582859385820F931F97FD1C
:104B5000019695958795F4E0880F991FFA95E1F7EE
:104B60009401281B390BD8012D933C9355CDF801A6
:104B700020813181D5018D919C912817390744F40A
:104B8000F7010484F585E02DFF27FA8BE98B08C037
:104B9000D7011E960D90BC91A02DBB27BA8BA98B77
:104BA000E989FA893197FA8BE98B749708F188EED5
:104BB00093E00E949B1689899A890E941919D8014D
:104BC0002D913C91F50180819181281739074CF492
:104BD000D7011C960D90BC91A02D1197BA8BA98B73
:104BE00007C0F7010684F785E02D3197FA8BE98B32
:104BF0008091F70290E00C2C02C0959587950A945D
:104C0000E2F780FF1AC0AD81BE818C918823A9F0A4
:104C1000853099F0E989FA89F7FF03C03196FA8B5C
:104C2000E98B29893A8935952795225031093A8BA4
:104C3000298B37FF02C01A8A198AD7011A962D913B
:104C40003C911B9718968D919C911997820F931FF9
:104C500043E0880F991F4A95E1F79401281B390B0F
:104C6000F80180819181D5014D915C91E989FA89A2
:104C7000EE0FFF1FFA8BE98B841795070CF062C0CB
:104C8000E15FFE4F40815181840F951FD8018D93C4
:104C90009C93281739070CF04AC0E981FA8180817A
:104CA00080FD45C08168808380913F0390914003DF
:104CB000A0914103B0914203ED85FE8580839183ED
:104CC000A283B38360E0AB85BC858C910E94491AB6
:104CD0008091F30290E00C2C02C0959587950A9480
:104CE000E2F780FF24C0B2E0CB16D10401F160E00E
:104CF000EB81FC8181810E94491A61E0AB81BC811A
:104D00008C910E94491A6AE070E0C1010E94D61895
:104D100082EF91E00E9429196AE070E0F801808139
:104D200091810E94D6188BE092E00E944F19D50124
:104D30008D919C91F80120813181821793070CF0AD
:104D40006DCC65C049895A89415F5E4FDA014D914A
:104D50005C91841B950BF8019183808382179307E4
:104D60000CF04BC0A981BA818C9180FF46C08E7F28
:104D700080688C9380913F0390914003A091410300
:104D8000B0914203ED85FE8580839183A283B38336
:104D900061E0AB85BC858C910E94491A8091F30239
:104DA00090E00C2C02C0959587950A94E2F780FF5D
:104DB00024C0B2E0CB16D10401F161E0EB81FC81AB
:104DC00081810E94491A60E0AB81BC818C910E9474
:104DD000491A6AE070E0C1010E94D6188DE092E0A5
:104DE0000E9429196AE070E0F801808191810E9497
:104DF000D6188BE092E00E944F19D5018D919C91BD
:104E0000F80120813181281739070CF007CC9183F4
:104E1000808304CCAD81BE812C91222309F483C010
:104E2000E0912603F09127030C2C02C0F595E7953D
:104E30000A94E2F7E170FF274F855889E40FF51FC8
:104E4000EE0FFF1FE850FD4F8081918134E0880F05
:104E5000991F3A95E1F7F401E81BF90BD501ED93A1
:104E6000FC9320FD39C0D70118968D919C9119971C
:104E70001A966D917C911B97422F50E0861B970BE1
:104E800097FF03C0919581959109849FB001859FFB
:104E9000700D949F700D1124649FC001659F900D4B
:104EA000749F900D11246AEF70E00E94EB2CA4E037
:104EB000660F771FAA95E1F749895A89493B5B40FC
:104EC00034F0E61BF70BD501ED93FC9305C06E0F94
:104ED0007F1FF501718360832150AD81BE812C93CA
:104EE00080912803882309F499CB86E292E00E94FE
:104EF00029196AE070E0C6010E94D6188CE292E09F
:104F00000E9429196AE070E0ED81FE8180810E9493
:104F100031198EE792E00E942919D5018D919C915B
:104F20000E9419197BCB80913F0390914003A0917F
:104F30004103B0914203E985FA8540815181628144
:104F40007381841B950BA60BB70B88369848AE412E
:104F5000B10508F463CB80912803882341F0AF8129
:104F6000B8858C910E94201A892B09F43FC2F60162
:104F7000E75DFC4F108261E0EF81F88580810E943F
:104F8000491A4CCB40913F0350914003609141033B
:104F900070914203841B950BA60BB70B8139904D82
:104FA000A340B10508F489CB1A821982F5E0DF2EFF
:104FB0008091ED029091EE02098002C0959587954F
:104FC0000A94E2F780FF3DC0E980FA80F594E79407
:104FD0008701000F111F0E5C1C4FDE9C9001DF9CAF
:104FE000300D112489819A8181709927F901E80F88
:104FF000F91FEE0FFF1FE050FD4F80819181E4E02B
:10500000880F991FEA95E1F79401281B390BD80105
:105010002D933C9380912803882399F08CED93E0A5
:105020000E949B166AE070E0C70101960E94D618A4
:105030008EE792E00E942919F801808191810E94F7
:10504000191909811A810F5F1F4F1A8309830630CE
:10505000110509F0ADCF1092EE021092ED022DCBAA
:1050600080935C0390935D03A0935E03B0935F0312
:10507000E0915B03F0E0E75FFE4F80818E3008F047
:105080008E508770806480937C0080917A00806469
:1050900080937A0080917A0086FDFCCF2091780081
:1050A0008091790030E0382B80915B03E82FF0E0AD
:1050B000EE0FFF1FEB5AFC4F203213E031070CF0CC
:1050C00011C1223331050CF086C0208131812F5F60
:1050D0003F4F31832083283031050CF40CCB28302E
:1050E000310519F088E090E086C06AE070E00E9427
:1050F000311984E392E00E944F1920915B03822FC3
:1051000090E0DC01AA0FBB1FAE5CBC4F35E0239FD3
:10511000F0011124EE0FFF1FE050FD4F408151813F
:1051200004E0440F551F0A95E1F7B401641B750BA9
:105130006D937C93B301A20104C0440F551F661FF9
:10514000771F2A95D2F740955095209126033091EC
:10515000270324233523309327032093260310921B
:105160003A03880F991FFC01ED51FD4FC080C982A1
:10517000D180DB828091DA02811113C081E00E942C
:10518000C118182F81E00E94C11880E98093CD04D6
:105190001092CE041093CF04D092D004C092D104C8
:1051A00011C08091FC049091FD0428E92093CD0466
:1051B0009093CE048093CF04EB80E092D004F980EA
:1051C000F092D1041092D2041092D3041092D4041D
:1051D0000E947E1890CA208131812150310931838B
:1051E0002083293F0FEF30070CF085CA283F3F4F3F
:1051F00029F088EF9FEF918380837DCA6AE070E099
:105200000E9431198BE492E00E944F1960915B0378
:10521000862F90E0FC01EE0FFF1FEE5CFC4FAC010F
:105220004F5F5F4F75E0749F9001759F300D1124A3
:10523000220F331FD901A850BD4F2D913C9154E04E
:10524000220F331F5A95E1F7A401421B530B5183E0
:1052500040837301620104C0CC0CDD1CEE1CFF1CFA
:105260006A95D2F7B701A601209126033091270352
:10527000422B532B509327034093260310923A035B
:10528000880F991FFC01ED51FD4FD080D982E1803C
:10529000EB828091DA02811113C081E00E94C11873
:1052A000182F81E00E94C11881E98093CD041092EB
:1052B000CE041093CF04E092D004D092D10482CFD8
:1052C0008091FC049091FD0429E92093CD049093F2
:1052D000CE048093CF04FB80F092D0040981009328
:1052E000D10470CF1182108206CA0E94271BD110F0
:1052F00008C080FFC9CB81E60E94A51A40E061E0AA
:1053000007C081FFC1CB81E70E94A51A40E062E09F
:105310008CE20E94E1164091BA04E8E9F4E09F01B2
:105320002859344031968091BA0490E02817390703
:105330000CF08BCB82A1DF01A15CBE4F8C93EFCF31
:10534000C092D3059ACB61E070E0709359056093E9
:1053500058058091560590915705CC9724F01092EE
:10536000570510925605E2EDF5E0809156059091B3
:1053700057052191DC01A85EBA4F12962C93019635
:10538000909357058093560580915C0590915D053B
:10539000019690935D0580935C050E171F0729F712
:1053A000CD97ACF080915A0590915B050F968C33A8
:1053B00091052CF490935B0580935A0504C01092DC
:1053C0005B0510925A05F0925D05E0925C05109223
:1053D00059051092580558CB6AE070E0C1010E944F
:1053E000D61884E692E00E944F1908C96AE070E07E
:1053F000C1010E94D61880E792E00E944F19B7CDF4
:1054000088E994E00C94BE0E8F929F92AF92BF9267
:10541000CF92DF92EF92FF920F931F93CF93DF9380
:10542000CDB7DEB7C654D1090FB6F894DEBF0FBEB4
:10543000CDBF109286031092850388EE93E0A0E022
:10544000B0E08093870390938803A0938903B0937F
:105450008A0382E491E0909384038093830385EC34
:1054600090E09093900380938F0384EC90E090936E
:1054700092038093910380EC90E090939403809347
:10548000930381EC90E0909396038093950382ECD4
:1054900090E0909398038093970386EC90E090932C
:1054A0009A038093990310929C0310929D0310928B
:1054B0009E0310929F0384E791E090939904809358
:1054C00098048CE691E090939B0480939A0485ED78
:1054D00094E00E94050B84E691E09093FA04809397
:1054E000F904EEEFF4E086E095E020E321938E17D7
:1054F0009F07E1F78CE591E09093190580931805DB
:105500001092F40510920E051092E40527E1FE01B9
:105510003196A5EBB4E001900D922A95E1F79A83BC
:10552000898321961FAE1EAE219723961FAE1EAE15
:10553000239725961FAE1EAE259727961FAE1EAE4B
:105540002797DE011396EAE1F5E08D91819345E01E
:10555000E635F407D1F710925705109256051092D0
:1055600059051092580510925B0510925A05109239
:105570005D0510925C058CE691E09A83898388E151
:105580008A8789E08B8781E08C878D8781E3888B90
:1055900083E390E09F878E8781E090E00E94192D41
:1055A0009C838B83CE0101960E949D0CCE010196B7
:1055B0000E94E70DDA8498E6E92E94E0F92E00E0E7
:1055C00010E0CC24CA941B8E0D1518F0CB8E8FEFF3
:1055D00004C0C80149960E941E0B90E0F701819318
:1055E00091937F010F5F1F4F0831110561F74091C3
:1055F00096045091970440FF0AC04E7F5093970441
:105600004093960467E1CE0101960E94A60BEB84BD
:105610009884CC8480E2A82E84E0B82ED12CF4E0CB
:10562000CF0ED11C0E851F85F12C88248394198AF6
:105630001A8A1B8A1C8A1B8EEF1410F09F1410F418
:105640008B8E13C0C8010E941E0B898BC801019666
:105650000E941E0B8A8BC80102960E941E0B8B8B28
:10566000C80103960E941E0B8C8B3989832F90E012
:10567000F501819391935F012A89822F90E0918BAC
:10568000808B9B89492F50E053A342A38C89482FDC
:1056900050E055AB44ABF3940C0D1D1DF9E0FF1227
:1056A000C6CF4B815C8150939D0440939C044D81F7
:1056B00040939E044E8140939F044F814093A004E9
:1056C00048854093A10449854093A2044A854093AC
:1056D000A304E092A4044C854093A5044D85409317
:1056E000A6044E855F855093A8044093A70448897B
:1056F0004093A9043093AA042093AB049093AC0484
:105700008093AD048D898093AE048E899F89909398
:10571000B0048093AF04888D8093B104898D809309
:10572000B2048A8D8093B3048B8D8093B404CE0130
:1057300001960E94A80E84E691E09A838983DE0197
:105740001696CE010E96FD0120E32193E817F90786
:10575000E1F78B818093FB048C819D819093FD0404
:105760008093FC04EEEFF4E08D91819345E0E63008
:10577000F407D1F78E85809306058F858093070502
:105780008889809308058989809309058A8980938F
:105790000A0589E080930B0588E180930D0581E07F
:1057A00080930C05CE0101960E94050B8B8180939E
:1057B000D7048C818093D8048D818093D9048E8105
:1057C0008093DA048F8198859093DC048093DB04C6
:1057D00089859A859093DE048093DD048B859C8572
:1057E0009093E0048093DF048D859E859093E2047E
:1057F0008093E1048F8598899093E4048093E30477
:1058000089899A899093E6048093E5048B89809333
:10581000E704DE015496E8EEF4E08D91819384E094
:10582000E03FF807D1F78C8D8093F0048D8D809345
:10583000F1048E8D8093F2048F8D8093F30488A100
:105840008093F40489A19AA19093F6048093F504BF
:105850008BA18093F7048CA18093F80480910E05AE
:10586000816080930E0510920F050FEF0093EA05FB
:105870000093EB0511E01093EC051092ED050E94EA
:10588000DB1B6093EE057093EF058093F00590931A
:10589000F1051092E6051092E5051092F6051092BA
:1058A000F50510921005109311050093F205109361
:1058B000F30587EC90E0A0E0B0E0809312059093B0
:1058C0001305A0931405B09315058AE994E00E948E
:1058D000E70D80919F049091A0049827892798272D
:1058E0009093B0048093AF049093FD048093FC04E4
:1058F00080919E048093FB041093080583E090E060
:1059000090935F0580935E05CA5BDF4F0FB6F894F6
:10591000DEBF0FBECDBFDF91CF911F910F91FF90E2
:10592000EF90DF90CF90BF90AF909F908F900895B1
:10593000F999FECF92BD81BDF89A992780B5089557
:10594000262FF999FECF1FBA92BD81BD20BD0FB69B
:10595000F894FA9AF99A0FBE01960895A1E21A2EC8
:10596000AA1BBB1BFD010DC0AA1FBB1FEE1FFF1F03
:10597000A217B307E407F50720F0A21BB30BE40B53
:10598000F50B661F771F881F991F1A9469F760959A
:105990007095809590959B01AC01BD01CF01089554
:1059A000A29FB001B39FC001A39F700D811D112460
:1059B000911DB29F700D811D1124911D0895991B99
:1059C00079E004C0991F961708F0961B881F7A95F6
:1059D000C9F78095089597FB072E16F4009407D019
:1059E00077FD09D00E94052D07FC05D03EF4909567
:1059F00081959F4F0895709561957F4F0895EE0FA3
:105A0000FF1F0590F491E02D0994AA1BBB1B51E1E7
:105A100007C0AA1FBB1FA617B70710F0A61BB70B1E
:105A2000881F991F5A95A9F780959095BC01CD01C3
:105A300008950F931F93CF93DF938230910510F455
:105A400082E090E0E0910606F091070620E030E069
:105A5000A0E0B0E0309719F14081518102811381BB
:105A600048175907C8F08417950769F4109731F063
:105A700012960C93129713961C9327C00093060658
:105A80001093070622C02115310519F0421753075C
:105A900018F49A01BD01EF01DF01F801DBCF2115F8
:105AA0003105F9F0281B390B2430310580F48A8147
:105AB0009B816115710521F0FB019383828304C0F2
:105AC0009093070680930606FE01329644C0FE01BD
:105AD000E20FF31F81939193225031093983288378
