:100000000C94DF000C9407010C9407010C94070179
:100010000C9407010C9407010C9407010C94070140
:100020000C9407010C9407010C9407010C94070130
:100030000C9407010C9407010C9407010C94070120
:100040000C9481150C9407010C9438140C94121420
:100050000C9407010C9407010C9407010C94070100
:100060000C9407010C940701FE060107040707071B
:100070000A070D07100713074641494C45442074F1
:100080006F2073656E642043414E00000000002421
:100090000027002A00010204081020408001020409
:1000A00008102001020408102004040404040404BD
:1000B00004020202020202030303030303537461F6
:1000C0007274002053636877656C6C653A00204158
:1000D0007573736368616C747665727A6F65676552
:1000E00072756E673A0045696E736368616C747609
:1000F00065727A6F65676572756E673A0041726402
:100100007549522056657273696F6E20006665727C
:1001100074696700206765737065696368657274E8
:100120002000205661726961626C65200020536373
:100130006877656C6C656E77657274200053656EC8
:10014000736F72200053686F72743A204576656E43
:1001500074002020204576656E7420004C6F6E6719
:100160003A204E6F64654E6F200049522D416B74EA
:100170006976200020676573656E64657400777228
:100180006974652076617220746F20656570726F86
:100190006D0000000000250028002B00000000007A
:1001A00023002600290000000008000201000003CF
:1001B000040700000000000000005724532411240D
:1001C0001FBECFEFD8E0DEBFCDBF12E0A0E0B1E0B0
:1001D000EAEDF0E502C005900D92AC34B107D9F715
:1001E00026E0ACE4B2E001C01D92A03CB207E1F70A
:1001F00010E0CEEDD0E004C02197FE010E94282738
:10020000CD3DD107C9F70E94A6190C9460280C9423
:1002100000002F923F925F926F927F928F929F92F7
:10022000AF92BF92CF92DF92EF92FF920F931F9304
:10023000CF93DF9300D0CDB7DEB78091A3068F3F79
:1002400029F48091A2068F3F09F44FC00E947515D2
:100250000091A6061091A7062091A8063091A90644
:10026000DC01CB01801B910BA20BB30B84369105F3
:10027000A105B105D0F1809116069091170605975A
:10028000A9F48091A506813041F460E08091A30635
:100290000E9493141092A5061EC061E08091A306EF
:1002A0000E94931481E08093A50615C08091840577
:1002B000813039F460E08091A2060E94931461E0DD
:1002C00006C061E08091A2060E94931460E08091D4
:1002D000A3060E9493140E9475156093A60670935E
:1002E000A7068093A8069093A9068091AA068F3F3F
:1002F00009F4AEC00E946A142091AB06892B81F4E8
:10030000213009F0A5C00E947515609318067093FE
:10031000190680931A0690931B061092AB0698C09C
:10032000211196C081E08093AB060E947515009163
:1003300018061091190620911A0630911B06DC014F
:10034000CB01801B910BA20BB30B8C019D01095EAD
:100350001340210931090738134121053105A8F45B
:10036000209184058091160690911706213049F45A
:10037000059761F583E090E0909317068093160649
:1003800067C0059709F064C0F5CF81379741A10593
:10039000B10508F45DC080918405811135C080915C
:1003A000160690911706059729F360E08091A20642
:1003B0000E94931480E00E949318809116069091F9
:1003C0001706049719F40E940901F7CF85E090E021
:1003D00090931706809316068091B4059091B50509
:1003E00020E52093850590938605809387051092DC
:1003F00088051092890510928A0510928B0510923B
:100400008C050E94661024C0109284054091C0059E
:100410004B7F4093C0054093660565E170E082E53F
:1004200095E00E946A168091C00581FF09C0809105
:10043000CA059091CB059093B5058093B40506C08D
:100440001092B5051092B40580E090E00E947D18EE
:100450008091160690911706049709F076C00E94C5
:100460007515009118061091190620911A06309101
:100470001B06DC01CB01801B910BA20BB30B893E49
:100480009340A105B10508F460C083E090E090932B
:1004900017068093160620919C06ADE1B6E081E038
:1004A0008217B0F43D919FEF980FE92FF0E0BF0164
:1004B000605B7A4FAB0144535F4FFA014081319644
:1004C000341718F440839150F0CF30838F5FE8CF1A
:1004D00080E090E030E011E0180F8217930744F4B9
:1004E000FC01E45EF94F4081141710F00196F3CF40
:1004F00010935605412F62E170E082E595E00E947D
:100500006A161093B3058091C7058823F1F0809196
:10051000B4059091B50522E5209385059093860555
:1005200080938705109288051092890510928A059C
:1005300010928B0510928C05612F70E080E090E0A6
:1005400025E835E043E00E947C0FEE24E394F12C93
:100550008CE796E048E0542E580E03E010E0772434
:10056000739485E895E058E0652E680E62E6C62E25
:10057000D12C1092C8058091100690911106892BFC
:1005800009F0F7C5F0921106E0921006809114066A
:1005900090911506181619062CF01092110610925B
:1005A0001006E7C58091120690911306CC9724F0AF
:1005B0001092130610921206E6E7F6E0A0911206DA
:1005C000B0911306AE52BA4F8C918193809112066E
:1005D00090911306019690931306809312068091D2
:1005E00014069091150601979093150680931406B2
:1005F00026E0E538F20711F7109211061092100666
:100600008DE895E00E9453168091760680939205BE
:10061000809178068093A805809179068093A9053A
:1006200080917A068093AA0580917B068093AB0522
:10063000ECE7F6E08191DF01AD5DB1098C935E12CC
:10064000F9CF8091A00580939005843008F4B7C05D
:10065000873009F4B4C0282F2F7B2F3309F4AFC0A3
:1006600092EA980F923008F4AAC0982F9F7D9F3984
:1006700009F4A5C0863B09F4A2C08F3D09F49FC0D0
:100680003CEF380F333008F49DC038EF380F33306B
:1006900008F498C03FED380F333008F493C080342D
:1006A00009F490C03CEB380F373008F48BC08C3421
:1006B00009F488C0382F3F7740EA430F423008F4EE
:1006C00081C0333609F47EC0903809F47BC03EE720
:1006D000380F343008F476C0823A09F473C030E43D
:1006E000380F323008F46EC036EA380F323008F472
:1006F0006CC030E7380F353008F467C038E6380F83
:10070000333008F462C09D59923008F45EC0982FCF
:10071000977F905B923008F458C09DE4920F92301E
:1007200008F453C091E3980F933008F44EC09CE254
:10073000980F923008F449C098E2980F923008F46C
:1007400044C093E2980F923008F43FC090E1980FB4
:100750009230D8F19AE0980F9630B8F193E0980F64
:10076000933098F194EF980F923090F190EF980FAA
:10077000923070F1823461F190EB980F9A3040F131
:1007800094EA980F923020F191E9980F973000F198
:100790009BE6980F9330E0F095E6980F9230C0F00A
:1007A000223BB1F0253BA1F09EE2980F923080F001
:1007B000823E71F08F3E61F080E090E00BC084E0FB
:1007C00090E008C081E090E005C083E090E002C0C6
:1007D00082E090E090939405809393058091770652
:1007E000811103C01092AF0502C07092AF0580E086
:1007F0000E94A9108370282E312C359427948DE8FF
:1008000095E00E94D215982E882321F021143104FE
:1008100009F489C48DE895E00E94E7158823C1F0AA
:100820008DE895E00E94FC155C010097B9F0AC01E1
:1008300060E070E082E595E00E94E60820915C05AA
:1008400030E0482F50E0241735070CF485C436C03B
:100850009920F1F02A942328D9F405C0992081F138
:100860002A94232869F58DE895E00E9423160097C5
:1008700079F0AC0160E070E082E595E00E94E60866
:1008800020915C0530E0482F50E024173507B4F480
:100890008DE895E00E94FC155C01892B89F0A5018B
:1008A00060E070E082E595E00E94E60820915C053A
:1008B00030E0482F50E02417350714F08F5F01C057
:1008C00080E08093C8058091AF05882389F08091EE
:1008D000B4059091B505892B59F06091B30570E08E
:1008E00080E090E025E835E040E00E947C0F41CEBA
:1008F0008090160690901706F4E08F16910409F583
:1009000080919205811135CE20919C06233608F006
:1009100030CE8091A905382F329536953770909159
:10092000A80540E1949FC0011124832B80938F057B
:10093000E22FF0E0E45EF94F80832F5F20939C0666
:1009400018CE80919305909194058230910561F1C4
:1009500044F4019709F0D6C3E0919F06F091A006F8
:100960001AC0E0919D06F0919E068330910519F022
:10097000049731F0C7C38091C00580FDC3C30BC08D
:100980008091C00580FDBEC380919005873009F03D
:10099000C6C30C940000309709F4B4C360E575E059
:1009A0008DE895E00995AEC3209190058DE895E01E
:1009B0002A830E943B165C012090B4053090B50557
:1009C0002A818215930571F0C4010297039750F4B0
:1009D0002D3009F475C0203109F4AAC0213109F085
:1009E000C8CDD0C02D3509F4A4C190F5233509F444
:1009F00028C178F4203109F49BC020F42D3009F08F
:100A0000B8CD5EC0213109F4BDC0223409F4EDC077
:100A1000B0CD263509F43CC138F4243509F418C1A9
:100A2000253509F428C1A5CD273509F44AC1283553
:100A300009F09FCD1092AC068091590594E79093F0
:100A400085053092860520928705809388054FC3DF
:100A5000253909F4F8C110F5223709F488C120F4CA
:100A6000213709F46EC185CD233709F4ABC1253791
:100A700009F07FCD1092AC0682E68093B305809397
:100A8000560542E662E170E082E595E00E946A1652
:100A90008091B4059091B50522E521C3223B09F46C
:100AA00081C238F4263909F4FDC12C3909F44FC24A
:100AB00060CD223D09F4A7C2253F09F49CC259CD5F
:100AC0002114310409F455CD1092AC068091B30580
:100AD00090E08215930531F09093B5058093B405AD
:100AE0000E947D188091C0059091BF052091BE05A0
:100AF0003091B4054091B50556EB50938505409370
:100B00008605309387052093880590938905809307
:100B10008A0570928B0587E080938C05B101660F82
:100B2000771F620D731D80E090E00E943B1557C057
:100B30001092AC068091B30590E08215930531F0D8
:100B40009093B5058093B4050E947D188091160698
:100B500090911706059709F00CCDE5E8F5E01192A4
:100B60006E12FDCF8091C2059091C5052091C405FC
:100B70003091C3054091BF055091C1056091BE05FC
:100B80007FEE1DC01092AC068091B30590E08215F7
:100B9000930531F09093B5058093B4050E947D18BC
:100BA0008091BC059091BB052091BA053091B905A3
:100BB0004091B8055091B7056091B60572EE7093FB
:100BC000850560938605509387054093880530938B
:100BD000890520938A0590938B0580938C050E944C
:100BE0006610882309F4C5CC8DC21092AC0685E04E
:100BF0008816910421F58DE895E00E943B169093AC
:100C0000B5058093B4050E947D188091B40590913C
:100C1000B50522E520938505909386058093870589
:100C2000109288051092890510928A0510928B0502
:100C300010928C051093170600931606D0CF83E010
:100C400075C01092AC06109217061092160691CC41
:100C50001092AC068091B30590E08215930531F0B7
:100C60009093B5058093B4050E947D1810931706E4
:100C70000093160669C1892809F07BCC40E067E142
:100C800070E082E595E00E946A161092590571CCD9
:100C90001092AC068091C30590915905891B90E78D
:100CA000909385053092860520928705809388056C
:100CB0001092890510928A0510928B0510928C056E
:100CC0008ECF1092AC06A0905905AA2009F451CC01
:100CD000932CB12C92EF892E1DC0838192812181AA
:100CE0003081809285059092860520928705309309
:100CF00088052093890590938A0580938B05B0928F
:100D00008C050E946610882321F088E790E00E94FD
:100D10000E11B394BA1409F42CCC8B2D0E94DA0E68
:100D2000FC0180916C058823C1F28AE00E94DB10EF
:100D300020CCA214B30409F01CCC81E00E949318CB
:100D400018CC1092AC06B090A3058FEF8B0D0E94CB
:100D5000A91090916C059111E8CF97E990938505C2
:100D60003092860520928705B092880569C010925E
:100D7000AC06E5E8F5E011926E12FDCF0E944F1827
:100D8000B82E8FEF8B0D0E94DA0EFC0180916C055E
:100D9000882311F086E0CACF83819281218130813E
:100DA00042EF409385053092860520928705309367
:100DB00088052093890590938A0580938B05B092CE
:100DC0008C059DC11092AC062091A30521110BC08A
:100DD0008BE98093850530928605209287051092D5
:100DE000880588E02DC0822F90E0FC013197E83023
:100DF000F105E0F4EC5CFF4F0C9428278091BE05D0
:100E000016C08091C10513C08091BF0510C08091AC
:100E1000C3050DC08091C4050AC08091C50507C0F7
:100E20008091C20504C08091C00501C080E09BE9AB
:100E3000909385053092860520928705209388053A
:100E40008093890556C11092AC068DE895E00E940A
:100E500023165C018DE895E00E943B16BC01A501BC
:100E600082E595E00E94E608B82E10921C061092CA
:100E70001D0610921E0610921F06482F6CE176E0A8
:100E800082E595E00E94940A8B1184CF682F70E070
:100E900020E040E082E595E00E94C416882309F432
:100EA00068CB43CF8091AC06811163CBB090A30592
:100EB000BA942091A4059BE1B9121EC02E3F79F48B
:100EC00082E595E00E94140B7092AC06D092B505B5
:100ED000C092B40582E690E00E947D1822E620933D
:100EE000B30520935605422F62E170E082E595E05C
:100EF0002A830E946A162A818091C5058B15F0F01D
:100F0000422F6B2D82E595E00E94FA168091B40580
:100F10009091B50529E520938505909386058093EA
:100F20008705109288051092890510928A05109203
:100F30008B0510928C050E94661006C0EFEFBE165E
:100F400019F089E00E94DB107092C90512CB109253
:100F5000AC060E944F18B82E0E946618A82E8091E9
:100F6000C4058A1508F4E1CE4FEF4A0D6FEF6B0D03
:100F700082E595E00E94FA1790916C059111D5CE0B
:100F80009091B4052091B50535EB309385052093FC
:100F9000860590938705B0928805A0928905809375
:100FA0008A05A9C01092AC06892859F50E946618D6
:100FB000B82E0E94DA0E4C0140E06B2D82E595E0E0
:100FC0000E94FA1790916C059111E4CEF40193817F
:100FD00022813181408153ED5093850540938605F0
:100FE000309387052093880590938905B0928A05F0
:100FF00080938B0582C08091AC068111BACA892882
:1010000079F182E093CE8091AC068111B2CA8DE86D
:1010100095E00E942316882E99830E946618982EC8
:101020002091A605B0921C06A0921D06998190936E
:101030001E0680921F06482F6CE176E082E595E05F
:101040002A830E94940A2A818911A4CE682F70E015
:1010500040E082E595E00E94C416811166CE3AC058
:101060008DE895E00E942316982E99830E946618B9
:10107000882E2091A7052A830E944F18382EB092FF
:101080001C06A0921D06998190931E0690921F0641
:101090004FEF480F6CE176E082E595E00E94940AFC
:1010A000682F70E0432D50E0415051092A816417A8
:1010B000750709F06FCE4FEF480D82E595E00E946D
:1010C000C41690E0282D30E0215031098217930793
:1010D00009F02BCE8091B4059091B50529E52093B8
:1010E0008505909386058093870510928805109258
:1010F000890510928A0510928B0510928C050E942A
:10110000661037CAE0919D06F0919E06309709F46B
:1011100030CA60E575E08DE895E009952ACA8E35FC
:1011200009F437CC38CC8DE895E00E9423165C0199
:101130008DE895E00E943B16A501BC0182E595E093
:101140000E94E60820915C0530E0482F50E024170B
:1011500035070CF45FCBB2CB992009F4A0CB2A94CD
:10116000232809F480CB8DE895E00E94FC155C01F2
:1011700096CB80E00F900F90DF91CF911F910F9150
:10118000FF90EF90DF90CF90BF90AF909F908F90A7
:101190007F906F905F903F902F9008950C94C3279D
:1011A00026E331E0FC013183208382819381009723
:1011B00011F00C94C3270895CF93DF93EC010E94A4
:1011C000D008CE01DF91CF910C94C327BF92CF926C
:1011D000DF92EF92FF920F931F93CF93DF93DC0187
:1011E000252F3327162FC72EDD240C2D1796BC90E4
:1011F0001797EEECF3E090E0772755279B1551F118
:10120000011102C0112379F0E080F180CE14DF04D7
:10121000F1F47F0182E5E80EF11CE701E880F98036
:101220006E157F05A1F47F01D4EAED0EF11CE701F4
:10123000E880F9802E153F0551F47F01D6EFED0EC1
:10124000F11CE701E880F9804E155F0541F09F5FD2
:101250003296D4CF1A969C9181E0890F01C0892FD4
:10126000DF91CF911F910F91FF90EF90DF90CF9082
:10127000BF900895AF92BF92CF92DF92EF92FF920C
:101280000F931F93CF93DF93EC017B01FB01E85891
:10129000FF4F10818091F402882309F4ADC08FEADA
:1012A00091E00E94D611812F0E94C311112309F4ED
:1012B000A5C08091F4028823D1F18FEB91E00E94C8
:1012C000D611812F0E94C3118BEC91E00E94D611A0
:1012D000CE010E94E71597012E5F3F4F69018823D9
:1012E00039F0CE010E94FC15AC0160E070E009C04D
:1012F000CE010E9423165C01CE010E943B16BC0168
:10130000A501C6010E94E608F701ED58FF4F908144
:10131000891730F440E0682FC6010E94FA1701C017
:1013200080E00E94C31188ED91E00E94CD10193039
:10133000A9F40E94161560930F0370931003809315
:101340001103909312030E94161560930B03709380
:101350000C0380930D0390930E03DBC086EF810F87
:101360008F3108F0D6C01950912F9695969513702D
:101370008B81282F277F203919F001E0813009F473
:1013800000E08091F402C92FD0E08823F1F08AE6D2
:1013900091E00E94ED10CE0101960E9405128AE7AD
:1013A00091E00E94D611812F90E001960E940512D3
:1013B0008CE791E00E94D611802F90E0A0E0B0E091
:1013C0004AE0BC01CD010E948211C055DD4F81E091
:1013D00090E0A0E0B0E004C0880F991FAA1FBB1FD7
:1013E0001A95D2F7002319F02881822B03C080952B
:1013F0009881892388838DC0111199CF8091F4023F
:10140000882309F486C0CE010E94D215882389F072
:101410008CE591E00E94ED10CE010E943B160E94E7
:10142000D81182E591E00E94ED10CE010E942316B2
:101430000CC0CE010E94E7158823D9F085E491E025
:101440000E94ED10CE010E94FC15BC0180E090E0EE
:101450004AE00E94821186ED91E0DF91CF911F91C9
:101460000F91FF90EF90DF90CF90BF90AF900C94D2
:10147000BB1089ED91E00E94D6116B8170E080E095
:1014800090E040E10E9482118FED91E00E94D61120
:10149000CE010E943B160E94D81187EE91E00E9477
:1014A000D6116C8D6295669567709B8D30E1939F28
:1014B000C0011124682B6A8370E080E090E04AE06C
:1014C0000E94821180EF91E00E94D6116B8970E03A
:1014D00085E0759567958A95E1F76C83072E000C7A
:1014E000880B990B4AE00E9482118FEF91E00E94D5
:1014F000D6118091160690911706DF91CF911F911A
:101500000F91FF90EF90DF90CF90BF90AF900C9431
:101510002518DF91CF911F910F91FF90EF90DF90F1
:10152000CF90BF90AF900895AF92BF92CF92DF92CD
:10153000EF92FF921F93CF93DF93DC011A961C91D9
:10154000411718F081E0810F4EC0142FFB017C0180
:10155000242F30E0D901AA0FBB1FA253BC4F8081BA
:1015600090E08D939C93D901AA0FBB1FA05EBB4F47
:10157000818190E08D939C93D901AA0FBB1FAE5837
:10158000BB4F828190E08D939C93D901AA0FBB1F22
:10159000AC53BB4F838190E08D939C93D7011B96F6
:1015A0008C911B9790E00496289F6001299FD00C96
:1015B000389FD00C11241D968D919C911E97C80EBA
:1015C000D91E5B01B4E0AB0EB11CEB01C61AD70A01
:1015D000B6016C0F7D1F4991C7010E946A16CA159A
:1015E000DB05B1F7812FDF91CF911F91FF90EF9035
:1015F000DF90CF90BF90AF900895FC0180E090E025
:10160000238530E0821793073CF4A281B381A80FB1
:10161000B91F1C920196F4CF82E68483158286EC72
:1016200086831782148A0895EF92FF920F931F9377
:10163000CF93DF9300D000D0CDB7DEB78C010E94EE
:10164000FD0AF8018285878319821A828EE38B83D3
:1016500084EE8C83E12CF12C4E2DBE016F5F7F4F09
:10166000C8010E94940A8C818F5F8C83811103C012
:101670008B818F5F8B8320E040E0B701C8010E941F
:10168000C416FFEFEF1AFF0A88E0E816F10421F70D
:1016900019821A8282E18B8387E68C8348E0BE013F
:1016A0006F5F7F4FC8010E94940A20E040E068E02D
:1016B00070E0C8010E94C41619821A821B821C8223
:1016C00089E0E82EF12CF801828590E0E816F90611
:1016D0008CF44E2DBE016F5F7F4FC8010E94940AAB
:1016E00020E040E0B701C8010E94C416EFEFEE1AF7
:1016F000FE0AE9CF42E060E0C8010E94FA1640E02D
:1017000069E1C8010E94FA164FEF6AE1C8010E9420
:10171000FA16FF24F39444E06F2DC8010E94FA16D4
:1017200061E06F0D44E6C8010E94FA1662E06F0D99
:101730004BE4C8010E94FA16F3E0FF0E89E1F812AB
:10174000EACF42E66BE1C8010E94FA1640E06CE184
:10175000C8010E94FA1648E560E070E0C8010E94E6
:101760006A16F801448162E170E0C8010E946A16BD
:10177000F801458163E170E0C8010E946A16F80132
:10178000468164E170E0C8010E946A16F80144894C
:1017900065E170E0C8010E946A16F801478167E1BF
:1017A00070E0C8010E946A16F801438568E170E0A4
:1017B000C8010E946A1660E08DEF93E00E946616F1
:1017C00060E08EEF93E00E94661660E08FEF93E09A
:1017D0000E946616C8010E942A170F900F900F9062
:1017E0000F90DF91CF911F910F91FF90EF9008958F
:1017F0002EE431E0FC0121933193CF010C94D00809
:10180000CF93DF93EC010E94F80BCE01DF91CF91D3
:101810000C94C327089584E791E00C940E113F9235
:101820004F925F926F927F928F929F92AF92BF92F0
:10183000CF92DF92EF92FF920F931F93CF93DF939C
:101840001092C90580E00E94A91081FB992790F9A8
:1018500090934C02982F991F9927991F90930703F3
:10186000992339F086FB222720F920930A0380620E
:1018700002C010920A0390E0BC01E5E075956795FF
:10188000EA95E1F76170660F82958170680F609349
:10189000B80280910A03811118C070E06F5F7F4F1A
:1018A00081E792E00E941427709309036093080374
:1018B0008091F402882389F188E092E00E94D61199
:1018C0008091B8020E94C31128C01092B90260E052
:1018D00082E00E94931460E084E00E94931460E030
:1018E00086E00E94931460E088E00E94931461E017
:1018F00083E00E94931461E085E00E94931461E00C
:1019000087E00E94931461E089E00E9493148DE7C0
:1019100090E090930903809308037DE4C72E72E062
:10192000D72E8601C0E08C2F0E94DA0EFC012281A6
:1019300030E0322F22278381282BF8012193319325
:101940008F01CF5FC93279F7C091F002D091F102D7
:101950006AE182E595E00E94181890E0C817D9075F
:1019600009F483C00DE412E0C0E0D0E0812C912C9A
:1019700054018394E090F002F090F1020C2E02C02A
:10198000F594E7940A94E2F76AE182E595E00E9413
:10199000181890E00C2E02C0959587950A94E2F7EE
:1019A000E826F926E0FE45C080919F0290E00C2ECB
:1019B00002C0959587950A94E2F780FD0EC02091AC
:1019C0009F02D501C4010C2E04C0880F991FAA1FC5
:1019D000BB1F0A94D2F7822B0FC090919F02B501D2
:1019E000A4010C2E04C0440F551F661F771F0A94D4
:1019F000D2F74095842F892380939F0280919F0284
:101A000090E00C2E02C0959587950A94E2F790918C
:101A10004C02F8016081718180FF06C081E0911164
:101A200080E00E944F1105C081E0911180E00E948A
:101A30001C1121960E5F1F4FC830D10509F09ACFB7
:101A40006AE182E595E00E94181890E09093F10217
:101A50008093F00280919F0290915B05993128F06C
:101A600090E09093490580934805CAEBD2E000EBE3
:101A700012E083E0382E93E0E92EF12C6624639483
:101A8000712C3BE4A32EB12C40EE842E9924939428
:101A90009801205B324029018091070381111FC00A
:101AA0006EEF630D82E595E00E94181890E0833098
:101AB00091051CF09B838A8302C0FB82EA826FEF50
:101AC000630D82E595E00E94181890E0833091053F
:101AD0001CF09D838C8307C0FD82EC8204C0FD82D4
:101AE000EC82FB82EA82C30102C0880F991F4A94EC
:101AF000E2F72C018091060390E084219521841562
:101B0000950511F58091000190910101892BE1F477
:101B1000809107038823C1F080910A03811114C0CA
:101B2000632D82E595E00E9418188F3F09F065C08B
:101B300090920101809200018091F402882309F4BF
:101B40005CC08CE092E02AC0632D82E595E00E94A3
:101B50001818282F30E03F832E8381508E3F08F4E1
:101B60004CC080910A038823E1F0BF82AE825524E5
:101B70005394530C8091C505831530F04BE4632DCD
:101B800082E595E00E94FA166E81852D0E949710DD
:101B90008091F402882389F18EE192E00E94CD10B9
:101BA0002CC0109201011092000180910603482A76
:101BB00040920603809105032F3F310511F48F7782
:101BC00001C08068809305038091F402882321F08E
:101BD00087E392E00E94CD10E5EFF2E011921192BE
:101BE00093E0E530F907D1F780910703882329F0C6
:101BF0006E8181E0830D0E94971080E090E020E0EC
:101C0000F601E80FF91F42895389452B09F42F5F2C
:101C1000029688309105A1F7F8018081243011F4F3
:101C2000806801C08F7780830F5F1F4FF8E0CF0E71
:101C3000D11C269623E0320E3BE1331229CF8CE1F2
:101C40000E94A910881F8827881F8093F402882388
:101C500029F08CE10E94A9108F7001C083E6809367
:101C60003003DF91CF911F910F91FF90EF90DF90A4
:101C7000CF90BF90AF909F908F907F906F905F902C
:101C80004F903F900895E62FF0E0EE0FFF1FE056D3
:101C9000FD4F81112DC08081918197FF05C081E0AA
:101CA00090E09183808308958230910509F44DC0BE
:101CB000019691838083029709F047C080919F022B
:101CC00090E0062E02C0959587950A94E2F780FD74
:101CD0003CC020919F0281E090E0A0E0B0E004C011
:101CE000880F991FAA1FBB1F6A95D2F7822B2BC0A2
:101CF00080819181181619061CF4118210820895B2
:101D00008F3F2FEF920709F101979183808301960E
:101D1000E1F480919F0290E0062E02C09595879590
:101D20000A94E2F780FF11C020919F0281E090E0C9
:101D3000A0E0B0E004C0880F991FAA1FBB1F6A95DE
:101D4000D2F78095822380939F020895CF92DF92ED
:101D5000FF920F931F93CF93DF931F92CDB7DEB700
:101D6000F82E162F042F60E080917D0579830E9464
:101D7000931482E00E94CB158F2D0E94CB15F12E7B
:101D8000C12E7981D72E8C2D8F19801730F4F60152
:101D900081916F010E94CB15F6CF61E080917D05A6
:101DA0000F90DF91CF911F910F91FF90DF90CF9017
:101DB0000C949314109262051092630510926405BE
:101DC0001092650510926C0590915C05981720F0B3
:101DD00090915905981720F481E080936C0521C0FB
:101DE00090E0FC01EE0FFF1FE253FC4F2081209397
:101DF0006205FC01EE0FFF1FE05EFB4F2081209388
:101E00006305FC01EE0FFF1FEE58FB4F208120936E
:101E10006405880F991FFC01EC53FB4F8081809370
:101E2000650582E695E008951F93CF93DF93182F01
:101E3000C0E5D5E060E08DA50E94931483E00E9488
:101E4000CB15812F0E94CB1580E00E94CB15182F57
:101E500061E08DA50E949314812FDF91CF911F9196
:101E60000895EF92FF920F931F93CF93DF931F92EA
:101E7000CDB7DEB7082F162F80E5E82E85E0F82EC7
:101E800060E0F70185A549830E94931485E00E94D4
:101E9000CB15802F0E94CB15812F0E94CB15498135
:101EA000842F0E94CB1561E0F70185A50F90DF918B
:101EB000CF911F910F91FF90EF900C9493140F937B
:101EC0001F93CF93DF93082F162FC0E5D5E060E076
:101ED0008DA50E94931482E00E94CB15802F0E9452
:101EE000CB15812F0E94CB1561E08DA5DF91CF919D
:101EF0001F910F910C9493147F928F929F92AF92A7
:101F0000BF92CF92DF92EF92FF920F931F93CF93E6
:101F1000DF9300D000D0CDB7DEB710926D0560938F
:101F20006E0570936F05809370059093710549302D
:101F300008F048E04093720510927B05A3E7B5E0F6
:101F4000F90150E0CF01821B930B841795071CF415
:101F500081918D93F7CFC12CD12C70E3A72EE0E4B3
:101F60009E2EF0E58F2E8E010F5F1F4FA3E07A2E7D
:101F7000700EA9829A828B827801F701B1907F015D
:101F80008B2D0E94140F982F987083FD04C0FF249E
:101F9000F394FB0C04C07E10F0CFF12C92E0FFEF25
:101FA000CF1ADF0A923029F422E3C216D10409F7CE
:101FB00078C082E3C816D10409F473C04091720559
:101FC00063E775E085E08F0D0E94A60E80917B058A
:101FD000813029F48091720580648093720560914C
:101FE000720584E08F0D0E945F0F40916E05509145
:101FF0006F05609170057091710580916D0581305C
:10200000B1F44C835B83AB0166277727942F9C71D7
:10201000842F8370E8E09E9F800D112488608A835E
:1020200065E0569547956A95E1F749830DC0CA0169
:1020300023E0969587952A95E1F789834295440F89
:10204000407E4A831C821B8244E0B8018F2D0E948F
:10205000A60EFA9448E068E08F2D0E94310F00E050
:1020600010E00F5F1F4F8F2D0E94140F83FF04C0DD
:1020700002331105B1F717C002331105A1F0109218
:102080006E0510926F0510927005109271051092F6
:10209000720510926D0510927B0510927C0580E010
:1020A00003C086E001C087E00F900F900F900F9063
:1020B000DF91CF911F910F91FF90EF90DF90CF9024
:1020C000BF90AF909F908F907F900895CF93DF93B4
:1020D000C0918505C63B21F0C295C695C77001C069
:1020E000C7E0CF5F81E08093820580938305609194
:1020F000B30570E080E090E025E835E04C2F0E94C9
:102100007C0F811102C080E00FC0D3E06091B30565
:1021100070E080E090E025E835E04C2F0E947C0FD5
:10212000882389F3D15091F7DF91CF910895E0E5AD
:10213000F5E0A4EBB5E09C9111962C9137E935AB15
:1021400026AB97AB80AF61AF12AE13AE14AE0C945A
:10215000661010926C0590915B05891720F08FEF47
:1021600080936C050895E82FF0E0EE0FFF1FEA5E04
:10217000FA4F80810895009769F0FC0101900020DA
:10218000E9F73197AF01481B590BBC0181E393E09C
:102190000C940F1280E090E00895CF93DF930E949B
:1021A000BB10EC0186ED91E00E94BB108C0F9D1FCF
:1021B000DF91CF910895E0E5F5E0A4EBB5E09C91C7
:1021C00011962C913FE635AB26AB97AB80AF11AEA5
:1021D00012AE13AE14AE0C9466100F931F93CF93F0
:1021E000DF938C01C0E0D0E0F801EC0FFD1F64919B
:1021F000662371F0E0913103F09132030190F08198
:10220000E02D81E393E00995892B11F02196ECCF25
:10221000CE01DF91CF911F910F910895CF93DF935E
:102220000E94ED10EC0186ED91E00E94BB108C0F36
:102230009D1FDF91CF9108951F93CF93DF93882344
:10224000A1F0EB018BE10E94A910182F8BE10E94F5
:10225000A91081E980938505109286051093870562
:10226000D0938805C09389050FC08091B4059091E3
:10227000B50529E920938505909386058093870508
:10228000709388056093890510928A0510928B05DA
:1022900010928C05DF91CF911F910C9466101F93C3
:1022A000CF93DF938823A1F0EB018BE10E94A9106B
:1022B000182F8BE10E94A91080E980938505109268
:1022C000860510938705D0938805C09389050FC0B4
:1022D0008091B4059091B50528E9209385059093E8
:1022E0008605809387057093880560938905109211
:1022F0008A0510928B0510928C05DF91CF911F916A
:102300000C9466108F929F92AF92BF920F931F937F
:10231000CF93DF93CDB7DEB7A1970FB6F894DEBFAA
:102320000FBECDBF19A2423008F44AE08E010F5D06
:102330001F4F842E912CA12CB12CA50194010E9439
:10234000DE26E62FB901CA0101501109EA3014F462
:10235000E05D01C0E95CD801EC93232B242B252BF5
:1023600061F7C8010E94BB10A1960FB6F894DEBFBA
:102370000FBECDBFDF91CF911F910F91BF90AF9056
:102380009F908F900895CF93DF93682F70E080E047
:1023900090E04AE00E948211EC0186ED91E00E94FB
:1023A000BB108C0F9D1FDF91CF9108950C94BB1033
:1023B000BC0180E090E04AE00C948211CF92DF9261
:1023C000EF92FF92CF93DF936B017C01E091310399
:1023D000F09132030190F081E02D6DE281E393E012
:1023E0000995EC0166277727CB016C197D098E09C9
:1023F0009F094AE00E9482118C0F9D1FDF91CF91AF
:10240000FF90EF90DF90CF900895BC01990F880B5B
:10241000990B97FD0C94DE114AE00C948211CF9237
:10242000DF92EF92FF920F931F93CF93DF936C0194
:102430007A018B01C0E0D0E0CE15DF0589F0D8012C
:102440006D918D01D601ED91FC910190F081E02D0F
:10245000C6010995892B11F47E0102C02196ECCFAB
:10246000C701DF91CF911F910F91FF90EF90DF9007
:10247000CF900895089580E090E00895FC01538D79
:10248000448D252F30E0842F90E0821B930B54174E
:1024900010F0CF96089501970895FC01918D828DDB
:1024A000981761F0828DDF01A80FB11D5D968C91A8
:1024B000928D9F5F9F73928F90E008958FEF9FEFB3
:1024C0000895FC01918D828D981731F0828DE80F6F
:1024D000F11D858D90E008958FEF9FEF0895FC0129
:1024E000918D228D892F90E0805C9F4F821B9109F6
:1024F0008F739927089581E393E00E946F1221E082
:10250000892B09F420E0822F0895FC01848DDF01DE
:10251000A80FB11DA35ABF4F2C91848D90E0019656
:102520008F739927848FA689B7892C93A089B18945
:102530008C9180648C93938D848D981306C002884F
:10254000F389E02D80818F7D80830895EF92FF9243
:102550000F931F93CF93DF93EC0181E0888F9B8DC6
:102560008C8D981305C0E889F989808185FD24C088
:10257000F62E0B8D10E00F5F1F4F0F731127E02E0B
:102580008C8DE8120CC00FB607FCFACFE889F989E8
:10259000808185FFF5CFCE010E948512F1CF8B8D12
:1025A000FE01E80FF11DE35AFF4FF0820B8FEA891D
:1025B000FB898081806207C0EE89FF896083E8899A
:1025C000F98980818064808381E090E0DF91CF9100
:1025D0001F910F91FF90EF900895CF93DF93EC013F
:1025E000888D8823C9F0EA89FB89808185FD05C033
:1025F000A889B9898C9186FD0FC00FB607FCF5CF6D
:10260000808185FFF2CFA889B9898C9185FFEDCFB4
:10261000CE010E948512E7CFDF91CF91089580E02F
:1026200090E0892B29F00E947B1281110C9400000C
:102630000895833081F028F4813099F08230A1F040
:1026400008958730A9F08830B9F08430D1F48091B2
:1026500080008F7D03C0809180008F778093800001
:10266000089584B58F7702C084B58F7D84BD0895A9
:102670008091B0008F7703C08091B0008F7D8093F0
:10268000B00008954230510509F45EC044F441158C
:10269000510581F04130510509F470C0B7C0443094
:1026A000510509F4A1C00CF487C04530510509F467
:1026B000A2C0ACC0623409F4ACC080EB860F8B3092
:1026C00008F4A7C084EA860F823008F4A2C081E92A
:1026D000860F873008F49DC080E7860F8F3008F49E
:1026E00098C080E5860F873008F493C088E4860F91
:1026F000823008F48EC083E4860F823008F489C0EB
:1027000080E3860F863008F484C088E2860F82302A
:1027100008F47FC083E2860F823008F47AC0633EFB
:1027200009F477C080E1860F823008F472C08DE032
:10273000860F873008F46DC081E06D3F09F468C0F2
:102740006E3F09F063C067C0862F8F7B805986304B
:1027500008F45FC080E5860F853008F45AC080E138
:10276000860F823008F455C08DE0860F823008F461
:1027700050C081E0653F09F049C04DC06B3509F498
:1027800048C088E6860F833008F443C0862F8F7DCB
:102790008D598230F0F188E4860F8230D0F188E2E2
:1027A000860F8230B0F183E2860F823090F188E0AC
:1027B000860F843008F62DC08FED860F833048F1E8
:1027C0008CEB860F873028F16C3419F1603609F1F3
:1027D0006038F9F08EE7860F8430D8F0623AC9F09D
:1027E00081E0613E99F417C0603499F0613689F058
:1027F000613CB1F70EC0603861F08EE7860F84301F
:1028000040F081E0623A39F0613C29F080E00895BF
:10281000089581E0089508950E945B280C94C327D1
:102820000C94C3271F920F920FB60F9211242F936F
:102830003F934F935F936F937F938F939F93AF9348
:10284000BF93EF93FF9381E393E00E948512FF9182
:10285000EF91BF91AF919F918F917F916F915F9118
:102860004F913F912F910F900FBE0F901F90189591
:102870001F920F920FB60F9211242F938F939F9355
:10288000EF93FF93E0914103F09142038081E09147
:102890004703F091480382FD12C0908180914A0362
:1028A0008F5F8F7320914B03821751F0E0914A03A1
:1028B000F0E0EF5CFC4F958F80934A0301C080816C
:1028C000FF91EF919F918F912F910F900FBE0F90DD
:1028D0001F901895CF93DF93282F30E0F901EA5528
:1028E000FE4F8491F901EB56FF4FD491F901E75562
:1028F000FF4FC491CC2391F081110E941913EC2F4A
:10290000F0E0EE0FFF1FE456FE4FA591B491EC915D
:10291000ED2381E090E021F480E002C080E090E0CF
:10292000DF91CF9108951F93CF93DF93282F30E04D
:10293000F901EA55FE4F8491F901EB56FF4FD4910E
:10294000F901E755FF4FC491CC23C9F0162F81112F
:102950000E941913EC2FF0E0EE0FFF1FEE56FE4F12
:10296000A591B4918FB7F894111105C09C91ED2FEA
:10297000E095E92302C0EC91ED2BEC938FBFDF9142
:10298000CF911F910895CF93DF9390E0FC01EB5618
:10299000FF4F2491FC01E755FF4F8491882361F19B
:1029A00090E0880F991FFC01E557FF4FC591D49126
:1029B000FC01EE56FE4FA591B491611109C09FB77D
:1029C000F8948881209582238883EC912E230BC074
:1029D000623061F49FB7F8943881822F8095832309
:1029E0008883EC912E2B2C939FBF06C08FB7F89451
:1029F000E8812E2B28838FBFDF91CF9108958E30F1
:102A000008F08E508770806480937C0080917A00FB
:102A1000806480937A0080917A0086FDFCCF80915B
:102A200078002091790090E0922B08953FB7F894B8
:102A30008091B8069091B906A091BA06B091BB06F4
:102A400026B5A89B05C02F3F19F00196A11DB11D09
:102A50003FBFBA2FA92F982F8827820F911DA11D44
:102A6000B11DBC01CD0142E0660F771F881F991F81
:102A70004A95D1F708958F929F92AF92BF92CF92CD
:102A8000DF92EF92FF926B017C010E9416154B01C1
:102A90005C01C114D104E104F104F1F00E941615A7
:102AA000DC01CB0188199909AA09BB09883E93402A
:102AB000A105B10570F321E0C21AD108E108F108BF
:102AC00088EE880E83E0981EA11CB11CC114D104AD
:102AD000E104F10419F7DDCFFF90EF90DF90CF9084
:102AE000BF90AF909F908F9008952FB7F89460910A
:102AF000B4067091B5068091B6069091B7062FBFC7
:102B000008951F920F920FB60F9211242F933F93A7
:102B10008F939F93AF93BF938091B4069091B50626
:102B2000A091B606B091B7063091B30623E0230F0B
:102B30002D3720F40196A11DB11D05C026E8230FF5
:102B40000296A11DB11D2093B3068093B406909305
:102B5000B506A093B606B093B7068091B8069091DB
:102B6000B906A091BA06B091BB060196A11DB11D90
:102B70008093B8069093B906A093BA06B093BB06AB
:102B8000BF91AF919F918F913F912F910F900FBE69
:102B90000F901F9018958EBD00000DB407FEFDCF5D
:102BA0008EB50895FC019381892F8F7D80598230E5
:102BB00058F080E3890F823038F081E0903F31F0A7
:102BC000913F21F080E0089581E008950895FC018F
:102BD0009381892F8F7D8859823058F088E2890F40
:102BE000823038F081E0983F31F0993F21F080E069
:102BF000089581E0089508951F93CF93DF93EC012A
:102C00001B8141E050E0612F0E9442138823A9F00C
:102C100086E0810F823010F01B3531F42C8930E0D2
:102C2000322F22278D8905C02E8930E0322F2227AE
:102C30008F89A901482BCA0102C080E090E0DF9192
:102C4000CF911F910895CF93DF93EC0142E050E0C4
:102C50006B810E944213882349F02E8930E0322F85
:102C600022278F89A901482BCA0102C080E090E089
:102C7000DF91CF910895CF93DF93EC0140E050E0D6
:102C80006B890E944213882349F02C8930E0322F4F
:102C900022278D89A901482BCA0102C080E090E05B
:102CA000DF91CF910895FC01DC0153964B961D9264
:102CB000A817B907E1F7138E148E158E168E178E8E
:102CC00011A210A212A20895089508950C94D0267E
:102CD0000C94C826CF92DF92EF92FF921F93CF936E
:102CE000DF937C016B01142FCB010E9468168117C2
:102CF00021F0612FC6010E946616F70182852385A7
:102D000030E02C5F3F4F829FE001839FD00D112464
:102D100085859685C80FD91FC535F1E0DF0764F5B5
:102D2000CC0DDD1DCE010E946816811721F0612FA8
:102D3000CE010E946616F7018285238530E02C5F64
:102D40003F4F829FA001839F500D1124858596855A
:102D5000840F951FC80FD91FCE010E9468168117D6
:102D600059F0612FCE01DF91CF911F91FF90EF902D
:102D7000DF90CF900C946616DF91CF911F91FF905A
:102D8000EF90DF90CF9008950F931F93CF938C0116
:102D9000942FD80117964C9150E06417750718F0DE
:102DA00081E0890F23C0D8011B96EC919E17C0F7D4
:102DB000422FC92FDB01C8016C2F70E09B012C5FF3
:102DC0003F4FF0E03496AE9FB001AF9F700DBE9FB5
:102DD000700D1124D8011D96ED91FC911E976E0F78
:102DE0007F1F620F731F0E946A168C2FCF911F9155
:102DF0000F910895EF92FF921F93CF93DF93FC0101
:102E00002185261708F1142F7C01C62FD0E0FE0182
:102E1000EE0FFF1FEA5EFA4F842F90E091838083CC
:102E20006996CE010E946816181771F08EE791E03E
:102E30000E940E11412FBE01C701DF91CF911F915A
:102E4000FF90EF900C946A16DF91CF911F91FF9045
:102E5000EF9008954F925F926F927F928F929F9220
:102E6000AF92BF92CF92DF92EF92FF920F931F9398
:102E7000CF93DF931F92CDB7DEB78C010E94FD0A7E
:102E8000F8012285838590E00496289F6001299FA0
:102E9000D00C112485859685C80ED91EF5E5CF1670
:102EA000F1E0DF060CF06DC08FEF93E00E94681632
:102EB000582E8EEF93E00E946816F82E8DEF93E067
:102EC0000E9468165F1491F0581691F0F81207C02E
:102ED0006F2D8EEF93E00E9466165F2C01C0512C7F
:102EE0005601AA0CBB1CE12CF12C26C05816C1F3CC
:102EF000652D8FEF93E00E946616F2CFC7010E9406
:102F00006816682F37016C0C7D1CC30169830E9411
:102F10006816482E47018A0C9B1CC4010E94681643
:102F20006981641591F068130BC0C3010E94661695
:102F300053948FEFE81AF80AEC14FD04FCF20CC06D
:102F40004812F7CF642DC701F1CF681791F353945E
:102F5000C4010E946616EDCF8FEF93E00E946816C1
:102F6000581679F0652D8DEF93E00E946616652D59
:102F70008EEF93E00E946616652D8FEF93E00E941E
:102F8000661680E090E00E946816883519F0C80146
:102F90000E94140B82E190E00E946816F80184837D
:102FA00083E190E00E946816F801858384E190E057
:102FB0000E946816F801868385E190E00E946816F9
:102FC000F801848B87E190E00E946816F8018783FE
:102FD0000F90DF91CF911F910F91FF90EF90DF90B5
:102FE000CF90BF90AF909F908F907F906F905F90A9
:102FF0004F900895FC01128E87816817B0F42385E5
:10300000421798F450E04C5F5F4F30E02C5F3F4F29
:10301000629FD001639FB00D1124858596858A0F2C
:103020009B1F840F951F0C9468168FEF828F089555
:10303000FC01128E8185681728F4862F90E049964E
:103040000C9468168FEF828F0895CF93DF93BC01A5
:10305000990F880B990B97FF03C00E94DE1103C0E4
:103060004AE00E948211EC0186ED91E00E94BB10C3
:103070008C0F9D1FDF91CF910895CF93C82F482FBC
:1030800060EE8FE00E94310F8FE00E94140F807E6F
:1030900091E08C1301C090E0892FCF910895809129
:1030A0009005823721F08C3911F0853B19F480911D
:1030B000A3050895853F19F48091A5050895823FE1
:1030C00019F48091A705089580E0089580919005F6
:1030D0008C3911F0853B19F48091A4050895823B49
:1030E00011F0823D19F48091A5050895853F19F4EA
:1030F0008091A605089580E00895CF93DF93C0E501
:10310000D5E09F838887492F63E170E082E595E0F1
:103110000E946A16488564E170E082E595E0DF91DF
:10312000CF910C946A16CF93DF93CDB7DEB7289773
:103130000FB6F894DEBF0FBECDBF10929C068093F1
:10314000C70584E090E0909317068093160682E00E
:103150008093820583E0809383056091B30570E0DE
:1031600080E090E09E012F5F3F4FF90148E0420F61
:1031700011924E13FDCF41E040937B0540E00E9449
:103180007C0F10927B050E94751560931806709352
:10319000190680931A0690931B0628960FB6F8948A
:1031A000DEBF0FBECDBFDF91CF910895EF92FF92AA
:1031B0000F931F93CF93DF931F92CDB7DEB7182FD6
:1031C000F62EE42E60E080917D0579830E949314B1
:1031D00083E00E94CB15812F0E94CB150F2D7981A2
:1031E000172FF12CFE1459F0F8E0FF1641F080E0A3
:1031F0000E94CB15F80181938F01F394F3CF61E026
:1032000080917D050F90DF91CF911F910F91FF90DD
:10321000EF900C9493140F931F93CF93DF9300D0F0
:1032200000D0CDB7DEB7182F10926D0510926E0545
:1032300010926F05109270051092710544E0BE0166
:103240006F5F7F4F0E94D6188A819981482F50E086
:1032500065E0559547956A95E1F728E0929F400D06
:10326000511D1124052E000C660B770B40936E0543
:1032700050936F05609370057093710583FF29C0AB
:1032800092E0440F551F661F771F9A95D1F7837000
:10329000480F511D611D711D762F652F542F442736
:1032A0008B81480F511D611D711D762F652F542F85
:1032B00044278C81480F511D611D711D40936E057F
:1032C00050936F05609370057093710581E0809352
:1032D0006D058FEF810F0E94140F082F84E0810F7E
:1032E0000E94140F482F03FF04C081E080937B05E8
:1032F00002C010927B054F704093720563E775E042
:1033000085E0810F0E94D6180F900F900F900F90BC
:10331000DF91CF911F910F9108951F93CF93DF936A
:10332000C0E5D5E060E08DA50E94931480EA0E947C
:10333000CB1580E00E94CB15182F61E08DA50E946F
:103340009314812FDF91CF911F910895CF93DF9335
:1033500000D000D000D0CDB7DEB7789484B58260BD
:1033600084BD84B5816084BD85B5826085BD85B529
:10337000816085BD80916E00816080936E001092A7
:103380008100809181008260809381008091810022
:1033900081608093810080918000816080938000B3
:1033A0008091B10084608093B1008091B000816011
:1033B0008093B00080917A00846080937A0080913D
:1033C0007A00826080937A0080917A008160809395
:1033D0007A0080917A00806880937A001092C10010
:1033E00062E08FEF0E94C31408E0A02E01E0B02E2F
:1033F00080E1C82E81E0D82E9CE1E92E93E0F92EE1
:1034000061E0F50181915F010E94C314F601119101
:103410006F0160E0812F0E94C314812F0E94FF146E
:10342000812F0E94FF14F701819391937F01F0E1B6
:10343000AF16F1E0BF0621F7A6EBB5E0FD01119252
:1034400025E0EE3BF207D9F7E7E6F1E081918D93B5
:1034500041E0EE36F407D1F788E58093BF058DE0B3
:103460008093BE0587E38093C10581E08093C20508
:103470008091C00583608093C00586EC90E0A0E059
:10348000B0E08093CA059093CB05A093CC05B09390
:10349000CD058AE399E090939E0680939D068AE08D
:1034A00080937D0561E00E94C31461E080917D05F9
:1034B0000E949314A4E18A2E912CB3EBAB2EB0E0C2
:1034C000BB2E1FE9E12E10E0F12EDFB6F8948091BB
:1034D0001303811125C0F5018491F701249190E037
:1034E000880F991F85579F4FFC01A591B4918C912E
:1034F000282321F461E08AE00E94931461E08AE0CD
:103500000E94C3148CB580618CBD8CB580648CBD69
:1035100061E08DE00E94C31461E08BE00E94C3145F
:10352000809113038F5F80931303DFBE60E080916F
:103530007D050E94931480EC0E94CB1561E0809180
:103540007D050E9493146AE070E080E090E00E94A4
:103550003B1580E80E943D18882391F06AE070E0F6
:1035600080E090E00E943B156EE170E080E090E02A
:103570000E943B15F1E08F1A910809F0A6CF4BC0CD
:103580006AE070E080E090E00E943B1561E08AE232
:103590000E945F0F61EB89E20E945F0F65E088E2A5
:1035A0000E945F0F6AE070E080E090E00E943B15AF
:1035B00010E360E0812F0E945F0F60E080E1810FE7
:1035C0000E945F0F60E080E2810F0E945F0F1F5F2B
:1035D0001E3379F760E080E60E945F0F60E080E7CD
:1035E0000E945F0F63E08BE20E945F0F44E064E69D
:1035F00080E60E94310F40E060E680E70E94310FD4
:1036000080E00E943D188111A9CF6AE070E080E05F
:1036100090E00E943B158FEF8093AA068CE10E94F8
:10362000A910881F8827881F8093F402E091410326
:10363000F091420382E08083E0913D03F0913E03EC
:103640001082E0913F03F091400380E1808310926B
:103650004903E0914503F091460386E08083E091C1
:103660004303F0914403808180618083E0914303B0
:10367000F0914403808188608083E0914303F0915E
:103680004403808180688083E0914303F091440388
:1036900080818F7D808388ED91E00E94CD108DEF39
:1036A00090E00E94ED1081E090E00E9405128FE60C
:1036B00091E00E94D61187E090E00E94251888EDE5
:1036C00091E00E94CD108091F402811110C01092FF
:1036D000A20681E08093A30661E080E00E94C3140B
:1036E0008091A3068F3F19F061E00E94C3146AE144
:1036F00082E595E00E94181890E09093F102809383
:10370000F0020E940F0C60EB862E62E0962E7DE4A4
:10371000C72E72E0D72EEAEB4E2EE2E05E2E560167
:1037200000E010E081E791E00E94D6110F5F1F4F8B
:10373000C8010E94051289E791E00E94D611F501A7
:10374000819191915F010E94D8118CE791E00E94D4
:10375000D61186EE90E00E94ED10F20182819381F5
:103760000E9405128EEC90E00E94ED10F20184811F
:1037700095810E94051283EC90E00E94ED10F20109
:10378000868197819C01220F331F820F931F4496DD
:103790000E940512F40181914F0187FF21C088ED3D
:1037A00091E00E94CD10F6E04F0E511C28E0C20EB1
:1037B000D11C0830110509F0B5CF88ED91E00E94C9
:1037C000CD108DEB90E00E940E1188248394912CF3
:1037D0003CE3232E312C412C512C32014394E1C087
:1037E00080E891E00E94D611E12CF12C36016E0C9C
:1037F0007F1CF30182899389892B49F08DEA91E03E
:103800000E94D611F301828993890E94D811F2E0B7
:10381000EF0EF11C28E0E216F10441F7C0CF6093EF
:103820002C0370932D0380932E0390932F0310E0AD
:1038300001E00E948D19837009F040C6113009F033
:10384000D1C00E9409018091C90581110E940F0C0D
:1038500080910B0390910C03A0910D03B0910E0386
:103860000097A105B10509F0BFC080910A03882324
:1038700009F4FFC0F090B902AF2CB12C85010E5FA6
:103880001F4F07701127F501E05FFE4F80810E94F6
:103890006A14D82E4FEFA41AB40AF501E05FFE4F68
:1038A00080810E946A14E82E6F2D8D2D0E94430E98
:1038B00061E06F0D8E2D0E94430E80919F0290E07B
:1038C0000F2C02C0959587950A94E2F780FDAEC053
:1038D00080919F0290E00F2C02C0959587950A94E5
:1038E000E2F780FFAFC080919F0290E00F2C02C0F2
:1038F000959587950A94E2F780FDB0C00093B902D0
:103900008091000190910101803E91400CF447C0EC
:103910008FEF9FEF909301018093000145EF52E0FC
:103920005D834C836AEB72E07A83698304E010E084
:1039300020E030E064E1E62EF12C7AE0C72ED12CB5
:10394000A401022E02C0440F551F0A94E2F7809191
:10395000060390E084239523F90131965F018417D3
:10396000950709F4CEC4EC81FD8111921192FD837B
:10397000EC83950149815A814A5F5F4F5A8349839D
:103980000D5F1F4F28303105D9F610920603809144
:10399000F402882321F08DE091E00E940E110E9434
:1039A0000F130E94161560930F03709310038093FA
:1039B00011039093120300912C0310912D03209179
:1039C0002E0330912F036B017C01C01AD10AE20A49
:1039D000F30A49EEC41643E0D406E104F10408F406
:1039E00030CF1DCF11E025CFC0900F03D090100332
:1039F000E0901103F0901203C81AD90AEA0AFB0AF0
:103A00004091B4055091B50520E137E2429FC001D5
:103A1000439F900D529F900D1124A0E0B0E08C15B3
:103A20009D05AE05BF0508F4DFC51FCF80919F023D
:103A300090E00A2C02C0959587950A94E2F780FFE2
:103A40006FC646CF80919F0290E00A2C02C09595E8
:103A500087950A94E2F780FD6DC645CF80919F025D
:103A600090E002C095958795AA94E2F780FD6EC616
:103A700045CF8091080390910903092E000CAA0BF1
:103A8000BB0B40910F035091100360911103709193
:103A9000120384179507A607B70708F031CF809166
:103AA00007035091B9025983882309F4E0C1C52E58
:103AB000D12C76016FEFE61AF60A870107701127FD
:103AC000F601E05FFE4F2081822F2E830E94FF14BB
:103AD0005C018091B8022E81823020F4822F0E94F6
:103AE000FF145C01F601E85FFE4F61E080810E94F7
:103AF000931480910001909101019601220F331FD0
:103B0000803E71E09707D0F440910503F901EB5036
:103B1000FD4F47FF0CC0408151814A0D5B1D518311
:103B200040830196909301018093000107C080813A
:103B30009181A816B90610F4B182A082C701880F3E
:103B4000991FE80EF91EF701EE0FFF1FE654FD4F17
:103B500080819181880F991F880F991FF901E05684
:103B6000FD4F8A159B050CF097C08081918197FFCE
:103B700003C09182808273C1A701440F551FDA01EF
:103B8000AA54BD4F4D915C918417950709F467C104
:103B90000196918380838417950709F060C1E981BC
:103BA000E695E695E695F0E0EE0FFF1FE051FD4F3C
:103BB00080819181098002C0959587950A94E2F7EA
:103BC0007C01E1E0EE22FF2480FF19C080919F027A
:103BD00090E0098002C0959587950A94E2F780FDF0
:103BE0003EC140919F02D301C201098004C0880FE9
:103BF000991FAA1FBB1F0A94D2F7842B1AC0809169
:103C00009F0290E0098002C0959587950A94E2F79B
:103C100080FF25C190919F02B301A201098004C0D9
:103C2000440F551F661F771F0A94D2F74095842FC3
:103C3000892380939F0280919F0290E0098002C0B7
:103C4000959587950A94E2F790914C02F901E35B10
:103C5000FD4F6081718180FF06C081E0911180E09D
:103C60000E944F1105C081E0911180E00E941C115B
:103C700080919F0290915B05993128F090E090939C
:103C80004905809348058091F402882309F4E7C030
:103C9000EF2809F4A0C0A2C08081918118161906EE
:103CA0001CF411821082DBC0A701440F551FDA01FA
:103CB000A854BD4F4D915C9166277727681B790BFF
:103CC0006417750709F4CBC0BC0161507109718399
:103CD00060836401C81AD90AC416D50609F0BFC0AA
:103CE000E981E695E695E695F0E0EE0FFF1FE051DD
:103CF000FD4F80819181098002C0959587950A9436
:103D0000E2F77C0141E0E422FF2480FF1BC08091A8
:103D10009F0290E0098002C0959587950A94E2F78A
:103D200080FF9DC090919F02B301A201098004C051
:103D3000440F551F661F771F0A94D2F74095842FB2
:103D4000892318C080919F0290E0098002C0959558
:103D500087950A94E2F780FD82C040919F02D301CB
:103D6000C201098004C0880F991FAA1FBB1F0A94B3
:103D7000D2F7842B80939F0280919F0290E009806C
:103D800002C0959587950A94E2F790914C02F9014B
:103D9000E35BFD4F6081718180FF06C081E091117E
:103DA00080E00E944F1105C081E0911180E00E94E7
:103DB0001C1180919F0290915B05993128F090E051
:103DC00090934905809348058091F402882309F473
:103DD00046C0EF2819F083E691E002C08FE591E03C
:103DE0000E94D6118CE891E00E94D6118091B90210
:103DF00090E001960E94051286E991E00E94D6119A
:103E0000E091B902F0E0EE0FFF1FE35BFD4F808110
:103E100091810E94D8118CEA91E00E94D611809184
:103E20009F0290E00090B90202C0959587950A9490
:103E3000E2F780FD03C083E691E002C08FE591E0E8
:103E40000E94D61180914C02811103C089E591E056
:103E500002C082E591E00E94D6110E940B0C0093F3
:103E6000B902F801E85FFE4F60E0808147C25981E6
:103E7000052F10E058016FEFA61AB60A750177E01A
:103E8000E722FF24F801E05FFE4F2081822F2E837E
:103E90000E94FF146C018091B8022E81823020F4C0
:103EA000822F0E94FF146C01F701E85FFE4F208112
:103EB0002B8360E0822F0E949314809100019091E7
:103EC0000101803E41E09407C0F49801220F331FA6
:103ED000F901EB50FD4FD901A45EBC4F2D913C91EF
:103EE0002C193D0940815181240F351F31832083D6
:103EF00001969093010180930001F801E055FD4F78
:103F00008081882309F4A1C1000F111FF801E45E2C
:103F1000FC4F808191819501220F331F2A0D3B1D9B
:103F2000BC016C197D09F901EE0FFF1FE654FD4F2E
:103F300040815181FA01EE0FFF1F4E0F5F1F4C5E53
:103F40005F4FF801E056FD4F461757070CF09AC037
:103F5000C816D9060CF096C08081918197FF03C0E6
:103F600091828082AEC1220F331FD901AA54BD4F66
:103F70002D913C918217930709F4A3C10196918377
:103F800080838217930709F09CC1E981E695E69545
:103F9000E695F0E0EE0FFF1FE051FD4F808191812B
:103FA000098002C0959587950A94E2F76C0151E06B
:103FB000C522DD2480FF19C080919F0290E0098016
:103FC00002C0959587950A94E2F780FD7AC1209109
:103FD0009F02D301C201098004C0880F991FAA1F44
:103FE000BB1F0A94D2F7822B1AC080919F0290E0E7
:103FF000098002C0959587950A94E2F780FF61C118
:1040000090919F02B301A201098004C0440F551F83
:10401000661F771F0A94D2F74095842F89238093D7
:104020009F0280919F0290E0098002C0959587953C
:104030000A94E2F790914C02F801E35BFD4F608136
:10404000718180FF06C081E0911180E00E944F11D4
:1040500005C081E0911180E00E941C1180919F02B7
:1040600090915B05993128F090E0909349058093F9
:1040700048058091F402882309F423C1CD2809F46E
:104080009FC0A1C080819181181619061CF411826D
:10409000108217C1220F331FD901A854BD4F2D9193
:1040A0003C9144275527481B590B4217530709F4E5
:1040B00008C1AC014150510951834083B401681BD0
:1040C000790B6217730709F0FCC0E981E695E69564
:1040D000E695F0E0EE0FFF1FE051FD4F80819181EA
:1040E000098002C0959587950A94E2F76C0171E00A
:1040F000C722DD2480FF1BC080919F0290E00980D1
:1041000002C0959587950A94E2F780FFDAC09091F6
:104110009F02B301A201098004C0440F551F661F0E
:10412000771F0A94D2F74095842F892318C0809175
:104130009F0290E0098002C0959587950A94E2F766
:1041400080FDBFC020919F02D301C201098004C03D
:10415000880F991FAA1FBB1F0A94D2F7822B809346
:104160009F0280919F0290E0098002C095958795FB
:104170000A94E2F790914C02F801E35BFD4F6081F5
:10418000718180FF06C081E0911180E00E944F1193
:1041900005C081E0911180E00E941C1180919F0276
:1041A00090915B05993128F090E0909349058093B8
:1041B00048058091F402882309F483C0CD2819F0C2
:1041C00083E691E002C08FE591E00E94D6118CE871
:1041D00091E00E94D6118091B90290E001960E9470
:1041E000051286E991E00E94D611E091B902F0E053
:1041F000EE0FFF1FE35BFD4F808191810E94D8117C
:104200008CEA91E00E94D61180919F0290E000908C
:10421000B90202C0959587950A94E2F780FD03C024
:1042200083E691E002C08FE591E00E94D611809173
:104230004C02811103C089E591E002C082E591E062
:104240000E94D6110E940B0C3CC080919F0290E00E
:10425000098002C0959587950A94E2F780FF13C004
:10426000E981E695E695E695F0E0EE0FFF1FE05157
:10427000FD4F80819181098002C0959587950A94B0
:10428000E2F780FDD4C280919F0290E0098002C0D5
:10429000959587950A94E2F780FD13C0E981E6952C
:1042A000E695E695F0E0EE0FFF1FE051FD4F8081AF
:1042B0009181098002C0959587950A94E2F780FF65
:1042C000D4C2E092B902F701E05FFE4FD0808D2D9D
:1042D0000E94FF148701000F111F045E1C4FF8019C
:1042E000918380838091B802823030F48D2D0E94BA
:1042F000FF14F8019183808361E08B810E94931405
:10430000FFCA9091070380910503EC81FD819923F9
:1043100021F190910A03911120C087FF0EC0808186
:1043200091814E96B1010E940027F9E0F69FC001ED
:10433000F79F900D1124B60131C0808191819C01BD
:104340002C5E3F4F40E054E0481B590BCA01B601B8
:104350000E940027620F731F25C087FF12C0808153
:1043600091814E96B1010E940027FCE0F69FC001AA
:10437000F79F900D1124B6010E9400276C5E7F4FBD
:104380000FC0808191814E96B1010E940027F3E118
:10439000F69FC001F79F900D1124B7010E940027DE
:1043A000EC81FD81718360838091F4028823C9F0E0
:1043B0008DE391E00E94ED10C5010E9405128DE28F
:1043C00091E00E94ED108DEA91E00E94D611EC81FF
:1043D000FD81808191810E94D8118DEA91E00E9437
:1043E000D611EC81FD8180819181449710F4F18296
:1043F000E08220910703EC81FD818081918122235D
:1044000039F096958795969587959183808309C015
:10441000449763E070E00E940027EC81FD81718386
:104420006083EC81FD8180819181892B11F49182DF
:104430008082EC81FD81808191818F3F910520F008
:104440004EEF50E051834083EC81FD814081842F09
:104450009181E981FA81268137812817390709F48A
:1044600082CA978386830B836FEF600F8091C505A7
:10447000861720F082E595E00E94FA168091F402FA
:104480008823A9F082E291E00E94ED10C8010E9409
:1044900005128DEA91E00E94D611E981FA818681A8
:1044A00097810E94051284E191E00E94ED10E9815C
:1044B000FA8166818B810E94971055CA0E948D19DE
:1044C000111108C080FF8ECA81E60E940B1940E0DE
:1044D00061E007C081FFB2C981E70E940B1940E08B
:1044E00062E08CE20E94310F4091720580E090E022
:1044F0002091720530E0821793074CF4FC01E05BD9
:10450000FA4F23A1E05CFE4F20830196F1CF80910A
:104510007E0580938C0680917F0580938D06809127
:10452000800580938E068091810580938F0640934D
:104530008A0680917B05811103C010928B0602C010
:1045400000938B068091100690911106892B09F03B
:1045500075C961E070E07093110660931006809158
:104560000E0690910F06CC9724F010920F06109231
:104570000E06EAE8F6E080910E0690910F06219172
:10458000DC01AE52BA4F2C93019690930F068093A4
:104590000E068091140690911506019690931506CB
:1045A0008093140676E0E939F70729F7CD97BCF038
:1045B00080911206909113060F968C3391052CF47E
:1045C000909313068093120604C010921306109263
:1045D00012068CE390E090931506809314061092D7
:1045E0001106109210062AC98091070381118FC00D
:1045F0009DE4C92E92E0D92EE12CF12C80919F02EE
:1046000090E00E2C02C0959587950A94E2F7909160
:104610004C02F6016081718180FF06C081E091113A
:1046200080E00E944F1105C081E0911180E00E945E
:104630001C118091F40287010F5F1F4F882309F43A
:1046400053C0E091B902E695E695E695F0E0EE0FED
:10465000FF1FE051FD4F808191810E2C02C0959586
:1046600087950A94E2F780FF0BC080919F0290E04B
:1046700002C095958795EA94E2F780FD0BC00DC0C6
:1046800080919F0290E002C095958795EA94E2F7A9
:1046900080FD03C083E691E002C08FE591E00E94B7
:1046A000D6118CE891E00E94D611C8010E94051233
:1046B00086E991E00E94D611F601808191810E94E5
:1046C000D81180914C02811103C089E591E002C0AC
:1046D00082E591E00E94D6110E940B0C6AE070E026
:1046E00080E090E00E943B157801F2E0CF0ED11CF3
:1046F0000830110509F082CF80919F0290915B05EF
:10470000993128F090E090934905809348051092E4
:104710000B0310920C0310920D0310920E03A5C808
:10472000EF2DE695F0E0EE0FFF1FEC5EFC4F91825F
:104730008082CEC8EF2DE695F0E0EE0FFF1FEC5E15
:10474000FC4F82E090E091838083CDC8F694EF2DFA
:10475000F0E0EE0FFF1FEC5EFC4F80819181892B12
:1047600009F4CCC88FE991E00E94D6118091B9027A
:1047700090E001960E940512E091B902E695F0E002
:10478000EE0FFF1FEC5EFC4F80819181019719F4C1
:1047900086EA91E002C089EA91E00E94CD1086E9A4
:1047A00091E00E94D611E091B902F0E0EE0FFF1FF8
:1047B000E35BFD4F808191810E94D8118CEA91E0EA
:1047C0000E94D61180914C02811103C089E591E0CD
:1047D00002C082E591E00E94D6110E940B0C8091EC
:1047E000B902282F269530E07901EE0CFF1CF70165
:1047F000EC5EFC4F2081318140914C0290E0880FAB
:10480000991FFC012130310519F4E35BFD4F02C013
:10481000E15BFD4F6081718181E0411180E00E9488
:104820004F11F701EC5EFC4F1182108267C8000F38
:10483000111FF801E35BFD4F6081718181E0909170
:104840004C02911180E00E941C1190919F02B301D3
:10485000A201098004C0440F551F661F771F0A94E8
:10486000D2F74095842F89231BC0000F111FF80138
:10487000E35BFD4F6081718181E090914C02911169
:1048800080E00E944F1120919F02D301C201098054
:1048900004C0880F991FAA1FBB1F0A94D2F7822B4E
:1048A00080939F020ECD80E595E00C94F80B8F92DB
:1048B0009F92AF92BF92CF92DF92EF92FF920F93AF
:1048C0001F93CF93DF93CDB7DEB7C654D1090FB690
:1048D000F894DEBF0FBECDBF1092340310923303A5
:1048E00088EE93E0A0E0B0E0809335039093360328
:1048F000A0933703B09338038CE191E09093320397
:104900008093310385EC90E090933E0380933D03C8
:1049100084EC90E09093400380933F0380EC90E020
:10492000909342038093410381EC90E09093440381
:104930008093430382EC90E0909346038093450379
:1049400086EC90E0909348038093470310924A03CB
:1049500010924B0310924C0310924D038EE491E0A1
:10496000909351058093500586E391E09093530511
:104970008093520586E491E090938E0580938D0597
:104980008DE895E00E9453168EE391E09093B20576
:104990008093B105E6EBF5E080E3819395E0EE3B93
:1049A000F907D9F78EE291E09093D1058093D00575
:1049B00010920F0610920E06109211061092100619
:1049C00010921306109212061092150610921406F9
:1049D0001092AC061092C60510929C0687E1FE016B
:1049E0003196ADE6B5E001900D928A95E1F78CE342
:1049F000FE013396A2EDB5E001900D928A95E1F7A4
:104A000086E391E09A8389838DE18A8789E28B87A7
:104A100081E08C878D8786E3888B88E390E09F8791
:104A20008E8781E090E00E942E279C838B83CE01AD
:104A300001960E94FD0ACE0101960E942A1746E1C6
:104A4000E42E45E0F42E10E0612FCE0101960E9485
:104A5000181890E0F701819391937F011F5F1D313A
:104A600099F7EB8498843EECA32E33E0B32ECC84EC
:104A7000D12CF4E0CF0ED11C0E851F85F12C88249B
:104A80008394198A1A8A1B8A1C8A1B8EEF1410F0D1
:104A90009F1410F48B8E13C0C8010E946816898B76
:104AA000C80101960E9468168A8BC80102960E946E
:104AB00068168B8BC80103960E9468168C8B8989B7
:104AC00090E0F501819391935F01E05BFF4F8A894C
:104AD00090E091838083EE5AFF4F8B8990E0918321
:104AE0008083EE5AFF4F8C8990E091838083F3940A
:104AF0000C0D1D1DF9E2FF12C4CF8B819C81909398
:104B00005505809354058D81809356058E819F8134
:104B1000909358058093570588858093590589851A
:104B200080935A058A8580935B05E0925C058C85AD
:104B300080935D058D8580935E058E859F8590931E
:104B4000600580935F0588898093610589899A89CA
:104B5000AB89BC898093620590936305A09364053B
:104B6000B09365058D89809366058E899F899093A2
:104B7000680580936705888D80936905898D80938A
:104B80006A058A8D80936B058B8D80936C05CE01B1
:104B900001960E94D008FE013696CE010E9620E3C3
:104BA0002193E817F907E1F78B818093B3058C8196
:104BB0009D819093B5058093B40588E0FE013696FB
:104BC000A6EBB5E001900D928A95E1F78E85809372
:104BD000BE058F858093BF0588898093C00589892C
:104BE0008093C1058A898093C20589E28093C305B9
:104BF0008DE18093C50511E01093C40586E491E032
:104C00009A838983CE0101960E9453168B818093EB
:104C10008F058C81809390058D81809391058E8185
:104C2000809392058F819885909394058093930546
:104C300089859A8590939605809395058B859C85AB
:104C400090939805809397058D859E8590939A05FE
:104C5000809399058F85988990939C0580939B05F7
:104C600089899A8990939E0580939D058B8980936D
:104C70009F0588E0FE017496A0EAB5E001900D92D0
:104C80008A95E1F78C8D9D8DAE8DBF8D8093A805A3
:104C90009093A905A093AA05B093AB0588A1809332
:104CA000AC0589A19AA19093AE058093AD058BA127
:104CB0008093AF058CA18093B0058091C60581607B
:104CC0008093C6051092C7050FEF0093A2060093CC
:104CD000A3061093A4061092A5060E947515609372
:104CE000A6067093A7068093A8069093A906109233
:104CF0009E0610929D061092AE061092AD0610927E
:104D0000C8051093C9050093AA061093AB0686EC5C
:104D100090E0A0E0B0E08093CA059093CB05A0930B
:104D2000CC05B093CD0582E595E00E942A178091CD
:104D3000570590E0982F882720915805822B909353
:104D40006805809367059093B5058093B4058091BD
:104D500056058093B30582E08093C00583E090E020
:104D60009093170680931606CA5BDF4F0FB6F89430
:104D7000DEBF0FBECDBFDF91CF911F910F91FF908E
:104D8000EF90DF90CF90BF90AF909F908F9008955D
:104D9000F999FECF92BD81BDF89A992780B5089503
:104DA000262FF999FECF1FBA92BD81BD20BD0FB647
:104DB000F894FA9AF99A0FBE01960895A1E21A2E74
:104DC000AA1BBB1BFD010DC0AA1FBB1FEE1FFF1FAF
:104DD000A217B307E407F50720F0A21BB30BE40BFF
:104DE000F50B661F771F881F991F1A9469F7609546
:104DF0007095809590959B01AC01BD01CF01089500
:104E0000AA1BBB1B51E107C0AA1FBB1FA617B707F0
:104E100010F0A61BB70B881F991F5A95A9F780950C
:104E20009095BC01CD01089597FB072E16F40094D0
:104E300007D077FD09D00E94002707FC05D03EF47B
:104E4000909581959F4F0895709561957F4F089536
:104E5000EE0FFF1F0590F491E02D0994CF93DF939F
:104E60008230910510F482E090E0E091BE06F0916E
:104E7000BF0620E030E0C0E0D0E0309711F1408183
:104E8000518148175907C0F04817590761F48281CA
:104E90009381209719F09B838A832BC09093BF0640
:104EA0008093BE0626C02115310519F0421753071D
:104EB00018F49A01BE01DF01EF010280F381E02DB9
:104EC000DCCF2115310509F1281B390B24303105C0
:104ED00090F412968D919C9113976115710521F0B4
:104EE000FB019383828304C09093BF068093BE0628
:104EF000FD01329644C0FD01E20FF31F81939193AF
:104F0000225031092D933C933AC02091BC06309138
:104F1000BD06232B41F4209104013091050130930B
:104F2000BD062093BC06209102013091030121159A
:104F3000310541F42DB73EB740910601509107016C
:104F4000241B350BE091BC06F091BD06E217F30778
:104F5000A0F42E1B3F0B2817390778F0AC014E5FE9
:104F60005F4F2417350748F04E0F5F1F5093BD0663
:104F70004093BC068193919302C0E0E0F0E0CF0142
:104F8000DF91CF9108950F931F93CF93DF930097F5
:104F900009F48CC0FC013297138212820091BE0684
:104FA0001091BF060115110581F420813181820F16
:104FB000931F2091BC063091BD062817390779F55B
:104FC000F093BD06E093BC0671C0D80140E050E00C
:104FD000AE17BF0750F412962D913C911397AD0177
:104FE0002115310509F1D901F3CF9D01DA01338390
:104FF000228360817181860F971F8217930769F45E
:10500000EC0128813981260F371F2E5F3F4F3183F6
:1050100020838A819B8193838283452B29F4F0939B
:10502000BF06E093BE0642C01396FC93EE93129720
:10503000ED01499159919E01240F351FE217F307A5
:1050400071F480819181840F951F029611969C9333
:105050008E938281938113969C938E931297E0E0B6
:10506000F0E0D80112968D919C911397009719F05A
:10507000F8018C01F6CF8D919C9198012E5F3F4FE6
:10508000820F931F2091BC063091BD062817390767
:1050900069F4309729F41092BF061092BE0602C040
:1050A000138212821093BD060093BC06DF91CF914C
:1050B0001F910F91089581E090E0F8940C9460287E
:1050C00010E0CEEDD0E004C0FE010E94282721961A
:0A50D000CF3DD107C9F7F894FFCFD8
:1050DA00FFFF0000C0068000020304050607080956
:1050EA001514131211100F0E00000000A6120F1251
:1050FA003E12ED126F124D126112000000000A0CEE
:10510A00CE0800000000D008DC0800000000651688
:10511A0010140000000064160E1400000000F80BC2
:10512A00000C2073686F727400206C6F6E67004504
:10513A00696E0041757300415244555F4952002E11
:10514A000053656E736F722000202800293A2000F0
:10515A0020616B7469762077656E6E002053656EE8
:10516A00736F723A200020204576656E74200053D2
:10517A00656E736F72002D3E003C2D002020005595
:10518A007365725F46756E6374696F6E3A20004587
:10519A0076656E744D6174636820004576656E7439
:1051AA005661723A20000D0A004F50433A200020FF
:1051BA004E6F64653A20002043616E49443A2000EC
:1051CA00204D65737361676553697A653A200020DB
:1051DA0053746174653A20004144430045696E6D19
:1051EA00657373656E206265656E646574004B65F0
:1051FA00696E65204B616C6962726174696F6E20B9
:10520A006E6F657469670045696E6D657373656E67
:0C521A0020676573746172746574000095
:00000001FF
