:100000000C9494000C94BC000C94BC000C94BC00A8
:100010000C94BC000C94BC000C94BC000C94BC0070
:100020000C94BC000C94BC000C94BC000C94BC0060
:100030000C94BC000C94BC000C94BC000C94BC0050
:100040000C94921A0C94BC000C9477130C945113DA
:100050000C94BC000C94BC000C94BC000C94BC0030
:100060000C94BC000C94BC00EB06EE06F106F40602
:10007000F706FA06FD0600074641494C4544207440
:100080006F2073656E642043414E0053686F727435
:100090003A204576656E74002020204576656E74A2
:1000A00020004C6F6E673A204E6F64654E6F2000E3
:1000B00077726974652076617220746F206565704F
:1000C000726F6D00537461727400000000002400B0
:1000D00027002A0000000000250028002B00000057
:1000E000000023002600290004040404040404047E
:1000F00002020202020203030303030301020408D3
:100100001020408001020408102001020408102081
:1001100000000008000201000003040700000000C6
:1001200000000000DA22DC1A11241FBECFEFD8E055
:10013000DEBFCDBF13E0A0E0B1E0EAECFDE402C019
:1001400005900D92A233B107D9F726E0A2E3B3E000
:1001500001C01D92AD38B207E1F710E0C3E9D0E06D
:1001600004C02197FE010E94AC25C239D107C9F70E
:100170000E94E01A0C94D8260C9400002F923F9213
:100180004F925F926F927F928F929F92AF92BF92A7
:10019000CF92DF92EF92FF920F931F93CF93DF9353
:1001A00000D000D01F92CDB7DEB7809170068F3F90
:1001B00029F480916F068F3F09F44FC00E94861A80
:1001C00000917306109174062091750630917606A1
:1001D000DC01CB01801B910BA20BB30B8436910584
:1001E000A105B105D0F18091E3059091E405059753
:1001F000A9F480917206813041F460E0809170062C
:100200000E94F418109272061EC061E08091700680
:100210000E94F41881E08093720615C08091510508
:10022000813039F460E080916F060E94F41861E03B
:1002300006C061E080916F060E94F41860E0809132
:1002400070060E94F4180E94861A609373067093D9
:1002500074068093750690937606809177068F3F9B
:1002600009F4AEC00E94CB1820917806892B81F446
:10027000213009F0A5C00E94861A6093E5057093AD
:10028000E6058093E7059093E8051092780698C0FC
:10029000211196C081E0809378060E94861A009111
:1002A000E5051091E6052091E7053091E805DC01B0
:1002B000CB01801B910BA20BB30B8C019D01095E3E
:1002C0001340210931090738134121053105A8F4EC
:1002D000209151058091E3059091E405213049F486
:1002E000059761F583E090E09093E4058093E30542
:1002F00067C0059709F064C0F5CF81379741A10524
:10030000B10508F45DC080915105811135C080911F
:10031000E3059091E405059729F360E080916F066D
:100320000E94F41880E00E943D188091E3059091AE
:10033000E405049719F40E94BE00F7CF85E090E031
:100340009093E4058093E305809181059091820567
:1003500020E5209352059093530580935405109205
:100360005505109256051092570510925805109297
:1003700059050E94F11624C01092510540918D0537
:100380004B7F40938D054093330565E170E08FE12D
:1003900095E00E94D50880918D0581FF09C080916C
:1003A000970590919805909382058093810506C0EA
:1003B000109282051092810580E090E00E9427183B
:1003C0008091E3059091E405049709F079C00E94BB
:1003D000861A0091E5051091E6052091E705309118
:1003E000E805DC01CB01801B910BA20BB30B893E0E
:1003F0009340A105B10508F463C083E090E09093B9
:10040000E4058093E30540916906AAEEB5E081E03A
:10041000841740F02091690630E0E9EEF5E080E0D5
:1004200090E019C02D919FEF980F092F10E0F8016F
:10043000E751FA4F3081F801E651FA4F231718F4CB
:1004400030839150F2CF20838F5FE2CF4191598169
:10045000541738F0019641E0480F498382179307FB
:10046000ACF349814093230562E170E08FE195E0B0
:100470000E94D50859815093800580919405882366
:10048000F9F0809181059091820522E52093520533
:10049000909353058093540510925505109256057C
:1004A000109257051092580510925905E9816E2F48
:1004B00070E080E090E022E535E043E00E94001625
:1004C00022242394312C35E7632E35E0732E41E549
:1004D000A42E46E0B42E53E0C52ED12C55245394BF
:1004E00061E6862E912C109295058091DD05909104
:1004F000DE05892B09F021C63092DE052092DD054C
:100500008091E1059091E205181619062CF01092E1
:10051000DE051092DD0511C68091DF059091E005A2
:10052000CC9724F01092E0051092DF05E3E4F6E0AA
:10053000A091DF05B091E005A356BA4F12968C91B9
:1005400081938091DF059091E00501969093E005FD
:100550008093DF058091E1059091E20501979093EA
:10056000E2058093E10526E0E235F20709F71092F3
:10057000DE051092DD05EDE6F5E011926E167F06C0
:10058000E1F71092790510927B0510927A0510928E
:100590007C058091430680935F058091450680939A
:1005A0007505809146068093760580914706809375
:1005B00077058091480680937805E9E4F6E081911B
:1005C000DF01AD5DB1098C93AE16BF06C1F7809116
:1005D0006D0580935D05843008F4B4C0873009F45C
:1005E000B1C0282F2F7B2F3309F4ACC092EA980FAB
:1005F000923008F4A7C0982F9F7D9F3909F4A2C0BC
:10060000863B09F49FC08F3D09F49CC03CEF380F36
:10061000333008F49AC038EF380F333008F495C0FF
:100620003FED380F333008F490C0803409F48DC0AA
:100630003CEB380F373008F488C08C3409F485C09F
:10064000382F3F7740EA430F423008F47EC03336FC
:1006500009F47BC0903809F478C03EE7380F343095
:1006600008F473C0823A09F470C030E4380F3230B5
:1006700008F46BC036EA380F323008F469C030E74E
:10068000380F353008F464C038E6380F333008F4DA
:100690005FC09D59923008F45BC0982F977F905BA4
:1006A000923008F455C09DE4920F923008F450C087
:1006B00091E3980F933008F44BC09CE2980F92306E
:1006C00008F446C098E2980F923008F441C093E2D3
:1006D000980F9230E8F190E1980F9230C8F19AE0CB
:1006E000980F9630A8F193E0980F933088F194EF2B
:1006F000980F923080F190EF980F923060F1823431
:1007000051F190EB980F9A3030F194EA980F9230B3
:1007100010F191E9980F9730F0F09BE6980F933025
:10072000D0F095E6980F9230B0F0223BA1F0253B37
:1007300091F09EE2980F923070F0823E61F08F3E11
:1007400069F409C084E090E00BC081E090E008C04B
:1007500083E090E005C082E090E002C080E090E09D
:1007600090936105809360058091440681115092B9
:100770007C0580E00E947B1781FB112710F98AE538
:1007800095E00E94B013082F882319F0112309F473
:10079000A8C48AE595E00E94C5138823C9F08AE5BC
:1007A00095E00E94DA139A8389830097B1F0AC0137
:1007B00060E070E08FE195E00E94A9092091290591
:1007C00030E0482F50E0241735070CF4A9C436C098
:1007D0000023E1F01130D1F404C0002389F111307D
:1007E00079F58AE595E00E940514009779F0AC014F
:1007F00060E070E08FE195E00E94A9092091290551
:1008000030E0482F50E024173507C4F48AE595E01E
:100810000E94DA139A838983892B91F049815A8146
:1008200060E070E08FE195E00E94A9092091290520
:1008300030E0482F50E02417350714F08F5F01C0D7
:1008400080E08093950580917C05882389F08091D4
:10085000810590918205892B59F06091800570E0A7
:1008600080E090E022E535E040E00E9400163BCEBB
:10087000E090E305F090E40534E0E316F10401F5BF
:1008800080915F0581112FCE20916906233608F0F3
:100890002ACE8091750540E1849FC001112490917A
:1008A0007605929596959770892B80935C05E22F3B
:1008B000F0E0E751FA4F80832F5F2093690613CE53
:1008C00080916005909161058230910561F140F45D
:1008D000019709F0F9C3E0916C06F0916D061AC01A
:1008E000E0916A06F0916B068330910519F0049748
:1008F00031F0EAC380918D0580FDE6C30BC0809185
:100900008D0580FDE1C380915D05873009F004C449
:100910000C940000309709F4D7C36DE175E08AE5C7
:1009200095E00995D1C310915D058AE595E00E9497
:1009300020149A83898360918105709182057C835C
:100940006B838617970771F0C7010297039750F4DE
:100950001D3009F477C0103109F4B4C0113109F029
:10096000C2CDF4C01D3509F4C4C1A0F5133509F496
:1009700041C178F4103109F4A5C020F41D3009F00C
:10098000B2CD60C0113109F4E1C0123409F408C1DC
:10099000AACD163509F459C138F4143509F431C11A
:1009A000153509F445C19FCD173509F469C11835CE
:1009B00009F099CD109279068091260594E79093DD
:1009C00052059C8190935305EB81E09354058093ED
:1009D00055056FC3153909F425C210F5123709F40E
:1009E000ACC120F4113709F490C17DCD133709F45F
:1009F000D4C1153709F077CD1092790681E680933E
:100A000080058093230541E662E170E08FE195E087
:100A10000E94D508809181059091820522E541C30D
:100A2000123B09F49CC238F4163909F42DC21C3962
:100A300009F467C258CD123D09F4C4C2153F09F448
:100A4000B9C251CD8B819C81892B09F44CCD109278
:100A500079068091800590E0EB81FC81E817F90729
:100A600031F090938205809381050E942718809130
:100A70008D0590918C0520918B05309181054091D9
:100A80008205F6EBF09352054093530530935405DD
:100A900020935505909356058093570522E02093A7
:100AA000580535E0309359056B817C81660F771FBF
:100AB0004B815C81460F571FBA0180E090E00E9495
:100AC0004C1A3EC0109279068091800590E06B81AF
:100AD0007C816817790731F09093820580938105B6
:100AE0000E9427188091E3059091E405059709F08D
:100AF000FACCE2E5F5E08AE595E011928E179F07C2
:100B0000E1F780918F0590919205209191053091A8
:100B1000900540918C0550918E0560918B057FEE7C
:100B200070935205609353055093540540935505B7
:100B30003093560520935705909358058093590597
:100B40000E94F116882309F4CECCBEC21092790619
:100B50008091800590E0EB81FC81E817F90731F086
:100B600090938205809381050E9427188091E30568
:100B70009091E405059791F48091890590918805FD
:100B80002091870530918605409185055091840517
:100B900060918305F2EEF0935205C4CF83E087C0E5
:100BA0001092790625E0E216F104C1F78AE595E096
:100BB0000E94201490938205809381050E9427183B
:100BC000809181059091820522E5209352059093B2
:100BD00053058093540510925505109256051092B6
:100BE00057051092580510925905D092E405C0920D
:100BF000E305A6CF109279061092E4051092E30562
:100C000072CC109279068091800590E04B815C81D6
:100C10004817590731F090938205809381050E940F
:100C20002718D092E405C092E305509296055BCC5C
:100C3000EF2809F058CC40E067E170E08FE195E0E3
:100C40000E94D508109226054ECC1092790680910C
:100C5000900590912605891B90E7909352055C8141
:100C6000509353056B816093540580935505109202
:100C7000560510925705109258051092590560CFED
:100C80001092790600912605002309F42CCCFC80F3
:100C900010E082EFE82E011709F425CC812F0E9485
:100CA000A814FC0180913905882321F08AE00E9474
:100CB000221719CC8381928121813081E0925205E3
:100CC000F09253057B817093540530935505209322
:100CD00056059093570580935805109359050E9427
:100CE000F116882321F088E790E00E944F171F5FDC
:100CF000D2CF29813A814B815C812417350709F0D5
:100D0000F2CB81E00E943D18EECB10927906109153
:100D100070058FEF810F0E947B179091390591111B
:100D2000C5CF97E9909352055C81509353056B8131
:100D3000609354051093550572C010927906E2E550
:100D4000F5E08AE595E011928E179F07E1F70E9482
:100D5000F917182F8FEF810F0E94A814FC018091C2
:100D60003905882311F086E0A2CF83819281218109
:100D7000308142EF409352057C8170935305EB81A3
:100D8000E0935405309355052093560590935705ED
:100D9000809358051093590594C11092790690914B
:100DA000700591110DC08BE980935205FC81F09381
:100DB00053052B81209354051092550588E02FC0D0
:100DC000492F50E0FA013197E830F105E0F4EC5C8E
:100DD000FF4F0C94AC2580918B0516C080918E0539
:100DE00013C080918C0510C0809190050DC080913A
:100DF00091050AC08091920507C080918F0504C0BB
:100E000080918D0501C080E02BE9209352053C8143
:100E1000309353054B81409354059093550580932F
:100E2000560549C1109279068AE595E00E9405149D
:100E30009A8389838AE595E00E94201449815A812A
:100E4000BC018FE195E00E94A90989831092E90510
:100E50001092EA051092EB051092EC05482F69EE0E
:100E600075E08FE195E00E94EF09598158137BCF1F
:100E7000652F70E020E040E08FE195E00E942D09B1
:100E8000882309F430CB12CF8091790681112BCBC6
:100E90006091700561506983709171057B83633146
:100EA000F1F47E3F81F48FE195E00E94700A509248
:100EB0007906909282058092810581E690E00E94F9
:100EC000271881E68B839B8190938005909323055F
:100ED000492F62E170E08FE195E00E94D508809192
:100EE0009205E9818E1738F04B816E2F8FE195E0E6
:100EF0000E945B09D1C0F981FF3F09F4F4CA89E07F
:100F0000D6CE109279060E94F9178B830E94101892
:100F10008983809191052981821708F4C7CE422FD9
:100F200041506B8161508FE195E00E948B09909157
:100F300039059111BBCE909181052091820535EB49
:100F40003093520520935305909354053B81309381
:100F5000550549814093560580935705AEC01092C0
:100F60007906EF2869F50E941018182F0E94A8141E
:100F70009A83898340E0612F8FE195E00E948B097D
:100F8000909139059111EFCEE981FA819381228107
:100F90003181408153ED5093520540935305309376
:100FA000540520935505909356051093570580934B
:100FB000580585C080917906811195CAEF2889F17D
:100FC00082E075CE8091790681118DCA8AE595E01F
:100FD0000E940514F82EE92E0E9410188B83F091C0
:100FE0007305FD832A812093E90539813093EA0551
:100FF000E092EB05F092EC05482F69EE75E08FE189
:1010000095E00E94EF094B814813ADCE642F70E04C
:101010002D8140E08FE195E00E942D09811146CE9F
:101020003BC08AE595E00E940514E82E492E0E94F7
:1010300010188B83F09074050E94F9178D835A81E4
:101040005093E90569816093EA054092EB05E092CF
:10105000EC05482F415069EE75E08FE195E00E9464
:10106000EF09682F70E0ED818E2F90E001976817EF
:10107000790709F078CE4B8141502F2D8FE195E013
:101080000E942D0990E03B81232F30E0215031094F
:101090008217930709F00ACE80918105909182050D
:1010A00029E520935205909353058093540510929F
:1010B000550510925605109257051092580510923A
:1010C00059050E94F1160FCAE0916A06F0916B066D
:1010D000309709F408CA6DE175E08AE595E0099555
:1010E00002CA8AE595E00E9405149A8389838AE5FD
:1010F00095E00E94201449815A81BC018FE195E05E
:101100000E94A9092091290530E0482F50E02417BA
:1011100035070CF43ECB92CB8E3509F4F9CBFACBE4
:10112000002309F47BCB113009F45BCB8AE595E011
:101130000E94DA139A83898371CB80E00F900F901D
:101140000F900F900F90DF91CF911F910F91FF9013
:10115000EF90DF90CF90BF90AF909F908F907F9057
:101160006F905F904F903F902F9008950C944A2677
:101170000C944A260C946D25FC018DE291E091833C
:101180008083DF015396CF014B961D92A817B907B4
:10119000E1F7138E148E158E168E178E11A210A2E3
:1011A00012A2089508950C946525CF92DF92EF92D4
:1011B000FF921F93CF93DF937C016B01142FCB0120
:1011C0000E94D308811721F0612FC6010E94BA083E
:1011D000F701838590E004962285289FE001299FEE
:1011E000D00D112485859685C80FD91FC535F1E02E
:1011F000DF075CF5CC0DDD1DCE010E94D30818176A
:1012000021F0612FCE010E94BA08F701838590E09A
:1012100004964285489F9001499F300D1124858591
:101220009685820F931FC80FD91FCE010E94D30845
:10123000181759F0612FCE01DF91CF911F91FF90C8
:10124000EF90DF90CF900C94BA08DF91CF911F916F
:10125000FF90EF90DF90CF900895CF93DC01942F13
:1012600017964C91179750E06417750718F081E0B6
:10127000890F1FC01B96EC911B979E17C0F7422F3A
:10128000C92FCD01F0E03496E69FD001E79FB00D65
:10129000F69FB00D1124FC0125853685BD01620F36
:1012A000731FEC2FF0E034966E0F7F1F0E94D5085D
:1012B0008C2FCF910895EF92FF921F93CF93DF93DE
:1012C000FC012185261708F1142F7C01C62FD0E0E0
:1012D000FE01EE0FFF1FED50FB4F842F90E0918336
:1012E00080836996CE010E94D308181771F080EBB5
:1012F00090E00E944F17412FBE01C701DF91CF91AF
:101300001F91FF90EF900C94D508DF91CF911F9122
:10131000FF90EF900895FC01128E87816817B0F45A
:101320002385421798F430E02C5F3F4F629FD00135
:10133000639FB00D1124858596858A0F9B1F50E011
:101340004C5F5F4F840F951F0C94D3088FEF828FF3
:101350000895CF92DF92EF92FF920F931F93CF9356
:10136000DF93EC01252F3327862F072F1127F02E2F
:10137000EF80ABE6B4E0EFEAF4E090E077275527A2
:10138000E916F9F0F11002C0882369F0CD90DC90E5
:1013900011970C151D0589F49296CD90DC909397CA
:1013A0006C157D0551F4C080D1802C153D0529F4C4
:1013B000C2A0D3A04C155D0541F09F5F12963296F6
:1013C000DFCF9A8581E0890F01C0892FDF91CF910E
:1013D0001F910F91FF90EF90DF90CF900895AF9203
:1013E000BF92CF92DF92EF92FF921F93CF93DF9342
:1013F000DC011A969C911A97491718F081E0890F21
:101400004EC0142FFB017D01242F30E0D901AA0F1B
:10141000BB1FA559BB4F808190E08D939C93D90150
:10142000AA0FBB1FA357BB4F818190E08D939C9364
:10143000D901AA0FBB1FA155BB4F828190E08D93AC
:101440009C93D901AA0FBB1FAF52BB4F838190E081
:101450008D939C93D7011B968C911B9790E00496DB
:10146000829F6001839FD00C929FD00C11241D9607
:101470008D919C911E97C80ED91E5B01B4E0AB0EF6
:10148000B11CEB01C61AD70AB6016C0F7D1F49913A
:10149000C7010E94D508CA15DB05B1F7812FDF917E
:1014A000CF911F91FF90EF90DF90CF90BF90AF90C2
:1014B0000895FC0180E090E0238530E082179307D7
:1014C0003CF4A281B381A80FB91F1C920196F4CFFE
:1014D00081E68483158285EC86831782148A0895B9
:1014E000EF92FF920F931F93CF93DF9300D000D022
:1014F000CDB7DEB78C010E94590AF8018285878337
:1015000019821A828AE38B838CEF8C83E12CF12C75
:10151000F8014285842F90E00197E816F906CCF493
:101520004E2DBE016F5F7F4FC8010E94EF098C8175
:101530008F5F8C83811103C08B818F5F8B8320E051
:1015400040E0B701C8010E942D09FFEFEF1AFF0A22
:10155000DFCF19821A8282E18B8387E68C83415028
:10156000BE016F5F7F4FC8010E94EF09F8016285DD
:1015700070E06150710920E040E0C8010E942D092F
:1015800046E060E0C8010E945B09FF24F39442E05A
:101590006F2DC8010E945B09F394F9E0FF12F7CFA9
:1015A00041E06F2DC8010E945B09F39481E1F812BC
:1015B000F7CF40E061E1C8010E945B0940E062E1D1
:1015C000C8010E945B0941E663E1C8010E945B0912
:1015D00042E064E1C8010E945B0947E560E070E019
:1015E000C8010E94D508F801448162E170E0C80199
:1015F0000E94D508F801458163E170E0C8010E94AE
:10160000D508F801468164E170E0C8010E94D50860
:10161000F801448965E170E0C8010E94D508F8012D
:10162000478167E170E0C8010E94D508F801438551
:1016300068E170E0C8010E94D50860E08DEF93E09A
:101640000E94BA0860E08EEF93E00E94BA0860E062
:101650008FEF93E00E94BA08C8010E943A0B0F90E6
:101660000F900F900F90DF91CF911F910F91FF90EE
:10167000EF9008955F926F927F928F929F92AF92B8
:10168000BF92CF92DF92EF92FF920F931F93CF936F
:10169000DF93EC010E94590A8B8590E004962A851D
:1016A000289F7001299FF00C11248D859E85E80EDE
:1016B000F91E85E5E81681E0F8060CF06AC08FEFA8
:1016C00093E00E94D308782E8EEF93E00E94D30817
:1016D000182F8DEF93E00E94D308711681F07816D1
:1016E00081F0181306C0612F8EEF93E00E94BA08B4
:1016F000712E5701AA0CBB1C00E010E024C0781624
:10170000C1F3672D8FEF93E00E94BA08F2CFC801B2
:101710000E94D308682E48018E0C9F1CC4010E94B1
:10172000D308582E6501C00ED11EC6010E94D308F1
:10173000651491F068120BC0662DC4010E94BA08AE
:1017400073940F5F1F4F0E151F050CF30DC0581239
:10175000F8CF652DC801F2CF681699F37394662D02
:10176000C6010E94BA08EDCF8FEF93E00E94D30824
:10177000781679F0672D8DEF93E00E94BA08672DF7
:101780008EEF93E00E94BA08672D8FEF93E00E94DE
:10179000BA0880E090E00E94D308873519F0CE01A6
:1017A0000E94700A82E190E00E94D3088C8383E15A
:1017B00090E00E94D3088D8384E190E00E94D308DA
:1017C0008E8385E190E00E94D3088C8B87E190E0C6
:1017D0000E94D3088F83DF91CF911F910F91FF90CB
:1017E000EF90DF90CF90BF90AF909F908F907F90C1
:1017F0006F905F90089525E431E0FC0131832083F0
:1018000082819381009711F00C944A260895CF931A
:10181000DF93EC010E94FB0BCE01DF91CF910C9482
:101820004A262DE431E0FC0121933193CF010C9441
:10183000FB0BCF93DF93EC010E94110CCE01DF91E3
:10184000CF910C944A260895CF93DF93C82F8091AF
:1018500096032C2F30E0E0919303F0912805D901F5
:10186000A956BC4F882341F08C91982F9170282F56
:101870002570253021F039C08C9182FF3AC0C830E4
:10188000B8F04C2F4770C695C695C695D0E0CC569B
:10189000DC4F888190E0042E02C0959587950A94CC
:1018A000E2F7209158033091590380FD4AC03BC0B4
:1018B0008091940390E00C2E02C0959587950A9430
:1018C000E2F7209156033091570380FD7BC081E001
:1018D00090E0A0E0B0E004C0880F991FAA1FBB1FD2
:1018E000CA95D2F7822B932B7CC0911102C081FF45
:1018F000C4CFC83008F445C04C2F4770C695C69574
:10190000C695AC2FB0E0AC56BC4F8C9190E0042E45
:1019100002C0959587950A94E2F72091580330917B
:10192000590380FF0EC081E090E0A0E0B0E004C069
:10193000880F991FAA1FBB1F4A95D2F7822B932BA2
:101940000FC081E090E0A0E0B0E004C0880F991FD4
:10195000AA1FBB1F4A95D2F78095909582239323A7
:101960009093590380935803F23108F43FC080915B
:101970005803909159039927909318058093170560
:1019800035C04091940350E00C2E02C05595479508
:101990000A94E2F7209156033091570340FF12C09A
:1019A00041E050E060E070E004C0440F551F661F46
:1019B000771FCA95D2F7422B532B5093570340936E
:1019C000560336C081E090E0A0E0B0E004C0880F8C
:1019D000991FAA1FBB1FCA95D2F7809590958223A5
:1019E0009323909357038093560322C0EE2309F468
:1019F0004EC084E591E00E9476156AE070E083E1D4
:101A000090E00E9423158EE093E00E94761562E03C
:101A100070E080915803909159030E9423158EE045
:101A200093E00E94761580915803909159032BC042
:101A3000F13148F080915603909157039927909384
:101A4000160580931505EE2311F184E591E00E94BF
:101A500076156AE070E082E190E00E9423158EE046
:101A600093E00E94761562E070E0809156039091B9
:101A700057030E9423158EE093E00E947615809113
:101A8000560390915703DF91CF910C946615DF9127
:101A9000CF9108951F93CF93DF9380FF03C0C82F8A
:101AA000CE7F02C0C1E0C80FEC2FF0E0E956FC4F3A
:101AB000908191FF5BC090FD59C0EC2FE695E695B3
:101AC000E695F0E0EC56FC4FD0811C2F17702D2FBF
:101AD00030E0012E02C0359527950A94E2F7217077
:101AE000332741E050E0892F847092FF02C040E02C
:101AF00050E024173507D1F5811129C081E090E02D
:101B0000A0E0B0E004C0880F991FAA1FBB1F1A9560
:101B1000D2F780958D238083D0E08C2F0E94240CF7
:101B200080919303882311F18DE591E00E94761551
:101B30006AE070E08C2F0E945D178EE691E00E94B3
:101B400076158D2FDF91CF911F910C946B1741E08B
:101B500050E060E070E004C0440F551F661F771F1F
:101B60001A95D2F74D2B4083D1E0D7CFDF91CF919B
:101B70001F910895AF92BF92DF92EF92FF920F9361
:101B80001F93CF93DF93C82FD62E082F10E0C801E4
:101B900089569C4F5C01FC01D081C80189559C4F3E
:101BA0007C01D1FF4BC080918003F7018083D2FB81
:101BB000DD27D0F981E0D82780919203882309F4AA
:101BC0006BC0A7E9B3E0E7EAF3E080E090E02D9195
:101BD00021FF2EC020FD2CC00817190749F12081D4
:101BE00021502E3F28F580919303882389F087E7C1
:101BF00091E00E9476156AE070E0809191030E9466
:101C00005D178CE891E00E9476158C2F0E946B176F
:101C100080919103E82FF0E0EF57FC4FC0838F5F76
:101C2000803109F48FE080939103F7011082A0C006
:101C3000019631968031910551F62EC08FEFF70154
:101C40008083862F877FD1E0803911F06D13D0E03B
:101C5000809193038823C9F08EE891E00E94761565
:101C60006AE070E08C2F0E945D1784E991E00E9489
:101C700076156AE070E08D2D0E945D178EE991E087
:101C80000E9476158D2F0E946B17F501808182FFCF
:101C900003C0D1111CC002C0DD23C9F0EC2FE695B2
:101CA000E695E695F0E0EC56FC4F2C2F277081E08E
:101CB00090E0A0E0B0E004C0880F991FAA1FBB1FEE
:101CC0002A95D2F72081822B8083D1E019C0EC2F96
:101CD000E695E695E695F0E0EC56FC4F2C2F277044
:101CE00081E090E0A0E0B0E004C0880F991FAA1F37
:101CF000BB1F2A95D2F78095908189238083D0E0FD
:101D00008C2F0E94240CF801E95FFE4F10816D2F8B
:101D1000812F0E94F418809193038823C9F08EE8E4
:101D200091E00E9476156AE070E08C2F0E945D17AA
:101D30008EE093E00E9476156AE070E0812F0E94A9
:101D40005D178EE691E00E9476158D2F0E946B172D
:101D500080919203882361F08C2FDF91CF911F91A6
:101D60000F91FF90EF90DF90BF90AF900C944A0DD1
:101D7000DF91CF911F910F91FF90EF90DF90BF9077
:101D8000AF900895CF92DF92EF92FF920F931F933F
:101D9000CF93DF9380919303882321F087EA91E02A
:101DA0000E94721407E913E0C0E0D0E0C12CD12CEE
:101DB0007601C394F80181918F018370D9F5FE01FA
:101DC00083E0F595E7958A95E1F7EC56FC4F808125
:101DD0009E0127703327482F50E0022E02C05595F0
:101DE00047950A94E2F740FD0DC0B701A601022E07
:101DF00004C0440F551F661F771F0A94D2F7482B63
:101E000040830DC0B701A601022E04C0440F551F28
:101E1000661F771F0A94D2F74095842380836081E0
:101E200070E002C0759567952A95E2F761708C2F76
:101E30000E94BA0D2196C031D10509F0BBCF809127
:101E40009303882361F085EB91E0DF91CF911F919F
:101E50000F91FF90EF90DF90CF900C947214DF9170
:101E6000CF911F910F91FF90EF90DF90CF90089549
:101E7000AF92BF92CF92DF92EF92FF921F93CF93D8
:101E8000DF93EC017B01FB01E858FF4F108180914B
:101E90009303882309F477C087EC91E00E947615BC
:101EA000812F0E946B17112309F46FC08091930357
:101EB0008823D1F187ED91E00E947615812F0E9451
:101EC0006B1783EE91E00E947615CE010E94C51338
:101ED00097012E5F3F4F6901882339F0CE010E94A0
:101EE000DA13AC0160E070E009C0CE010E94051475
:101EF0005C01CE010E942014A501BC01C6010E9414
:101F0000A909F701ED58FF4F9081891730F440E09F
:101F1000682FC6010E948B0901C080E00E946B17E8
:101F200087E092E00E9472148FEF810F803198F465
:101F3000E82FF0E0E956FC4F908190FD03C16B81E2
:101F4000DF91CF911F91FF90EF90DF90CF90BF90E6
:101F5000AF900C94BA0D803109F0F4C00E94271A9A
:101F60006093BB037093BC038093BD039093BE0347
:101F70000E94271A6093B7037093B8038093B90344
:101F80009093BA03DFC01111CFCF8B81883091F5C8
:101F900080915C038823A9F110923905809128056E
:101FA000823108F0ACC08FEF809339054091560321
:101FB0005091570390E08417950709F0A5C010923F
:101FC000390580912805833108F0A9C08FEF8093EF
:101FD0003905409158035091590390E084179507B3
:101FE00009F0A2C080919303882321F08EEE91E046
:101FF0000E9472148B81893021F480915C038111DD
:102000009EC080919303882309F49CC0CE010E9456
:10201000B013882389F082EA90E00E943417CE0141
:102020000E9420140E94F31788E990E00E94341760
:10203000CE010E9405140CC0CE010E94C513882356
:10204000B1F08BE890E00E943417CE010E94DA13C1
:102050000E94F31785E092E0DF91CF911F91FF90EE
:10206000EF90DF90CF90BF90AF900C94601488E019
:1020700092E00E94761560E170E08B810E945D170E
:102080008DE092E00E947615CE010E9420140E94FD
:10209000F31784E192E00E9476152B8D80E1289F52
:1020A000900111248C8D829586958770822B8A836E
:1020B0006AE070E00E945D178CE192E00E94761564
:1020C0008B8990E025E0959587952A95E1F78C839B
:1020D0006AE070E00E945D178AE292E00E94761545
:1020E0008091E3059091E405DF91CF911F91FF90DE
:1020F000EF90DF90CF90BF90AF900C9466158AE27E
:1021000090E00E94D30852CF80919205813108F46B
:1021100056CF61E18FE195E00E945B0950CF8BE2E1
:1021200090E00E94D30855CF80919205823108F447
:1021300059CF62E18FE195E00E945B0953CF0E9485
:10214000C20E5FCFDF91CF911F91FF90EF90DF9094
:10215000CF90BF90AF9008952F923F924F925F9291
:102160006F927F928F929F92AF92BF92CF92DF92A7
:10217000EF92FF920F931F93CF93DF9300D000D085
:1021800000D0CDB7DEB71092960584E10E947B1790
:1021900086FF03C01092000103C081E0809300011C
:1021A00080E00E947B17282F237030E0359527951B
:1021B00020935F03982F917090935C03869586958A
:1021C000813049F030F0823041F0833039F488E2D8
:1021D00005C085E003C08AE001C084E180938003EC
:1021E00084E10E947B17881F8827881F80939303B0
:1021F00084E10E947B178170809392038091930306
:10220000882341F082E392E00E9476158091920348
:102210000E946B1784E10E947B17869581708093E2
:10222000960380919303882341F081E492E00E9419
:102230007615809196030E946B1707E913E047E03B
:10224000C42E41E0D42E87EA93E09C838B83E0E6A2
:10225000F3E0FA83E9831E821D82812C912C5401C4
:1022600083944D80842D8F5F0E947B17582EF80138
:102270008081851509F4ABC0EB81FC81108250FE92
:102280003DC062E0F60180810E94EB198D810E94C1
:10229000A814FC0182819381982789279827E981D6
:1022A000FA8191838083F8012081852D822782FF26
:1022B00089C04D815E81477055278D819E8133E0B5
:1022C000959587953A95E1F7FC01E35AFC4F2081FB
:1022D00030E0042E02C0359527950A94E2F7FC0100
:1022E000EC56FC4FD501C40104C0880F991FAA1FEA
:1022F000BB1F4A95D2F720FD61C05DC0F60130805A
:1023000061E0832D0E94EB19F8018081982F9525BB
:102310006D807E8023E0759467942A95E1F7ED80C7
:10232000FE80F7E0EF22FF24252D227090FF03C0EE
:10233000F801508213C08525F801508282FF0EC03B
:10234000211122C0F301EC56FC4F608170E002C005
:1023500075956795EA94E2F7617012C0211114C077
:10236000F301EC56FC4FD501C40104C0880F991F3E
:10237000AA1FBB1FEA94D2F72081822B808361E0E1
:102380008D810E94BA0D21C061E0F52DF4702F2ED1
:1023900052FE60E0832D0E94F418F301EC56FC4FCE
:1023A000D501C40104C0880F991FAA1FBB1FEA945E
:1023B000D2F7222019F02081822B03C080959081D2
:1023C00089238083842D0E94240CF80150828D8102
:1023D0009E8101969E838D830F5F1F4F9FEFC91AC9
:1023E000D90AEB81FC813196FC83EB8389819A8148
:1023F00002969A838983ED81FE81709709F031CF2F
:1024000026960FB6F894DEBF0FBECDBFDF91CF91F9
:102410001F910F91FF90EF90DF90CF90BF90AF9002
:102420009F908F907F906F905F904F903F902F90F4
:1024300008959CEE980F9230C0F48E508064809383
:102440007C0080917A00806480937A0080917A0089
:1024500086FDFCCF809178002091790090E0922B4E
:1024600021E08D3291403CF005C00E94CB1821E064
:10247000892B09F020E0822F0895CF92DF92EF920E
:10248000FF920F931F93CF93DF936C017A018B011F
:10249000C0E0D0E0CE15DF0581F0D8016D918D014F
:1024A000D601ED91FC910190F081E02DC6010995D6
:1024B000892B11F02196EECF7E01C701DF91CF91DC
:1024C0001F910F91FF90EF90DF90CF9008950895A6
:1024D00080E090E00895FC01538D448D252F30E07D
:1024E000842F90E0821B930B541710F0CF96089521
:1024F00001970895FC01918D828D981761F0828D6E
:10250000DF01A80FB11D5D968C91928D9F5F9F7327
:10251000928F90E008958FEF9FEF0895FC01918DC9
:10252000828D981731F0828DE80FF11D858D90E036
:1025300008958FEF9FEF0895FC01918D228D892FD3
:1025400090E0805C9F4F821B91098F7399270895BB
:102550008EEC93E00E949C1221E0892B09F420E08C
:10256000822F0895FC01848DDF01A80FB11DA35AAD
:10257000BF4F2C91848D90E001968F739927848FA3
:10258000A689B7892C93A089B1898C9183708064C6
:102590008C93938D848D981306C00288F389E02D67
:1025A00080818F7D80830895EF92FF920F931F9318
:1025B000CF93DF93EC0181E0888F9B8D8C8D9813F6
:1025C00005C0E889F989808185FD26C0F62E0B8D2E
:1025D00010E00F5F1F4F0F731127E02E8C8DE81254
:1025E0000CC00FB607FCFACFE889F989808185FF16
:1025F000F5CFCE010E94B212F1CF8B8DFE01E80F14
:10260000F11DE35AFF4FF0829FB7F8940B8FEA89D0
:10261000FB89808180620AC09FB7F894EE89FF89A8
:102620006083E889F98980818370806480839FBF9B
:1026300081E090E0DF91CF911F910F91FF90EF909B
:102640000895CF93DF93EC01888D8823C9F0EA8940
:10265000FB89808185FD05C0A889B9898C9186FD9B
:102660000FC00FB607FCF5CF808185FFF2CFA88998
:10267000B9898C9185FFEDCFCE010E94B212E7CFD0
:10268000DF91CF91089580E090E0892B29F00E949E
:10269000A81281110C94000008950E94D3260C9476
:1026A0004A261F920F920FB60F9211242F933F9339
:1026B0004F935F936F937F938F939F93AF93BF934A
:1026C000EF93FF938EEC93E00E94B212FF91EF9193
:1026D000BF91AF919F918F917F916F915F914F913A
:1026E0003F912F910F900FBE0F901F9018951F9242
:1026F0000F920FB60F9211242F938F939F93EF9306
:10270000FF93E091DE03F091DF038081E091E40329
:10271000F091E50382FD12C090818091E7038F5F05
:102720008F732091E803821751F0E091E703F0E006
:10273000E253FC4F958F8093E70301C08081FF91A6
:10274000EF919F918F912F910F900FBE0F901F903F
:1027500018958EBD00000DB407FEFDCF8EB508950F
:10276000FC019381892F8F7D8059823058F080E35E
:10277000890F823038F081E0903F31F0913F21F0B5
:1027800080E0089581E008950895FC019381892FE8
:102790008F7D8859823058F088E2890F823038F076
:1027A00081E0983F31F0993F21F080E0089581E089
:1027B00008950895FC0193819B35C1F088E6890F47
:1027C0008330A0F0892F8F798D59823078F088E49A
:1027D000890F823058F088E2890F823038F088E023
:1027E000890F843018F080E090E0089586E0890F2A
:1027F000823010F09B3519F48489958902C086894E
:1028000097899827892798270895FC019381292F74
:102810002F7B2059263070F080E5890F853050F0ED
:1028200080E1890F823030F0935F933018F080E0C0
:1028300090E0089586899789982789279827089591
:10284000FC0193899234A9F180EB890F8B3088F1D8
:1028500084EA890F823068F181E9890F873048F175
:1028600080E7890F8F3028F180E5890F873008F1E4
:1028700088E4890F8230E8F0292F2F7B2D5B2230EE
:10288000C0F080E3890F8630A0F088E2890F8230A3
:1028900080F083E2890F823060F0933E51F080E156
:1028A000890F823030F0935F973018F080E090E02D
:1028B00008958489958998278927982708950895E8
:1028C000009769F0FC0101900020E9F73197AF0112
:1028D000481B590BBC018EEC93E00C943D1280E038
:1028E00090E00895CF93DF930E946014EC0185E09F
:1028F00092E00E9460148C0F9D1FDF91CF9108958C
:10290000EEECF3E0A089B18982E08C93A485B585D3
:102910001C92A685B78580E18C93108EA489B58919
:1029200086E08C93A289B3898C9180618C93A28973
:10293000B3898C9188608C93A289B3898C918068CB
:102940008C930288F389E02D80818F7D80830895A8
:1029500010922F0510923005109231051092320519
:102960001092390590912905981720F0909126052D
:10297000981720F481E08093390521C090E0FC0194
:10298000EE0FFF1FE559FB4F208120932F05FC011F
:10299000EE0FFF1FE357FB4F208120933005FC0112
:1029A000EE0FFF1FE155FB4F208120933105880F6B
:1029B000991FFC01EF52FB4F8081809332058FE21B
:1029C00095E008958F929F92AF92BF920F931F93BD
:1029D000CF93DF93CDB7DEB7A1970FB6F894DEBFE4
:1029E0000FBECDBF19A2423008F44AE08E010F5D40
:1029F0001F4F842E912CA12CB12CA50194010E9473
:102A00007B25E62FB901CA0101501109EA3014F4FF
:102A1000E05D01C0E95CD801EC93232B242B252B2E
:102A200061F7C8010E946014A1960FB6F894DEBF4A
:102A30000FBECDBFDF91CF911F910F91BF90AF908F
:102A40009F908F900895CF92DF92EF92FF92CF9355
:102A5000DF936115710559F4682F8EEC93E0DF91D7
:102A6000CF91FF90EF90DF90CF900C94D4126C0137
:102A7000990FEE08FF086A307105E9F4F7FE19C0F6
:102A80006DE28EEC93E00E94D412EC01662777276A
:102A9000CB016C197D098E099F094AE00E94E2145E
:102AA0008C0F9D1FDF91CF91FF90EF90DF90CF9023
:102AB00008954AE001C0462FC701B601DF91CF91CA
:102AC000FF90EF90DF90CF900C94E214CF93DF93C0
:102AD0006AE070E00E942315EC0185E092E00E941C
:102AE00060148C0F9D1FDF91CF9108950C9460149A
:102AF0001F93CF93DF93182FCDE1D5E060E08DA534
:102B00000E94F41883E00E94A913812F0E94A91348
:102B100080E00E94A913182F61E08DA50E94F4188F
:102B2000812FDF91CF911F910895FF920F931F93F3
:102B3000CF93DF93F82E062F142FCDE1D5E060E080
:102B40008DA50E94F41885E00E94A9138F2D0E9484
:102B5000A913802F0E94A913812F0E94A91361E05D
:102B60008DA5DF91CF911F910F91FF900C94F418D8
:102B7000FF920F931F93CF93DF93C82FF62E072F4B
:102B8000142F60E080914A050E94F41882E00E94B0
:102B9000A9138C2F0E94A913CF2DD02FCE01810F06
:102BA000911D8C01C017D10721F089910E94A913B2
:102BB000F9CF61E080914A05DF91CF911F910F918C
:102BC000FF900C94F4180F931F93CF93DF93082F6B
:102BD000162FCDE1D5E060E08DA50E94F41882E0CB
:102BE0000E94A913802F0E94A913812F0E94A9136C
:102BF00061E08DA5DF91CF911F910F910C94F41896
:102C00004F925F926F928F929F92AF92BF92CF92AC
:102C1000DF92FF920F931F93CF93DF9300D000D0EA
:102C2000CDB7DEB710923A0560933B0570933C0533
:102C300080933D0590933E05493008F048E040936D
:102C40003F0510924805A0E4B5E0F90150E0CF013E
:102C5000821B930B841795071CF481918D93F7CFFA
:102C6000A12CB12C40905101509052016090530121
:102C70004E0124E0820E911C49825A826B82CE0161
:102C800001966C01F82E0D2DF60111916F01812F27
:102C90000E947815982F987083FD02C01F5F05C0B1
:102CA0008C149D0489F710E092E0FFEFAF1ABF0A81
:102CB000923029F422E3A216B104F1F67CC082E33B
:102CC000A816B10409F477C040913F0560E475E0AF
:102CD00085E0810F0E94B81580914805813029F464
:102CE00080913F05806480933F0560913F0584E0BB
:102CF000810F0E94E31540913B0550913C05609186
:102D00003D0570913E0580913A058130B1F44C83C8
:102D10005B83AB0166277727942F9C71842F837088
:102D2000E8E09E9F800D112488608A8365E05695B7
:102D300047956A95E1F749830DC0CA0123E096954E
:102D400087952A95E1F789834295440F407E4A830F
:102D50001C821B8244E06F2D702F812F0E94B815BA
:102D6000115048E068E0812F0E949515C12CD12CAC
:102D7000FFEFCF1ADF0A812F0E94781583FF05C06D
:102D800022E3C216D104A1F718C082E3C816D10409
:102D9000A1F010923B0510923C0510923D05109257
:102DA0003E0510923F0510923A0510924805109288
:102DB000490580E003C086E001C087E00F900F90D6
:102DC0000F900F90DF91CF911F910F91FF90DF90A7
:102DD000CF90BF90AF909F908F906F905F904F90EB
:102DE0000895CF93DF93C0915205C63B21F0C29561
:102DF000C695C77001C0C7E0CF5F81E080934F05E3
:102E0000809350056091800570E080E090E022E5BD
:102E100035E04C2F0E940016811102C080E00FC0E7
:102E2000D3E06091800570E080E090E022E535E03D
:102E30004C2F0E940016882389F3D15091F7DF911F
:102E4000CF910895EDE1F5E0A1E8B5E09C911196F0
:102E50002C913FE635AB26AB97AB80AF11AE12AEEF
:102E600013AE14AE0C94F1160F931F93CF93DF9310
:102E70008C01C0E0D0E0F801EC0FFD1F64916623E7
:102E800041F08EEC93E00E94D412892B11F0219630
:102E9000F2CFCE01DF91CF911F910F910895CF9383
:102EA000DF930E943417EC0185E092E00E946014E9
:102EB0008C0F9D1FDF91CF910895AB01682F4115B5
:102EC000510521F48EEC93E00C94D41270E080E074
:102ED00090E00C94E214CF93DF936AE070E00E94DC
:102EE0005D17EC0185E092E00E9460148C0F9D1F3D
:102EF000DF91CF9108951092390590912805891797
:102F000020F08FEF809339050895E82FF0E0EE0F61
:102F1000FF1FED50FB4F808108951F93CF93DF93E8
:102F20008823A1F0EB0183E10E947B17182F83E136
:102F30000E947B1781E980935205109253051093EC
:102F40005405D0935505C09356050FC08091810557
:102F50009091820529E9209352059093530580931F
:102F600054057093550560935605109257051092BD
:102F7000580510925905DF91CF911F910C94F116CD
:102F80001F93CF93DF938823A1F0EB0183E10E948D
:102F90007B17182F83E10E947B1780E980935205ED
:102FA0001092530510935405D0935505C0935605C0
:102FB0000FC0809181059091820528E920935205E8
:102FC000909353058093540570935505609356056F
:102FD000109257051092580510925905DF91CF9124
:102FE0001F910C94F116BC0180E090E04AE00C9433
:102FF000E21480915D05823721F08C3911F0853B18
:1030000019F4809170050895853F19F48091720537
:103010000895823F19F480917405089580E0089521
:1030200080915D058C3911F0853B19F48091710513
:103030000895823B11F0823D19F480917205089544
:10304000853F19F480917305089580E00895CF932A
:10305000DF93CDE1D5E09F838887492F63E170E05E
:103060008FE195E00E94D508488564E170E08FE12A
:1030700095E0DF91CF910C94D508CF93DF93CDB736
:10308000DEB728970FB6F894DEBF0FBECDBF109203
:1030900069068093940584E090E09093E405809322
:1030A000E30582E080934F0583E0809350056091B3
:1030B000800570E080E090E0FE013196AE01475F50
:1030C0005F4F9F011192E417F507E1F741E040934C
:1030D000480540E00E940016109248050E94861A9A
:1030E0006093E5057093E6058093E7059093E80506
:1030F00028960FB6F894DEBF0FBECDBFDF91CF91FB
:103100000895833081F028F4813099F08230A1F065
:1031100008958730A9F08830B9F08430D1F48091D7
:1031200080008F7D03C0809180008F778093800026
:10313000089584B58F7702C084B58F7D84BD0895CE
:103140008091B0008F7703C08091B0008F7D809315
:10315000B0000895CF93C82F482F60EE8FE00E94F3
:1031600095158FE00E947815982F907E81E09C1332
:1031700001C080E0CF910895EDE1F5E014AAADE83B
:10318000B5E04C914B7F4C93468B65E170E08FE14D
:1031900095E00C94D508CF93DF93282F30E0F90108
:1031A000E05FFE4F8491F901E450FF4FD491F901A3
:1031B000E851FF4FC491CC2391F081110E948118F6
:1031C000EC2FF0E0EE0FFF1FE252FF4FA591B491FC
:1031D000EC91ED2381E090E021F480E002C080E0FA
:1031E00090E0DF91CF9108951F93CF93DF93282F25
:1031F00030E0F901E05FFE4F8491F901E450FF4FA8
:10320000D491F901E851FF4FC491CC23C1F0162F9E
:1032100081110E948118EC2FF0E0EE0FFF1FEC529D
:10322000FF4FA591B4919FB7F894111104C08C91F0
:10323000D095D82302C0EC91DE2BDC939FBFDF91A9
:10324000CF911F910895FF920F931F93CF93DF9318
:10325000182FF62EC72FD42F60E080914A050E94C8
:10326000F41883E00E94A913812F0E94A9130F2D47
:103270001C2FC0E0CD1751F0C83041F080E00E9413
:10328000A913F80181938F01CF5FF4CF61E08091A2
:103290004A05DF91CF911F910F91FF900C94F41884
:1032A0000F931F93CF93DF9300D000D0CDB7DEB73D
:1032B000182F10923A0510923B0510923C0510927F
:1032C0003D0510923E0544E0BE016F5F7F4F0E94B6
:1032D00023192A813981822F90E065E095958795A1
:1032E0006A95E1F748E0349F800D911D1124092E65
:1032F000000CAA0BBB0B80933B0590933C05A0935D
:103300003D05B0933E0523FF29C032E0880F991F89
:10331000AA1FBB1F3A95D1F72370820F911DA11DE3
:10332000B11DBA2FA92F982F88272B81820F911DAD
:10333000A11DB11DBA2FA92F982F88272C81820F8C
:10334000911DA11DB11D80933B0590933C05A09359
:103350003D05B0933E0581E080933A058FEF810FE4
:103360000E947815082F84E0810F0E94781503FFD2
:1033700004C091E09093480502C010924805482F80
:103380004F7040933F0560E475E085E0810F0E9437
:1033900023190F900F900F900F90DF91CF911F91F5
:1033A0000F9108951F93CF93DF93CDE1D5E060E0B7
:1033B0008DA50E94F41880EA0E94A91380E00E9463
:1033C000A913182F61E08DA50E94F418812FDF91B9
:1033D000CF911F910895CF93DF9390E0FC01E450CB
:1033E000FF4F2491FC01E851FF4F8491882361F144
:1033F00090E0880F991FFC01E653FF4FC591D491CF
:10340000FC01EC52FF4FA591B491611109C09FB727
:10341000F8948881209582238883EC912E230BC019
:10342000623061F49FB7F8948881322F30958323FE
:103430008883EC912E2B2C939FBF06C08FB7F894F6
:10344000E8812E2B28838FBFDF91CF9108953FB75E
:10345000F8948091850690918606A0918706B09198
:10346000880626B5A89B05C02F3F19F00196A11D1F
:10347000B11D3FBFBA2FA92F982F8827820F911D0A
:10348000A11DB11DBC01CD0142E0660F771F881F51
:10349000991F4A95D1F708958F929F92AF92BF924C
:1034A000CF92DF92EF92FF926B017C010E94271A6C
:1034B0004B015C01C114D104E104F104F1F00E945C
:1034C000271ADC01CB0188199909AA09BB09883E92
:1034D0009340A105B10570F321E0C21AD108E108BB
:1034E000F10888EE880E83E0981EA11CB11CC1145F
:1034F000D104E104F10419F7DDCFFF90EF90DF90E4
:10350000CF90BF90AF909F908F9008952FB7F89471
:103510006091810670918206809183069091840665
:103520002FBF08951F920F920FB60F9211242F9361
:103530003F938F939F93AF93BF9380918106909118
:103540008206A0918306B09184063091800623E024
:10355000230F2D3720F40196A11DB11D05C026E8CB
:10356000230F0296A11DB11D209380068093810632
:1035700090938206A0938306B0938406809185067B
:1035800090918606A0918706B09188060196A11DAC
:10359000B11D8093850690938606A0938706B0930D
:1035A0008806BF91AF919F918F913F912F910F907E
:1035B0000FBE0F901F9018958DE195E00C94110CA3
:1035C000789484B5826084BD84B5816084BD85B5FE
:1035D000826085BD85B5816085BD80916E0081600A
:1035E00080936E00109281008091810082608093B0
:1035F00081008091810081608093810080918000B2
:103600008160809380008091B10084608093B100DC
:103610008091B00081608093B00080917A008460D6
:1036200080937A0080917A00826080937A00809102
:103630007A00816080937A0080917A00806880931C
:103640007A001092C100C7E0D1E060E089910E9449
:10365000EB1901E0C731D007C1F70E9480148EE555
:1036600092E00E9472146AE070E080E090E00E94B4
:103670004C1A61E080E00E94EB1961E081E00E9459
:10368000EB190E94861A6838734181059105E8F4A8
:1036900060E080E00E94F41860E081E00E94F4188D
:1036A00064E670E080E090E00E944C1A61E080E007
:1036B0000E94F41861E081E00E94F41864EF71E068
:1036C00080E090E00E944C1ADCCF61E080E00E9434
:1036D000F41861E081E00E94F41862E08AE00E9440
:1036E000EB19C7E0D1E061E089910E94EB1921E07C
:1036F000C731D207C1F7A3E8B5E08BE895E0FD013B
:1037000011928E179F07E1F7EAE9F2E082EA92E070
:1037100021912D938E179F07D9F787E580938C050C
:103720008DE080938B0585E380938E0582E0809306
:103730008F0580918D05836080938D0585EC90E0E9
:10374000A0E0B0E08093970590939805A093990529
:10375000B0939A058AE00E94CB18892BB1F40E949D
:10376000861A6B017C01C1E00E94861ADC01CB0144
:103770008C199D09AE09BF09883E9340A105B1058A
:1037800008F025C6C1111AC6E5CF61E080E00E94AD
:10379000F41861E081E00E94F41888E39FE09093C0
:1037A0006B0680936A068AE080934A0561E00E9476
:1037B000EB1961E080914A050E94F418C4E1D0E061
:1037C00002EFA02E00E0B02E86E0E82E81E0F82E79
:1037D000DFB6F8948091BF03811126C0F501849172
:1037E000F7012491E82FF0E0EE0FFF1FE653FF4FA3
:1037F000A591B4919C91822F892321F461E08AE004
:103800000E94F41861E08AE00E94EB198CB5806197
:103810008CBD8CB580648CBD61E08DE00E94EB199D
:1038200061E08BE00E94EB198091BF038F5F809372
:10383000BF03DFBE60E080914A050E94F41880EC6F
:103840000E94A91361E080914A050E94F4186AE081
:1038500070E080E090E00E944C1A80E80E94AA1874
:10386000882381F06AE070E080E090E00E944C1ACA
:103870006EE170E080E090E00E944C1A219709F020
:10388000A7CF4BC06AE070E080E090E00E944C1A45
:1038900061E08AE20E94E31561EB89E20E94E31590
:1038A00065E088E20E94E3156AE070E080E090E065
:1038B0000E944C1A10E360E0812F0E94E31560E043
:1038C00080E1810F0E94E31560E080E2810F0E9499
:1038D000E3151F5F1E3379F760E080E60E94E31571
:1038E00060E080E70E94E31563E08BE20E94E3154D
:1038F00044E064E680E60E94951540E060E680E7DB
:103900000E94951580E00E94AA188111ABCF6AE051
:1039100070E080E090E00E944C1A8FEF8093770671
:1039200084E10E947B17881F8827881F8093930358
:10393000882321F10E94801487E092E00E94721493
:1039400089EB92E00E9476156AE070E082E090E0F8
:103950000E9423158AEC92E00E9476156AE070E0DE
:1039600085E090E00E9423158CEC92E00E94761591
:103970008FEF93E00E94D3080E946B17809193030E
:10398000811110C010926F0681E08093700661E093
:1039900080E00E94EB19809170068F3F19F061E082
:1039A0000E94EB1987EA93E0E7E9F3E023E621932D
:1039B0008E179F07E1F70E94AC1080915C0388236B
:1039C00009F4A3C081E10E947B178093940382E1F4
:1039D0000E947B1780939503A7E9B3E080E090E015
:1039E000C12CD12C7601C3942D912570253091F5F1
:1039F000FC01C3E0F595E795CA95E1F7EC56FC4F5D
:103A00002081AC0147705527622F70E0042E02C060
:103A1000759567950A94E2F760FD0EC0260137019F
:103A200004C0440C551C661C771C4A95D2F7B301A0
:103A3000A201422B40830EC03601470104C0660C30
:103A4000771C881C991C4A95D2F7B401A3014095B4
:103A50002423208301968031910531F607E011E09F
:103A6000E7E9EE2EE3E0FE2EC0E0D0E0812C912CC1
:103A700054018394F70181917F0180FF3CC0F801DC
:103A800080810E9419129E0173E0359527957A95E1
:103A9000E1F7AE01477055278823B1F0D501C40185
:103AA00004C0880F991FAA1FBB1F4A95D2F7F901BE
:103AB000E35AFC4F4081482B4083F901EC56FC4F00
:103AC00080959081892316C0D501C40104C0880F58
:103AD000991FAA1FBB1F4A95D2F7F901E35AFC4F61
:103AE000482F4095508145234083F901EC56FC4F07
:103AF0002081822B808321960F5F1F4FC031D1051B
:103B000009F0B8CF0E94C20E4BC007E913E0C0E035
:103B1000D0E0C12CD12C7601C394F80141918F01E2
:103B200040FF39C0CE0153E0959587955A95E1F74E
:103B30009E012770332742FD16C0B701A60104C0BD
:103B4000440F551F661F771F2A95D2F74095FC0139
:103B5000E35AFC4F208124232083FC01EC56FC4FC8
:103B60008081482314C0B701A60104C0440F551F2B
:103B7000661F771F2A95D2F7FC01E35AFC4F20817C
:103B8000242B2083FC01EC56FC4F8081482B408382
:103B90008C2F0E94240C2196C031D10509F0BDCF95
:103BA00080919303882321F084EC90E00E944F17CA
:103BB0002CE3222E312C812C912C540183940E94D1
:103BC000271A6093BB037093BC038093BD0390934B
:103BD000BE030091CA031091CB032091CC03309116
:103BE000CD032B013C01401A510A620A730A93016A
:103BF0008201053611052105310548F40E94BE00F9
:103C0000809196058823A1F10E94AC1031C0609389
:103C1000CA037093CB038093CC039093CD03C0E091
:103C20000E94D219837001F1F4C380914B058093F7
:103C3000590680914C0580935A0680914D058093DA
:103C40005B0680914E0580935C06409357068091F9
:103C50004805811109C4109258068091DD059091A4
:103C6000DE05892B09F405C4CF5FC23039F2D8CF05
:103C70004090B7035090B8036090B9037090BA03B6
:103C8000411451046104710409F443C02091810579
:103C900030918205C090BB03D090BC03E090BD037F
:103CA000F090BE03C418D508E608F708A0E1B7E213
:103CB0000E949D256C157D058E059F0508F424C482
:103CC00028C0C031D1050CF42DC421960E5F1F4FC2
:103CD000EC16FD06B4F788E08D0D8093C003F8E87C
:103CE0004F0EF3E15F1E611C711C4092B7035092AE
:103CF000B8036092B9037092BA03803151F4109204
:103D0000C0031092B7031092B8031092B903109237
:103D1000BA038091BB039091BC03A091BD03B09105
:103D2000BE034091C6035091C7036091C8037091D0
:103D3000C9032C013D01441A550A660A770A01E5B8
:103D4000401603EC500661047104A8F420910001B0
:103D50008091BB039091BC03A091BD03B091BE03C1
:103D60004091C2035091C3036091C4037091C50395
:103D700021112CC128C28093C6039093C703A0933E
:103D8000C803B093C903B7EAEB2EB3E0FB2E00E6FD
:103D900013E0C7E0CC2EC1E0DC2ED7E96D2ED3E0D6
:103DA0007D2EC0E0D0E0F701808181508E3F08F089
:103DB000FCC080838111F9C0F301808180FDBBC00C
:103DC00055245394F82FF4704F2E82FF512C652DFB
:103DD000F60180810E94F41880919603882369F18E
:103DE000FE01A3E0F595E795AA95E1F7CE0187706E
:103DF0009927EC56FC4F442071F0A501940104C0B2
:103E0000220F331F441F551F8A95D2F7DA01C901CB
:103E10002081822B0EC0B501A40104C0440F551FA0
:103E2000661F771F8A95D2F7DB01CA0180959081C2
:103E3000892380838C2F0E94240C809193038823F4
:103E400081F08EE891E00E9476156AE070E0CE0184
:103E50000E9423158AED92E00E947615852D0E941E
:103E60006B1780919203882309F49FC0809191037E
:103E7000882309F49AC080918103282F30E0F9014A
:103E8000E956FC4F408141FF45C040FD43C0F90168
:103E9000E955FC4F909180039083E82FE695E695D5
:103EA000E695982F977042FD73C3F0E0EC56FC4FF7
:103EB000B501A40104C0440F551F661F771F9A95D2
:103EC000D2F79081492B4083552453940E94240CAF
:103ED000E0918103F0E0E95FFE4F652D80810E9453
:103EE000F41880919303882389F082EE92E00E9477
:103EF00076156AE070E0809181030E945D178EE67E
:103F000091E00E947615852D0E946B1780918103A8
:103F10000E944A0D80919103815080939103E1E8C2
:103F2000F3E090E09F012158334028173907ECF562
:103F300021812193F7CF81FF38C0F8016081718121
:103F400081E090915F03911180E00E948D17809134
:103F50009303882351F184EF92E00E94761582E06A
:103F600093E00E94761584E093E00E947615F801B4
:103F7000808191810E94F3178DE093E00E94761575
:103F80006AE070E080915F030E945D1780915F039B
:103F9000811103C088E592E002C081E592E00E94B1
:103FA000761580E193E00E9472142196FFEFEF1ADC
:103FB000FF0A0E5F1F4F2FEF621A720A3FEFC31AFC
:103FC000D30AC031D10509F0EECEC0CE2C013D019F
:103FD000441A550A660A770A09E8401603E15006B2
:103FE0006104710408F4E7C18093C2039093C30392
:103FF000A093C403B093C5038091C10311E0180FCF
:104000001F70C12FD0E09E0129563C4F7901F90164
:10401000908190FD06C0811709F4CFC021961C2F16
:10402000EFCF1093C103811709F4C7C0FE01E95F08
:10403000FE4F80810E941912082F482F50E0CE01B8
:10404000E3E095958795EA95E1F7FC01E35AFC4F8B
:104050007081612F6770272F30E0062E02C03595E2
:1040600027950A94E2F7217033274217530709F086
:1040700092C0FC01EC56FC4F8081282F30E0062EC8
:1040800002C0359527950A94E2F72170332742172D
:10409000530709F490C12401350104C0440C551C98
:1040A000661C771C6A95D2F7B301A201002319F0B0
:1040B000482B408303C0409584238083812F0E9436
:1040C000240CF701808182FF04C091E0011190E08F
:1040D000092F81FD11C090915F03CC0FDD1FFE0100
:1040E000E05AFC4F6081718181E0011118C091118B
:1040F00080E00E948D1717C0FE01E955FC4F002398
:1041000009F445C08081811140C0CC0FDD1FFE0144
:10411000E05AFC4F6081718181E090915F039111C1
:1041200080E00E94C01780919303882309F443C163
:1041300084EF92E00E9476156AE070E0802F0E9482
:104140005D1784E093E00E947615C05ADC4F8881A9
:1041500099810E94F3178DE093E00E9476156AE042
:1041600070E080915F030E945D1780915F03811171
:1041700003C088E592E002C081E592E00E947615D6
:1041800080E193E00E94721416C1108214C158E2BB
:10419000452E408210C1D501C40104C0880F991F6B
:1041A000AA1FBB1F6A95D2F7002319F0872B8083C3
:1041B00002C1809578237083FEC02F96CF70DD27D3
:1041C000C093C103F8C06C017D01C41AD50AE60A88
:1041D000F70A09EEC01603E0D006E104F10408F482
:1041E000EAC08093C2039093C303A093C403B09327
:1041F000C503C0E0D0E09E0129563C4F7901F9018A
:10420000808180FFD3C0FE01E95FFE4F80810E9464
:104210001912182F682F70E09E0143E035952795FD
:104220004A95E1F7F901E35AFC4FA081CE0187706E
:1042300099274A2F50E0082E02C0559547950A94B9
:10424000E2F7417055276417750709F09FC0F9011F
:10425000EC56FC4F2081422F50E0082E02C05595AD
:1042600047950A94E2F7417055276417750709F4DA
:104270009DC0112371F02401350104C0440C551C6C
:10428000661C771C8A95D2F7D301C201822B8083EA
:104290000EC0B501A40104C0440F551F661F771F4F
:1042A0008A95D2F7DB01CA018095282320838C2FC1
:1042B0000E94240CF701808182FF04C091E011115B
:1042C00090E0192F81FD11C090915F03CC0FDD1F8D
:1042D000FE01E05AFC4F6081718181E0111118C02C
:1042E000911180E00E948D1717C0FE01E955FC4F27
:1042F000112309F447C08081811142C0CC0FDD1F1A
:10430000FE01E05AFC4F6081718181E090915F0372
:10431000911180E00E94C01780919303811103C026
:10432000C0E1D0E043C08AE193E00E9476156AE0E4
:1043300070E0812F0E945D1784E093E00E94761563
:10434000C05ADC4F888199810E94F3178DE093E079
:104350000E9476156AE070E080915F030E945D170D
:1043600080915F03882349F081E592E00E947615F1
:1043700080E193E00E947214D3CF88E592E0F6CFFB
:10438000108214C098E2492E408210C0B501A401E9
:1043900004C0440F551F661F771F8A95D2F711235B
:1043A00011F0A42B02C04095A423A0832196C03114
:1043B000D1050CF420CF0E94431301CC8AE00E9467
:1043C000CB18C1E0892B09F4CFC9C0E0CDC9CC23FB
:1043D00009F4C0C98FE195E00E94700A0E94BC18E0
:1043E00040918D054093330565E170E08FE195E0E4
:1043F0000E94D5080E94801483EA92E00E94721401
:1044000060E081E00E94F41860E080E00E94F4180F
:10441000FFCF0E94D219C11108C080FF25CC81E6D0
:104420000E94501940E061E007C081FF1DCC81E788
:104430000E94501940E062E08CE20E949515409184
:104440003F05EDE1F5E09F012D513540319680911A
:104450003F0590E0281739070CF0E7CB82A1DF0178
:10446000A15CBE4F8C93EFCF5524539450925806C5
:10447000F4CB66246394712C7092DE056092DD05A6
:104480008091DB059091DC05CC9724F01092DC053F
:104490001092DB05E7E5F6E08091DB059091DC0505
:1044A0002191DC01A356BA4F12962C93019690935A
:1044B000DC058093DB058091E1059091E205019692
:1044C0009093E2058093E10506E0E636F00721F7D8
:1044D000CD97ACF08091DF059091E0050F968C337D
:1044E00091052CF49093E0058093DF0504C01092B1
:1044F000E0051092DF053092E2052092E10510926E
:10450000DE051092DD05B0CBD090C003CD2DD0E0FC
:104510008E01000F111F005A1C4F7E0127E0E20E92
:10452000F11CD6CBE091C103F0E0E956FC4F80814D
:1045300080FFCBCBFE0183E0F595E7958A95E1F707
:10454000EC56FC4F808190E09E012770332702C01B
:10455000959587952A95E2F78170FE01E956FC4F03
:10456000908192FF02C021E0822790915F03F801C1
:1045700060817181882331F081E0911180E00E9497
:10458000C017A3CB81E0911180E00E948D179DCBD5
:10459000F0E0EC56FC4FB501A40104C0440F551FD8
:1045A000661F771F9A95D2F74095908149234083E3
:1045B000512C8CCC6F927F928F929F92AF92BF9230
:1045C000CF92DF92EF92FF920F931F93CF93DF93DF
:1045D000CDB7DEB7C654D1090FB6F894DEBF0FBE13
:1045E000CDBF1092D1031092D00388EE93E0A0E0EB
:1045F000B0E08093D2039093D303A093D403B093FD
:10460000D5038BE191E09093CF038093CE0385ECAB
:1046100090E09093DB038093DA0384EC90E0909336
:10462000DD038093DC0380EC90E09093DF038093C4
:10463000DE0381EC90E09093E1038093E00382EC51
:1046400090E09093E3038093E20386EC90E09093F4
:10465000E5038093E4031092E7031092E8031092BD
:10466000E9031092EA038DE491E090931E05809394
:104670001D0585E491E09093200580931F058AE550
:1046800095E00E94BC088DE391E090937F058093B4
:104690007E05E3E8F5E080E3819345E0EB38F4073D
:1046A000D9F785E391E090939E0580939D05109244
:1046B0007906109293051092690627E1FE01319662
:1046C000AAE3B5E001900D922A95E1F79A838983D8
:1046D00021961FAE1EAE219723961FAE1EAE2397C6
:1046E00025961FAE1EAE259727961FAE1EAE2797A6
:1046F000DE011396EFE9F5E08D91819385E0EB3DC6
:10470000F807D1F71092DC051092DB051092DE0558
:104710001092DD051092E0051092DF051092E2057F
:104720001092E10585E491E09A83898385E18A8787
:1047300081E18B8781E08C878D878EE2888B80E397
:1047400090E09F878E8781E090E00E94B2259C8355
:104750008B83CE0101960E94590ACE0101960E94D8
:104760003A0BDA8423EFE22E24E0F22E00E010E090
:104770001B8E0D1510F08FEF04C0C80149960E94E2
:10478000D30890E0F701819391937F010F5F1F4F52
:104790000531110569F7EB847884CC848BE6882E8B
:1047A00084E0982E9FEAA92E94E0B92ED12CF4E053
:1047B000CF0ED11C0E851F85F12C66246394198AB7
:1047C0001A8A1B8A1C8A1B8EEF1410F07F1410F4B7
:1047D0006B8E13C0C8010E94D308898BC801019653
:1047E0000E94D3088A8BC80102960E94D3088B8B43
:1047F000C80103960E94D3088C8B3989832F90E0DF
:10480000F401819391934F012A89822F90E091A323
:1048100080A39B89492F50E0F501419351935F019B
:104820008C89482F50E051A340A3F3940C0D1D1D1B
:10483000F1E1FF12C4CF4B815C815093220540937C
:1048400021054D81409323054E81409324054F81DE
:1048500040932505488540932605498540932705C3
:104860004A8540932805E09229054C8540932A0506
:104870004D8540932B054E855F8550932D054093C4
:104880002C05488940932E0530932F052093300541
:1048900090933105809332058D89809333058E89FD
:1048A0009F899093350580933405888D80933605D4
:1048B000898D809337058A8D809338058B8D809301
:1048C0003905CE0101960E94FB0B8DE391E09A839E
:1048D0008983DE011696CE010E96FD0120E3219319
:1048E000E817F907E1F78B81809380058C819D8122
:1048F0009093820580938105E3E8F5E08D918193A3
:1049000045E0EB38F407D1F78E8580938B058F85D2
:1049100080938C05888980938D05898980938E0585
:104920008A8980938F0581E18093900585E180934A
:10493000920581E080939105CE0101960E94BC080A
:104940008B8180935C058C8180935D058D81809344
:104950005E058E8180935F058F81988590936105B8
:104960008093600589859A8590936305809362059D
:104970008B859C8590936505809364058D859E85C8
:1049800090936705809366058F8598899093690554
:104990008093680589899A8990936B0580936A054D
:1049A0008B8980936C05DE015496EDE6F5E08D91E0
:1049B000819385E0E537F807D1F78C8D80937505F5
:1049C0008D8D809376058E8D809377058F8D809366
:1049D000780588A18093790589A19AA190937B0598
:1049E00080937A058BA180937C058CA180937D05B3
:1049F00080919305816080939305109294050FEF49
:104A000000936F060093700611E0109371061092E8
:104A100072060E94861A60937306709374068093E0
:104A200075069093760610926B0610926A061092A5
:104A30007B0610927A0610929505109396050093C6
:104A400077061093780685EC90E0A0E0B0E08093C4
:104A5000970590939805A0939905B0939A058FE1D7
:104A600095E00E943A0B80912405909125059827A6
:104A70008927982790933505809334059093820574
:104A800080938105809123058093800583E0809346
:104A90008D0583E090E09093E4058093E305CA5B85
:104AA000DF4F0FB6F894DEBF0FBECDBFDF91CF91C1
:104AB0001F910F91FF90EF90DF90CF90BF90AF903C
:104AC0009F908F907F906F900895F999FECF92BD3F
:104AD00081BDF89A992780B50895262FF999FECFC0
:104AE0001FBA92BD81BD20BD0FB6F894FA9AF99A0B
:104AF0000FBE01960895A1E21A2EAA1BBB1BFD0151
:104B00000DC0AA1FBB1FEE1FFF1FA217B307E407AC
:104B1000F50720F0A21BB30BE40BF50B661F771F04
:104B2000881F991F1A9469F76095709580959095E4
:104B30009B01AC01BD01CF010895A29FB001B39FBD
:104B4000C001A39F700D811D1124911DB29F700D96
:104B5000811D1124911D0895EE0FFF1F0590F49102
:104B6000E02D09940F931F93CF93DF93823091052B
:104B700010F482E090E0E0918B06F0918C0620E04A
:104B800030E0A0E0B0E0309719F14081518102811E
:104B9000138148175907C8F08417950769F41097CF
:104BA00031F012960C93129713961C9327C0009322
:104BB0008B0610938C0622C02115310519F042177F
:104BC000530718F49A01BD01EF01DF01F801DBCFB3
:104BD00021153105F9F0281B390B2430310580F4FB
:104BE0008A819B816115710521F0FB01938382838A
:104BF00004C090938C0680938B06FE01329644C0CD
:104C0000FE01E20FF31F8193919322503109398302
:104C100028833AC02091890630918A06232B41F4DB
:104C2000209103013091040130938A062093890674
:104C300020910101309102012115310541F42DB778
:104C40003EB74091050150910601241B350BE091C0
:104C50008906F0918A06E217F307A0F42E1B3F0B9A
:104C60002817390778F0AC014E5F5F4F24173507DE
:104C700048F04E0F5F1F50938A0640938906819338
:104C8000919302C0E0E0F0E0CF01DF91CF911F915E
:104C90000F910895CF93DF93009709F481C0FC0131
:104CA000329713821282A0918B06B0918C061097D6
:104CB00081F420813181820F931F209189063091E8
:104CC0008A062817390751F5F0938A06E09389067A
:104CD00067C0ED0120E030E0CE17DF0740F44A81E5
:104CE0005B819E0141155105F1F0EA01F5CFD383B7
:104CF000C28340815181840F951FC817D90759F489
:104D000088819981840F951F0296918380838A817F
:104D10009B81938382832115310529F4F0938C06BE
:104D2000E0938B063DC0E901FB83EA8349915991E9
:104D3000C40FD51FEC17FD0761F480819181840FAA
:104D4000951F0296E90199838883828193819B83D1
:104D50008A83E0E0F0E012968D919C911397009782
:104D600019F0FD01DC01F7CF8D919C9111979D0108
:104D70002E5F3F4F820F931F2091890630918A0644
:104D80002817390769F4309729F410928C0610928D
:104D90008B0602C013821282B0938A06A093890602
:104DA000DF91CF91089581E090E0F8940C94D8269B
:104DB00010E0C3E9D0E004C0FE010E94AC252196BA
:0A4DC000C439D107C9F7F894FFCFFA
:104DCA000100008D0680001514100F12130E021137
:104DDA000304050607080900000000D4123D126BFF
:104DEA001221139C127A128E12000000005F144FD7
:104DFA001300000000230CB80800000000D208B617
:104E0A000800000000FB0B070C00000000110C1941
:104E1A000C30405056617256616C75650042697477
:104E2A00204E616368626172706F72742000202084
:104E3A00537461746520005665727A6F656765728E
:104E4A007465204175736761626520002020506F88
:104E5A007274200020206F6E5F6F6666200020202B
:104E6A0073746174652000736574416C6C4F75745A
:104E7A007075747300736574416C6C4F75747075DA
:104E8A007473456E646500557365725F46756E632B
:104E9A0074696F6E3A20004576656E744D6174636D
:104EAA006820004576656E745661723A2000496E34
:104EBA007320454550524F4D20676573706569638D
:104ECA0068657274000D0A004F50433A00204E6F15
:104EDA0064653A002043616E49443A00204D657387
:104EEA007361676553697A653A0020537461746522
:104EFA003A0050756C735F737065696368657220F8
:104F0A000053686F775F616B745F737461746520B7
:104F1A00002073686F727400206C6F6E67004163C3
:104F2A006874756E6720333238502D50726F7A6507
:104F3A0073736F7221204175736761656E676520AF
:104F4A003120756E642032206E696368742076653C
:104F5A007277656E646261722100415244555F4303
:104F6A00414E00454550524F4D207A757275656322
:104F7A006B67657365747A74004172647543414E58
:104F8A002056657273696F6E20002E004545505297
:104F9A004F4D206C6576656C200020205374617437
:104FAA0065007665727A6F656765727465722050FE
:104FBA006F72740050696E2072656164696E673A37
:104FCA002000300020204576656E742000202000E5
:104FDA0020676573656E6465740050696E20286E7B
:104FEA006963687420656E747072656C6C74293AB2
:024FFA00200095
:00000001FF
