:100000000C94A3020C94CB020C94CB020C94CB0264
:100010000C94CB020C94CB020C94CB020C94CB022C
:100020000C94CB020C94CB020C94CB020C94CD021A
:100030000C94CB020C94CB020C94CB020C94CB020C
:100040000C94BA2D0C94CB020C948B2B0C94BD2BDE
:100050000C94CB020C94CB020C94CB020C94CB02EC
:100060000C94CB020C94CB020C94CB020C94CB02DC
:100070000C94CB020C94CB020C94CB020C94CB02CC
:100080000C94CB020C94CB020C94CB020C94CB02BC
:100090000C94CB020C94CB020C94CB020C94CB02AC
:1000A0000C94CB020C94CB020C94CB020C94CB029C
:1000B0000C94CB026D6373003A2000536572766F27
:1000C0002000756E6775656C74696765205365728D
:1000D000766F6E756D6D65720020496E73204545B3
:1000E00050524F4D2067657370656963686572741F
:1000F000005361766520506F736974696F6E204696
:100100006C61673A0053686F72743A204576656E89
:1001100074002020204576656E7420004C6F6E6759
:100120003A204E6F64654E6F2000536572766F20E3
:1001300000536572766F200053657474696E67733F
:100140007661726961626C652000454550524F4D81
:100150002D446174656E3A005570646174655F701A
:1001600061726100496E7320454550524F4D2067C2
:1001700065737065696368657274005361766520A4
:1001800053746174757300536572766F0020205349
:100190004C20746F6F206269673A00426569737022
:1001A00069656C3A203C313A523E206F646572209A
:1001B0003C363A313530303E00202020202020656A
:1001C000696E65205A61686C207A77697363686527
:1001D0006E203020756E642032353620667565726B
:1001E0002073747566656E6C6F73652056657273E7
:1001F00074656C6C756E6720756562657220726FD0
:10020000637261696C20436F64696572756E672003
:10021000284D697474656C7374656C6C756E6720B9
:100220006C6965677420626569203135302900206A
:10023000202020202065696E65205A61686C207A34
:100240007769736368656E2037353020756E64207A
:100250003235303020667565722073747566656E50
:100260006C6F7365205665727374656C6C756E6720
:1002700020284D697474656C7374656C6C756E6759
:10028000206C696567742062656920313530306D96
:100290006373290020202020202027522720667504
:1002A00065722072656368746520536572766F733A
:1002B00074656C6C756E6700202020202020274C10
:1002C000272066756572206C696E6B6520536572B8
:1002D000766F7374656C6C756E670020207820698A
:1002E000737420656E7477656465720020206E20DB
:1002F0006973742064696520536572766F6E756DDD
:100300006D65722028312D3829003C6E3A783E0008
:1003100053657269656C6C65205374656C6C6B6FAA
:100320006D6D616E646F73206D697420273C2720AA
:10033000626567696E6E656E20756E6420273E2764
:10034000206265656E64656E00416E6C65697475EA
:100350006E67004C65747A746520536572766F70B1
:100360006F736974696F6E20776965646572206860
:1003700065727374656C6C656E00537461727400A1
:10038000536572766F7374617274706F7369746998
:100390006F6E206E696368742067656C6164656E5A
:1003A00000536572766F00476573706569636865B1
:1003B00072746520506F736974696F6E20006D638D
:1003C00073006D6373202D2000202D3E207468651E
:1003D0006F72657469736368206D6178696D616CB3
:1003E000206D6F65676C6963683A200053657276AB
:1003F0006F737072656974756E673A20004172643C
:100400007543414E2D536572766F20566572736940
:100410006F6E20004641494C454420746F2073653F
:100420006E642043414E002000564152532000206C
:1004300000200020000A4556454E54533A00200043
:100440000A4445562D4E554D424552533A00200020
:100450000A494E5445524E414C2056415253202891
:100460000020000A4E4F444520564152533A000A9C
:100470004E554D204556454E545320564152533A01
:10048000000A4E554D204556454E54533A000A46F3
:100490006C6167733A000A4E4E3A000A43414E5F60
:1004A00049443A004944454E543A004D454D4F5257
:1004B000592044554D5000777269746520766172F9
:1004C00020746F20656570726F6D000A0D0E090053
:1004D0000302000004050800000000000000000006
:1004E000000000000000010204081020408001020A
:1004F000040810200102040810204080400102047A
:1005000008040404040404040402020202020203B4
:1005100003030303030202030505050500000000B1
:100520002300260029002C000000000025002800E0
:100530002B002E0000000000240027002A002D00C0
:10054000A20DED2BCE1011241FBECFEFD8E0DEBFE1
:10055000CDBF12E0A0E0B1E0EEE5F8E602C0059004
:100560000D92AA34B107D9F726E0AAE4B2E001C09F
:100570001D92A133B207E1F712E0C2EAD2E004C053
:100580002197FE010E94DF2FC03AD107C9F70E94D0
:10059000A52D0C9422340C9400001F920F920FB6DC
:1005A0000F9211242F933F938F939F938091BB02BF
:1005B0009091BC02009729F580915B02882391F10C
:1005C0008091AB029091AC02883893415CF5739AAC
:1005D00080918800909189002091AB023091AC020B
:1005E000820F931F90938900809388008091BD02B1
:1005F0009091BE022091AB023091AC02820F931F0A
:1006000021C08130910509F043C0739880915C024C
:10061000882341F02091AD023091AE02283883E169
:10062000380734F1809188009091890088579C4E5A
:1006300090938900809388008091BD029091BE02C2
:1006400088579C4E9093BE028093BD028091BB025E
:100650009091BC0201969093BC028093BB029F9143
:100660008F913F912F910F900FBE0F901F90189573
:10067000729A8091880090918900820F931F9093C5
:100680008900809388008091BD029091BE02B6CF10
:100690008230910581F4729880915D02882311F275
:1006A0002091AF023091B002283883E138070CF076
:1006B000B9CF459ADECF8330910589F44598809172
:1006C0005E02882309F4AECF2091B1023091B202CC
:1006D000283883E138070CF0A5CF449ACACF84307C
:1006E000910589F4449880915F02882309F49ACF98
:1006F0002091B3023091B402283883E138070CF01E
:1007000091CF439AB6CF8530910589F44398809173
:100710006002882309F486CF2091B5023091B60299
:10072000283883E138070CF07DCF429AA2CF86307B
:10073000910589F4429880916102882309F472CF6F
:100740002091B7023091B802283883E138070CF0C5
:1007500069CF419A8ECF079789F4419880916202C0
:10076000882309F45FCF2091B9023091BA0228386A
:1007700083E138070CF056CF409A7BCF4098209108
:10078000BD023091BE02203184EA380760F48091C6
:10079000880090918900805F9B45821B930B90930A
:1007A00089008093880080918800909189008A5602
:1007B0009F4F90938900809388001092BE02109200
:1007C000BD021092BC021092BB0280919A028F5F10
:1007D00080939A0244CF84E690E0909389008093BE
:1007E0008800F89410928000E1E8F0E010828081A7
:1007F00082608083EFE6F0E080818260808378947D
:1008000008958091BF02882331F06BE771E087E89B
:1008100095E00E948D2C6BE28BEE92E00E9406190F
:100820004091A4045091A5048417150679F06BE259
:100830008BEE92E00E9480138091BF02882331F0FA
:1008400064E671E087E895E00E948D2C81E080935A
:10085000870208952F923F924F925F926F927F92FC
:100860008F929F92AF92BF92CF92DF92EF92FF92C0
:100870000F931F93CF93DF9300D01F92CDB7DEB7B6
:1008800061E08BEE92E00E94061989838695817063
:100890008093E202898181708093890270EC672ED7
:1008A00072E0772E73011B821A8210E000E0602F45
:1008B0008DEE92E00E94061CFC01828193819827B4
:1008C00089279827F701819391937F01C8010196A9
:1008D0002A813B812F5F3F4F3B832A8321313105A2
:1008E00009F0DEC06CE28BEE92E00E94061981E016
:1008F0008093BF020EE414E01B830A8353E0352E7D
:10090000912C812CC12CD12C7601C394632D8BEEBC
:1009100092E00E94061990E0EA81FB81978386832A
:10092000A084B18455245394530C652D8BEE92E032
:100930000E9406198A151B0409F1652D8BEE92E0C1
:100940000E94061990E0EA81FB8191878087C401AB
:10095000880F991FA701960104C0220F331F441F5F
:10096000551F8A95D2F7C9012091980230919902BA
:10097000822B932B909399028093980224013FEF4E
:10098000431A530AEA81FB81A284B38432E0232E06
:10099000230C622D8BEE92E00E9406198A151B042F
:1009A00011F1622D8BEE92E00E94061990E0EA812F
:1009B000FB8193878287C201880F991F0197A70146
:1009C000960104C0220F331F441F551F8A95D2F78A
:1009D000C9012091980230919902822B932B909318
:1009E00099028093980263E0630D8BEE92E00E947F
:1009F000061990E0EA81FB819587848764E0630DA6
:100A00008BEE92E00E94061990E0EA81FB819787C5
:100A10008687632D8BEE92E00E940619A70196014E
:100A200004C0220F331F441F551F8A94D2F7490177
:100A30009091930282FF3DC0922B90939302632D7D
:100A40008BEE92E00E94061990918A0280FF35C0D9
:100A5000892A80928A0255E0350E8A819B810A9606
:100A60009B838A8342019BE2391250CF8091980286
:100A700090919902892B09F071C020916403223072
:100A800008F47CC0223109F402C2E0F4283009F4F1
:100A9000FAC1213109F4F9C12730E1F428E01AC084
:100AA0002A813B812830310511F4C80102968C015E
:100AB000FECE822F80959823C0CF8094982190936A
:100AC0008A02C9CF2C3109F4E6C108F0D5C12B3117
:100AD00009F4DFC12250330BC90165E070E00E94C8
:100AE000A92F660F771F21703327260F371F81E04C
:100AF00090E0A0E0B0E004C0880F991FAA1FBB1FC0
:100B00002A95D2F790939902809398028091BF0220
:100B10008823F1F068E571E087E895E00E94562CA3
:100B200060919802709199024AE050E087E895E060
:100B30000E944A2D62E471E087E895E00E947A2CD9
:100B40004AE050E06091640387E895E00E94772DC9
:100B50008091980290919902892B81F08091E7020F
:100B60009091E802A091E902B091EA028093940288
:100B700090939502A0939602B0939702109264030B
:100B80008091BF02882309F461C168E472E087E8BC
:100B900095E00E949F2C6AE471E087E895E00E944E
:100BA0008D2C68E371E087E895E00E94562C4AE0BE
:100BB00050E0698187E895E00E94772D4EE454E08B
:100BC0005B834A83F12CE12C61E371E087E895E0D7
:100BD0000E94562C67015FEFC51AD50A4AE050E023
:100BE000B60187E895E00E944A2D61E471E087E84C
:100BF00095E00E947A2CF301619171913F014AE0E6
:100C000050E087E895E00E94892D62E471E087E872
:100C100095E00E947A2CF301668177814AE050E0EA
:100C200087E895E00E94892D62E471E087E895E00D
:100C30000E947A2CEA81FB81668177814AE050E04C
:100C400087E895E00E944A2D62E471E087E895E02C
:100C50000E947A2CEA81FB81608571854AE050E030
:100C600087E895E00E944A2D62E471E087E895E00C
:100C70000E947A2CEA81FB81628573854AE050E00C
:100C800087E895E00E944A2D62E471E087E895E0EC
:100C90000E947A2CEA81FB81648575854AE050E0E8
:100CA00087E895E00E944A2D62E471E087E895E0CC
:100CB0000E947A2CEA81FB81668577854AE050E0C4
:100CC00087E895E00E944A2D62E471E087E895E0AC
:100CD0000E947A2C6091930270E002C0759567952E
:100CE000EA94E2F7617077274AE050E087E895E000
:100CF0000E94512D2A813B81265F3F4F3B832A83EF
:100D0000760134E0C316D10409F05ECF40ED52E025
:100D10005B834A836AE271E087E895E00E94562C83
:100D200076015FEFE51AF50A4AE050E0B70187E87F
:100D300095E00E944A2D61E471E087E895E00E9409
:100D40007A2CEA81FB8161917191FB83EA834AE00D
:100D500050E087E895E00E94892D62E471E087E821
:100D600095E00E947A2CEA81FB81668177814AE0D6
:100D700050E087E895E00E94892D62E471E087E801
:100D800095E00E947A2CF80166A577A54AE050E02C
:100D900087E895E00E944A2D62E471E087E895E0DB
:100DA0000E947A2CF80160A971A94AE050E087E816
:100DB00095E00E944A2D62E471E087E895E00E9488
:100DC0007A2CF80162A973A94AE050E087E895E01F
:100DD0000E944A2D62E471E087E895E00E947A2C37
:100DE000F80164A975A94AE050E087E895E00E94FF
:100DF0004A2D62E471E087E895E00E947A2CF801C0
:100E000066A977A94AE050E087E895E00E944A2D5C
:100E100062E471E087E895E00E947A2C6091930289
:100E200070E002C075956795CA94E2F76170772704
:100E30004AE050E087E895E00E94512D065F1F4F81
:100E40006701F8E0EF16F10409F064CF0F900F90FE
:100E50000F90DF91CF911F910F91FF90EF90DF9056
:100E6000CF90BF90AF909F908F907F906F905F904A
:100E70004F903F902F900895253279F0263209F057
:100E800029CE25E227CE27E025CE22E123CE21E17F
:100E900021CE2CE11FCE2BE11DCE26E21BCE6F9280
:100EA0007F928F929F92AF92BF92CF92DF92EF92FA
:100EB000FF920F931F93CF93DF93F6E38F2EF1E012
:100EC0009F2EE40161E089910E94452FFE01319738
:100ED00061E080810E94092F21E0CE33D20791F793
:100EE000CEE2D1E061E089910E94092FFE013197A5
:100EF00060E080810E94452F31E0C633D30791F72F
:100F00006B9A6A9A48E050E064E471E08CE493E004
:100F10000E94842289E580935A038DE080935903CF
:100F200089E380935C03C1E0C0935D0361E08CE4DE
:100F300093E00E94CC2261E08CE493E00E94D522F1
:100F40008DEB90E0A0E0B0E08093650390936603A2
:100F5000A0936703B093680384E79AE09093390401
:100F6000809338046AE08BEE92E00E94CA116CE232
:100F70008BEE92E00E940619C093BF0226E040E08B
:100F800052EC61E070E087E895E00E94292B68E46C
:100F900072E087E895E00E949F2C6DEF73E087E890
:100FA00095E00E94562C4AE050E061E070E087E84E
:100FB00095E00E944A2D6DE471E087E895E00E947B
:100FC0007A2C4AE050E069E070E087E895E00E9402
:100FD000512D6FE471E087E895E00E949F2C8DEE23
:100FE00092E00E9433208091BF02811106C041E04F
:100FF00060E08BEE92E00E94A8180E942A041092F2
:1010000094021092950210929602109297021092FA
:101010009902109298028091BF02882381F16CEEB0
:1010200073E087E895E00E94562C4AE050E060E1CA
:1010300070E087E895E00E944A2D69EC73E087E84C
:1010400095E00E94562C4AE050E06CE271E087E89F
:1010500095E00E944A2D62EC73E087E895E00E94DB
:10106000562C4AE050E06CE87AE087E895E00E9470
:101070004A2D6EEB73E087E895E00E948D2C6BE2C1
:101080008BEE92E00E94061990E09093A504809365
:10109000A4040BEA12E05BE9C52E52E0D52E64E011
:1010A000E62EF12CD0E0C0E078E8672E73E1772ED1
:1010B000E8E1AE2EE5E1BE2E80918902882309F495
:1010C000EDC02091BF02E091A404F091A5040C2E84
:1010D00002C0F595E7950A94E2F7E170FF27EE0D5F
:1010E000FF1DEE0FFF1FE25BFB4F8081918144E00B
:1010F000880F991F4A95E1F7F501E81BF90BCF011D
:10110000F80191838083222331F067EA73E087E856
:1011100095E00E94562CF801819191918F01F60182
:10112000819391936F0121962091BF02222301F1B7
:1011300088389341E9F061EA73E087E895E00E941E
:10114000562C4AE050E0BE0187E895E00E944A2D07
:1011500062E471E087E895E00E947A2CF80132970A
:10116000608171814AE050E087E895E00E94512D4E
:1011700025E0E20EF11CC830D10509F09DCF809129
:10118000890281110AC08091BF02882331F060E892
:1011900073E087E895E00E948D2C81E080938802BF
:1011A0000E94102E609383027093840280938502C4
:1011B00090938602109287020E94102E0091830263
:1011C0001091840220918502309186026B017C018E
:1011D000C01AD10AE20AF30A8BEE92E00E9494113F
:1011E0009C01A0E1B7E20E94E52FC616D706E806EB
:1011F000F90610F38091BF02882361F068E472E081
:1012000087E895E00E949F2C6AE773E087E895E005
:101210000E948D2C0E94EB030E94102E6093E70227
:101220007093E8028093E9029093EA0203E612E0E9
:10123000D0E0C0E080E0FF24F394909189029923EC
:1012400009F44DC08091BF02882331F063E573E05B
:1012500087E895E00E948D2CFE01E55AFD4FF08253
:101260008091E7029091E802A091E902B091EA0230
:10127000F80180839183A283B38389E021960C5F78
:101280001F4FC830D105C9F68823F1F190919A0219
:101290009923D1F3815010929A02F6CFF80171820E
:1012A000608280918A0290E00C2E02C0959587950D
:1012B0000A94E2F780FF2FCFF701EE0FFF1FE25BEA
:1012C000FB4F8081918124E0880F991F2A95E1F7D7
:1012D0009501281B390BF801318320831CCF4091E5
:1012E000E7025091E8026091E9027091EA024058E9
:1012F00054486E4171094093E7025093E8026093AD
:10130000E9027093EA02BACF60E0F40181914F01E3
:101310000E94452FFEE38F16F1E09F06A9F768E4CF
:1013200072E087E895E00E949F2C69E473E087E80B
:1013300095E00E948D2C60E173E087E895E00E94C3
:101340008D2C6AE073E087E895E00E948D2C6CEEAE
:1013500072E087E895E00E948D2C6BED72E087E8E3
:1013600095E00E948D2C68EB72E087E895E00E9482
:101370008D2C64E972E087E895E00E948D2C6FE285
:1013800072E087E895E00E948D2C69EB71E087E8B8
:1013900095E00E948D2C6BE971E087E895E00E9452
:1013A0008D2C68E472E087E895E0DF91CF911F9182
:1013B0000F91FF90EF90DF90CF90BF90AF909F90F4
:1013C0008F907F906F900C949F2CAF92BF92CF9292
:1013D000DF92EF92FF920F931F93CF93DF93809151
:1013E000BF02882331F068E671E087E895E00E944B
:1013F0009F2C80918902882309F46BC03BE9E32E7E
:1014000032E0F32E0BE812E044E0A42EB12CD0E041
:10141000C0E058E1C52E55E1D52EE091A404F0912D
:10142000A5040C2E02C0F595E7950A94E2F7E17049
:10143000FF27EA0DFB1DEE0FFF1FE25BFB4F8081D4
:10144000918124E0880F991F2A95E1F7F601E81BA6
:10145000F90BCF01F701819391937F01F80111926C
:101460008F0121968091BF02882361F16CE671E0C3
:1014700087E895E00E947A2C4AE050E0BE0187E8B8
:1014800095E00E944A2D62E471E087E895E00E94B1
:101490007A2CF7013297608171814AE050E087E849
:1014A00095E00E944A2D62E471E087E895E00E9491
:1014B0007A2C4AE050E0F8013197608187E895E0A6
:1014C0000E94772DF5E0AF0EB11CC830D10509F0B0
:1014D000A4CFDF91CF911F910F91FF90EF90DF90FC
:1014E000CF90BF90AF900895EF92FF920F931F930C
:1014F000CF93DF93EC017B01FB01E858FF4F108194
:101500008091BF02882309F47CC162E771E087E81B
:1015100095E00E947A2C4AE050E0612F87E895E040
:101520000E94772D112309F46EC18091BF02882398
:10153000A9F162E871E087E895E00E947A2C4AE020
:1015400050E0612F87E895E00E94772D6EE871E00A
:1015500087E895E00E947A2C40E0BE01C7010E9416
:101560000A194AE050E0682F87E895E00E94772D3D
:1015700069E971E087E895E00E947A2CCE010E942B
:101580000E234AE050E0682F87E895E00E94702D16
:1015900068E472E087E895E00E949F2CCE010E94EB
:1015A0000E23982F977F903919F091E0813009F43C
:1015B00090E08FEF810F813108F07CC14091E7020C
:1015C0005091E8026091E9027091EA02409383022F
:1015D0005093840260938502709386021092870272
:1015E000883041F4DF91CF911F910F91FF90EF90E0
:1015F0000C94E509913011F483E0810F893008F0F3
:1016000081502091A4043091A504982F97709430B4
:1016100008F434C1845091E0883008F032C141E0D0
:1016200050E060E070E0082E04C0440F551F661FB4
:10163000771F0A94D2F7422B532B5093A504409363
:10164000A404E1E0082F10E0E801CC0FDD1FDE016B
:10165000A556BD4F65E0F0E0869FE00DF11D112419
:10166000EE0FFF1FEA5AFB4F4081518134E0440FD7
:10167000551F3A95E1F728E135E1241B350B2D93F1
:101680003C932091930230E002C0359527958A95CE
:10169000E2F7C80185579D4F7C01FC0120FF4AC03D
:1016A00060838091BF02882309F404C16CE671E075
:1016B00087E895E00E947A2CB8016F5F7F4F4AE07F
:1016C00050E087E895E00E944A2D62E471E087E8E7
:1016D00095E00E947A2CFE01E556FD4F60817181F4
:1016E0004AE050E087E895E00E944A2D62E471E00C
:1016F00087E895E00E947A2CC555DD4F6881798195
:101700004AE050E087E895E00E944A2D62E471E0EB
:1017100087E895E00E947A2C4AE050E0F70160816A
:1017200087E895E0DF91CF911F910F91FF90EF90A7
:101730000C94772D1082B5CFCE010E949C24882373
:1017400051F065E071E087E895E00E94562CCE01EB
:101750000E947B2486C069E971E087E895E00E94D9
:101760007A2CCE010E940E2340E150E0682F87E8DA
:1017700095E00E94702D6FE971E087E895E00E9486
:101780007A2CCE010E9451244AE050E0BC0187E847
:1017900095E00E94892D67EA71E087E895E00E9454
:1017A0007A2CCE010E9401234AE050E0682F87E89E
:1017B00095E00E94702D60EB71E087E895E00E9453
:1017C0007A2CCE010E94F6224AE050E0682F87E88A
:1017D00095E00E94702D6FEB71E087E895E00E9424
:1017E0007A2C6091B1037091B2034AE050E087E82F
:1017F00095E0DF91CF911F910F91FF90EF900C94A6
:10180000512D1111CBCECE010E940E23883029F428
:101810008091890281110E9401048091BF02882376
:1018200009F448C0CE010E94A524882309F484CF7E
:101830006CE171E087E895E00E94562CCE010E9491
:1018400051244AE050E0BC0187E895E00E94892DD0
:1018500062E171E087E895E00E94562CCE010E947B
:1018600066244AE050E0BC0187E895E0DF91CF9123
:101870001F910F91FF90EF900C948F2D883020F0E6
:1018800090E084509111CBCE41E050E060E070E0F8
:10189000082E04C0440F551F661F771F0A94D2F705
:1018A00040955095422353235093A5044093A4049C
:1018B000E0E0C8CEDF91CF911F910F91FF90EF90A4
:1018C0000895EF92FF920F931F93CF93DF937C01C4
:1018D00068EC71E087E895E00E947A2CB70187E810
:1018E00095E00E947A2C6AEC71E087E895E00E940E
:1018F0007A2CF7010081802F8F7D8335B9F561E067
:101900008BEE92E00E94061981FB992790F9909343
:10191000E20280FF25C010928902C82FCE7F4C2F93
:1019200061E08BEE92E00E94801361EF70E087E847
:1019300095E00E94562C6C2F61704AE050E070E0F8
:1019400087E895E00E944A2D69ED70E087E895E010
:10195000DF91CF911F910F91FF90EF900C948D2C00
:1019600091E090938902C82FC160D9CF81818A33D9
:1019700009F0E1C0002E000C110BE801E19762ECC8
:1019800070E0C830D10510F78281982F9F7D9C347C
:1019900021F1823509F4AEC08237F9F040914A0254
:1019A00050E0329690E080E07AE09F012E193F09E6
:1019B000241735070CF0A5C0619120ED260F2A30C1
:1019C000A0F7789F9001799F300D1124C901C0972D
:1019D000860F911D67FD9A95E8CF41E0823709F0A7
:1019E00040E0DE01AA0FBB1FA556BD4F85E08C9FCE
:1019F000F0018D9FF00D1124E40FF11DEE0FFF1F7C
:101A0000EA5AFB4F2081318194E0220F331F9A95CF
:101A1000E1F788E195E1821B930B8D939C932091D4
:101A2000A4043091A50481E090E0A0E0B0E00C2E89
:101A300004C0880F991FAA1FBB1F0A94D2F7442322
:101A400009F45AC0822B932B9093A5048093A4048D
:101A500080918902882361F0109287020E94102EE3
:101A60006093830270938402809385029093860230
:101A7000CC0FDD1FFE01E556FD4F80819181883836
:101A8000934124F087E893E191838083FE01E5563A
:101A9000FD4F808191818D3D954024F48DED95E041
:101AA000918380836BEB70E087E895E00E94562C71
:101AB000B801605371094AE050E087E895E00E9460
:101AC0004A2D68EB70E087E895E00E94562CC556D9
:101AD000DD4F6881798177FF02C06F5F7F4F759519
:101AE00067954AE050E087E895E00E944A2D64EB54
:101AF00070E02CCF41E075CF8095909582239323A1
:101B0000A3CF9E01220F331F25563D4F8F3F9105D6
:101B100009F070F4AC0164E0440F551F6A95E1F7D9
:101B200088E195E1841B950BF90191838083A0CF17
:101B3000880F991FF9CFDF91CF911F910F91FF90DF
:101B4000EF9008950F9301E021E041E16CE28BEE0C
:101B500092E00E94BB190F9108950F931F93CF93AA
:101B6000DF93CBE4D2E00DEC11E087E895E00E9432
:101B7000582A181619060CF042C087E895E00E9412
:101B8000722A8C3349F468E472E08BE492E00E949C
:101B90002D3110924A02E9CF8E3359F48BE492E052
:101BA0000E94610C68E472E08BE492E00E942D31A7
:101BB000DCCFFE0101900020E9F79F012C54324058
:101BC0002F30310590F6282F082E000C330B3F9351
:101BD0008F93DF93CF931F930F93DF93CF930E9445
:101BE000343180914A028F5F80934A02EDB7FEB78D
:101BF00038960FB6F894FEBF0FBEEDBFB6CFDF919B
:101C0000CF911F910F9108952F923F924F925F9223
:101C10006F927F928F929F92AF92BF92CF92DF92FC
:101C2000EF92FF920F931F93CF93DF930E94AD0D1E
:101C30000E94102E6093E7027093E8028093E902FD
:101C40009093EA020091E3021091E4022091E502F0
:101C50003091E6026B017C01C01AD10AE20AF30A54
:101C600097018601093E13402105310540F060933C
:101C7000E3027093E4028093E5029093E6028BEE18
:101C800092E00E9453198BEE92E00E947E188091A0
:101C9000640381110E942A0480919A02882309F426
:101CA000F6C05BE9C52E52E0D52ECBEAD2E06BE858
:101CB000862E62E0962E73E6472E72E0572EEEE4F3
:101CC000EE2EE4E0FE2E10E000E0F8E12F2EF5E12C
:101CD0003F2ED601AD90BC903801BFEF6B1A7B0A46
:101CE00088819981A816B90609F486C1F801E55AD8
:101CF000FD4F8081811161C129E02083808120E036
:101D0000813091F58091E7029091E802A091E9027B
:101D1000B091EA02F20180839183A283B383809120
:101D2000BF0293012150310959018823A9F0F9011B
:101D3000EA5CFE4F80810E94732F019769F44AE0AC
:101D400050E0B30187E895E00E944A2D62ED71E012
:101D500087E895E00E949F2CF501EA5CFE4F60E069
:101D600080810E94452F21E08881998188389341A4
:101D7000C1F4D70118968D919C9119971A964D919F
:101D80005C91840F951F97FD01969595879544E08A
:101D9000880F991F4A95E1F7F101E81BF90BF983C8
:101DA000E883222309F45FC028813981D6018D910F
:101DB0009C91281739070CF009C1F701A484B58458
:101DC000BB24B1E0AB1AB108E4E1AE16B104E0F017
:101DD0006DE871E087E895E00E94562C4AE050E0FB
:101DE000B50187E895E00E94512D28813981D601FF
:101DF0008D919C91281739070CF0EDC0F701A48450
:101E0000B584F1E0AF1AB1088091930290E002C06E
:101E1000959587950A95E2F780FF0DC0F4018081C2
:101E2000882349F0853039F0F4E0AF1AB108B7FEE5
:101E300002C0B12CA12C88819981D6012D913C91B1
:101E4000F501EE0FFF1FEA5FFE4F408151818217BF
:101E500093070CF0C8C0840F951F281739070CF49E
:101E6000C8C09983888322E0C20ED11C22963FEF1E
:101E7000831A930A44E0440E511C5AE0E50EF11C0B
:101E800083010830110509F024CF10929A02809145
:101E9000940290919502A0919602B09197020097BA
:101EA000A105B10509F476C04091E7025091E8021E
:101EB0006091E9027091EA02841B950BA60BB70BA7
:101EC0008139904DA340B10508F464C0D0E0C0E072
:101ED00055E0B52E68E1E62E65E1F62E8091980278
:101EE000909199020C2E02C0959587950A94E2F77D
:101EF00080FF47C08E0115950795C801880F991F6F
:101F00009C0125563D4F6901B09EF001B19EF00D38
:101F10001124CE0181709927E80FF91FEE0FFF1FE2
:101F2000EA5AFB4F8081918144E0880F991F4A95BE
:101F3000E1F7A701481B590BD6014D935C938091A3
:101F4000BF028823F1F067E871E087E895E00E941E
:101F5000562CB8016F5F7F4F4AE050E087E895E06C
:101F60000E944A2D62E471E087E895E00E947A2C95
:101F7000F601608171814AE050E087E895E00E94B7
:101F8000512D2196C031D10509F0A8CF10929902A8
:101F900010929802DF91CF911F910F91FF90EF90D7
:101FA000DF90CF90BF90AF909F908F907F906F9079
:101FB0005F904F903F902F90089580818150808353
:101FC000808181119BCE81E0808398CED7011E96BF
:101FD000AD90BC90F5CED7011E96AD90BC90B1E00F
:101FE000AB1AB10811CF841B950B821793070CF025
:101FF00038CF3983288337CFF4014081442309F453
:1020000091C0E091A404F091A504002E02C0F595C2
:10201000E7950A94E2F7CF018170992725E0269D84
:10202000F001279DF00D1124E80FF91FEE0FFF1F9F
:10203000E45BFB4F80819181B4E0880F991FBA95D2
:10204000E1F79101281B390BD6012D933C9340FDFC
:1020500030C0642F70E0F701808591850284F3859C
:10206000E02D8E1B9F0B97FF03C0919581959109E1
:10207000869FF001879FF00D969FF00D1124E69F3B
:10208000C001E79F900DF69F900D11246AEF70E05C
:102090000E94A92FE4E0660F771FEA95E1F7F9EBBC
:1020A000AF16FBE0BF06C4F1261B370BD6012D93FC
:1020B0003C934150D4014C938091BF02882309F492
:1020C000D2CE6CE671E087E895E00E947A2C4AE077
:1020D00050E0B80187E895E00E944A2D6EED71E06E
:1020E00087E895E00E947A2C4AE050E0F401608194
:1020F00087E895E00E94702D62E471E087E895E042
:102100000E947A2CD6016D917C914AE050E087E8DC
:1021100095E00E94512DA7CE260F371FF60131837F
:102120002083C7CF8091E7029091E802A091E90255
:10213000B091EA02F2014081518162817381841B76
:10214000950BA60BB70B88369848AE41B10508F43D
:102150008ACE8091BF028823A9F0F801EA5CFE4F85
:1021600080810E94732F892B69F44AE050E0B3010B
:1021700087E895E00E944A2D66EE71E087E895E0D9
:102180000E949F2CF801E55AFD4F108261E0F30197
:10219000EB5CFE4F80810E94452F65CE8BEE92E076
:1021A0000C946A1B08950C94B62D27EF31E0FC01C6
:1021B0003183208317AE16AEE05CFF4F1182108290
:1021C0003296118210828C5B9F4FFC01118210822B
:1021D00008950F931F93CF93DF93EC01C05CDF4F03
:1021E00028813981232B79F421E030E03983288359
:1021F0009C012C5B3F4FF90140815181141615065B
:1022000024F01982188280E02EC0DC01AE5BBF4F43
:102210004D915C9111974C3351051CF011961C9215
:102220001E928B01615F7F4F4D915C911197480F1A
:10223000591FFA014281F80141938F014D915C9140
:1022400011974F5F5F4F11965C934E93F901408158
:10225000518141505109518340830617170721F7D7
:102260001982188281E0DF91CF911F910F9108951B
:10227000FC01EE5BFF4F20813181215F3F4F2C330A
:1022800031051CF431832083089511821082089552
:10229000EF92FF920F931F93CF93DF93FC017C018A
:1022A00080E4E80EF11CD7018D919C911197892B48
:1022B000C9F581E090E08D939C9386AD97ADCC9766
:1022C00014F017AE16AEDB019B01215F3F4F8F016B
:1022D0000C5B1F4F86AD97AD6D91AF01480F591F35
:1022E000EA016A83019697AF86AFE80188819981F8
:1022F000019699838883A217B30761F7CD973CF0C5
:10230000CF010E9438118CE390E099838883F70114
:102310001182108281E0DF91CF911F910F91FF9088
:10232000EF90089580E0F7CF8C599F4FFC0180819A
:1023300091810895AF92BF92CF92DF92EF92FF9278
:102340000F931F93CF93DF934D965C010E94162944
:10235000D0E0C0E06701F12CE12C42E06DE0C50166
:102360000E9424298823A1F02196C701B6010E946A
:10237000352EC017D10788F380E0DF91CF911F91F0
:102380000F91FF90EF90DF90CF90BF90AF900895A6
:1023900081E0F3CFEF92FF920F931F932EE1E22E95
:1023A000F12C04E110E021E04DE050E00E949A1190
:1023B0001F910F91FF90EF900895AF92BF92CF922F
:1023C000DF92EF92FF920F93CF93DF935B017A013D
:1023D0006901EC016D96CE010E941A2A833059F0F2
:1023E00080E0DF91CF910F91FF90EF90DF90CF9041
:1023F000BF90AF900895202FA501B601CE010E9495
:10240000F1298111EDCFB701CE010E94932581E022
:10241000E8CFFC01E35BFE4F0190F081E02D3097A7
:1024200019F0BC01CD96099580E008950F931F9394
:10243000CF93DF93EC018C01035C1F4FC8010E9416
:102440000E23873099F08E3589F0FE01E35BFE4F55
:102450000190F081E02D309719F0BE01C801099577
:1024600080E0DF91CF911F910F9108950C940000AF
:10247000ECCFFC0115AA16AA17AA10AE11AE12AE27
:1024800013AE14AE08958F929F92AF92BF92CF92E7
:10249000DF92EF92FF920F931F93CF936C01FC0199
:1024A000C5A9C63BE9F1C295C695C770CF5F560175
:1024B000FDE1AF0EB11C41E061E0C5010E949E2527
:1024C000460185E3880E911CE3E6CE0ED11CF60191
:1024D000408150E070E060E074010C2F20E0C50105
:1024E0000E94B7298823F1F013E0F601408150E003
:1024F00070E060E074010C2F20E0C5010E94B72954
:10250000882381F0115089F7CF911F910F91FF908F
:10251000EF90DF90CF90BF90AF909F908F900895F5
:10252000C7E0C4CF80E0F0CF9F92AF92BF92CF922E
:10253000DF92EF92FF920F931F93CF93DF93EC0103
:10254000603709F48EC000F5613599F070F460359C
:1025500081F0DF91CF911F910F91FF90EF90DF906D
:10256000CF90BF90AF909F900895623511F069357C
:1025700081F7DE01AC59BF4F8C9111969C916DABE8
:102580009EAB8FAB18AE7BC0663B21F138F464374D
:1025900001F78985DE01AC59BF4F6AC0623E89F1FF
:1025A0006F3EB9F6DC01AE58BF4F8C9113969C91EB
:1025B00011972C9111973C9114974C9112965C9124
:1025C00013977C916DAB7EAB5FAB48AF39AF2AAF51
:1025D0009BAF15C0DC01A059BF4F8C9111979C9106
:1025E00011972C911A973C9111964C916DAB4EAB73
:1025F0003FAB28AF99AF8AAF81E08BAF89E08CAF5A
:10260000A8CF962E8C010F591F4FC8010E949E2201
:10261000FC01F680C8010E949E22FC01E580C801F1
:102620000E949E22FC01D480C8010E949E22FC01CF
:10263000C380C8010E949E22FC01B280C8010E9492
:102640009E22FC01A180C8010E949E22FC01808183
:102650009DAA8EABAFAAB8AEC9AEDAAEEBAEFCAEF9
:1026600078CFDC01AD58BF4F8C919985891B1F979E
:102670009C9111962C916DAB2EAB9FAB88AF19AE90
:102680001AAE1BAE1CAE65CFFC01DC01AC59BF4FCE
:102690008C9111969C912FE625AB96AB87AB60AFE2
:1026A00011AE12AE13AE14AECF010C9443120F93C1
:1026B0001F93CF938C01C22FFC01EB58FF4F8081F9
:1026C0008617A0F0C80102960E94D41DC11106C051
:1026D000C1E08C2FCF911F910F91089569E5C8013A
:1026E0000E949412C8010E944312F3CF6F3F81F3FE
:1026F000222379F369E0C8010E944413C0E0E9CFC6
:10270000406820E060E00C9457137F928F929F9274
:10271000AF92BF92CF92DF92EF92FF920F931F93EF
:10272000CF93DF93EC017C012DE3E20EF11CC70196
:102730000E940E23182FC7010E9451245E0134E627
:10274000A30EB11CF501C080D1808C159D0519F137
:10275000EE59FF4F8081918102970397E0F41D307D
:1027600051F1103109F47AC1113109F05CC0FE0158
:10277000E45AFE4F1082E95FF109608170E06C1548
:102780007D0539F0F50171836083CE0102960E94C8
:10279000592262EE81C1183509F4FBC108F08CC0E2
:1027A000133509F4A0C108F04DC0103109F456C129
:1027B000A0F51D30C1F5C114D104A9F1FE01E45A00
:1027C000FE4F1082E95FF109608170E06C157D05B4
:1027D00039F0F50171836083CE0102960E9459227F
:1027E00066EBCE010E949412B601660F771F6C0D46
:1027F0007D1D90E080E00E94352ECE01DF91CF91CB
:102800001F910F91FF90EF90DF90CF90BF90AF900E
:102810009F908F907F900C944312113109F4A7CFB1
:10282000123409F43DC180E0DF91CF911F910F91E7
:10283000FF90EF90DF90CF90BF90AF909F908F90E0
:102840007F900895153509F475C108F455C1163502
:1028500009F47DC1173539F7FE01E45AFE4F1082A5
:10286000B984BB2001F37E01F2E0EF0EF11C6BE2B4
:10287000C7010E949B1C10E080FF03C019E099E093
:10288000B92EAD2C00E082EF982E6BE2C7010E94BA
:102890009B1C80FF03C0113109F418E0612FC701B0
:1028A0000E94061CFC018C8D882309F456C16AE045
:1028B000CE010E944413B7CF153909F4B8C108F00E
:1028C00046C0123709F46EC140F5113709F0ABCF9D
:1028D000FE01E45AFE4F1082C7010E945323182FB5
:1028E0007E0122E0E20EF11C6BE2C7010E949B1CFC
:1028F00080FF05C08DEF810F63E1843108F06FEF39
:10290000610FC7010E949B1C9C8D9111D0CF97E94C
:102910009DABDEAACFAA18AF7DC1133709F46AC1F7
:10292000153709F080CFFE01E45AFE4F108263E0B4
:10293000C7010E943623FE01ED59FF4F83E68083D5
:1029400063E6CE0102960E94522262E527C1123B45
:1029500009F4F1C178F5163909F49AC11C3909F066
:1029600062CFFE01E45AFE4F1082C7010E9460232D
:10297000082FC7010E947423182FFE01EC58FF4F47
:102980008081811708F493CF4FEF410F6FEF600FF5
:10299000CE0102960E94CE1C9C8D911188CFF5012C
:1029A0009081218135EB3DAB2EAB9FAB08AF19AFCA
:1029B0008AAF32C1123D09F4EDC1153F09F033CFA2
:1029C000FE01E45AFE4F808181112DCFE659F109B5
:1029D00080819181892B09F0DBC1C7010E946624A7
:1029E000C82EB92EC7010E945124A82E992EC701C6
:1029F0000E947423182FC7010E948823D82EC70174
:102A00000E946023082FBE0164537F4FFB01908218
:102A10003196A0823196B0823196C0827E01F2E07A
:102A2000EF0EF11C4FEF480FC7010E94371D682FB2
:102A300070E0202F2150330B6217730709F0C7C0D5
:102A40004FEF410F2D2DC7010E94061E412F41500F
:102A5000550B8417150609F02ACFF4C1FE01E45A7C
:102A6000FE4F1082E95FF109608170E06C157D0511
:102A700039F0F50171836083CE0102960E945922DC
:102A8000FE01EA53FF4F80819181059709F0CBCE7B
:102A9000CE010E9439126FEECE010E949412ADCE8B
:102AA000FE01E45AFE4F10828E010A531F4FF801B7
:102AB0008081918163E0059709F0FACEC7010E94F9
:102AC0005124F50191838083BC01CE0102960E94BE
:102AD000592262E5CE010E94941283E090E0F80151
:102AE000918380838ACEFE01E45AFE4F1082CA533E
:102AF000DF4F1982188297CEFE01E45AFE4F1082F2
:102B0000E95FF109608170E06C157D0539F0F50130
:102B100071836083CE0102960E945922FE01EA531E
:102B2000FF4F83E090E091838083C758DF4F81E0BF
:102B3000888379CEFE01EA53FF4F80819181892BF2
:102B400009F071CECE0102960E94C81D6CCEFE0126
:102B5000E45AFE4F108260E79FCF838192812181EA
:102B600030819DAAAEAACFAA38AF29AF9AAF8BAF5A
:102B70000CAFCE010E944312882331F064E174E06F
:102B800087E895E00E948D2C1F5F0F5FB0127DCE0D
:102B90004ACEFE01E45AFE4F108264E7CE010E9445
:102BA000941224C0FE01E45AFE4F1082CE010E940E
:102BB0003912C7010E946023182F6FEF680FCE01F2
:102BC00002960E94061CFC019C8D992311F066E080
:102BD0006FCE838192812181308142EF4DABDEAA9D
:102BE000CFAA38AF29AF9AAF8BAF1CAFCE010E94EE
:102BF000431219CEFE01E45AFE4F1082C7010E9413
:102C00004223182F81110BC08BE98DABDEAACFAA0E
:102C100018AE88E089AF1AAE1BAE1CAEE7CF682FA6
:102C2000CE018F599F4F0E94A0229BE971CEFE01D9
:102C3000E45AFE4F1082C7010E9466248C01C7012E
:102C40000E9451247E0132E0E30EF11CA801BC0178
:102C5000C7010E94851C182FBE0164537F4FFB01E2
:102C60001082319610823196108231961082482F50
:102C7000C7010E94371D1813AACF612F70E020E012
:102C800040E0C7010E94061E882309F4CCCD0FCE78
:102C90006E01F4EACF1AFEEFDF0AF601908191117E
:102CA000C2CDC7010E945323982E1FEF180FC701F2
:102CB0000E945E23082F7E01F2E0EF0EF11C11301E
:102CC000D9F48E3F89F4C7010E94261E81E0F601E7
:102CD000808383E690E0F5019183808363E670E072
:102CE000C7010E94592203E6FE01ED59FF4F008300
:102CF000602FC7010E9452226BE2C7010E949B1CF9
:102D000080FF06C08DEF890D843110F413E1190D99
:102D100021E0402F612FCE010E945713812F65E0E3
:102D20000E949D2F9350C758DF4F923008F0FFCE7E
:102D30001150188378CDFE01E45AFE4F1082E659F7
:102D4000F10980819181892B19F5C7010E947423B3
:102D5000D82E682F7E01F2E0EF0EF11CC7010E9411
:102D6000061C8C0140E06D2DC7010E94CE1C9C8D7D
:102D700091112DCFF801938122813181408153ED52
:102D80005DAB4EAB3FAB28AF99AFDAAE8BAF45CF63
:102D900062E08ECDFE01E45AFE4F8081811143CD69
:102DA000C7010E946624982E892EC7010E945124D3
:102DB000782EB92EC7010E947423182FC7010E94D4
:102DC0008823082F6E01FCECCF0ED11CF601B082D7
:102DD0005E01FDECAF0EB11CF50170823196808270
:102DE000319690827E01F2E0EF0EF11C6BE2C7019A
:102DF0000E949B1C80FF03C0183008F4175F6CEF23
:102E0000610F643020F083EF810F843058F4C701E4
:102E10000E94061CFC012081F6012083FC018181B7
:102E2000F5018083412FB601C7010E94371D181399
:102E3000CECE612F70E0202F40E0C7010E94061E19
:102E4000811135CD69E5AACECF92DF92EF92FF9244
:102E50000F931F93CF93DF93EC01FC01E15AFF4FD7
:102E600080818823F1F0359680819181892BC9F08A
:102E70007E0185E3E80EF11C3197408150E070E05F
:102E800060E000E020E0CE014D960E94B72980E08E
:102E9000DF91CF911F910F91FF90EF90DF90CF9036
:102EA0000895FE01EA53FF4F808191810497F9F460
:102EB0006E01EDE3CE0ED11CC6010E94F3228111FA
:102EC000E6CF7E01F4EBEF1AFEEFFF0AF701108167
:102ED0001336E8F6C6010E940123C10FD11DC45369
:102EE000DF4F8883F70180818F5F8083D0CFFE0121
:102EF000ED5BFF4F808191818230910569F120F473
:102F0000019791F081E0C4CF83309105D1F004970F
:102F1000C9F7CE018F599F4F0E94DE22882391F37B
:102F2000CE010E941612EECFFE01E15BFE4F019032
:102F3000F081E02D309731F3BE01CE01CD96099599
:102F4000E1CFCE018F599F4F0E94DE228823D1F21C
:102F5000CE010E940912D6CFCE01DF91CF911F91F1
:102F60000F91FF90EF90DF90CF900C948513AF926C
:102F7000BF92DF92EF92FF920F931F93CF93DF9355
:102F80008C017C0182E0E80EF11C60E0C7010E9428
:102F90009B1C81FBDD24D0F8E801ED96CE010E9458
:102FA000A5248823A1F0D11012C0CE010E9466246E
:102FB0005C01CE010E945124A501BC01C7010E9401
:102FC000851CF8019485981710F08F5F30C0CE01F2
:102FD0000E949C24882379F0CE010E947B240097D4
:102FE00051F0AC0170E060E0C7010E94851CF8015F
:102FF0009485981750F7CE010E94A524882389F064
:10300000DD2079F0CE010E946624009751F0AC01DA
:1030100070E060E0C7010E94851CF8019485981754
:10302000A0F6CE010E947B24009759F480E0DF9146
:10303000CF911F910F91FF90EF90DF90BF90AF90D5
:103040000895AC0170E060E0C7010E94851CF801A2
:103050009485981708F0B9CFE9CFAF92BF92CF927D
:10306000DF92FF920F931F93CF93DF93EC016C01DC
:1030700088E7C80ED11CF60110825E01FAEDAF1A86
:10308000FEEFBF0AB501CE0180589F4F0E94E910A4
:10309000F82E882329F18E01035C1F4FC8010E947E
:1030A0001D23F5018081E45EF1098083BE01685D26
:1030B0007E4FC8010E941123BE01645D7E4FC8018E
:1030C0000E947425FE01E95DFE4F8081E85CF109F4
:1030D000811111C01082CE010E94B717F6018083C2
:1030E0008F2DDF91CF911F910F91FF90DF90CF90A7
:1030F000BF90AF90089581E08083EDCFEF92FF9273
:103100000F931F93CF93DF93EC017C0183EBE81ABD
:103110008EEFF80A8E01035C1F4FCE010E942D181E
:10312000882371F0CE010E9424178823B1F3D701C0
:10313000ED91FC91309789F3BE01C8010995EDCF5F
:1031400080E0DF91CF911F910F91FF90EF90089554
:10315000CF93DF93FC01EE5AFE4F6083EC01CD5A12
:10316000DE4F48836F3F21F0862F61E00E94092FD8
:1031700088818F3F29F061E0DF91CF910C94092F76
:10318000DF91CF910895FC01E059FF4F60810296D5
:103190000C946B22CF93DF93EC011CAA8F599F4FA5
:1031A0000E94E322CE01DF91CF910C94C318CF93FC
:1031B000DF93EC0102960E94AB1CFE01EC59FF4F1D
:1031C0009183808331978E8180833D9681E08083D7
:1031D000CE018F599F4F0E94E822811103C0CE017A
:1031E0000E94CA18CA53DF4F83E090E09983888316
:1031F000DF91CF910895CF93DF93EC0102960E9467
:10320000F91ECE01DF91CF910C94D7186150029630
:103210000C949B1CAF92BF92CF92DF92EF92FF92E1
:103220000F931F93CF938C017B01C42FCB010E947E
:103230009C24680192E0C90ED11C8823F9F0C701D3
:103240000E947B24AC0170E060E0C6010E94851CF6
:10325000C111C150F801ED58FF4F90818917C0F49A
:103260004C2F682FC601CF911F910F91FF90EF90C7
:10327000DF90CF90BF90AF900C94CE1CC7010E94FE
:1032800066245C01C7010E945124A501BC01DDCF69
:1032900080E0CF911F910F91FF90EF90DF90CF9042
:1032A000BF90AF9008952F923F924F925F926F928E
:1032B0007F928F929F92AF92BF92CF92DF92EF92C6
:1032C000FF920F931F93CF93DF931F92CDB7DEB77B
:1032D0007C01198210E02C0184EC481A8EEF580A08
:1032E000570190ECA91A9EEFB90A6701E6ECCE1AD5
:1032F000EEEFDE0A4701FDE18F0E911CC701855CF0
:103300009E4F1C01370190E8690E711C012F9E0130
:103310002F5F3F4FA201B501C7010E94DD11882335
:1033200071F08981F6018083C4010E94AC2581116E
:103330001EC0F1011082B601C3010E944811113074
:10334000A1F40F90DF91CF911F910F91FF90EF901B
:10335000DF90CF90BF90AF909F908F907F906F90B5
:103360005F904F903F902F90089511E0CFCF81E074
:10337000F1018083E0CF2F923F924F925F926F9244
:103380007F928F929F92AF92BF92CF92DF92EF92F5
:10339000FF920F931F93CF93DF93CDB7DEB7C65441
:1033A000D1090FB6F894DEBF0FBECDBF7C01362E1B
:1033B000242E122F2FEF31E0FC0121933193CF0106
:1033C0000E94A91B3701FDE16F0E711CC3010E9411
:1033D000152957018DE3A80EB11CC5010E942F23AA
:1033E0006701E1E6CE0ED11CC6010E94752247019D
:1033F000F0E88F0E911CC4010E94D510F701E45A29
:10340000FE4F1082270186E7480E511CF201108200
:10341000EA52FF4F1082CE0101960E94152987E1E2
:10342000FE013196D30101900D928A95E1F7CE010C
:1034300001960E94D510F4013296DE011396C70161
:1034400082549F4F2D912193E817F907D9F72196C0
:103450008EAD9FAD2197F40197AF86AF23968EADC9
:103460009FAD2397F701E054FF4F9183808325960A
:103470008EAD9FAD259732969183808327968EAD32
:103480009FAD2797329691838083CE0101960E944B
:10349000D210212F422D632DCE0101960E94BA1F1A
:1034A0008B819C81F701958384838D8186838E81B6
:1034B00087838F81808788858187898582878A85B0
:1034C00083878B8584878C8585878D8586878E8588
:1034D0009F85908B87878889818B8989828B8A8950
:1034E000838B8B89848B8C89858B8D89868B8E8948
:1034F0009F89908F878B888D818F898D828F8A8D10
:10350000838F8B8D848FCE0101960E948F1BCE01FD
:1035100001960E9475228B81F60182838C819D81A8
:10352000948383833596DE011696C70182599F4F97
:103530002D912193E817F907D9F78E85F601858734
:103540008F858687888987878989808B8A89818BFF
:103550008B89828B8C89838B8D89848BCE0101969C
:103560000E947222F701ED58FF4F2082329630827E
:1035700031971083CE0101960E942F238B81F70192
:1035800087AF8C81E05CFF4F80838D813196808393
:103590008E81319680838F81988531969183808347
:1035A00089859A853296918380838B859C85329616
:1035B000918380838D859E853296918380838F85CC
:1035C000988932969183808389899A8932969183EA
:1035D00080838B8932968083F5017396DE01549641
:1035E000C701885A9F4F2D912193E817F907D9F702
:1035F0008C8D8083F701E75AFF4F8D8D8083319644
:103600008E8D808331968F8D8083319688A18083C3
:10361000319689A19AA19183808332968BA1808370
:1036200031968CA18083CE0101960E94F022F20196
:10363000808181608083F701E958FF4F1082E55255
:10364000FF4F0FEF008331960083319611E0108316
:10365000319610820E94042EF701EA5AFE4F6083D1
:1036600071838283938339971182108270961182BD
:103670001082E55EF109108231961083EF51FF4F01
:10368000008331961083E15EF10987EC90E0A0E0C1
:10369000B0E080839183A283B383C7010E94FB18AB
:1036A000CA5BDF4F0FB6F894DEBF0FBECDBFDF9110
:1036B000CF911F910F91FF90EF90DF90CF90BF902F
:1036C000AF909F908F907F906F905F904F903F90C2
:1036D0002F900895CF93DF93EC018FEF91E09983C2
:1036E0008883CE0180589F4F0E94D210CE018F59FF
:1036F0009F4F0E947222CE01CD960E94F022CE01F1
:103700000296DF91CF910C948F1BCF93DF93EC0146
:103710000E946A1BCE01DF91CF910C94B62D22E25C
:1037200032E0FC013183208382819381009711F084
:103730000C94B82D0895CF93DF93EC010E948F1B5A
:10374000CE01DF91CF910C94B62D0C94D5330C940F
:10375000DD3322E232E0FC01318320830895FC0155
:1037600090E080E023852817190641F03CF0A28103
:10377000B381A80FB91F1C920196F4CF83E684830E
:10378000158287EC86831782148A0895EF92FF9240
:103790000F931F93CF93DF93EC01188A198A1A8A2B
:1037A0001B8A1A8E7C0180E1E80EF11C8A8586173F
:1037B00018F08F81861750F481E08A8FC701DF915E
:1037C000CF911F910F91FF90EF9008958B8590E01E
:1037D0000496689F8001699F100D11248D859E8538
:1037E000080F191FC8010E94A51B888BC8010196EC
:1037F0000E94A51B898BC80102960E94A51B8A8B7B
:10380000C80103960E94A51B8B8BD8CFFC01108AA0
:10381000118A128A138A128E40962285261718F072
:103820002781261718F421E0228F089570E0DB012C
:10383000AA0FBB1FA250BB4F2C91208BDB01AA0FFC
:10384000BB1FA05EBA4F2C91218BDB01AA0FBB1FBF
:10385000AE5BBA4F2C91228B660F771FDB01AC5900
:10386000BA4F2C91238B0895AF92BF92CF92DF92E3
:10387000EF92FF920F931F93CF93DF93DC01179684
:103880009C911797EEEFF4E080E0A62EB12CE42E89
:10389000F12C30E010E0981751F1611102C044237F
:1038A00009F1C080D180AC14BD04C9F4C2A0D3A07A
:1038B000EC14FD04A1F46F0154E4C50ED11CE60123
:1038C000C880D9802C153D0551F46F01D6E6CD0E88
:1038D000D11CE601C880D9800C151D0559F08F5FF9
:1038E0003296D9CF6F01D4E4CD0ED11CE8CF1A9611
:1038F0008C918F5FDF91CF911F910F91FF90EF908F
:10390000DF90CF90BF90AF9008950F93252F042F95
:10391000462F672F0E94341C0F910895FC01128ED0
:103920008185681728F4862F90E049960C94A51B92
:103930008FEF828F0895FC01128E8185681718F031
:103940008FEF828F0895E62FF0E0EE0FFF1FEA550C
:10395000FB4F80810895CF93DF93EC016E818D81C1
:103960000E94A12D9E8B8D8BDF91CF910895DC015C
:103970001B962C911B9730E02C5F3F4F629FF0010C
:10398000639FF00D11241D968D919C918E0F9F1FAA
:1039900050E04C5F5F4F840F951F0895FC01128E1D
:1039A0008781681740F48385481728F4CF010E9467
:1039B000B71C0C94A51B8FEF828F0895CF92DF92D6
:1039C000EF92FF921F93CF93DF937C016B01142F33
:1039D000CB010E94A51B811721F0612FC6010E9417
:1039E000A71BF701838590E004962285289FE001BC
:1039F000299FD00D112485859685C80FD91FC535FF
:103A0000F1E0DF0764F5CC0DDD1DCE010E94A51BA2
:103A1000811721F0612FCE010E94A71BF70123859A
:103A200030E02C5F3F4F4285429FC001439F900D85
:103A3000112425853685820F931FC80FD91FCE010B
:103A40000E94A51B811759F0612FCE01DF91CF9104
:103A50001F91FF90EF90DF90CF900C94A71BDF9108
:103A6000CF911F91FF90EF90DF90CF900895BF927C
:103A7000CF92DF92EF92FF920F931F93CF93DF933A
:103A80007C01EB01B42EFC018285481770F0BB2449
:103A9000B394B80E8B2DDF91CF911F910F91FF90B2
:103AA000EF90DF90CF90BF900895242F30E0D901A0
:103AB000AA0FBB1FA250BB4F888190E08D939C93AF
:103AC000D901AA0FBB1FA05EBA4F898190E08D93E8
:103AD0009C93D901AA0FBB1FAE5BBA4F8A8190E0BD
:103AE0008D939C93D901AA0FBB1FAC59BA4F8B8100
:103AF00090E08D939C93838590E00496829F800153
:103B0000839F100D929F100D112485859685080FB7
:103B1000191F6B01F4E0CF0ED11C061B170BB80167
:103B20006C0F7D1F4991C7010E94DE1CCC15DD057D
:103B3000B1F7B0CFCF93DF93EC0149E570E060E0DF
:103B40000E94DE1C4C8162E170E0CE010E94DE1C0E
:103B50004D8163E170E0CE010E94DE1C4E8164E184
:103B600070E0CE010E94DE1C4C8965E170E0CE0160
:103B70000E94DE1C4F8167E170E0CE010E94DE1CD6
:103B80004B8568E170E0CE01DF91CF910C94DE1C93
:103B9000CF93DF93EC0140E067E170E00E94DE1C10
:103BA0001F82DF91CF910895EF92FF921F93CF93E1
:103BB000DF93FC012185261718F1142F7C01C62FF5
:103BC000D0E0FE01EE0FFF1FEA55FB4F842F90E07F
:103BD000918380836996CE010E94A51B181781F0FE
:103BE00067EB74E087E895E00E948D2C412FBE01C1
:103BF000C701DF91CF911F91FF90EF900C94DE1CD5
:103C0000DF91CF911F91FF90EF9008950F931F9335
:103C1000CF93DF938C01C42FD22FFC0187818617AD
:103C2000170609F038F4CF5F8C2FDF91CF911F91E9
:103C30000F91089583854817B0F7C8010E94B71CFB
:103C40004D2FBC01C8010E94DE1CEECFBF92CF9267
:103C5000DF92EF92FF920F931F93CF93DF9300D0E9
:103C600000D0CDB7DEB78C010E94AF1BF801828572
:103C7000878319821A8282E48B838CEC8C83D12C0B
:103C8000C12CF12CE12CBE2C4E2DBE016F5F7F4F5D
:103C9000C8010E94371D20E040E0B701C8010E9422
:103CA000061E8C818F5F8C83811103C08B818F5F97
:103CB0008B8344E04B0DBE016F5F7F4FC8010E94B4
:103CC000371D20E040E0B7016C5F7F4FC8010E94C4
:103CD000061E8C818F5F8C83811103C08B818F5F67
:103CE0008B838FEFE81AF80AEFEFCE1ADE0AF8E0BE
:103CF000CF16D10409F074C019821A8282E18B8335
:103D000087E68C8348E0BE016F5F7F4FC8010E9449
:103D1000371D20E040E068E070E0C8010E94061E08
:103D200042E060E0C8010E94D41D42E860E0C801A2
:103D30000E94D41D43E661E0C8010E94D41D82E0C8
:103D4000F82E40E06F2DC8010E94D41D61E06F0D78
:103D50004BE4C8010E94D41D62E06F0D41EEC80122
:103D60000E94D41D63E06F0D4DE0C8010E94D41D78
:103D700064E06F0D4DE0C8010E94D41D85E0F80E8F
:103D8000EAE2FE12DECF40E06BE2C8010E94D41DE1
:103D900040E06AE2C8010E94D41DC8010E949A1D39
:103DA00060E08DEF93E00E94A71B60E08EEF93E050
:103DB0000E94A71B60E08FEF93E00E94A71BC80141
:103DC0000E94F91E0F900F900F900F90DF91CF91EE
:103DD0001F910F91FF90EF90DF90CF90BF900895CB
:103DE000F4E0CF16D10409F04ECF99E0E92EF12C82
:103DF0004ACF5F926F927F928F929F92AF92BF92C3
:103E0000CF92DF92EF92FF920F931F93CF93DF93A6
:103E1000EC010E94AF1B8B8590E004962A85289FB9
:103E20007001299FF00C11248D859E85E80EF91EE6
:103E300085E5E81681E0F8060CF06AC08FEF93E0A4
:103E40000E94A51B782E8EEF93E00E94A51B182FD1
:103E50008DEF93E00E94A51B7116A9F1781206C0A0
:103E6000672D8FEF93E00E94A71B08C0181306C0B0
:103E7000612F8EEF93E00E94A71B712E5701AA0CB1
:103E8000BB1C10E000E00E151F056CF5C8010E9478
:103E9000A51B682E4701800E911EC4010E94A51B20
:103EA000582E6501C00ED11EC6010E94A51B6514C7
:103EB00091F068120BC0662DC4010E94A71B739479
:103EC0000F5F1F4FE0CF7816C9F2CACF5812F8CF54
:103ED000652DC801F2CF681699F37394662DC6015B
:103EE0000E94A71BEDCF8FEF93E00E94A51B8715C3
:103EF00079F0672D8DEF93E00E94A71B672D8EEF61
:103F000093E00E94A71B672D8FEF93E00E94A71BF1
:103F100090E080E00E94A51B893519F0CE010E9437
:103F2000261E82E190E00E94A51B8C8383E190E035
:103F30000E94A51B8D8384E190E00E94A51B8E83C7
:103F400085E190E00E94A51B8C8B87E190E00E94A8
:103F5000A51B8F83DF91CF911F910F91FF90EF9061
:103F6000DF90CF90BF90AF909F908F907F906F9099
:103F70005F900895CF92DF92EF92FF920F931F937D
:103F8000CF93DF93EC0182E292E099838883698783
:103F90004A872B870C87675E6F8710E0000F111F21
:103FA000600F712F711D7E876D87822F90E00E94B8
:103FB000B42D9B838A83CE010E94AF1BCE010E9449
:103FC000F91E46EAE42E44E0F42E10E0612FCE0103
:103FD0000E948E1C90E0D7018D939D937D011F5F01
:103FE0001C32A1F74091FC045091FD0440FF09C030
:103FF0004E7F5093FD044093FC046BE2CE010E947F
:10400000D41D8EEFC82E84E0D82E92E4E92E95E0E0
:10401000F92E10E0612FCE010E94C61BFC018081A9
:1040200090E0D6018D939D936D01818190E09196F2
:104030009C938E939097828190E0D7018D939D936E
:104040007D01838190E091969C938E9390971F5F62
:10405000113101F7DF91CF911F910F91FF90EF90F8
:10406000DF90CF900895CF92DF92EF92FF920F935F
:104070001F93CF93DF93EC010E94F91E6BEA74E06B
:1040800087E895E00E948D2C64EA74E087E895E06B
:104090000E94562C90E080E00E94A51B4AE050E070
:1040A000682F87E895E00E94702D6BE974E087E83F
:1040B00095E00E94562C4AE050E06C8187E895E03C
:1040C0000E94702D66E974E087E895E00E94562C06
:1040D000CE010E94AB1C4AE050E0BC0187E895E0AD
:1040E0000E94892D6EE874E087E895E00E94562CC6
:1040F0004AE050E06C8987E895E00E94702D61E805
:1041000074E087E895E00E94562C4AE050E06F8109
:1041100087E895E00E94702D6FE674E087E895E0EF
:104120000E94562C4AE050E06B8587E895E00E949B
:10413000702D63E674E087E895E00E94562C4AE013
:1041400050E0698587E895E00E94702D63E072E099
:1041500087E895E00E947A2C4AE050E069E170E03F
:1041600087E895E00E944A2D6AE072E087E895E0D2
:104170000E947A2C698570E0685E7F4F4AE050E0CB
:1041800087E895E00E944A2D6CE072E087E895E0B0
:104190000E947A2C10E089851817A0F4812F90E0F6
:1041A00049960E94A51B40E150E0682F87E895E002
:1041B0000E94702D61E674E087E895E00E94562C1D
:1041C0001F5FE9CF60E574E087E895E00E94562C18
:1041D0004AE050E060E170E087E895E00E944A2DF7
:1041E00060E172E087E895E00E947A2C4AE050E0B6
:1041F00062E070E087E895E00E944A2D6AE072E094
:1042000087E895E00E947A2C4AE050E061E170E096
:1042100087E895E00E944A2D6CE072E087E895E01F
:104220000E947A2C02E010E0C8010E94A51B40E128
:1042300050E0682F87E895E00E94702D6EE474E0EE
:1042400087E895E00E94562C0F5F1F4F0231110541
:1042500059F760E474E087E895E00E94562C4AE044
:1042600050E06C8587E895E00E94702D66E172E071
:1042700087E895E00E947A2C4AE050E06F8587E855
:1042800095E00E94702D6AE072E087E895E00E9458
:104290007A2C6C856150770BCB01880F991F6F8545
:1042A000680F792F711D6F5F7F4F4AE050E087E8FC
:1042B00095E00E944A2D6CE172E087E895E00E944B
:1042C0007A2C4AE050E062E070E087E895E00E94D6
:1042D0004A2D6CE072E087E895E00E947A2C10E0AD
:1042E0008C85181738F5E12EF12CEE0CFF1C8F850C
:1042F0008E0D9F2D911D0E94A51B40E150E0682F5F
:1043000087E895E00E94702D8F858E0D9F2D911D61
:1043100001960E94A51B40E150E0682F87E895E0D8
:104320000E94702D6EE374E087E895E00E94562CA1
:104330001F5FD6CF0D851E8565E374E087E895E0A5
:104340000E94562C4AE050E06A8587E895E00E947A
:10435000702D66E172E087E895E00E947A2C4AE0D1
:1043600050E0B80187E895E00E944A2D6AE072E0CB
:1043700087E895E00E947A2C6A856150770B660F7A
:10438000771F660F771F600F711F6D5F7F4F4AE0C9
:1043900050E087E895E00E944A2D6CE172E087E8E2
:1043A00095E00E947A2C4AE050E064E070E087E8F3
:1043B00095E00E944A2D6CE072E087E895E00E944B
:1043C0009F2CD12C8A85D81608F063C0780184E030
:1043D000E80EF11CC8010E94A51B40E150E0682FC7
:1043E00087E895E00E94702D0F5F1F4F63E374E034
:1043F00087E895E00E94562CE016F10659F78701F0
:1044000061E374E087E895E00E94562CED2CF12CD6
:10441000EE0CFF1CF701E250FB4F7F0194E0C92E28
:10442000F7016081718140E150E087E895E00E94EA
:104430004A2D6FE274E087E895E00E94562CCA94FA
:10444000F2E2EF0EF11CC110EBCF69E274E087E8F5
:1044500095E00E94562CF12C8B85F816A0F4C8012B
:104460000E94A51B40E150E0682F87E895E00E947C
:10447000702D0F5F1F4F67E274E087E895E00E94A0
:10448000562CF394E9CF87E895E00E94892CD394C9
:1044900099CFDF91CF911F910F91FF90EF90DF9017
:1044A000CF900895462FFC01648362E170E00C9484
:1044B000DE1CCF93DF93EC01472F7D836E8363E196
:1044C00070E00E94DE1C4E8164E170E0CE01DF915D
:1044D000CF910C94DE1C462FFC01648B65E170E0EB
:1044E0000C94DE1C08950C94B62DFC018AE292E037
:1044F0009183808380E38583868387838087818718
:104500008287838784870895FC014830510514F021
:1045100048E050E0158216821782108611861286B6
:10452000138614863596DB01CD01861B970B841705
:1045300095071CF48D918193F7CF08950596089502
:10454000DC016150683030F5E62FF0E0E655FD4DB6
:104550000C94DF2FB222B522B822BB22BE22C12288
:10456000C422C7221D968C91089550968C9108956F
:104570001E968C91089552968C91089553968C9125
:10458000089554968C91089551968C9108951F9694
:104590008C91089580E00895FC019785662319F0B9
:1045A0009260978708959D7FFCCFFC0197856623D5
:1045B00019F09160978708959E7FFCCFFC01878555
:1045C000809581700895FC0197859B7F978708955A
:1045D000FC01878582FB882780F991E0892708956F
:1045E00008950C94B62DFC0185810895FC01238962
:1045F00030E085E0359527958A95E1F72483822F71
:104600000895FC01838D20E1829FC0011124948DC7
:10461000929596959770892B82830895FC018381EA
:104620000895FC017B96CB010496DB012D91BD0121
:104630002193A817B907C9F70895FC01138A148AB2
:10464000158A168A178A108E118E128E138E148E6A
:10465000158E168E178E11A210A212A2089522E3B3
:1046600032E0FC01318320830C941D23FC0168306F
:1046700038F48381882329F0E60FF11D838908959A
:1046800080E00895FC012381233711F48689089581
:1046900080E00895FC0193819659923010F4878947
:1046A000089580E00895FC019381913719F096599F
:1046B000923010F48689089580E008950C944A237E
:1046C000FC019381923721F09C3911F0953B11F454
:1046D00086890895953F11F4808D0895923F11F4D5
:1046E000828D089580E00895FC0193819C3911F03A
:1046F000953B11F487890895923B11F0923D11F496
:10470000808D0895953F11F4818D089580E008957E
:10471000FC018381853B11F4808D08959EE2980F02
:10472000923010F4818D0895853F11F4828D0895A3
:1047300080E008954230510509F455C048F4411510
:104740005105D1F04130510509F461C080E0089570
:104750004430510509F497C008F476C0453051053E
:10476000A9F7603839F08EE7860F843018F0623A86
:1047700009F091C081E036C06234E1F380EB860F2E
:104780008B30C0F384EA860F8230A0F381E9860F74
:10479000873080F380E7860F8F3060F380E5860FE7
:1047A000873040F388E4860F823020F3862F8F7B9A
:1047B0008D5B8230F8F280E3860F8630D8F288E293
:1047C000860F8230B8F283E2860F823098F2633E21
:1047D00089F280E1860F823068F2635F81E06730A2
:1047E00008F0B4CF0895862F8F7B8059863010F261
:1047F00080E5860F853008F4BDCF80E1860F8230DA
:1048000008F4B8CF635F81E0633060F39FCF6B350E
:1048100009F4B0CF88E6860F833008F4ABCF862F3B
:104820008F798D59823008F4A5CF88E4860F8230C5
:1048300008F4A0CF88E2860F823008F49BCF685F2F
:1048400081E0643078F282CF8FED860F833008F4F8
:1048500091CF8CEB860F873008F48CCF6C3409F441
:1048600089CF603609F486CF603809F483CF8EE7AC
:10487000860F843008F47ECF81E0623A89F0613E91
:1048800009F064CFAFCF603409F474CF862F8F77EF
:10489000813609F46FCF81E0613C09F057CFA2CF98
:1048A0000895CF93DF93EC0150E040E06B890E94C4
:1048B0009A23882341F08C899D89982789279827F6
:1048C000DF91CF91089590E080E0FACFCF93DF930E
:1048D000EC0142E050E06B810E949A23882341F072
:1048E0008E899F89982789279827DF91CF910895EE
:1048F00090E080E0FACF1F93CF93DF93EC011B8110
:1049000041E050E0612F0E949A23882391F086E0D5
:10491000810F823010F01B3549F48C899D899827CE
:1049200089279827DF91CF911F9108958E899F89BC
:10493000F6CF90E080E0F6CFFC0193819F79985903
:1049400081E0923008F080E00895FC0193819F7926
:10495000905981E0923008F080E00895643008F4C6
:10496000B7C0673009F4B4C0962F9F7B9F3309F41A
:10497000AFC082EA860F823008F4AAC0862F8F7DEE
:104980008F3909F4A5C0663B09F4A2C06F3D09F454
:104990009FC02CEF260F233008F49DC028EF260F70
:1049A000233008F498C02FED260F233008F493C06D
:1049B000603409F490C02CEB260F273008F48BC02C
:1049C0006C3409F488C0262F2F7730EA320F32304A
:1049D00008F481C0233609F47EC0803809F47BC016
:1049E0002EE7260F243008F476C0623A09F473C02B
:1049F00020E4260F223008F46EC026EA260F22306B
:104A000008F46CC020E7260F253008F467C028E6BC
:104A1000260F233008F462C08D59823008F45EC03E
:104A2000862F877F805B823008F458C08DE4890F21
:104A3000823008F453C081E3860F833008F44EC0FF
:104A40008CE2860F823008F449C088E2860F8230FB
:104A500008F444C083E2860F823008F43FC080E14E
:104A6000860F8230D8F18AE0860F8630B8F183E075
:104A7000860F833098F184EF860F823030F180EF1B
:104A8000860F823010F1623401F180EB860F8A309C
:104A9000E0F084EA860F8230C0F081E9860F87302B
:104AA000A0F08BE6860F833080F085E6860F82309B
:104AB00060F0923B51F0953B41F08EE2860F8230E0
:104AC00020F0623E11F06F3E61F482E090E00895C4
:104AD00084E090E0089581E090E0089583E090E024
:104AE000089590E080E00895CF93DF93EC01FC01FE
:104AF0007396CB010896DB012D91BD012193A81778
:104B0000B907C9F76B896B83CE010E94AE249F83DE
:104B10008E83DF91CF9108958EBD00000DB407FE06
:104B2000FDCF8EB50895DC015196FB01CB010496B3
:104B30002D912193E817F907D9F70895FC01633007
:104B400028F4658B443028F4468B089582E0858BE9
:104B5000F9CF82E0868B0895FC0186850895CF9376
:104B6000DF93EC0160E088890E94452F80EC0E9471
:104B70008C2561E088890E94452F6AE070E080E022
:104B800090E0DF91CF910C94352E1F93CF93DF935C
:104B9000EC01162F60E088890E94452F83E00E9477
:104BA0008C25812F0E948C2580E00E948C25182F57
:104BB00061E088890E94452F812FDF91CF911F915D
:104BC0000895DF92EF92FF920F931F93CF93DF939D
:104BD0007C01162FD42EC52FD22F60E0FC018089D6
:104BE0000E94452F83E00E948C25812F0E948C25F6
:104BF0000D2D1C2FC0E0CD1751F0C83041F080E0E2
:104C00000E948C25F80181938F01CF5FF4CF61E082
:104C1000F7018089DF91CF911F910F91FF90EF9065
:104C2000DF900C94452F0F931F93CF93DF93EC01EC
:104C3000062F142F60E088890E94452F82E00E9491
:104C40008C25802F0E948C25812F0E948C2561E06D
:104C50008889DF91CF911F910F910C94452FDF929E
:104C6000EF92FF920F931F93CF93DF937C01C62F98
:104C7000D42E152F022F60E0FC0180890E94452F61
:104C800082E00E948C258C2F0E948C25CD2DD12F67
:104C90000C0F1D2F111DC017D10721F089910E9403
:104CA0008C25F9CF61E0F7018089DF91CF911F91C9
:104CB0000F91FF90EF90DF900C94452FFF920F9390
:104CC0001F93CF93DF93EC01F62E042F122F60E099
:104CD00088890E94452F85E00E948C258F2D0E9497
:104CE0008C25802F0E948C25812F0E948C2561E0CD
:104CF0008889DF91CF911F910F91FF900C94452FE0
:104D00001F93CF93DF93EC0160E088890E94452FC9
:104D100080EA0E948C2580E00E948C25182F61E09B
:104D200088890E94452F812FDF91CF911F9108958F
:104D30000F931F93CF938C01C62F262F40EE6FE069
:104D40000E945E266FE0C8010E94C525982F907EC4
:104D500081E09C1301C080E0CF911F910F910895D5
:104D60000F931F93CF93DF93413029F0423009F422
:104D700057C081E049C061506231D8F7E62FF0E0BA
:104D8000EC53F94D0C94DF2F4D275527D626B92625
:104D9000DA26B926DD26E126E426B926B926E82654
:104DA000EB26EE26F2260927B9260D27C7E8DFEF06
:104DB0004FE01BC0C5E8D1EFFBCFC7E8DFEF47E00E
:104DC00014C0C7E8DAEFFBCFC7E8DFEF43E00DC060
:104DD000C7E8DAEFFBCFC6E8D0EFF8CFC7E8DAEFE5
:104DE00041E003C0C5E8D1EF41E48C016AE20E94D2
:104DF00013264D2F69E2C8010E9413264C2F68E24A
:104E0000C8010E94132680E0DF91CF911F910F917E
:104E10000895C6E8D0EF40E0E8CFC2E8D0EDFBCF80
:104E20006150623108F0A5CFE62FF0E0E65EF84D64
:104E30000C94DF2F512758272C27B9262F27B92666
:104E4000322735273827B926B9263B273E27412761
:104E500044274727B9264A27C7E0DFEBB0CFC4E095
:104E6000D4EAADCFC7E0DFEBB1CFC6E0D4EBAECF35
:104E7000C7E0DFEBB5CFC6E0D4EBB2CFC5E0D1EBF6
:104E8000AFCFC6E0D4EBC7CFC5E0D1EBC4CFC2E013
:104E9000D0E9C1CFC0E0D0E8BECFC7E8DFEF4FE335
:104EA000A4CFC7E0DFEB4FE1A0CFC7E8DFEFFBCF38
:104EB000C7E0DFEB7DCF0F931F93CF938C01C0E34F
:104EC00040E06C2FC8010E94132660E16C0F40E0A7
:104ED000C8010E94132660E26C0F40E0C8010E94E6
:104EE0001326CF5FCE3361F740E060E6C8010E9431
:104EF000132640E060E7C801CF911F910F910C94F9
:104F00001326FF920F931F93CF93DF93EC01062F8D
:104F1000F42E0E94AF2560E8CE010E949826182F3B
:104F20006AE070E080E090E0112349F00E94352EA5
:104F3000812FDF91CF911F910F91FF9008950E94D3
:104F4000352E4F2D602FCE010E94B026882329F0E8
:104F50006AE070E080E090E0E9CF6AE070E080E035
:104F600090E00E94352ECE010E945B2743E06BE269
:104F7000CE010E94132624E044E660E6CE010E94A2
:104F80005E2620E040E660E7CE010E945E2660E0FB
:104F9000CE010E949826C82F8823D1F26AE070E0E3
:104FA00080E090E00E94352E1C2FC2CF0F931F93FC
:104FB000CF93DF9300D000D0CDB7DEB7413021F5DD
:104FC0000C831B83890122273327402F440F440F72
:104FD000440F407E502F53705860452B4A8355E054
:104FE000169507955A95E1F7098324E0AE014F5FC6
:104FF0005F4F0E942F260F900F900F900F90DF9120
:10500000CF911F910F910895A80123E056954795E0
:105010002A95E1F749830295000F007E0A831C82DE
:105020001B82E3CFEF92FF920F931F93CF93DF93F7
:1050300000D000D0CDB7DEB77A018901FA01108225
:10504000F901108211821282138224E0AE014F5FB7
:105050005F4F0E94E1252A818981F8E08F9FC0017E
:105060001124422F50E065E0559547956A95E1F788
:10507000840F951F092E000CAA0BBB0BF80180832F
:105080009183A283B38323FF25C032E0880F991F49
:10509000AA1FBB1F3A95D1F72370820F911DA11D46
:1050A000B11DBA2FA92F982F88272B81820F911D10
:1050B000A11DB11DBA2FA92F982F88272C81820FEF
:1050C000911DA11DB11D80839183A283B38381E0D3
:1050D000F70180830F900F900F900F90DF91CF9189
:1050E0001F910F91FF90EF900895FF920F931F93E0
:1050F000CF93DF93EC01F62EAC014A5F5F4F65E082
:105100006F0D2D810E942F268E85813019F48D819F
:1051100080648D8364E06F0D4D81CE010E94132663
:1051200009811A812B813C8148816F2DCE010E941B
:10513000D627DF91CF911F910F91FF9008950F9384
:105140001F93CF93DF93EC01162F9C012F5F3F4FEE
:10515000AC010E9412286FEF610FCE010E94C5259D
:10516000082F64E0610FCE010E94C5258D8303FFE7
:1051700011C091E09E87282F2F702D83AE014A5FCA
:105180005F4F65E0610FCE01DF91CF911F910F91CD
:105190000C94E1251E86EFCF615028E048E00C9486
:1051A0005E268F929F92AF92BF92CF92DF92EF9244
:1051B000FF921F93CF93DF9300D01F92CDB7DEB73E
:1051C0004C016B0180913E0190913F01A091400103
:1051D00089839A83AB83FB011082CE0101967C0107
:1051E0005E0194E0A90EB11CF70111917F01612FBE
:1051F000C4010E94C52583FD13C01F5FF601108303
:1052000080E00F900F900F90DF91CF911F91FF9052
:10521000EF90DF90CF90BF90AF909F908F900895C8
:10522000EA14FB0409F782E0ECCF0895CF93DF93F3
:10523000EC01862F688B61E00E94092F61E088896C
:10524000DF91CF910C94452F0F931F93CF93DF9352
:10525000EC01162F042F0E94222A402F612FCE012D
:105260000E94812791E0811101C090E0892FDF9198
:10527000CF911F910F910895EF92FF920F931F937B
:10528000FC0120834183528363837483093008F0D7
:1052900008E0058316863696D70110E0CD018E19F9
:1052A0009F09801791071CF48D918193F7CF80E0BF
:1052B0001F910F91FF90EF900895FC0111821282CF
:1052C00013821482158210821686178680E0089554
:1052D000CF92DF92EF92FF921F93CF93DF931F92B3
:1052E000CDB7DEB77C01D12CC12CBE016F5F7F4FE3
:1052F000C7010E94D1289FEFC91AD90A823031F420
:1053000082E3C816D10489F716E027C092E3C916D4
:10531000D104D1F36981C7010E9475286981C70151
:105320000E94CC28D12CC12C8FEFC81AD80A6981D1
:105330006150C7010E94C525182F187083FF06C051
:1053400092E3C916D10481F717E007C082E3C816BB
:10535000D104D1F3C7010E945D29812F0F90DF9105
:10536000CF911F91FF90EF90DF90CF900895EF9233
:10537000FF920F93CF93DF93EC010E943C29CE0163
:10538000DF91CF910F91FF90EF900C9468290F93CC
:105390001F93CF938C01C62F0E948026C11111C08C
:1053A00080FF1DC061E6C8010E949F2820E041E007
:1053B0006CE2C8010E945E268C2FCF911F910F9145
:1053C000089581FF0CC061E7C8010E949F2820E07A
:1053D00042E06CE2C8010E945E26C0E0EDCFC4E06E
:1053E000EBCFEF92FF920F931F93CF93DF93EC01DC
:1053F0008B017A01622F0E94C729811111C09D8102
:10540000F8019083DE011696F7019D819F012E1908
:105410003F099217130639F034F09D919193F5CF1F
:10542000F801108284E0DF91CF911F910F91FF90DE
:10543000EF9008950E948026837011F484E008950F
:1054400083E00895CF93CFB7F894809186058111BA
:1054500027C0EBE0F5E08491E0EFF4E09491E82FD1
:10546000F0E0EE0FFF1FEC5CFA4FA591B491EC91C8
:10547000E92321F461E08AE00E94452F61E08AE09F
:105480000E94092F8CB580618CBD8CB580648CBD69
:1054900061E08DE00E94092F61E08BE00E94092FFE
:1054A000809186058F5F80938605CFBFCF91089549
:1054B000FC01918D228D892F90E0805C9F4F821B93
:1054C00091098F7399270895FC01918D828D98170A
:1054D00031F0828DE80FF11D858D90E008958FEFFA
:1054E0009FEF0895FC01918D828D981761F0A28D38
:1054F000AE0FBF2FB11D5D968C91928D9F5F9F73F4
:10550000928F90E008958FEF9FEF089583EE9BE2D6
:10551000892B49F080E090E0892B29F00E94E32B51
:1055200081110E94000080E090E0892B49F080E02A
:1055300090E0892B29F00E94000081110C9400005A
:105540000895FC01A48DA80FB92FB11DA35ABF4F18
:105550002C91848D90E001968F739927848FA68972
:10556000B7892C93A089B1898C9180648C93938D99
:10557000848D981306C00288F389E02D80818F7D89
:1055800080830895CF93DF93EC01888D8823B9F051
:10559000AA89BB89E889F9898C9185FD03C080813E
:1055A00086FD0DC00FB607FCF7CF8C9185FFF2CFBB
:1055B000808185FFEDCFCE010E94A12AE9CFDF9146
:1055C000CF910895EF92FF920F931F93CF93DF93A4
:1055D000EC0181E0888F9B8D8C8D981316C0E88933
:1055E000F989808185FF11C0EE89FF896083E88990
:1055F000F98980818064808381E090E0DF91CF91A0
:105600001F910F91FF90EF900895F62E0B8D10E0F3
:105610000F5F1F4F0F731127E02E8C8D8E110CC062
:105620000FB607FCFACFE889F989808185FFF5CFAD
:10563000CE010E94A12AF1CFEB8DEC0FFD2FF11DC1
:10564000E35AFF4FF0820B8FEA89FB8980818062E9
:10565000D2CFCF92DF92EF92FF921F93CF93DF933F
:10566000EC016A017B01122FE889F98982E08083CD
:10567000C11481EED806E104F104A1F060E079E004
:105680008DE390E0A70196010E94BD2F21503109C2
:10569000410951095695479537952795211580E180
:1056A000380798F0E889F989108260E874E88EE19B
:1056B00090E0A70196010E94BD2F215031094109B8
:1056C00051095695479537952795EC85FD8530838B
:1056D000EE85FF852083188EEC89FD891083EA8989
:1056E000FB89808180618083EA89FB898081886071
:1056F0008083EA89FB89808180688083EA89FB89CD
:1057000080818F7D8083DF91CF911F91FF90EF90FB
:10571000DF90CF9008951F920F920FB60F92112431
:105720002F938F939F93EF93FF93E0919705F091C1
:1057300098058081E0919D05F0919E0582FD1BC03A
:1057400090818091A0058F5F8F732091A1058217B2
:1057500041F0E091A005F0E0E957FA4F958F809372
:10576000A005FF91EF919F918F912F910F900FBE08
:105770000F901F9018958081F4CF1F920F920FB653
:105780000F9211242F933F934F935F936F937F93C7
:105790008F939F93AF93BF93EF93FF9387E895E029
:1057A0000E94A12AFF91EF91BF91AF919F918F919C
:1057B0007F916F915F914F913F912F910F900FBE0D
:1057C0000F901F90189587E895E00E94582A21E0D5
:1057D000892B09F420E0822F0895E7E8F5E0138291
:1057E000128288EE93E0A0E0B0E084839583A683E4
:1057F000B7838AE392E09183808385EC90E095877C
:10580000848784EC90E09787868780EC90E0918B8A
:10581000808B81EC90E0938B828B82EC90E0958B77
:10582000848B86EC90E0978B868B118E128E138E74
:10583000148E0895AF92BF92CF92DF92EF92FF92B3
:105840000F931F93CF93DF936C017B018B01040FA8
:10585000151FEB015E01AE18BF08C017D10759F044
:105860006991D601ED91FC910190F081E02DC60186
:105870000995892B79F7C501DF91CF911F910F9180
:10588000FF90EF90DF90CF90BF90AF900895FB0115
:1058900001900020E9F73197AF01461B570BDC015F
:1058A000ED91FC910280F381E02D0994EF92FF923B
:1058B0000F931F93CF93DF938C017B01D0E0C0E067
:1058C000F701EC0FFD1F6491662361F0D801ED91A3
:1058D000FC910190F081E02DC8010995892B11F010
:1058E0002196EECFCE01DF91CF911F910F91FF90C6
:1058F000EF9008956115710511F00C94472C90E01C
:1059000080E00895DC01ED91FC910190F081E02DA3
:10591000099466E472E00C94472C0F931F93CF9385
:10592000DF93EC010E94562C8C01CE010E94892C41
:10593000800F911FDF91CF911F910F9108950F93C9
:105940001F93CF93DF938C01D0E0C0E06115710508
:1059500019F00E94472CEC01C8010E94892C8C0F81
:105960009D1FDF91CF911F910F9108958F929F926C
:10597000AF92BF92EF92FF920F931F93CF93DF935B
:10598000CDB7DEB7A1970FB6F894DEBF0FBECDBF7F
:105990007C01FA01CB0119A2223008F42AE08E0121
:1059A0000F5D1F4F822E912CB12CA12CBF01A501A0
:1059B00094010E94BD2FF901CA016A300CF5605DA7
:1059C000D8016E938D01232B242B252B79F790E0A2
:1059D00080E0109721F0BD01C7010E94472CA196DD
:1059E0000FB6F894DEBF0FBECDBFDF91CF911F91F0
:1059F0000F91FF90EF90BF90AF909F908F90089580
:105A0000695CDECFCF92DF92EF92FF920F931F93EC
:105A1000CF93DF932115310581F4DC01ED91FC91E9
:105A20000190F081E02D642FDF91CF911F910F91B4
:105A3000FF90EF90DF90CF9009942A30310501F567
:105A40002AE077FF1DC06A017B01EC016DE20E9434
:105A5000822C8C0144275527BA014C195D096E0927
:105A60007F092AE0CE010E94B62C800F911FDF91A2
:105A7000CF911F910F91FF90EF90DF90CF900895FD
:105A8000DF91CF911F910F91FF90EF90DF90CF901A
:105A90000C94B62C9A01AB01770F660B770B0C9424
:105AA000022D0F931F93CF93DF93EC010E944A2D99
:105AB0008C01CE010E94892C800F911FDF91CF9124
:105AC0001F910F9108952115310541F4DC01ED91ED
:105AD000FC910190F081E02D642F09940C94B62C78
