:100000000C94C1000C94E9000C94E9000C94E900F4
:100010000C94E9000C94E9000C94E9000C94E900BC
:100020000C94E9000C94E9000C94E9000C94E900AC
:100030000C94E9000C94E9000C94E9000C94E9009C
:100040000C946D2B0C94E9000C943E290C947029AF
:100050000C94E9000C94E9000C94E9000C94E9007C
:100060000C94E9000C94E9000C94E9000C94E9006C
:100070000C94E9000C94E9000C94E9000C94E9005C
:100080000C94E9000C94E9000C94E9000C94E9004C
:100090000C94E9000C94E9000C94E9000C94E9003C
:1000A0000C94E9000C94E9000C94E9000C94E9002C
:1000B0000C94E90053686F72743A204576656E744B
:1000C000002020204576656E7420004C6F6E673AE4
:1000D000204E6F64654E6F20005374617274004649
:1000E00041494C454420746F2073656E6420434140
:1000F0004E0077726974652076617220746F206596
:100100006570726F6D000A0D0E0900030200000495
:1001100005080000000000000000000000000000D2
:100120000001020408102040800102040810200190
:100130000204081020408040010204080404040462
:100140000404040402020202020203030303030381
:100150000202030505050500000000230026002912
:10016000002C0000000000250028002B002E0000BD
:10017000000000240027002A002D0000820EA02984
:100180008D0E11241FBECFEFD8E0DEBFCDBF12E031
:10019000A0E0B1E0EEE9FDE502C005900D92A43FBC
:1001A000B107D9F726E0A4EFB2E001C01D92AF3449
:1001B000B207E1F710E0C0ECD0E004C02197FE01E7
:1001C0000E94722DCE3BD107C9F70E94582B0C9488
:1001D000C22E0C9400008A3141F42CB123FB22275B
:1001E00020F981E02827822F0895893129F42CB144
:1001F00022FB222720F9F5CF0E94262D21E0892B12
:1002000091F320E0F0CFE82FF0E0EB5CFC4F908121
:10021000292F24703091F902332339F0392F3570AA
:10022000353031F0937009F08DC0222309F48AC073
:100230008830A0F1A82FA7702091EE043091EF0430
:1002400041E050E060E070E00A2E04C0440F551F0A
:10025000661F771F0A94D2F7869586958695E82FB4
:10026000F0E0E05DFC4F808190E002C095958795BD
:10027000AA95E2F780FD8AC0422B532B5093EF04DE
:100280004093EE044091EE0462E187E693E00E9421
:100290007B1C80910D0381119DC00895E091EC04B9
:1002A000F091ED0441E050E060E070E0082E04C001
:1002B000440F551F661F771F0A94D2F72091300311
:1002C00030E002C0359527958A95E2F720FD7DC084
:1002D0004E2B5F2B5093ED044093EC044091EC04C3
:1002E00061E187E693E00E947B1C80910D038823E7
:1002F000A1F26AE171E085EA95E00E942D2A4AE0C8
:1003000050E062E170E085EA95E00E94FD2A64EE2B
:1003100071E085EA95E00E942D2A6091EC047091CD
:10032000ED0442E050E085EA95E00E94FD2A64EE8B
:1003300071E085EA95E00E942D2A6091EC047091AD
:10034000ED0470C0883038F1A82FA7702091EE041A
:100350003091EF0441E050E060E070E00A2E04C00C
:10036000440F551F661F771F0A94D2F7869586950E
:100370008695E82FF0E0E05DFC4F808190E002C0C0
:1003800095958795AA95E2F780FD76CF4095509593
:100390004223532373CFE091EC04F091ED0441E04C
:1003A00050E060E070E0082E04C0440F551F661F47
:1003B000771F0A94D2F72091300330E002C03595C0
:1003C00027958A95E2F720FD83CF409550954E23DF
:1003D0005F2380CF6AE171E085EA95E00E942D2AD3
:1003E0004AE050E063E170E085EA95E00E94FD2A72
:1003F00064EE71E085EA95E00E942D2A6091EE049A
:100400007091EF0442E050E085EA95E00E94FD2AF9
:1004100064EE71E085EA95E00E942D2A6091EE0479
:100420007091EF044AE050E085EA95E00C94042BCB
:1004300061E187E693E00E945E1C4091EC045091DC
:10044000ED048417150629F062E185E693E00E9429
:10045000FB1162E187E693E00E945E1C4091EE048E
:100460005091EF048417150629F063E185E693E0C7
:100470000E94FB1180910D03882331F063E271E04B
:1004800085EA95E00C94522A0895CF93DF93C82F04
:10049000CE7F80FD02C0C1E0C80FEC2FF0E0EB5C26
:1004A000FC4F308131FF59C030FD57C0EC2FE6952D
:1004B000E695E695F0E0E05DFC4F20814C2F47701B
:1004C000822F90E0042E02C0959587950A94E2F75A
:1004D0008170992761E070E0532F547032FF02C0A1
:1004E00070E060E086179707C1F581E090E0A0E03A
:1004F000B0E004C0880F991FAA1FBB1F4A95D2F70E
:10050000511127C0809582238083D0E08C2F0E94D8
:10051000030180910D03882301F16AE371E085EA0C
:1005200095E00E942D2A4AE050E06C2F85EA95E084
:100530000E94232B6BE471E085EA95E00E942D2A4E
:100540004AE050E06D2F85EA95E0DF91CF910C9461
:100550002A2B822B8083D1E0D9CFDF91CF910895D0
:10056000AF92BF92DF92EF92FF920F931F93CF93C0
:10057000DF93C82FD62E082F10E0C8018B5C9C4F4C
:100580005C01FC01D081C8018B5B9C4F7C01D1FFD9
:100590007CC080913403F7018083D2FBDD27D0F942
:1005A00081E0D8278091FA02882309F452C0E5E35C
:1005B000F3E090E080E0219121FF46C020FD44C09F
:1005C0000817190709F440C0DC01AB5BBC4F2C9144
:1005D00021502E3FC8F580910D038823D9F064E5A2
:1005E00071E085EA95E00E942D2A4AE050E0609192
:1005F000FB0285EA95E00E94232B69E671E085EA1B
:1006000095E00E942D2A4AE050E06C2F85EA95E0A3
:100610000E942A2B8091FB02E82FF0E0E450FD4F6E
:10062000C0838F5F803171F08093FB02F7011082ED
:10063000DF91CF911F910F91FF90EF90DF90BF90CE
:10064000AF9008958FE0F0CF01968031910509F0C9
:10065000B2CFD11155C0EC2FE695E695E695F0E0C6
:10066000E05DFC4F2C2F277081E090E0A0E0B0E02F
:1006700004C0880F991FAA1FBB1F2A95D2F7809527
:10068000908189238083D0E053C08FEFF70180836E
:10069000862F877FD1E0803911F06D13D0E08091F3
:1006A0000D03882339F16BE671E085EA95E00E943D
:1006B0002D2A4AE050E06C2F85EA95E00E94232B1A
:1006C00061E771E085EA95E00E942D2A4AE050E05A
:1006D0006D2D85EA95E00E94232B6BE771E085EA9A
:1006E00095E00E942D2A4AE050E06D2F85EA95E0C2
:1006F0000E942A2BF501808182FFABCFD111ABCFB5
:10070000EC2FE695E695E695F0E0E05DFC4F2C2FAA
:10071000277081E090E0A0E0B0E004C0880F991F4E
:10072000AA1FBB1F2A95D2F72081822B8083D1E09C
:100730008C2F0E940301C11145C0DD2309F440C084
:10074000739A80910D03882351F16BE671E085EA7D
:1007500095E00E942D2A4AE050E06C2F85EA95E052
:100760000E94232B64EE71E085EA95E00E942D2A19
:10077000F801E95FFE4F4AE050E0608185EA95E0CC
:100780000E94232B6BE471E085EA95E00E942D2AFC
:100790004AE050E06D2F85EA95E00E942A2B809177
:1007A000FA02882309F444CF8C2FDF91CF911F9157
:1007B0000F91FF90EF90DF90BF90AF900C944502A7
:1007C0007398BFCFC13031F4DD2311F0729AB9CFE5
:1007D0007298B7CF6D2FF801E95FFE4F80810E94BC
:1007E000F82CAFCF2F923F924F925F926F927F92F1
:1007F0008F929F92AF92BF92CF92DF92EF92FF9231
:100800000F931F93CF93DF93CDB7DEB728970FB623
:10081000F894DEBF0FBECDBF1092DE0365E185E622
:1008200093E00E946C1886FFCAC01092060161E036
:1008300085E693E00E946C1881FB992790F99093CC
:100840003303982F9170909332038695869581306B
:1008500009F4BBC008F4B7C0823009F4B8C08330D3
:1008600009F4B7C08093340365E185E693E00E9404
:100870006C1890E0880F892F881F990B80930D03C7
:1008800065E185E693E00E946C1881708093FA021E
:1008900080910D03882371F064E871E085EA95E0AA
:1008A0000E942D2A4AE050E06091FA0285EA95E024
:1008B0000E942A2B65E185E693E00E946C188695DC
:1008C00081708093F90280910D03882371F063E9B0
:1008D00071E085EA95E00E942D2A4AE050E060919F
:1008E000F90285EA95E00E942A2B67E0C62E61E0B6
:1008F000D62E25E433E03E832D8305E313E0F12C6F
:10090000E12C812C912C540183944E2C62E06E0DCD
:1009100085E693E00E946C18582ED8018C918515BD
:1009200009F4CCC0ED81FE811082252C50FE63C0FD
:10093000E114F10409F04FC06B98739A642D87E6B7
:1009400093E00E94D61BF701EE0FFF1FE25FFC4F02
:10095000DC0112968D919C91982789279827918385
:100960008083F8018081282622FE25C09701277008
:100970003327C70143E0959587954A95E1F7FC0138
:10098000E05DFC4F3081B501A401022E04C0440F8C
:10099000551F661F771F0A94D2F7825D9C4FDC01BA
:1009A0008C9190E002C0959587952A95E2F780FD9D
:1009B0001FC0432B4083842D0E9403017DC081E032
:1009C0008093060134CF85E04DCF8AE04BCF84E1A0
:1009D00049CF88E247CFF1E0EF16F10419F46A98A5
:1009E000729AACCF62E0D6018C910E94BC2CA6CF4B
:1009F00040954323DFCFE114F10469F56B9AD801E8
:100A00009C91852D82703701B7E06B227724292FC6
:100A10002525F70133E0F595E7953A95E1F7E05D97
:100A2000FC4FF887EF8320FF33C0A501940104C079
:100A3000220F331F441F551F6A94D2F729833A832C
:100A40004B835C83811113C0D8015C928081822B1F
:100A5000808361E02EC0B1E0EB16F10411F46A9AD4
:100A6000CECF61E0F60180810E94BC2CC8CFF80196
:100A70005082C8018553934052FC8DC0009709F005
:100A8000C6C0739899819095AF81B8858C9158C0F4
:100A9000292622FE60C0F801508281113BC0AF813F
:100AA000B8856C9170E002C0759567956A94E2F71D
:100AB0006170842D0E94B002F8015082FFEFEF1A9E
:100AC000FF0A0F5F1F4F2FEFC21AD20A4D815E81BE
:100AD0004F5F5F4F5E834D8350E1E516F10409F0EF
:100AE00014CF28960FB6F894DEBF0FBECDBFDF91AE
:100AF000CF911F910F91FF90EF90DF90CF90BF901B
:100B0000AF909F908F907F906F905F904F903F90AD
:100B10002F900895C8018553934052FC47C0009719
:100B200009F080C07398D501C40104C0880F991FD3
:100B3000AA1FBB1F6A94D2F78095AF81B8859C919C
:100B400089238C9338CF632DD6018C910E94F82C89
:100B5000332049F32EC0A501940104C0220F331F96
:100B6000441F551F6A94D2F729833A834B835C83D1
:100B7000D8015C92811103C0EF81F88567CFC8016D
:100B80008553934052FC24C0009709F47ACF312C4E
:100B9000019721F53EC0009781F5739AAF81B88522
:100BA0008C91B9818B2BEF81F88510C0009799F556
:100BB000739AD501C40104C0880F991FAA1FBB1FD7
:100BC0006A94D2F7EF81F8852081822B8083F3CE5F
:100BD000009719F333243394019789F0632DF601BC
:100BE00080810E94F82C332009F44CCFD7CF61E0EC
:100BF000D6018C910E94F82CD1CF0197C1F7729A3F
:100C0000CDCF60E0F60180810E94F82C3BCF0197A8
:100C1000C1F7729837CF33243394019709F093CFFB
:100C2000729AC7CF312C019709F08DCF72987BCF84
:100C30000E94C32B609361037093620380936303EC
:100C4000909364030E94C32B6093F5027093F602A5
:100C50008093F7029093F8020895CF93DF93C091A9
:100C6000F402D0E08091F402282F30E0295F3F4F5A
:100C70002C173D070CF43FC0C031D1059CF5E09125
:100C80000C03F0E0EB5CFC4F808180FF2BC0FE0189
:100C900023E0F595E7952A95E1F7E05DFC4F80812B
:100CA00090E09E012770332702C0959587952A957D
:100CB000E2F7FE01EB5CFC4F208122FD15C0817044
:100CC000FE01EE0FFF1FE25FFC4F4081518161E0AA
:100CD00090913303911160E0882341F085E693E021
:100CE0000E94B9182196BECF8095E9CF85E693E0A2
:100CF0000E94EE18F7CF885F8093F4024091F502CE
:100D00005091F6026091F7027091F80248575C4EDC
:100D10006F4F7F4F4093F5025093F6026093F702B6
:100D20007093F802803151F41092F4021092F5029F
:100D30001092F6021092F7021092F802DF91CF9112
:100D400008958F929F92AF92BF92CF92DF92EF92CF
:100D5000FF920F931F93CF93DF930E94C32B609357
:100D60006103709362038093630390936403009123
:100D70005D0310915E0320915F03309160036B016E
:100D80007C01C01AD10AE20AF30A970186010536EE
:100D900011052105310560F060935D0370935E03DA
:100DA00080935F039093600385E693E00E9423198C
:100DB00085E693E00E9421188091DE0381110E9454
:100DC000F2038091F5029091F602A091F702B091A2
:100DD000F8020097A105B105E1F0809061039090C1
:100DE0006203A0906303B0906403881A990AAA0A68
:100DF000BB0A85E693E00E94530F9C01A0E1B7E295
:100E00000E94782D681579058A059B0510F40E94CB
:100E10002D068091610390916203A0916303B091CC
:100E200064034091590350915A0360915B037091A0
:100E30005C037C018D01E41AF50A060B170BB8015F
:100E4000A7014135534C6105710508F4A3C0809397
:100E5000590390935A03A0935B03B0935C03B5E4EA
:100E6000EB2EB3E0FB2ED0E0C0E0812C912C54019E
:100E70008394F70111917F0111501E3F08F085C046
:100E800031971083111181C0FE01EB5CFC4F808112
:100E900080FD29C082FDB3C2209709F06FC373980B
:100EA00000E0B2C2602FFE01E95FFE4F80810E9428
:100EB000F82CAAC280958223C5C2492B408311E039
:100EC00017C373981FC3E13031F4112311F0729AE4
:100ED00019C3729817C3F0E0E95FFE4F612F80815C
:100EE0000E94F82C0FC381FF50C08E01000F111F0C
:100EF000025F1C4FF8014081518161E08091330312
:100F0000811160E085E693E00E94EE1880910D0368
:100F10008823D9F16AEC71E085EA95E00E942D2AD8
:100F200068ED71E085EA95E00E942D2A6AED71E096
:100F300085EA95E00E942D2AF801608171814AE0DE
:100F400050E085EA95E00E943C2B63EE71E085EA73
:100F500095E00E942D2A4AE050E06091330385EA33
:100F600095E00E94232B8091330363EA71E08111A5
:100F700002C06AEA71E085EA95E00E942D2A66EED9
:100F800071E085EA95E00E94522A2196C031D10590
:100F900009F06FCF8091610390916203A091630388
:100FA000B0916403409155035091560360915703EB
:100FB000709158036C017D01C41AD50AE60AF70A3C
:100FC000B701A60120910601222309F41FC1493867
:100FD00053416105710508F4F1C080935503909366
:100FE0005603A0935703B093580380910C0311E06C
:100FF000180F1F70C12FD0E09E012B5C3C4F790170
:10100000F901908190FD06C0811709F4F9C021967D
:101010001C2FEFCF10930C03811709F4F1C0FE01D0
:10102000E95FFE4F80810E94EB00082F482F50E0BF
:10103000BE01E3E075956795EA95E1F7FB01E25D96
:10104000FC4F2081312F3770822F90E0032E02C099
:10105000959587950A94E2F7817099274817590763
:1010600009F0BCC0FB01E05DFC4F2081822F90E0C5
:10107000032E02C0959587950A94E2F7817099270F
:101080004817590709F49AC081E090E0A0E0B0E069
:1010900004C0880F991FAA1FBB1F3A95D2F70023DF
:1010A00011F1822B8083812F0E940301F70180813F
:1010B00082FF04C091E0011190E0092F81FD66C01C
:1010C000CC0FDD1FFE01E25FFC4F4081518161E0EA
:1010D00080913303811160E085E693E0002331F0D5
:1010E0000E94B91805C080958223DCCF0E94EE18BB
:1010F00080910D03882309F461C06AEC71E085EAF0
:1011000095E00E942D2A4AE050E0602F85EA95E0A4
:101110000E94232B6AED71E085EA95E00E942D2A5A
:10112000C25FDC4F688179814AE050E085EA95E052
:101130000E943C2B63EE71E085EA95E00E942D2A27
:101140004AE050E06091330385EA95E00E94232B4A
:101150008091330363EA71E0811102C06AEA71E0B1
:1011600085EA95E00E942D2A66EE71E085EA95E019
:10117000DF91CF911F910F91FF90EF90DF90CF9073
:10118000BF90AF909F908F900C94522AFE01EB5B22
:10119000FC4F002301F1808181110FC0CC0FDD1FB6
:1011A000FE01E25FFC4F4081518161E08091330399
:1011B000811160E085E693E093CF1082DF91CF91BB
:1011C0001F910F91FF90EF90DF90CF90BF90AF9065
:1011D0009F908F90089588E28083F0CF81E090E027
:1011E000A0E0B0E004C0880F991FAA1FBB1F3A956A
:1011F000D2F7002311F0822BEFCF80958223ECCF22
:101200002F96CF70DD27C0930C03D8CF493E5340B3
:101210006105710598F28093550390935603A0934E
:101220005703B0935803D0E0C0E0812C912C5401B7
:10123000839408E29E012B5C3C4F7901F901808187
:1012400080FFABC0FE01E95FFE4F80810E94EB0092
:10125000182F682F70E0CE0123E0959587952A9589
:10126000E1F7FC01E25DFC4FD080AE0147705527ED
:101270002D2D30E0042E02C0359527950A94E2F713
:10128000217033276217730709F0A8C0FC01E05DE5
:10129000FC4FD0802D2D30E0042E02C035952795CF
:1012A0000A94E2F7217033276217730709F475C0B7
:1012B000D501C40104C0880F991FAA1FBB1F4A95FE
:1012C000D2F7112311F18D2980838C2F0E94030105
:1012D000F701808182FF04C091E0111190E0192F85
:1012E00081FD61C0CC0FDD1FFE01E25FFC4F40813C
:1012F000518161E080913303811160E085E693E0E4
:10130000112331F00E94B91805C080958D21DCCFE2
:101310000E94EE1880910D038823E9F160EF71E0DF
:1013200085EA95E00E942D2A4AE050E0612F85EA87
:1013300095E00E94232B6AED71E085EA95E00E941A
:101340002D2AC25FDC4F688179814AE050E085EA4E
:1013500095E00E943C2B63EE71E085EA95E00E94E7
:101360002D2A4AE050E06091330385EA95E00E941F
:10137000232B8091330363EA71E0811102C06AEA92
:1013800071E085EA95E00E942D2A66EE71E085EA1B
:1013900095E00E94522AC0E1D0E02196C031D105EB
:1013A0000CF448CF0BCFFE01EB5BFC4F1123A1F0F7
:1013B000808181110FC0CC0FDD1FFE01E25FFC4F69
:1013C0004081518161E080913303811160E085E6C5
:1013D00093E098CF1082E1CF0083DFCFD501C40125
:1013E00004C0880F991FAA1FBB1F4A95D2F711236B
:1013F00019F08D298083D1CF80958D21FBCF209747
:1014000009F0B5C0739A01E08091F9028823F1F0E8
:10141000CE0187709927A501940104C0220F331FC4
:10142000441F551F8A95D2F7C901FE01A3E0F59527
:10143000E795AA95E1F7E05DFC4F2081002309F4D0
:1014400039CD822B80838C2F0E94030180910D0364
:101450008823D1F06BE671E085EA95E00E942D2AA1
:101460004AE050E0BE0185EA95E00E94FD2A60EB6B
:1014700071E085EA95E00E942D2A4AE050E0602F55
:1014800085EA95E00E942A2B8091FA02882309F4CC
:101490007CCD8091FB02882309F477CD8091FC02FA
:1014A000282F30E0F901EB5CFC4FA081A1FF4DC07B
:1014B000A0FD4BC02B5B3C4F90913403F90190830E
:1014C000E82FE695E695E695F0E0E05DFC4F90812B
:1014D000282F2770B501A40104C0440F551F661FB3
:1014E000771F2A95D2F7A2FFE8CC40954923408385
:1014F0000E940301E091FC02E111E5CC112309F403
:10150000E0CC739A80910D038823D9F068EB71E0E9
:1015100085EA95E00E942D2A4AE050E06091FC02A5
:1015200085EA95E00E94232B6BE471E085EA95E063
:101530000E942D2A4AE050E0612F85EA95E00E9442
:101540002A2B8091FC020E9445028091FB0281506F
:101550008093FB02ECEFF2E090E09F012C5F3240C1
:10156000281739070CF011CD21812193F6CF01E026
:10157000C130D10509F096CC729A45CF00E0C13058
:10158000D10509F08FCC72988BCCCF92DF92EF927D
:10159000FF920F931F93CF93DF9380910D038823C6
:1015A00031F068E072E085EA95E00E94522A05E396
:1015B00013E0D0E0C0E0C12CD12C7601C394F80137
:1015C00081918F01837069F5FE0183E0F595E795C0
:1015D0008A95E1F7E05DFC4F60819E01277033271B
:1015E000D701C601022E04C0880F991FAA1FBB1F76
:1015F0000A94D2F7462F50E0022E02C05595479527
:101600000A94E2F740FD23C0862B8083608170E05E
:1016100002C0759567952A95E2F761708C2F0E943C
:10162000B0022196C031D10551F680910D03882377
:1016300089F066E172E085EA95E0DF91CF911F9134
:101640000F91FF90EF90DF90CF900C94522A8095ED
:101650008623DBCFDF91CF911F910F91FF90EF9009
:10166000DF90CF900895AF92BF92CF92DF92EF922A
:10167000FF920F931F93CF93DF9307E011E0780160
:10168000D0E0C0E02097A1F56B982196FFEFEF1A0C
:10169000FF0AC031D105B1F761E080E00E94BC2CA7
:1016A00061E081E00E94BC2C0E94B72B6838734136
:1016B0008105910540F560E080E00E94F82C60E033
:1016C00081E00E94F82C64E670E080E090E00E94E7
:1016D000E82B61E080E00E94F82C61E081E00E944C
:1016E000F82C64EF71E080E090E00E94E82BDCCF02
:1016F000C130D10511F46A98C8CF60E0F70180814C
:101700000E94BC2CC2CF61E080E00E94F82C61E016
:1017100081E00E94F82C62E08AE00E94BC2CD0E0BC
:10172000C0E0209709F051C06B9A21960F5F1F4FC0
:10173000C031D105B1F748E050E068E272E086ECD4
:1017400093E00E94FF1F87E58093D4038DE0809390
:10175000D30385E38093D60382E08093D70361E0CF
:1017600086EC93E00E94472061E086EC93E00E94C3
:10177000552085EC90E0A0E0B0E08093DF039093EB
:10178000E003A093E103B093E2038AE00E94262DD8
:10179000892B09F04BC00E94B72B6B017C01C1E083
:1017A0000E94B72B6C197D098E099F09683E734012
:1017B00081059105A8F4CC2341F38AE00E94262DEF
:1017C000C1E0892B69F3C0E0EBCFC130D10511F442
:1017D0006A9AABCF61E0F80180810E94BC2CA5CF52
:1017E000CC2399F285E693E00E94AD1685E693E05E
:1017F0000E943B1785E693E00E94341726E040E004
:1018000052EC61E070E085EA95E00E94DC2861E33B
:1018100072E085EA95E00E94522A60E081E00E9431
:10182000F82C60E080E00E94F82CFFCF61E080E0BF
:101830000E94F82C61E081E00E94F82C8AE69DE08D
:101840009093B3048093B2046AE085E693E00E942B
:10185000890F8FEF8093BF0465E185E693E00E94D6
:101860006C1890E0880F892F881F990B80930D03C7
:10187000892BE1F126E040E052EC61E070E085EA7E
:1018800095E00E94DC2863EF72E085EA95E00E9413
:10189000522A67E472E085EA95E00E942D2A4AE028
:1018A00050E062E070E085EA95E00E94FD2A68E57C
:1018B00072E085EA95E00E942D2A4AE050E065E05A
:1018C00070E085EA95E00E94FD2A6AE572E085EA0B
:1018D00095E00E942D2A8FEF93E00E94AC2E4AE003
:1018E00050E0682F85EA95E00E942A2B80910D0335
:1018F000811106C041E060E085E693E00E94B016E9
:1019000005E313E085E493E0F80123E621938E17C5
:101910009F07E1F70E94F20380913203D0E0C0E01C
:10192000C12CD12C7601C394882309F497C062E1BD
:1019300085E693E00E946C188093300363E185E6AE
:1019400093E00E946C1880933103C5E3D3E030E04C
:1019500020E0C12CD12C7601C3948991857085300B
:1019600011F5F90143E0F595E7954A95E1F7E05D5A
:10197000FC4F4081590187E0A822BB24D701C60152
:101980000A2C04C0880F991FAA1FBB1F0A94D2F704
:10199000642F70E002C075956795AA94E2F760FD28
:1019A00054C0842B80832F5F3F4F20313105A9F62F
:1019B000D0E0C0E0C12CD12C7601C394F801819114
:1019C0008F0180FF27C0FE01E95FFE4F80810E94EA
:1019D000EB009E0127703327B701A60104C0440F16
:1019E000551F661F771F2A95D2F7942F9095FE01F9
:1019F00023E0F595E7952A95E1F7DF01A25DBC4F5D
:101A0000E05DFC4F882321F18C91842B8C938081A5
:101A1000892380832196C031D10581F60E94C50AB1
:101A200080910D03882309F44AC069ED70E085EACE
:101A300095E0DF91CF911F910F91FF90EF90DF9094
:101A4000CF90BF90AF900C94402A80958423AACF6A
:101A50008C9189238C938081842BDBCFF801219199
:101A60008F0120FF23C0CE0187709927B701A601FF
:101A700004C0440F551F661F771F8A95D2F7FE01D9
:101A800083E0F595E7958A95E1F7DF01A25DBC4F0C
:101A90009C91E05DFC4F808122FD0DC04095942318
:101AA0009C93842380838C2F0E9403012196C03154
:101AB000D105A1F6B5CF942B9C93842BF3CFDF9166
:101AC000CF911F910F91FF90EF90DF90CF90BF903B
:101AD000AF900895EF92FF921F93CF93DF93EC01A5
:101AE0007B01FB01E858FF4F108180910D03882393
:101AF00009F4BDC068E672E085EA95E00E942D2AEF
:101B00004AE050E0612F85EA95E00E942A2B1123DC
:101B100009F4AFC080910D03882329F168E772E0D2
:101B200085EA95E00E942D2A4AE050E0612F85EA7F
:101B300095E00E942A2B64E872E085EA95E00E9415
:101B40002D2A40E0BE01C7010E9470184AE050E013
:101B5000682F85EA95E00E942A2B63EF72E085EA00
:101B600095E00E94522A1150103198F4E12FF0E0D4
:101B7000EB5CFC4F808180FDBFC0CE010E948E20B7
:101B8000682F812FDF91CF911F91FF90EF900C94E0
:101B9000B002103109F0B0C0DF91CF911F91FF90DA
:101BA000EF900C941806CE010E941C22882351F05D
:101BB00064EB70E085EA95E00E94092ACE010E945C
:101BC000FB218EC06FE872E085EA95E00E942D2A25
:101BD000CE010E948E2040E150E0682F85EA95E01A
:101BE0000E94232B64E972E085EA95E00E942D2A89
:101BF000CE010E94D1214AE050E0BC0185EA95E087
:101C00000E943C2B6BE972E085EA95E00E942D2A48
:101C1000CE010E9481204AE050E0682F85EA95E0DD
:101C20000E94232B63EA72E085EA95E00E942D2A48
:101C3000CE010E9476204AE050E0682F85EA95E0C8
:101C40000E94232B61EB72E085EA95E00E942D2A29
:101C500060912B0470912C044AE050E085EA95E0F5
:101C6000DF91CF911F91FF90EF900C94042B1111F5
:101C70007ACFCE010E948E20883029F480913203E1
:101C800081110E941802CE010E948E20893029F411
:101C90008091320381110E94C50A80910D0388232F
:101CA00059F1CE010E942522882309F47CCF6BECE8
:101CB00070E085EA95E00E94092ACE010E94D121B8
:101CC0004AE050E0BC0185EA95E00E943C2B61ECC3
:101CD00070E085EA95E00E94092ACE010E94E62183
:101CE0004AE050E0BC0185EA95E0DF91CF911F9179
:101CF000FF90EF900C94422BDF91CF911F91FF90BA
:101D0000EF9008950F9301E021E041E165E185E660
:101D100093E00E948B190F91089585E693E00C944F
:101D20003A1B08950C94692B2DEB32E0FC013183B2
:101D3000208317AE16AEE05CFF4F11821082329600
:101D4000118210828C5B9F4FFC01118210820895DA
:101D50000F931F93CF93DF93EC01C05CDF4F28817B
:101D60003981232B79F421E030E0398328839C01E9
:101D70002C5B3F4FF901408151811416150624F068
:101D80001982188280E02EC0DC01AE5BBF4F4D91FE
:101D90005C9111974C3351051CF011961C921E92C8
:101DA0008B01615F7F4F4D915C911197480F591FD7
:101DB000FA014281F80141938F014D915C91119795
:101DC0004F5F5F4F11965C934E93F90140815181B3
:101DD00041505109518340830617170721F7198293
:101DE000188281E0DF91CF911F910F910895FC013E
:101DF000EE5BFF4F20813181215F3F4F2C33310556
:101E00001CF4318320830895118210820895EF928B
:101E1000FF920F931F93CF93DF93FC017C0180E42B
:101E2000E80EF11CD7018D919C911197892BC9F572
:101E300081E090E08D939C9386AD97ADCC9714F0A4
:101E400017AE16AEDB019B01215F3F4F8F010C5B8C
:101E50001F4F86AD97AD6D91AF01480F591FEA0135
:101E60006A83019697AF86AFE801888199810196D0
:101E700099838883A217B30761F7CD973CF0CF0110
:101E80000E94F70E8CE390E099838883F70111821A
:101E9000108281E0DF91CF911F910F91FF90EF9021
:101EA000089580E0F7CF8C599F4FFC01808191818C
:101EB0000895AF92BF92CF92DF92EF92FF920F936D
:101EC0001F93CF93DF934D965C010E949626D0E03E
:101ED000C0E06701F12CE12C42E06DE0C5010E94F9
:101EE000A4268823A1F02196C701B6010E94E82B01
:101EF000C017D10788F380E0DF91CF911F910F9138
:101F0000FF90EF90DF90CF90BF90AF90089581E069
:101F1000F3CFEF92FF920F931F932EE1E22EF12C5D
:101F200004E110E021E04DE050E00E94590F1F91C4
:101F30000F91FF90EF900895AF92BF92CF92DF92F2
:101F4000EF92FF920F93CF93DF935B017A016901C8
:101F5000EC016D96CE010E94CD27833059F080E0D0
:101F6000DF91CF910F91FF90EF90DF90CF90BF90D6
:101F7000AF900895202FA501B601CE010E94A4279D
:101F80008111EDCFB701CE010E94132381E0E8CF8C
:101F90000F931F93CF93DF93EC01FC01E45BFE4FA3
:101FA0001082E55DF1096083E15BFF4F84E090E022
:101FB000918380838E01035E1F4F43E062E0C8017E
:101FC0000E941E23FE01ED59FF4F408150E070E05A
:101FD00060E0C8010E9447270E94B72BC853DF4F1B
:101FE000688379838A839B83DF91CF911F910F91BF
:101FF0000895FC01E35BFE4F0190F081E02D3097E6
:1020000019F0BC01CD96099580E008950F931F93B8
:10201000CF93DF93EC018C01035C1F4FC8010E943A
:102020008E20873099F08E3589F0FE01E35BFE4FFC
:102030000190F081E02D309719F0BE01C80109959B
:1020400080E0DF91CF911F910F9108950C940000D3
:10205000ECCFCF93DF93DB01119681E08417A0F4DE
:102060002D919FEF980FE92FF0E0EB01CE0FDF1FCE
:1020700038813196E60FF71F231718F430839150FB
:10208000F2CF20838F5FEACFDF91CF910895EF9257
:10209000FF920F931F93CF93DF93EC01FC01EA5360
:1020A000FF4F83E090E0918380837E0184EBE81A08
:1020B0008EEFF80A8E0104531F4FF7014081B801DB
:1020C000CE010E942910F701208130E0F80190E054
:1020D00080E011E0180F821793072CF44191141738
:1020E00010F00196F6CF612FCE0102960E94CD1F0F
:1020F000FE01ED59FF4F1083749680818823D1F043
:1021000073978081918122E52DAB9EAB8FAB18AE8A
:1021100019AE1AAE1BAE1CAE7E01F5E3EF0EF11C3C
:10212000412F50E070E060E003E020E0CE014D96EA
:102130000E943727DF91CF911F910F91FF90EF9071
:102140000895FC0115AA16AA17AA10AE11AE12AE78
:1021500013AE14AE08958F929F92AF92BF92CF921A
:10216000DF92EF92FF920F931F93CF936C01FC01CC
:10217000C5A9C63BE9F1C295C695C770CF5F5601A8
:10218000FDE1AF0EB11C41E061E0C5010E941E23DC
:10219000460185E3880E911CE3E6CE0ED11CF601C4
:1021A000408150E070E060E074010C2F20E0C50138
:1021B0000E9437278823F1F013E0F601408150E0B8
:1021C00070E060E074010C2F20E0C5010E94372709
:1021D000882381F0115089F7CF911F910F91FF90C3
:1021E000EF90DF90CF90BF90AF909F908F90089529
:1021F000C7E0C4CF80E0F0CF9F92AF92BF92CF9262
:10220000DF92EF92FF920F931F93CF93DF93EC0136
:10221000603709F48EC000F5613599F070F46035CF
:1022200081F0DF91CF911F910F91FF90EF90DF90A0
:10223000CF90BF90AF909F900895623511F06935AF
:1022400081F7DE01AC59BF4F8C9111969C916DAB1B
:102250009EAB8FAB18AE7BC0663B21F138F4643780
:1022600001F78985DE01AC59BF4F6AC0623E89F132
:102270006F3EB9F6DC01AE58BF4F8C9113969C911E
:1022800011972C9111973C9114974C9112965C9157
:1022900013977C916DAB7EAB5FAB48AF39AF2AAF84
:1022A0009BAF15C0DC01A059BF4F8C9111979C9139
:1022B00011972C911A973C9111964C916DAB4EABA6
:1022C0003FAB28AF99AF8AAF82E08BAF85E08CAF90
:1022D000A8CF962E8C010F591F4FC8010E941920BC
:1022E000FC01F680C8010E941920FC01E580C801AC
:1022F0000E941920FC01D480C8010E941920FC0111
:10230000C380C8010E941920FC01B280C8010E944C
:102310001920FC01A180C8010E941920FC018081C4
:102320009DAA8EABAFAAB8AEC9AEDAAEEBAEFCAE2C
:1023300078CFDC01AD58BF4F8C919985891B1F97D1
:102340009C9111962C916DAB2EAB9FAB88AF19AEC3
:102350001AAE1BAE1CAE65CFCF93DF93EC01FC0130
:10236000EA53FF4F85E090E09183808360E5CE01E2
:102370000E94FC10CE01DF91CF910C94AB10FC01B8
:10238000DC01AC59BF4F8C9111969C912FE625AB87
:1023900096AB87AB60AF11AE12AE13AE14AECF01E9
:1023A0000C94AB100F931F93CF938C01C22FFC01A1
:1023B000EB58FF4F80818617A0F0C80102960E945B
:1023C000B21DC11106C0C1E08C2FCF911F910F919A
:1023D000089569E5C8010E94FC10C8010E94AB1075
:1023E000F3CF6F3F81F3222379F369E0C8010E94A4
:1023F000BF11C0E0E9CF615020E00C94D2119F9250
:10240000AF92BF92CF92DF92EF92FF920F931F9302
:10241000CF93DF93EC017C012DE3E20EF11CC701A9
:102420000E948E20182FC7010E94D1215E0134E640
:10243000A30EB11CF501C080D1808C159D0579F1EA
:10244000EE59FF4F808191810297039740F51D302F
:10245000B1F1103109F45BC1113109F066C0FE0120
:10246000E45AFE4F1082E95FF109608170E06C155B
:102470007D0539F0F50171836083CE0102960E94DB
:10248000D41FFE01EA53FF4F8081918162EE0597D0
:1024900009F45BC163E0CE010E94BF1146C01D3547
:1024A00009F4DBC108F071C0133509F474C108F0F8
:1024B00049C0103109F42BC190F51D30B1F5C1149C
:1024C000D10499F1FE01E45AFE4F1082E95FF1094F
:1024D000608170E06C157D0539F0F50171836083D2
:1024E000CE0102960E94D41F66EBCE010E94FC1022
:1024F000B601660F771F6C0D7D1D90E080E00E9495
:10250000E82BCE01DF91CF911F910F91FF90EF90BB
:10251000DF90CF90BF90AF909F900C94AB10113193
:1025200009F49DCF123409F414C180E0DF91CF91FA
:102530001F910F91FF90EF90DF90CF90BF90AF90E1
:102540009F900895163509F44DC188F4143509F4A7
:102550002BC1153551F7FE01EA53FF4F8081918160
:10256000892B19F7CE0102960E94A61DDECF1735E2
:1025700009F43EC11835C9F6FE01E45AFE4F108237
:1025800064E7CE010E94FC109BC1153909F4B9C162
:10259000B8F5123709F470C1C8F4113731F6FE01ED
:1025A000E45AFE4F1082C7010E94D320182F6FEF0C
:1025B000680FCE0102960E946B1C9C8D911130C158
:1025C00097E99DABDEAACFAA18AF8EC1133709F4E5
:1025D0007BC1153709F0A9CFFE01E45AFE4F1082E6
:1025E00063E0C7010E94B620FE01ED59FF4F81E66E
:1025F000808361E6CE0102960E94CD1F62E5C1CFC5
:10260000123B09F4E9C178F5163909F4ABC11C395C
:1026100009F08BCFFE01E45AFE4F1082C7010E94E1
:10262000E020082FC7010E94F420182FFE01EC586B
:10263000FF4F8081811708F4F3C04FEF410F6FEF18
:10264000600FCE0102960E94AC1C9C8D9111E8C0D7
:10265000F5019081218135EB3DAB2EAB9FAB08AFEF
:1026600019AF8AAF43C1123D09F4E5C1153F09F026
:102670005CCFFE01E45AFE4F8081811156CFE659AE
:10268000F10980819181892B09F0D3C1C7010E9492
:10269000E621C82EB92EC7010E94D121A82E992E5D
:1026A000C7010E94F420182FC7010E940821D82ECC
:1026B000C7010E94E020082FBE0164537F4FFB0139
:1026C00090823196A0823196B0823196C0827E018E
:1026D000F2E0EF0EF11C4FEF480FC7010E94151DED
:1026E000682F70E0202F2150330B6217730709F019
:1026F000D8C04FEF410F2D2DC7010E94E41D412F7F
:102700004150550B8417150609F08AC0CAC1FE0155
:10271000E45AFE4F1082E95FF109608170E06C15A8
:102720007D0539F0F50171836083CE0102960E9428
:10273000D41FFE01EA53FF4F80819181059709F074
:10274000F4CECE010E94A1106FEECE010E94FC10CB
:10275000D8CEFE01E45AFE4F10828E010A531F4F5D
:10276000F80180819181059709F094CEC7010E94FC
:10277000D121F50191838083BC01CE0102960E9494
:10278000D41F62E5CE010E94FC1083E090E0F801C6
:1027900091838083B6CEFE01E45AFE4F1082CA5365
:1027A000DF4F19821882C1CEFE01E45AFE4F10821B
:1027B000E95FF109608170E06C157D0539F0F50184
:1027C00071836083CE0102960E94D41FFE01EA53FA
:1027D000FF4F83E090E091838083C758DF4F81E013
:1027E0008883A3CEFE01E45AFE4F108260E7ADCF8E
:1027F000FE01E45AFE4F10820985002309F495CEAC
:10280000BD2C10E07E01F2E0EF0EF11C82EFA82E4D
:10281000612FC7010E94D61BFC018C8D882311F00B
:102820006AE039CE8381928121813081ADAABEAA2E
:10283000CFAA38AF29AF9AAF8BAF1CAFCE010E94A1
:10284000AB10882331F06FED70E085EA95E00E94CF
:10285000402A1F5F1013DCCF68CEC7010E94D12130
:10286000F501208131818217930709F05ECE61E086
:10287000CE010E94C80F59CEFE01E45AFE4F1082CD
:10288000CE010E94A110C7010E94E020182F6FEF17
:10289000680FCE0102960E94D61BFC019C8D9923E5
:1028A00011F066E0F8CD838192812181308142EF81
:1028B0004DABDEAACFAA38AF29AF9AAF8BAF1CAF12
:1028C000CE010E94AB1031CEFE01E45AFE4F1082C1
:1028D000C7010E94C220182F81110BC08BE98DAB5C
:1028E000DEAACFAA18AE88E089AF1AAE1BAE1CAE26
:1028F000E7CF682FCE018F599F4F0E941B209BE985
:1029000060CEFE01E45AFE4F1082C7010E94E6210C
:102910008C01C7010E94D1217E01F2E0EF0EF11C73
:10292000A801BC01C7010E94551C182FBE016453A9
:102930007F4FFB01108231961082319610823196C2
:102940001082482FC7010E94151D1813AACF612FAE
:1029500070E020E040E0C7010E94E41D882309F4F4
:10296000E4CD5ECF6E01F4EACF1AFEEFDF0AF60186
:1029700090819111DACDC7010E94D3200FEF080F8B
:10298000C7010E94DE20182F0331F9F47E01F2E026
:10299000EF0EF11C8E3F89F4C7010E94041E81E0F6
:1029A000F601808381E690E0F5019183808361E602
:1029B00070E0C7010E94D41F11E6FE01ED59FF4FE0
:1029C0001083612FC7010E94CD1F21E0412F602F8E
:1029D000CE010E94D211A9CDFE01E45AFE4F108211
:1029E000E659F10980819181892B19F5C7010E946F
:1029F000F420D82E682F7E01F2E0EF0EF11CC70103
:102A00000E94D61B8C0140E06D2DC7010E94AC1CBA
:102A10009C8D911146CFF8019381228131814081B3
:102A200053ED5DAB4EAB3FAB28AF99AFDAAE8BAF9A
:102A30005ECF62E030CDFE01E45AFE4F808181110D
:102A400074CDC7010E94E621D82EC92EC7010E946D
:102A5000D121B82EA92EC7010E94F420182FC7013A
:102A60000E940821082FBE0164537F4FFB01A08202
:102A70003196B0823196C0823196D0827E01F2E0EA
:102A8000EF0EF11C412FC7010E94151D181309CF2D
:102A9000612F70E0202F40E0C7010E94E41D8111EA
:102AA000BFCE69E56ECDCF92DF92EF92FF920F938A
:102AB0001F93CF93DF93EC01FC01E15AFF4F80811C
:102AC0008823F1F0359680819181892BC9F07E01B0
:102AD00085E3E80EF11C3197408150E070E060E042
:102AE00000E020E0CE014D960E94372780E0DF9184
:102AF000CF911F910F91FF90EF90DF90CF900895AD
:102B0000FE01EA53FF4F808191810497F9F46E0131
:102B1000EDE3CE0ED11CC6010E9473208111E6CFD9
:102B20007E01F4EBEF1AFEEFFF0AF7011081133676
:102B3000E8F6C6010E948120C10FD11DC453DF4FAA
:102B40008883F70180818F5F8083D0CFFE01ED5BAA
:102B5000FF4F808191818230910569F120F40197C6
:102B600091F081E0C4CF83309105D1F00497C9F78B
:102B7000CE018F599F4F0E945E20882391F3CE0192
:102B80000E940610EECFFE01E15BFE4F0190F08146
:102B9000E02D309731F3BE01CE01CD960995E1CFFE
:102BA000CE018F599F4F0E945E208823D1F2CE0123
:102BB0000E94F90FD6CFCE01DF91CF911F910F91D7
:102BC000FF90EF90DF90CF900C94FF11AF92BF92E7
:102BD000DF92EF92FF920F931F93CF93DF938C01BD
:102BE0007C0182E0E80EF11C60E0C7010E946B1CD2
:102BF00081FBDD24D0F8E801ED96CE010E9425226C
:102C00008823A1F0D11012C0CE010E94E6215C0100
:102C1000CE010E94D121A501BC01C7010E94551C13
:102C2000F8019485981710F08F5F30C0CE010E9494
:102C30001C22882379F0CE010E94FB21009751F0DD
:102C4000AC0170E060E0C7010E94551CF80194855A
:102C5000981750F7CE010E942522882389F0DD20A5
:102C600079F0CE010E94E621009751F0AC0170E0AE
:102C700060E0C7010E94551CF80194859817A0F6E2
:102C8000CE010E94FB21009759F480E0DF91CF91A3
:102C90001F910F91FF90EF90DF90BF90AF9008953C
:102CA000AC0170E060E0C7010E94551CF8019485FA
:102CB000981708F0B9CFE9CFAF92BF92CF92DF92C9
:102CC000FF920F931F93CF93DF93EC016C0188E782
:102CD000C80ED11CF60110825E01FAEDAF1AFEEFAC
:102CE000BF0AB501CE0180589F4F0E94A80EF82E52
:102CF000882329F18E01035C1F4FC8010E949D208B
:102D0000F5018081E45EF1098083BE01685D7E4F3C
:102D1000C8010E949120BE01645D7E4FC8010E94DF
:102D2000F422FE01E95DFE4F8081E85CF10981112A
:102D300011C01082CE010E94E615F60180838F2D0E
:102D4000DF91CF911F910F91FF90DF90CF90BF90B7
:102D5000AF90089581E08083EDCF02960C94041E1D
:102D6000CF93DF93FC01EE5AFE4F6083EC01CD5A06
:102D7000DE4F48836F3F21F0862F61E00E94BC2C1C
:102D800088818F3F29F061E0DF91CF910C94BC2CBA
:102D9000DF91CF9108958F929F92AF92BF92EF9261
:102DA000FF920F931F93CF93DF938C010D5A1E4F09
:102DB000F80120812F3F21F4319720812F3F71F1BD
:102DC000EC010E94B72B7E01FAEAEF1AFEEFFF0A30
:102DD000F70180809180A280B380681979098A09FF
:102DE0009B096436710581059105C0F0E059F10930
:102DF00080819181059719F5F8018081CB5ADE4FCA
:102E000098819130B1F460E00E94F82C18820E9401
:102E1000B72BF7016083718382839383DF91CF9116
:102E20001F910F91FF90EF90BF90AF909F908F9068
:102E3000089561E00E94F82C81E08883E8CFFE01CC
:102E4000EE5AFE4F80819CA9913049F460E00E94C7
:102E5000F82C61E0F80180810E94F82CD8CF61E065
:102E60000E94F82C60E0F6CFFC01E059FF4F608132
:102E700002960C94E61FCF93DF93EC011CAA8F59A6
:102E80009F4F0E946320CE01DF91CF910C943417A5
:102E9000CF93DF93EC0102960E94891CFE01EC594E
:102EA000FF4F9183808331978E8180833D9683E0AD
:102EB0008083CE018F599F4F0E946820811103C0EB
:102EC000CE010E943B17CA53DF4F83E090E0998305
:102ED0008883DF91CF910895CF93DF93EC01029621
:102EE0000E94A21ECE01DF91CF910C9448170F9340
:102EF0001F93CF93DF93EC01FC01E65AFE4F8081D4
:102F00008F3FA9F00E94262D8E01055A1E4FF80111
:102F1000892B91F48081813051F40E94B72BC853E2
:102F2000DF4F688379838A839B83F8011082DF9166
:102F3000CF911F910F91089580818111F8CF81E089
:102F400080830E94B72BFE01E853FF4F008111815F
:102F500022813381DC01CB01801B910BA20BB30BCF
:102F60008C019D01095E1340210931090738134185
:102F700021053105D8F4FE01EA53FF4F808191818C
:102F80002CA9213081F4059739F4CA53DF4F83E02F
:102F900090E099838883CBCFCE01DF91CF911F91B1
:102FA0000F910C94AC11059711F6EFCF8137974133
:102FB000A105B10508F4BBCF8CA981111BC08E01FE
:102FC0000A531F4FF801808191810597F1F260E06B
:102FD000E457FF4F80810E94F82C60E0CE010E94F0
:102FE000C80FF801808191810497B1F6CE010E944B
:102FF0002118F7CF1CAA8E010F591F4FC8010E943C
:103000006320CE010E943417C8010E9450209E0107
:103010002E5F3F4FFE01EC59FF4F882369F0C658E1
:10302000DF4F6881798171836083C901DF91CF911E
:103030001F910F910C94D41F1182108270E060E0F8
:10304000F4CFEF92FF920F931F93CF93DF93EC0196
:103050000E94CB16CE010E947717FE01EA53FF4F64
:10306000808191810497A9F40E94B72BFE01E85357
:10307000FF4F0081118122813381601B710B820B14
:10308000930B693E73408105910518F0CE010E94B3
:1030900047107E0183EBE81A8EEFF80A8E01035C7D
:1030A0001F4FCE010E945C16882371F0CE010E9452
:1030B00053158823B1F3D701ED91FC91309789F333
:1030C000BE01C8010995EDCF80E0DF91CF911F913E
:1030D0000F91FF90EF900895615002960C946B1C35
:1030E000AF92BF92CF92DF92EF92FF920F931F9316
:1030F000CF938C017B01C42FCB010E941C2268015D
:1031000092E0C90ED11C8823F9F0C7010E94FB216F
:10311000AC0170E060E0C6010E94551CC111C150B5
:10312000F801ED58FF4F90818917C0F44C2F682F9C
:10313000C601CF911F910F91FF90EF90DF90CF903C
:10314000BF90AF900C94AC1CC7010E94E6215C01BB
:10315000C7010E94D121A501BC01DDCF80E0CF9144
:103160001F910F91FF90EF90DF90CF90BF90AF90A5
:103170000895DF92EF92FF920F931F93CF93DF9307
:10318000EC01F42EE52E6623F9F063E18C010E5F6D
:103190001F4FC8010E946B1CD82E63E1C8010E941A
:1031A0006B1C80E98DAB1EAADFAAE8AEF9AE1AAEA1
:1031B0001BAE1CAECE01DF91CF911F910F91FF90FE
:1031C000EF90DF900C94AB10FC01EC59FF4F808125
:1031D000918128E92DAB9EAB8FABE7CFDF92EF92C9
:1031E000FF920F931F93CF93DF93EC01F42EE52E04
:1031F0006623F9F063E18C010E5F1F4FC8010E9446
:103200006B1CD82E63E1C8010E946B1C81E98DAB59
:103210001EAADFAAE8AEF9AE1AAE1BAE1CAECE01F6
:10322000DF91CF911F910F91FF90EF90DF900C9461
:10323000AB10FC01EC59FF4F8081918129E92DAB46
:103240009EAB8FABE7CF2F923F924F925F926F92E0
:103250007F928F929F92AF92BF92CF92DF92EF9226
:10326000FF920F931F93CF93DF931F92CDB7DEB7DB
:103270007C01198210E02C0184EC481A8EEF580A68
:10328000570190ECA91A9EEFB90A6701E6ECCE1A35
:10329000EEEFDE0A4701FDE18F0E911CC701855C50
:1032A0009E4F1C01370190E8690E711C012F9E0191
:1032B0002F5F3F4FA201B501C7010E949C0F8823D9
:1032C00071F08981F6018083C4010E942C23811151
:1032D0001EC0F1011082B601C3010E94070F113018
:1032E000A1F40F90DF91CF911F910F91FF90EF907C
:1032F000DF90CF90BF90AF909F908F907F906F9016
:103300005F904F903F902F90089511E0CFCF81E0D4
:10331000F1018083E0CF2F923F924F925F926F92A4
:103320007F928F929F92AF92BF92CF92DF92EF9255
:10333000FF920F931F93CF93DF93CDB7DEB7C654A1
:10334000D1090FB6F894DEBF0FBECDBF7C01362E7B
:10335000242E122F25EC32E0FC0121933193CF0172
:103360000E94791B3701FDE16F0E711CC3010E94A1
:10337000952657018DE3A80EB11CC5010E94AF2010
:103380006701E1E6CE0ED11CC6010E94F01F470185
:10339000F0E88F0E911CC4010E94940EF701E45ACC
:1033A000FE4F1082270186E7480E511CF201108261
:1033B000EA52FF4F1082CE0101960E94952687E1C6
:1033C000FE013196D30101900D928A95E1F7CE016D
:1033D00001960E94940EF4013296DE011396C70105
:1033E00082549F4F2D912193E817F907D9F7219621
:1033F0008EAD9FAD2197F40197AF86AF23968EAD2A
:103400009FAD2397F701E054FF4F9183808325966A
:103410008EAD9FAD259732969183808327968EAD92
:103420009FAD2797329691838083CE0101960E94AB
:10343000910E212F422D632DCE0101960E94631F14
:103440008B819C81F701958384838D8186838E8116
:1034500087838F81808788858187898582878A8510
:1034600083878B8584878C8585878D8586878E85E8
:103470009F85908B87878889818B8989828B8A89B0
:10348000838B8B89848B8C89858B8D89868B8E89A8
:103490009F89908F878B888D818F898D828F8A8D70
:1034A000838F8B8D848FCE0101960E945F1BCE018E
:1034B00001960E94F01F8B81F60182838C819D8191
:1034C000948383833596DE011696C70182599F4FF8
:1034D0002D912193E817F907D9F78E85F601858795
:1034E0008F858687888987878989808B8A89818B60
:1034F0008B89828B8C89838B8D89848BCE010196FD
:103500000E94ED1FF701ED58FF4F20823296308266
:1035100031971083CE0101960E94AF208B81F70175
:1035200087AF8C81E05CFF4F80838D8131968083F3
:103530008E81319680838F819885319691838083A7
:1035400089859A853296918380838B859C85329676
:10355000918380838D859E853296918380838F852C
:10356000988932969183808389899A89329691834A
:1035700080838B8932968083F5017396DE015496A1
:10358000C701885A9F4F2D912193E817F907D9F762
:103590008C8D8083F701E75AFF4F8D8D80833196A4
:1035A0008E8D808331968F8D8083319688A1808324
:1035B000319689A19AA19183808332968BA18083D1
:1035C00031968CA18083CE0101960E947020F20179
:1035D000808181608083F701E958FF4F1082E552B6
:1035E000FF4F0FEF008331960083319611E0108377
:1035F000319610820E94B72BF701EA5AFE4F608382
:10360000718382839383399711821082709611821D
:103610001082E55EF109108231961083EF51FF4F61
:10362000008331961083E15EF10985EC90E0A0E023
:10363000B0E080839183A283B383C7010E946C179B
:10364000CA5BDF4F0FB6F894DEBF0FBECDBFDF9170
:10365000CF911F910F91FF90EF90DF90CF90BF908F
:10366000AF909F908F907F906F905F904F903F9022
:103670002F900895CF93DF93EC0185EC92E099832E
:103680008883CE0180589F4F0E94910ECE018F59A2
:103690009F4F0E94ED1FCE01CD960E947020CE015B
:1036A0000296DF91CF910C945F1BCF93DF93EC01D7
:1036B0000E943A1BCE01DF91CF910C94692B2DEC27
:1036C00032E0FC013183208382819381009711F0E5
:1036D0000C946B2B0895CF93DF93EC010E945F1B3A
:1036E000CE01DF91CF910C94692B0C94AC2E0C94ED
:1036F000B42E2DEC32E0FC01318320830895FC01CF
:1037000090E080E023852817190641F03CF0A28163
:10371000B381A80FB91F1C920196F4CF81E6848370
:10372000158285EC86831782148A0895EF92FF92A2
:103730000F931F93CF93DF93EC01188A198A1A8A8B
:103740001B8A1A8E7C0180E1E80EF11C8A8586179F
:1037500018F08F81861750F481E08A8FC701DF91BE
:10376000CF911F910F91FF90EF9008958B8590E07E
:103770000496689F8001699F100D11248D859E8598
:10378000080F191FC8010E94751B888BC80101967C
:103790000E94751B898BC80102960E94751B8A8B3B
:1037A000C80103960E94751B8B8BD8CFFC01108A31
:1037B000118A128A138A128E40962285261718F0D3
:1037C0002781261718F421E0228F089570E0DB018D
:1037D000AA0FBB1FA45EBA4F2C91208BDB01AA0F4E
:1037E000BB1FA25CBA4F2C91218BDB01AA0FBB1F20
:1037F000A05ABA4F2C91228B660F771FDB01AE5770
:10380000BA4F2C91238B0895AF92BF92CF92DF9243
:10381000EF92FF920F931F93CF93DF93DC011796E4
:103820009C911797ECE1F5E080E0A62EB12CE42EF8
:10383000F12C30E010E0981751F1611102C04423DF
:1038400009F1C080D180AC14BD04C9F4C2A0D3A0DA
:10385000EC14FD04A1F46F0154E4C50ED11CE60183
:10386000C880D9802C153D0551F46F01D6E6CD0EE8
:10387000D11CE601C880D9800C151D0559F08F5F59
:103880003296D9CF6F01D4E4CD0ED11CE8CF1A9671
:103890008C918F5FDF91CF911F910F91FF90EF90EF
:1038A000DF90CF90BF90AF9008950F93252F042FF6
:1038B000462F672F0E94041C0F910895FC01128E61
:1038C0008185681728F4862F90E049960C94751B23
:1038D0008FEF828F0895FC01128E8185681718F092
:1038E0008FEF828F0895E62FF0E0EE0FFF1FEE506E
:1038F000FB4F80810895FC018185861748F0E62FF3
:10390000F0E0EE0FFF1FEE50FB4F50E0518340837D
:103910000895CF93DF93EC016E818D810E94542B2B
:103920009E8B8D8BDF91CF910895DC011B962C919E
:103930001B9730E02C5F3F4F629FF001639FF00DBB
:1039400011241D968D919C918E0F9F1F50E04C5F0E
:103950005F4F840F951F0895FC01128E87816817B1
:1039600040F48385481728F4CF010E94951C0C94DD
:10397000751B8FEF828F0895CF92DF92EF92FF92A7
:103980001F93CF93DF937C016B01142FCB010E9417
:10399000751B811721F0612FC6010E94771BF7016B
:1039A000838590E004962285289FE001299FD00D11
:1039B000112485859685C80FD91FC535F1E0DF072D
:1039C00064F5CC0DDD1DCE010E94751B811721F021
:1039D000612FCE010E94771BF701238530E02C5F19
:1039E0003F4F4285429FC001439F900D1124258582
:1039F0003685820F931FC80FD91FCE010E94751BF9
:103A0000811759F0612FCE01DF91CF911F91FF9067
:103A1000EF90DF90CF900C94771BDF91CF911F91A7
:103A2000FF90EF90DF90CF900895BF92CF92DF92FA
:103A3000EF92FF920F931F93CF93DF937C01EB01E3
:103A4000B42EFC018285481770F0BB24B394B80EE5
:103A50008B2DDF91CF911F910F91FF90EF90DF9011
:103A6000CF90BF900895242F30E0D901AA0FBB1F3B
:103A7000A45EBA4F888190E08D939C93D901AA0FE0
:103A8000BB1FA25CBA4F898190E08D939C93D901B2
:103A9000AA0FBB1FA05ABA4F8A8190E08D939C93C6
:103AA000D901AA0FBB1FAE57BA4F8B8190E08D93FF
:103AB0009C93838590E00496829F8001839F100DE4
:103AC000929F100D112485859685080F191F6B0193
:103AD000F4E0CF0ED11C061B170BB8016C0F7D1F35
:103AE0004991C7010E94BC1CCC15DD05B1F7B0CFD0
:103AF000CF93DF93EC0147E570E060E00E94BC1CCF
:103B00004C8162E170E0CE010E94BC1C4D8163E1FA
:103B100070E0CE010E94BC1C4E8164E170E0CE01D9
:103B20000E94BC1C4C8965E170E0CE010E94BC1C67
:103B30004F8167E170E0CE010E94BC1C4B8568E1BB
:103B400070E0CE01DF91CF910C94BC1CCF93DF933A
:103B5000EC0140E067E170E00E94BC1C1F82DF9135
:103B6000CF910895EF92FF921F93CF93DF93FC01C3
:103B70002185261718F1142F7C01C62FD0E0FE01F5
:103B8000EE0FFF1FEE50FB4F842F90E09183808358
:103B90006996CE010E94751B181781F062EF70E0E4
:103BA00085EA95E00E94402A412FBE01C701DF91BE
:103BB000CF911F91FF90EF900C94BC1CDF91CF919F
:103BC0001F91FF90EF9008950F931F93CF93DF9372
:103BD0008C01C42FD22FFC0187818617170609F0AC
:103BE00038F4CF5F8C2FDF91CF911F910F91089503
:103BF00083854817B0F7C8010E94951C4D2FBC0162
:103C0000C8010E94BC1CEECFEF92FF920F931F934E
:103C1000CF93DF9300D000D0CDB7DEB78C010E94E8
:103C20007F1BF8018285878319821A828AE38B833E
:103C30008CEF8C83F12CE12CF8014285242F21504C
:103C4000330BE216F306CCF44E2DBE016F5F7F4FAF
:103C5000C8010E94151D8C818F5F8C83811103C068
:103C60008B818F5F8B8320E040E0B701C8010E9409
:103C7000E41D3FEFE31AF30ADFCF19821A8282E1D3
:103C80008B8387E68C834150BE016F5F7F4FC801F5
:103C90000E94151DF80162856150770B20E040E01D
:103CA000C8010E94E41D46E060E0C8010E94B21D08
:103CB000FF24F39442E06F2DC8010E94B21DF394DB
:103CC000F9E0FF12F7CF89E0F82E41E06F2DC8012F
:103CD0000E94B21DF39421E1F212F7CF40E061E1BE
:103CE000C8010E94B21D40E062E1C8010E94B21DFD
:103CF00041E663E1C8010E94B21D42E064E1C801EF
:103D00000E94B21DC8010E94781D60E08DEF93E013
:103D10000E94771B60E08EEF93E00E94771B60E0CB
:103D20008FEF93E00E94771BC8010E94A21E0F90A4
:103D30000F900F900F90DF91CF911F910F91FF90F7
:103D4000EF9008955F926F927F928F929F92AF92C1
:103D5000BF92CF92DF92EF92FF920F931F93CF9378
:103D6000DF93EC010E947F1B8B8590E004962A85EF
:103D7000289F7001299FF00C11248D859E85E80EE7
:103D8000F91E85E5E81681E0F8060CF06AC08FEFB1
:103D900093E00E94751B782E8EEF93E00E94751BB6
:103DA000182F8DEF93E00E94751B7116A9F1781200
:103DB00006C0672D8FEF93E00E94771B08C0181391
:103DC00006C0612F8EEF93E00E94771B712E570182
:103DD000AA0CBB1C10E000E00E151F056CF5C80115
:103DE0000E94751B682E4701800E911EC4010E941F
:103DF000751B582E6501C00ED11EC6010E94751B91
:103E0000651491F068120BC0662DC4010E94771BE7
:103E100073940F5F1F4FE0CF7816C9F2CACF5812C4
:103E2000F8CF652DC801F2CF681699F37394662D0B
:103E3000C6010E94771BEDCF8FEF93E00E94751BA8
:103E4000871579F0672D8DEF93E00E94771B672D22
:103E50008EEF93E00E94771B672D8FEF93E00E9417
:103E6000771B90E080E00E94751B873519F0CE012A
:103E70000E94041E82E190E00E94751B8C8383E106
:103E800090E00E94751B8D8384E190E00E94751B79
:103E90008E8385E190E00E94751B8C8B87E190E01A
:103EA0000E94751B8F83DF91CF911F910F91FF901F
:103EB000EF90DF90CF90BF90AF909F908F907F90CA
:103EC0006F905F900895CF92DF92EF92FF920F93E1
:103ED0001F93CF93DF93EC018DEC92E0998388835D
:103EE00069874A872B870C87675E6F8710E0000F12
:103EF000111F600F712F711D7E876D87822F90E0DB
:103F00000E94672B9B838A83CE010E947F1BCE0178
:103F10000E94A21E42EFE42E44E0F42E10E0612F36
:103F2000CE010E945E1C90E0D7018D939D937D0190
:103F30001F5F1531A1F78CE1C82E85E0D82E90E6E1
:103F4000E92E95E0F92E10E0612FCE010E94961B1C
:103F5000FC01808190E0D6018D939D936D0181815C
:103F600090E091969C938E939097828190E0D701F8
:103F70008D939D937D01838190E091969C938E9388
:103F800090971F5F113101F7DF91CF911F910F9132
:103F9000FF90EF90DF90CF900895462FFC0164834F
:103FA00062E170E00C94BC1CCF93DF93EC01472FCF
:103FB0007D836E8363E170E00E94BC1C4E8164E1EE
:103FC00070E0CE01DF91CF910C94BC1C462FFC0118
:103FD000648B65E170E00C94BC1C08950C94692B13
:103FE000FC0185ED92E09183808380E38583868365
:103FF0008783808781878287838784870895FC01F0
:104000004830510514F048E050E0158216821782BE
:10401000108611861286138614863596DB01CD0133
:10402000861B970B841795071CF48D918193F7CF0E
:10403000089505960895DC016150683030F5E62F4B
:10404000F0E0EB5DFF4D0C94722D2D2030203320DD
:10405000362039203C203F2042201D968C91089527
:1040600050968C9108951E968C91089552968C913D
:10407000089553968C91089554968C910895519675
:104080008C9108951F968C91089580E00895FC010D
:104090009785662319F09260978708959D7FFCCFDE
:1040A000FC018785869581700895FC0197856623BC
:1040B00019F09160978708959E7FFCCFFC0187855A
:1040C000809581700895FC0197859B7F978708955F
:1040D000FC01878582FB882780F991E08927089574
:1040E00008950C94692BFC0185810895FC012389B6
:1040F00030E085E0359527958A95E1F72483822F76
:104100000895FC01838D20E1829FC0011124948DCC
:10411000929596959770892B82830895FC018381EF
:104120000895FC017B96CB010496DB012D91BD0126
:104130002193A817B907C9F70895FC01138A148AB7
:10414000158A168A178A108E118E128E138E148E6F
:10415000158E168E178E11A210A212A208952DEDA3
:1041600032E0FC01318320830C949D20FC016830F7
:1041700038F48381882329F0E60FF11D838908959F
:1041800080E00895FC012381233711F48689089586
:1041900080E00895FC0193819659923010F487894C
:1041A000089580E00895FC019381913719F09659A4
:1041B000923010F48689089580E008950C94CA2006
:1041C000FC019381923721F09C3911F0953B11F459
:1041D00086890895953F11F4808D0895923F11F4DA
:1041E000828D089580E00895FC0193819C3911F03F
:1041F000953B11F487890895923B11F0923D11F49B
:10420000808D0895953F11F4818D089580E0089583
:10421000FC018381853B11F4808D08959EE2980F07
:10422000923010F4818D0895853F11F4828D0895A8
:1042300080E008954230510509F455C048F4411515
:104240005105D1F04130510509F461C080E0089575
:104250004430510509F497C008F476C04530510543
:10426000A9F7603839F08EE7860F843018F0623A8B
:1042700009F091C081E036C06234E1F380EB860F33
:104280008B30C0F384EA860F8230A0F381E9860F79
:10429000873080F380E7860F8F3060F380E5860FEC
:1042A000873040F388E4860F823020F3862F8F7B9F
:1042B0008D5B8230F8F280E3860F8630D8F288E298
:1042C000860F8230B8F283E2860F823098F2633E26
:1042D00089F280E1860F823068F2635F81E06730A7
:1042E00008F0B4CF0895862F8F7B8059863010F266
:1042F00080E5860F853008F4BDCF80E1860F8230DF
:1043000008F4B8CF635F81E0633060F39FCF6B3513
:1043100009F4B0CF88E6860F833008F4ABCF862F40
:104320008F798D59823008F4A5CF88E4860F8230CA
:1043300008F4A0CF88E2860F823008F49BCF685F34
:1043400081E0643078F282CF8FED860F833008F4FD
:1043500091CF8CEB860F873008F48CCF6C3409F446
:1043600089CF603609F486CF603809F483CF8EE7B1
:10437000860F843008F47ECF81E0623A89F0613E96
:1043800009F064CFAFCF603409F474CF862F8F77F4
:10439000813609F46FCF81E0613C09F057CFA2CF9D
:1043A0000895CF93DF93EC0150E040E06B890E94C9
:1043B0001A21882341F08C899D899827892798277D
:1043C000DF91CF91089590E080E0FACFCF93DF9313
:1043D000EC0142E050E06B810E941A21882341F0F9
:1043E0008E899F89982789279827DF91CF910895F3
:1043F00090E080E0FACF1F93CF93DF93EC011B8115
:1044000041E050E0612F0E941A21882391F086E05C
:10441000810F823010F01B3549F48C899D899827D3
:1044200089279827DF91CF911F9108958E899F89C1
:10443000F6CF90E080E0F6CFFC0193819F79985908
:1044400081E0923008F080E00895FC0193819F792B
:10445000905981E0923008F080E00895643008F4CB
:10446000B7C0673009F4B4C0962F9F7B9F3309F41F
:10447000AFC082EA860F823008F4AAC0862F8F7DF3
:104480008F3909F4A5C0663B09F4A2C06F3D09F459
:104490009FC02CEF260F233008F49DC028EF260F75
:1044A000233008F498C02FED260F233008F493C072
:1044B000603409F490C02CEB260F273008F48BC031
:1044C0006C3409F488C0262F2F7730EA320F32304F
:1044D00008F481C0233609F47EC0803809F47BC01B
:1044E0002EE7260F243008F476C0623A09F473C030
:1044F00020E4260F223008F46EC026EA260F223070
:1045000008F46CC020E7260F253008F467C028E6C1
:10451000260F233008F462C08D59823008F45EC043
:10452000862F877F805B823008F458C08DE4890F26
:10453000823008F453C081E3860F833008F44EC004
:104540008CE2860F823008F449C088E2860F823000
:1045500008F444C083E2860F823008F43FC080E153
:10456000860F8230D8F18AE0860F8630B8F183E07A
:10457000860F833098F184EF860F823030F180EF20
:10458000860F823010F1623401F180EB860F8A30A1
:10459000E0F084EA860F8230C0F081E9860F873030
:1045A000A0F08BE6860F833080F085E6860F8230A0
:1045B00060F0923B51F0953B41F08EE2860F8230E5
:1045C00020F0623E11F06F3E61F482E090E00895C9
:1045D00084E090E0089581E090E0089583E090E029
:1045E000089590E080E00895CF93DF93EC01FC0103
:1045F0007396CB010896DB012D91BD012193A8177D
:10460000B907C9F76B896B83CE010E942E229F8365
:104610008E83DF91CF9108958EBD00000DB407FE0B
:10462000FDCF8EB50895DC015196FB01CB010496B8
:104630002D912193E817F907D9F70895FC0163300C
:1046400028F4658B443028F4468B089582E0858BEE
:10465000F9CF82E0868B0895FC0186850895CF937B
:10466000DF93EC0160E088890E94F82C80EC0E94C6
:104670000C2361E088890E94F82C6AE070E080E0F9
:1046800090E0DF91CF910C94E82B1F93CF93DF93B1
:10469000EC01162F60E088890E94F82C83E00E94CC
:1046A0000C23812F0E940C2380E00E940C23182FE2
:1046B00061E088890E94F82C812FDF91CF911F91B2
:1046C0000895DF92EF92FF920F931F93CF93DF93A2
:1046D0007C01162FD42EC52FD22F60E0FC018089DB
:1046E0000E94F82C83E00E940C23812F0E940C234F
:1046F0000D2D1C2FC0E0CD1751F0C83041F080E0E7
:104700000E940C23F80181938F01CF5FF4CF61E009
:10471000F7018089DF91CF911F910F91FF90EF906A
:10472000DF900C94F82C0F931F93CF93DF93EC0141
:10473000062F142F60E088890E94F82C82E00E94E6
:104740000C23802F0E940C23812F0E940C2361E0F8
:104750008889DF91CF911F910F910C94F82CDF92F3
:10476000EF92FF920F931F93CF93DF937C01C62F9D
:10477000D42E152F022F60E0FC0180890E94F82CB6
:1047800082E00E940C238C2F0E940C23CD2DD12F70
:104790000C0F1D2F111DC017D10721F089910E9408
:1047A0000C23F9CF61E0F7018089DF91CF911F9150
:1047B0000F91FF90EF90DF900C94F82CFF920F93E5
:1047C0001F93CF93DF93EC01F62E042F122F60E09E
:1047D00088890E94F82C85E00E940C238F2D0E946E
:1047E0000C23802F0E940C23812F0E940C2361E058
:1047F0008889DF91CF911F910F91FF900C94F82C35
:104800001F93CF93DF93EC0160E088890E94F82C1E
:1048100080EA0E940C2380E00E940C23182F61E0A4
:1048200088890E94F82C812FDF91CF911F910895E4
:104830000F931F93CF938C01C62F262F40EE6FE06E
:104840000E94DE236FE0C8010E944523982F907ECE
:1048500081E09C1301C080E0CF911F910F910895DA
:104860000F931F93CF93DF93413029F0423009F427
:1048700057C081E049C061506231D8F7E62FF0E0BF
:10488000EC5BFB4D0C94722DCD24D5245624392499
:104890005A2439245D246124642439243924682469
:1048A0006B246E247224892439248D24C7E8DFEF19
:1048B0004FE01BC0C5E8D1EFFBCFC7E8DFEF47E013
:1048C00014C0C7E8DAEFFBCFC7E8DFEF43E00DC065
:1048D000C7E8DAEFFBCFC6E8D0EFF8CFC7E8DAEFEA
:1048E00041E003C0C5E8D1EF41E48C016AE20E94D7
:1048F00093234D2F69E2C8010E9493234C2F68E255
:10490000C8010E94932380E0DF91CF911F910F9106
:104910000895C6E8D0EF40E0E8CFC2E8D0EDFBCF85
:104920006150623108F0A5CFE62FF0E0E656FB4D6E
:104930000C94722DD124D824AC243924AF243924EA
:10494000B224B524B82439243924BB24BE24C1247C
:10495000C424C7243924CA24C7E0DFEBB0CFC4E0A5
:10496000D4EAADCFC7E0DFEBB1CFC6E0D4EBAECF3A
:10497000C7E0DFEBB5CFC6E0D4EBB2CFC5E0D1EBFB
:10498000AFCFC6E0D4EBC7CFC5E0D1EBC4CFC2E018
:10499000D0E9C1CFC0E0D0E8BECFC7E8DFEF4FE33A
:1049A000A4CFC7E0DFEB4FE1A0CFC7E8DFEFFBCF3D
:1049B000C7E0DFEB7DCF0F931F93CF938C01C0E354
:1049C00040E06C2FC8010E94932360E16C0F40E02F
:1049D000C8010E94932360E26C0F40E0C8010E946E
:1049E0009323CF5FCE3361F740E060E6C8010E94B9
:1049F000932340E060E7C801CF911F910F910C9481
:104A00009323FF920F931F93CF93DF93EC01062F15
:104A1000F42E0E942F2360E8CE010E941824182F44
:104A20006AE070E080E090E0112349F00E94E82BFA
:104A3000812FDF91CF911F910F91FF9008950E94D8
:104A4000E82B4F2D602FCE010E943024882329F0BF
:104A50006AE070E080E090E0E9CF6AE070E080E03A
:104A600090E00E94E82BCE010E94DB2443E06BE241
:104A7000CE010E94932324E044E660E6CE010E942A
:104A8000DE2320E040E660E7CE010E94DE2360E006
:104A9000CE010E941824C82F8823D1F26AE070E06A
:104AA00080E090E00E94E82B1C2FC2CF0F931F9351
:104AB000CF93DF9300D000D0CDB7DEB7413021F5E2
:104AC0000C831B83890122273327402F440F440F77
:104AD000440F407E502F53705860452B4A8355E059
:104AE000169507955A95E1F7098324E0AE014F5FCB
:104AF0005F4F0E94AF230F900F900F900F90DF91A8
:104B0000CF911F910F910895A80123E056954795E5
:104B10002A95E1F749830295000F007E0A831C82E3
:104B20001B82E3CFEF92FF920F931F93CF93DF93FC
:104B300000D000D0CDB7DEB77A018901FA0110822A
:104B4000F901108211821282138224E0AE014F5FBC
:104B50005F4F0E9461232A818981F8E08F9FC00105
:104B60001124422F50E065E0559547956A95E1F78D
:104B7000840F951F092E000CAA0BBB0BF801808334
:104B80009183A283B38323FF25C032E0880F991F4E
:104B9000AA1FBB1F3A95D1F72370820F911DA11D4B
:104BA000B11DBA2FA92F982F88272B81820F911D15
:104BB000A11DB11DBA2FA92F982F88272C81820FF4
:104BC000911DA11DB11D80839183A283B38381E0D8
:104BD000F70180830F900F900F900F90DF91CF918E
:104BE0001F910F91FF90EF900895FF920F931F93E5
:104BF000CF93DF93EC01F62EAC014A5F5F4F65E087
:104C00006F0D2D810E94AF238E85813019F48D8127
:104C100080648D8364E06F0D4D81CE010E949323EB
:104C200009811A812B813C8148816F2DCE010E9420
:104C30005625DF91CF911F910F91FF9008950F930B
:104C40001F93CF93DF93EC01162F9C012F5F3F4FF3
:104C5000AC010E9492256FEF610FCE010E944523A7
:104C6000082F64E0610FCE010E9445238D8303FF6E
:104C700011C091E09E87282F2F702D83AE014A5FCF
:104C80005F4F65E0610FCE01DF91CF911F910F91D2
:104C90000C9461231E86EFCF615028E048E00C940D
:104CA000DE238F929F92AF92BF92CF92DF92EF92CC
:104CB000FF921F93CF93DF9300D01F92CDB7DEB743
:104CC0004C016B018091170190911801A09119017D
:104CD00089839A83AB83FB011082CE0101967C010C
:104CE0005E0194E0A90EB11CF70111917F01612FC3
:104CF000C4010E94452383FD13C01F5FF60110838A
:104D000080E00F900F900F90DF91CF911F91FF9057
:104D1000EF90DF90CF90BF90AF909F908F900895CD
:104D2000EA14FB0409F782E0ECCF0895CF93DF93F8
:104D3000EC01862F688B61E00E94BC2C61E08889C1
:104D4000DF91CF910C94F82C0F931F93CF93DF93A7
:104D5000EC01162F042F0E94D527402F612FCE0182
:104D60000E94012591E0811101C090E0892FDF911F
:104D7000CF911F910F910895EF92FF920F931F9380
:104D8000FC0120834183528363837483093008F0DC
:104D900008E0058316863696D70110E0CD018E19FE
:104DA0009F09801791071CF48D918193F7CF80E0C4
:104DB0001F910F91FF90EF900895FC0111821282D4
:104DC00013821482158210821686178680E0089559
:104DD000CF92DF92EF92FF921F93CF93DF931F92B8
:104DE000CDB7DEB77C01D12CC12CBE016F5F7F4FE8
:104DF000C7010E9451269FEFC91AD90A823031F4A7
:104E000082E3C816D10489F716E027C092E3C916D9
:104E1000D104D1F36981C7010E94F5256981C701D9
:104E20000E944C26D12CC12C8FEFC81AD80A698158
:104E30006150C7010E944523182F187083FF06C0D8
:104E400092E3C916D10481F717E007C082E3C816C0
:104E5000D104D1F3C7010E94DD26812F0F90DF918D
:104E6000CF911F91FF90EF90DF90CF900895EF9238
:104E7000FF920F93CF93DF93EC010E94BC26CE01EB
:104E8000DF91CF910F91FF90EF900C94E826CF9295
:104E9000DF92EF92FF920F93CF93DF93CDB7DEB700
:104EA00028970FB6F894DEBF0FBECDBF6C011982F4
:104EB0001A821B821C821D821E821F82188681E03C
:104EC000F6018687CE0101967C0100E020E0C60154
:104ED0000E943727F601168628960FB6F894DEBF93
:104EE0000FBECDBFDF91CF910F91FF90EF90DF907C
:104EF000CF9008950F931F93CF938C01C62F0E94DC
:104F00000024C11111C080FF1DC061E6C8010E94CC
:104F10001F2620E041E06CE2C8010E94DE238C2FB6
:104F2000CF911F910F91089581FF0CC061E7C801D7
:104F30000E941F2620E042E06CE2C8010E94DE23AE
:104F4000C0E0EDCFC4E0EBCFEF92FF920F931F9341
:104F5000CF93DF93EC018B017A01622F0E947A27B5
:104F6000811111C09D81F8019083DE011696F70131
:104F70009D819F012E193F099217130639F034F0D5
:104F80009D919193F5CFF801108284E0DF91CF914C
:104F90001F910F91FF90EF9008950E94002483705D
:104FA00011F484E0089583E00895CF93CFB7F89487
:104FB0008091A405811127C0E6E4F1E08491EBE241
:104FC000F1E09491E82FF0E0EE0FFF1FE159FE4F62
:104FD000A591B491EC91E92321F461E08AE00E946B
:104FE000F82C61E08AE00E94BC2C8CB580618CBDFD
:104FF0008CB580648CBD61E08DE00E94BC2C61E0CA
:105000008BE00E94BC2C8091A4058F5F8093A40547
:10501000CFBFCF910895FC01918D228D892F90E013
:10502000805C9F4F821B91098F7399270895FC0123
:10503000918D828D981731F0828DE80FF11D858D4D
:1050400090E008958FEF9FEF0895FC01918D828D80
:10505000981761F0A28DAE0FBF2FB11D5D968C9198
:10506000928D9F5F9F73928F90E008958FEF9FEFD7
:10507000089586E999E2892B49F080E090E0892B38
:1050800029F00E94962981110E94000080E090E0A2
:10509000892B49F080E090E0892B29F00E940000E4
:1050A00081110C9400000895FC01A48DA80FB92F64
:1050B000B11DA35ABF4F2C91848D90E001968F7340
:1050C0009927848FA689B7892C93A089B1898C915F
:1050D00080648C93938D848D981306C00288F38925
:1050E000E02D80818F7D80830895CF93DF93EC0145
:1050F000888D8823B9F0AA89BB89E889F9898C91C0
:1051000085FD03C0808186FD0DC00FB607FCF7CF7B
:105110008C9185FFF2CF808185FFEDCFCE010E947B
:105120005428E9CFDF91CF910895EF92FF920F932A
:105130001F93CF93DF93EC0181E0888F9B8D8C8D43
:10514000981316C0E889F989808185FF11C0EE891E
:10515000FF896083E889F98980818064808381E0A8
:1051600090E0DF91CF911F910F91FF90EF90089504
:10517000F62E0B8D10E00F5F1F4F0F731127E02EDF
:105180008C8D8E110CC00FB607FCFACFE889F98917
:10519000808185FFF5CFCE010E945428F1CFEB8DA1
:1051A000EC0FFD2FF11DE35AFF4FF0820B8FEA89C0
:1051B000FB8980818062D2CFCF92DF92EF92FF9203
:1051C0001F93CF93DF93EC016A017B01122FE889D3
:1051D000F98982E08083C11481EED806E104F104EC
:1051E000A1F060E079E08DE390E0A70196010E94D4
:1051F000502D215031094109510956954795379550
:105200002795211580E1380798F0E889F9891082FF
:1052100060E874E88EE190E0A70196010E94502DAD
:1052200021503109410951095695479537952795E0
:10523000EC85FD853083EE85FF852083188EEC8913
:10524000FD891083EA89FB89808180618083EA89F6
:10525000FB89808188608083EA89FB8980818068FE
:105260008083EA89FB8980818F7D8083DF91CF9164
:105270001F91FF90EF90DF90CF9008951F920F92B3
:105280000FB60F9211242F938F939F93EF93FF9359
:10529000E091B505F091B6058081E091BB05F091F4
:1052A000BC0582FD1BC090818091BE058F5F8F730E
:1052B0002091BF05821741F0E091BE05F0E0EB556B
:1052C000FA4F958F8093BE05FF91EF919F918F913B
:1052D0002F910F900FBE0F901F9018958081F4CFE3
:1052E0001F920F920FB60F9211242F933F934F935B
:1052F0005F936F937F938F939F93AF93BF93EF933E
:10530000FF9385EA95E00E945428FF91EF91BF91A9
:10531000AF919F918F917F916F915F914F913F914D
:105320002F910F900FBE0F901F90189585EA95E072
:105330000E940B2821E0892B09F420E0822F089598
:10534000E5EAF5E01382128288EE93E0A0E0B0E097
:1053500084839583A683B78385EE92E091838083CF
:1053600085EC90E09587848784EC90E0978786872A
:1053700080EC90E0918B808B81EC90E0938B828B22
:1053800082EC90E0958B848B86EC90E0978B868BFB
:10539000118E128E138E148E0895AF92BF92CF92FB
:1053A000DF92EF92FF920F931F93CF93DF936C01E5
:1053B0007B018B01040F151FEB015E01AE18BF08C6
:1053C000C017D10759F06991D601ED91FC91019078
:1053D000F081E02DC6010995892B79F7C501DF9190
:1053E000CF911F910F91FF90EF90DF90CF90BF90E2
:1053F000AF900895FB0101900020E9F73197AF01CC
:10540000461B570BDC01ED91FC910280F381E02DEE
:105410000994EF92FF920F931F93CF93DF938C0128
:105420007B01D0E0C0E0F701EC0FFD1F6491662323
:1054300061F0D801ED91FC910190F081E02DC8015F
:105440000995892B11F02196EECFCE01DF91CF91F6
:105450001F910F91FF90EF9008956115710511F064
:105460000C94FA2990E080E00895DC01ED91FC9124
:105470000190F081E02D099461EF72E00C94FA291B
:105480000F931F93CF93DF93EC010E94092A8C01A5
:10549000CE010E943C2A800F911FDF91CF911F9176
:1054A0000F9108950F931F93CF93DF938C01D0E05A
:1054B000C0E06115710519F00E94FA29EC01C801DC
:1054C0000E943C2A8C0F9D1FDF91CF911F910F915D
:1054D00008958F929F92AF92BF92EF92FF920F9397
:1054E0001F93CF93DF93CDB7DEB7A1970FB6F89494
:1054F000DEBF0FBECDBF7C01FA01CB0119A2223065
:1055000008F42AE08E010F5D1F4F822E912CB12CE2
:10551000A12CBF01A50194010E94502DF901CA01DF
:105520006A300CF5605DD8016E938D01232B242B1E
:10553000252B79F790E080E0109721F0BD01C7019D
:105540000E94FA29A1960FB6F894DEBF0FBECDBF18
:10555000DF91CF911F910F91FF90EF90BF90AF908F
:105560009F908F900895695CDECFCF92DF92EF928B
:10557000FF920F931F93CF93DF932115310581F491
:10558000DC01ED91FC910190F081E02D642FDF9121
:10559000CF911F910F91FF90EF90DF90CF900994E2
:1055A0002A30310501F52AE077FF1DC06A017B0131
:1055B000EC016DE20E94352A8C0144275527BA017F
:1055C0004C195D096E097F092AE0CE010E94692A03
:1055D000800F911FDF91CF911F910F91FF90EF905E
:1055E000DF90CF900895DF91CF911F910F91FF90A1
:1055F000EF90DF90CF900C94692A9A01AB01770F5E
:10560000660B770B0C94B52A0F931F93CF93DF9300
:10561000EC010E94FD2A8C01CE010E943C2A800FE1
:10562000911FDF91CF911F910F91089521153105A1
:1056300041F4DC01ED91FC910190F081E02D642FAB
:1056400009940C94692A9A01462F50E070E060E0BA
:105650000C94162B0F931F93CF93DF93EC010E94B2
:10566000232B8C01CE010E943C2A800F911FDF91D9
:10567000CF911F910F9108959A01AB0170E060E006
:105680000C94162B0F931F93CF93DF93EC010E9482
:105690003C2B8C01CE010E943C2A800F911FDF9190
:1056A000CF911F910F910895982F862F08950895F7
:1056B0000E94212C0E94572B0E94330BC9E3D8E291
:1056C0000E94A1062097E1F30E943928F9CF0C949B
:1056D000872D0C94232E0C94232E1F920F920FB61D
:1056E0000F9211242F933F938F939F93AF93BF9368
:1056F0008091430690914406A0914506B0914606DC
:105700003091420623E0230F2D3758F50196A11D55
:10571000B11D209342068093430690934406A093C4
:105720004506B09346068091470690914806A091A1
:105730004906B0914A060196A11DB11D8093470606
:1057400090934806A0934906B0934A06BF91AF9143
:105750009F918F913F912F910F900FBE0F901F90AF
:10576000189526E8230F0296A11DB11DD2CF2FB7A1
:10577000F89460914306709144068091450690919B
:1057800046062FBF08953FB7F89480914706909141
:105790004806A0914906B0914A0626B5A89B05C0C7
:1057A0002F3F19F00196A11DB11D3FBFBA2FA92FA0
:1057B000982F8827BC01CD01620F711D811D911D9D
:1057C00042E0660F771F881F991F4A95D1F7089509
:1057D0008F929F92AF92BF92CF92DF92EF92FF9201
:1057E0006B017C010E94C32B4B015C01C114D104ED
:1057F000E104F104E9F00E944F2D0E94C32B6819C7
:1058000079098A099B09683E73408105910570F307
:1058100021E0C21AD108E108F10888EE880E83E081
:10582000981EA11CB11CC114D104E104F10429F794
:10583000FF90EF90DF90CF90BF90AF909F908F90B0
:105840000895789484B5826084BD84B5816084BDF8
:1058500085B5826085BD85B5816085BDEEE6F0E0E9
:10586000808181608083E1E8F0E010828081826045
:105870008083808181608083E0E8F0E080818160C6
:105880008083E1EBF0E0808184608083E0EBF0E0F6
:10589000808181608083E1E9F0E0808182608083A3
:1058A000808181608083E0E9F0E080818160808395
:1058B000E1EAF0E080818260808380818160808382
:1058C000E0EAF0E0808181608083EAE7F0E08081B7
:1058D0008460808380818260808380818160808316
:1058E0008081806880831092C100089582508D303D
:1058F00008F03DC0E82FF0E0E058F34D0C94722D15
:10590000972C9B2C8D2C932CB72CB72C9E2CA42C35
:10591000A82CAE2CB72CB22CB82C809180008F779D
:10592000809380000895809180008F7DF9CF84B5A9
:105930008F7784BD089584B58F7DFBCF8091B000B3
:105940008F778093B00008958091B0008F7DF9CF5C
:10595000809190008F7780939000089580919000BF
:105960008F7DF9CF8091A0008F778093A00008955C
:105970008091A0008F7DF9CFCF93DF9390E0FC0161
:10598000EF5DFE4F2491845C9E4FFC01849188233F
:10599000C9F090E0880F991FFC01E159FE4FA591D5
:1059A000B491FC01ED59FE4FC591D49161110DC028
:1059B0009FB7F8948C91209582238C93888128231B
:1059C00028839FBFDF91CF910895623051F49FB734
:1059D000F8943C91822F809583238C93E8812E2B21
:1059E000EFCF8FB7F894EC912E2B2C938FBFEACF8B
:1059F0001F93CF93DF93282F30E0F901EA5FFE4F2A
:105A00008491F901EF5DFE4FD491F901E45CFE4F02
:105A1000C491CC23A9F0162F81110E94762CEC2F73
:105A2000F0E0EE0FFF1FED59FE4FA591B4918FB737
:105A3000F894EC91111108C0D095DE23DC938FBF50
:105A4000DF91CF911F910895DE2BF8CFCF93DF9395
:105A5000282F30E0F901EA5FFE4F8491F901EF5DF4
:105A6000FE4FD491F901E45CFE4FC491CC23A1F028
:105A700081110E94762CEC2FF0E0EE0FFF1FE95A07
:105A8000FE4FA591B491EC91ED2381E090E009F4F3
:105A900080E0DF91CF91089580E090E0FACF089503
:105AA000A1E21A2EAA1BBB1BFD010DC0AA1FBB1F22
:105AB000EE1FFF1FA217B307E407F50720F0A21B94
:105AC000B30BE40BF50B661F771F881F991F1A9401
:105AD00069F760957095809590959B01AC01BD012B
