:100000000C9494000C94BC000C94BC000C94BC00A8
:100010000C94BC000C94BC000C94BC000C94BC0070
:100020000C94BC000C94BC000C94BC000C94BC0060
:100030000C94BC000C94BC000C94BC000C94BC0050
:100040000C94A4160C94BC000C94170A0C94F1099F
:100050000C94BC000C94BC000C94BC000C94BC0030
:100060000C94BC000C94BC0069066C066F0672060A
:10007000750678067B067E064641494C4544207449
:100080006F2073656E642043414E00000000002322
:1000900000260029000000000800020100000304FF
:1000A00007000000000000000053746172740053E8
:1000B000686F72743A204576656E74002020204582
:1000C00076656E7420004C6F6E673A204E6F6465E3
:1000D0004E6F200077726974652076617220746FAC
:1000E00020656570726F6D0000000000250028001B
:1000F0002B0000000000240027002A000404040450
:1001000004040404020202020202030303030303C1
:10011000010204081020408001020408102001029E
:1001200004081020411C3D1C11241FBECFEFD8E055
:10013000DEBFCDBF12E0A0E0B1E0EEE9F0E402C026
:1001400005900D92AA30B107D9F725E0AAE0B2E0F8
:1001500001C01D92A739B207E1F710E0C3E9D0E072
:1001600004C02197FE010E94141FC239D107C9F7AC
:100170000E94EE160C9442200C9400002F923F92A5
:100180004F925F926F927F928F929F92AF92BF92A7
:10019000CF92DF92EF92FF920F931F93CF93DF9353
:1001A00000D000D01F92CDB7DEB780917A058F3F87
:1001B00029F4809179058F3F09F44FC00E94981669
:1001C00000917D0510917E0520917F05309180057D
:1001D000DC01CB01801B910BA20BB30B8436910584
:1001E000A105B105D0F18091ED049091EE04059741
:1001F000A9F480917C05813041F460E080917A051A
:100200000E94421510927C051EC061E080917A0523
:100210000E94421581E080937C0515C080915B04AB
:10022000813039F460E0809179050E94421561E0E7
:1002300006C061E0809179050E94421560E08091DE
:100240007A050E9442150E94981660937D0570936E
:100250007E0580937F0590938005209181052F3F37
:1002600009F432C030E0F901EB56FF4F8491F901F7
:10027000E05FFE4F44914B83F901E450FF4F5491EE
:100280005983552389F081110E9419156981E62F40
:10029000F0E0EE0FFF1FE557FF4FA591B491EC91F1
:1002A0007B81E72309F0AEC680918205813061F43D
:1002B0000E9498166093EF047093F0048093F10409
:1002C0009093F204109282058091ED049091EE04D7
:1002D000049709F07AC00E9498160091EF041091DB
:1002E000F0042091F1043091F204DC01CB01801B79
:1002F000910BA20BB30B893E9340A105B10508F405
:1003000064C083E090E09093EE048093ED0440910C
:100310007305A4EFB4E081E0841740F020917305E9
:1003200030E0E3EFF4E080E090E01AC02D919FEF21
:10033000980F092F10E0B8016D507B4FFB01308101
:10034000F801EC50FB4F231718F430839150F1CF94
:1003500020838F5FE1CF41915981541738F0019686
:1003600041E0480F498382179307ACF349814093DA
:100370002D0462E170E089E294E00E94EC0B598167
:1003800050938A0480919E048823F9F080918B0415
:1003900090918C0422E520935C0490935D048093FB
:1003A0005E0410925F041092600410926104109237
:1003B000620410926304E9816E2F70E080E090E0A7
:1003C0002CE534E043E00E9490122CE5222E25E03B
:1003D000322E3FE7632E34E0732E4BE5A42E45E02A
:1003E000B42E53E0C52ED12C5524539464E6862EAA
:1003F000912C10929F048091E7049091E804892B3E
:1004000009F0C4C621E030E03093E8042093E7040B
:100410008091EB049091EC04181619062CF01092C0
:10042000E8041092E704B2C68091E9049091EA04CE
:10043000CC9724F01092EA041092E904EDE4F5E080
:10044000A091E904B091EA04A955BB4F12968C9192
:1004500081938091E9049091EA0401969093EA04D3
:100460008093E9048091EB049091EC0401979093C0
:10047000EC048093EB042E163F0611F71092E8046B
:100480001092E704E7E7F4E011926E167F06E1F7B9
:1004900010928304109285041092840410928604B2
:1004A00080914D058093690480914F0580937F046E
:1004B0008091500580938004809151058093810440
:1004C0008091520580938204E3E5F5E08191DF019C
:1004D000AD5DB1098C93AE16BF06C1F7809177046C
:1004E00080936704843008F4B4C0873009F4B1C045
:1004F000282F2F7B2F3309F4ACC092EA980F92304B
:1005000008F4A7C0982F9F7D9F3909F4A2C0863BAD
:1005100009F49FC08F3D09F49CC03CEF380F333085
:1005200008F49AC038EF380F333008F495C03FED27
:10053000380F333008F490C0803409F48DC03CEBA0
:10054000380F373008F488C08C3409F485C0382F50
:100550003F7740EA430F423008F47EC0333609F457
:100560007BC0903809F478C03EE7380F343008F487
:1005700073C0823A09F470C030E4380F323008F4A6
:100580006BC036EA380F323008F469C030E7380FF4
:10059000353008F464C038E6380F333008F45FC0F3
:1005A0009D59923008F45BC0982F977F905B9230F2
:1005B00008F455C09DE4920F923008F450C091E3C6
:1005C000980F933008F44BC09CE2980F923008F4D7
:1005D00046C098E2980F923008F441C093E2980F19
:1005E0009230E8F190E1980F9230C8F19AE0980FBC
:1005F0009630A8F193E0980F933088F194EF980F1C
:10060000923080F190EF980F923060F1823451F186
:1006100090EB980F9A3030F194EA980F923010F1E5
:1006200091E9980F9730F0F09BE6980F9330D0F057
:1006300095E6980F9230B0F0223BA1F0253B91F067
:100640009EE2980F923070F0823E61F08F3E69F426
:1006500009C084E090E00BC081E090E008C083E036
:1006600090E005C082E090E002C080E090E09093CE
:100670006B0480936A0480914E0581115092860428
:1006800080E00E94E21181FB112710F984E694E0DA
:100690000E94500A082F882319F0112309F44DC530
:1006A00084E694E00E94650A8823B9F084E694E029
:1006B0000E947A0A9A8389830097A1F0BC0180E0A6
:1006C00090E00E9491142091330430E0482F50E0D4
:1006D000241735070CF44DC532C00023D1F011307A
:1006E000C1F404C0002369F1113059F584E694E0A7
:1006F0000E94A50A009769F0BC0180E090E00E948A
:1007000091142091330430E0482F50E0241735072E
:10071000B4F484E694E00E947A0A9A838983892B50
:1007200081F069817A8180E090E00E9491142091AB
:10073000330430E0482F50E02417350714F08F5F62
:1007400001C080E080939F0480918604882389F013
:1007500080918B0490918C04892B59F060918A04CC
:1007600070E080E090E02CE534E040E00E949012E0
:1007700040CEE090ED04F090EE0434E0E316F10496
:1007800001F580916904811134CE209173052336DF
:1007900008F02FCE80917F0440E1849FC001112496
:1007A00090918004929596959770892B809366041A
:1007B000E22FF0E0ED50FB4F80832F5F2093730515
:1007C00018CE80916A0490916B048230910561F19A
:1007D00040F4019709F009C4E0917605F09177059E
:1007E0001AC0E0917405F09175058330910519F0F8
:1007F000049731F0FAC38091970480FDF6C30BC0D3
:100800008091970480FDF1C380916704873009F0DF
:10081000ACC40C940000309709F4E7C367E274E0BD
:1008200084E694E00995E1C31091670484E694E0BE
:100830000E94C00A9A83898360918B0470918C0412
:100840007C836B838617970771F0C7010297039724
:1008500050F41D3009F477C0103109F4B3C01131E0
:1008600009F0C7CDE0C01D3509F4C1C1A0F51335AD
:1008700009F440C178F4103109F4A4C020F41D300B
:1008800009F0B7CD60C0113109F4CDC0123409F4BC
:1008900002C1AFCD163509F456C138F4143509F448
:1008A00030C1153509F442C1A4CD173509F466C12C
:1008B000183509F09ECD109283058091300494E79D
:1008C00090935C049C8190935D04EB81E0935E04C3
:1008D00080935F047FC3153909F422C210F51237E3
:1008E00009F4A9C120F4113709F48DC182CD133761
:1008F00009F4D1C1153709F07CCD1092830584E647
:1009000080938A0480932D0444E662E170E089E2DA
:1009100094E00E94EC0B80918B0490918C0422E572
:1009200051C3123B09F4AEC238F4163909F427C298
:100930001C3909F47BC25DCD123D09F4D4C2153FC8
:1009400009F4C9C256CD8B819C81892B09F451CD04
:100950001092830580918A0490E0EB81FC81E81776
:10096000F90731F090938C0480938B040E947B14E0
:1009700080919704909196042091950430918B0476
:1009800040918C04F6EBF0935C0440935D0430934B
:100990005E0420935F0490936004809361045092FE
:1009A000620422E0209363046B817C81660F771FD1
:1009B0004B815C81460F571FBA0180E090E00E9496
:1009C0005E1692C01092830580918A0490E06B813C
:1009D0007C816817790731F090938C0480938B04A5
:1009E0000E947B148091ED049091EE04059709F02C
:1009F00000CDECE5F4E084E694E011928E179F07B9
:100A0000E1F78091990490919C0420919B0430918E
:100A10009A044091960450919804609195047FEE59
:100A200070935C0427C01092830580918A0490E043
:100A3000EB81FC81E817F90731F090938C048093E7
:100A40008B040E947B148091ED049091EE04059735
:100A500001F580919304909192042091910430913A
:100A6000900440918F0450918E0460918D04F2EEB9
:100A7000F0935C0460935D0450935E0440935F04C4
:100A80003093600420936104909362048093630424
:100A90002BC083E08AC01092830525E0E216F104A2
:100AA000C1F784E694E00E94C00A90938C0480937E
:100AB0008B040E947B1480918B0490918C0422E51E
:100AC00020935C0490935D0480935E0410925F0415
:100AD00010926004109261041092620410926304F8
:100AE000D092EE04C092ED040E948113882309F491
:100AF00080CC7BC2109283051092EE041092ED041C
:100B000078CC1092830580918A0490E04B815C81BF
:100B10004817590731F090938C0480938B040E94FE
:100B20007B14D092EE04C092ED047DC1EF2809F051
:100B300060CC40E067E170E089E294E00E94EC0B59
:100B40001092300456CC1092830580919A049091B3
:100B50003004891B90E790935C045C8150935D04A2
:100B60006B8160935E0480935F0410926004109226
:100B700061041092620410926304B6CF1092830550
:100B800000913004002309F434CCEC8010E082EFB3
:100B9000F82E011709F42DCC812F0E946F11FC0152
:100BA00080914304882321F08AE00E94181421CC0C
:100BB0008381928121813081F0925C04E0925D0416
:100BC0007B8170935E0430935F0420936004909364
:100BD000610480936204109363040E94811388234C
:100BE00021F088E790E00E94F4111F5FD2CF2981A5
:100BF0003A814B815C812417350709F0FACB81E0FB
:100C00000E94D514F6CB1092830510917A048FEFD1
:100C1000810F0E94E211909143049111C5CF97E991
:100C200090935C045C8150935D046B8160935E04DF
:100C300010935F0472C010928305ECE5F4E084E643
:100C400094E011928E179F07E1F70E942A14182F43
:100C50008FEF810F0E946F11FC0180914304882364
:100C600011F086E0A2CF838192812181308142EF11
:100C700040935C047C8170935D04EB81E0935E049F
:100C800030935F0420936004909361048093620426
:100C900010936304A7C11092830590917A04911177
:100CA0000DC08BE980935C04FC81F0935D042B8183
:100CB00020935E0410925F0488E02FC0492F50E01B
:100CC000FA013197E830F105E0F4EC5CFF4F0C9449
:100CD000141F8091950416C08091980413C08091D0
:100CE000960410C080919A040DC080919B040AC0A4
:100CF00080919C0407C08091990404C0809197045E
:100D000001C080E02BE920935C043C8130935D04BA
:100D10004B8140935E0490935F04809360045CC1B8
:100D20001092830584E694E00E94A50A9A83898341
:100D300084E694E00E94C00A69817A810E9491143D
:100D400089831092F3041092F4041092F504109227
:100D5000F604482F63EF74E089E294E00E94A20C4D
:100D6000598158137ECF652F70E020E040E089E282
:100D700094E00E94440C882309F43BCB15CF80916A
:100D80008305811136CB60917A046150698370913B
:100D90007B047B836331F1F47E3F81F489E294E04C
:100DA0000E94230D5092830590928C0480928B04B4
:100DB00084E690E00E947B1484E68B839B81909371
:100DC0008A0490932D04492F62E170E089E294E057
:100DD0000E94EC0B80919C04E9818E17F0F04B810E
:100DE0006E2F89E294E00E94720C80918B049091A6
:100DF0008C0429E520935C0490935D0480935E0449
:100E000010925F04109260041092610410926204C8
:100E1000109263040E94811306C0F981FF3F19F00C
:100E200089E00E9418145092A004E3CA109283052E
:100E30000E942A148B830E944114898380919B0411
:100E40002981821708F4B0CE622F61508B818150C6
:100E50000E945814909143049111A6CE90918B0456
:100E600020918C0435EB30935C0420935D049093C7
:100E70005E043B8130935F0449814093600480931A
:100E80006104ACC010928305EF2859F50E9441140B
:100E9000182F0E946F119A83898360E0812F0E942E
:100EA0005814909143049111DCCEE981FA81938129
:100EB00022813181408153ED50935C0440935D0465
:100EC00030935E0420935F04909360041093610458
:100ED0008093620485C08091830581118ACAEF28BE
:100EE00089F182E062CE80918305811182CA84E615
:100EF00094E00E94A50A8D83F92E0E9441148B83F1
:100F0000E0907D04FA81F093F30429812093F404A6
:100F1000F092F5043D813093F604482F63EF74E0BE
:100F200089E294E00E94A20C4B8148139ACE642F70
:100F300070E02E2D40E089E294E00E94440C811183
:100F400033CE3BC084E694E00E94A50AF82EE92E39
:100F50000E9441148B8340907E040E942A148D834A
:100F60005A815093F30469816093F404E092F5048C
:100F7000F092F604482F415063EF74E089E294E068
:100F80000E94A20C682F70E0ED818E2F90E00197F7
:100F90006817790709F065CE4B814150242D89E20D
:100FA00094E00E94440C90E03B81232F30E02150DC
:100FB00031098217930709F0F7CD80918B04909146
:100FC0008C0429E520935C0490935D0480935E0477
:100FD00010925F04109260041092610410926204F7
:100FE000109263040E94811304CAE0917405F09189
:100FF0007505309709F4FDC967E274E084E694E072
:101000000995F7C98091820581115EC981E08093BD
:1010100082050E9498160091EF041091F00420912F
:10102000F1043091F204DC01CB01801B910BA20B87
:10103000B30B8C019D01095E13402109310907386A
:10104000134121053105A8F420915B048091ED0442
:101050009091EE04213049F4059761F583E090E02A
:101060009093EE048093ED042FC9059709F02CC9E5
:10107000F5CF81379741A105B10508F425C98091C5
:101080005B04811135C08091ED049091EE040597C9
:1010900029F360E0809179050E94421580E00E946A
:1010A000D5148091ED049091EE04049719F40E94F8
:1010B000BE00F7CF85E090E09093EE048093ED04BE
:1010C00080918B0490918C0420E520935C04909394
:1010D0005D0480935E0410925F041092600410928D
:1010E000610410926204109263040E948113ECC8A0
:1010F00010925B04409197044B7F40939704409378
:101100003D0465E170E089E294E00E94EC0B80917F
:10111000970481FD07C010928C0410928B0480E02C
:1011200090E008C08091A1049091A20490938C0457
:1011300080938B040E947B14C7C884E694E00E94CD
:10114000A50A9A83898384E694E00E94C00A698193
:101150007A810E9491142091330430E0482F50E0AE
:10116000241735070CF49CCAEACA8E3509F451CB12
:1011700052CB002309F4D5CA113009F4B7CA84E66A
:1011800094E00E947A0A9A838983CBCA80E00F9008
:101190000F900F900F900F90DF91CF911F910F91B3
:1011A000FF90EF90DF90CF90BF90AF909F908F9087
:1011B0007F906F905F904F903F902F900895CF92C7
:1011C000DF92EF92FF920F931F93CF93DF936C0107
:1011D0007A018B01C0E0D0E0CE15DF0581F0D801A7
:1011E0006D918D01D601ED91FC910190F081E02D82
:1011F000C6010995892B11F02196EECF7E01C7011A
:10120000DF91CF911F910F91FF90EF90DF90CF90E2
:101210000895089580E090E00895FC01538D448D79
:10122000252F30E0842F90E0821B930B541710F091
:10123000CF96089501970895FC01918D828D98179E
:1012400061F0828DDF01A80FB11D5D968C91928DAA
:101250009F5F9F73928F90E008958FEF9FEF0895A7
:10126000FC01918D828D981731F0828DE80FF11D70
:10127000858D90E008958FEF9FEF0895FC01918D8B
:10128000228D892F90E0805C9F4F821B91098F7384
:10129000992708958EEA92E00E943E0921E0892B69
:1012A00009F420E0822F0895FC01848DDF01A80F4E
:1012B000B11DA35ABF4F2C91848D90E001968F737E
:1012C0009927848FA689B7892C93A089B1898C919D
:1012D000837080648C93938D848D981306C00288EC
:1012E000F389E02D80818F7D80830895EF92FF92B6
:1012F0000F931F93CF93DF93EC0181E0888F9B8D39
:101300008C8D981305C0E889F989808185FD26C0F8
:10131000F62E0B8D10E00F5F1F4F0F731127E02E7D
:101320008C8DE8120CC00FB607FCFACFE889F9895A
:10133000808185FFF5CFCE010E945409F1CF8B8DBE
:10134000FE01E80FF11DE35AFF4FF0829FB7F894BA
:101350000B8FEA89FB89808180620AC09FB7F8946D
:10136000EE89FF896083E889F989808183708064D0
:1013700080839FBF81E090E0DF91CF911F910F911B
:10138000FF90EF900895CF93DF93EC01888D882331
:10139000C9F0EA89FB89808185FD05C0A889B989E2
:1013A0008C9186FD0FC00FB607FCF5CF808185FFBD
:1013B000F2CFA889B9898C9185FFEDCFCE010E942B
:1013C0005409E7CFDF91CF91089580E090E0892B19
:1013D00029F00E944A0981110C94000008950C9490
:1013E000B21F1F920F920FB60F9211242F933F93AB
:1013F0004F935F936F937F938F939F93AF93BF931D
:10140000EF93FF938EEA92E00E945409FF91EF91CF
:10141000BF91AF919F918F917F916F915F914F910C
:101420003F912F910F900FBE0F901F9018951F9214
:101430000F920FB60F9211242F938F939F93EF93D8
:10144000FF93E091BE02F091BF028081E091C4025F
:10145000F091C50282FD12C090818091C7028F5F1A
:101460008F732091C802821751F0E091C702F0E01B
:10147000E255FD4F958F8093C70201C08081FF9197
:10148000EF919F918F912F910F900FBE0F901F9012
:1014900018958EBD00000DB407FEFDCF8EB50895E2
:1014A000FC019381892F8F7D8059823058F080E331
:1014B000890F823038F081E0903F31F0913F21F088
:1014C00080E0089581E008950895FC019381892FBB
:1014D0008F7D8859823058F088E2890F823038F049
:1014E00081E0983F31F0993F21F080E0089581E05C
:1014F00008950895FC0193819B35C1F088E6890F1A
:101500008330A0F0892F8F798D59823078F088E46C
:10151000890F823058F088E2890F823038F088E0F5
:10152000890F843018F080E090E0089586E0890FFC
:10153000823010F09B3519F48489958902C0868920
:1015400097899827892798270895FC019381292F47
:101550002F7B2059263070F080E5890F853050F0C0
:1015600080E1890F823030F0935F933018F080E093
:1015700090E0089586899789982789279827089564
:10158000FC0193899234A9F180EB890F8B3088F1AB
:1015900084EA890F823068F181E9890F873048F148
:1015A00080E7890F8F3028F180E5890F873008F1B7
:1015B00088E4890F8230E8F0292F2F7B2D5B2230C1
:1015C000C0F080E3890F8630A0F088E2890F823076
:1015D00080F083E2890F823060F0933E51F080E129
:1015E000890F823030F0935F973018F080E090E000
:1015F00008958489958998278927982708950895BB
:101600000C94B21F0C94B21F0C94D51E1F93CF9351
:10161000DF93EC01FB01E858FF4F108180914C02F1
:10162000882349F089EB91E00E9433116AE070E071
:10163000812F0E94D411112329F1113109F0AFC07B
:101640000E943916609351027093520280935302A4
:101650009093540280914D0290914E02A0914F02BE
:10166000B0915002892B8A2B8B2B09F098C00E94D5
:10167000391660934D0270934E0280934F029093FF
:1016800050028DC08B81893061F48091AD02882336
:1016900041F080914C02882321F089EC91E00E9476
:1016A000B71080914C02882309F479C0CE010E94C2
:1016B000500A8823A9F086EC90E00E94C510CE0164
:1016C0000E94C00ABC0180E090E04AE00E94E01065
:1016D0008CEB90E00E94C510CE010E94A50A0CC0C0
:1016E000CE010E94650A882361F08FEA90E00E9493
:1016F000C510CE010E947A0ADF91CF911F910C9400
:10170000211187ED91E00E94331160E170E08B813F
:101710000E9435118CED91E00E943311CE010E94A0
:10172000C00ABC0180E090E04AE00E94E01083EE35
:1017300091E00E9433112B8D80E1289F90011124AC
:101740008C8D829586958770822B8A836AE070E003
:101750000E9435118BEE91E00E9433118B8990E04D
:1017600025E0959587952A95E1F78C836AE070E0EE
:101770000E94351189EF91E00E9433116091ED04D0
:101780007091EE04072E000C880B990B0E944311F8
:1017900089E691E0DF91CF911F910C94A510DF9124
:1017A000CF911F910895FC018CE191E0918380839A
:1017B000DF015396CF014B961D92A817B907E1F7A9
:1017C000138E148E158E168E178E11A210A212A2D1
:1017D000089508950C94CD1ECF92DF92EF92FF9260
:1017E0001F93CF93DF937C016B01142FCB010E94D9
:1017F000EA0B811721F0612FC6010E94040BF7014B
:10180000838590E004962285289FE001299FD00DD2
:10181000112485859685C80FD91FC535F1E0DF07EE
:101820005CF5CC0DDD1DCE010E94EA0B181721F0EE
:10183000612FCE010E94040BF701838590E004968E
:101840004285489F9001499F300D112485859685DA
:10185000820F931FC80FD91FCE010E94EA0B1817E1
:1018600059F0612FCE01DF91CF911F91FF90EF9042
:10187000DF90CF900C94040BDF91CF911F91FF90DC
:10188000EF90DF90CF900895CF93DC01942F1796BF
:101890004C91179750E06417750718F081E0890F95
:1018A0001FC01B96EC911B979E17C0F7422FC92FA4
:1018B000CD01F0E03496E69FD001E79FB00DF69F92
:1018C000B00D1124FC0125853685BD01620F731F03
:1018D000EC2FF0E034966E0F7F1F0E94EC0B8C2FE4
:1018E000CF910895EF92FF921F93CF93DF93FC0166
:1018F0002185261708F1142F7C01C62FD0E0FE01A8
:10190000EE0FFF1FED50FC4F842F90E091838083FA
:101910006996CE010E94EA0B181771F084ED90E0F1
:101920000E94F411412FBE01C701DF91CF911F9199
:10193000FF90EF900C94EC0BDF91CF911F91FF90F3
:10194000EF900895AF92BF92CF92DF92EF92FF9205
:101950001F93CF93DF93DC011A969C911A97491736
:1019600018F081E0890F4EC0142FFB017D01242F58
:1019700030E0D901AA0FBB1FA55BBC4F808190E06E
:101980008D939C93D901AA0FBB1FAB58BC4F81818B
:1019900090E08D939C93D901AA0FBB1FA156BC4F19
:1019A000828190E08D939C93D901AA0FBB1FA7530E
:1019B000BC4F838190E08D939C93D7011B968C91B3
:1019C0001B9790E00496829F6001839FD00C929FAA
:1019D000D00C11241D968D919C911E97C80ED91E76
:1019E0005B01B4E0AB0EB11CEB01C61AD70AB6011D
:1019F0006C0F7D1F4991C7010E94EC0BCA15DB05D6
:101A0000B1F7812FDF91CF911F91FF90EF90DF9081
:101A1000CF90BF90AF900895FC0180E090E02385C7
:101A200030E0821793073CF4A281B381A80FB91F5D
:101A30001C920196F4CF84E68483158288EC868319
:101A40001782148A0895EF92FF920F931F93CF93FA
:101A5000DF9300D000D0CDB7DEB78C010E940C0D13
:101A6000F8018285878319821A8286E48B8384EB4E
:101A70008C83E12CF12CF801828590E0E816F906C0
:101A800004F5F0E1EF16F10419F491E1E92EF12CDF
:101A90004E2DBE016F5F7F4FC8010E94A20C8C814A
:101AA0008F5F8C83811103C08B818F5F8B8320E0DC
:101AB00040E0B701C8010E94440C8FEFE81AF80A11
:101AC000DACF19821A8282E18B8387E68C8340E128
:101AD000BE016F5F7F4FC8010E94A20CF8016285B2
:101AE00070E06150710920E040E0C8010E94440CA0
:101AF00046E060E0C8010E94720CFF24F39441E0CC
:101B00006F2DC8010E94720CF394F1E1FF12F7CF20
:101B100086E1F82E41E06F2DC8010E94720CF3940B
:101B20008AE1F812F7CF40E061E1C8010E94720C2F
:101B300040E062E1C8010E94720C40E065E1C8012A
:101B40000E94720C44E663E1C8010E94720C43E0FB
:101B500064E1C8010E94720C4AE560E070E0C801CF
:101B60000E94EC0BF801448162E170E0C8010E9420
:101B7000EC0BF801458163E170E0C8010E94EC0BB9
:101B8000F801468164E170E0C8010E94EC0BF801A5
:101B9000448965E170E0C8010E94EC0BF8014781BF
:101BA00067E170E0C8010E94EC0BF801438568E131
:101BB00070E0C8010E94EC0B60E08DEF93E00E94A2
:101BC000040B60E08EEF93E00E94040B60E08FEF67
:101BD00093E00E94040BC8010E94F90D0F900F9032
:101BE0000F900F90DF91CF911F910F91FF90EF9089
:101BF00008955F926F927F928F929F92AF92BF9261
:101C0000CF92DF92EF92FF920F931F93CF93DF93C8
:101C1000EC010E940C0D8B8590E004962A85289F8C
:101C20007001299FF00C11248D859E85E80EF91E08
:101C300085E5E81681E0F8060CF06AC08FEF93E0C6
:101C40000E94EA0B782E8EEF93E00E94EA0B182F89
:101C50008DEF93E00E94EA0B711681F0781681F007
:101C6000181306C0612F8EEF93E00E94040B712EB3
:101C70005701AA0CBB1C00E010E024C07816C1F389
:101C8000672D8FEF93E00E94040BF2CFC8010E94F2
:101C9000EA0B682E48018E0C9F1CC4010E94EA0BBF
:101CA000582E6501C00ED11EC6010E94EA0B6514B4
:101CB00091F068120BC0662DC4010E94040B73944E
:101CC0000F5F1F4F0E151F050CF30DC05812F8CFF4
:101CD000652DC801F2CF681699F37394662DC6017D
:101CE0000E94040BEDCF8FEF93E00E94EA0B781671
:101CF00079F0672D8DEF93E00E94040B672D8EEF36
:101D000093E00E94040B672D8FEF93E00E94040B79
:101D100080E090E00E94EA0B8A3519F0CE010E9423
:101D2000230D82E190E00E94EA0B8C8383E190E036
:101D30000E94EA0B8D8384E190E00E94EA0B8E837F
:101D400085E190E00E94EA0B8C8B87E190E00E9495
:101D5000EA0B8F83DF91CF911F910F91FF90EF904E
:101D6000DF90CF90BF90AF909F908F907F906F90BB
:101D70005F90089524E331E0FC0131832083828168
:101D80009381009711F00C94B21F0895CF93DF93C5
:101D9000EC010E94BA0ECE01DF91CF910C94B21FDC
:101DA0002CE331E0FC0121933193CF010C94BA0E66
:101DB000CF93DF93EC010E94D00ECE01DF91CF9143
:101DC0000C94B21F0895E82FF0E0EB5CFD4F2081EA
:101DD00090EF980F22FF28C0983008F047C0E82FF6
:101DE000E77040914B0250E00E2E02C0559547958A
:101DF0000A94E2F72091A4023091A50240FD28C088
:101E000041E050E060E070E004C0440F551F661FE1
:101E1000771FEA95D2F7409550954223532350936C
:101E2000A5024093A402ADC0983008F041C0E82F4D
:101E3000E77040914B0250E00E2E02C05595479539
:101E40000A94E2F72091A4023091A50240FDD8CF78
:101E500041E050E060E070E004C0440F551F661F91
:101E6000771FEA95D2F7422B532BD9CF883008F44D
:101E700047C0E82FE77040914A0250E00E2E02C0A2
:101E8000559547950A94E2F720919E0230919F0262
:101E900040FF22C041E050E060E070E004C0440F29
:101EA000551F661F771FEA95D2F7422B532B23C08D
:101EB000883008F443C0E82FE77040914A0250E0B0
:101EC0000E2E02C0559547950A94E2F720919E0286
:101ED00030919F0240FFDECF41E050E060E070E0D3
:101EE00004C0440F551F661F771FEA95D2F740952F
:101EF00050954223532350939F0240939E0241C02A
:101F00004091490250E0082E02C0559547950A9429
:101F1000E2F720919C0230919D0240FF1EC041E0FB
:101F200050E060E070E0082E04C0440F551F661FAB
:101F3000771F0A94D2F7422B532B1FC040914902BE
:101F400050E0082E02C0559547950A94E2F720917B
:101F50009C0230919D0240FFE2CF41E050E060E002
:101F600070E0082E04C0440F551F661F771F0A94A7
:101F7000D2F7409550954223532350939D024093AE
:101F80009C0220913204983060F4253120F1809138
:101F90009E0290919F02992790931E0480931D04A6
:101FA0000895883060F02231B0F080919E029091C7
:101FB0009F02992790931804809317040895213164
:101FC00050F080919C0290919D0299279093160465
:101FD0008093150408950895AF92BF92CF92DF9237
:101FE000EF92FF920F931F93CF93DF931092A00471
:101FF00080910B0280930A0280E00E94E211282F58
:10200000237030E03595279520930C02982F91701E
:102010009093AD028695869580930B0290910A026B
:102020008917D1F0813059F038F0823059F083307F
:1020300069F483EA91E008C084E991E005C089E988
:1020400091E002C08EE991E00E94B71065E070E077
:1020500080E090E00E945E1684E10E94E21181E03F
:1020600080934C0281E092E00E94331165E070E0C1
:1020700080E090E00E945E1684E10E94E211C82F89
:10208000CF70CA3008F0C9E08091AC02C817A9F03F
:1020900086E092E00E9433116AE070E08C2F0E948B
:1020A00035118FE691E00E94331165E070E080E029
:1020B00090E00E945E16C093AC022DE0A22E22E0BA
:1020C000B22E35E3E32E32E0F32EC0E0D0E000E0A4
:1020D00010E0DD24D394D00E8D2D0E94E211C82E85
:1020E000812F0E946F11FC0182819381982789279B
:1020F0009827F501819391935F01F70180818C15F9
:1021000029F08C2F0E94E30EF701C08281E0810F3D
:102110002196C431D10571F0C031D10529F482E096
:10212000810F96E0D92ED00E9FEFE91AF90A0D2DF6
:10213000182FCFCFDF91CF911F910F91FF90EF908C
:10214000DF90CF90BF90AF900895009769F0FC01A9
:1021500001900020E9F73197AF01481B590BBC01F2
:102160008EEA92E00C94DF0880E090E00895CF932F
:10217000DF930E94A510EC0189E691E00E94A51072
:102180008C0F9D1FDF91CF9108950F931F93CF93D5
:10219000DF938C01C0E0D0E0F801EC0FFD1F6491EB
:1021A000662341F08EEA92E00E947609892B11F0B5
:1021B0002196F2CFCE01DF91CF911F910F9108951B
:1021C0008F929F92AF92BF920F931F93CF93DF9303
:1021D000CDB7DEB7A1970FB6F894DEBF0FBECDBF67
:1021E00019A2423008F44AE08E010F5D1F4F842E81
:1021F000912CA12CB12CA50194010E94E31EE62F85
:10220000B901CA0101501109EA3014F4E05D01C0BE
:10221000E95CD801EC93232B242B252B61F7C80113
:102220000E94A510A1960FB6F894DEBF0FBECDBFD9
:10223000DF91CF911F910F91BF90AF909F908F90A2
:102240000895CF93DF93BC0180E090E04AE00E94C4
:10225000E010EC0189E691E00E94A5108C0F9D1F13
:10226000DF91CF9108950C94A510AB01682F411513
:10227000510521F48EEA92E00C94760970E080E03A
:1022800090E00C94E010CF92DF92EF92FF92CF9308
:10229000DF9397FF1BC06B017C016DE28EEA92E039
:1022A0000E947609EC0166277727CB016C197D091E
:1022B0008E099F094AE00E94E0108C0F9D1FDF915C
:1022C000CF91FF90EF90DF90CF9008954AE0DF919B
:1022D000CF91FF90EF90DF90CF900C94E010109290
:1022E000390410923A0410923B0410923C0410926C
:1022F000430490913304981720F09091300498177C
:1023000020F481E08093430421C090E0FC01EE0FB3
:10231000FF1FE55BFC4F208120933904FC01EE0F89
:10232000FF1FEB58FC4F208120933A04FC01EE0F75
:10233000FF1FE156FC4F208120933B04880F991F1B
:10234000FC01E753FC4F808180933C0489E394E0D7
:102350000895FF920F931F93CF93DF93C82FF62E0C
:10236000072F142F60E0809154040E94421582E0F0
:102370000E94490A8C2F0E94490ACF2DD02FCE01EE
:10238000810F911D8C01C017D10721F089910E9406
:10239000490AF9CF61E080915404DF91CF911F91F8
:1023A0000F91FF900C944215CF93DF930E9435114B
:1023B000EC0189E691E00E94A5108C0F9D1FDF9132
:1023C000CF9108951092430490913204891720F020
:1023D0008FEF809343040895E82FF0E0EE0FFF1F86
:1023E000ED50FC4F80810895CF93DF930E94C5107C
:1023F000EC0189E691E00E94A5108C0F9D1FDF91F2
:10240000CF9108950F931F93CF93DF93082F162F2B
:10241000C7E2D4E060E08DA50E94421582E00E94F0
:10242000490A802F0E94490A812F0E94490A61E0CF
:102430008DA5DF91CF911F910F910C944215FF92C2
:102440000F931F93CF93DF93F82E062F142FC7E21D
:10245000D4E060E08DA50E94421585E00E94490A03
:102460008F2D0E94490A802F0E94490A812F0E94C5
:10247000490A61E08DA5DF91CF911F910F91FF90E7
:102480000C9442151F93CF93DF93182FC7E2D4E02B
:1024900060E08DA50E94421583E00E94490A812FC9
:1024A0000E94490A80E00E94490A182F61E08DA528
:1024B0000E944215812FDF91CF911F910895CF93F4
:1024C000C82F482F60EE8FE00E941F128FE00E94FD
:1024D0004212982F907E81E09C1301C080E0CF9142
:1024E000089590E0FC01E05FFE4F2491FC01E45070
:1024F000FF4F8491882399F090E0880F991FFC0189
:10250000EE50FF4FA591B491FC01E851FF4F85912A
:1025100094918FB7F894EC91E22BEC938FBF0895D0
:102520004F925F926F928F929F92AF92BF92CF9293
:10253000DF92FF920F931F93CF93DF9300D000D0D1
:10254000CDB7DEB7109244046093450470934604FF
:102550008093470490934804493008F048E0409342
:10256000490410925204AAE4B4E0F90150E0CF010A
:10257000821B930B841795071CF481918D93F7CFE1
:10258000A12CB12C4090400150904101609042013B
:102590004E0124E0820E911C49825A826B82CE0148
:1025A00001966C01F82E0D2DF60111916F01812F0E
:1025B0000E944212982F987083FD02C01F5F05C0D1
:1025C0008C149D0489F710E092E0FFEFAF1ABF0A68
:1025D000923029F422E3A216B104F1F67CC082E322
:1025E000A816B10409F477C0409149046AE474E084
:1025F00085E0810F0E94A91180915204813029F455
:10260000809149048064809349046091490484E086
:10261000810F0E940212409145045091460460913E
:10262000470470914804809144048130B1F44C8394
:102630005B83AB0166277727942F9C71842F83706F
:10264000E8E09E9F800D112488608A8365E056959E
:1026500047956A95E1F749830DC0CA0123E0969535
:1026600087952A95E1F789834295440F407E4A83F6
:102670001C821B8244E06F2D702F812F0E94A911B4
:10268000115048E068E0812F0E941F12C12CD12C0C
:10269000FFEFCF1ADF0A812F0E94421283FF05C08D
:1026A00022E3C216D104A1F718C082E3C816D104F0
:1026B000A1F0109245041092460410924704109223
:1026C000480410924904109244041092520410924B
:1026D000530480E003C086E001C087E00F900F90B4
:1026E0000F900F90DF91CF911F910F91FF90DF908E
:1026F000CF90BF90AF909F908F906F905F904F90D2
:102700000895CF93DF93C0915C04C63B21F0C2953E
:10271000C695C77001C0C7E0CF5F81E080935904C0
:1027200080935A0460918A0470E080E090E02CE588
:1027300034E04C2F0E949012811102C080E00FC043
:10274000D3E060918A0470E080E090E02CE534E012
:102750004C2F0E949012882389F3D15091F7DF917A
:10276000CF9108951F93CF93DF938823A1F0EB01BE
:1027700083E10E94E211182F83E10E94E21180E9B7
:1027800080935C0410925D0410935E04D0935F0408
:10279000C09360040FC080918B0490918C0428E951
:1027A00020935C0490935D0480935E0470935F04B7
:1027B00060936004109261041092620410926304AA
:1027C000DF91CF911F910C9481131F93CF93DF93CF
:1027D0008823A1F0EB0183E10E94E211182F83E12D
:1027E0000E94E21181E980935C0410925D041093D1
:1027F0005E04D0935F04C09360040FC080918B048B
:1028000090918C0429E920935C0490935D0480935B
:102810005E0470935F0460936004109261041092F0
:10282000620410926304DF91CF911F910C94811385
:10283000E7E2F4E0ABE8B4E09C9111962C913FE61E
:1028400035AB26AB97AB80AF11AE12AE13AE14AE64
:102850000C94811380916704823721F08C3911F038
:10286000853B19F480917A040895853F19F480918D
:102870007C040895823F19F480917E04089580E0DD
:102880000895809167048C3911F0853B19F480918B
:102890007B040895823B11F0823D19F480917C0401
:1028A0000895853F19F480917D04089580E008958E
:1028B00010924304909130048917C8F42091340495
:1028C0006217A8F430E02C5F3F4F829FA001839FE6
:1028D000500D11248091360490913704840F951F78
:1028E00070E06C5F7F4F860F971F0C94EA0B8FEFA1
:1028F000809343040895CF93DF93C7E2D4E09F838E
:102900008887492F63E170E089E294E00E94EC0B34
:10291000488564E170E089E294E0DF91CF910C9406
:10292000EC0BEF92FF920F931F93CF93DF939C01D9
:10293000472F5527822FC32FDD271C2F00913004EE
:10294000ABE4B3E0EFE9F3E090E033277727091732
:10295000F9F0111102C0882369F0ED90FC901197F5
:10296000CE15DF0589F49A96ED90FC909B972E1575
:102970003F0551F4E080F1804E155F0529F4E2A493
:10298000F3A46E157F0549F09F5F12963296DFCF54
:102990009091330481E0890F01C0892FDF91CF919D
:1029A0001F910F91FF90EF900895CF93DF93CDB7D4
:1029B000DEB728970FB6F894DEBF0FBECDBF1092DA
:1029C000730580939E0484E090E09093EE048093DE
:1029D000ED0482E08093590483E080935A0460916F
:1029E0008A0470E080E090E0FE013196AE01475F1E
:1029F0005F4F9F011192E417F507E1F741E0409323
:102A0000520440E00E949012109252040E949816C4
:102A10006093EF047093F0048093F1049093F204B8
:102A200028960FB6F894DEBF0FBECDBFDF91CF91D1
:102A30000895833081F028F4813099F08230A1F03C
:102A400008958730A9F08830B9F08430D1F48091AE
:102A500080008F7D03C0809180008F7780938000FD
:102A6000089584B58F7702C084B58F7D84BD0895A5
:102A70008091B0008F7703C08091B0008F7D8093EC
:102A8000B00008951F93CF93DF93282F30E0F90112
:102A9000EB56FF4F8491F901E05FFE4FD491F901AD
:102AA000E450FF4FC491CC23C1F0162F81110E9436
:102AB0001915EC2FF0E0EE0FFF1FE851FF4FA59125
:102AC000B4919FB7F894111104C08C91D095D8237C
:102AD00002C0EC91DE2BDC939FBFDF91CF911F9161
:102AE0000895FF920F931F93CF93DF93182FF62E25
:102AF000C72FD42F60E0809154040E94421583E0D8
:102B00000E94490A812F0E94490A0F2D1C2FC0E004
:102B1000CD1751F0C83041F080E00E94490AF80119
:102B200081938F01CF5FF4CF61E080915404DF91F6
:102B3000CF911F910F91FF900C9442150F931F930B
:102B4000CF93DF9300D000D0CDB7DEB7182F10920F
:102B500044041092450410924604109247041092C7
:102B6000480444E0BE016F5F7F4F0E9471152A81C7
:102B70003981822F90E065E0959587956A95E1F718
:102B800048E0349F800D911D1124092E000CAA0BE2
:102B9000BB0B8093450490934604A0934704B093E5
:102BA000480423FF29C032E0880F991FAA1FBB1FCA
:102BB0003A95D1F72370820F911DA11DB11DBA2F37
:102BC000A92F982F88272B81820F911DA11DB11D40
:102BD000BA2FA92F982F88272C81820F911DA11D14
:102BE000B11D8093450490934604A0934704B0938D
:102BF000480481E0809344048FEF810F0E944212C9
:102C0000082F84E0810F0E94421203FF04C091E06C
:102C10009093520402C010925204482F4F70409378
:102C200049046AE474E085E0810F0E9471150F90F9
:102C30000F900F900F90DF91CF911F910F910895FA
:102C40001F93CF93DF93C7E2D4E060E08DA50E948D
:102C5000421580EA0E94490A80E00E94490A182F22
:102C600061E08DA50E944215812FDF91CF911F91C8
:102C700008953FB7F89480918F0590919005A091A9
:102C80009105B091920526B5A89B05C02F3F19F07C
:102C90000196A11DB11D3FBFBA2FA92F982F8827DC
:102CA000820F911DA11DB11DBC01CD0142E0660F37
:102CB000771F881F991F4A95D1F708958F929F9289
:102CC000AF92BF92CF92DF92EF92FF926B017C01A5
:102CD0000E9439164B015C01C114D104E104F104D6
:102CE000F1F00E943916DC01CB0188199909AA0973
:102CF000BB09883E9340A105B10570F321E0C21ADB
:102D0000D108E108F10888EE880E83E0981EA11C26
:102D1000B11CC114D104E104F10419F7DDCFFF9017
:102D2000EF90DF90CF90BF90AF909F908F900895DD
:102D30002FB7F89460918B0570918C0580918D056B
:102D400090918E052FBF08951F920F920FB60F928C
:102D500011242F933F938F939F93AF93BF938091B1
:102D60008B0590918C05A0918D05B0918E053091C9
:102D70008A0523E0230F2D3720F40196A11DB11DF4
:102D800005C026E8230F0296A11DB11D20938A05D8
:102D900080938B0590938C05A0938D05B0938E0541
:102DA00080918F0590919005A0919105B091920529
:102DB0000196A11DB11D80938F0590939005A0935E
:102DC0009105B0939205BF91AF919F918F913F91E3
:102DD0002F910F900FBE0F901F901895789484B587
:102DE000826084BD84B5816084BD85B5826085BD07
:102DF00085B5816085BD80916E00816080936E0095
:102E00001092810080918100826080938100809186
:102E10008100816080938100809180008160809337
:102E200080008091B10084608093B1008091B000F7
:102E300081608093B00080917A00846080937A00F2
:102E400080917A00826080937A0080917A0081601C
:102E500080937A0080917A00806880937A00109243
:102E6000C100ADE8B4E085E994E0FD0111928E1750
:102E70009F07E1F7E3E4F1E081918D9381E0EB348A
:102E8000F807D1F78AE5809396048DE08093950446
:102E900082E38093980481E0809399048091970461
:102EA0008E7F82608093970488EC90E0A0E0B0E091
:102EB0008093A1049093A204A093A304B093A404CC
:102EC00086E09BE090937505809374058AE080937B
:102ED00054040E94711261E0809154040E944215D2
:102EE000C4E1D0E066E0A62E61E0B62E7AE1E72EDE
:102EF00071E0F72EDFB6F89480915502811123C05E
:102F0000F5018491F7012491E82FF0E0EE0FFF1F07
:102F1000EE50FF4FA591B4919C91822F892321F40B
:102F200061E08AE00E9442158AE00E9471128CB52D
:102F300080618CBD8CB580648CBD8DE00E94711267
:102F40008BE00E947112809155028F5F8093550231
:102F5000DFBE60E0809154040E94421580EC0E9424
:102F6000490A61E0809154040E9442156AE070E0D1
:102F700080E090E00E945E1680E80E945F12882345
:102F800081F06AE070E080E090E00E945E166EE101
:102F900070E080E090E00E945E16219709F0AACFD1
:102FA0004BC06AE070E080E090E00E945E1661E055
:102FB0008AE20E94021261EB89E20E94021265E03D
:102FC00088E20E9402126AE070E080E090E00E94D5
:102FD0005E1610E360E0812F0E94021260E080E143
:102FE000810F0E94021260E080E2810F0E940212B3
:102FF0001F5F1E3379F760E080E60E94021260E0F6
:1030000080E70E94021263E08BE20E94021244E019
:1030100064E680E60E941F1240E060E680E70E94BE
:103020001F1280E00E945F128111ABCF6AE070E056
:1030300080E090E00E945E168FEF8093810584E12E
:103040000E94E21181E080934C02E091BE02F09177
:10305000BF0282E08083E091BA02F091BB0210824D
:10306000E091BC02F091BD0280E180831092C60223
:10307000E091C202F091C30286E08083E091C00239
:10308000F091C102808180618083E091C002F09163
:10309000C102808188608083E091C002F091C1020A
:1030A000808180688083E091C002F091C1028081BC
:1030B0008F7D808380914C028823E1F08BE691E044
:1030C0000E94B7108CE491E00E94331161E070E03F
:1030D00080E090E00E94431187E691E00E94331166
:1030E00062E070E080E090E00E94431189E691E0A8
:1030F0000E94A510E5E3F2E089E492E023E6219343
:103100008E179F07E1F78FEF8093490280936C023F
:1031100080934A0280936D0280934B0280936E02EB
:1031200080910B0280930A020E94EC0F80914C0266
:10313000811104C08CE691E00E94331180914C0211
:10314000882321F089EA90E00E94F41181E791E060
:103150000E9433110E9439166093700270937102BD
:10316000809372029093730240E7242E45E0342E40
:103170000E94391660935102709352028093530259
:10318000909354020091740210917502209176027E
:10319000309177026B017C01C01AD10AE20AF30A6E
:1031A00097018601053611052105310548F40E9475
:1031B000BE008091A0048823A9F10E94EC0F32C0C8
:1031C00060937402709375028093760290937702F5
:1031D000C0E0D1E00E942016837001F17DC2809191
:1031E0005504809363058091560480936405809113
:1031F0005704809365058091580480936605409339
:10320000610580915204811192C2109262058091F1
:10321000E7049091E804892B09F48CC2CF5FC23097
:1032200031F2D8CFC0904D02D0904E02E0904F02C4
:10323000F0905002C114D104E104F104D1F12091C5
:103240008B0430918C048090510290905202A09097
:103250005302B09054028C189D08AE08BF08A0E13C
:10326000B7E20E94051F681579058A059B0508F5D8
:103270001091560284E8C80E83E0D81EE11CF11CB0
:10328000C0924D02D0924E02E0924F02F092500254
:1032900081E0810F80935602853108F497C2109225
:1032A000560210924D0210924E0210924F0210924E
:1032B00050028091700290917102A0917202B091BF
:1032C00073020097A105B10539F120918B0430916B
:1032D0008C04C0905102D0905202E0905302F090C2
:1032E0005402C81AD90AEA0AFB0AA0E1B7E20E940E
:1032F000051FC616D706E806F90618F410926F02E5
:103300000BC081E080936F021092700210927102E4
:10331000109272021092730280916F02882309F456
:10332000B1C0BCE6CB2EB2E0DB2EC9E4EC2EC2E08D
:10333000FC2E412C512C3201812C80914C0288238F
:10334000E1F080E891E00E943311C301B2010E94D4
:1033500043118AE891E00E94331162E070E0F701C6
:1033600080810E9435118EE791E00E94331162E066
:1033700070E0F60180810E94D411F6019081F7017E
:103380008081981709F46CC0982CA12CB12CF701FE
:10339000C081D0E00A2C02C0D595C7950A94E2F707
:1033A000F601808190E00A2C02C0959587950A94D9
:1033B000E2F78C279D2780FF46C0F3E1F91508F45A
:1033C00042C0892D0E94E30EC170092D10E0F80162
:1033D000EB5CFD4F808182FF02C081E0C8278091B5
:1033E0004C02000F111F8823B9F08DE891E00E9474
:1033F0003311F801E35FFD4F6081718180E090E05F
:103400004AE00E94E0108EE791E00E9433116AE0EA
:1034100070E08C2F0E94D41190910C02F801E35FB0
:10342000FD4F6081718181E0CC2329F0911180E012
:103430000E94E51304C0911180E00E94B2138BEC4E
:1034400097E00197F1F79FEFA91AB90A9394E8E082
:10345000AE16B10409F09BCFF7018081F60180839D
:10346000FFEFCF1ADF0A8FEFE81AF80A98E0890E0B
:10347000EFEF4E1A5E0A6E0A7E0AF8E18F125DCFF8
:1034800010926F02FBE5AF2EF2E0BF2EC7E5D2E04F
:10349000DD24D3948EEA92E00E943E0918161906A4
:1034A0000CF017C18EEA92E00E941C098F3311F0D4
:1034B000873439F46BE671E08CE592E00E943B20A2
:1034C000EDC08B34F9F480915B02813019F7809163
:1034D00057028335F9F680910B02813059F038F0AC
:1034E000823069F08330B1F683EA91E005C084E967
:1034F00091E002C089E991E00E94B710CBCF8EE93C
:1035000091E0FACF833409F0CCC080915B02843023
:1035100009F0C4C080914C02811108C0E0915B02A7
:10352000F0E0E95AFD4F40E050E06EC00DE012E0DF
:10353000412C512C32018DE891E00E943311C301DE
:10354000B2010E9443118EE791E00E943311F8010D
:10355000819191918F010E942111FFEF4F1A5F0A13
:103560006F0A7F0A84E1481651046104710419F757
:1035700088EA91E00E9433116AE070E080915B027A
:103580000E94D411E7E5EE2EE2E0FE2E870160E115
:1035900070E0F70181917F010E9435118EE791E083
:1035A0000E94331162E070E0F80180810E94D41122
:1035B000AE14BF0459F7B2CFA02FB0E0B595A795D0
:1035C0000A2FC90163E0959587956A95E1F7B901DE
:1035D00067707727A0FF24C0DC01A75BBD4F412C9B
:1035E000512C3201439404C0440C551C661C771CBA
:1035F0006A95D2F78C91482A4C922F5F3F4F115019
:10360000D9F64A5F5F4F0083CE17DF07D9F082916A
:1036100090E095958795082F80839A0116E0CCCF8E
:10362000DC01A75BBD4F412C512C3201439404C0F7
:10363000440C551C661C771C6A95D2F740948C91FB
:103640004822DACF09E412E08CE6E82E82E0F82E78
:10365000C12CF70181917F01F80190819813D092DC
:103660006F0280914C02882399F080EB91E00E94D8
:1036700033116AE070E08C2D0E9435118EE791E0E5
:103680000E94331162E070E0F80180810E94D41141
:10369000C3940F5F1F4FF3E0CF12DBCF10925B029A
:1036A000F9CEECE5F2E001900020E9F73197EC5516
:1036B000F2403F9708F0EECE90915B02943028F4F0
:1036C000E92FF0E0E95AFD4F80839F5F90935B0202
:1036D000E1CE0E94E5094CCD0E942016C11108C020
:1036E00080FF9CCD81E60E949E1540E061E007C00E
:1036F00081FF94CD81E70E949E1540E062E08CE25C
:103700000E941F1240914904E7E2F4E09F01275212
:10371000344031968091490490E0281739070CF025
:103720005ECD82A1DF01A15CBE4F8C93EFCFD09321
:1037300062056DCDEE24E394F12CF092E804E09262
:10374000E7048091E5049091E604CC9724F0109270
:10375000E6041092E504E1E6F5E08091E50490913D
:10376000E6042191DC01A955BB4F12962C930196DA
:103770009093E6048093E5048091EB049091EC042F
:1037800001969093EC048093EB042E163F0629F7E4
:10379000CD97BCF08091E9049091EA040F968C33A8
:1037A00091052CF49093EA048093E90404C01092EC
:1037B000EA041092E9048CE390E09093EC04809387
:1037C000EB041092E8041092E70428CDC12FD0E05A
:1037D000FE0123E0F595E7952A95E1F7E75BFD4FBC
:1037E000808190E0212F277002C0959587952A95BA
:1037F000E2F7082F0170FE01EB5CFD4F808182FF34
:1038000002C081E0082780914C02CC0FDD1F882385
:1038100009F185E791E00E943311612F70E080E0AB
:1038200090E00E9443118AE791E00E943311FE016B
:10383000E35FFD4F6081718180E090E04AE00E948B
:10384000E0108CE791E00E9433116AE070E0802F75
:103850000E94D41190910C02C35FDD4F6881798181
:1038600081E0002329F0911180E00E94E51321CD31
:10387000911180E00E94B2131CCD87E294E00C9479
:10388000D00E6F927F928F929F92AF92BF92CF9203
:10389000DF92EF92FF920F931F93CF93DF93CDB7F9
:1038A000DEB7C654D1090FB6F894DEBF0FBECDBF48
:1038B0001092B1021092B00288EE93E0A0E0B0E066
:1038C0008093B2029093B302A093B402B093B50276
:1038D0008AE091E09093AF028093AE0285EC90E095
:1038E0009093BB028093BA0284EC90E09093BD0267
:1038F0008093BC0280EC90E09093BF028093BE0264
:1039000081EC90E09093C1028093C00282EC90E041
:103910009093C3028093C20286EC90E09093C5021C
:103920008093C4021092C7021092C8021092C9027A
:103930001092CA028CE391E09093280480932704AC
:1039400084E391E090932A048093290484E694E030
:103950000E94D30B8CE291E09093890480938804B9
:10396000EDE8F4E085E994E020E321938E179F07CA
:10397000E1F784E291E09093A8048093A704109269
:10398000830510929D041092730527E1FE01319684
:10399000A4E4B4E001900D922A95E1F79A8389831B
:1039A00021961FAE1EAE219723961FAE1EAE239703
:1039B00025961FAE1EAE259727961FAE1EAE2797E3
:1039C000DE011396E9EAF4E08D91819344E0E53E4F
:1039D000F407D1F71092E6041092E5041092E8047F
:1039E0001092E7041092EA041092E9041092EC0499
:1039F0001092EB0484E391E09A8389838AE18A87B9
:103A000085E18B8781E08C878D8783E3888B85E3D5
:103A100090E09F878E8781E090E00E941A1F9C8330
:103A20008B83CE0101960E940C0DCE0101960E945F
:103A3000F90DDA8423EFE22E23E0F22E00E010E00D
:103A40001B8E0D1510F08FEF04C0C80149960E941F
:103A5000EA0B90E0F701819391937F010F5F1F4F75
:103A60000A31110569F7EB847884CC84D12CF4E019
:103A7000CF0ED11C8BE4882E83E0982E9FE9A92ECF
:103A800093E0B92E0E851F85F12C66246394198A64
:103A90001A8A1B8A1C8A1B8EEF1410F07F1410F4F4
:103AA0006B8E13C0C8010E94EA0B898BC801019676
:103AB0000E94EA0B8A8BC80102960E94EA0B8B8B4C
:103AC000C80103960E94EA0B8C8B3989832F90E002
:103AD000F401819391934F012A89822F90E091A75D
:103AE00080A79B89492F50E0F501419351935F01D5
:103AF0008C89482F50E051A740A7F3940C0D1D1D51
:103B0000F5E1FF12C4CF4B815C8150932C044093AC
:103B10002B044D8140932D044E8140932E044F8100
:103B200040932F04488540933004498540933104E5
:103B30004A8540933204E09233044C854093340428
:103B40004D85409335044E855F85509337044093EF
:103B500036044889409338043093390420933A045A
:103B600090933B0480933C048D8980933D048E891F
:103B70009F8990933F0480933E04888D80934004F6
:103B8000898D809341048A8D809342048B8D80932C
:103B90004304CE0101960E94BA0E8CE291E09A8312
:103BA0008983DE011696CE010E96FD0120E3219356
:103BB0008E179F07E1F78B8180938A048C819D810A
:103BC00090938C0480938B04EDE8F4E08D918193C5
:103BD00044E0E539F407D1F78E85809395048F850D
:103BE00080939604888980939704898980939804A8
:103BF0008A898093990485E180939A048AE180936D
:103C00009C0481E080939B04CE0101960E94D30B1B
:103C10008B81809366048C81809367048D8180936F
:103C200068048E81809369048F81988590936B04DA
:103C300080936A0489859A8590936D0480936C04BF
:103C40008B859C8590936F0480936E048D859E85F3
:103C500090937104809370048F8598899093730476
:103C60008093720489899A8990937504809374046F
:103C70008B8980937604DE015496E7E7F4E08D911A
:103C8000819384E0EF37F807D1F78C8D80937F0420
:103C90008D8D809380048E8D809381048F8D809391
:103CA000820488A18093830489A19AA190938504BA
:103CB000809384048BA1809386048CA180938704D5
:103CC00080919D04816080939D0410929E040FEF6B
:103CD0000093790500937A0511E010937B0510920B
:103CE0007C050E94981660937D0570937E058093F5
:103CF0007F059093800510927505109274051092BF
:103D000085051092840510929F041093A0040093DF
:103D100081051093820588EC90E0A0E0B0E08093EC
:103D2000A1049093A204A093A304B093A40489E2F5
:103D300094E00E94F90D80912E0490912F04982711
:103D40008927982790933F0480933E0490938C0496
:103D500080938B0480912D0480938A0482E0809369
:103D6000970483E090E09093EE048093ED04CA5BA7
:103D7000DF4F0FB6F894DEBF0FBECDBFDF91CF91FE
:103D80001F910F91FF90EF90DF90CF90BF90AF9079
:103D90009F908F907F906F900895F999FECF92BD7C
:103DA00081BDF89A992780B50895262FF999FECFFD
:103DB0001FBA92BD81BD20BD0FB6F894FA9AF99A48
:103DC0000FBE01960895A1E21A2EAA1BBB1BFD018E
:103DD0000DC0AA1FBB1FEE1FFF1FA217B307E407EA
:103DE000F50720F0A21BB30BE40BF50B661F771F42
:103DF000881F991F1A9469F7609570958095909522
:103E00009B01AC01BD01CF010895A29FB001B39FFA
:103E1000C001A39F700D811D1124911DB29F700DD3
:103E2000811D1124911D0895EE0FFF1F0590F4913F
:103E3000E02D09940F931F93CF93DF938230910568
:103E400010F482E090E0E0919505F091960520E075
:103E500030E0A0E0B0E0309719F14081518102815B
:103E6000138148175907C8F08417950769F410970C
:103E700031F012960C93129713961C9327C000935F
:103E800095051093960522C02115310519F04217AA
:103E9000530718F49A01BD01EF01DF01F801DBCFF0
:103EA00021153105F9F0281B390B2430310580F438
:103EB0008A819B816115710521F0FB0193838283C7
:103EC00004C09093960580939505FE01329644C0F8
:103ED000FE01E20FF31F8193919322503109398340
:103EE00028833AC02091930530919405232B41F407
:103EF00020910201309103013093940520939305A2
:103F000020910001309101012115310541F42DB7B7
:103F10003EB74091040150910501241B350BE091FF
:103F20009305F0919405E217F307A0F42E1B3F0BC5
:103F30002817390778F0AC014E5F5F4F241735071B
:103F400048F04E0F5F1F5093940540939305819363
:103F5000919302C0E0E0F0E0CF01DF91CF911F919B
:103F60000F910895CF93DF93009709F481C0FC016E
:103F7000329713821282A0919505B0919605109701
:103F800081F420813181820F931F2091930530911C
:103F900094052817390751F5F0939405E09393059C
:103FA00067C0ED0120E030E0CE17DF0740F44A8122
:103FB0005B819E0141155105F1F0EA01F5CFD383F4
:103FC000C28340815181840F951FC817D90759F4C6
:103FD00088819981840F951F0296918380838A81BD
:103FE0009B81938382832115310529F4F0939605F3
:103FF000E09395053DC0E901FB83EA83499159911E
:10400000C40FD51FEC17FD0761F480819181840FE7
:10401000951F0296E90199838883828193819B830E
:104020008A83E0E0F0E012968D919C9113970097BF
:1040300019F0FD01DC01F7CF8D919C9111979D0145
:104040002E5F3F4F820F931F20919305309194056F
:104050002817390769F4309729F4109296051092C1
:10406000950502C013821282B0939405A093930524
:10407000DF91CF910895FB01DC0101900D920020AA
:10408000E1F7089510E0C3E9D0E004C0FE010E940A
:0E409000141F2196C439D107C9F7F894FFCF49
:10409E00000097058000000000007609DF080D097A
:1040AE00C3093E091C09300900000000FF0AEF0990
:1040BE0000000000E20E020B00000000E90B000BF6
:1040CE0000000000BA0EC60E00000000D00ED80E82
:1040DE00304050415244555F47424D004172647525
:1040EE0043414E2047424D204D6173736520566506
:1040FE007273696F6E20002E000D0A003C44303E34
:10410E00003C533E00506F7274002800293A200084
:10411E0070696E73746174655B005D3A0045766517
:10412E006E743A003C50303E003C50313E003C50E4
:10413E00323E003C50333E00456D7066616E670046
:10414E0070696E537461746500557365725F467560
:10415E006E6374696F6E3A2000736574416C6C4FB8
:10416E00757470757473004F50433A00204E6F642F
:10417E00653A002043616E49443A00204D657373E1
:10418E0061676553697A653A002053746174653AC4
:0A419E00003C44313E003C57000095
:00000001FF
