:100000000C9445020C946D020C946D020C946D02DC
:100010000C946D020C946D020C946D020C946D02A4
:100020000C946D020C946D020C946D020C946D0294
:100030000C946D020C946D020C946D020C946D0284
:100040000C94B00D0C946D020C94610C0C943B0C50
:100050000C946D020C946D020C946D020C946D0264
:100060000C946D020C946D0268086B086E087108A0
:10007000740877087A087D084641494C4544207445
:100080006F2073656E642043414E00000000002421
:100090000027002A00010204081020408001020409
:1000A00008102001020408102004040404040404BD
:1000B00004020202020202030303030303200056A8
:1000C00041525320002000200020000A4556454E92
:1000D00054533A0020000A4445562D4E554D424592
:1000E00052533A0020000A494E5445524E414C208A
:1000F0005641525320280020000A4E4F44452056B6
:100100004152533A000A4E554D204556454E5453E0
:1001100020564152533A000A4E554D204556454E01
:1001200054533A000A466C6167733A000A4E4E3ADD
:10013000000A43414E5F49443A004944454E543A0F
:10014000004D454D4F52592044554D500053746158
:1001500072740053746162696C6973696572756E5B
:100160006720496E642D4D656C646572005265733D
:1001700065743A2043616E494420617566203235CA
:10018000340042697420302D343A204445425547AA
:100190002D4368616E6E656C2077697264206461BE
:1001A0007A7520616464696572743A202D3E20314D
:1001B00032392062656465757465742064656275A2
:1001C0006767696E6720766F6E204B616E616C2089
:1001D0003100426974203720766F6E205661726953
:1001E00061626C65203239206D7573732031207324
:1001F00065696E2066756572204445425547004129
:1002000072647543414E20524D204D656C64657299
:1002100020560020676573656E6465740020536521
:100220006E736F723A20004665686C6572004E65A9
:10023000757374617274656E210052657365742004
:10024000004B616E616C20004772656E7A77657253
:100250007420005661726961626C65200054657398
:100260007465204C4544200050726F636573736958
:100270006E673A2000206265656E646574002876BA
:100280006F6C6C2900203530253A00292032352545
:100290003A00667265690049522D4D656C6465725D
:1002A0002000666572746967002067657370656910
:1002B000636865727420005661726961626C6520C2
:1002C000002053636877656C6C65200077726974F1
:1002D000652076617220746F20656570726F6D00A5
:1002E00000000000250028002B0000000000230073
:1002F0002600290000000008000201000003040796
:1003000000000000000000004B616C696220006783
:1003100065737461727465743A20002043414E2005
:100320006E6963687420676573656E646574210027
:10033000496E644D656C646572200020494E5645D7
:1003400052544544004578744D656C6465722000D4
:1003500045696E6D657373656E200020537461741A
:10036000653A2000204D65737361676553697A654E
:100370003A200053686F72743A204576656E7400B7
:100380002020204576656E7420004C6F6E673A2001
:100390004E6F64654E6F200049522D416B74697633
:1003A0002000206E6963687420616B7469763A205E
:1003B0005661726961626C65203120284269743728
:1003C000290041757367616E672000616B746976FF
:1003D000006E6963687420006578744175736761A5
:1003E0006E672000204576656E745661723A200073
:1003F0004576656E744D61746368200020204F6EF1
:100400003A004F66663A00706572204342555300C9
:10041000616C73205374617475732D416E7A6569D4
:10042000676500494F3A0020434255533A00206126
:100430006B7469762062656900206F6465720020C4
:10044000756E6400204578742E0020496E642E007D
:1004500020616B7469762077656E6E0053636877F0
:10046000656C6C653A00205374756665323A0020FD
:100470005374756665313A00416B7469763A00428F
:100480006C616E6B3A001136823811241FBECFEFBB
:10049000D8E0DEBFCDBF11E0A0E0B1E0E0E6FAE7D2
:1004A00002C005900D92AE3EB107D9F726E0AEEE40
:1004B000B1E001C01D92A43EB207E1F712E0C4E42E
:1004C000D2E004C02197FE010E940C39C334D10749
:1004D000C9F70E94B9250C94233D0C9400002F927B
:1004E0003F925F926F927F928F929F92AF92BF9254
:1004F000CF92DF92EF92FF920F931F93CF93DF93F0
:1005000000D0CDB7DEB78091A1068F3F29F480914E
:10051000A0068F3F09F44FC00E94A40D0091A406CD
:100520001091A5062091A6063091A706DC01CB010B
:10053000801B910BA20BB30B84369105A105B1056D
:10054000D0F180911406909115060597A9F4809139
:10055000A306813041F460E08091A1060E94BC0CAA
:100560001092A3061EC061E08091A1060E94BC0CFF
:1005700081E08093A30615C080918205813039F413
:1005800060E08091A0060E94BC0C61E006C061E0C2
:100590008091A0060E94BC0C60E08091A1060E94A0
:1005A000BC0C0E94A40D6093A4067093A5068093D2
:1005B000A6069093A7068091A8068F3F09F4AEC0C7
:1005C0000E94930C2091A906892B81F4213009F017
:1005D000A5C00E94A40D6093160670931706809321
:1005E0001806909319061092A90698C0211196C07A
:1005F00081E08093A9060E94A40D00911606109137
:1006000017062091180630911906DC01CB01801BDA
:10061000910BA20BB30B8C019D01095E13402109C4
:1006200031090738134121053105A8F420918205CD
:100630008091140690911506213049F4059761F5D3
:1006400083E090E0909315068093140667C00597A9
:1006500009F064C0F5CF81379741A105B10508F4D1
:100660005DC080918205811135C080911406909102
:100670001506059729F360E08091A0060E94BC0C46
:1006800080E00E94A624809114069091150604979C
:1006900019F40E946F02F7CF85E090E09093150661
:1006A000809314068091B2059091B30520E52093C4
:1006B000830590938405809385051092860510929A
:1006C0008705109288051092890510928A050E946C
:1006D000AE1224C0109282054091BE054B7F40931C
:1006E000BE054093640565E170E080E595E00E94F9
:1006F000990E8091BE0581FF09C08091C805909137
:10070000C9059093B3058093B20506C01092B30556
:100710001092B20580E090E00E949024809114062F
:1007200090911506049709F076C00E94A40D0091DF
:100730001606109117062091180630911906DC0153
:10074000CB01801B910BA20BB30B893E9340A105FB
:10075000B10508F460C083E090E0909315068093A3
:10076000140620919A06ABE1B6E081E08217B0F45E
:100770003D919FEF980FE92FF0E0BF01625B7A4F48
:10078000AB0144535F4FFA0140813196341718F49E
:1007900040839150F0CF30838F5FE8CF80E090E0CE
:1007A00030E011E0180F8217930744F4FC01E65E75
:1007B000F94F4081141710F00196F3CF10935405B0
:1007C000412F62E170E080E595E00E94990E109360
:1007D000B1058091C5058823F1F08091B205909113
:1007E000B30522E5209383059093840580938505C6
:1007F000109286051092870510928805109289053F
:1008000010928A05612F70E080E090E023E835E0E7
:1008100043E00E94C411EE24E394F12C8AE796E0B1
:1008200048E0542E580E03E010E07724739483E8D8
:1008300095E058E0652E680E60E6C62ED12C109229
:10084000C60580910E0690910F06892B09F0FBC515
:10085000F0920F06E0920E06809112069091130618
:10086000181619062CF010920F0610920E06EBC502
:100870008091100690911106CC9724F010921106E9
:1008800010921006E4E7F6E0A0911006B091110670
:10089000A053BA4F8C9181938091100690911106CC
:1008A0000196909311068093100680911206909104
:1008B00013060197909313068093120626E0E338FF
:1008C000F20711F710920F0610920E068BE895E0D2
:1008D0000E94820E80917406809390058091760626
:1008E0008093A605809177068093A705809178066E
:1008F0008093A805809179068093A905EAE7F6E040
:100900008191DF01AD5DB1098C935E12F9CF8091C9
:100910009E0580938E05843008F4B7C0873009F4B3
:10092000B4C0282F2F7B2F3309F4AFC092EA980F61
:10093000923008F4AAC0982F9F7D9F3909F4A5C072
:10094000863B09F4A2C08F3D09F49FC03CEF380FED
:10095000333008F49DC038EF380F333008F498C0B6
:100960003FED380F333008F493C0803409F490C061
:100970003CEB380F373008F48BC08C3409F488C056
:10098000382F3F7740EA430F423008F481C03336B6
:1009900009F47EC0903809F47BC03EE7380F34304C
:1009A00008F476C0823A09F473C030E4380F32306C
:1009B00008F46EC036EA380F323008F46CC030E705
:1009C000380F353008F467C038E6380F333008F494
:1009D00062C09D59923008F45EC0982F977F905B5B
:1009E000923008F458C09DE4920F923008F453C03E
:1009F00091E3980F933008F44EC09CE2980F923028
:100A000008F449C098E2980F923008F444C093E289
:100A1000980F923008F43FC090E1980F9230D8F1CF
:100A20009AE0980F9630B8F193E0980F933098F1D0
:100A300094EF980F923090F190EF980F923070F100
:100A4000823461F190EB980F9A3040F194EA980F5C
:100A5000923020F191E9980F973000F19BE6980FC2
:100A60009330E0F095E6980F9230C0F0223BB1F061
:100A7000253BA1F09EE2980F923080F0823E71F00B
:100A80008F3E61F080E090E00BC084E090E008C011
:100A900081E090E005C083E090E002C082E090E059
:100AA000909392058093910580917506811103C002
:100AB0001092AD0502C07092AD0560E080E595E052
:100AC0000E9417108370282E312C359427948BE8C0
:100AD00095E00E94010E982E882321F02114310404
:100AE00009F48BC48BE895E00E94160E8823C1F0B0
:100AF0008BE895E00E942B0E5C010097B9F0AC01E9
:100B000060E070E080E595E00E94D02020915A05D9
:100B100030E0482F50E0241735070CF487C436C066
:100B20009920F1F02A942328D9F405C0992081F165
:100B30002A94232869F58BE895E00E94520E0097CD
:100B400079F0AC0160E070E080E595E00E94D02093
:100B500020915A0530E0482F50E024173507B4F4AF
:100B60008BE895E00E942B0E5C01892B89F0A50192
:100B700060E070E080E595E00E94D02020915A0569
:100B800030E0482F50E02417350714F08F5F01C084
:100B900080E08093C6058091AD05882389F080911F
:100BA000B2059091B305892B59F06091B10570E0C1
:100BB00080E090E023E835E040E00E94C4113FCEA1
:100BC0008090140690901506F4E08F16910409F5B4
:100BD00080919005811133CE20919A06233608F03A
:100BE0002ECE8091A705382F32953695377090918B
:100BF000A60540E1949FC0011124832B80938D05AD
:100C0000E22FF0E0E65EF94F80832F5F20939A0693
:100C100016CE80919105909192058230910561F1F7
:100C200044F4019709F0D8C3E0919D06F0919E0627
:100C30001AC0E0919B06F0919C068330910519F053
:100C4000049731F0C9C38091BE0580FDC5C30BC0B8
:100C50008091BE0580FDC0C380918E05873009F06C
:100C6000C8C30C940000309709F4B6C36EE475E075
:100C70008BE895E00995B0C320918E058BE895E04F
:100C80002A830E946A0E5C012090B2053090B30561
:100C90002A818215930571F0C4010297039750F4DD
:100CA0002D3009F475C0203109F4AAC0213109F0B2
:100CB000C6CDD0C02D3509F4A4C190F5233509F473
:100CC00028C178F4203109F49BC020F42D3009F0BC
:100CD000B6CD5EC0213109F4BDC0223409F4EDC0A7
:100CE000AECD263509F43CC138F4243509F418C1D9
:100CF000253509F428C1A3CD273509F44AC1283583
:100D000009F09DCD1092AA068091570594E7909323
:100D1000830530928405209285058093860551C312
:100D2000253909F4FAC110F5223709F48AC120F4F3
:100D3000213709F46EC183CD233709F4ADC12537BE
:100D400009F07DCD1092AA0680E68093B1058093CC
:100D5000540540E662E170E080E595E00E94990E5E
:100D60008091B2059091B30522E523C3223B09F49B
:100D700083C238F4263909F4FFC12C3909F451C271
:100D80005ECD223D09F4A9C2253F09F49EC257CD8C
:100D90002114310409F453CD1092AA068091B105B3
:100DA00090E08215930531F09093B3058093B205DE
:100DB0000E9490248091BE059091BD052091BC05B4
:100DC0003091B2054091B30556EB509383054093A3
:100DD000840530938505209386059093870580933D
:100DE00088057092890585E080938A05B101660FB8
:100DF000771F620D731D80E090E00E946A0D57C05E
:100E00001092AA068091B10590E08215930531F009
:100E10009093B3058093B2050E94902480911406AC
:100E200090911506059709F00ACDE3E8F5E01192D7
:100E30006E12FDCF8091C0059091C3052091C2052F
:100E40003091C1054091BD055091BF056091BC0531
:100E50007FEE1DC01092AA068091B10590E0821528
:100E6000930531F09093B3058093B2050E949024CE
:100E70008091BA059091B9052091B8053091B705D8
:100E80004091B6055091B5056091B40572EE70932E
:100E900083056093840550938505409386053093C0
:100EA0008705209388059093890580938A050E9481
:100EB000AE12882309F4C3CC8FC21092AA0685E033
:100EC0008816910421F58BE895E00E946A0E9093B4
:100ED000B3058093B2050E9490248091B205909151
:100EE000B30522E5209383059093840580938505BF
:100EF0001092860510928705109288051092890538
:100F000010928A051093150600931406D0CF83E043
:100F100075C01092AA0610921506109214068FCC76
:100F20001092AA068091B10590E08215930531F0E8
:100F30009093B3058093B2050E94902410931506F8
:100F4000009314066BC1892809F079CC40E067E171
:100F500070E080E595E00E94990E109257056FCCE5
:100F60001092AA068091C10590915705891B90E7C0
:100F700090938305309284052092850580938605A1
:100F800010928705109288051092890510928A05A3
:100F90008ECF1092AA06A0905705AA2009F44FCC34
:100FA000932CB12C92EF892E1DC0838192812181D7
:100FB000308180928305909284052092850530933C
:100FC0008605209387059093880580938905B092C4
:100FD0008A050E94AE12882321F088E790E00E94E3
:100FE0005113B394BA1409F42ACC8B2D0E94221108
:100FF000FC0180916A058823C1F28AE00E941E13D9
:101000001ECCA214B30409F01ACC81E00E94A624DD
:1010100016CC1092AA06B090A1056FEF6B0D80E57B
:1010200095E00E94171090916A059111E6CF97E91B
:10103000909383053092840520928505B0928605B1
:1010400069C01092AA06E3E8F5E011926E12FDCF96
:101050000E946224B82E8FEF8B0D0E942211FC019A
:1010600080916A05882311F086E0C8CF8381928140
:101070002181308142EF4093830530928405209294
:101080008505309386052093870590938805809386
:101090008905B0928A059DC11092AA062091A105EA
:1010A00021110BC08BE98093830530928405209237
:1010B00085051092860588E02DC0822F90E0FC0106
:1010C0003197E830F105E0F4EC5CFF4F0C940C39FB
:1010D0008091BC0516C08091BF0513C08091BD05ED
:1010E00010C08091C1050DC08091C2050AC08091D9
:1010F000C30507C08091C00504C08091BE0501C032
:1011000080E09BE9909383053092840520928505C9
:10111000209386058093870556C11092AA068BE816
:1011200095E00E94520E5C018BE895E00E946A0EE9
:10113000BC01A50180E595E00E94D020B82E109258
:101140001A0610921B0610921C0610921D06482FBC
:101150006AE176E080E595E00E9424218B1184CF3E
:10116000682F70E020E040E080E595E00E94F30EFB
:10117000882309F464CB41CF8091AA0681115FCB0B
:10118000B090A105BA942091A2059BE1B9121EC0AE
:101190002E3F79F480E595E00E94A4217092AA0682
:1011A000D092B305C092B20580E690E00E949024F0
:1011B00020E62093B10520935405422F62E170E0B0
:1011C00080E595E02A830E94990E2A818091C305CB
:1011D0008B15F0F0422F6B2D80E595E00E942710D3
:1011E0008091B2059091B30529E5209383059093F2
:1011F00084058093850510928605109287051092CC
:1012000088051092890510928A050E94AE1206C0C8
:10121000EFEFBE1619F089E00E941E137092C70509
:101220000ECB1092AA060E946224B82E0E94792446
:10123000A82E8091C2058A1508F4DFCE4FEF4A0D23
:101240006FEF6B0D80E595E00E94F90F90916A05B4
:101250009111D3CE9091B2052091B30535EB309327
:1012600083052093840590938505B0928605A0920E
:10127000870580938805A9C01092AA06892859F588
:101280000E947924B82E0E9422114C0140E06B2D5F
:1012900080E595E00E94F90F90916A059111E4CEE6
:1012A000F401938122813181408153ED5093830574
:1012B0004093840530938505209386059093870598
:1012C000B09288058093890582C08091AA06811119
:1012D000B6CA892879F182E091CE8091AA0681115F
:1012E000AECA8BE895E00E94520E882E99830E9428
:1012F0007924982E2091A405B0921A06A0921B067C
:10130000998190931C0680921D06482F6AE176E031
:1013100080E595E02A830E9424212A818911A4CEA8
:10132000682F70E040E080E595E00E94F30E8111A7
:1013300064CE3AC08BE895E00E94520E982E9983B5
:101340000E947924882E2091A5052A830E94622478
:10135000382EB0921A06A0921B06998190931C0613
:1013600090921D064FEF480F6AE176E080E595E028
:101370000E942421682F70E0432D50E04150510914
:101380002A816417750709F06FCE4FEF480D80E58D
:1013900095E00E94F30E90E0282D30E021503109B5
:1013A0008217930709F029CE8091B2059091B30579
:1013B00029E52093830590938405809385051092F9
:1013C0008605109287051092880510928905109263
:1013D0008A050E94AE1233CAE0919B06F0919C06EA
:1013E000309709F42CCA6EE475E08BE895E0099516
:1013F00026CA8E3509F435CC36CC8BE895E00E94B0
:10140000520E5C018BE895E00E946A0EA501BC01BA
:1014100080E595E00E94D02020915A0530E0482FC9
:1014200050E0241735070CF45DCBB0CB992009F4BC
:101430009ECB2A94232809F47ECB8BE895E00E946A
:101440002B0E5C0194CB80E00F900F90DF91CF9139
:101450001F910F91FF90EF90DF90CF90BF90AF90D2
:101460009F908F907F906F905F903F902F90089506
:10147000CF92DF92EF92FF920F931F93CF93DF9360
:101480006C017A018B01C0E0D0E0CE15DF0589F058
:10149000D8016D918D01D601ED91FC910190F08103
:1014A000E02DC6010995892B11F47E0102C0219619
:1014B000ECCFC701DF91CF911F910F91FF90EF907B
:1014C000DF90CF900895089580E090E00895FC01AA
:1014D000538D448D252F30E0842F90E0821B930B99
:1014E000541710F0CF96089501970895FC01918D3F
:1014F000828D981761F0828DDF01A80FB11D5D9676
:101500008C91928D9F5F9F73928F90E008958FEFE3
:101510009FEF0895FC01918D828D981731F0828D97
:10152000E80FF11D858D90E008958FEF9FEF0895EE
:10153000FC01918D228D892F90E0805C9F4F821B52
:1015400091098F73992708958FE493E00E94980A78
:1015500021E0892B09F420E0822F0895FC01848D7D
:10156000DF01A80FB11DA35ABF4F2C91848D90E0CD
:1015700001968F739927848FA689B7892C93A089A8
:10158000B1898C9180648C93938D848D981306C05F
:101590000288F389E02D80818F7D80830895EF920A
:1015A000FF920F931F93CF93DF93EC0181E0888F1D
:1015B0009B8D8C8D981305C0E889F989808185FD04
:1015C00024C0F62E0B8D10E00F5F1F4F0F731127F5
:1015D000E02E8C8DE8120CC00FB607FCFACFE8891C
:1015E000F989808185FFF5CFCE010E94AE0AF1CF47
:1015F0008B8DFE01E80FF11DE35AFF4FF0820B8F38
:10160000EA89FB898081806207C0EE89FF89608357
:10161000E889F98980818064808381E090E0DF91AE
:10162000CF911F910F91FF90EF900895CF93DF938B
:10163000EC01888D8823C9F0EA89FB89808185FDCA
:1016400005C0A889B9898C9186FD0FC00FB607FC2B
:10165000F5CF808185FFF2CFA889B9898C9185FF6C
:10166000EDCFCE010E94AE0AE7CFDF91CF91089572
:1016700080E090E0892B29F00E94A40A81110C944B
:1016800000000895833081F028F4813099F0823091
:10169000A1F008958730A9F08830B9F08430D1F4F2
:1016A000809180008F7D03C0809180008F77809330
:1016B0008000089584B58F7702C084B58F7D84BD86
:1016C00008958091B0008F7703C08091B0008F7D26
:1016D0008093B00008954230510509F45EC044F48F
:1016E0004115510581F04130510509F470C0B7C072
:1016F0004430510509F4A1C00CF487C045305105B0
:1017000009F4A2C0ACC0623409F4ACC080EB860F0F
:101710008B3008F4A7C084EA860F823008F4A2C098
:1017200081E9860F873008F49DC080E7860F8F30EF
:1017300008F498C080E5860F873008F493C088E4E9
:10174000860F823008F48EC083E4860F823008F45E
:1017500089C080E3860F863008F484C088E2860F53
:10176000823008F47FC083E2860F823008F47AC0AA
:10177000633E09F477C080E1860F823008F472C0BE
:101780008DE0860F873008F46DC081E06D3F09F46D
:1017900068C06E3F09F063C067C0862F8F7B805999
:1017A000863008F45FC080E5860F853008F45AC0A3
:1017B00080E1860F823008F455C08DE0860F8230BC
:1017C00008F450C081E0653F09F049C04DC06B3559
:1017D00009F448C088E6860F833008F443C0862F9A
:1017E0008F7D8D598230F0F188E4860F8230D0F100
:1017F00088E2860F8230B0F183E2860F823090F16A
:1018000088E0860F843008F62DC08FED860F833078
:1018100048F18CEB860F873028F16C3419F1603673
:1018200009F16038F9F08EE7860F8430D8F0623A1B
:10183000C9F081E0613E99F417C0603499F06136D7
:1018400089F0613CB1F70EC0603861F08EE7860F19
:10185000843040F081E0623A39F0613C29F080E068
:101860000895089581E0089508950E943F3A0C94E8
:10187000A7390C94A7391F920F920FB60F9211241B
:101880002F933F934F935F936F937F938F939F9388
:10189000AF93BF93EF93FF938FE493E00E94AE0A60
:1018A000FF91EF91BF91AF919F918F917F916F9138
:1018B0005F914F913F912F910F900FBE0F901F900E
:1018C00018951F920F920FB60F9211242F938F939A
:1018D0009F93EF93FF93E0915F03F091600380810A
:1018E000E0916503F091660382FD12C090818091C2
:1018F00068038F5F8F7320916903821751F0E09125
:101900006803F0E0E15BFC4F958F8093680301C0B2
:101910008081FF91EF919F918F912F910F900FBE3A
:101920000F901F901895CF93DF93282F30E0F90187
:10193000EC50FD4F8491F901EB56FF4FD491F90122
:10194000E755FF4FC491CC2391F081110E94420BC7
:10195000EC2FF0E0EE0FFF1FE651FD4FA591B49183
:10196000EC91ED2381E090E021F480E002C080E082
:1019700090E0DF91CF9108951F93CF93DF93282FAD
:1019800030E0F901EC50FD4F8491F901EB56FF4F27
:10199000D491F901E755FF4FC491CC23C9F0162F1C
:1019A00081110E94420BEC2FF0E0EE0FFF1FE0527E
:1019B000FD4FA591B4918FB7F894111105C09C917A
:1019C000ED2FE095E92302C0EC91ED2BEC938FBF56
:1019D000DF91CF911F910895CF93DF9390E0FC01A9
:1019E000EB56FF4F2491FC01E755FF4F849188236C
:1019F00061F190E0880F991FFC01E557FF4FC591F9
:101A0000D491FC01E052FD4FA591B491611109C040
:101A10009FB7F8948881209582238883EC912E23A8
:101A20000BC0623061F49FB7F8943881822F8095A3
:101A300083238883EC912E2B2C939FBF06C08FB7F6
:101A4000F894E8812E2B28838FBFDF91CF910895E2
:101A50008E3008F08E5087702091000190E4299F0D
:101A600090011124822B80937C0080917A00806405
:101A700080937A0080917A0086FDFCCF8091780077
:101A80002091790090E0922B08953FB7F8948091CF
:101A90004B0390914C03A0914D03B0914E0326B59A
:101AA000A89B05C02F3F19F00196A11DB11D3FBF96
:101AB000BA2FA92F982F8827820F911DA11DB11D24
:101AC000BC01CD0142E0660F771F881F991F4A9520
:101AD000D1F708958F929F92AF92BF92CF92DF92EB
:101AE000EF92FF926B017C010E94450D4B015C015E
:101AF000C114D104E104F104F1F00E94450DDC01B0
:101B0000CB0188199909AA09BB09883E9340A10510
:101B1000B10570F321E0C21AD108E108F10888EE9E
:101B2000880E83E0981EA11CB11CC114D104E104ED
:101B3000F10419F7DDCFFF90EF90DF90CF90BF90C9
:101B4000AF909F908F9008952FB7F89460914703BE
:101B5000709148038091490390914A032FBF0895E3
:101B60001F920F920FB60F9211242F933F938F93D2
:101B70009F93AF93BF938091470390914803A091A7
:101B80004903B0914A033091460323E0230F2D37D8
:101B900020F40196A11DB11D05C026E8230F029671
:101BA000A11DB11D209346038093470390934803E2
:101BB000A0934903B0934A0380914B0390914C0347
:101BC000A0914D03B0914E030196A11DB11D8093CC
:101BD0004B0390934C03A0934D03B0934E03BF91DE
:101BE000AF919F918F913F912F910F900FBE0F90CA
:101BF0001F9018958EBD00000DB407FEFDCF8EB569
:101C00000895FC019381892F8F7D8059823058F08F
:101C100080E3890F823038F081E0903F31F0913FCE
:101C200021F080E0089581E008950895FC019381FA
:101C3000892F8F7D8859823058F088E2890F823051
:101C400038F081E0983F31F0993F21F080E008952D
:101C500081E0089508951F93CF93DF93EC011B81DA
:101C600041E050E0612F0E946B0B8823A9F086E0D1
:101C7000810F823010F01B3531F42C8930E0322F87
:101C800022278D8905C02E8930E0322F22278F89A7
:101C9000A901482BCA0102C080E090E0DF91CF91FA
:101CA0001F910895CF93DF93EC0142E050E06B81E8
:101CB0000E946B0B882349F02E8930E0322F2227B7
:101CC0008F89A901482BCA0102C080E090E0DF9112
:101CD000CF910895CF93DF93EC0140E050E06B8902
:101CE0000E946B0B882349F02C8930E0322F222789
:101CF0008D89A901482BCA0102C080E090E0DF91E4
:101D0000CF910895FC01DC0153964B961D92A817C4
:101D1000B907E1F7138E148E158E168E178E11A249
:101D200010A212A20895089508950C94B4380C944A
:101D3000AC38CF92DF92EF92FF921F93CF93DF9355
:101D40007C016B01142FCB010E94970E811721F0AB
:101D5000612FC6010E94950EF7018285238530E030
:101D60002C5F3F4F829FE001839FD00D112485851A
:101D70009685C80FD91FC535F1E0DF0764F5CC0D96
:101D8000DD1DCE010E94970E811721F0612FCE013B
:101D90000E94950EF7018285238530E02C5F3F4F2E
:101DA000829FA001839F500D112485859685840F05
:101DB000951FC80FD91FCE010E94970E811759F0A9
:101DC000612FCE01DF91CF911F91FF90EF90DF90B7
:101DD000CF900C94950EDF91CF911F91FF90EF90D3
:101DE000DF90CF9008950F931F93CF938C01942F82
:101DF000D80117964C9150E06417750718F081E0F0
:101E0000890F23C0D8011B96EC919E17C0F7422F73
:101E1000C92FDB01C8016C2F70E09B012C5F3F4F85
:101E2000F0E03496AE9FB001AF9F700DBE9F700D75
:101E30001124D8011D96ED91FC911E976E0F7F1F06
:101E4000620F731F0E94990E8C2FCF911F910F91DB
:101E500008954F925F926F927F928F929F92AF926E
:101E6000BF92CF92DF92EF92FF920F931F93CF9387
:101E7000DF931F92CDB7DEB78C010E948D21F80150
:101E80002285838590E00496289F6001299FD00CCD
:101E9000112485859685C80ED91EF5E5CF16F1E08B
:101EA000DF060CF06DC08FEF93E00E94970E582E66
:101EB0008EEF93E00E94970EF82E8DEF93E00E9434
:101EC000970E5F1491F0581691F0F81207C06F2D1D
:101ED0008EEF93E00E94950E5F2C01C0512C5601AD
:101EE000AA0CBB1CE12CF12C26C05816C1F3652DA1
:101EF0008FEF93E00E94950EF2CFC7010E94970EDC
:101F0000682F37016C0C7D1CC30169830E94970EFA
:101F1000482E47018A0C9B1CC4010E94970E6981C0
:101F2000641591F068130BC0C3010E94950E539481
:101F30008FEFE81AF80AEC14FD04FCF20CC048120A
:101F4000F7CF642DC701F1CF681791F35394C40103
:101F50000E94950EEDCF8FEF93E00E94970E5816DA
:101F600079F0652D8DEF93E00E94950E652D8EEF33
:101F700093E00E94950E652D8FEF93E00E94950EE1
:101F800080E090E00E94970E8D3519F0C8010E9404
:101F9000A42182E190E00E94970EF801848383E1FE
:101FA00090E00E94970EF801858384E190E00E9402
:101FB000970EF801868385E190E00E94970EF80164
:101FC000848B87E190E00E94970EF80187830F9041
:101FD000DF91CF911F910F91FF90EF90DF90CF9005
:101FE000BF90AF909F908F907F906F905F904F9039
:101FF0000895FC01128E87816817B0F4238542177B
:1020000098F450E04C5F5F4F30E02C5F3F4F629F91
:10201000D001639FB00D1124858596858A0F9B1F83
:10202000840F951F0C94970E8FEF828F0895FC01FB
:10203000128E8185681718F08FEF828F0895E62F32
:10204000F0E0EE0FFF1FEC50FB4F80810895FF92F0
:102050000F931F93CF93DF93FC012185261738F14F
:10206000F42E8C01C62FD0E0FE01EE0FFF1FEC50C6
:10207000FB4F842F90E0918380836996CE010E946C
:10208000970EF816A1F06CE1C8010E94171086FFA8
:1020900004C08CEC92E00E9451134F2DBE01C80188
:1020A000DF91CF911F910F91FF900C94990EDF91CA
:1020B000CF911F910F91FF900895009769F0FC0157
:1020C00001900020E9F73197AF01481B590BBC0183
:1020D0008FE493E00C94380A80E090E00895CF926A
:1020E000DF92FF920F931F93CF93DF931F92CDB791
:1020F000DEB7F82E162F042F60E080917B057983E0
:102100000E94BC0C82E00E94FA0D8F2D0E94FA0DF5
:10211000F12EC12E7981D72E8C2D8F19801730F496
:10212000F60181916F010E94FA0DF6CF61E0809176
:102130007B050F90DF91CF911F910F91FF90DF9062
:10214000CF900C94BC0C0C945D108F929F92AF9228
:10215000BF920F931F93CF93DF93CDB7DEB7A197B5
:102160000FB6F894DEBF0FBECDBF19A2423008F4FF
:102170004AE08E010F5D1F4F842E912CA12CB12CB3
:10218000A50194010E94C238E62FB901CA0101508D
:102190001109EA3014F4E05D01C0E95CD801EC9368
:1021A000232B242B252B61F7C8010E945D10A196DB
:1021B0000FB6F894DEBF0FBECDBFDF91CF911F9158
:1021C0000F91BF90AF909F908F900895CF92DF9224
:1021D000EF92FF92CF93DF936B017C01E0914F036D
:1021E000F09150030190F081E02D6DE28FE493E0D7
:1021F0000995EC0166277727CB016C197D098E09BB
:102200009F094AE00E94A5108C0F9D1FDF91CF917E
:10221000FF90EF90DF90CF9008954115510551F454
:10222000E0914F03F09150030190F081E02D8FE495
:1022300093E009940C94A510BC0180E090E04AE082
:102240000C94A51010926005109261051092620521
:102250001092630510926A0590915A05981720F024
:1022600090915705981720F481E080936A0521C06A
:1022700090E0FC01EE0FFF1FE451FC4F2081209302
:102280006005FC01EE0FFF1FE25DFB4F20812093F4
:102290006105FC01EE0FFF1FE059FB4F20812093E9
:1022A0006205880F991FFC01EE54FB4F80818093DB
:1022B000630580E695E008951F93CF93DF93182F71
:1022C000CEE4D5E060E08DA50E94BC0C83E00E94C6
:1022D000FA0D812F0E94FA0D80E00E94FA0D182F4E
:1022E00061E08DA50E94BC0C812FDF91CF911F91E1
:1022F0000895EF92FF920F931F93CF93DF931F9256
:10230000CDB7DEB7082F162F8EE4E82E85E0F82E25
:1023100060E0F70185A549830E94BC0C85E00E941E
:10232000FA0D802F0E94FA0D812F0E94FA0D49812B
:10233000842F0E94FA0D61E0F70185A50F90DF91CF
:10234000CF911F910F91FF90EF900C94BC0C0F93C5
:102350001F93CF93DF93082F162FCEE4D5E060E0D4
:102360008DA50E94BC0C82E00E94FA0D802F0E9475
:10237000FA0D812F0E94FA0D61E08DA5DF91CF91BA
:102380001F910F910C94BC0C7F928F929F92AF92F1
:10239000BF92CF92DF92EF92FF920F931F93CF9352
:1023A000DF9300D000D0CDB7DEB710926B056093FD
:1023B0006C0570936D0580936E0590936F054930A1
:1023C00008F048E04093700510927905A1E7B5E068
:1023D000F90150E0CF01821B930B841795071CF481
:1023E00081918D93F7CFC12CD12C70E3A72EE0E41F
:1023F0009E2EF0E58F2E8E010F5F1F4FA3E07A2EE9
:10240000700EA9829A828B827801F701B1907F01C8
:102410008B2D0E945C11982F987083FD04C0FF24BF
:10242000F394FB0C04C07E10F0CFF12C92E0FFEF90
:10243000CF1ADF0A923029F422E3C216D10409F739
:1024400078C082E3C816D10409F473C040917005C6
:1024500061E775E085E08F0D0E946F10809179052E
:10246000813029F4809170058064809370056091BB
:10247000700584E08F0D0E94A71140916C0550916A
:102480006D0560916E0570916F0580916B058130CF
:10249000B1F44C835B83AB0166277727942F9C7143
:1024A000842F8370E8E09E9F800D112488608A83CA
:1024B00065E0569547956A95E1F749830DC0CA01D5
:1024C00023E0969587952A95E1F789834295440FF5
:1024D000407E4A831C821B8244E0B8018F2D0E94FB
:1024E0006F10FA9448E068E08F2D0E94791100E0A7
:1024F00010E00F5F1F4F8F2D0E945C1183FF04C0FF
:1025000002331105B1F717C002331105A1F0109283
:102510006C0510926D0510926E0510926F05109269
:10252000700510926B051092790510927A0580E083
:1025300003C086E001C087E00F900F900F900F90CE
:10254000DF91CF911F910F91FF90EF90DF90CF908F
:10255000BF90AF909F908F907F900895CF93DF931F
:10256000C0918305C63B21F0C295C695C77001C0D6
:10257000C7E0CF5F81E08093800580938105609103
:10258000B10570E080E090E023E835E04C2F0E9438
:10259000C411811102C080E00FC0D3E06091B10589
:1025A00070E080E090E023E835E04C2F0E94C411F9
:1025B000882389F3D15091F7DF91CF9108950F933C
:1025C0001F93CF93DF93C0E0D0E0082F10E0B80155
:1025D0000C2E02C0759567950A94E2F76170772713
:1025E00089E00E94BC0C61E087E00E94BC0C60E0C6
:1025F00087E00E94BC0C2196C830D10541F7DF91DD
:10260000CF911F910F9108958FEB91E00C945D1085
:10261000CF93DF93BC01990F880B990B97FF03C0F1
:102620000E94E61003C04AE00E94A510EC010E943F
:1026300004138C0F9D1FDF91CF910895EEE4F5E018
:10264000A2EBB5E09C9111962C913FE635AB26AB01
:1026500097AB80AF11AE12AE13AE14AE0C94AE12A7
:102660000F931F93CF93DF938C01C0E0D0E0F8016C
:10267000EC0FFD1F6491662371F0E0914F03F09120
:1026800050030190F081E02D8FE493E00995892BB0
:1026900011F02196ECCFCE01DF91CF911F910F91D8
:1026A0000895CF93DF930E943013EC010E9404132E
:1026B0008C0F9D1FDF91CF9108959FEF980F809110
:1026C000C305891740F0462F692F80E595E00E94E9
:1026D000271081E0089581E09F3F09F080E0089590
:1026E000AB01672B59F4E0914F03F0915003019037
:1026F000F081E02D682F8FE493E00994BC01990FDD
:10270000880B990B4A30510521F497FD0C94E61083
:102710004AE00C94A510CF93DF93BC0180E090E0D9
:102720004AE00E94A510EC010E9404138C0F9D1F2B
:10273000DF91CF910895CF93DF930E945D10EC015C
:102740000E9404138C0F9D1FDF91CF910895AF92CB
:10275000BF92CF92DF92FF920F931F93CF93DF939D
:10276000EC018B01FB01E858FF4FF080FF2009F4DA
:1027700060C180918E02882309F443C080EF93E00A
:102780000E9430136AE070E08F2D0E94382484EE9E
:1027900093E00E943013CE010E94160E98012E5F26
:1027A0003F4F6901882339F0CE010E942B0EAC0106
:1027B00060E070E009C0CE010E94520E5C01CE01C3
:1027C0000E946A0EBC01A501C6010E94D020F8013A
:1027D000ED58FF4F9081891730F440E0682FC60113
:1027E0000E94F90F01C080E06AE070E00E94382486
:1027F00082EC91E00E94A31060E170E08B810E9466
:102800003F249FEF9F0D9830A9F40E94450D6093DF
:10281000BC027093BD028093BE029093BF020E94DF
:10282000450D6093B8027093B9028093BA029093F9
:10283000BB027BC1913208F078C18B81282F277FA2
:10284000203919F001E0813009F400E082EF8F0DAA
:10285000843008F04BC080918E02C92FD0E08823CD
:10286000B9F088ED93E00E9430136AE070E0CE0189
:102870000C970E94701383E791E00E94A3106AE016
:1028800070E0802F0E94382482EE91E00E94A31015
:102890002D9780918202909183020C2E02C0959513
:1028A00087950A94E2F780FD07C0CF5EDE4F602F68
:1028B00088810E94BC0C08C080918E02882321F080
:1028C00081ED93E00E94301380918E02882309F4F9
:1028D0002CC18BEC93E0DF91CF911F910F91FF9072
:1028E000DF90CF90BF90AF900C9451131EEE1F0D50
:1028F0001C3008F04CC080918E02882309F182ECD4
:1029000093E00E943013812F90E06AE070E001961E
:102910000E94701383E791E00E94A3106AE070E0C8
:10292000802F0E9438248091B702811105C081EC6C
:1029300091E00E949B1304C082EA93E00E9451132D
:102940008091B7028111F1C0212F30E04091A9029E
:102950005091AA02F901EB5EFE4F81E090E0A0E009
:10296000B0E0008004C0880F991FAA1FBB1F0A9403
:10297000D2F7002319F0842B952B04C080959095F5
:10298000842395239093AA028093A902CEC09D31FF
:1029900008F4CBC012EE1F0D80918E028823A1F0A7
:1029A00088E993E00E943013812F90E06AE070E0A4
:1029B00001960E94701383E791E00E94A3106AE0E1
:1029C00070E0802F0E943824CE010E94520E892B85
:1029D00021F12091DB06002381F081E090E0A0E06E
:1029E000B0E0012E04C0880F991FAA1FBB1F0A94D4
:1029F000D2F7822B8093DB0610C041E050E060E00C
:102A000070E0012E04C0440F551F661F771F0A9403
:102A1000D2F7409542234093DB06812FDF91CF917F
:102A20001F910F91FF90DF90CF90BF90AF900C94CB
:102A3000DC226CE180E595E00E94171086FF75C0EE
:102A4000CE010E94010E882389F08AE893E00E945B
:102A50003013CE010E946A0E0E941C1180E893E0A0
:102A60000E943013CE010E94520E0CC0CE010E9473
:102A7000160E882391F083E793E00E943013CE0175
:102A80000E942B0EDF91CF911F910F91FF90DF904D
:102A9000CF90BF90AF900C948B1388EC91E00E9484
:102AA000A31060E170E08B810E9438248EEC91E0ED
:102AB0000E94A310CE010E946A0E0E941C1186ED96
:102AC00091E00E94A3108C8D8295869587709B8DD6
:102AD00040E1949F90011124822B8A836AE070E088
:102AE0000E94382484E693E00E9430138B8990E0A2
:102AF00025E0959587952A95E1F78C836AE070E04B
:102B00000E9438248BE593E00E94301380911406D4
:102B100090911506DF91CF911F910F91FF90DF905B
:102B2000CF90BF90AF900C940813DF91CF911F917D
:102B30000F91FF90DF90CF90BF90AF90089580E508
:102B400093E00C943013FF920F931F93CF93DF9376
:102B5000F82EC62F82EE91E00E94A310D0E0FE0175
:102B6000EE0FFF1FE858FD4F6AE070E08081918111
:102B70000E94701382EE91E00E94A31000E812E020
:102B80006AE070E0F801808191810E94701382EE0A
:102B900091E00E94A3102196BE01660F771FC60F19
:102BA000D71FCC0FDD1FCC5CDD4F888199816AE097
:102BB00070E081509F4F0E94701382EE91E00E945E
:102BC000A31028813981F80180819181A901481BD6
:102BD000590BCA016AE070E081509F4F0E94701348
:102BE00082EE91E00E94A3106AE070E08F2DDF91E9
:102BF000CF911F910F91FF900C9438240F931F9346
:102C0000CF938C01C62F60FF04C082EE91E00E943A
:102C1000A31080E891E00E94A310C8010E941C113B
:102C20008FED91E00E94A310C1FF07C082EE91E0FA
:102C3000CF911F910F910C94A310CF911F910F91E1
:102C4000089585E493E00C9430138BE393E00C94A7
:102C5000301380E393E00C9430138BE193E00C94F9
:102C6000301360E088E00E94BC0C8091AA020E94B0
:102C7000DF128091A9020E94DF1261E088E00C94CB
:102C8000BC0C2F923F924F925F926F927F928F92E5
:102C90009F92AF92BF92CF92DF92EF92FF920F93EB
:102CA0001F93CF93DF9300D01F92CDB7DEB7109262
:102CB000C70560E080E595E00E941710982F991FE6
:102CC0009927991F9093B702869581708093F1019F
:102CD00002EF11E07801B12C8B2D0E942211FC0132
:102CE000228130E0322F22278381282BF701219384
:102CF00031937F01B394F1E2BF12EECFE0906A020C
:102D0000F0906B026AE180E595E00E94C32090E0BC
:102D1000E816F90609F489C08BEAE82E82E0F82E5D
:102D2000212C312C99249394412C512C3201439421
:102D3000822CA0906A02B0906B02022C02C0B59463
:102D4000A7940A94E2F76AE180E595E00E94C32027
:102D500090E0022C02C0959587950A94E2F7A82688
:102D6000B926A0FE40C08091EE01282F30E0022C51
:102D700002C0359527950A94E2F7B301A201022C0F
:102D800004C0440F551F661F771F0A94D2F720FD19
:102D900004C0482B4093EE0104C0409584238093E7
:102DA000EE01F7018081882311F0108202C0F70143
:102DB00090828091EE0190E002C0959587958A946B
:102DC000E2F79091F101F8016081718180FF06C006
:102DD00081E0911180E00E94012405C081E0911101
:102DE00080E00E94CA23FFEF2F1A3F0A0E5F1F4F99
:102DF0002FEFE21AF20A8CE02816310409F098CF7E
:102E00006AE180E595E00E94C32090E090936B0218
:102E100080936A028091EE0190915905993128F0D2
:102E200090E09093270580932605E4E3AE2EE2E040
:102E3000BE2EBB82AA82F3E03F2E00E010E0A3E0AA
:102E40008A2E912C412C512C320143940983202E3F
:102E50006EEF630D80E595E00E94C32090E0EA816B
:102E6000FB81833091051CF09383828302C093829F
:102E700082826FEF630D80E595E00E94C32090E0B1
:102E8000EA81FB81833091051CF09583848302C025
:102E9000958284820430110508F476C0EE24E39410
:102EA000F12C022C02C0EE0CFF1C0A94E2F7809178
:102EB000A80290E08E219F21632D8E159F0569F554
:102EC0008091010190910201892B39F580E595E00F
:102ED0000E94C3208F3F09F057C08CE390E090938D
:102EE000020180930101D301C20104C0880F991F20
:102EF000AA1FBB1F2A94D2F780959091A80289231C
:102F00008093A80280918E028823F1F10E949F1580
:102F100085E792E00E94511337C080E595E00E945A
:102F2000C320282F30E0EA81FB813783268381503C
:102F30008E3F50F110920201109201018091A8027F
:102F4000E82AE092A8028091A7022F3F310511F4F0
:102F50008F7701C080688093A70280918E028823BA
:102F600059F00E949F158FE093E00E9430136AE0B1
:102F700070E089810E943F24EFE8F2E01192119203
:102F800022E0E73AF207D1F70F5F1F4F83E0380ED8
:102F9000EA81FB813696FB83EA83FBE13F1256CF41
:102FA00048E7842E42E0942E5FE8E52E52E0F52EAD
:102FB000212C312C412C512C3201439462E2620DC0
:102FC00080E595E00E94C32090E0F4018193919305
:102FD0004F0181010F5F1F4F602F660F600F80E56B
:102FE00095E00E94C320282F30E0F5013783268327
:102FF00081508E3FD0F0D301C20104C0880F991FC9
:10300000AA1FBB1F2A94D2F72091A802822B80937B
:10301000A802F7011182108288E093E00E94301329
:103020000E942916C8010E940813F6E0AF0EB11CD9
:1030300022E0E20EF11C18010430110509F0BECFA8
:1030400066E280E595E00E94C32090E090938102C3
:103050008093800261E280E595E00E94C32090E0C9
:10306000909377028093760267E280E595E00E9474
:10307000C32090E090938302809382023EE6E32E89
:1030800032E0F32E01E111E0A12CB12C6DE16A0DCB
:1030900080E595E00E94C32090E0F7018193919331
:1030A0007F0180918202909183020A2C02C0959543
:1030B00087950A94E2F780FF02C062E001C061E0F8
:1030C000F80180810E94EC0CFFEFAF1ABF0A0F5F7E
:1030D0001F4F24E0A216B104C9F684E8A82E82E0AE
:1030E000B82E9CED892E96E0992E2CE2E22E22E05D
:1030F000F22E18E2612F80E595E00E94C32090E057
:10310000F501819391935F01F401892B19F080817E
:10311000806402C080818F7B8083F70181919191CF
:103120007F01F401892B19F08081806202C08081C7
:103130008F7D80831F5FFFEF8F1A9F0A1C32D1F6AD
:103140000E94BE236DE280E595E00E94C32090E0DE
:1031500090938F0280938E026CE180E595E00E944F
:103160001710881F8827881F80938E028823C1F03C
:103170006CE180E595E00E9417108F708093F0015C
:103180006CE180E595E00E94171090918E0285FB1E
:10319000CC24C0F8D12CC90ED11CC0928E0202C022
:1031A0001092F0010F900F900F90DF91CF911F912F
:1031B0000F91FF90EF90DF90CF90BF90AF909F90D6
:1031C0008F907F906F905F904F903F902F900895D9
:1031D000CF92DF92EF92FF920F931F93CF93DF93E3
:1031E0001F92CDB7DEB7C82E8B0187E992E04983E5
:1031F0000E943013D12C6AE070E0C60101960E9453
:103200007013760124E0E20EF11CF701EE0FFF1FB0
:10321000EE50FE4F63E0808191810E94FE1549814E
:10322000442319F088E891E002C084E891E00E940C
:10323000A31080916A0290916B0202C095958795C8
:10324000EA94E2F780FD0E94251680918E02882381
:1032500009F46DC081EE91E00E94A310760135E083
:10326000E30EF11CC701880F991FE80EF91EEE0C42
:10327000FF1CF701EC5CFD4F808191819C01207463
:10328000332787FF19C0232B61F08F73992746E0FE
:10329000489F9001499F300D1124C9018B539E4FC7
:1032A00015C08F7799279C01220F331F220F331FE0
:1032B000C9018D539F4F0AC0232B41F08F7399276B
:1032C0009C01220F331FC9018F5B9F4F6AE070E0A2
:1032D0000E947013F701EC5CFD4F63E080819181E7
:1032E0000E94FE15C601880F991FFC01EF54F94F8B
:1032F0007F016AE070E0808191810E94701382EE0C
:1033000091E00E94A3106AE070E0C8010E9470136F
:1033100082EE91E00E94A310F701808191816AE022
:1033200070E09801281B390BC9010E94701381ECD1
:1033300091E00F90DF91CF911F910F91FF90EF904F
:10334000DF90CF900C949B13BF92CF92DF92EF92BD
:10335000FF920F931F93CF93DF93B090DA06CB2C9D
:10336000D12CE6012196C370DD27F601E75FFE4F01
:1033700080810E94280D8C019601220F331FF901D4
:10338000EF54F94F808191817801E81AF90AB11060
:103390000AC08091D90690E0019663E070E00E9437
:1033A000F8388093D9068091D906F901EC0DFD1DFE
:1033B000E80FF11DEE0FFF1FEF53F94FF182E0828E
:1033C00086E08C9DF0018D9DF00D1124EF53F94F97
:1033D000E080F1808281938124813581E816F906AD
:1033E00044F4E216F3066CF47901821793074CF467
:1033F00007C02E153F052CF47901281739070CF466
:103400007C0120910101309102012C33310508F03B
:103410006CC044E0C40ED11C8091A80290E00C2C3A
:1034200002C0959587950A94E2F780FF5EC01E144E
:103430001F0464F4C601880F991FFC01E157FD4F7A
:10344000808191818E0D9F1D918380832F5F3F4FDF
:10345000309302012093010180918E02882309F4A8
:1034600044C088E093E00E9430138091DA0690E037
:103470006AE070E001960E94701382EE91E00E9473
:10348000A3100E94450D4AE050E00E940D1182EE0B
:1034900091E00E94A31062E070E08091A8020E9477
:1034A000382482EE91E00E94A3106AE070E08091DF
:1034B0000101909102010E94701382EE91E00E943E
:1034C000A3106AE070E0C7010E94701382EE91E0E1
:1034D0000E94A310E091DA06F0E0EE0FFF1FE9561C
:1034E000FD4F808191810E948B138091DA0690E0DC
:1034F00005962091F00130E08217930709F0C2C0D1
:1035000084EE91E00E94A3108091DA0690E06AE0D8
:1035100070E001960E94701382EE91E00E94A31069
:10352000E091DA06F0E0E452F94F8081881F8827A5
:10353000881F6AE070E090E00E94701382EE91E0D4
:103540000E94A3100E94450D4AE050E00E940D1118
:1035500082EE91E00E94A3106AE070E08091EE019B
:103560000E94382482EE91E00E94A310E091DA06D6
:10357000F0E0EE0FFF1FEF54F94F6AE070E080813A
:1035800091810E94701382EE91E00E94A3106AE084
:1035900070E0C8010E94701382EE91E00E94A310B7
:1035A000E091DA06F0E0EE0FFF1FE754F94F6AE012
:1035B00070E0808191810E94701382EE91E00E9400
:1035C000A3108091DA0690E00596FC01EE0FFF1F34
:1035D000E80FF91FEE0FFF1FEC5CFD4F808191811A
:1035E0009C012074332787FF17C0232B61F08F7352
:1035F000992746E0489F9001499F300D1124C90149
:103600008B539E4F11C08F779927880F991F880F72
:10361000991F8D539F4F08C0232B31F08F7399272B
:10362000880F991F8F5B9F4F6AE070E00E947013B4
:103630008091DA0690E00596FC01EE0FFF1FE80F7F
:10364000F91FEE0FFF1FEC5CFD4F63E0808191815D
:103650000E94FE15E091DA06F0E0EE0FFF1FEF5436
:10366000F94F808191816AE070E0F801E81BF90B65
:10367000CF010E94701382EE91E00E94A310C70157
:103680000E9408138091DA06282F30E0F901E452F5
:10369000F94F908197FF4FC1A9014B5F5F4FBA016E
:1036A000660F771F640F751FFB01EE0FFF1FEC5CA9
:1036B000FD4F40815181FA01E074FF2747FF17C099
:1036C000EF2B61F04F73552796E0949FF001959F83
:1036D000F00D1124AF014B535E4F11C04F775527AA
:1036E000440F551F440F551F4D535F4F08C0EF2B1C
:1036F00031F04F735527440F551F4F5B5F4FF90152
:10370000EE0FFF1F4E155F050CF081C0E754F94F17
:103710004081518157FF05C081E090E09183808313
:103720003CC12C5F3F4F660F771FDB01A05DBD4F93
:103730006D917C914617570709F42FC14F5F5F4F7A
:10374000518340834617570709F027C140916A0209
:1037500050916B02022E02C0559547950A94E2F7EC
:103760009091EE0140FF1FC0492F50E0022E02C091
:10377000559547950A94E2F740FD0FC141E050E0AE
:1037800060E070E0022E04C0440F551F661F771FD3
:103790000A94D2F7492B4093EE01F901E555FD4F0C
:1037A00091E090831EC0492F50E0022E02C0559533
:1037B00047950A94E2F740FFF0C041E050E060E036
:1037C00070E0022E04C0440F551F661F771F0A9435
:1037D000D2F7409594239093EE01F901E555FD4F02
:1037E000108241E0B8010E94E8188091DA0690E06A
:1037F00004962091EE0130E0082E02C03595279501
:103800000A94E2F7880F991F3091F10177C0AF0158
:103810004754594F6A01FA01A081B1811A161B065B
:103820001CF411821082B9C0EE24FF24EA1AFB0AAC
:103830002C5F3F4F660F771F6E5C7D4FFB01408111
:10384000518147FF08C04F775527405E5F4F440FB7
:10385000551F440F551FE416F50609F49EC0BD011F
:1038600061507109F6017183608361E070E06A1B49
:103870007B0B6417750709F090C040916A02509164
:103880006B02022E02C0559547950A94E2F790917B
:10389000EE0140FFC8C0492F50E0022E02C05595EE
:1038A00047950A94E2F740FF78C041E050E060E0BD
:1038B00070E0022E04C0440F551F661F771F0A9444
:1038C000D2F7409549234093EE01F901E555FD4FAC
:1038D000108240E0B8010E94E8188091DA0690E07A
:1038E00004962091EE0130E0082E02C03595279510
:1038F0000A94E2F73091F101880F991FFC01EE5014
:10390000FE4F6081718181E020FF05C0311180E0B0
:103910000E94012404C0311180E00E94CA238091DA
:10392000EE01909159059931C0F190E090932705EF
:103930008093260532C089010C5F1F4F8091EE01F4
:1039400090E0002E02C0959587950A94E2F780FFDB
:1039500024C0F801EE0FFF1FEE50FE4F6081718111
:1039600081E09091F101911180E00E94CA2381E0F1
:1039700090E0A0E0B0E0002E04C0880F991FAA1FBD
:10398000BB1F0A94D2F780959091EE018923809312
:10399000EE01F801E555FD4F1082C093DA06FE01F5
:1039A000E75FFE4F80810E94280DFE01EE0FFF1F92
:1039B000EF54F94F91838083FE013196E370FF2726
:1039C000EB5EFE4F81E090E0A0E0B0E0AC01BD0115
:1039D000048404C0440F551F661F771F0A94D2F752
:1039E000CB5EDE4F0C8404C0880F991FAA1FBB1F3B
:1039F0000A94D2F7809590952091A9023091AA025D
:103A000082239323482B592B5093AA024093A90257
:103A1000DF91CF911F910F91FF90EF90DF90CF90AA
:103A2000BF900C943116492F50E0022E02C05595DC
:103A300047950A94E2F740FDB0CFC12CD12C760116
:103A4000C394022E04C0CC0CDD1CEE1CFF1C0A9497
:103A5000D2F7C92AC092EE01F901E555FD4F91E078
:103A6000908337CF4F925F926F927F92AF92BF92C7
:103A7000CF92DF92EF92FF920F931F93CF93DF933A
:103A80008FE09FEF9093AA028093A9020E943116C3
:103A900062E370E080E090E00E946A0D84E3E82E2B
:103AA00082E0F82E9FE8C92E92E0D92E14E0C0E003
:103AB000D0E0AA24AA94B12C412C512C3201439479
:103AC0000C2F2196F701B782A6826FEF812F0E94FB
:103AD0005D13D301C20104C0880F991FAA1FBB1F29
:103AE0000A95D2F72091A802822B8093A802F601B2
:103AF000119211926F01CE010E940813F6E0EF0EB1
:103B0000F11C1D5FC430D105D9F61092AA021092A3
:103B1000A902DF91CF911F910F91FF90EF90DF905D
:103B2000CF90BF90AF907F906F905F904F9008952F
:103B30004F925F926F927F928F929F92AF92BF92BD
:103B4000CF92DF92EF92FF920F931F93CF93DF9369
:103B50001F92CDB7DEB781EC91E00E949B1342EF3C
:103B6000C42E41E0D42E04E312E058E7A52E52E023
:103B7000B52E2801E12CF12C64E1762E0E94291645
:103B800047012FEF821A920A6AE070E0C4010E9496
:103B9000701383E791E00E94A310F6018191919147
:103BA0006F010E941C118CEF93E00E943013F20110
:103BB0008281938101966AE070E09C01729EC0014F
:103BC000739E900D11240E94701362E0F2018281B5
:103BD00093810E94FE1582E094E00E943013F2016E
:103BE0008481958101966AE070E09C01729EC0011B
:103BF000739E900D11240E94701362E0F201848183
:103C000095810E94FE158FE794E00E943013F20127
:103C1000868197816AE070E081509F4F0E94701307
:103C200062E0F201868197810E94FE1588E794E0A8
:103C30000E94301380917602909177020E2C02C080
:103C4000959587950A94E2F76AE070E0817099276C
:103C50000E94701380E791E00E94A310F4E0EF0E41
:103C6000F11C809176029091770202C0959587951C
:103C7000EA94E2F76AE070E0817099270E9470137D
:103C80008FE694E00E943013F201868197812091A3
:103C9000800230918102821B930B6AE070E08150B8
:103CA0009F4F0E94701386E694E00E9430136AE0F2
:103CB00070E0F501819191915F010E94701361E0C4
:103CC000F601808991890E94FE1581EC91E00E94A5
:103CD0009B13F6E04F0E511C740124E082169104F0
:103CE00009F04CCF81EC91E00E949B138AEFA82E43
:103CF00081E0B82E9CEDC92E96E0D92E24E8622EE4
:103D000022E0722EE12CF12C36E0932E87E992E02E
:103D10000E9430138E2C3FEFE31AF30A6AE070E042
:103D2000C7010E94701383E791E00E94A310F50180
:103D3000819191915F010E941C118CEF93E00E9490
:103D40003013F801828D938D01966AE070E0880F40
:103D5000991F880F991F0E94701362E0F801828DED
:103D6000938D0E94FE1582E094E00E943013F801CA
:103D7000848D958D87FF0AC08F779927A4E0880FDF
:103D8000991FAA95E1F78C5F9D4F05C00196880F9A
:103D9000991F880F991F6AE070E00E94701362E01B
:103DA000F801848D958D0E94FE158CE594E00E94AB
:103DB0003013F801868D978D9C012074332787FF7F
:103DC00016C0232B59F08F739927989E9001999EC6
:103DD000300D1124C9018B539E4F11C08F77992745
:103DE000880F991F880F991F8D539F4F08C0232B51
:103DF00031F08F739927880F991F8F5B9F4F6AE06F
:103E000070E00E94701360E0F801868D978D0E942B
:103E1000FE15F601808186FFA9C080E594E00E942E
:103E20003013F3018081918184FB442740F9282FCE
:103E30002170420F423099F49C012670332735954A
:103E400027952F5F3F4F8076992765E09595879559
:103E50006A95E1F701962817390721F402C0442337
:103E600071F141E08AE494E049830E943013F30148
:103E700080819181498180FD10C0F3018081918111
:103E800080769927B5E095958795BA95E1F76AE030
:103E900070E001960E94701312C086709927959564
:103EA00087956AE070E0019649830E94701349810A
:103EB000423029F482E891E00E94A310DECFF301A2
:103EC0008081918187FB222720F983FB442740F9D9
:103ED000420F423099F49C0126703327359527957F
:103EE0002F5F3F4F80769927F5E095958795FA9556
:103EF000E1F701962817390721F402C0442381F124
:103F000041E084E494E049830E943013F30180810E
:103F10009181498183FD10C0F30180819181807678
:103F2000992775E0959587957A95E1F76AE070E0B5
:103F300001960E94701314C08670992795958795F5
:103F40006AE070E0019649830E9470134981423013
:103F500029F482E891E00E94A310DECF4130E1F61F
:103F600061E0F301808191810E94FE15F60181914B
:103F70006F0185FF20C086FF11C080918E02909155
:103F80008F0202C0959587958A94E2F780FF03C05F
:103F90008FE394E005C089E394E002C08EE294E0F0
:103FA0000E94301387E294E00E943013F50180A94B
:103FB00091A90E941C1181EC91E00E949B130A5F61
:103FC0001F4FF2E06F0E711C24E0E216F10409F0BD
:103FD0009DCE81EC91E00E949B133CE0E32E32E009
:103FE000F32E0EE612E0612C712C44E1A42E50E574
:103FF000B52E0E942116962C3FEF631A730A6AE0D1
:1040000070E0C3010E94701383E791E00E94A31047
:10401000F701819191917F010E941C118CEF93E037
:104020000E9430136801F80120813181207F3327FD
:1040300094E0359527959A95E1F7A29EC001A39E3D
:10404000900D11246AE070E00A960E947013F80146
:1040500080819181807F992762E024E09695879501
:104060002A95E1F70E94FE1582E094E00E94301349
:10407000F801219131918F012F703327B29EC00139
:10408000B39E900D11246AE070E044960E94701374
:10409000F6018081918162E08F7099270E94FE1560
:1040A00083E294E00E943013809182029091830217
:1040B00002C0959587959A94E2F7817099270E949E
:1040C0000813F4E06F16710409F093CF81EC91E0CE
:1040D0000E949B1387EE91E00E94A3108091B7028B
:1040E000882329F080E194E00E9451131FC087E0EB
:1040F00094E00E94511304E112E0EE24E394F12CC9
:104100006AE070E0C7010E94701383E791E00E94AB
:10411000A310F801819191918F010E948B13FFEF01
:10412000EF1AFF0A2DE0E216F10451F781EC91E05D
:104130000F90DF91CF911F910F91FF90EF90DF9043
:10414000CF90BF90AF909F908F907F906F905F9037
:104150004F900C949B1323E431E0FC0131832083C6
:1041600082819381009711F00C94A7390895CF9321
:10417000DF93EC010E94AB20CE01DF91CF910C9434
:10418000A7390C94A739FC01128E8185681728F491
:10419000862F90E049960C94970E8FEF828F0895AA
:1041A000BF92CF92DF92EF92FF920F931F93CF9324
:1041B000DF93DC01252F3327162FC72EDD240C2D8E
:1041C0001796BC901797ECEEF3E090E07727552711
:1041D0009B1551F1011102C0112379F0E080F180AB
:1041E000CE14DF04F1F47F0182E4E80EF11CE70154
:1041F000E880F9806E157F05A1F47F01D4E8ED0E0B
:10420000F11CE701E880F9802E153F0551F47F018C
:10421000D6ECED0EF11CE701E880F9804E155F0544
:1042200041F09F5F3296D4CF1A969C9181E0890F1E
:1042300001C0892FDF91CF911F910F91FF90EF90D7
:10424000DF90CF90BF900895AF92BF92CF92DF9250
:10425000EF92FF921F93CF93DF93DC011A961C918C
:10426000411718F081E0810F4EC0142FFB017C0133
:10427000242F30E0D901AA0FBB1FA451BC4F80816D
:1042800090E08D939C93D901AA0FBB1FA25DBB4FF9
:10429000818190E08D939C93D901AA0FBB1FA059F7
:1042A000BB4F828190E08D939C93D901AA0FBB1FD5
:1042B000AE54BB4F838190E08D939C93D7011B96A6
:1042C0008C911B9790E00496289F6001299FD00C49
:1042D000389FD00C11241D968D919C911E97C80E6D
:1042E000D91E5B01B4E0AB0EB11CEB01C61AD70AB4
:1042F000B6016C0F7D1F4991C7010E94990ECA1526
:10430000DB05B1F7812FDF91CF911F91FF90EF90E7
:10431000DF90CF90BF90AF900895FC0180E090E0D7
:10432000238530E0821793073CF4A281B381A80F64
:10433000B91F1C920196F4CF80E68483158284EC29
:1043400086831782148A0895EF92FF920F931F932A
:10435000CF93DF9300D000D0CDB7DEB78C010E94A1
:104360008D21F8018285878319821A8282E58B83E9
:1043700088E08C83E12CF12CF801828590E0E8162E
:10438000F90634F5F8E0EF16F10419F429E0E22E0D
:10439000F12C0497E816F90614F01B821C824E2DAE
:1043A000BE016F5F7F4FC8010E9424218C818F5F07
:1043B0008C83811103C08B818F5F8B8320E040E071
:1043C000B701C8010E94F30E2FEFE21AF20AD4CF10
:1043D00019821A8282E18B8387E68C8348E0BE01D2
:1043E0006F5F7F4FC8010E94242120E040E068E019
:1043F00070E0C8010E94F30E42E860E0C8010E942C
:10440000271040E069E1C8010E94271040EF6AE1EF
:10441000C8010E942710FF24F39444E06F2DC801C7
:104420000E94271061E06F0D41E3C8010E94271030
:1044300062E06F0D4FEFC8010E942710F3E0FF0EFE
:104440002DE0F212EACF44E06F2DC8010E94271040
:1044500061E06F0D4CE7C8010E94271062E06F0D0C
:104460004EE1C8010E94271083E0F80EE9E1FE1238
:10447000EACF40E66BE1C8010E94271040E06CE102
:10448000C8010E94271082E2F82E42E36F2DC80176
:104490000E9427106BEF6F0D46E3C8010E942710A2
:1044A000F394F6E2FF12F1CF4FE061E2C8010E94FF
:1044B000271046E066E2C8010E9427104FE067E23D
:1044C000C8010E94271040E068E2C8010E9427103E
:1044D00040E069E2C8010E94271040E06AE2C8019A
:1044E0000E94271040E06BE2C8010E94271040E0C4
:1044F0006CE2C8010E9427104DE560E070E0C80141
:104500000E94990EF801448162E170E0C8010E94A6
:10451000990EF801458163E170E0C8010E94990E8F
:10452000F801468164E170E0C8010E94990EF8012B
:10453000448965E170E0C8010E94990EF801478145
:1045400067E170E0C8010E94990EF801438568E1B7
:1045500070E0C8010E94990E60E08DEF93E00E9428
:10456000950E60E08EEF93E00E94950E60E08FEF75
:1045700093E00E94950EC8010E94290F0F900F90A2
:104580000F900F90DF91CF911F910F91FF90EF90BF
:1045900008952BE531E0FC0121933193CF010C9478
:1045A000AB20CF93DF93EC010E94C922CE01DF91B3
:1045B000CF910C94A7390895282F30E0F901E452E7
:1045C000F94F908196FFA4C0220F331FD901AC5739
:1045D000BD4F4D915C9140FF1BC020917602309100
:1045E0007702082E02C0359527950A94E2F720FF3E
:1045F0000FC02091EF0130E0BA0166707727759502
:10460000679502C0359527956A95E2F7217001C03C
:1046100020E143FF1BC06091820270918302082E4B
:1046200002C0759567950A94E2F760FF0FC0DA0142
:10463000A670BB27B595A795A555BD4F18963C917B
:10464000332311F0226003C02D7F01C0206244FF9C
:1046500022C06091760270917702082E02C0759593
:1046600067950A94E2F760FF16C06091EF0170E071
:10467000DA01A076BB2735E0B595A7953A95E1F725
:1046800002C075956795AA95E2F760FF02C02460A5
:1046900003C02B7F01C0206447FF1EC060918202CF
:1046A00070918302082E02C0759567950A94E2F70F
:1046B00060FF12C0DA01A076BB2735E0B595A7955B
:1046C0003A95E1F7A555BD4F18963C91332311F06B
:1046D000286003C0277F01C02068322F3073303339
:1046E00019F0322F337011F0926001C09D7F9083DA
:1046F000922F907C903C11F02C7019F09081946076
:1047000002C090819B7F90839081292F267011F0A9
:1047100096609083908195FF0DC02091DB0630E07C
:10472000082E02C0359527950A94E2F720FD02C0B5
:104730009E7F01C0916090839081292F2770273040
:1047400019F4906890830895292F2F772083409142
:104750008E0250918F0202C0559547958A95E2F7D7
:1047600040FD0BC096FF04C0892F8670863019F07B
:104770009172913211F420682083089580E00E94A4
:10478000DC2281E00E94DC2282E00E94DC2283E0C5
:104790000C94DC221F93CF93DF938823C1F0EB01AD
:1047A0006BE180E595E00E941710182F6BE180E522
:1047B00095E00E94171081E980938305109284058B
:1047C00010938505D0938605C09387050FC080910F
:1047D000B2059091B30529E9209383059093840550
:1047E00080938505709386056093870510928805F0
:1047F0001092890510928A05DF91CF911F910C9438
:10480000AE121F93CF93DF938823C1F0EB016BE1CE
:1048100080E595E00E941710182F6BE180E595E088
:104820000E94171080E980938305109284051093ED
:104830008505D0938605C09387050FC08091B2058A
:104840009091B30528E92093830590938405809384
:1048500085057093860560938705109288051092F0
:10486000890510928A05DF91CF911F910C94AE12A9
:10487000AB01682F70E080E090E00C940D11CF93B5
:10488000DF93AB01682F70E080E090E00E940D1193
:10489000EC010E9404138C0F9D1FDF91CF910895AE
:1048A000CF93C82F482F60EE8FE00E9479118FE0E0
:1048B0000E945C11807E91E08C1301C090E0892FF2
:1048C000CF91089580918E05823721F08C3911F0B7
:1048D000853B19F48091A1050895853F19F48091D5
:1048E000A3050895823F19F48091A505089580E0FD
:1048F000089580918E058C3911F0853B19F48091D3
:10490000A2050895823B11F0823D19F48091A30520
:104910000895853F19F48091A405089580E00895D5
:10492000CF93DF93CEE4D5E09F838887492F63E15F
:1049300070E080E595E00E94990E488564E170E0A2
:1049400080E595E0DF91CF910C94990ECF93DF93A2
:10495000CDB7DEB728970FB6F894DEBF0FBECDBF38
:1049600010929A068093C50584E090E09093150616
:104970008093140682E08093800583E08093810514
:104980006091B10570E080E090E09E012F5F3F4FA5
:10499000F90148E0420F11924E13FDCF41E04093E0
:1049A000790540E00E94C411109279050E94A40D7F
:1049B0006093160670931706809318069093190655
:1049C00028960FB6F894DEBF0FBECDBFDF91CF9112
:1049D0000895EF92FF920F931F93CF93DF931F924F
:1049E000CDB7DEB7182FF62EE42E60E080917B0560
:1049F00079830E94BC0C83E00E94FA0D812F0E94F3
:104A0000FA0D0F2D7981172FF12CFE1459F0F8E0D3
:104A1000FF1641F080E00E94FA0DF80181938F01AA
:104A2000F394F3CF61E080917B050F90DF91CF91FC
:104A30001F910F91FF90EF900C94BC0C0F931F935C
:104A4000CF93DF9300D000D0CDB7DEB7182F1092F0
:104A50006B0510926C0510926D0510926E05109208
:104A60006F0544E0BE016F5F7F4F0E94E9248A8199
:104A70009981482F50E065E0559547956A95E1F793
:104A800028E0929F400D511D1124052E000C660B4D
:104A9000770B40936C0550936D0560936E05709392
:104AA0006F0583FF29C092E0440F551F661F771FD3
:104AB0009A95D1F78370480F511D611D711D762F96
:104AC000652F542F44278B81480F511D611D711D87
:104AD000762F652F542F44278C81480F511D611D5F
:104AE000711D40936C0550936D0560936E05709336
:104AF0006F0581E080936B058FEF810F0E945C1141
:104B0000082F84E0810F0E945C11482F03FF04C02E
:104B100081E08093790502C0109279054F7040932F
:104B2000700561E775E085E0810F0E94E9240F9030
:104B30000F900F900F90DF91CF911F910F910895DB
:104B40001F93CF93DF93CEE4D5E060E08DA50E9464
:104B5000BC0C80EA0E94FA0D80E00E94FA0D182F2A
:104B600061E08DA50E94BC0C812FDF91CF911F9138
:104B70000895CF93DF9300D01F92CDB7DEB778941E
:104B800084B5826084BD84B5816084BD85B5826052
:104B900085BD85B5816085BD80916E008160809303
:104BA0006E0010928100809181008260809381006C
:104BB000809181008160809381008091800081607C
:104BC000809380008091B10084608093B1008091D7
:104BD000B00081608093B00080917A0084608093FF
:104BE0007A0080917A00826080937A0080917A00C6
:104BF000816080937A0080917A00806880937A0047
:104C00001092C1000E94A40D683E73408105910579
:104C1000C8F361E088E00E94EC0C61E087E00E944C
:104C2000EC0C61E089E00E94EC0C0E94311683E0FC
:104C30008093000101E111E079E0C72E71E0D72EE9
:104C4000E4E0FE2EFC0C60E0D6018D916D010E9427
:104C5000EC0C62E0F80181918F010E94EC0CFC10D9
:104C6000F2CF60E083E10E94EC0C60E082E10E9400
:104C7000EC0CE0915F03F091600382E08083E091AF
:104C80005B03F0915C031082E0915D03F0915E03A1
:104C900080E1808310926703E0916303F0916403E5
:104CA00086E08083E0916103F091620380818061FE
:104CB0008083E0916103F09162038081886080834A
:104CC000E0916103F0916203808180688083E091CC
:104CD0006103F091620380818F7D80838FEF91E08B
:104CE0000E9430136AE070E081E090E00E9470134F
:104CF0008FE591E00E94A31085E090E00E940813E8
:104D000081EC91E00E949B1382ED91E00E9451138F
:104D100082E891E00E94511381EC91E00E949B1384
:104D20008DE691E00E94511381EC91E00E949B136B
:104D300062E08AE00E94EC0C62E08BE00E94EC0CE6
:104D400062E08CE00E94EC0C8AE00E94930C892BBC
:104D500061F48BE00E94930C892B39F48CE00E9463
:104D6000930C892B11F40C946B34A4EBB5E0FD018A
:104D7000119205E0EC3BF007D9F7E1E6F1E0819113
:104D80008D9311E0E836F107D1F78DE58093BD05ED
:104D90008DE08093BC0585E38093BF0581E080931F
:104DA000C0058091BE0583608093BE0584EC90E0D1
:104DB000A0E0B0E08093C8059093C905A093CA0510
:104DC000B093CB0587EA93E190939C0680939B0672
:104DD0008AE080937B0561E00E94EC0C61E08091A9
:104DE0007B050E94BC0C44E1842E912C53EBA52E34
:104DF00050E0B52E6FE9E62E60E0F62EDFB6F894AF
:104E00008091C002811125C0F5018491F7012491A0
:104E100090E0880F991F85579F4FFC01A591B49191
:104E20008C91282321F461E08AE00E94BC0C61E0AF
:104E30008AE00E94EC0C8CB580618CBD8CB58064DE
:104E40008CBD61E08DE00E94EC0C61E08BE00E9483
:104E5000EC0C8091C0028F5F8093C002DFBE60E0E7
:104E600080917B050E94BC0C80EC0E94FA0D61E0F1
:104E700080917B050E94BC0C6AE070E080E090E0CD
:104E80000E946A0D80E80E945024882391F06AE015
:104E900070E080E090E00E946A0D6EE170E080E0DA
:104EA00090E00E946A0DF1E08F1A910809F0A6CFF8
:104EB0004BC06AE070E080E090E00E946A0D61E023
:104EC0008AE20E94A71161EB89E20E94A71165E0C6
:104ED00088E20E94A7116AE070E080E090E00E9402
:104EE0006A0D10E360E0812F0E94A71160E080E16D
:104EF000810F0E94A71160E080E2810F0E94A7113C
:104F00001F5F1E3379F760E080E60E94A71160E022
:104F100080E70E94A71163E08BE20E94A71144E0A2
:104F200064E680E60E94791140E060E680E70E9436
:104F3000791180E00E9450248111A9CF6AE070E0CD
:104F400080E090E00E946A0D8FEF8093A8066CE1EC
:104F500080E595E00E94171086FD05C080918E02C5
:104F60008111B9C1A8C180E595E00E94290F81E4B3
:104F700091E00E9451138AE391E00E94301380E097
:104F800090E00E94970E6AE070E00E94382481E36E
:104F900091E00E9430136AE070E0809154050E9415
:104FA00038248CE291E00E9430138091550590E006
:104FB000982F882720915605822B90936605809321
:104FC00065050E941C1184E291E00E9430136AE0A2
:104FD00070E0809164050E94382487E191E00E948E
:104FE00030136AE070E0809157050E94382485E014
:104FF00091E00E9430136AE070E080915B050E94AE
:10500000382489EF90E00E9430136AE070E08091CC
:1050100059050E94382489E691E00E94A3106AE0B5
:1050200070E089E190E00E94701380E791E00E94B7
:10503000A3108091590590E06AE070E048960E94C4
:10504000701382E791E00E94A31010E0809159054F
:10505000181778F4812F90E049960E94970E60E12E
:1050600070E00E94382487EF90E00E9430131F5FA9
:10507000EDCF86EE90E00E9430136AE070E080E1B0
:1050800090E00E94701386E791E00E94A3106AE00E
:1050900070E082E090E00E94701380E791E00E944F
:1050A000A3106AE070E081E190E00E94701382E753
:1050B00091E00E94A31002E010E0C8010E94970E48
:1050C00060E170E00E94382484EE90E00E9430138A
:1050D0000F5F1F4F0231110581F786ED90E00E94AE
:1050E00030136AE070E080915C050E9438248CE700
:1050F00091E00E94A3106AE070E080915F050E9439
:10510000382480E791E00E94A31020915F058091F0
:105110005C0590E00197880F991F820F911D6AE04E
:1051200070E001960E94701382E891E00E94A31043
:105130006AE070E082E090E00E94701382E791E004
:105140000E94A31010E080915C05181718F5E12E5D
:10515000F12CEE0CFF1C80915F056701C80ED11C7D
:10516000C6010E94970E60E170E00E943824809191
:105170005F059701280F311DC90101960E94970E06
:1051800060E170E00E94382484ED90E00E943013CA
:105190001F5FD9CFC0905D05D0905E058BEC90E08D
:1051A0000E9430136AE070E080915A050E94382412
:1051B0008CE791E00E94A3106AE070E0C6010E94B3
:1051C000701380E791E00E94A31080915A05A60118
:1051D00064E0869F400D511D1124CA016AE070E011
:1051E00001970E94701382E891E00E94A3106AE088
:1051F00070E084E090E00E94701382E791E00E94EA
:105200009B1310E080915A05181708F0A7CE76017D
:10521000B4E0EB0EF11CC6010E94970E60E170E055
:105220000E9438247FEFC71AD70A89EC90E00E94C9
:105230003013CE14DF0479F787EC90E00E9430132E
:10524000C12ED12CCC0CDD1CA12CB12CF501EC0D08
:10525000FD1DE451FC4F60E170E0808191810E946E
:10526000701385EC90E00E94301382E4A80EB11C0C
:1052700098E0A91691E0B90649F78FEB90E00E94FB
:105280003013670190915B058C2D8E19891778F486
:10529000C6010E94970E60E170E00E943824AFEFD3
:1052A000CA1ADA0A8DEB90E00E943013EBCF0E940D
:1052B00004131F5FA7CF1092A00681E08093A10680
:1052C00061E080E00E94EC0C8091A1068F3F19F014
:1052D00061E00E94EC0C0E9441160E94981D83E53B
:1052E00091E00E945113FDE0AF2EF1E0BF2E01E0EE
:1052F00010E0F50191905F01892D0E94280D3C017D
:105300007C01F2E0EF16F10474F1892D0E94280D62
:105310006C019301281B390B37FF03C03195219590
:10532000310979016AE070E080E090E00E946A0D46
:1053300080918E028823A9F06AE070E0C8010E9483
:10534000701386EC91E00E94A3106AE070E0C60141
:105350000E94701382EE91E00E94A310C7010E9488
:1053600008133601CECF0F5F1F4F0530110509F628
:1053700081EC91E00E949B138DE491E00E94511317
:1053800081EC91E00E949B1322242394312C412C28
:10539000512C320143940E94450D6093BC027093DE
:1053A000BD028093BE029093BF0200914203109110
:1053B000430320914403309145036B017C01C01AE3
:1053C000D10AE20AF30A49EEC41643E0D406E10426
:1053D000F10448F40E946F028091C7058823C1F14F
:1053E0000E94411635C0609342037093430380933B
:1053F00044039093450310E001E00E94A0258370D0
:1054000019F10C946F3480917C0580938A06809109
:105410007D0580938B0680917E0580938C0680911C
:105420007F0580938D0640938806809179058111D0
:105430000C949E341092890680910E0690910F066E
:10544000892B11F40C94A234113021F211E0D5CF44
:105450008091B8029091B902A091BA02B091BB02BA
:105460000097A105B10509F49FC0C090BC02D0907F
:10547000BD02E090BE02F090BF02C81AD90AEA0A43
:10548000FB0A4091B2055091B30520E137E2429FFB
:10549000C001439F900D529F900D1124A0E0B0E0F9
:1054A0008C159D05AE05BF0508F07EC062EFA62EE7
:1054B00061E0B62EC12CD12C8091EE0190E00C2C35
:1054C00002C0959587950A94E2F72091F1017C013D
:1054D000A1E0EA22FF2480FF09C0F501608171810B
:1054E00081E0211180E00E94012408C0D5016D9166
:1054F0007C9181E0211180E00E94CA2380918E027C
:1055000086010F5F1F4F882399F180916A02909165
:105510006B0202C095958795CA94E2F780FF03C09D
:10552000EF2819F405C0EF2819F484E891E002C0CF
:1055300088E891E00E94A3108DE192E00E94301370
:105540006AE070E0C8010E94701382EE91E00E9450
:10555000A310F501808191810E941C1183E192E0EA
:105560000E9451136AE070E080E090E00E946A0DB2
:105570006801F2E0AF0EB11C0CE0C016D10409F0D6
:105580009BCF8091EE0190915905993128F090E0E0
:1055900090932705809326051092B8021092B902C5
:1055A0001092BA021092BB0258E9E52E51E0F52E96
:1055B000992493948FE493E00E94980A1816190690
:1055C0000CF06AC18FE493E00E94760A8C3349F4B0
:1055D00061EC71E082EC92E00E94443A1092C102C8
:1055E000E9CF8E3309F032C188E692E00E94301391
:1055F00042ECA42E42E0B42E812C00E010E0809119
:10560000C10290E008171907B4F46501E0914F0357
:10561000F09150030190F081E02DD5016D915D0175
:105620008FE493E00995F60180818A3309F4802E96
:105630000F5F1F4FE4CF81EC91E00E949B1390918C
:10564000C202892F8F7D843509F05FC08DE592E01D
:105650000E94301383EC92E00E9486388C01009700
:1056600009F44EC00E940813C80101974097A8F49E
:10567000F801EC5EFE4FC101008002C0880F991F47
:105680000A94E2F72091A9023091AA028227932777
:105690009093AA028093A90204C01092AA021092C9
:1056A000A9020E943116CBC09635A1F5882009F4D5
:1056B0008AC083EC92E00E9486388C01882D90E0AD
:1056C0008D539D4F0E9486386C0183E592E00E94C5
:1056D00030136AE070E0C8010E9470138CE891E01A
:1056E0000E94A3106AE070E0C6010E94701382EE6F
:1056F00091E00E94A310FFEFCF16D10479F074F06F
:1057000087E292E00E9451139AC0813469F60E94A8
:10571000981D95C0963789F40C94EF35C801019710
:105720008D32910568F7880F991FFC01EC5CFD4FE5
:10573000D182C0826C2D802F3FC0973419F09736EC
:1057400009F041C0882009F47AC083EC92E00E94FD
:1057500086388C01882D90E08D539D4F0E948638AD
:105760006C0188E492E00E9430136AE070E0C801A6
:105770000E9470138CE891E00E94A3106AE070E030
:10578000C6010E947013C114D10409F4B9CFC80135
:1057900001978830910510F00C940436F801EE0F53
:1057A000FF1F049710F00C94F535EA58FD4FD18295
:1057B000C0826C2D82E2800F0E945D1381EC91E02B
:1057C0000E949B133CC0843429F581E991E00E943A
:1057D000A31083EC92E00E9486389C01215031098D
:1057E0002031310518F08336910579F490928E02BC
:1057F0008093F00181E492E00E9430136AE070E04F
:1058000080918E020E943F241AC010928E02109244
:10581000F00115C0893449F48AE392E00E945113E3
:105820000E9429160E94321D0AC0823541F48EE280
:1058300092E00E94511380E595E00E94A42161EC62
:1058400071E082EC92E00E94443AB4CEE2ECF2E0E5
:1058500001900020E9F73197E25CF2403F9708F0B1
:10586000A9CE282F082E000C330B3F938F93A2EC68
:10587000B2E0BF93AF93FF92EF92BF93AF930E94BA
:105880004B3A8091C1028F5F8093C1020FB6F894AA
:10589000DEBF0FBECDBF8ECE8091BC029091BD0207
:1058A000A091BE02B091BF0240913E0350913F03D0
:1058B00060914003709141036C017D01C41AD50AC7
:1058C000E60AF70A09E8C01603E1D006E104F1048C
:1058D00008F455C580933E0390933F03A093400383
:1058E000B0934103809119038F5F843018F4809343
:1058F000190302C010921903F09019030F2D10E044
:10590000F801E35FFE4F80810E94280D9B838A830C
:105910008091A802A1010F2C02C0440F551F0A94C8
:10592000E2F7282F30E0242335232417350709F028
:10593000A4C18F7090E002C095958795FA94E2F724
:10594000019709F09AC180918E028823E1F00E94AC
:105950009F158091190390E06AE070E001960E9423
:10596000701382EE91E00E94A3106AE070E08091D3
:1059700018030E94382482EE91E00E94A3108A81CD
:105980009B810E9408138091180381112CC0809183
:10599000190390E0880F991FFC01E157FD4F20810A
:1059A0003181CA80DB802C193D0937FF03C0319556
:1059B000219531092230310574F40A811B810F3F92
:1059C000110549F044F0802F8F5F8093E60281E05B
:1059D0008093180343C4FC01E157FD4FCA80DB806C
:1059E000D182C0823BC4E82FF0E0EA51FD4F9A819A
:1059F0009F5F90838F5F80931803823309F02EC4DA
:105A000080911903C82ED12C8301720104C0EE0CC1
:105A1000FF1C001F111F8A95D2F7D801C70180957E
:105A20009091A80289238093A8021092180316EE81
:105A3000E12E12E0F12EF70160E070E0CB01219140
:105A4000620F711D811D911D03E0E831F007B9F768
:105A500022E330E040E050E00E94C23849015A01A0
:105A60008091800290918102092E000CAA0BBB0B41
:105A700089019A01081B190B2A0B3B0B80E090E06F
:105A8000D7014D917D0150E060E070E04017510773
:105A90006207730728F49F5F891718F4892F01C0E4
:105AA00090E0B8E1EB16B3E0FB0651F722E330E0FB
:105AB00021503109A1F090E0492F50E042175307DF
:105AC000BCF7FA01EA51FD4F6081DA01A951BD4FDF
:105AD0004C91461710F440836C939F5FEDCF860185
