:100000000C945D000C9485000C9485000C94850084
:100010000C9485000C9485000C9485000C9485004C
:100020000C9485000C9485000C9485000C9485003C
:100030000C9485000C9485000C9485000C9485002C
:100040000C94D4030C9485000C94A2030C947C03B0
:100050000C9485000C9485000C9485000C9485000C
:100060000C9485000C9485000000000024002700FB
:100070002A0000000000250028002B0004040404CE
:100080000404040402020202020203030303030342
:10009000010204081020408001020408102001021F
:1000A00004081020000000080002010000030407FB
:1000B0000000000000000000E80811241FBECFEF80
:1000C000D8E0DEBFCDBF11E0A0E0B1E0E6EEF8E1A0
:1000D00002C005900D92AC32B107D9F723E0ACE233
:1000E000B1E001C01D92A333B207E1F710E0CDE506
:1000F000D0E004C02197FE010E947509CC35D107DC
:10010000C9F70E941E040C94710C0C940000E1EBE2
:10011000F0E09491EDE9F0E02491E9E8F0E0E49179
:10012000EE2309F43CC0992339F1933091F038F46F
:100130009130A9F0923001F594B59F7D12C09730AF
:1001400091F09830A1F09430B9F4909180009F7DA7
:1001500003C0909180009F77909380000DC094B56C
:100160009F7794BD09C09091B0009F7703C0909194
:10017000B0009F7D9093B000F0E0EE0FFF1FEE58AF
:10018000FF4FA591B4919FB7F894811104C08C9151
:100190002095282302C0EC912E2B2C939FBF08950D
:1001A000CF92DF92EF92FF920F931F93CF93DF9343
:1001B0006C017A018B01C0E0D0E0CE15DF0581F043
:1001C000D8016D918D01D601ED91FC910190F081E6
:1001D000E02DC6010995892B11F02196EECF7E0105
:1001E000C701DF91CF911F910F91FF90EF90DF90AA
:1001F000CF900895089580E090E00895FC01538D1C
:10020000448D252F30E0842F90E0821B930B5417F0
:1002100010F0CF96089501970895FC01918D828D7D
:10022000981761F0828DDF01A80FB11D5D968C914A
:10023000928D9F5F9F73928F90E008958FEF9FEF55
:100240000895FC01918D828D981731F0828DE80F11
:10025000F11D858D90E008958FEF9FEF0895FC01CB
:10026000918D228D892F90E0805C9F4F821B910998
:100270008F739927089586E992E00E942F0121E06B
:10028000892B09F420E0822F0895FC01848DDF0181
:10029000A80FB11DA35ABF4F2C91848D90E00196F9
:1002A0008F739927848FA689B7892C93A089B189E8
:1002B0008C9180648C93938D848D981306C00288F2
:1002C000F389E02D80818F7D80830895EF92FF92E6
:1002D0000F931F93CF93DF93EC0181E0888F9B8D69
:1002E0008C8D981305C0E889F989808185FD24C02B
:1002F000F62E0B8D10E00F5F1F4F0F731127E02EAE
:100300008C8DE8120CC00FB607FCFACFE889F9898A
:10031000808185FFF5CFCE010E944501F1CF8B8D05
:10032000FE01E80FF11DE35AFF4FF0820B8FEA89BF
:10033000FB898081806207C0EE89FF896083E8893C
:10034000F98980818064808381E090E0DF91CF91A2
:100350001F910F91FF90EF900895CF93DF93EC01E1
:10036000888D8823C9F0EA89FB89808185FD05C0D5
:10037000A889B9898C9186FD0FC00FB607FCF5CF0F
:10038000808185FFF2CFA889B9898C9185FFEDCF57
:10039000CE010E944501E7CFDF91CF91089580E023
:1003A00090E0892B29F00E943B0181110C94000000
:1003B00008958E3008F08E508770806480937C00A2
:1003C00080917A00806480937A0080917A0086FD23
:1003D000FCCF809178002091790090E0922B0895D5
:1003E0003FB7F89480912D0190912E01A0912F019B
:1003F000B091300126B5A89B05C02F3F19F001969A
:10040000A11DB11D3FBFBA2FA92F982F8827820F9A
:10041000911DA11DB11DBC01CD0142E0660F771FEA
:10042000881F991F4A95D1F708958F929F92AF9296
:10043000BF92CF92DF92EF92FF926B017C010E94FC
:10044000F0014B015C01C114D104E104F104F1F0AD
:100450000E94F001DC01CB0188199909AA09BB09A6
:10046000883E9340A105B10570F321E0C21AD1087E
:10047000E108F10888EE880E83E0981EA11CB11CEB
:10048000C114D104E104F10419F7DDCFFF90EF901E
:10049000DF90CF90BF90AF909F908F90089500977E
:1004A00069F0FC0101900020E9F73197AF01481B8A
:1004B000590BBC0186E992E00C94D00080E090E0FA
:1004C00008958F929F92AF92BF92CF92DF92EF9258
:1004D000FF920F931F93CF93DF93CDB7DEB7A19712
:1004E0000FB6F894DEBF0FBECDBF6C01990FEE08BA
:1004F000FF08F7FE2BC06DE286E992E00E946601DC
:100500008C0122273327A9012C193D094E095F09C7
:1005100019A2CE0181967C019AE0892E912CA12C02
:10052000B12CCA01B901A50194010E942B09605D9B
:10053000F70162937F01211531054105510589F7C6
:10054000CF010E944F02800F911F1DC0A70196018D
:1005500019A28E010F5D1F4F8AE0C82ED12CE12C0D
:10056000F12CCA01B901A70196010E942B09605D17
:10057000F80162938F01211531054105510589F775
:10058000CF010E944F02A1960FB6F894DEBF0FBEB6
:10059000CDBFDF91CF911F910F91FF90EF90DF9032
:1005A000CF90BF90AF909F908F9008950E947B094D
:1005B0000C941D090C941509AF92BF92CF92DF9253
:1005C000EF92FF920F931F93CF93DF93CDB7DEB7D8
:1005D00064970FB6F894DEBF0FBECDBF7C01FC015F
:1005E000EE5EFE4FD0808D2D0E94D9015E0185E127
:1005F000A80EB11C8E010F5F1F4F8D2D0E94D901D7
:10060000F801819391938F0161E070E080E090E0C8
:100610000E941502A016B10681F789E090E0FE0164
:10062000319620E030E0281739071CF00197B9F720
:1006300010C041915191608171816417750734F444
:10064000DF0112976D937C93518340832F5F3F4F5F
:10065000EACF0B891C89C8016AE070E00E944D094D
:100660006E5F653008F064E0060F111D0F3F110545
:1006700014F00EEF10E0F701E75AFD4F0083670119
:10068000F2E1CF0ED11CC6010E94DA0290E0801781
:10069000910721F0602FC6010E94D80261E070E04E
:1006A00080E090E00E9415028AE191E00E944F02F2
:1006B000C7010E946102C8010E94610281E291E0CB
:1006C0000E944F028CE191E00E944F0265E070E0D1
:1006D00080E090E064960FB6F894DEBF0FBECDBF09
:1006E000DF91CF911F910F91FF90EF90DF90CF900E
:1006F000BF90AF900C9415021F920F920FB60F92FD
:1007000011242F933F934F935F936F937F938F9316
:100710009F93AF93BF93EF93FF9386E992E00E947C
:100720004501FF91EF91BF91AF919F918F917F9183
:100730006F915F914F913F912F910F900FBE0F904E
:100740001F9018951F920F920FB60F9211242F939E
:100750008F939F93EF93FF93E091A602F091A702EE
:100760008081E091AC02F091AD0282FD12C09081D7
:100770008091AF028F5F8F732091B002821751F08A
:10078000E091AF02F0E0EA56FD4F958F8093AF0203
:1007900001C08081FF91EF919F918F912F910F90D8
:1007A0000FBE0F901F9018951F920F920FB60F92C9
:1007B00011242F933F938F939F93AF93BF93809177
:1007C000310190913201A0913301B0913401309107
:1007D0002C0123E0230F2D3720F40196A11DB11D1C
:1007E00005C026E8230F0296A11DB11D20932C0100
:1007F0008093310190933201A0933301B09334017F
:1008000080912D0190912E01A0912F01B091300186
:100810000196A11DB11D80932D0190932E01A093EF
:100820002F01B0933001BF91AF919F918F913F9174
:100830002F910F900FBE0F901F901895CF93DF93BD
:10084000CDB7DEB72F970FB6F894DEBF0FBECDBF82
:10085000789484B5826084BD84B5816084BD85B59B
:10086000826085BD85B5816085BD80916E008160A7
:1008700080936E001092810080918100826080934D
:10088000810080918100816080938100809180004F
:100890008160809380008091B10084608093B1007A
:1008A0008091B00081608093B00080917A00846074
:1008B00080937A0080917A00826080937A008091A0
:1008C0007A00816080937A0080917A0080688093BA
:1008D0007A001092C100EDE9F0E02491E9E8F0E03F
:1008E0008491882399F090E0880F991FFC01E859C2
:1008F000FF4FA591B491FC01EE58FF4F8591949163
:100900008FB7F894EC91E22BEC938FBF80E00E94BC
:100910008700E091A602F091A70282E08083E09137
:10092000A202F091A3021082E091A402F091A5022C
:1009300080E180831092AE02E091AA02F091AB02B6
:1009400086E08083E091A802F091A9028081806115
:100950008083E091A802F091A90280818860808361
:10096000E091A802F091A902808180688083E091E3
:10097000A802F091A90280818F7D8083A2E1B1E07D
:100980008D9190E0FC01E057FF4F2491FC01E45869
:10099000FF4F84918823C9F090E0880F991FFC01D4
:1009A000E859FF4F45915491FC01EE58FF4F659176
:1009B00074919FB7F894FA018081209582238083F7
:1009C000FB018081822380839FBFF1E0AA31BF07B2
:1009D000B9F681E08093650171E6C72E72E0D72EEB
:1009E000E9E5EE2EE2E0FE2EF9E66F2EF2E07F2E34
:1009F00002E010E0A3E05A2EBBE02B2EC8010E94BB
:100A0000DA02382EF3018083C80108960E94DA02C8
:100A1000482E4601F60180835801F0E1AF0EB11C6B
:100A2000C5010E94DA02F7018083811102C02FEF15
:100A3000208332E0331510F0F3015082F2E0F41518
:100A400010F0F6015082FFEFCF1ADF0AF401808127
:100A50008F3F69F4F30180818F3F49F4F701808172
:100A60008B3029F020826BE0C5010E94D8020F5F15
:100A70001F4FFFEF6F1A7F0A2FEFE21AF20A0A30B8
:100A8000110509F0BBCF83E290E00E94DA02182F33
:100A90008093570284E290E00E94DA028093580229
:100AA0001F3F19F497E3909357028F3F19F482E0A8
:100AB0008093580260ED77E080E090E00E9415029C
:100AC00069E5E62E62E0F62E00E010E0F701819184
:100AD0007F018F3F19F4C8010E94DC020F5F1F4F96
:100AE0000830110599F72FB7F89480913101909152
:100AF0003201A0913301B09134012FBF809386025F
:100B000090938702A0938802B09389028FE191E0CD
:100B10000E944F028CE191E00E944F028E010B5F18
:100B20001F4F1E830D83412C512C32014394809121
:100B30009302882311F081E001C080E00E948700C9
:100B40002FB7F8948091310190913201A091330137
:100B5000B09134012FBF80938F0290939002A093A5
:100B60009102B093920240918B0250918C0260915D
:100B70008D0270918E028C019D01041B150B260BBA
:100B8000370BB901A801413157426105710528F4BD
:100B900020918A02222309F466C040918602509176
:100BA00087026091880270918902841B950BA60BC5
:100BB000B70B8B359A40A105B10508F454C01092CB
:100BC00086021092870210928802109289029091F8
:100BD000930244E0949F900111242C83809194020D
:100BE000907C92959F7050E1859F90011124922BEB
:100BF0009B8390919502807F86958695E0E49E9FE9
:100C000090011124822B8A839C7F998383E291E057
:100C10000E944F028E010F5F1F4FF80161918F01FB
:100C200086E992E00E9466012D813E8120173107FE
:100C3000A1F78EE191E00E944F0285E291E00E94CF
:100C40004F0210928A0280918F0290919002A0919F
:100C50009102B091920280938B0290938C02A093A8
:100C60008D02B0938E020E94F0016B017C016093B3
:100C70008202709383028093840290938502809114
:100C80007E0290917F02A0918002B0918102970133
:100C90008601081B190B2A0B3B0BD901C801893EA1
:100CA0009340A105B10508F47FC105E311E031E6E9
:100CB000832E32E0932E49E6242E42E0342E29E59D
:100CC00032E03C872B8742E151E05E874D87A12CC3
:100CD000B12CED85FE858191FE87ED870E94D901BB
:100CE000EB85FC854191FC87EB87B0915602F8E0DB
:100CF000BF9F90011124F901EA5FFD4FEA0DFB1D32
:100D000050E061E0481759070CF060E06083F9019A
:100D1000EA54FE4FEA0DFB1D4091580250E061E09D
:100D2000481759070CF060E060832A593E4FF901DB
:100D3000EA0DFB1D2091570230E041E028173907EA
:100D40000CF040E04083B93009F00EC120E030E003
:100D5000A0E01F8650E0C9018A0D9B1DFC01EA5FDF
:100D6000FD4F6081560FFC01EA54FE4F60814F85B4
:100D7000460F4F87FC01EA59FE4F8081A80F285F7C
:100D80003F4F2035310539F78091650190919302ED
:100D900061E070E0851710F060E070E0292F30E02E
:100DA0000A2C02C0359527950A94E2F72170332763
:100DB000F80162177307D9F1208131812F5F3F4F0E
:100DC000318320838517C0F0F101608170E0261720
:100DD000370779F5A30192010A2C04C0220F331FB3
:100DE000441F551F0A94D2F72F83388749875A87A3
:100DF0002F812095922315C0F401608170E02617A1
:100E00003707B9F4A30192010A2C04C0220F331F43
:100E1000441F551F0A94D2F72F83388749875A8772
:100E2000922B9093930231E030938A02F801118261
:100E300010829091940261E070E0FF858F1710F0AE
:100E400060E070E0292F30E00A2C02C0359527952C
:100E50000A94E2F721703327F80162177307A9F1AA
:100E6000208931892F5F3F4F318B208BFF858F1772
:100E7000A8F0F101408150E02417350741F5B30196
:100E8000A2010A2C04C0440F551F661F771F0A9445
:100E9000D2F7409594239093940213C0F4014081BB
:100EA00050E02417350799F4B301A2010A2C04C0BD
:100EB000440F551F661F771F0A94D2F7492B4093A2
:100EC0009402F1E0F0938A02F801118A108A90915D
:100ED000950241E050E08A1710F040E050E0292FE1
:100EE00030E00A2C02C0359527950A94E2F721706C
:100EF0003327F80142175307A9F120A131A12F5F31
:100F00003F4F31A320A38A17B0F0F101408150E098
:100F10002417350749F5B301A2010A2C04C0440F78
:100F2000551F661F771F0A94D2F74095842F892397
:100F30008093950213C0F401408150E024173507D7
:100F400099F4B301A2010A2C04C0440F551F661F77
:100F5000771F0A94D2F7492B40939502F1E0F09362
:100F60008A02F80111A210A2FFEFAF1ABF0A0E5FAA
:100F70001F4F2FEF221A320A3FEF831A930A48E0DD
:100F8000A416B10409F0A5CEBF5FBA3019F0B09332
:100F9000560202C010925602C0927E02D0927F0288
:100FA000E0928002F092810287E3C82E9EEFD92E54
:100FB00022E0922E86E992E00E942F01181619066F
:100FC0000CF003C186E992E00E940D018C3359F4C4
:100FD0006EE171E083E792E00E9480091092720254
:100FE00010927102E7CF8E3309F0C3C08091710275
:100FF000909172022DEF280F243008F0B3C0E6E77D
:10100000F2E0E12CF12C99279F0123573240281759
:101010003907A4F4419120ED240F2A30A8F75AE0B3
:101020005E9D90015F9D300D1124E42E440FFF085A
:1010300000E3E01AF108E20EF31EE6CF009174021D
:101040000053083008F08EC080917302813469F437
:10105000809175028A3309F085C010E0F801E759E4
:10106000FD4FE0820E5F1F4F0EC08234B1F48091BD
:1010700075028A3309F076C010E0F801EF59FD4F90
:10108000E082065F1F4FC8010E94DA0290E0E81676
:10109000F90609F467C06E2D21C0833409F58091EB
:1010A00075028A3309F05EC010E09801275A3D4F5F
:1010B0005901F901E0828FEF8E0D8E3F18F0C801C3
:1010C0000E94DC020E5E1F4FC8010E94DA0290E00F
:1010D000E816F90609F446C0F5016081C80140C070
:1010E0008534F9F4809175028A33E1F5FFEFEF164C
:1010F00019F0E092580202C0D09258028091580232
:10110000811102C09092580284E290E00E94DA02BB
:1011100090E0E816F90631F16091580284E290E01F
:101120001FC08D34F9F4809175028A33D9F40FEF22
:10113000E01619F0E092570202C0D09257021091C7
:101140005702111102C0C092580283E290E00E943F
:10115000DA0290E0E816F90629F0612F83E290E0C8
:101160000E94D8026EE171E083E792E00E9480095C
:1011700021CFE3E7F2E001900020E9F73197E35750
:10118000F2403A9708F016CF282F082E000C330BA8
:101190003F938F9323E732E03F932F9387E291E0D1
:1011A0009F938F933F932F930E94870980917102A1
:1011B00090917202019690937202809371020FB621
:1011C000F894DEBF0FBECDBFF5CE0E94CF01AFCCED
:1011D000E6E9F2E01382128288EE93E0A0E0B0E04C
:1011E00084839583A683B78384E091E09183808391
:1011F00085EC90E09587848784EC90E097878687DC
:1012000080EC90E0918B808B81EC90E0938B828BD3
:1012100082EC90E0958B848B86EC90E0978B868BAC
:10122000118E128E138E148E0895F999FECF92BDF1
:1012300081BDF89A992780B50895262FF999FECF98
:101240001FBA92BD81BD20BD0FB6F894FA9AF99AE3
:101250000FBE01960895A1E21A2EAA1BBB1BFD0129
:101260000DC0AA1FBB1FEE1FFF1FA217B307E40785
:10127000F50720F0A21BB30BE40BF50B661F771FDD
:10128000881F991F1A9469F76095709580959095BD
:101290009B01AC01BD01CF01089597FB072E16F409
:1012A000009407D077FD09D00E94610907FC05D0A2
:1012B0003EF4909581959F4F0895709561957F4F6D
:1012C0000895AA1BBB1B51E107C0AA1FBB1FA6178D
:1012D000B70710F0A61BB70B881F991F5A95A9F7DF
:1012E00080959095BC01CD010895EE0FFF1F0590EC
:1012F000F491E02D099481E090E0F8940C94710C45
:10130000FB01DC0101900D920020E1F70895AEE0B1
:10131000B0E0EDE8F9E00C94480C0D891E8986E0F8
:101320008C831A8309838FEF9FE79E838D83AE01A1
:10133000475E5F4F6F89788DCE0101960E94A909A3
:10134000EF81F885E00FF11F10822E96E4E00C94F7
:10135000640CABE0B0E0EFEAF9E00C943A0C6C01FD
:101360007B018A01FC0117821682838181FFCCC137
:10137000CE0101963C01F6019381F70193FD859121
:1013800093FF81917F01882309F4BAC1853239F432
:1013900093FD859193FF81917F01853229F4B601F8
:1013A00090E00E94A00BE7CF912C212C312CFFE183
:1013B000F315D8F08B3279F038F4803279F083323B
:1013C000A1F4232D20611DC08D3261F0803369F4BA
:1013D000232D216016C0832D8260382EE32DE4601A
:1013E0003E2E2AC0F32DF8601DC037FC2DC020ED25
:1013F000280F2A3040F08E32B9F436FC81C1232DFB
:101400002064322E19C036FE06C08AE0989E200D58
:101410001124922E11C0EAE02E9E200D1124222EBE
:10142000F32DF0623F2E08C08C3621F4832D8068A6
:10143000382E02C0883641F4F70193FD859193FF61
:1014400081917F018111B3CF982F9F7D9554933067
:1014500028F40C5F1F4F9FE399830DC0833631F052
:10146000833771F0833509F059C021C0F8018081BC
:1014700089830E5F1F4F88248394912C530113C0DE
:101480002801F2E04F0E511CF801A080B18036FE19
:1014900003C0692D70E002C06FEF7FEFC5010E94AD
:1014A000950B4C018201F32DFF773F2E16C02801CA
:1014B00022E0420E511CF801A080B18036FE03C02C
:1014C000692D70E002C06FEF7FEFC5010E948A0BAB
:1014D0004C01F32DF0683F2E820133FC1BC0822D9E
:1014E00090E088169906B0F4B60180E290E00E9480
:1014F000A00B2A94F4CFF50137FC859137FE81913A
:101500005F01B60190E00E94A00B21102A9421E017
:10151000821A91088114910471F7E8C0843611F0A1
:10152000893641F5F80137FE07C0608171818281FB
:1015300093810C5F1F4F08C060817181072E000CE2
:10154000880B990B0E5F1F4FF32DFF763F2E97FFF1
:1015500009C090958095709561957F4F8F4F9F4FF3
:10156000F0683F2E2AE030E0A3010E94DC0B882EB9
:10157000861845C0853731F4232D2F7EB22E2AE000
:1015800030E025C0932D997FB92E8F36C1F018F425
:10159000883579F0B5C0803719F0883721F0B0C0B0
:1015A000E92FE061BE2EB4FE0DC0FB2DF460BF2E0E
:1015B00009C034FE0AC0292F2660B22E06C028E0DA
:1015C00030E005C020E130E002C020E132E0F80167
:1015D000B7FE07C060817181828193810C5F1F4FCC
:1015E00006C06081718180E090E00E5F1F4FA30113
:1015F0000E94DC0B882E8618FB2DFF773F2E36FECF
:101600000DC0232D2E7FA22E891458F434FE0BC05A
:1016100032FC09C0832D8E7EA82E05C0B82CA32CC9
:1016200003C0B82C01C0B92CA4FE0FC0FE01E80D08
:10163000F11D8081803321F49A2D997EA92E09C055
:10164000A2FE06C0B394B39404C08A2D867809F034
:10165000B394A3FC11C0A0FE06C0B21488F4280CF9
:10166000922C9B180EC0B21460F4B60180E290E098
:101670000E94A00BB394F7CFB21418F42B1802C039
:10168000982C212CA4FE10C0B60180E390E00E94AB
:10169000A00BA2FE17C0A1FC03C088E790E002C027
:1016A00088E590E0B6010CC08A2D867859F0A1FE3D
:1016B00002C08BE201C080E2A7FC8DE2B60190E09F
:1016C0000E94A00B891438F4B60180E390E00E94D8
:1016D000A00B9A94F7CF8A94F301E80DF11D808155
:1016E000B60190E00E94A00B8110F5CF222009F4F2
:1016F00042CEB60180E290E00E94A00B2A94F6CF81
:10170000F6018681978102C08FEF9FEF2B96E2E171
:101710000C94560CFC010590615070400110D8F7F4
:10172000809590958E0F9F1F0895FC016150704029
:1017300001900110D8F7809590958E0F9F1F089506
:101740000F931F93CF93DF93FB01238121FD03C0F0
:101750008FEF9FEF2CC022FF16C046815781248156
:1017600035814217530744F4A081B1819D012F5F59
:101770003F4F318320838C93268137812F5F3F4FEA
:101780003783268314C08B01EC01FB010084F185B3
:10179000E02D0995892BE1F6D80116968D919C9143
:1017A0001797019617969C938E931697CE01DF910B
:1017B000CF911F910F910895FA01AA27283051F176
:1017C000203181F1E8946F936E7F6E5F7F4F8F4F72
:1017D0009F4FAF4FB1E03ED0B4E03CD0670F781FD1
:1017E000891F9A1FA11D680F791F8A1F911DA11DB6
:1017F0006A0F711D811D911DA11D20D009F46894EF
:101800003F912AE0269F11243019305D3193DEF696
:10181000CF010895462F4770405D4193B3E00FD04C
:10182000C9F7F6CF462F4F70405D4A3318F0495D37
:1018300031FD4052419302D0A9F7EACFB4E0A6951A
:101840009795879577956795BA95C9F7009761053C
:10185000710508959B01AC010A2E06945795479592
:1018600037952795BA95C9F7620F731F841F951F87
:10187000A01D08952F923F924F925F926F927F9298
:101880008F929F92AF92BF92CF92DF92EF92FF9290
:101890000F931F93CF93DF93CDB7DEB7CA1BDB0B3C
:1018A0000FB6F894DEBF0FBECDBF09942A883988E1
:1018B00048885F846E847D848C849B84AA84B984E8
:1018C000C884DF80EE80FD800C811B81AA81B981F4
:1018D000CE0FD11D0FB6F894DEBF0FBECDBFED0108
:0618E0000895F894FFCF0B
:1018E600000000006601D000FE00AD012F010D01D1
:1018F60021011514131211100F0E47000D0A00478F
:0C190600534B003F004300257325630095
:107800000C94343C0C94513C0C94513C0C94513CE1
:107810000C94513C0C94513C0C94513C0C94513CB4
:107820000C94513C0C94513C0C94513C0C94513CA4
:107830000C94513C0C94513C0C94513C0C94513C94
:107840000C94513C0C94513C0C94513C0C94513C84
:107850000C94513C0C94513C0C94513C0C94513C74
:107860000C94513C0C94513C11241FBECFEFD8E036
:10787000DEBFCDBF11E0A0E0B1E0ECE9FFE702C060
:1078800005900D92A230B107D9F712E0A2E0B1E065
:1078900001C01D92AD30B107E1F70E942D3D0C945F
:1078A000CC3F0C94003C982F959595959595959582
:1078B000905D8F708A307CF0282F295A8091C0000B
:1078C00085FFFCCF9093C6008091C00085FFFCCF60
:1078D0002093C6000895282F205DF0CF982F809127
:1078E000C00085FFFCCF9093C6000895EF92FF92F1
:1078F0000F931F93EE24FF2487018091C00087FD22
:1079000017C00894E11CF11C011D111D81E4E8164B
:1079100082E4F8068FE0080780E0180770F3E09132
:107920000401F091050109958091C00087FFE9CF1E
:107930008091C6001F910F91FF90EF9008950E94D3
:10794000763C982F8091C00085FFFCCF9093C600B5
:1079500091362CF490330CF09053892F089597555D
:10796000892F08951F930E949F3C182F0E949F3CCF
:107970001295107F810F1F9108951F93182F882350
:1079800021F00E94763C1150E1F71F9108951F935A
:10799000182F0E94763C803249F0809103018F5F5E
:1079A000809303018530C1F01F9108958091C0003C
:1079B00085FFFCCF84E18093C6008091C00085FFE5
:1079C000FCCF1093C6008091C00085FFFCCF80E102
:1079D0008093C6001F910895E0910401F091050184
:1079E00009951F9108950E94763C803241F0809164
:1079F00003018F5F80930301853081F008958091AA
:107A0000C00085FFFCCF84E18093C6008091C00058
:107A100085FFFCCF80E18093C6000895E0910401CA
:107A2000F09105010995089540E951E08823A1F0FE
:107A30002D9A28EE33E0FA013197F1F721503040CA
:107A4000D1F72D9828EE33E0FA013197F1F7215064
:107A50003040D1F7815061F708953F924F925F9285
:107A60006F927F928F929F92AF92BF92CF92DF924E
:107A7000EF92FF920F931F93CF93DF93000080E16B
:107A80008093C4001092C50088E18093C10086E015
:107A90008093C2005098589A259A81E00E94143D24
:107AA00024E1F22E9EE1E92E85E9D82E0FE0C02ECA
:107AB00010E1B12EAA24A394B1E49B2EA6E58A2E50
:107AC000F2E57F2EE0E26E2E79E4572E63E5462E36
:107AD00050E5352E0E94763C8033B1F18133B9F107
:107AE000803409F46FC0813409F476C0823409F41B
:107AF00085C0853409F488C0803531F1823521F1A3
:107B0000813511F1853509F485C0863509F48DC0BC
:107B1000843609F496C0843709F403C1853709F423
:107B200072C1863709F466C0809103018F5F80932C
:107B30000301853079F6E0910401F0910501099582
:107B40000E94763C803351F60E94F33CC3CF0E94E2
:107B5000763C803249F78091C00085FFFCCFF092DF
:107B6000C6008091C00085FFFCCF9092C600809136
:107B7000C00085FFFCCF8092C6008091C00085FFC9
:107B8000FCCF7092C6008091C00085FFFCCF609250
:107B9000C6008091C00085FFFCCF5092C600809146
:107BA000C00085FFFCCF4092C6008091C00085FFD9
:107BB000FCCF3092C6008091C00085FFFCCFB09210
:107BC000C60088CF0E94763C863808F4BDCF0E945C
:107BD000763C0E94F33C7ECF0E94763C803809F4CC
:107BE0009CC0813809F40BC1823809F43CC1883942
:107BF00009F48FC080E00E94C73C6CCF84E10E94F2
:107C0000BD3C0E94F33C66CF85E00E94BD3C0E94D3
:107C1000F33C60CF0E94763C809306010E94763C44
:107C2000809307010E94F33C55CF0E94763C80333D
:107C300009F41DC183E00E94BD3C80E00E94C73C66
:107C400049CF0E94763C809309020E94763C809343
:107C5000080280910C028E7F80930C020E94763C79
:107C6000853409F415C18091080290910902892B8D
:107C700089F000E010E00E94763CF801E85FFE4FDA
:107C800080830F5F1F4F80910802909109020817AF
:107C9000190788F30E94763C803209F045CF809125
:107CA0000C0280FF01C16091060170910701660F0F
:107CB000771F7093070160930601A0910802B091AD
:107CC00009021097C9F0E8E0F1E09B01AD014E0F09
:107CD0005F1FF999FECF32BD21BD819180BDFA9A17
:107CE000F99A2F5F3F4FE417F50799F76A0F7B1F4B
:107CF00070930701609306018091C00085FFFCCF5F
:107D0000F092C6008091C00085FFFCCFB092C60003
:107D1000E1CE83E00E94C73CDDCE82E00E94C73CFA
:107D2000D9CE0E94763C809309020E94763C8093D3
:107D300008028091060190910701880F991F909386
:107D40000701809306010E94763C853409F4A6C0A1
:107D500080910C028E7F80930C020E94763C8032D0
:107D600009F0B8CE8091C00085FFFCCFF092C6002C
:107D7000609108027091090261157105B9F140E046
:107D800050E080910C02A82FA170B82FB27011C0E2
:107D9000BB2309F45CC0E0910601F0910701319624
:107DA000F0930701E09306014F5F5F4F46175707B7
:107DB000E8F4AA2369F3F999FECF209106013091E6
:107DC000070132BD21BDF89A90B58091C00085FFB2
:107DD000FCCF9093C6002F5F3F4F30930701209355
:107DE00006014F5F5F4F4617570718F38091C00099
:107DF00085FDE5CE8091C00085FFF8CFE0CE81E023
:107E00000E94C73C67CE0E94763C803209F08CCE3F
:107E10008091C00085FFFCCFF092C6008091C00029
:107E200085FFFCCFE092C6008091C00085FFFCCFAB
:107E3000D092C6008091C00085FFFCCFC092C600E2
:107E40008091C00085FFFCCFB092C60043CEE09188
:107E50000601F091070194918091C00085FFFCCF4D
:107E60009093C6009CCF80E10E94C73C33CE0E9415
:107E7000763C0E94763C182F0E94763C112309F430
:107E800083C0113009F484C08FE00E94C73C22CE29
:107E900080910C02816080930C02E5CE80910C02EF
:107EA000816080930C0259CF809107018823880F4D
:107EB000880B8A2180930B02809106019091070123
:107EC000880F991F90930701809306018091080203
:107ED00080FF09C080910802909109020196909359
:107EE000090280930802F894F999FECF1127E091D6
:107EF0000601F0910701C8E0D1E08091080290915D
:107F00000902103091F40091570001700130D9F34B
:107F100003E000935700E89500915700017001308D
:107F2000D9F301E100935700E89509901990009169
:107F3000570001700130D9F301E000935700E89534
:107F40001395103498F011270091570001700130FB
:107F5000D9F305E000935700E895009157000170B0
:107F60000130D9F301E100935700E895329602976A
:107F700009F0C7CF103011F00296E5CF112480919F
:107F8000C00085FFB9CEBCCE8EE10E94C73CA2CD19
:0C7F900085E90E94C73C9ECDF894FFCF0D
:027F9C00800063
:040000030000780081
:00000001FF
