:100000000C9466020C948E020C948E020C948E0258
:100010000C948E020C948E020C948E020C948E0220
:100020000C948E020C948E020C948E020C948E0210
:100030000C948E020C948E020C948E020C948E0200
:100040000C94D10D0C948E020C94820C0C945C0CCC
:100050000C948E020C948E020C948E020C948E02E0
:100060000C948E020C948E0289088C088F089208DA
:10007000950898089B089E084641494C45442074C1
:100080006F2073656E642043414E004B616C696262
:1000900020006665727469673A200028322E477224
:1000A000656E7A6529204E6F2E0000000000240046
:1000B00027002A00010204081020408001020408E1
:1000C00010200102040810200404040404040404A1
:1000D000020202020202030303030303200056414B
:1000E000525320002000200020000A4556454E545F
:1000F000533A0020000A4445562D4E554D42455274
:10010000533A0020000A494E5445524E414C205665
:1001100041525320280020000A4E4F4445205641AA
:1001200052533A000A4E554D204556454E545320E1
:10013000564152533A000A4E554D204556454E54AD
:10014000533A000A466C6167733A000A4E4E3A0011
:100150000A43414E5F49443A004944454E543A00EF
:100160004D454D4F52592044554D500053746172C6
:10017000740053746162696C6973696572756E6746
:1001800020496E642D4D656C64657200526573651F
:10019000743A2043616E49442061756620323534DB
:1001A000004269742036202D3E2073686F77204D01
:1001B000656D6F7279004269742035202D3E2049AB
:1001C0006E642D5765636873656C004269742030F6
:1001D0002D343A2044454255472D4368616E6E6583
:1001E0006C20776972642064617A75206164646947
:1001F0006572743A202D3E20313239206265646583
:100200007574657420646562756767696E672076CA
:100210006F6E204B616E616C203100426974203733
:1002200020766F6E205661726961626C652032398A
:10023000206D7573732031207365696E2066756556
:1002400072204445425547004172647543414E2037
:10025000524D204D656C64657220560020676573B1
:10026000656E646574002053656E736F723A20008A
:100270004E65757374617274656E210052657365A5
:100280007420004B616E616C20004772656E7A7756
:1002900065727420005661726961626C6520005459
:1002A00065737465204C4544200050726F6365731C
:1002B00073696E673A2000206265656E646574003C
:1002C00028766F6C6C2900203530253A00292032C1
:1002D00035253A00667265690049522D4D656C649A
:1002E00065722000666572746967002067657370C7
:1002F0006569636865727420005661726961626C39
:100300006520002053636877656C6C652000777208
:100310006974652076617220746F20656570726FF4
:100320006D0000000000250028002B0000000000E8
:10033000230026002900000000080002010000033D
:10034000040700000000000000006765737461721C
:100350007465743A20002043414E206E69636874CE
:1003600020676573656E64657421004665686C6519
:100370007200496E644D656C646572200020494EC0
:10038000564552544544004578744D656C64657219
:10039000200045696E6D657373656E20002053748F
:1003A0006174653A2000204D657373616765536918
:1003B0007A653A200053686F72743A204576656E0C
:1003C00074002020204576656E7420004C6F6E67A7
:1003D0003A204E6F64654E6F200049522D416B7478
:1003E00069762000206E6963687420616B74697699
:1003F0003A205661726961626C6520312028426939
:100400007437290041757367616E672000616B74F2
:100410006976006E6963687420006578744175734D
:1004200067616E672000204576656E745661723A8A
:1004300020004576656E744D61746368200020204D
:100440004F6E3A004F66663A00706572204342551F
:100450005300616C73205374617475732D416E7A0F
:100460006569676500494F3A0020434255533A0099
:1004700020616B7469762062656900206F64657223
:100480000020756E6400204578742E0020496E644B
:100490002E0020616B7469762077656E6E00536361
:1004A0006877656C6C653A00205374756665323AFE
:1004B00000205374756665313A00416B7469763A71
:1004C00000426C616E6B3A0029379A3911241FBEC5
:1004D000CFEFD8E0DEBFCDBF11E0A0E0B1E0E8E6AD
:1004E000FCE702C005900D92AE3FB107D9F726E0B8
:1004F000AEEFB1E001C01D92AB3DB207E1F712E0F3
:10050000C5E6D2E004C02197FE010E94103AC4362D
:10051000D107C9F70E94BF250C94273E0C94000018
:100520002F923F925F926F927F928F929F92AF92A3
:10053000BF92CF92DF92EF92FF920F931F93CF93D0
:10054000DF9300D0CDB7DEB78091B1068F3F29F49D
:100550008091B0068F3F09F44FC00E94C50D0091F5
:10056000B4061091B5062091B6063091B706DC01AD
:10057000CB01801B910BA20BB30B84369105A10517
:10058000B105D0F180912406909125060597A9F434
:100590008091B306813041F460E08091B1060E9401
:1005A000DD0C1092B3061EC061E08091B1060E947E
:1005B000DD0C81E08093B30615C0809192058130F7
:1005C00039F460E08091B0060E94DD0C61E006C065
:1005D00061E08091B0060E94DD0C60E08091B10680
:1005E0000E94DD0C0E94C50D6093B4067093B506A1
:1005F0008093B6069093B7068091B8068F3F09F4B2
:10060000AEC00E94B40C2091B906892B81F4213030
:1006100009F0A5C00E94C50D6093260670932706B9
:1006200080932806909329061092B90698C021114C
:1006300096C081E08093B9060E94C50D0091260600
:10064000109127062091280630912906DC01CB0164
:10065000801B910BA20BB30B8C019D01095E134013
:10066000210931090738134121053105A8F42091EA
:1006700092058091240690912506213049F4059732
:1006800061F583E090E0909325068093240667C08F
:10069000059709F064C0F5CF81379741A105B105F1
:1006A00008F45DC080919205811135C080912406C7
:1006B00090912506059729F360E08091B0060E948D
:1006C000DD0C80E00E94AC248091240690912506E8
:1006D000049719F40E949002F7CF85E090E0909380
:1006E0002506809324068091C2059091C30520E5DC
:1006F0002093930590939405809395051092960509
:1007000010929705109298051092990510929A05EB
:100710000E94F21224C0109292054091CE054B7FA8
:100720004093CE054093740565E170E080E695E066
:100730000E94BA0E8091CE0581FF09C08091D80534
:100740009091D9059093C3058093C20506C010927D
:10075000C3051092C20580E090E00E94962480912B
:10076000240690912506049709F076C00E94C50DD5
:10077000009126061091270620912806309129061F
:10078000DC01CB01801B910BA20BB30B893E934084
:10079000A105B10508F460C083E090E090932506C0
:1007A000809324062091AA06ABE2B6E081E082178E
:1007B000B0F43D919FEF980FE92FF0E0BF01625A2E
:1007C0007A4FAB0144535F4FFA01408131963417A1
:1007D00018F440839150F0CF30838F5FE8CF80E0F2
:1007E00090E030E011E0180F8217930744F4FC0109
:1007F000E65DF94F4081141710F00196F3CF109386
:100800006405412F62E170E080E695E00E94BA0E37
:100810001093C1058091D5058823F1F08091C20520
:100820009091C30522E520939305909394058093BE
:1008300095051092960510929705109298051092C2
:10084000990510929A05612F70E080E090E023E90D
:1008500035E043E00E940812EE24E394F12C8AE88C
:1008600096E048E0542E580E03E010E0772473948D
:1008700083E995E058E0652E680E60E6C62ED12C1F
:100880001092D60580911E0690911F06892B09F0C3
:10089000FBC5F0921F06E0921E0680912206909101
:1008A0002306181619062CF010921F0610921E0629
:1008B000EBC58091200690912106CC9724F01092F0
:1008C000210610922006E4E8F6E0A0912006B091FF
:1008D0002106A052BA4F8C9181938091200690916D
:1008E000210601969093210680932006809122068E
:1008F000909123060197909323068093220626E089
:10090000E339F20711F710921F0610921E068BE9C9
:1009100095E00E94A30E809184068093A0058091AB
:1009200086068093B605809187068093B7058091EF
:1009300088068093B805809189068093B905EAE816
:10094000F6E08191DF01AD5DB1098C935E12F9CFC4
:100950008091AE0580939E05843008F4B7C087303F
:1009600009F4B4C0282F2F7B2F3309F4AFC092EACB
:10097000980F923008F4AAC0982F9F7D9F3909F4F0
:10098000A5C0863B09F4A2C08F3D09F49FC03CEF8F
:10099000380F333008F49DC038EF380F333008F487
:1009A00098C03FED380F333008F493C0803409F419
:1009B00090C03CEB380F373008F48BC08C3409F40E
:1009C00088C0382F3F7740EA430F423008F481C097
:1009D000333609F47EC0903809F47BC03EE7380F07
:1009E000343008F476C0823A09F473C030E4380F2A
:1009F000323008F46EC036EA380F323008F46CC07A
:100A000030E7380F353008F467C038E6380F333038
:100A100008F462C09D59923008F45EC0982F977F09
:100A2000905B923008F458C09DE4920F923008F425
:100A300053C091E3980F933008F44EC09CE2980F96
:100A4000923008F449C098E2980F923008F444C0FC
:100A500093E2980F923008F43FC090E1980F9230E3
:100A6000D8F19AE0980F9630B8F193E0980F933050
:100A700098F194EF980F923090F190EF980F923098
:100A800070F1823461F190EB980F9A3040F194EA62
:100A9000980F923020F191E9980F973000F19BE682
:100AA000980F9330E0F095E6980F9230C0F0223B1B
:100AB000B1F0253BA1F09EE2980F923080F0823E8B
:100AC00071F08F3E61F080E090E00BC084E090E038
:100AD00008C081E090E005C083E090E002C082E0C1
:100AE00090E09093A2058093A105809185068111E5
:100AF00003C01092BD0502C07092BD0560E080E6A3
:100B000095E00E9438108370282E312C359427945C
:100B10008BE995E00E94220E982E882321F0211463
:100B2000310409F48BC48BE995E00E94370E8823C9
:100B3000C1F08BE995E00E944C0E5C010097B9F082
:100B4000AC0160E070E080E695E00E94BA20209160
:100B50006A0530E0482F50E0241735070CF487C4AD
:100B600036C09920F1F02A942328D9F405C09920A1
:100B700081F12A94232869F58BE995E00E94730E90
:100B8000009779F0AC0160E070E080E695E00E94AB
:100B9000BA2020916A0530E0482F50E0241735072D
:100BA000B4F48BE995E00E944C0E5C01892B89F02E
:100BB000A50160E070E080E695E00E94BA202091F7
:100BC0006A0530E0482F50E02417350714F08F5F96
:100BD00001C080E08093D6058091BD05882389F00F
:100BE0008091C2059091C305892B59F06091C10590
:100BF00070E080E090E023E935E040E00E940812D8
:100C00003FCE8090240690902506F4E08F16910444
:100C100009F58091A005811133CE2091AA062336D3
:100C200008F02ECE8091B705382F32953695377063
:100C30009091B60540E1949FC0011124832B8093CD
:100C40009D05E22FF0E0E65DF94F80832F5F209352
:100C5000AA0616CE8091A1059091A2058230910539
:100C600061F144F4019709F0D8C3E091AD06F09129
:100C7000AE061AC0E091AB06F091AC068330910548
:100C800019F0049731F0C9C38091CE0580FDC5C32A
:100C90000BC08091CE0580FDC0C380919E0587303A
:100CA00009F0C8C30C940000309709F4B6C36EE590
:100CB00075E08BE995E00995B0C320919E058BE91D
:100CC00095E02A830E948B0E5C012090C205309033
:100CD000C3052A818215930571F0C4010297039719
:100CE00050F42D3009F475C0203109F4AAC0213127
:100CF00009F0C6CDD0C02D3509F4A4C190F5233537
:100D000009F428C178F4203109F49BC020F42D3077
:100D100009F0B6CD5EC0213109F4BDC0223409F41A
:100D2000EDC0AECD263509F43CC138F4243509F4C4
:100D300018C1253509F428C1A3CD273509F44AC1C6
:100D4000283509F09DCD1092BA068091670594E789
:100D50009093930530929405209295058093960583
:100D600051C3253909F4FAC110F5223709F48AC1B3
:100D700020F4213709F46EC183CD233709F4ADC1C6
:100D8000253709F07DCD1092BA0680E68093C10523
:100D90008093640540E662E170E080E695E00E94A1
:100DA000BA0E8091C2059091C30522E523C3223B70
:100DB00009F483C238F4263909F4FFC12C3909F447
:100DC00051C25ECD223D09F4A9C2253F09F49EC25D
:100DD00057CD2114310409F453CD1092BA068091F5
:100DE000C10590E08215930531F09093C30580937F
:100DF000C2050E9496248091CE059091CD05209148
:100E0000CC053091C2054091C30556EB5093930534
:100E100040939405309395052093960590939705FC
:100E2000809398057092990585E080939A05B101A9
:100E3000660F771F620D731D80E090E00E948B0D9E
:100E400057C01092BA068091C10590E082159305B3
:100E500031F09093C3058093C2050E94962480913F
:100E6000240690912506059709F00ACDE3E9F5E0FF
:100E700011926E12FDCF8091D0059091D3052091F3
:100E8000D2053091D1054091CD055091CF056091AB
:100E9000CC057FEE1DC01092BA068091C10590E08E
:100EA0008215930531F09093C3058093C2050E948B
:100EB00096248091CA059091C9052091C80530916A
:100EC000C7054091C6055091C5056091C40572EEF5
:100ED0007093930560939405509395054093960500
:100EE00030939705209398059093990580939A05E0
:100EF0000E94F212882309F4C3CC8FC21092BA0662
:100F000085E08816910421F58BE995E00E948B0E0F
:100F10009093C3058093C2050E9496248091C205D8
:100F20009091C30522E520939305909394058093B7
:100F300095051092960510929705109298051092BB
:100F4000990510929A051093250600932406D0CF98
:100F500083E075C01092BA061092250610922406FE
:100F60008FCC1092BA068091C10590E0821593054E
:100F700031F09093C3058093C2050E94962410938C
:100F80002506009324066BC1892809F079CC40E03E
:100F900067E170E080E695E00E94BA0E1092670566
:100FA0006FCC1092BA068091D10590916705891B8C
:100FB00090E7909393053092940520929505809345
:100FC0009605109297051092980510929905109227
:100FD0009A058ECF1092BA06A0906705AA2009F450
:100FE0004FCC932CB12C92EF892E1DC0838192811E
:100FF00021813081809293059092940520929505ED
:1010000030939605209397059093980580939905C2
:10101000B0929A050E94F212882321F088E790E0AE
:101020000E949013B394BA1409F42ACC8B2D0E9419
:101030006611FC0180917A058823C1F28AE00E9442
:101040005D131ECCA214B30409F01ACC81E00E94F7
:10105000AC2416CC1092BA06B090B1056FEF6B0DB0
:1010600080E695E00E94381090917A059111E6CFC4
:1010700097E9909393053092940520929505B0924C
:10108000960569C01092BA06E3E9F5E011926E1276
:10109000FDCF0E946824B82E8FEF8B0D0E94661141
:1010A000FC0180917A05882311F086E0C8CF838106
:1010B00092812181308142EF4093930530929405D3
:1010C0002092950530939605209397059093980567
:1010D00080939905B0929A059DC11092BA0620910D
:1010E000B10521110BC08BE98093930530929405D3
:1010F000209295051092960588E02DC0822F90E0F1
:10110000FC013197E830F105E0F4EC5CFF4F0C9402
:10111000103A8091CC0516C08091CF0513C0809104
:10112000CD0510C08091D1050DC08091D2050AC0B7
:101130008091D30507C08091D00504C08091CE0571
:1011400001C080E09BE99093930530929405209232
:101150009505209396058093970556C11092BA067F
:101160008BE995E00E94730E5C018BE995E00E948B
:101170008B0EBC01A50180E695E00E94BA20B82E36
:1011800010922A0610922B0610922C0610922D0611
:10119000482F6AE276E080E695E00E940E218B11EE
:1011A00084CF682F70E020E040E080E695E00E9468
:1011B000140F882309F464CB41CF8091BA068111C2
:1011C0005FCBB090B105BA942091B2059BE1B91202
:1011D0001EC02E3F79F480E695E00E948E21709229
:1011E000BA06D092C305C092C20580E690E00E9484
:1011F000962420E62093C10520936405422F62E1E6
:1012000070E080E695E02A830E94BA0E2A818091E0
:10121000D3058B15F0F0422F6B2D80E695E00E94F0
:1012200048108091C2059091C30529E5209393054C
:1012300090939405809395051092960510929705CA
:10124000109298051092990510929A050E94F21238
:1012500006C0EFEFBE1619F089E00E945D13709290
:10126000D7050ECB1092BA060E946824B82E0E94B1
:101270007F24A82E8091D2058A1508F4DFCE4FEF87
:101280004A0D6FEF6B0D80E695E00E941A10909169
:101290007A059111D3CE9091C2052091C30535EB0B
:1012A000309393052093940590939505B0929605FD
:1012B000A092970580939805A9C01092BA06892834
:1012C00059F50E947F24B82E0E9466114C0140E01F
:1012D0006B2D80E695E00E941A1090917A0591118D
:1012E000E4CEF401938122813181408153ED50930A
:1012F000930540939405309395052093960590931C
:101300009705B09298058093990582C08091BA069E
:101310008111B6CA892879F182E091CE8091BA060E
:101320008111AECA8BE995E00E94730E882E9983D5
:101330000E947F24982E2091B405B0922A06A09294
:101340002B06998190932C0680922D06482F6AE2F5
:1013500076E080E695E02A830E940E212A81891199
:10136000A4CE682F70E040E080E695E00E94140F64
:10137000811164CE3AC08BE995E00E94730E982EDD
:1013800099830E947F24882E2091B5052A830E948C
:101390006824382EB0922A06A0922B069981909349
:1013A0002C0690922D064FEF480F6AE276E080E619
:1013B00095E00E940E21682F70E0432D50E04150CF
:1013C00051092A816417750709F06FCE4FEF480D58
:1013D00080E695E00E94140F90E0282D30E0215027
:1013E00031098217930709F029CE8091C2059091A7
:1013F000C30529E520939305909394058093950563
:1014000010929605109297051092980510929905E2
:1014100010929A050E94F21233CAE091AB06F09145
:10142000AC06309709F42CCA6EE575E08BE995E0BF
:10143000099526CA8E3509F435CC36CC8BE995E072
:101440000E94730E5C018BE995E00E948B0EA50152
:10145000BC0180E695E00E94BA2020916A0530E048
:10146000482F50E0241735070CF45DCBB0CB992002
:1014700009F49ECB2A94232809F47ECB8BE995E0CE
:101480000E944C0E5C0194CB80E00F900F90DF9196
:10149000CF911F910F91FF90EF90DF90CF90BF9071
:1014A000AF909F908F907F906F905F903F902F9024
:1014B0000895CF92DF92EF92FF920F931F93CF93F5
:1014C000DF936C017A018B01C0E0D0E0CE15DF051F
:1014D00089F0D8016D918D01D601ED91FC910190BB
:1014E000F081E02DC6010995892B11F47E0102C01F
:1014F0002196ECCFC701DF91CF911F910F91FF9003
:10150000EF90DF90CF900895089580E090E00895E7
:10151000FC01538D448D252F30E0842F90E0821BF9
:10152000930B541710F0CF96089501970895FC017E
:10153000918D828D981761F0828DDF01A80FB11D0A
:101540005D968C91928D9F5F9F73928F90E008952E
:101550008FEF9FEF0895FC01918D828D981731F0E8
:10156000828DE80FF11D858D90E008958FEF9FEF3C
:101570000895FC01918D228D892F90E0805C9F4F12
:10158000821B91098F73992708958FE593E00E943C
:10159000B90A21E0892B09F420E0822F0895FC018B
:1015A000848DDF01A80FB11DA35ABF4F2C91848DEC
:1015B00090E001968F739927848FA689B7892C9321
:1015C000A089B1898C9180648C93938D848D9813BC
:1015D00006C00288F389E02D80818F7D8083089585
:1015E000EF92FF920F931F93CF93DF93EC0181E073
:1015F000888F9B8D8C8D981305C0E889F98980812F
:1016000085FD24C0F62E0B8D10E00F5F1F4F0F736A
:101610001127E02E8C8DE8120CC00FB607FCFACF14
:10162000E889F989808185FFF5CFCE010E94CF0A34
:10163000F1CF8B8DFE01E80FF11DE35AFF4FF082D1
:101640000B8FEA89FB898081806207C0EE89FF8960
:101650006083E889F98980818064808381E090E0FB
:10166000DF91CF911F910F91FF90EF900895CF934D
:10167000DF93EC01888D8823C9F0EA89FB8980819A
:1016800085FD05C0A889B9898C9186FD0FC00FB66C
:1016900007FCF5CF808185FFF2CFA889B9898C91AD
:1016A00085FFEDCFCE010E94CF0AE7CFDF91CF912A
:1016B000089580E090E0892B29F00E94C50A8111ED
:1016C0000C9400000895833081F028F4813099F063
:1016D0008230A1F008958730A9F08830B9F08430C5
:1016E000D1F4809180008F7D03C0809180008F773E
:1016F00080938000089584B58F7702C084B58F7D74
:1017000084BD08958091B0008F7703C08091B000B0
:101710008F7D8093B00008954230510509F45EC07A
:1017200044F44115510581F04130510509F470C070
:10173000B7C04430510509F4A1C00CF487C045304E
:10174000510509F4A2C0ACC0623409F4ACC080EB0E
:10175000860F8B3008F4A7C084EA860F823008F425
:10176000A2C081E9860F873008F49DC080E7860F0C
:101770008F3008F498C080E5860F873008F493C056
:1017800088E4860F823008F48EC083E4860F8230AE
:1017900008F489C080E3860F863008F484C088E2AC
:1017A000860F823008F47FC083E2860F823008F40F
:1017B0007AC0633E09F477C080E1860F823008F476
:1017C00072C08DE0860F873008F46DC081E06D3FF8
:1017D00009F468C06E3F09F063C067C0862F8F7B35
:1017E0008059863008F45FC080E5860F853008F4A4
:1017F0005AC080E1860F823008F455C08DE0860F14
:10180000823008F450C081E0653F09F049C04DC006
:101810006B3509F448C088E6860F833008F443C06E
:10182000862F8F7D8D598230F0F188E4860F8230CB
:10183000D0F188E2860F8230B0F183E2860F8230E9
:1018400090F188E0860F843008F62DC08FED860F6A
:10185000833048F18CEB860F873028F16C3419F116
:10186000603609F16038F9F08EE7860F8430D8F0E1
:10187000623AC9F081E0613E99F417C0603499F092
:10188000613689F0613CB1F70EC0603861F08EE7D7
:10189000860F843040F081E0623A39F0613C29F0F3
:1018A00080E00895089581E0089508950E94433BE3
:1018B0000C94AB3A0C94AB3A1F920F920FB60F9266
:1018C00011242F933F934F935F936F937F938F9345
:1018D0009F93AF93BF93EF93FF938FE593E00E94A5
:1018E000CF0AFF91EF91BF91AF919F918F917F911F
:1018F0006F915F914F913F912F910F900FBE0F907D
:101900001F9018951F920F920FB60F9211242F93CC
:101910008F939F93EF93FF93E0916F03F091700388
:101920008081E0917503F091760382FD12C0908171
:10193000809178038F5F8F7320917903821751F024
:10194000E0917803F0E0E15AFC4F958F80937803A3
:1019500001C08081FF91EF919F918F912F910F9006
:101960000FBE0F901F901895CF93DF93282F30E074
:10197000F901EA5CFC4F8491F901EC54FF4FD491DA
:10198000F901E853FF4FC491CC2391F081110E94DB
:10199000630BEC2FF0E0EE0FFF1FE45DFC4FA59111
:1019A000B491EC91ED2381E090E021F480E002C05D
:1019B00080E090E0DF91CF9108951F93CF93DF9364
:1019C000282F30E0F901EA5CFC4F8491F901EC54D6
:1019D000FF4FD491F901E853FF4FC491CC23C9F0D4
:1019E000162F81110E94630BEC2FF0E0EE0FFF1F0A
:1019F000EE5DFC4FA591B4918FB7F894111105C01D
:101A00009C91ED2FE095E92302C0EC91ED2BEC9336
:101A10008FBFDF91CF911F910895CF93DF9390E017
:101A2000FC01EC54FF4F2491FC01E853FF4F8491DB
:101A3000882361F190E0880F991FFC01E655FF4F64
:101A4000C591D491FC01EE5DFC4FA591B49161115B
:101A500009C09FB7F8948881209582238883EC91F0
:101A60002E230BC0623061F49FB7F8943881822F27
:101A7000809583238883EC912E2B2C939FBF06C0E7
:101A80008FB7F894E8812E2B28838FBFDF91CF91F9
:101A900008958E3008F08E5087702091000190E4F8
:101AA000299F90011124822B80937C0080917A00E1
:101AB000806480937A0080917A0086FDFCCF8091CB
:101AC00078002091790090E0922B08953FB7F89428
:101AD00080915B0390915C03A0915D03B0915E03E4
:101AE00026B5A89B05C02F3F19F00196A11DB11D79
:101AF0003FBFBA2FA92F982F8827820F911DA11DB4
:101B0000B11DBC01CD0142E0660F771F881F991FF0
:101B10004A95D1F708958F929F92AF92BF92CF923C
:101B2000DF92EF92FF926B017C010E94660D4B01E8
:101B30005C01C114D104E104F104F1F00E94660DCE
:101B4000DC01CB0188199909AA09BB09883E934099
:101B5000A105B10570F321E0C21AD108E108F1082E
:101B600088EE880E83E0981EA11CB11CC114D1041C
:101B7000E104F10419F7DDCFFF90EF90DF90CF90F3
:101B8000BF90AF909F908F9008952FB7F894609179
:101B90005703709158038091590390915A032FBFB6
:101BA00008951F920F920FB60F9211242F933F9317
:101BB0008F939F93AF93BF93809157039091580356
:101BC000A0915903B0915A033091560323E0230F9B
:101BD0002D3720F40196A11DB11D05C026E8230F65
:101BE0000296A11DB11D2093560380935703909335
:101BF0005803A0935903B0935A0380915B039091CB
:101C00005C03A0915D03B0915E030196A11DB11D1F
:101C100080935B0390935C03A0935D03B0935E039A
:101C2000BF91AF919F918F913F912F910F900FBED8
:101C30000F901F9018958EBD00000DB407FEFDCFCC
:101C40008EB50895FC019381892F8F7D8059823054
:101C500058F080E3890F823038F081E0903F31F016
:101C6000913F21F080E0089581E008950895FC01FE
:101C70009381892F8F7D8859823058F088E2890FAF
:101C8000823038F081E0983F31F0993F21F080E0D8
:101C9000089581E0089508951F93CF93DF93EC0199
:101CA0001B8141E050E0612F0E948C0B8823A9F03A
:101CB00086E0810F823010F01B3531F42C8930E042
:101CC000322F22278D8905C02E8930E0322F22271E
:101CD0008F89A901482BCA0102C080E090E0DF9102
:101CE000CF911F910895CF93DF93EC0142E050E034
:101CF0006B810E948C0B882349F02E8930E0322FB3
:101D000022278F89A901482BCA0102C080E090E0F8
:101D1000DF91CF910895CF93DF93EC0140E050E045
:101D20006B890E948C0B882349F02C8930E0322F7C
:101D300022278D89A901482BCA0102C080E090E0CA
:101D4000DF91CF910895FC01DC0153964B961D92D3
:101D5000A817B907E1F7138E148E158E168E178EFD
:101D600011A210A212A20895089508950C94CC39DE
:101D70000C94C439CF92DF92EF92FF921F93CF93CE
:101D8000DF937C016B01142FCB010E94B80E8117E9
:101D900021F0612FC6010E94B60EF70182852385CE
:101DA00030E02C5F3F4F829FE001839FD00D1124D4
:101DB00085859685C80FD91FC535F1E0DF0764F525
:101DC000CC0DDD1DCE010E94B80E811721F0612FD0
:101DD000CE010E94B60EF7018285238530E02C5F8C
:101DE0003F4F829FA001839F500D112485859685CA
:101DF000840F951FC80FD91FCE010E94B80E8117FE
:101E000059F0612FCE01DF91CF911F91FF90EF909C
:101E1000DF90CF900C94B60EDF91CF911F91FF9081
:101E2000EF90DF90CF9008950F931F93CF938C0185
:101E3000942FD80117964C9150E06417750718F04D
:101E400081E0890F23C0D8011B96EC919E17C0F743
:101E5000422FC92FDB01C8016C2F70E09B012C5F62
:101E60003F4FF0E03496AE9FB001AF9F700DBE9F24
:101E7000700D1124D8011D96ED91FC911E976E0FE7
:101E80007F1F620F731F0E94BA0E8C2FCF911F917C
:101E90000F9108954F925F926F927F928F929F92CF
:101EA000AF92BF92CF92DF92EF92FF920F931F9368
:101EB000CF93DF931F92CDB7DEB78C010E947721BD
:101EC000F8012285838590E00496289F6001299F70
:101ED000D00C112485859685C80ED91EF5E5CF1640
:101EE000F1E0DF060CF06DC08FEF93E00E94B80EBA
:101EF000582E8EEF93E00E94B80EF82E8DEF93E0EF
:101F00000E94B80E5F1491F0581691F0F81207C0B5
:101F10006F2D8EEF93E00E94B60E5F2C01C0512C06
:101F20005601AA0CBB1CE12CF12C26C05816C1F39B
:101F3000652D8FEF93E00E94B60EF2CFC7010E948D
:101F4000B80E682F37016C0C7D1CC30169830E9499
:101F5000B80E482E47018A0C9B1CC4010E94B80E83
:101F60006981641591F068130BC0C3010E94B60E1D
:101F700053948FEFE81AF80AEC14FD04FCF20CC03D
:101F80004812F7CF642DC701F1CF681791F353942E
:101F9000C4010E94B60EEDCF8FEF93E00E94B80E01
:101FA000581679F0652D8DEF93E00E94B60E652DE1
:101FB0008EEF93E00E94B60E652D8FEF93E00E94A6
:101FC000B60E80E090E00E94B80E8D3519F0C80181
:101FD0000E948E2182E190E00E94B80EF801848375
:101FE00083E190E00E94B80EF801858384E190E0DF
:101FF0000E94B80EF801868385E190E00E94B80E39
:10200000F801848B87E190E00E94B80EF801878385
:102010000F90DF91CF911F910F91FF90EF90DF9084
:10202000CF90BF90AF909F908F907F906F905F9078
:102030004F900895FC01128E87816817B0F42385B4
:10204000421798F450E04C5F5F4F30E02C5F3F4FF9
:10205000629FD001639FB00D1124858596858A0FFC
:102060009B1F840F951F0C94B80E8FEF828F0895DD
:10207000FC01128E8185681718F08FEF828F08950A
:10208000E62FF0E0EE0FFF1FEC5FFA4F808108951E
:10209000FF920F931F93CF93DF93FC0121852617A7
:1020A00038F1F42E8C01C62FD0E0FE01EE0FFF1F99
:1020B000EC5FFA4F842F90E0918380836996CE0184
:1020C0000E94B80EF816A1F06CE1C8010E94381009
:1020D00086FF04C08EE093E00E9490134F2DBE0156
:1020E000C801DF91CF911F910F91FF900C94BA0E10
:1020F000DF91CF911F910F91FF900895CF92DF92C2
:10210000FF920F931F93CF93DF931F92CDB7DEB74C
:10211000F82E162F042F60E080918B0579830E94A2
:10212000DD0C82E00E941B0E8F2D0E941B0EF12EF3
:10213000C12E7981D72E8C2D8F19801730F4F6019E
:1021400081916F010E941B0EF6CF61E080918B059B
:102150000F90DF91CF911F910F91FF90DF90CF9063
:102160000C94DD0C009769F0FC0101900020E9F768
:102170003197AF01481B590BBC018FE593E00C94DC
:10218000590A80E090E008950C94B2108F929F92CB
:10219000AF92BF920F931F93CF93DF93CDB7DEB76C
:1021A000A1970FB6F894DEBF0FBECDBF19A2423083
:1021B00008F44AE08E010F5D1F4F842E912CA12C54
:1021C000B12CA50194010E94DA39E62FB901CA01A8
:1021D00001501109EA3014F4E05D01C0E95CD80156
:1021E000EC93232B242B252B61F7C8010E94B210FE
:1021F000A1960FB6F894DEBF0FBECDBFDF91CF9191
:102200001F910F91BF90AF909F908F900895CF92A4
:10221000DF92EF92FF92CF93DF936B017C01411528
:10222000510581F4E0915F03F09160030190F0812A
:10223000E02D8FE593E0DF91CF91FF90EF90DF905D
:10224000CF9009944A30510511F597FF1FC0E091D6
:102250005F03F09160030190F081E02D6DE28FE566
:1022600093E00995EC0166277727CB016C197D096E
:102270008E099F094AE00E94C6108C0F9D1FDF91B6
:10228000CF91FF90EF90DF90CF9008954AE0C70183
:10229000B601DF91CF91FF90EF90DF90CF900C943B
:1022A000C6104115510551F4E0915F03F0916003B0
:1022B0000190F081E02D8FE593E009940C94C61015
:1022C000BC0180E090E04AE00C94C61010927005CA
:1022D00010927105109272051092730510927A0592
:1022E00090916A05981720F090916705981720F44F
:1022F00081E080937A0521C090E0FC01EE0FFF1F82
:10230000E450FC4F208120937005FC01EE0FFF1F6D
:10231000E25CFB4F208120937105FC01EE0FFF1F53
:10232000E058FB4F208120937205880F991FFC0114
:10233000EE53FB4F80818093730580E795E008950D
:102340001F93CF93DF93182FCEE5D5E060E08DA5E6
:102350000E94DD0C83E00E941B0E812F0E941B0E49
:1023600080E00E941B0E182F61E08DA50E94DD0CFD
:10237000812FDF91CF911F910895EF92FF920F93DC
:102380001F93CF93DF931F92CDB7DEB7082F162F81
:102390008EE5E82E85E0F82E60E0F70185A54983FB
:1023A0000E94DD0C85E00E941B0E802F0E941B0EF8
:1023B000812F0E941B0E4981842F0E941B0E61E019
:1023C000F70185A50F90DF91CF911F910F91FF909D
:1023D000EF900C94DD0C0F931F93CF93DF93082F96
:1023E000162FCEE5D5E060E08DA50E94DD0C82E0E1
:1023F0000E941B0E802F0E941B0E812F0E941B0E1D
:1024000061E08DA5DF91CF911F910F910C94DD0CB0
:102410007F928F929F92AF92BF92CF92DF92EF9274
:10242000FF920F931F93CF93DF9300D000D0CDB7CF
:10243000DEB710927B0560937C0570937D058093D9
:102440007E0590937F05493008F048E04093800571
:1024500010928905A1E8B5E0F90150E0CF01821B97
:10246000930B841795071CF481918D93F7CFC12CA2
:10247000D12C70E3A72EE0E49E2EF0E58F2E8E0186
:102480000F5F1F4FA3E07A2E700EA9829A828B8273
:102490007801F701B1907F018B2D0E94A011982F38
:1024A000987083FD04C0FF24F394FB0C04C07E10DD
:1024B000F0CFF12C92E0FFEFCF1ADF0A923029F42F
:1024C00022E3C216D10409F778C082E3C816D1040A
:1024D00009F473C04091800561E875E085E08F0DD7
:1024E0000E947E1080918905813029F480918005B9
:1024F0008064809380056091800584E08F0D0E9448
:10250000EB1140917C0550917D0560917E057091A5
:102510007F0580917B058130B1F44C835B83AB01F7
:1025200066277727942F9C71842F8370E8E09E9F05
:10253000800D112488608A8365E0569547956A95D9
:10254000E1F749830DC0CA0123E0969587952A9546
:10255000E1F789834295440F407E4A831C821B82A7
:1025600044E0B8018F2D0E947E10FA9448E068E0A4
:102570008F2D0E94BD1100E010E00F5F1F4F8F2DC7
:102580000E94A01183FF04C002331105B1F717C0E8
:1025900002331105A1F010927C0510927D05109276
:1025A0007E0510927F051092800510927B05109297
:1025B000890510928A0580E003C086E001C087E0AB
:1025C0000F900F900F900F90DF91CF911F910F916F
:1025D000FF90EF90DF90CF90BF90AF909F908F9043
:1025E0007F900895CF93DF93C0919305C63B21F070
:1025F000C295C695C77001C0C7E0CF5F81E08093E8
:102600009005809391056091C10570E080E090E0B5
:1026100023E935E04C2F0E940812811102C080E0AE
:102620000FC0D3E06091C10570E080E090E023E945
:1026300035E04C2F0E940812882389F3D15091F77E
:10264000DF91CF9108950F931F93CF93DF93C0E055
:10265000D0E0082F10E0B8010C2E02C075956795E8
:102660000A94E2F76170772789E00E94DD0C61E04F
:1026700087E00E94DD0C60E087E00E94DD0C21967F
:10268000C830D10541F7DF91CF911F910F91089587
:102690008FEC91E00C94B210CF93DF93AB01BC01AF
:1026A000990F880B990B0E940711EC010E944813A7
:1026B0008C0F9D1FDF91CF910895EEE5F5E0A2EC20
:1026C000B5E09C9111962C913FE635AB26AB97ABCC
:1026D00080AF11AE12AE13AE14AE0C94F2120F9383
:1026E0001F93CF93DF938C01C0E0D0E0F801EC0F93
:1026F000FD1F6491662371F0E0915F03F091600328
:102700000190F081E02D8FE593E00995892B11F080
:102710002196ECCFCE01DF91CF911F910F910895BB
:10272000CF93DF930E946F13EC010E9448138C0F2C
:102730009D1FDF91CF9108959FEF980F8091D30552
:10274000891740F0462F692F80E695E00E944810D7
:1027500081E0089581E09F3F09F080E00895AB019A
:10276000BC01990F880B990B0C940711AF92BF9283
:10277000CF92DF92FF920F931F93CF93DF93EC01E1
:102780008B01FB01E858FF4FF080FF2009F460C186
:1027900080919E02882309F443C082E394E00E9462
:1027A0006F136AE070E08F2D0E942E2486E294E081
:1027B0000E946F13CE010E94370E98012E5F3F4F8B
:1027C0006901882339F0CE010E944C0EAC0160E013
:1027D00070E009C0CE010E94730E5C01CE010E9420
:1027E0008B0EBC01A501C6010E94BA20F801ED586C
:1027F000FF4F9081891730F440E0682FC6010E9496
:102800001A1001C080E06AE070E00E942E2482ED80
:1028100091E00E94C41060E170E08B810E94452429
:102820009FEF9F0D9830A9F40E94660D6093CC0233
:102830007093CD028093CE029093CF020E94660DDA
:102840006093C8027093C9028093CA029093CB022E
:102850007DC1913208F07AC18B81282F277F2039E2
:1028600019F001E0813009F400E082EF8F0D84302F
:1028700008F04BC080919E02C92FD0E08823B9F0A8
:102880008AE194E00E946F136AE070E0CE010C9739
:102890000E94AF1383E891E00E94C4106AE070E0E8
:1028A000802F0E942E2482EF91E00E94C4102D9769
:1028B00080919202909193020C2E02C0959587957B
:1028C0000A94E2F780FD07C0CF5DDE4F602F88815C
:1028D0000E94DD0C08C080919E02882321F083E1D4
:1028E00094E00E946F1380919E02882309F42EC108
:1028F0008DE094E0DF91CF911F910F91FF90DF90D9
:10290000CF90BF90AF900C9490131EEE1F0D1C3013
:1029100008F04CC080919E02882309F184E094E085
:102920000E946F13812F90E06AE070E001960E9490
:10293000AF1383E891E00E94C4106AE070E0802F3A
:102940000E942E248091C702811105C081ED91E083
:102950000E94B42304C084EE93E00E9490138091FF
:10296000C7028111F3C0212F30E04091B90250918C
:10297000BA02F901EB5DFE4F81E090E0A0E0B0E02B
:10298000008004C0880F991FAA1FBB1F0A94D2F7AA
:10299000002319F0842B952B04C0809590958423F7
:1029A00095239093BA028093B902D0C09D3108F468
:1029B000CDC012EE1F0D80919E028823A1F08AEDFA
:1029C00093E00E946F13812F90E06AE070E001961F
:1029D0000E94AF1383E891E00E94C4106AE070E0A7
:1029E000802F0E942E24CE010E94730E892B21F18C
:1029F0002091D206002381F081E090E0A0E0B0E0D9
:102A0000012E04C0880F991FAA1FBB1F0A94D2F77A
:102A1000822B8093D20610C041E050E060E070E06D
:102A2000012E04C0440F551F661F771F0A94D2F76A
:102A3000409542234093D206812FDF91CF911F9181
:102A40000F91FF90DF90CF90BF90AF900C94C62273
:102A50006CE180E695E00E94381086FF77C0CE01D9
:102A60000E94220E882389F08CEC93E00E946F1361
:102A7000CE010E948B0E0E94601182EC93E00E94B6
:102A80006F13CE010E94730E0CC0CE010E94370E50
:102A9000882391F085EB93E00E946F13CE010E9492
:102AA0004C0EDF91CF911F910F91FF90DF90CF904F
:102AB000BF90AF900C94352488ED91E00E94C41033
:102AC00060E170E08B810E942E248EED91E00E94E7
:102AD000C410CE010E948B0E0E94601186EE91E020
:102AE0000E94C4108C8D8295869587709B8D40E1E5
:102AF000949F90011124822B8A836AE070E00E94E7
:102B00002E2486EA93E00E946F138B8990E025E0E3
:102B1000959587952A95E1F78C836AE070E00E948D
:102B20002E248DE993E00E946F136AE070E080919B
:102B3000240690912506DF91CF911F910F91FF9070
:102B4000DF90CF90BF90AF900C944C13DF91CF915A
:102B50001F910F91FF90DF90CF90BF90AF9008959D
:102B600082E993E00C946F13FF920F931F93CF931E
:102B7000DF93F82EC62F82EF91E00E94C410D0E0C0
:102B8000FE01EE0FFF1FE857FD4F6AE070E0808105
:102B900091810E94AF1382EF91E00E94C41000E97E
:102BA00012E06AE070E0F801808191810E94AF1329
:102BB00082EF91E00E94C4102196BE01660F771F3C
:102BC000C60FD71FCC0FDD1FCC5BDD4F88819981ED
:102BD0006AE070E081509F4F0E94AF1382EF91E056
:102BE0000E94C41028813981F80180819181A90156
:102BF000481B590BCA016AE070E081509F4F0E9448
:102C0000AF1382EF91E00E94C4106AE070E08F2D54
:102C1000DF91CF911F910F91FF900C942E240F9371
:102C20001F93CF938C01C62F60FF04C082EF91E009
:102C30000E94C41080E991E00E94C410C8010E9463
:102C400060118FEE91E00E94C410C1FF07C082EFB7
:102C500091E0CF911F910F910C94C410CF911F91CF
:102C60000F91089587E893E00C946F138DE793E03C
:102C70000C946F1382E793E00C946F138BE693E050
:102C80000C94901386E593E00C946F1360E088E059
:102C90000E94DD0C8091BA020E9423138091B90238
:102CA0000E94231361E088E00C94DD0C2F923F9288
:102CB0004F925F926F927F928F929F92AF92BF924C
:102CC000CF92DF92EF92FF920F931F93CF93DF93F8
:102CD00000D01F92CDB7DEB71092D70560E080E636
:102CE00095E00E943810982F991F9927991F90936B
:102CF000C702869581708093010202E012E078019C
:102D0000B12C8B2D0E946611FC01228130E0322F04
:102D100022278381282BF701219331937F01B394DC
:102D2000F1E2BF12EECFE0907A02F0907B026AE10E
:102D300080E695E00E94AD2090E0E816F90609F4DF
:102D400089C08BEBE82E82E0F82E212C312C9924BF
:102D50009394412C512C32014394822CA0907A02FE
:102D6000B0907B02022C02C0B594A7940A94E2F7BB
:102D70006AE180E695E00E94AD2090E0022C02C05E
:102D8000959587950A94E2F7A826B926A0FE40C03B
:102D90008091FE01282F30E0022C02C03595279546
:102DA0000A94E2F7B301A201022C04C0440F551F9C
:102DB000661F771F0A94D2F720FD04C0482B40936A
:102DC000FE0104C0409584238093FE01F7018081B9
:102DD000882311F0108202C0F70190828091FE01D9
:102DE00090E002C0959587958A94E2F79091010250
:102DF000F8016081718180FF06C081E0911180E05F
:102E00000E94F72305C081E0911180E00E94C02359
:102E1000FFEF2F1A3F0A0E5F1F4F2FEFE21AF20A41
:102E20008CE02816310409F098CF6AE180E695E03D
:102E30000E94AD2090E090937B0280937A02809173
:102E4000FE0190916905993128F090E09093370543
:102E500080933605E4E4AE2EE2E0BE2EBB82AA8269
:102E6000F3E03F2E00E010E0A3E08A2E912C412CED
:102E7000512C320143940983202E6EEF630D80E6BE
:102E800095E00E94AD2090E0EA81FB8183309105BE
:102E90001CF09383828302C0938282826FEF630D62
:102EA00080E695E00E94AD2090E0EA81FB818330CE
:102EB00091051CF09583848302C09582848204303E
:102EC000110508F476C0EE24E394F12C022C02C024
:102ED000EE0CFF1C0A94E2F78091B80290E08E217C
:102EE0009F21632D8E159F0569F5809101019091B9
:102EF0000201892B39F580E695E00E94AD208F3FD5
:102F000009F057C08CE390E0909302018093010197
:102F1000D301C20104C0880F991FAA1FBB1F2A94A6
:102F2000D2F780959091B80289238093B80280915E
:102F30009E028823F1F10E94B01587EB92E00E9477
:102F4000901337C080E695E00E94AD20282F30E036
:102F5000EA81FB813783268381508E3F50F11092A6
:102F60000201109201018091B802E82AE092B802B1
:102F70008091B7022F3F310511F48F7701C080682F
:102F80008093B70280919E02882359F00E94B01569
:102F90008AE493E00E946F136AE070E089810E94E6
:102FA0004524EFE9F2E01192119222E0E73BF207AB
:102FB000D1F70F5F1F4F83E0380EEA81FB81369611
:102FC000FB83EA83FBE13F1256CF48E8842E42E0C0
:102FD000942E5FE9E52E52E0F52E212C312C412C68
:102FE000512C3201439462E2620D80E695E00E942A
:102FF000AD2090E0F401819391934F0181010F5F27
:103000001F4F602F660F600F80E695E00E94AD2095
:10301000282F30E0F5013783268381508E3FE0F082
:10302000D301C20104C0880F991FAA1FBB1F2A9495
:10303000D2F72091B802822B8093B802F701118257
:1030400010828BE890E00E946F130E943A166AE0AB
:1030500070E0C8010E944C13F6E0AF0EB11C22E0F4
:10306000E20EF11C18010430110509F0BCCF66E234
:1030700080E695E00E94AD2090E0909391028093CD
:10308000900261E280E695E00E94AD2090E090938E
:1030900087028093860267E280E695E00E94AD2079
:1030A00090E090939302809392023EE7E32E32E009
:1030B000F32E01E211E0A12CB12C6DE16A0D80E646
:1030C00095E00E94AD2090E0F701819391937F01FC
:1030D00080919202909193020A2C02C09595879557
:1030E0000A94E2F780FF02C062E001C061E0F801EB
:1030F00080810E940D0DFFEFAF1ABF0A0F5F1F4FB7
:1031000024E0A216B104C9F684E9A82E82E0B82E04
:1031100093ED892E96E0992E2CE3E22E22E0F22EFA
:1031200018E2612F80E695E00E94AD2090E0F50165
:10313000819391935F01F401892B19F08081806460
:1031400002C080818F7B8083F701819191917F0103
:10315000F401892B19F08081806202C080818F7D0B
:1031600080831F5FFFEF8F1A9F0A1C32D1F60E94E7
:10317000A8236DE280E695E00E94AD2090E0909358
:103180009F0280939E026CE180E695E00E943810D9
:10319000881F8827881F80939E028823C1F06CE1D6
:1031A00080E695E00E9438108F70809300026CE1F9
:1031B00080E695E00E94381090919E0285FBCC2419
:1031C000C0F8D12CC90ED11CC0929E0202C0109230
:1031D00000020F900F900F90DF91CF911F910F91F0
:1031E000FF90EF90DF90CF90BF90AF909F908F9027
:1031F0007F906F905F904F903F902F900895CF9267
:10320000DF92EF92FF920F931F93CF93DF931F9262
:10321000CDB7DEB7C82E8B0189ED92E049830E94BD
:103220006F13D12C6AE070E0C60101960E94AF13C3
:10323000760124E0E20EF11CF701EE0FFF1FEE5FB6
:10324000FD4F63E0808191810E940F1649814423E4
:1032500019F088E991E002C084E991E00E94C4106D
:1032600080917A0290917B0202C095958795EA94AD
:10327000E2F780FD0E94361680919E02882309F4B1
:103280006DC081EF91E00E94C410760135E0E30E3D
:10329000F11CC701880F991FE80EF91EEE0CFF1CE8
:1032A000F701EC5BFD4F808191819C0120743327F5
:1032B00087FF19C0232B61F08F73992746E0489F41
:1032C0009001499F300D1124C9018B539E4F15C0A9
:1032D0008F7799279C01220F331F220F331FC901BB
:1032E0008D539F4F0AC0232B41F08F7399279C0168
:1032F000220F331FC9018F5B9F4F6AE070E00E946D
:10330000AF13F701EC5BFD4F63E0808191810E9478
:103310000F16C601880F991FFC01EF53F94F7F016B
:103320006AE070E0808191810E94AF1382EF91E0AA
:103330000E94C4106AE070E0C8010E94AF1382EFDF
:1033400091E00E94C410F701808191816AE070E0F1
:103350009801281B390BC9010E94AF1381ED91E040
:103360000F90DF91CF911F910F91FF90EF90DF9021
:10337000CF900C94B423AF92BF92CF92DF92EF9292
:10338000FF920F931F93CF93DF93E090D106F12C20
:10339000E7012196C370DD27F701E75EFE4F8081CC
:1033A0000E94490D8C0140910101509102014C3362
:1033B000510508F081C0C70104962091B80230E0A1
:1033C000082E02C0359527950A94E2F720FF74C0B5
:1033D000F701EE0FFF1FEF53F94F208131812017C6
:1033E00031077CF4FC01EE0FFF1FE156FD4FC801D1
:1033F000821B930B9C0180819181820F931F91838B
:1034000080834F5F5F4F5093020140930101809191
:103410009E02882309F450C08BE890E00E946F134D
:103420008091D10690E06AE070E001960E94AF13AF
:1034300082EF91E00E94C4100E94660D4AE050E0C5
:103440000E94511182EF91E00E94C41062E070E08E
:103450008091B8020E942E2482EF91E00E94C41055
:103460006AE070E080910101909102010E94AF1327
:1034700082EF91E00E94C410E091D106F0E0EE0FDF
:10348000FF1FEF53F94F808191816AE070E0D8010E
:10349000A81BB90BCD010E94AF1382EF91E00E94EF
:1034A000C410E091D106F0E0EE0FFF1FE955FD4F8B
:1034B000808191810E9435248091D10690E005960B
:1034C0002091000230E08217930709F0B7C084EF23
:1034D00091E00E94C4108091D10690E06AE070E013
:1034E00001960E94AF1382EF91E00E94C410E09118
:1034F000D106F0E0ED52F94F67E070E080810E9464
:103500002E2482EF91E00E94C4100E94660D4AE0D2
:1035100050E00E94511182EF91E00E94C4106AE0D5
:1035200070E08091FE010E942E2482EF91E00E94C3
:10353000C410E091D106F0E0EE0FFF1FEF53F94FFA
:103540006AE070E0808191810E94AF1382EF91E088
:103550000E94C4106AE070E0C8010E94AF1382EFBD
:1035600091E00E94C410E091D106F0E0EE0FFF1F41
:10357000E753F94F6AE070E0808191810E94AF13B8
:1035800082EF91E00E94C4108091D10690E00596F0
:10359000FC01EE0FFF1FE80FF91FEE0FFF1FEC5BA2
:1035A000FD4F808191819C012074332787FF17C0D4
:1035B000232B61F08F73992746E0489F9001499F24
:1035C000300D1124C9018B539E4F11C08F7799275D
:1035D000880F991F880F991F8D539F4F08C0232B69
:1035E00031F08F739927880F991F8F5B9F4F6AE087
:1035F00070E00E94AF138091D10690E00596FC0127
:10360000EE0FFF1FE80FF91FEE0FFF1FEC5BFD4FE2
:1036100063E0808191810E940F16E091D106F0E075
:10362000EE0FFF1FEF53F94F808191816AE070E048
:10363000F801E81BF90BCF010E944C138091D106D1
:10364000282F30E0F901ED52F94F908197FF5DC1CD
:10365000F901EE0FFF1FDF01AF53B94FAD90BC90E2
:103660007801EA18FB08A9014B5F5F4FBA01660FAA
:10367000771F640F751FAB01440F551F4C5B5D4FE7
:10368000DA014D915C916A01B0E4CB22DD2447FF61
:1036900017C0CD2861F04F73552796E0949F6001C5
:1036A000959FD00C1124A6014B535E4F11C04F774C
:1036B0005527440F551F440F551F4D535F4F08C0EA
:1036C000CD2831F04F735527440F551F4F5B5F4F87
:1036D0004E155F050CF085C0A016B1060CF081C038
:1036E000E753F94F4081518157FF05C081E090E0D9
:1036F0009183808337C12C5F3F4F660F771FDB01BB
:10370000A05CBD4F6D917C914617570709F42AC103
:103710004F5F5F4F518340834617570709F022C11F
:1037200040917A0250917B02022E02C05595479536
:103730000A94E2F79091FE0140FF1FC0492F50E02C
:10374000022E02C0559547950A94E2F740FD0AC142
:1037500041E050E060E070E0022E04C0440F551FCD
:10376000661F771F0A94D2F7492B4093FE01F90197
:10377000E554FD4F91E090831EC0492F50E0022E8A
:1037800002C0559547950A94E2F740FFEBC041E02F
:1037900050E060E070E0022E04C0440F551F661F29
:1037A000771F0A94D2F7409594239093FE01F90174
:1037B000E554FD4F108241E0B8010E94FF1880914E
:1037C000D10690E004962091FE0130E0082E02C060
:1037D000359527950A94E2F7880F991F30910102D9
:1037E00077C0AF014753594F6A01FA01A081B181F7
:1037F0001A161B061CF411821082B4C0EE24FF249A
:10380000EA1AFB0A2C5F3F4F660F771F6E5B7D4FF6
:10381000FB014081518147FF08C04F775527405E2B
:103820005F4F440F551F440F551FE416F50609F46A
:1038300099C0BD0161507109F6017183608361E037
:1038400070E06A1B7B0B6417750709F08BC0409111
:103850007A0250917B02022E02C0559547950A9438
:10386000E2F79091FE0140FFC4C0492F50E0022EC4
:1038700002C0559547950A94E2F740FF73C041E0B6
:1038800050E060E070E0022E04C0440F551F661F38
:10389000771F0A94D2F7409549234093FE01F9011E
:1038A000E554FD4F108240E0B8010E94FF1880915E
:1038B000D10690E004962091FE0130E0082E02C06F
:1038C000359527950A94E2F730910102880F991FE8
:1038D000FC01EE5FFD4F6081718181E020FF05C03A
:1038E000311180E00E94F72304C0311180E00E9472
:1038F000C0238091FE0190916905993198F190E083
:1039000090933705809336052DC089010C5F1F4FBA
:103910008091FE0190E0002E02C0959587950A9453
:10392000E2F780FF1FC0F801EE0FFF1FEE5FFD4FB3
:103930006081718181E090910102911180E00E948B
:10394000C02381E090E0A0E0B0E004C0880F991FA0
:10395000AA1FBB1F0A95D2F780959091FE0189237B
:103960008093FE01C093D106FE01E75EFE4F808189
:103970000E94490DFE01EE0FFF1FEF53F94F918397
:103980008083FE013196E370FF27EB5DFE4F81E0FF
:1039900090E0A0E0B0E0AC01BD01048404C0440F9D
:1039A000551F661F771F0A94D2F7CB5DDE4F0C843C
:1039B00004C0880F991FAA1FBB1F0A94D2F78095D5
:1039C00090952091B9023091BA0282239323482B1B
:1039D000592B5093BA024093B902DF91CF911F91B6
:1039E0000F91FF90EF90DF90CF90BF90AF900C942D
:1039F0004616492F50E0022E02C0559547950A946D
:103A0000E2F740FDAFCFC12CD12C7601C394022E3A
:103A100004C0CC0CDD1CEE1CFF1C0A94D2F7C92A92
:103A2000C092FE01F901E554FD4F91E090833BCF38
:103A30004F925F926F927F92AF92BF92CF92DF923E
:103A4000EF92FF920F931F93CF93DF938FE09FEF3F
:103A50009093BA028093B9020E94461662E370E026
:103A600080E090E00E948B0D84E4E82E82E0F82E46
:103A70009FE9C92E92E0D92E14E0C0E0D0E0AA243C
:103A8000AA94B12C412C512C320143940C2F219635
:103A9000F701B782A6826FEF812F0E949C13D3019A
:103AA000C20104C0880F991FAA1FBB1F0A95D2F735
:103AB0002091B802822B8093B802F60111921192E4
:103AC0006F016AE070E0CE010E944C13F6E0EF0E49
:103AD000F11C1D5FC430D105C9F61092BA021092D4
:103AE000B902DF91CF911F910F91FF90EF90DF907E
:103AF000CF90BF90AF907F906F905F904F90089560
:103B00004F925F926F927F928F929F92AF92BF92ED
:103B1000CF92DF92EF92FF920F931F93CF93DF9399
:103B20001F92CDB7DEB781ED91E00E94B42342E051
:103B3000C42E42E0D42E04E412E058E8A52E52E050
:103B4000B52E2801E12CF12C64E1762E0E943A1664
:103B500047012FEF821A920A6AE070E0C4010E94C6
:103B6000AF1383E891E00E94C410F6018191919116
:103B70006F010E9460118EE394E00E946F13F201C6
:103B80008281938101966AE070E09C01729EC0017F
:103B9000739E900D11240E94AF1362E0F2018281A6
:103BA00093810E940F1684E494E00E946F13F20147
:103BB0008481958101966AE070E09C01729EC0014B
:103BC000739E900D11240E94AF1362E0F201848174
:103BD00095810E940F1681EC94E00E946F13F20110
:103BE000868197816AE070E081509F4F0E94AF13F9
:103BF00062E0F201868197810E940F168AEB94E0C1
:103C00000E946F1380918602909187020E2C02C051
:103C1000959587950A94E2F76AE070E0817099279C
:103C20000E94AF1380E891E00E94C410F4E0EF0E10
:103C3000F11C809186029091870202C0959587952C
:103C4000EA94E2F76AE070E0817099270E94AF136E
:103C500081EB94E00E946F13F2018681978120919D
:103C6000900230919102821B930B6AE070E08150C8
:103C70009F4F0E94AF1388EA94E00E946F136AE09E
:103C800070E0F501819191915F010E94AF1361E0B5
:103C9000F601808991890E940F1681ED91E00E94C2
:103CA000B423F6E04F0E511C740124E082169104F7
:103CB00009F04CCF81ED91E00E94B4238AE0A82E58
:103CC00082E0B82E93EDC92E96E0D92E24E9622E1B
:103CD00022E0722EE12CF12C36E0932E89ED92E059
:103CE0000E946F138E2C3FEFE31AF30A6AE070E034
:103CF000C7010E94AF1383E891E00E94C410F50150
:103D0000819191915F010E9460118EE394E00E9485
:103D10006F13F801828D938D01966AE070E0880F31
:103D2000991F880F991F0E94AF1362E0F801828DDE
:103D3000938D0E940F1684E494E00E946F13F801A3
:103D4000848D958D87FF0AC08F779927A4E0880F0F
:103D5000991FAA95E1F78C5F9D4F05C00196880FCA
:103D6000991F880F991F6AE070E00E94AF1362E00C
:103D7000F801848D958D0E940F168EE994E00E94C3
:103D80006F13F801868D978D9C012074332787FF70
:103D900016C0232B59F08F739927989E9001999EF6
:103DA000300D1124C9018B539E4F11C08F77992775
:103DB000880F991F880F991F8D539F4F08C0232B81
:103DC00031F08F739927880F991F8F5B9F4F6AE09F
:103DD00070E00E94AF1360E0F801868D978D0E941D
:103DE0000F16F601808186FFA9C082E994E00E9447
:103DF0006F13F3018081918184FB442740F9282FC0
:103E00002170420F423099F49C012670332735957A
:103E100027952F5F3F4F8076992765E09595879589
:103E20006A95E1F701962817390721F402C0442367
:103E300071F141E08CE894E049830E946F13F30133
:103E400080819181498180FD10C0F3018081918141
:103E500080769927B5E095958795BA95E1F76AE060
:103E600070E001960E94AF1312C086709927959555
:103E700087956AE070E0019649830E94AF134981FB
:103E8000423029F482E991E00E94C410DECFF301B0
:103E90008081918187FB222720F983FB442740F909
:103EA000420F423099F49C012670332735952795AF
:103EB0002F5F3F4F80769927F5E095958795FA9586
:103EC000E1F701962817390721F402C0442381F154
:103ED00041E086E894E049830E946F13F3018081FA
:103EE0009181498183FD10C0F301808191818076A9
:103EF000992775E0959587957A95E1F76AE070E0E6
:103F000001960E94AF1314C08670992795958795E6
:103F10006AE070E0019649830E94AF134981423004
:103F200029F482E991E00E94C410DECF4130E1F62D
:103F300061E0F301808191810E940F16F601819169
:103F40006F0185FF20C086FF11C080919E02909175
:103F50009F0202C0959587958A94E2F780FF03C07F
:103F600081E894E005C08BE794E002C080E794E02C
:103F70000E946F1389E694E00E946F13F50180A9F7
:103F800091A90E94601181ED91E00E94B4230A5F23
:103F90001F4FF2E06F0E711C24E0E216F10409F0ED
:103FA0009DCE81ED91E00E94B4233CE1E32E32E00E
:103FB000F32E0EE712E0612C712C44E1A42E50E5A3
:103FC000B52E0E943216962C3FEF631A730A6AE0F0
:103FD00070E0C3010E94AF1383E891E00E94C41017
:103FE000F701819191917F010E9460118EE394E02D
:103FF0000E946F136801F80120813181207F3327EF
:1040000094E0359527959A95E1F7A29EC001A39E6D
:10401000900D11246AE070E00A960E94AF13F80137
:1040200080819181807F992762E024E09695879531
:104030002A95E1F70E940F1684E494E00E946F1322
:10404000F801219131918F012F703327B29EC00169
:10405000B39E900D11246AE070E044960E94AF1365
:10406000F6018081918162E08F7099270E940F167E
:1040700085E694E00E946F138091920290919302E2
:1040800002C0959587959A94E2F76AE070E0817096
:1040900099270E944C13F4E06F16710409F091CF38
:1040A00081ED91E00E94B42387EF91E00E94C4105B
:1040B0008091C702882329F082E594E00E94901342
:1040C0001FC089E494E00E94901304E212E0EE2401
:1040D000E394F12C6AE070E0C7010E94AF1383E81B
:1040E00091E00E94C410F801819191918F010E948A
:1040F0003524FFEFEF1AFF0A2DE0E216F10451F725
:1041000081ED91E00F90DF91CF911F910F91FF9082
:10411000EF90DF90CF90BF90AF909F908F907F9067
:104120006F905F904F900C94B42323E531E0FC0135
:104130003183208382819381009711F00C94AB3AF4
:104140000895CF93DF93EC010E949520CE01DF917B
:10415000CF910C94AB3A0C94AB3AFC01128E818552
:10416000681728F4862F90E049960C94B80E8FEFCC
:10417000828F0895BF92CF92DF92EF92FF920F93BA
:104180001F93CF93DF93DC01252F3327162FC72EE4
:10419000DD240C2D1796BC901797ECEFF3E090E020
:1041A000772755279B1551F1011102C0112379F092
:1041B000E080F180CE14DF04F1F47F0182E4E80EA8
:1041C000F11CE701E880F9806E157F05A1F47F01FD
:1041D000D4E8ED0EF11CE701E880F9802E153F05CB
:1041E00051F47F01D6ECED0EF11CE701E880F98077
:1041F0004E155F0541F09F5F3296D4CF1A969C9181
:1042000081E0890F01C0892FDF91CF911F910F911C
:10421000FF90EF90DF90CF90BF900895AF92BF9244
:10422000CF92DF92EF92FF921F93CF93DF93DC0147
:104230001A961C91411718F081E0810F4EC0142F7F
:10424000FB017C01242F30E0D901AA0FBB1FA45031
:10425000BC4F808190E08D939C93D901AA0FBB1F26
:10426000A25CBB4F818190E08D939C93D901AA0FF2
:10427000BB1FA058BB4F828190E08D939C93D901C6
:10428000AA0FBB1FAE53BB4F838190E08D939C93CD
:10429000D7011B968C911B9790E00496289F600194
:1042A000299FD00C389FD00C11241D968D919C9184
:1042B0001E97C80ED91E5B01B4E0AB0EB11CEB011A
:1042C000C61AD70AB6016C0F7D1F4991C7010E941B
:1042D000BA0ECA15DB05B1F7812FDF91CF911F917F
:1042E000FF90EF90DF90CF90BF90AF900895FC01CA
:1042F00080E090E0238530E0821793073CF4A281B0
:10430000B381A80FB91F1C920196F4CF80E6848375
:10431000158284EC86831782148A0895EF92FF92A7
:104320000F931F93CF93DF9300D000D0CDB7DEB7AC
:104330008C010E947721F8018285878319821A8275
:1043400082E58B8388E08C83E12CF12CF801828557
:1043500090E0E816F90634F5F8E0EF16F10419F4E8
:1043600029E0E22EF12C0497E816F90614F01B82DE
:104370001C824E2DBE016F5F7F4FC8010E940E212F
:104380008C818F5F8C83811103C08B818F5F8B83C6
:1043900020E040E0B701C8010E94140F2FEFE21A9D
:1043A000F20AD4CF19821A8282E18B8387E68C834A
:1043B00048E0BE016F5F7F4FC8010E940E2120E0E0
:1043C00040E068E070E0C8010E94140F42E860E03D
:1043D000C8010E94481040E069E1C8010E944810ED
:1043E00040EF6AE1C8010E944810FF24F39444E0C2
:1043F0006F2DC8010E94481061E06F0D41E3C801B4
:104400000E94481062E06F0D4FEFC8010E944810F3
:10441000F3E0FF0E2DE0F212EACF44E06F2DC80169
:104420000E94481061E06F0D4CE7C8010E944810DF
:1044300062E06F0D4EE1C8010E94481083E0F80E63
:10444000E9E1FE12EACF40E66BE1C8010E944810A4
:1044500040E06CE1C8010E94481082E2F82E42E37D
:104460006F2DC8010E9448106BEF6F0D46E3C80125
:104470000E944810F394F6E2FF12F1CF4FE061E2A0
:10448000C8010E94481046E066E2C8010E94481038
:104490004FE067E2C8010E94481049E968E2C8019C
:1044A0000E9448104BEB69E2C8010E9448104DED94
:1044B0006AE2C8010E9448104FEF6BE2C8010E94F7
:1044C000481040E06CE2C8010E9448104DE560E0F1
:1044D00070E0C8010E94BA0EF801448162E170E008
:1044E000C8010E94BA0EF801458163E170E0C8017D
:1044F0000E94BA0EF801468164E170E0C8010E9492
:10450000BA0EF801448965E170E0C8010E94BA0E54
:10451000F801478167E170E0C8010E94BA0EF80116
:10452000438568E170E0C8010E94BA0E60E08DEF3B
:1045300093E00E94B60E60E08EEF93E00E94B60E0C
:1045400060E08FEF93E00E94B60EC8010E944A0F10
:104550000F900F900F900F90DF91CF911F910F91BF
:10456000FF90EF9008952BE631E0FC012193319309
:10457000CF010C949520CF93DF93EC010E94B322DE
:10458000CE01DF91CF910C94AB3A0895282F30E003
:10459000F901ED52F94F908196FFA4C0220F331F0D
:1045A000D901AC56BD4F4D915C9140FF1BC020918D
:1045B000860230918702082E02C0359527950A940D
:1045C000E2F720FF0FC02091FF0130E0BA016670D2
:1045D00077277595679502C0359527956A95E2F717
:1045E000217001C020E143FF1BC0609192027091D5
:1045F0009302082E02C0759567950A94E2F760FF52
:104600000FC0DA01A670BB27B595A795A554BD4F7D
:1046100018963C91332311F0226003C02D7F01C016
:10462000206244FF22C06091860270918702082EAA
:1046300002C0759567950A94E2F760FF16C0609115
:10464000FF0170E0DA01A076BB2735E0B595A795AC
:104650003A95E1F702C075956795AA95E2F760FF74
:1046600002C0246003C02B7F01C0206447FF1EC02E
:104670006091920270919302082E02C07595679521
:104680000A94E2F760FF12C0DA01A076BB2735E09A
:10469000B595A7953A95E1F7A554BD4F18963C916D
:1046A000332311F0286003C0277F01C02068322F18
:1046B0003073303319F0322F337011F0926001C033
:1046C0009D7F9083922F907C903C11F02C7019F07C
:1046D0009081946002C090819B7F90839081292F6C
:1046E000267011F096609083908195FF0DC0209107
:1046F000D20630E0082E02C0359527950A94E2F7DD
:1047000020FD02C09E7F01C0916090839081292F7F
:104710002770273019F4906890830895292F2F77F8
:10472000208340919E0250919F0202C0559547956B
:104730008A95E2F740FD0BC096FF04C0892F867072
:10474000863019F09172913211F420682083089517
:1047500080E00E94C62281E00E94C62282E00E9480
:10476000C62283E00C94C622CF93DF930E94B2103E
:10477000EC010E9448138C0F9D1FDF91CF9108958B
:104780001F93CF93DF938823C1F0EB016BE180E6A9
:1047900095E00E943810182F6BE180E695E00E94AA
:1047A000381081E980939305109294051093950534
:1047B000D0939605C09397050FC08091C205909144
:1047C000C30529E92093930590939405809395055B
:1047D000709396056093970510929805109299052D
:1047E00010929A05DF91CF911F910C94F2121F93B2
:1047F000CF93DF938823C1F0EB016BE180E695E076
:104800000E943810182F6BE180E695E00E94381066
:1048100080E9809393051092940510939505D093A9
:104820009605C09397050FC08091C2059091C3056E
:1048300028E92093930590939405809395057093B0
:10484000960560939705109298051092990510921D
:104850009A05DF91CF911F910C94F212AB01682F52
:1048600070E080E090E00C945111CF93DF93BC0195
:1048700080E090E04AE00E94C610EC010E944813DC
:104880008C0F9D1FDF91CF910895CF93DF93AB01E4
:10489000682F70E080E090E00E945111EC010E94CE
:1048A00048138C0F9D1FDF91CF910895CF93C82F90
:1048B000482F60EE8FE00E94BD118FE00E94A01192
:1048C000807E91E08C1301C090E0892FCF910895F4
:1048D00080919E05823721F08C3911F0853B19F4C7
:1048E0008091B1050895853F19F48091B30508952D
:1048F000823F19F48091B505089580E00895809174
:104900009E058C3911F0853B19F48091B20508950C
:10491000823B11F0823D19F48091B3050895853FE3
:1049200019F48091B405089580E00895CF93DF9342
:10493000CEE5D5E09F838887492F63E170E080E66C
:1049400095E00E94BA0E488564E170E080E695E04B
:10495000DF91CF910C94BA0ECF93DF93CDB7DEB732
:1049600028970FB6F894DEBF0FBECDBF1092AA06EF
:104970008093D50584E090E09093250680932406EB
:1049800082E08093900583E0809391056091C1055A
:1049900070E080E090E09E012F5F3F4FF90148E01A
:1049A000420F11924E13FDCF41E04093890540E044
:1049B0000E940812109289050E94C50D6093260678
:1049C00070932706809328069093290628960FB6A1
:1049D000F894DEBF0FBECDBFDF91CF910895EF9267
:1049E000FF920F931F93CF93DF931F92CDB7DEB744
:1049F000182FF62EE42E60E080918B0579830E94BB
:104A0000DD0C83E00E941B0E812F0E941B0E0F2DD8
:104A10007981172FF12CFE1459F0F8E0FF1641F0C0
:104A200080E00E941B0EF80181938F01F394F3CF75
:104A300061E080918B050F90DF91CF911F910F91D5
:104A4000FF90EF900C94DD0C0F931F93CF93DF93A7
:104A500000D000D0CDB7DEB7182F10927B05109292
:104A60007C0510927D0510927E0510927F0544E032
:104A7000BE016F5F7F4F0E94EF248A819981482F8A
:104A800050E065E0559547956A95E1F728E0929FDB
:104A9000400D511D1124052E000C660B770B409321
:104AA0007C0550937D0560937E0570937F0583FFA1
:104AB00029C092E0440F551F661F771F9A95D1F7C2
:104AC0008370480F511D611D711D762F652F542F66
:104AD00044278B81480F511D611D711D762F652F55
:104AE000542F44278C81480F511D611D711D409327
:104AF0007C0550937D0560937E0570937F0581E072
:104B000080937B058FEF810F0E94A011082F84E016
:104B1000810F0E94A011482F03FF04C081E0809301
:104B2000890502C0109289054F704093800561E8A5
:104B300075E085E0810F0E94EF240F900F900F9099
:104B40000F90DF91CF911F910F9108951F93CF93F5
:104B5000DF93CEE5D5E060E08DA50E94DD0C80EA14
:104B60000E941B0E80E00E941B0E182F61E08DA595
:104B70000E94DD0C812FDF91CF911F910895CF937B
:104B8000DF93CDB7DEB727970FB6F894DEBF0FBE21
:104B9000CDBF789484B5826084BD84B5816084BDC6
:104BA00085B5826085BD85B5816085BD80916E00CB
:104BB000816080936E0010928100809181008260FC
:104BC0008093810080918100816080938100809139
:104BD00080008160809380008091B1008460809328
:104BE000B1008091B00081608093B00080917A0024
:104BF000846080937A0080917A00826080937A004A
:104C000080917A00816080937A0080917A00806838
:104C100080937A001092C10061E088E00E940D0D3F
:104C200061E087E00E940D0D61E089E00E940D0DBA
:104C30000E94461683E08093000119E1C12E11E025
:104C4000D12E01E211E0460184E0B82EBC0C60E0F8
:104C5000D4018D914D010E940D0D62E0F80181910A
:104C60008F010E940D0DB810F2CF60E083E10E9429
:104C70000D0D60E082E10E940D0DE0916F03F09157
:104C8000700382E08083E0916B03F0916C031082EB
:104C9000E0916D03F0916E0380E1808310927703C1
:104CA000E0917303F091740386E08083E0917103D7
:104CB000F0917203808180618083E0917103F091B3
:104CC0007203808188608083E0917103F0917203A8
:104CD000808180688083E0917103F091720380810C
:104CE0008F7D808388E492E00E946F136AE070E019
:104CF00081E090E00E94AF138FE691E00E94C41023
:104D00006AE070E085E090E00E944C1381ED91E054
:104D10000E94B4238BE192E00E9490138BEC91E00F
:104D20000E94901386EB91E00E94901381EA91E03B
:104D30000E94901381ED91E00E94B4238CE891E0F1
:104D40000E94901381ED91E00E94B42362E08AE01A
:104D50000E940D0D62E08BE00E940D0D62E08CE080
:104D60000E940D0D8AE00E94B40C892B11F00C9466
:104D700086348BE00E94B40C892B11F00C9486349D
:104D80008CE00E94B40C892B11F00C9486340E94A4
:104D9000181DA4ECB5E0FD01119205E0EC3CF00714
:104DA000D9F7E1E7F1E081918D9311E0E837F10760
:104DB000D1F78DE58093CD058DE08093CC0585E31B
:104DC0008093CF0581E08093D0058091CE058360EC
:104DD0008093CE0584EC90E0A0E0B0E08093D8050D
:104DE0009093D905A093DA05B093DB0586EB93E1A8
:104DF0009093AC068093AB068AE080938B0561E0CC
:104E00000E940D0D61E080918B050E94DD0C44E154
:104E1000842E912C52EDA52E50E0B52E6EEBE62E91
:104E200060E0F62EDFB6F8948091D002811125C0A3
:104E3000F5018491F701249190E0880F991F865520
:104E40009F4FFC01A591B4918C91282321F461E03E
:104E50008AE00E94DD0C61E08AE00E940D0D8CB5B5
:104E600080618CBD8CB580648CBD61E08DE00E945A
:104E70000D0D61E08BE00E940D0D8091D0028F5FDF
:104E80008093D002DFBE60E080918B050E94DD0C34
:104E900080EC0E941B0E61E080918B050E94DD0C6E
:104EA0006AE070E080E090E00E948B0D80E80E9454
:104EB0005624882391F06AE070E080E090E00E9440
:104EC0008B0D6EE170E080E090E00E948B0DF1E0D0
:104ED0008F1A910809F0A6CF4BC06AE070E080E01D
:104EE00090E00E948B0D61E08AE20E94EB1161EB81
:104EF00089E20E94EB1165E088E20E94EB116AE012
:104F000070E080E090E00E948B0D10E360E0812F64
:104F10000E94EB1160E080E1810F0E94EB1160E0E4
:104F200080E2810F0E94EB111F5F1E3379F760E072
:104F300080E60E94EB1160E080E70E94EB1163E0E5
:104F40008BE20E94EB1144E064E680E60E94BD1112
:104F500040E060E680E70E94BD1180E00E94562498
:104F60008111A9CF6AE070E080E090E00E948B0D93
:104F70008FEF8093B8066CE180E695E00E943810D0
:104F800086FD05C080919E028111B9C1A8C180E64D
:104F900095E00E944A0F80E691E00E94901389E517
:104FA00091E00E946F1380E090E00E94B80E6AE0EA
:104FB00070E00E942E2480E591E00E946F136AE069
:104FC00070E0809164050E942E248BE491E00E94A1
:104FD0006F138091650590E0982F882720916605D2
:104FE000822B90937605809375050E94601183E46F
:104FF00091E00E946F136AE070E0809174050E9456
:105000002E2486E391E00E946F136AE070E08091A5
:1050100067050E942E2484E291E00E946F136AE0EB
:1050200070E080916B050E942E2488E191E00E943F
:105030006F136AE070E0809169050E942E2489E771
:1050400091E00E94C4106AE070E089E190E00E9463
:10505000AF1380E891E00E94C4108091690590E050
:105060006AE070E048960E94AF1382E891E00E94E7
:10507000C41010E080916905181778F4812F90E032
:1050800049960E94B80E60E170E00E942E2486E1ED
:1050900091E00E946F131F5FEDCF85E091E00E94C9
:1050A0006F136AE070E080E190E00E94AF1386E841
:1050B00091E00E94C4106AE070E082E090E00E94FB
:1050C000AF1380E891E00E94C4106AE070E081E1D3
:1050D00090E00E94AF1382E891E00E94C41002E0C9
:1050E00010E0C8010E94B80E60E170E00E942E241A
:1050F00083E091E00E946F130F5F1F4F0231110593
:1051000081F785EF90E00E946F136AE070E0809174
:105110006C050E942E248CE891E00E94C4106AE085
:1051200070E080916F050E942E2480E891E00E943B
:10513000C41020916F0580916C0590E00197880F55
:10514000991F820F911D6AE070E001960E94AF13D3
:1051500082E991E00E94C4106AE070E082E090E091
:105160000E94AF1382E891E00E94C41010E0809189
:105170006C05181718F5E12EF12CEE0CFF1C809130
:105180006F056701C80ED11CC6010E94B80E60E110
:1051900070E00E942E2480916F059701280F311D29
:1051A000C90101960E94B80E60E170E00E942E24B1
:1051B00083EF90E00E946F131F5FD9CFC0906D0501
:1051C000D0906E058AEE90E00E946F136AE070E066
:1051D00080916A050E942E248CE891E00E94C41000
:1051E0006AE070E0C6010E94AF1380E891E00E947F
:1051F000C41080916A05A60164E0869F400D511D90
:105200001124CA016AE070E001970E94AF1382E99D
:1052100091E00E94C4106AE070E084E090E00E9497
:10522000AF1382E891E00E94B42310E080916A05F8
:10523000181708F0A7CE7601B4E0EB0EF11CC601FA
:105240000E94B80E60E170E00E942E247FEFC71A22
:10525000D70A88EE90E00E946F13CE14DF0479F72E
:1052600086EE90E00E946F13C12ED12CCC0CDD1C79
:10527000A12CB12CF501EC0DFD1DE450FC4F60E1BB
:1052800070E0808191810E94AF1384EE90E00E94D3
:105290006F1382E4A80EB11C98E0A91691E0B9063C
:1052A00049F78EED90E00E946F13670190916B05B6
:1052B0008C2D8E19891778F4C6010E94B80E60E112
:1052C00070E00E942E24AFEFCA1ADA0A8CED90E04B
:1052D0000E946F13EBCF0E9448131F5FA7CF10925D
:1052E000B00681E08093B10661E080E00E940D0D80
:1052F0008091B1068F3F19F061E00E940D0D0E9470
:1053000056160E94801D82E791E00E949013FDE1F5
:10531000AF2EF1E0BF2E01E010E0F50191905F01AA
:10532000892D0E94490D3C017C01F2E0EF16F10449
:1053300084F1892D0E94490D6C019301281B390BC2
:1053400037FF03C031952195310979016AE070E09A
:1053500080E090E00E948B0D80919E028823B9F03E
:105360006AE070E0C8010E94AF1386ED91E00E94F0
:10537000C4106AE070E0C6010E94AF1382EF91E0B2
:105380000E94C4106AE070E0C7010E944C1336010D
:10539000CCCF0F5F1F4F0530110509F0BECF81ED57
:1053A00091E00E94B4238CE691E00E94901381ED7D
:1053B00091E00E94B42322242394312C412C512CBF
:1053C000320143940E94660D6093CC027093CD022B
:1053D0008093CE029093CF02009152031091530319
:1053E00020915403309155036B017C01C01AD10AFE
:1053F000E20AF30A49EEC41643E0D406E104F104DC
:1054000048F40E9490028091D7058823C1F10E9440
:10541000561635C060935203709353038093540320
:105420009093550310E001E00E94A625837019F1C6
:105430000C94873580918C0580939A0680918D0518
:1054400080939B0680918E0580939C0680918F05AA
:1054500080939D06409398068091890581110C9454
:10546000B6351092990680911E0690911F06892BE1
:1054700011F40C94BA35113021F211E0D5CF80919E
:10548000C8029091C902A091CA02B091CB020097C4
:10549000A105B10509F49FC0C090CC02D090CD0207
:1054A000E090CE02F090CF02C81AD90AEA0AFB0AAD
:1054B0004091C2055091C30520E137E2429FC001EF
:1054C000439F900D529F900D1124A0E0B0E08C15E9
:1054D0009D05AE05BF0508F07EC062E0A62E62E025
:1054E000B62EC12CD12C8091FE0190E00C2C02C074
:1054F000959587950A94E2F7209101027C01A1E03D
:10550000EA22FF2480FF09C0F5016081718181E0FA
:10551000211180E00E94F72308C0D5016D917C9194
:1055200081E0211180E00E94C02380919E028601CB
:105530000F5F1F4F882399F180917A0290917B022F
:1055400002C095958795CA94E2F780FF03C0EF28C3
:1055500019F405C0EF2819F484E991E002C088E944
:1055600091E00E94C41086E692E00E946F136AE008
:1055700070E0C8010E94AF1382EF91E00E94C41056
:10558000F501808191810E9460118CE592E00E947A
:1055900090136AE070E080E090E00E948B0D68015B
:1055A000F2E0AF0EB11C0CE0C016D10409F09BCFA5
:1055B0008091FE0190916905993128F090E09093D7
:1055C0003705809336051092C8021092C9021092D6
:1055D000CA021092CB0258EAE52E51E0F52E99242A
:1055E00093948FE593E00E94B90A181619060CF0FF
:1055F0006AC18FE593E00E94970A8C3349F461ED0C
:1056000071E082ED92E00E94483B1092D102E9CF16
:105610008E3309F032C18AEA92E00E946F1342EDA4
:10562000A42E42E0B42E812C00E010E08091D10243
:1056300090E008171907B4F46501E0915F03F09159
:1056400060030190F081E02DD5016D915D018FE542
:1056500093E00995F60180818A3309F4802E0F5F6B
:105660001F4FE4CF81ED91E00E94B4239091D202CC
:10567000892F8F7D843509F05FC08FE992E00E9409
:105680006F1383ED92E00E949E398C01009709F41C
:1056900050C06AE070E00E944C13C8010197409727
:1056A000A8F4F801EC5DFE4FC101008002C0880F34
:1056B000991F0A94E2F72091B9023091BA02822729
:1056C00093279093BA028093B90204C01092BA0251
:1056D0001092B9020E944616C9C0963591F58820ED
:1056E00009F488C083ED92E00E949E398C01882DD8
:1056F00090E08D529D4F0E949E396C0185E992E0A9
:105700000E946F136AE070E0C8010E94AF138CE939
:1057100091E00E94C4106AE070E0C6010E94AF13DD
:1057200082EF91E00E94C410FFEFCF16D10469F020
:1057300064F00E943E169AC0813479F60E94801D62
:1057400095C0963789F40C940737C80101978D32BC
:10575000910578F7880F991FFC01EC5BFD4FD18212
:10576000C0826C2D802F3FC0973419F0973609F016
:1057700041C0882009F47AC083ED92E00E949E39EE
:105780008C01882D90E08D529D4F0E949E396C01B6
:105790008AE892E00E946F136AE070E0C8010E94FC
:1057A000AF138CE991E00E94C4106AE070E0C6017A
:1057B0000E94AF13C114D10409F4BBCFC8010197F3
:1057C0008830910510F00C941C37F801EE0FFF1F84
:1057D000049710F00C940D37EA57FD4FD182C08228
:1057E0006C2D82E2800F0E949C1381ED91E00E945B
:1057F000B4233CC0843429F581EA91E00E94C410AE
:1058000083ED92E00E949E399C01215031092031A4
:10581000310518F08336910579F490929E028093B9
:10582000000283E892E00E946F136AE070E08091CA
:105830009E020E9445241AC010929E0210920002FD
:1058400015C0893449F48CE792E00E9490130E94BD
:105850003A160E94181D0AC0823541F480E792E092
:105860000E94901380E695E00E948E2161ED71E028
:1058700082ED92E00E94483BB4CEE2EDF2E001906E
:105880000020E9F73197E25DF2403F9708F0A9CE9A
:10589000282F082E000C330B3F938F93A2EDB2E01C
:1058A000BF93AF93FF92EF92BF93AF930E944F3B92
:1058B0008091D1028F5F8093D1020FB6F894DEBF42
:1058C0000FBECDBF8ECE8091CC029091CD02A09123
:1058D000CE02B091CF0240914E0350914F036091A0
:1058E0005003709151036C017D01C41AD50AE60A78
:1058F000F70A09E8C01603E1D006E104F10408F450
:1059000057C580934E0390934F03A0935003B093D9
:105910005103809129038F5F843018F48093290309
:1059200002C010922903F09029030F2D10E0F80116
:10593000E35EFE4F80810E94490D9D838C838091A0
:10594000B802A1010F2C02C0440F551F0A94E2F7C0
:10595000282F30E0242335232417350709F0A6C16A
:105960008F7090E002C095958795FA94E2F70197C1
:1059700009F09CC180919E028823F1F00E94B0152D
:105980008091290390E06AE070E001960E94AF13D5
:1059900082EF91E00E94C4106AE070E080912803D9
:1059A0000E942E2482EF91E00E94C4106AE070E011
:1059B0008C819D810E944C138091280381112CC001
:1059C0008091290390E0880F991FFC01E156FD4F5B
:1059D00020813181CC80DD802C193D0937FF03C047
:1059E0003195219531092230310574F40C811D81E6
:1059F0000F3F110549F044F0802F8F5F8093F6022E
:105A000081E08093280343C4FC01E156FD4FCC8024
:105A1000DD80D182C0823BC4E82FF0E0EA50FD4F28
:105A20009C819F5F90838F5F80932803823309F06E
:105A30002EC480912903C82ED12C8301720104C089
:105A4000EE0CFF1C001F111F8A95D2F7D801C70169
:105A500080959091B80289238093B8021092280310
:105A600016EFE12E12E0F12EF70160E070E0CB01BD
:105A70002191620F711D811D911D03E0E832F00735
:105A8000B9F722E330E040E050E00E94DA39490102
:105A90005A018091900290919102092E000CAA0B5C
:105AA000BB0B89019A01081B190B2A0B3B0B80E0E9
:105AB00090E0D7014D917D0150E060E070E040172B
:105AC00051076207730728F49F5F891718F4892F1D
:105AD00001C090E0B8E2EB16B3E0FB0651F722E319
